{
	"Auction.sol": {
		"Auction": {
			"abi": [
				{
					"inputs": [
						{
							"internalType": "uint256",
							"name": "",
							"type": "uint256"
						}
					],
					"name": "Assets",
					"outputs": [
						{
							"internalType": "string",
							"name": "AssetName",
							"type": "string"
						},
						{
							"internalType": "uint256",
							"name": "AssetSP",
							"type": "uint256"
						},
						{
							"internalType": "address",
							"name": "Owner",
							"type": "address"
						}
					],
					"stateMutability": "view",
					"type": "function"
				},
				{
					"inputs": [],
					"name": "Bidding",
					"outputs": [],
					"stateMutability": "nonpayable",
					"type": "function"
				},
				{
					"inputs": [],
					"name": "Result",
					"outputs": [],
					"stateMutability": "nonpayable",
					"type": "function"
				},
				{
					"inputs": [
						{
							"internalType": "address",
							"name": "",
							"type": "address"
						}
					],
					"name": "Users",
					"outputs": [
						{
							"internalType": "string",
							"name": "",
							"type": "string"
						}
					],
					"stateMutability": "view",
					"type": "function"
				},
				{
					"inputs": [
						{
							"internalType": "string",
							"name": "Name",
							"type": "string"
						},
						{
							"internalType": "uint256",
							"name": "Price",
							"type": "uint256"
						}
					],
					"name": "addAsset",
					"outputs": [],
					"stateMutability": "nonpayable",
					"type": "function"
				},
				{
					"inputs": [
						{
							"internalType": "string",
							"name": "Name",
							"type": "string"
						}
					],
					"name": "addUser",
					"outputs": [],
					"stateMutability": "nonpayable",
					"type": "function"
				},
				{
					"inputs": [],
					"name": "getAll",
					"outputs": [],
					"stateMutability": "nonpayable",
					"type": "function"
				}
			],
			"devdoc": {
				"kind": "dev",
				"methods": {},
				"version": 1
			},
			"evm": {
				"assembly": "    /* \"Auction.sol\":65:681  contract Auction {\r... */\n  mstore(0x40, 0x80)\n    /* \"Auction.sol\":390:391  0 */\n  0x00\n    /* \"Auction.sol\":380:391  uint Id = 0 */\n  0x02\n  sstore\n    /* \"Auction.sol\":65:681  contract Auction {\r... */\n  callvalue\n  dup1\n  iszero\n  tag_1\n  jumpi\n  0x00\n  dup1\n  revert\ntag_1:\n  pop\n  dataSize(sub_0)\n  dup1\n  dataOffset(sub_0)\n  0x00\n  codecopy\n  0x00\n  return\nstop\n\nsub_0: assembly {\n        /* \"Auction.sol\":65:681  contract Auction {\r... */\n      mstore(0x40, 0x80)\n      callvalue\n      dup1\n      iszero\n      tag_1\n      jumpi\n      0x00\n      dup1\n      revert\n    tag_1:\n      pop\n      jumpi(tag_2, lt(calldatasize, 0x04))\n      shr(0xe0, calldataload(0x00))\n      dup1\n      0x4b4a80ba\n      gt\n      tag_10\n      jumpi\n      dup1\n      0x4b4a80ba\n      eq\n      tag_6\n      jumpi\n      dup1\n      0x53ed5143\n      eq\n      tag_7\n      jumpi\n      dup1\n      0x99b956a0\n      eq\n      tag_8\n      jumpi\n      dup1\n      0xf4e5d599\n      eq\n      tag_9\n      jumpi\n      jump(tag_2)\n    tag_10:\n      dup1\n      0x18b8275a\n      eq\n      tag_3\n      jumpi\n      dup1\n      0x1bc7ffe9\n      eq\n      tag_4\n      jumpi\n      dup1\n      0x3e8a0585\n      eq\n      tag_5\n      jumpi\n    tag_2:\n      0x00\n      dup1\n      revert\n        /* \"Auction.sol\":287:374  function addUser(string memory Name) public {\r... */\n    tag_3:\n      tag_11\n      0x04\n      dup1\n      calldatasize\n      sub\n      dup2\n      add\n      swap1\n      tag_12\n      swap2\n      swap1\n      tag_13\n      jump\t// in\n    tag_12:\n      tag_14\n      jump\t// in\n    tag_11:\n      stop\n        /* \"Auction.sol\":398:532  function addAsset(string memory Name, uint Price) public {\r... */\n    tag_4:\n      tag_15\n      0x04\n      dup1\n      calldatasize\n      sub\n      dup2\n      add\n      swap1\n      tag_16\n      swap2\n      swap1\n      tag_17\n      jump\t// in\n    tag_16:\n      tag_18\n      jump\t// in\n    tag_15:\n      stop\n        /* \"Auction.sol\":591:631  function Bidding() public {\r... */\n    tag_5:\n      tag_19\n      tag_20\n      jump\t// in\n    tag_19:\n      stop\n        /* \"Auction.sol\":242:278  mapping(uint => Asset) public Assets */\n    tag_6:\n      tag_21\n      0x04\n      dup1\n      calldatasize\n      sub\n      dup2\n      add\n      swap1\n      tag_22\n      swap2\n      swap1\n      tag_23\n      jump\t// in\n    tag_22:\n      tag_24\n      jump\t// in\n    tag_21:\n      mload(0x40)\n      tag_25\n      swap4\n      swap3\n      swap2\n      swap1\n      tag_26\n      jump\t// in\n    tag_25:\n      mload(0x40)\n      dup1\n      swap2\n      sub\n      swap1\n      return\n        /* \"Auction.sol\":540:585  function getAll() public {\r... */\n    tag_7:\n      tag_27\n      tag_28\n      jump\t// in\n    tag_27:\n      stop\n        /* \"Auction.sol\":196:235  mapping(address => string) public Users */\n    tag_8:\n      tag_29\n      0x04\n      dup1\n      calldatasize\n      sub\n      dup2\n      add\n      swap1\n      tag_30\n      swap2\n      swap1\n      tag_31\n      jump\t// in\n    tag_30:\n      tag_32\n      jump\t// in\n    tag_29:\n      mload(0x40)\n      tag_33\n      swap2\n      swap1\n      tag_34\n      jump\t// in\n    tag_33:\n      mload(0x40)\n      dup1\n      swap2\n      sub\n      swap1\n      return\n        /* \"Auction.sol\":639:674  function Result() public {\r... */\n    tag_9:\n      tag_35\n      tag_36\n      jump\t// in\n    tag_35:\n      stop\n        /* \"Auction.sol\":287:374  function addUser(string memory Name) public {\r... */\n    tag_14:\n        /* \"Auction.sol\":362:366  Name */\n      dup1\n        /* \"Auction.sol\":342:347  Users */\n      0x00\n        /* \"Auction.sol\":342:359  Users[msg.sender] */\n      dup1\n        /* \"Auction.sol\":348:358  msg.sender */\n      caller\n        /* \"Auction.sol\":342:359  Users[msg.sender] */\n      0xffffffffffffffffffffffffffffffffffffffff\n      and\n      0xffffffffffffffffffffffffffffffffffffffff\n      and\n      dup2\n      mstore\n      0x20\n      add\n      swap1\n      dup2\n      mstore\n      0x20\n      add\n      0x00\n      keccak256\n        /* \"Auction.sol\":342:366  Users[msg.sender] = Name */\n      swap1\n      dup1\n      mload\n      swap1\n      0x20\n      add\n      swap1\n      tag_38\n      swap3\n      swap2\n      swap1\n      tag_39\n      jump\t// in\n    tag_38:\n      pop\n        /* \"Auction.sol\":287:374  function addUser(string memory Name) public {\r... */\n      pop\n      jump\t// out\n        /* \"Auction.sol\":398:532  function addAsset(string memory Name, uint Price) public {\r... */\n    tag_18:\n        /* \"Auction.sol\":466:468  Id */\n      0x02\n      0x00\n        /* \"Auction.sol\":466:470  Id++ */\n      dup2\n      sload\n      dup1\n      swap3\n      swap2\n      swap1\n      tag_41\n      swap1\n      tag_42\n      jump\t// in\n    tag_41:\n      swap2\n      swap1\n      pop\n      sstore\n      pop\n        /* \"Auction.sol\":494:524  Asset(Name, Price, msg.sender) */\n      mload(0x40)\n      dup1\n      0x60\n      add\n      0x40\n      mstore\n      dup1\n        /* \"Auction.sol\":500:504  Name */\n      dup4\n        /* \"Auction.sol\":494:524  Asset(Name, Price, msg.sender) */\n      dup2\n      mstore\n      0x20\n      add\n        /* \"Auction.sol\":506:511  Price */\n      dup3\n        /* \"Auction.sol\":494:524  Asset(Name, Price, msg.sender) */\n      dup2\n      mstore\n      0x20\n      add\n        /* \"Auction.sol\":513:523  msg.sender */\n      caller\n        /* \"Auction.sol\":494:524  Asset(Name, Price, msg.sender) */\n      0xffffffffffffffffffffffffffffffffffffffff\n      and\n      dup2\n      mstore\n      pop\n        /* \"Auction.sol\":481:487  Assets */\n      0x01\n        /* \"Auction.sol\":481:491  Assets[Id] */\n      0x00\n        /* \"Auction.sol\":488:490  Id */\n      sload(0x02)\n        /* \"Auction.sol\":481:491  Assets[Id] */\n      dup2\n      mstore\n      0x20\n      add\n      swap1\n      dup2\n      mstore\n      0x20\n      add\n      0x00\n      keccak256\n        /* \"Auction.sol\":481:524  Assets[Id] = Asset(Name, Price, msg.sender) */\n      0x00\n      dup3\n      add\n      mload\n      dup2\n      0x00\n      add\n      swap1\n      dup1\n      mload\n      swap1\n      0x20\n      add\n      swap1\n      tag_43\n      swap3\n      swap2\n      swap1\n      tag_39\n      jump\t// in\n    tag_43:\n      pop\n      0x20\n      dup3\n      add\n      mload\n      dup2\n      0x01\n      add\n      sstore\n      0x40\n      dup3\n      add\n      mload\n      dup2\n      0x02\n      add\n      exp(0x0100, 0x00)\n      dup2\n      sload\n      dup2\n      0xffffffffffffffffffffffffffffffffffffffff\n      mul\n      not\n      and\n      swap1\n      dup4\n      0xffffffffffffffffffffffffffffffffffffffff\n      and\n      mul\n      or\n      swap1\n      sstore\n      pop\n      swap1\n      pop\n      pop\n        /* \"Auction.sol\":398:532  function addAsset(string memory Name, uint Price) public {\r... */\n      pop\n      pop\n      jump\t// out\n        /* \"Auction.sol\":591:631  function Bidding() public {\r... */\n    tag_20:\n      jump\t// out\n        /* \"Auction.sol\":242:278  mapping(uint => Asset) public Assets */\n    tag_24:\n      mstore(0x20, 0x01)\n      dup1\n      0x00\n      mstore\n      keccak256(0x00, 0x40)\n      0x00\n      swap2\n      pop\n      swap1\n      pop\n      dup1\n      0x00\n      add\n      dup1\n      sload\n      tag_45\n      swap1\n      tag_46\n      jump\t// in\n    tag_45:\n      dup1\n      0x1f\n      add\n      0x20\n      dup1\n      swap2\n      div\n      mul\n      0x20\n      add\n      mload(0x40)\n      swap1\n      dup2\n      add\n      0x40\n      mstore\n      dup1\n      swap3\n      swap2\n      swap1\n      dup2\n      dup2\n      mstore\n      0x20\n      add\n      dup3\n      dup1\n      sload\n      tag_47\n      swap1\n      tag_46\n      jump\t// in\n    tag_47:\n      dup1\n      iszero\n      tag_48\n      jumpi\n      dup1\n      0x1f\n      lt\n      tag_49\n      jumpi\n      0x0100\n      dup1\n      dup4\n      sload\n      div\n      mul\n      dup4\n      mstore\n      swap2\n      0x20\n      add\n      swap2\n      jump(tag_48)\n    tag_49:\n      dup3\n      add\n      swap2\n      swap1\n      0x00\n      mstore\n      keccak256(0x00, 0x20)\n      swap1\n    tag_50:\n      dup2\n      sload\n      dup2\n      mstore\n      swap1\n      0x01\n      add\n      swap1\n      0x20\n      add\n      dup1\n      dup4\n      gt\n      tag_50\n      jumpi\n      dup3\n      swap1\n      sub\n      0x1f\n      and\n      dup3\n      add\n      swap2\n    tag_48:\n      pop\n      pop\n      pop\n      pop\n      pop\n      swap1\n      dup1\n      0x01\n      add\n      sload\n      swap1\n      dup1\n      0x02\n      add\n      0x00\n      swap1\n      sload\n      swap1\n      0x0100\n      exp\n      swap1\n      div\n      0xffffffffffffffffffffffffffffffffffffffff\n      and\n      swap1\n      pop\n      dup4\n      jump\t// out\n        /* \"Auction.sol\":540:585  function getAll() public {\r... */\n    tag_28:\n      jump\t// out\n        /* \"Auction.sol\":196:235  mapping(address => string) public Users */\n    tag_32:\n      mstore(0x20, 0x00)\n      dup1\n      0x00\n      mstore\n      keccak256(0x00, 0x40)\n      0x00\n      swap2\n      pop\n      swap1\n      pop\n      dup1\n      sload\n      tag_52\n      swap1\n      tag_46\n      jump\t// in\n    tag_52:\n      dup1\n      0x1f\n      add\n      0x20\n      dup1\n      swap2\n      div\n      mul\n      0x20\n      add\n      mload(0x40)\n      swap1\n      dup2\n      add\n      0x40\n      mstore\n      dup1\n      swap3\n      swap2\n      swap1\n      dup2\n      dup2\n      mstore\n      0x20\n      add\n      dup3\n      dup1\n      sload\n      tag_53\n      swap1\n      tag_46\n      jump\t// in\n    tag_53:\n      dup1\n      iszero\n      tag_54\n      jumpi\n      dup1\n      0x1f\n      lt\n      tag_55\n      jumpi\n      0x0100\n      dup1\n      dup4\n      sload\n      div\n      mul\n      dup4\n      mstore\n      swap2\n      0x20\n      add\n      swap2\n      jump(tag_54)\n    tag_55:\n      dup3\n      add\n      swap2\n      swap1\n      0x00\n      mstore\n      keccak256(0x00, 0x20)\n      swap1\n    tag_56:\n      dup2\n      sload\n      dup2\n      mstore\n      swap1\n      0x01\n      add\n      swap1\n      0x20\n      add\n      dup1\n      dup4\n      gt\n      tag_56\n      jumpi\n      dup3\n      swap1\n      sub\n      0x1f\n      and\n      dup3\n      add\n      swap2\n    tag_54:\n      pop\n      pop\n      pop\n      pop\n      pop\n      dup2\n      jump\t// out\n        /* \"Auction.sol\":639:674  function Result() public {\r... */\n    tag_36:\n      jump\t// out\n    tag_39:\n      dup3\n      dup1\n      sload\n      tag_58\n      swap1\n      tag_46\n      jump\t// in\n    tag_58:\n      swap1\n      0x00\n      mstore\n      keccak256(0x00, 0x20)\n      swap1\n      0x1f\n      add\n      0x20\n      swap1\n      div\n      dup2\n      add\n      swap3\n      dup3\n      tag_60\n      jumpi\n      0x00\n      dup6\n      sstore\n      jump(tag_59)\n    tag_60:\n      dup3\n      0x1f\n      lt\n      tag_61\n      jumpi\n      dup1\n      mload\n      not(0xff)\n      and\n      dup4\n      dup1\n      add\n      or\n      dup6\n      sstore\n      jump(tag_59)\n    tag_61:\n      dup3\n      dup1\n      add\n      0x01\n      add\n      dup6\n      sstore\n      dup3\n      iszero\n      tag_59\n      jumpi\n      swap2\n      dup3\n      add\n    tag_62:\n      dup3\n      dup2\n      gt\n      iszero\n      tag_63\n      jumpi\n      dup3\n      mload\n      dup3\n      sstore\n      swap2\n      0x20\n      add\n      swap2\n      swap1\n      0x01\n      add\n      swap1\n      jump(tag_62)\n    tag_63:\n    tag_59:\n      pop\n      swap1\n      pop\n      tag_64\n      swap2\n      swap1\n      tag_65\n      jump\t// in\n    tag_64:\n      pop\n      swap1\n      jump\t// out\n    tag_65:\n    tag_66:\n      dup1\n      dup3\n      gt\n      iszero\n      tag_67\n      jumpi\n      0x00\n      dup2\n      0x00\n      swap1\n      sstore\n      pop\n      0x01\n      add\n      jump(tag_66)\n    tag_67:\n      pop\n      swap1\n      jump\t// out\n        /* \"#utility.yul\":7:352   */\n    tag_69:\n      0x00\n        /* \"#utility.yul\":110:176   */\n      tag_71\n        /* \"#utility.yul\":126:175   */\n      tag_72\n        /* \"#utility.yul\":168:174   */\n      dup5\n        /* \"#utility.yul\":126:175   */\n      tag_73\n      jump\t// in\n    tag_72:\n        /* \"#utility.yul\":110:176   */\n      tag_74\n      jump\t// in\n    tag_71:\n        /* \"#utility.yul\":101:176   */\n      swap1\n      pop\n        /* \"#utility.yul\":199:205   */\n      dup3\n        /* \"#utility.yul\":192:197   */\n      dup2\n        /* \"#utility.yul\":185:206   */\n      mstore\n        /* \"#utility.yul\":237:241   */\n      0x20\n        /* \"#utility.yul\":230:235   */\n      dup2\n        /* \"#utility.yul\":226:242   */\n      add\n        /* \"#utility.yul\":275:278   */\n      dup5\n        /* \"#utility.yul\":266:272   */\n      dup5\n        /* \"#utility.yul\":261:264   */\n      dup5\n        /* \"#utility.yul\":257:273   */\n      add\n        /* \"#utility.yul\":254:279   */\n      gt\n        /* \"#utility.yul\":251:253   */\n      iszero\n      tag_75\n      jumpi\n        /* \"#utility.yul\":292:293   */\n      0x00\n        /* \"#utility.yul\":289:290   */\n      dup1\n        /* \"#utility.yul\":282:294   */\n      revert\n        /* \"#utility.yul\":251:253   */\n    tag_75:\n        /* \"#utility.yul\":305:346   */\n      tag_76\n        /* \"#utility.yul\":339:345   */\n      dup5\n        /* \"#utility.yul\":334:337   */\n      dup3\n        /* \"#utility.yul\":329:332   */\n      dup6\n        /* \"#utility.yul\":305:346   */\n      tag_77\n      jump\t// in\n    tag_76:\n        /* \"#utility.yul\":91:352   */\n      pop\n      swap4\n      swap3\n      pop\n      pop\n      pop\n      jump\t// out\n        /* \"#utility.yul\":358:497   */\n    tag_78:\n      0x00\n        /* \"#utility.yul\":442:448   */\n      dup2\n        /* \"#utility.yul\":429:449   */\n      calldataload\n        /* \"#utility.yul\":420:449   */\n      swap1\n      pop\n        /* \"#utility.yul\":458:491   */\n      tag_80\n        /* \"#utility.yul\":485:490   */\n      dup2\n        /* \"#utility.yul\":458:491   */\n      tag_81\n      jump\t// in\n    tag_80:\n        /* \"#utility.yul\":410:497   */\n      swap3\n      swap2\n      pop\n      pop\n      jump\t// out\n        /* \"#utility.yul\":517:790   */\n    tag_82:\n      0x00\n        /* \"#utility.yul\":622:625   */\n      dup3\n        /* \"#utility.yul\":615:619   */\n      0x1f\n        /* \"#utility.yul\":607:613   */\n      dup4\n        /* \"#utility.yul\":603:620   */\n      add\n        /* \"#utility.yul\":599:626   */\n      slt\n        /* \"#utility.yul\":589:591   */\n      tag_84\n      jumpi\n        /* \"#utility.yul\":640:641   */\n      0x00\n        /* \"#utility.yul\":637:638   */\n      dup1\n        /* \"#utility.yul\":630:642   */\n      revert\n        /* \"#utility.yul\":589:591   */\n    tag_84:\n        /* \"#utility.yul\":680:686   */\n      dup2\n        /* \"#utility.yul\":667:687   */\n      calldataload\n        /* \"#utility.yul\":705:784   */\n      tag_85\n        /* \"#utility.yul\":780:783   */\n      dup5\n        /* \"#utility.yul\":772:778   */\n      dup3\n        /* \"#utility.yul\":765:769   */\n      0x20\n        /* \"#utility.yul\":757:763   */\n      dup7\n        /* \"#utility.yul\":753:770   */\n      add\n        /* \"#utility.yul\":705:784   */\n      tag_69\n      jump\t// in\n    tag_85:\n        /* \"#utility.yul\":696:784   */\n      swap2\n      pop\n        /* \"#utility.yul\":579:790   */\n      pop\n      swap3\n      swap2\n      pop\n      pop\n      jump\t// out\n        /* \"#utility.yul\":796:935   */\n    tag_86:\n      0x00\n        /* \"#utility.yul\":880:886   */\n      dup2\n        /* \"#utility.yul\":867:887   */\n      calldataload\n        /* \"#utility.yul\":858:887   */\n      swap1\n      pop\n        /* \"#utility.yul\":896:929   */\n      tag_88\n        /* \"#utility.yul\":923:928   */\n      dup2\n        /* \"#utility.yul\":896:929   */\n      tag_89\n      jump\t// in\n    tag_88:\n        /* \"#utility.yul\":848:935   */\n      swap3\n      swap2\n      pop\n      pop\n      jump\t// out\n        /* \"#utility.yul\":941:1203   */\n    tag_31:\n      0x00\n        /* \"#utility.yul\":1049:1051   */\n      0x20\n        /* \"#utility.yul\":1037:1046   */\n      dup3\n        /* \"#utility.yul\":1028:1035   */\n      dup5\n        /* \"#utility.yul\":1024:1047   */\n      sub\n        /* \"#utility.yul\":1020:1052   */\n      slt\n        /* \"#utility.yul\":1017:1019   */\n      iszero\n      tag_91\n      jumpi\n        /* \"#utility.yul\":1065:1066   */\n      0x00\n        /* \"#utility.yul\":1062:1063   */\n      dup1\n        /* \"#utility.yul\":1055:1067   */\n      revert\n        /* \"#utility.yul\":1017:1019   */\n    tag_91:\n        /* \"#utility.yul\":1108:1109   */\n      0x00\n        /* \"#utility.yul\":1133:1186   */\n      tag_92\n        /* \"#utility.yul\":1178:1185   */\n      dup5\n        /* \"#utility.yul\":1169:1175   */\n      dup3\n        /* \"#utility.yul\":1158:1167   */\n      dup6\n        /* \"#utility.yul\":1154:1176   */\n      add\n        /* \"#utility.yul\":1133:1186   */\n      tag_78\n      jump\t// in\n    tag_92:\n        /* \"#utility.yul\":1123:1186   */\n      swap2\n      pop\n        /* \"#utility.yul\":1079:1196   */\n      pop\n        /* \"#utility.yul\":1007:1203   */\n      swap3\n      swap2\n      pop\n      pop\n      jump\t// out\n        /* \"#utility.yul\":1209:1584   */\n    tag_13:\n      0x00\n        /* \"#utility.yul\":1327:1329   */\n      0x20\n        /* \"#utility.yul\":1315:1324   */\n      dup3\n        /* \"#utility.yul\":1306:1313   */\n      dup5\n        /* \"#utility.yul\":1302:1325   */\n      sub\n        /* \"#utility.yul\":1298:1330   */\n      slt\n        /* \"#utility.yul\":1295:1297   */\n      iszero\n      tag_94\n      jumpi\n        /* \"#utility.yul\":1343:1344   */\n      0x00\n        /* \"#utility.yul\":1340:1341   */\n      dup1\n        /* \"#utility.yul\":1333:1345   */\n      revert\n        /* \"#utility.yul\":1295:1297   */\n    tag_94:\n        /* \"#utility.yul\":1414:1415   */\n      0x00\n        /* \"#utility.yul\":1403:1412   */\n      dup3\n        /* \"#utility.yul\":1399:1416   */\n      add\n        /* \"#utility.yul\":1386:1417   */\n      calldataload\n        /* \"#utility.yul\":1444:1462   */\n      0xffffffffffffffff\n        /* \"#utility.yul\":1436:1442   */\n      dup2\n        /* \"#utility.yul\":1433:1463   */\n      gt\n        /* \"#utility.yul\":1430:1432   */\n      iszero\n      tag_95\n      jumpi\n        /* \"#utility.yul\":1476:1477   */\n      0x00\n        /* \"#utility.yul\":1473:1474   */\n      dup1\n        /* \"#utility.yul\":1466:1478   */\n      revert\n        /* \"#utility.yul\":1430:1432   */\n    tag_95:\n        /* \"#utility.yul\":1504:1567   */\n      tag_96\n        /* \"#utility.yul\":1559:1566   */\n      dup5\n        /* \"#utility.yul\":1550:1556   */\n      dup3\n        /* \"#utility.yul\":1539:1548   */\n      dup6\n        /* \"#utility.yul\":1535:1557   */\n      add\n        /* \"#utility.yul\":1504:1567   */\n      tag_82\n      jump\t// in\n    tag_96:\n        /* \"#utility.yul\":1494:1567   */\n      swap2\n      pop\n        /* \"#utility.yul\":1357:1577   */\n      pop\n        /* \"#utility.yul\":1285:1584   */\n      swap3\n      swap2\n      pop\n      pop\n      jump\t// out\n        /* \"#utility.yul\":1590:2110   */\n    tag_17:\n      0x00\n      dup1\n        /* \"#utility.yul\":1725:1727   */\n      0x40\n        /* \"#utility.yul\":1713:1722   */\n      dup4\n        /* \"#utility.yul\":1704:1711   */\n      dup6\n        /* \"#utility.yul\":1700:1723   */\n      sub\n        /* \"#utility.yul\":1696:1728   */\n      slt\n        /* \"#utility.yul\":1693:1695   */\n      iszero\n      tag_98\n      jumpi\n        /* \"#utility.yul\":1741:1742   */\n      0x00\n        /* \"#utility.yul\":1738:1739   */\n      dup1\n        /* \"#utility.yul\":1731:1743   */\n      revert\n        /* \"#utility.yul\":1693:1695   */\n    tag_98:\n        /* \"#utility.yul\":1812:1813   */\n      0x00\n        /* \"#utility.yul\":1801:1810   */\n      dup4\n        /* \"#utility.yul\":1797:1814   */\n      add\n        /* \"#utility.yul\":1784:1815   */\n      calldataload\n        /* \"#utility.yul\":1842:1860   */\n      0xffffffffffffffff\n        /* \"#utility.yul\":1834:1840   */\n      dup2\n        /* \"#utility.yul\":1831:1861   */\n      gt\n        /* \"#utility.yul\":1828:1830   */\n      iszero\n      tag_99\n      jumpi\n        /* \"#utility.yul\":1874:1875   */\n      0x00\n        /* \"#utility.yul\":1871:1872   */\n      dup1\n        /* \"#utility.yul\":1864:1876   */\n      revert\n        /* \"#utility.yul\":1828:1830   */\n    tag_99:\n        /* \"#utility.yul\":1902:1965   */\n      tag_100\n        /* \"#utility.yul\":1957:1964   */\n      dup6\n        /* \"#utility.yul\":1948:1954   */\n      dup3\n        /* \"#utility.yul\":1937:1946   */\n      dup7\n        /* \"#utility.yul\":1933:1955   */\n      add\n        /* \"#utility.yul\":1902:1965   */\n      tag_82\n      jump\t// in\n    tag_100:\n        /* \"#utility.yul\":1892:1965   */\n      swap3\n      pop\n        /* \"#utility.yul\":1755:1975   */\n      pop\n        /* \"#utility.yul\":2014:2016   */\n      0x20\n        /* \"#utility.yul\":2040:2093   */\n      tag_101\n        /* \"#utility.yul\":2085:2092   */\n      dup6\n        /* \"#utility.yul\":2076:2082   */\n      dup3\n        /* \"#utility.yul\":2065:2074   */\n      dup7\n        /* \"#utility.yul\":2061:2083   */\n      add\n        /* \"#utility.yul\":2040:2093   */\n      tag_86\n      jump\t// in\n    tag_101:\n        /* \"#utility.yul\":2030:2093   */\n      swap2\n      pop\n        /* \"#utility.yul\":1985:2103   */\n      pop\n        /* \"#utility.yul\":1683:2110   */\n      swap3\n      pop\n      swap3\n      swap1\n      pop\n      jump\t// out\n        /* \"#utility.yul\":2116:2378   */\n    tag_23:\n      0x00\n        /* \"#utility.yul\":2224:2226   */\n      0x20\n        /* \"#utility.yul\":2212:2221   */\n      dup3\n        /* \"#utility.yul\":2203:2210   */\n      dup5\n        /* \"#utility.yul\":2199:2222   */\n      sub\n        /* \"#utility.yul\":2195:2227   */\n      slt\n        /* \"#utility.yul\":2192:2194   */\n      iszero\n      tag_103\n      jumpi\n        /* \"#utility.yul\":2240:2241   */\n      0x00\n        /* \"#utility.yul\":2237:2238   */\n      dup1\n        /* \"#utility.yul\":2230:2242   */\n      revert\n        /* \"#utility.yul\":2192:2194   */\n    tag_103:\n        /* \"#utility.yul\":2283:2284   */\n      0x00\n        /* \"#utility.yul\":2308:2361   */\n      tag_104\n        /* \"#utility.yul\":2353:2360   */\n      dup5\n        /* \"#utility.yul\":2344:2350   */\n      dup3\n        /* \"#utility.yul\":2333:2342   */\n      dup6\n        /* \"#utility.yul\":2329:2351   */\n      add\n        /* \"#utility.yul\":2308:2361   */\n      tag_86\n      jump\t// in\n    tag_104:\n        /* \"#utility.yul\":2298:2361   */\n      swap2\n      pop\n        /* \"#utility.yul\":2254:2371   */\n      pop\n        /* \"#utility.yul\":2182:2378   */\n      swap3\n      swap2\n      pop\n      pop\n      jump\t// out\n        /* \"#utility.yul\":2384:2502   */\n    tag_105:\n        /* \"#utility.yul\":2471:2495   */\n      tag_107\n        /* \"#utility.yul\":2489:2494   */\n      dup2\n        /* \"#utility.yul\":2471:2495   */\n      tag_108\n      jump\t// in\n    tag_107:\n        /* \"#utility.yul\":2466:2469   */\n      dup3\n        /* \"#utility.yul\":2459:2496   */\n      mstore\n        /* \"#utility.yul\":2449:2502   */\n      pop\n      pop\n      jump\t// out\n        /* \"#utility.yul\":2508:2872   */\n    tag_109:\n      0x00\n        /* \"#utility.yul\":2624:2663   */\n      tag_111\n        /* \"#utility.yul\":2657:2662   */\n      dup3\n        /* \"#utility.yul\":2624:2663   */\n      tag_112\n      jump\t// in\n    tag_111:\n        /* \"#utility.yul\":2679:2750   */\n      tag_113\n        /* \"#utility.yul\":2743:2749   */\n      dup2\n        /* \"#utility.yul\":2738:2741   */\n      dup6\n        /* \"#utility.yul\":2679:2750   */\n      tag_114\n      jump\t// in\n    tag_113:\n        /* \"#utility.yul\":2672:2750   */\n      swap4\n      pop\n        /* \"#utility.yul\":2759:2811   */\n      tag_115\n        /* \"#utility.yul\":2804:2810   */\n      dup2\n        /* \"#utility.yul\":2799:2802   */\n      dup6\n        /* \"#utility.yul\":2792:2796   */\n      0x20\n        /* \"#utility.yul\":2785:2790   */\n      dup7\n        /* \"#utility.yul\":2781:2797   */\n      add\n        /* \"#utility.yul\":2759:2811   */\n      tag_116\n      jump\t// in\n    tag_115:\n        /* \"#utility.yul\":2836:2865   */\n      tag_117\n        /* \"#utility.yul\":2858:2864   */\n      dup2\n        /* \"#utility.yul\":2836:2865   */\n      tag_118\n      jump\t// in\n    tag_117:\n        /* \"#utility.yul\":2831:2834   */\n      dup5\n        /* \"#utility.yul\":2827:2866   */\n      add\n        /* \"#utility.yul\":2820:2866   */\n      swap2\n      pop\n        /* \"#utility.yul\":2600:2872   */\n      pop\n      swap3\n      swap2\n      pop\n      pop\n      jump\t// out\n        /* \"#utility.yul\":2878:2996   */\n    tag_119:\n        /* \"#utility.yul\":2965:2989   */\n      tag_121\n        /* \"#utility.yul\":2983:2988   */\n      dup2\n        /* \"#utility.yul\":2965:2989   */\n      tag_122\n      jump\t// in\n    tag_121:\n        /* \"#utility.yul\":2960:2963   */\n      dup3\n        /* \"#utility.yul\":2953:2990   */\n      mstore\n        /* \"#utility.yul\":2943:2996   */\n      pop\n      pop\n      jump\t// out\n        /* \"#utility.yul\":3002:3315   */\n    tag_34:\n      0x00\n        /* \"#utility.yul\":3153:3155   */\n      0x20\n        /* \"#utility.yul\":3142:3151   */\n      dup3\n        /* \"#utility.yul\":3138:3156   */\n      add\n        /* \"#utility.yul\":3130:3156   */\n      swap1\n      pop\n        /* \"#utility.yul\":3202:3211   */\n      dup2\n        /* \"#utility.yul\":3196:3200   */\n      dup2\n        /* \"#utility.yul\":3192:3212   */\n      sub\n        /* \"#utility.yul\":3188:3189   */\n      0x00\n        /* \"#utility.yul\":3177:3186   */\n      dup4\n        /* \"#utility.yul\":3173:3190   */\n      add\n        /* \"#utility.yul\":3166:3213   */\n      mstore\n        /* \"#utility.yul\":3230:3308   */\n      tag_124\n        /* \"#utility.yul\":3303:3307   */\n      dup2\n        /* \"#utility.yul\":3294:3300   */\n      dup5\n        /* \"#utility.yul\":3230:3308   */\n      tag_109\n      jump\t// in\n    tag_124:\n        /* \"#utility.yul\":3222:3308   */\n      swap1\n      pop\n        /* \"#utility.yul\":3120:3315   */\n      swap3\n      swap2\n      pop\n      pop\n      jump\t// out\n        /* \"#utility.yul\":3321:3854   */\n    tag_26:\n      0x00\n        /* \"#utility.yul\":3528:3530   */\n      0x60\n        /* \"#utility.yul\":3517:3526   */\n      dup3\n        /* \"#utility.yul\":3513:3531   */\n      add\n        /* \"#utility.yul\":3505:3531   */\n      swap1\n      pop\n        /* \"#utility.yul\":3577:3586   */\n      dup2\n        /* \"#utility.yul\":3571:3575   */\n      dup2\n        /* \"#utility.yul\":3567:3587   */\n      sub\n        /* \"#utility.yul\":3563:3564   */\n      0x00\n        /* \"#utility.yul\":3552:3561   */\n      dup4\n        /* \"#utility.yul\":3548:3565   */\n      add\n        /* \"#utility.yul\":3541:3588   */\n      mstore\n        /* \"#utility.yul\":3605:3683   */\n      tag_126\n        /* \"#utility.yul\":3678:3682   */\n      dup2\n        /* \"#utility.yul\":3669:3675   */\n      dup7\n        /* \"#utility.yul\":3605:3683   */\n      tag_109\n      jump\t// in\n    tag_126:\n        /* \"#utility.yul\":3597:3683   */\n      swap1\n      pop\n        /* \"#utility.yul\":3693:3765   */\n      tag_127\n        /* \"#utility.yul\":3761:3763   */\n      0x20\n        /* \"#utility.yul\":3750:3759   */\n      dup4\n        /* \"#utility.yul\":3746:3764   */\n      add\n        /* \"#utility.yul\":3737:3743   */\n      dup6\n        /* \"#utility.yul\":3693:3765   */\n      tag_119\n      jump\t// in\n    tag_127:\n        /* \"#utility.yul\":3775:3847   */\n      tag_128\n        /* \"#utility.yul\":3843:3845   */\n      0x40\n        /* \"#utility.yul\":3832:3841   */\n      dup4\n        /* \"#utility.yul\":3828:3846   */\n      add\n        /* \"#utility.yul\":3819:3825   */\n      dup5\n        /* \"#utility.yul\":3775:3847   */\n      tag_105\n      jump\t// in\n    tag_128:\n        /* \"#utility.yul\":3495:3854   */\n      swap5\n      swap4\n      pop\n      pop\n      pop\n      pop\n      jump\t// out\n        /* \"#utility.yul\":3860:3989   */\n    tag_74:\n      0x00\n        /* \"#utility.yul\":3921:3941   */\n      tag_130\n      tag_131\n      jump\t// in\n    tag_130:\n        /* \"#utility.yul\":3911:3941   */\n      swap1\n      pop\n        /* \"#utility.yul\":3950:3983   */\n      tag_132\n        /* \"#utility.yul\":3978:3982   */\n      dup3\n        /* \"#utility.yul\":3970:3976   */\n      dup3\n        /* \"#utility.yul\":3950:3983   */\n      tag_133\n      jump\t// in\n    tag_132:\n        /* \"#utility.yul\":3901:3989   */\n      swap2\n      swap1\n      pop\n      jump\t// out\n        /* \"#utility.yul\":3995:4070   */\n    tag_131:\n      0x00\n        /* \"#utility.yul\":4061:4063   */\n      0x40\n        /* \"#utility.yul\":4055:4064   */\n      mload\n        /* \"#utility.yul\":4045:4064   */\n      swap1\n      pop\n        /* \"#utility.yul\":4035:4070   */\n      swap1\n      jump\t// out\n        /* \"#utility.yul\":4076:4384   */\n    tag_73:\n      0x00\n        /* \"#utility.yul\":4228:4246   */\n      0xffffffffffffffff\n        /* \"#utility.yul\":4220:4226   */\n      dup3\n        /* \"#utility.yul\":4217:4247   */\n      gt\n        /* \"#utility.yul\":4214:4216   */\n      iszero\n      tag_136\n      jumpi\n        /* \"#utility.yul\":4250:4268   */\n      tag_137\n      tag_138\n      jump\t// in\n    tag_137:\n        /* \"#utility.yul\":4214:4216   */\n    tag_136:\n        /* \"#utility.yul\":4288:4317   */\n      tag_139\n        /* \"#utility.yul\":4310:4316   */\n      dup3\n        /* \"#utility.yul\":4288:4317   */\n      tag_118\n      jump\t// in\n    tag_139:\n        /* \"#utility.yul\":4280:4317   */\n      swap1\n      pop\n        /* \"#utility.yul\":4372:4376   */\n      0x20\n        /* \"#utility.yul\":4366:4370   */\n      dup2\n        /* \"#utility.yul\":4362:4377   */\n      add\n        /* \"#utility.yul\":4354:4377   */\n      swap1\n      pop\n        /* \"#utility.yul\":4143:4384   */\n      swap2\n      swap1\n      pop\n      jump\t// out\n        /* \"#utility.yul\":4390:4489   */\n    tag_112:\n      0x00\n        /* \"#utility.yul\":4476:4481   */\n      dup2\n        /* \"#utility.yul\":4470:4482   */\n      mload\n        /* \"#utility.yul\":4460:4482   */\n      swap1\n      pop\n        /* \"#utility.yul\":4449:4489   */\n      swap2\n      swap1\n      pop\n      jump\t// out\n        /* \"#utility.yul\":4495:4664   */\n    tag_114:\n      0x00\n        /* \"#utility.yul\":4613:4619   */\n      dup3\n        /* \"#utility.yul\":4608:4611   */\n      dup3\n        /* \"#utility.yul\":4601:4620   */\n      mstore\n        /* \"#utility.yul\":4653:4657   */\n      0x20\n        /* \"#utility.yul\":4648:4651   */\n      dup3\n        /* \"#utility.yul\":4644:4658   */\n      add\n        /* \"#utility.yul\":4629:4658   */\n      swap1\n      pop\n        /* \"#utility.yul\":4591:4664   */\n      swap3\n      swap2\n      pop\n      pop\n      jump\t// out\n        /* \"#utility.yul\":4670:4766   */\n    tag_108:\n      0x00\n        /* \"#utility.yul\":4736:4760   */\n      tag_143\n        /* \"#utility.yul\":4754:4759   */\n      dup3\n        /* \"#utility.yul\":4736:4760   */\n      tag_144\n      jump\t// in\n    tag_143:\n        /* \"#utility.yul\":4725:4760   */\n      swap1\n      pop\n        /* \"#utility.yul\":4715:4766   */\n      swap2\n      swap1\n      pop\n      jump\t// out\n        /* \"#utility.yul\":4772:4898   */\n    tag_144:\n      0x00\n        /* \"#utility.yul\":4849:4891   */\n      0xffffffffffffffffffffffffffffffffffffffff\n        /* \"#utility.yul\":4842:4847   */\n      dup3\n        /* \"#utility.yul\":4838:4892   */\n      and\n        /* \"#utility.yul\":4827:4892   */\n      swap1\n      pop\n        /* \"#utility.yul\":4817:4898   */\n      swap2\n      swap1\n      pop\n      jump\t// out\n        /* \"#utility.yul\":4904:4981   */\n    tag_122:\n      0x00\n        /* \"#utility.yul\":4970:4975   */\n      dup2\n        /* \"#utility.yul\":4959:4975   */\n      swap1\n      pop\n        /* \"#utility.yul\":4949:4981   */\n      swap2\n      swap1\n      pop\n      jump\t// out\n        /* \"#utility.yul\":4987:5141   */\n    tag_77:\n        /* \"#utility.yul\":5071:5077   */\n      dup3\n        /* \"#utility.yul\":5066:5069   */\n      dup2\n        /* \"#utility.yul\":5061:5064   */\n      dup4\n        /* \"#utility.yul\":5048:5078   */\n      calldatacopy\n        /* \"#utility.yul\":5133:5134   */\n      0x00\n        /* \"#utility.yul\":5124:5130   */\n      dup4\n        /* \"#utility.yul\":5119:5122   */\n      dup4\n        /* \"#utility.yul\":5115:5131   */\n      add\n        /* \"#utility.yul\":5108:5135   */\n      mstore\n        /* \"#utility.yul\":5038:5141   */\n      pop\n      pop\n      pop\n      jump\t// out\n        /* \"#utility.yul\":5147:5454   */\n    tag_116:\n        /* \"#utility.yul\":5215:5216   */\n      0x00\n        /* \"#utility.yul\":5225:5338   */\n    tag_149:\n        /* \"#utility.yul\":5239:5245   */\n      dup4\n        /* \"#utility.yul\":5236:5237   */\n      dup2\n        /* \"#utility.yul\":5233:5246   */\n      lt\n        /* \"#utility.yul\":5225:5338   */\n      iszero\n      tag_151\n      jumpi\n        /* \"#utility.yul\":5324:5325   */\n      dup1\n        /* \"#utility.yul\":5319:5322   */\n      dup3\n        /* \"#utility.yul\":5315:5326   */\n      add\n        /* \"#utility.yul\":5309:5327   */\n      mload\n        /* \"#utility.yul\":5305:5306   */\n      dup2\n        /* \"#utility.yul\":5300:5303   */\n      dup5\n        /* \"#utility.yul\":5296:5307   */\n      add\n        /* \"#utility.yul\":5289:5328   */\n      mstore\n        /* \"#utility.yul\":5261:5263   */\n      0x20\n        /* \"#utility.yul\":5258:5259   */\n      dup2\n        /* \"#utility.yul\":5254:5264   */\n      add\n        /* \"#utility.yul\":5249:5264   */\n      swap1\n      pop\n        /* \"#utility.yul\":5225:5338   */\n      jump(tag_149)\n    tag_151:\n        /* \"#utility.yul\":5356:5362   */\n      dup4\n        /* \"#utility.yul\":5353:5354   */\n      dup2\n        /* \"#utility.yul\":5350:5363   */\n      gt\n        /* \"#utility.yul\":5347:5349   */\n      iszero\n      tag_152\n      jumpi\n        /* \"#utility.yul\":5436:5437   */\n      0x00\n        /* \"#utility.yul\":5427:5433   */\n      dup5\n        /* \"#utility.yul\":5422:5425   */\n      dup5\n        /* \"#utility.yul\":5418:5434   */\n      add\n        /* \"#utility.yul\":5411:5438   */\n      mstore\n        /* \"#utility.yul\":5347:5349   */\n    tag_152:\n        /* \"#utility.yul\":5196:5454   */\n      pop\n      pop\n      pop\n      pop\n      jump\t// out\n        /* \"#utility.yul\":5460:5780   */\n    tag_46:\n      0x00\n        /* \"#utility.yul\":5541:5542   */\n      0x02\n        /* \"#utility.yul\":5535:5539   */\n      dup3\n        /* \"#utility.yul\":5531:5543   */\n      div\n        /* \"#utility.yul\":5521:5543   */\n      swap1\n      pop\n        /* \"#utility.yul\":5588:5589   */\n      0x01\n        /* \"#utility.yul\":5582:5586   */\n      dup3\n        /* \"#utility.yul\":5578:5590   */\n      and\n        /* \"#utility.yul\":5609:5627   */\n      dup1\n        /* \"#utility.yul\":5599:5601   */\n      tag_154\n      jumpi\n        /* \"#utility.yul\":5665:5669   */\n      0x7f\n        /* \"#utility.yul\":5657:5663   */\n      dup3\n        /* \"#utility.yul\":5653:5670   */\n      and\n        /* \"#utility.yul\":5643:5670   */\n      swap2\n      pop\n        /* \"#utility.yul\":5599:5601   */\n    tag_154:\n        /* \"#utility.yul\":5727:5729   */\n      0x20\n        /* \"#utility.yul\":5719:5725   */\n      dup3\n        /* \"#utility.yul\":5716:5730   */\n      lt\n        /* \"#utility.yul\":5696:5714   */\n      dup2\n        /* \"#utility.yul\":5693:5731   */\n      eq\n        /* \"#utility.yul\":5690:5692   */\n      iszero\n      tag_155\n      jumpi\n        /* \"#utility.yul\":5746:5764   */\n      tag_156\n      tag_157\n      jump\t// in\n    tag_156:\n        /* \"#utility.yul\":5690:5692   */\n    tag_155:\n        /* \"#utility.yul\":5511:5780   */\n      pop\n      swap2\n      swap1\n      pop\n      jump\t// out\n        /* \"#utility.yul\":5786:6067   */\n    tag_133:\n        /* \"#utility.yul\":5869:5896   */\n      tag_159\n        /* \"#utility.yul\":5891:5895   */\n      dup3\n        /* \"#utility.yul\":5869:5896   */\n      tag_118\n      jump\t// in\n    tag_159:\n        /* \"#utility.yul\":5861:5867   */\n      dup2\n        /* \"#utility.yul\":5857:5897   */\n      add\n        /* \"#utility.yul\":5999:6005   */\n      dup2\n        /* \"#utility.yul\":5987:5997   */\n      dup2\n        /* \"#utility.yul\":5984:6006   */\n      lt\n        /* \"#utility.yul\":5963:5981   */\n      0xffffffffffffffff\n        /* \"#utility.yul\":5951:5961   */\n      dup3\n        /* \"#utility.yul\":5948:5982   */\n      gt\n        /* \"#utility.yul\":5945:6007   */\n      or\n        /* \"#utility.yul\":5942:5944   */\n      iszero\n      tag_160\n      jumpi\n        /* \"#utility.yul\":6010:6028   */\n      tag_161\n      tag_138\n      jump\t// in\n    tag_161:\n        /* \"#utility.yul\":5942:5944   */\n    tag_160:\n        /* \"#utility.yul\":6050:6060   */\n      dup1\n        /* \"#utility.yul\":6046:6048   */\n      0x40\n        /* \"#utility.yul\":6039:6061   */\n      mstore\n        /* \"#utility.yul\":5829:6067   */\n      pop\n      pop\n      pop\n      jump\t// out\n        /* \"#utility.yul\":6073:6306   */\n    tag_42:\n      0x00\n        /* \"#utility.yul\":6135:6159   */\n      tag_163\n        /* \"#utility.yul\":6153:6158   */\n      dup3\n        /* \"#utility.yul\":6135:6159   */\n      tag_122\n      jump\t// in\n    tag_163:\n        /* \"#utility.yul\":6126:6159   */\n      swap2\n      pop\n        /* \"#utility.yul\":6181:6247   */\n      0xffffffffffffffffffffffffffffffffffffffffffffffffffffffffffffffff\n        /* \"#utility.yul\":6174:6179   */\n      dup3\n        /* \"#utility.yul\":6171:6248   */\n      eq\n        /* \"#utility.yul\":6168:6170   */\n      iszero\n      tag_164\n      jumpi\n        /* \"#utility.yul\":6251:6269   */\n      tag_165\n      tag_166\n      jump\t// in\n    tag_165:\n        /* \"#utility.yul\":6168:6170   */\n    tag_164:\n        /* \"#utility.yul\":6298:6299   */\n      0x01\n        /* \"#utility.yul\":6291:6296   */\n      dup3\n        /* \"#utility.yul\":6287:6300   */\n      add\n        /* \"#utility.yul\":6280:6300   */\n      swap1\n      pop\n        /* \"#utility.yul\":6116:6306   */\n      swap2\n      swap1\n      pop\n      jump\t// out\n        /* \"#utility.yul\":6312:6492   */\n    tag_166:\n        /* \"#utility.yul\":6360:6437   */\n      0x4e487b7100000000000000000000000000000000000000000000000000000000\n        /* \"#utility.yul\":6357:6358   */\n      0x00\n        /* \"#utility.yul\":6350:6438   */\n      mstore\n        /* \"#utility.yul\":6457:6461   */\n      0x11\n        /* \"#utility.yul\":6454:6455   */\n      0x04\n        /* \"#utility.yul\":6447:6462   */\n      mstore\n        /* \"#utility.yul\":6481:6485   */\n      0x24\n        /* \"#utility.yul\":6478:6479   */\n      0x00\n        /* \"#utility.yul\":6471:6486   */\n      revert\n        /* \"#utility.yul\":6498:6678   */\n    tag_157:\n        /* \"#utility.yul\":6546:6623   */\n      0x4e487b7100000000000000000000000000000000000000000000000000000000\n        /* \"#utility.yul\":6543:6544   */\n      0x00\n        /* \"#utility.yul\":6536:6624   */\n      mstore\n        /* \"#utility.yul\":6643:6647   */\n      0x22\n        /* \"#utility.yul\":6640:6641   */\n      0x04\n        /* \"#utility.yul\":6633:6648   */\n      mstore\n        /* \"#utility.yul\":6667:6671   */\n      0x24\n        /* \"#utility.yul\":6664:6665   */\n      0x00\n        /* \"#utility.yul\":6657:6672   */\n      revert\n        /* \"#utility.yul\":6684:6864   */\n    tag_138:\n        /* \"#utility.yul\":6732:6809   */\n      0x4e487b7100000000000000000000000000000000000000000000000000000000\n        /* \"#utility.yul\":6729:6730   */\n      0x00\n        /* \"#utility.yul\":6722:6810   */\n      mstore\n        /* \"#utility.yul\":6829:6833   */\n      0x41\n        /* \"#utility.yul\":6826:6827   */\n      0x04\n        /* \"#utility.yul\":6819:6834   */\n      mstore\n        /* \"#utility.yul\":6853:6857   */\n      0x24\n        /* \"#utility.yul\":6850:6851   */\n      0x00\n        /* \"#utility.yul\":6843:6858   */\n      revert\n        /* \"#utility.yul\":6870:6972   */\n    tag_118:\n      0x00\n        /* \"#utility.yul\":6962:6964   */\n      0x1f\n        /* \"#utility.yul\":6958:6965   */\n      not\n        /* \"#utility.yul\":6953:6955   */\n      0x1f\n        /* \"#utility.yul\":6946:6951   */\n      dup4\n        /* \"#utility.yul\":6942:6956   */\n      add\n        /* \"#utility.yul\":6938:6966   */\n      and\n        /* \"#utility.yul\":6928:6966   */\n      swap1\n      pop\n        /* \"#utility.yul\":6918:6972   */\n      swap2\n      swap1\n      pop\n      jump\t// out\n        /* \"#utility.yul\":6978:7100   */\n    tag_81:\n        /* \"#utility.yul\":7051:7075   */\n      tag_172\n        /* \"#utility.yul\":7069:7074   */\n      dup2\n        /* \"#utility.yul\":7051:7075   */\n      tag_108\n      jump\t// in\n    tag_172:\n        /* \"#utility.yul\":7044:7049   */\n      dup2\n        /* \"#utility.yul\":7041:7076   */\n      eq\n        /* \"#utility.yul\":7031:7033   */\n      tag_173\n      jumpi\n        /* \"#utility.yul\":7090:7091   */\n      0x00\n        /* \"#utility.yul\":7087:7088   */\n      dup1\n        /* \"#utility.yul\":7080:7092   */\n      revert\n        /* \"#utility.yul\":7031:7033   */\n    tag_173:\n        /* \"#utility.yul\":7021:7100   */\n      pop\n      jump\t// out\n        /* \"#utility.yul\":7106:7228   */\n    tag_89:\n        /* \"#utility.yul\":7179:7203   */\n      tag_175\n        /* \"#utility.yul\":7197:7202   */\n      dup2\n        /* \"#utility.yul\":7179:7203   */\n      tag_122\n      jump\t// in\n    tag_175:\n        /* \"#utility.yul\":7172:7177   */\n      dup2\n        /* \"#utility.yul\":7169:7204   */\n      eq\n        /* \"#utility.yul\":7159:7161   */\n      tag_176\n      jumpi\n        /* \"#utility.yul\":7218:7219   */\n      0x00\n        /* \"#utility.yul\":7215:7216   */\n      dup1\n        /* \"#utility.yul\":7208:7220   */\n      revert\n        /* \"#utility.yul\":7159:7161   */\n    tag_176:\n        /* \"#utility.yul\":7149:7228   */\n      pop\n      jump\t// out\n\n    auxdata: 0xa2646970667358221220caa4a83518c965d2231162e57c544c3d89ebf33736f7f07a2f6af43c3a0b524b64736f6c63430008010033\n}\n",
				"bytecode": {
					"linkReferences": {},
					"object": "6080604052600060025534801561001557600080fd5b5061094c806100256000396000f3fe608060405234801561001057600080fd5b506004361061007d5760003560e01c80634b4a80ba1161005b5780634b4a80ba146100c457806353ed5143146100f657806399b956a014610100578063f4e5d599146101305761007d565b806318b8275a146100825780631bc7ffe91461009e5780633e8a0585146100ba575b600080fd5b61009c60048036038101906100979190610539565b61013a565b005b6100b860048036038101906100b3919061057a565b610190565b005b6100c2610263565b005b6100de60048036038101906100d991906105ce565b610265565b6040516100ed93929190610670565b60405180910390f35b6100fe610337565b005b61011a60048036038101906101159190610510565b610339565b604051610127919061064e565b60405180910390f35b6101386103d9565b005b806000803373ffffffffffffffffffffffffffffffffffffffff1673ffffffffffffffffffffffffffffffffffffffff168152602001908152602001600020908051906020019061018c9291906103db565b5050565b600260008154809291906101a390610801565b919050555060405180606001604052808381526020018281526020013373ffffffffffffffffffffffffffffffffffffffff16815250600160006002548152602001908152602001600020600082015181600001908051906020019061020a9291906103db565b506020820151816001015560408201518160020160006101000a81548173ffffffffffffffffffffffffffffffffffffffff021916908373ffffffffffffffffffffffffffffffffffffffff1602179055509050505050565b565b60016020528060005260406000206000915090508060000180546102889061079e565b80601f01602080910402602001604051908101604052809291908181526020018280546102b49061079e565b80156103015780601f106102d657610100808354040283529160200191610301565b820191906000526020600020905b8154815290600101906020018083116102e457829003601f168201915b5050505050908060010154908060020160009054906101000a900473ffffffffffffffffffffffffffffffffffffffff16905083565b565b600060205280600052604060002060009150905080546103589061079e565b80601f01602080910402602001604051908101604052809291908181526020018280546103849061079e565b80156103d15780601f106103a6576101008083540402835291602001916103d1565b820191906000526020600020905b8154815290600101906020018083116103b457829003601f168201915b505050505081565b565b8280546103e79061079e565b90600052602060002090601f0160209004810192826104095760008555610450565b82601f1061042257805160ff1916838001178555610450565b82800160010185558215610450579182015b8281111561044f578251825591602001919060010190610434565b5b50905061045d9190610461565b5090565b5b8082111561047a576000816000905550600101610462565b5090565b600061049161048c846106d3565b6106ae565b9050828152602081018484840111156104a957600080fd5b6104b484828561075c565b509392505050565b6000813590506104cb816108e8565b92915050565b600082601f8301126104e257600080fd5b81356104f284826020860161047e565b91505092915050565b60008135905061050a816108ff565b92915050565b60006020828403121561052257600080fd5b6000610530848285016104bc565b91505092915050565b60006020828403121561054b57600080fd5b600082013567ffffffffffffffff81111561056557600080fd5b610571848285016104d1565b91505092915050565b6000806040838503121561058d57600080fd5b600083013567ffffffffffffffff8111156105a757600080fd5b6105b3858286016104d1565b92505060206105c4858286016104fb565b9150509250929050565b6000602082840312156105e057600080fd5b60006105ee848285016104fb565b91505092915050565b61060081610720565b82525050565b600061061182610704565b61061b818561070f565b935061062b81856020860161076b565b610634816108d7565b840191505092915050565b61064881610752565b82525050565b600060208201905081810360008301526106688184610606565b905092915050565b6000606082019050818103600083015261068a8186610606565b9050610699602083018561063f565b6106a660408301846105f7565b949350505050565b60006106b86106c9565b90506106c482826107d0565b919050565b6000604051905090565b600067ffffffffffffffff8211156106ee576106ed6108a8565b5b6106f7826108d7565b9050602081019050919050565b600081519050919050565b600082825260208201905092915050565b600061072b82610732565b9050919050565b600073ffffffffffffffffffffffffffffffffffffffff82169050919050565b6000819050919050565b82818337600083830152505050565b60005b8381101561078957808201518184015260208101905061076e565b83811115610798576000848401525b50505050565b600060028204905060018216806107b657607f821691505b602082108114156107ca576107c9610879565b5b50919050565b6107d9826108d7565b810181811067ffffffffffffffff821117156107f8576107f76108a8565b5b80604052505050565b600061080c82610752565b91507fffffffffffffffffffffffffffffffffffffffffffffffffffffffffffffffff82141561083f5761083e61084a565b5b600182019050919050565b7f4e487b7100000000000000000000000000000000000000000000000000000000600052601160045260246000fd5b7f4e487b7100000000000000000000000000000000000000000000000000000000600052602260045260246000fd5b7f4e487b7100000000000000000000000000000000000000000000000000000000600052604160045260246000fd5b6000601f19601f8301169050919050565b6108f181610720565b81146108fc57600080fd5b50565b61090881610752565b811461091357600080fd5b5056fea2646970667358221220caa4a83518c965d2231162e57c544c3d89ebf33736f7f07a2f6af43c3a0b524b64736f6c63430008010033",
					"opcodes": "PUSH1 0x80 PUSH1 0x40 MSTORE PUSH1 0x0 PUSH1 0x2 SSTORE CALLVALUE DUP1 ISZERO PUSH2 0x15 JUMPI PUSH1 0x0 DUP1 REVERT JUMPDEST POP PUSH2 0x94C DUP1 PUSH2 0x25 PUSH1 0x0 CODECOPY PUSH1 0x0 RETURN INVALID PUSH1 0x80 PUSH1 0x40 MSTORE CALLVALUE DUP1 ISZERO PUSH2 0x10 JUMPI PUSH1 0x0 DUP1 REVERT JUMPDEST POP PUSH1 0x4 CALLDATASIZE LT PUSH2 0x7D JUMPI PUSH1 0x0 CALLDATALOAD PUSH1 0xE0 SHR DUP1 PUSH4 0x4B4A80BA GT PUSH2 0x5B JUMPI DUP1 PUSH4 0x4B4A80BA EQ PUSH2 0xC4 JUMPI DUP1 PUSH4 0x53ED5143 EQ PUSH2 0xF6 JUMPI DUP1 PUSH4 0x99B956A0 EQ PUSH2 0x100 JUMPI DUP1 PUSH4 0xF4E5D599 EQ PUSH2 0x130 JUMPI PUSH2 0x7D JUMP JUMPDEST DUP1 PUSH4 0x18B8275A EQ PUSH2 0x82 JUMPI DUP1 PUSH4 0x1BC7FFE9 EQ PUSH2 0x9E JUMPI DUP1 PUSH4 0x3E8A0585 EQ PUSH2 0xBA JUMPI JUMPDEST PUSH1 0x0 DUP1 REVERT JUMPDEST PUSH2 0x9C PUSH1 0x4 DUP1 CALLDATASIZE SUB DUP2 ADD SWAP1 PUSH2 0x97 SWAP2 SWAP1 PUSH2 0x539 JUMP JUMPDEST PUSH2 0x13A JUMP JUMPDEST STOP JUMPDEST PUSH2 0xB8 PUSH1 0x4 DUP1 CALLDATASIZE SUB DUP2 ADD SWAP1 PUSH2 0xB3 SWAP2 SWAP1 PUSH2 0x57A JUMP JUMPDEST PUSH2 0x190 JUMP JUMPDEST STOP JUMPDEST PUSH2 0xC2 PUSH2 0x263 JUMP JUMPDEST STOP JUMPDEST PUSH2 0xDE PUSH1 0x4 DUP1 CALLDATASIZE SUB DUP2 ADD SWAP1 PUSH2 0xD9 SWAP2 SWAP1 PUSH2 0x5CE JUMP JUMPDEST PUSH2 0x265 JUMP JUMPDEST PUSH1 0x40 MLOAD PUSH2 0xED SWAP4 SWAP3 SWAP2 SWAP1 PUSH2 0x670 JUMP JUMPDEST PUSH1 0x40 MLOAD DUP1 SWAP2 SUB SWAP1 RETURN JUMPDEST PUSH2 0xFE PUSH2 0x337 JUMP JUMPDEST STOP JUMPDEST PUSH2 0x11A PUSH1 0x4 DUP1 CALLDATASIZE SUB DUP2 ADD SWAP1 PUSH2 0x115 SWAP2 SWAP1 PUSH2 0x510 JUMP JUMPDEST PUSH2 0x339 JUMP JUMPDEST PUSH1 0x40 MLOAD PUSH2 0x127 SWAP2 SWAP1 PUSH2 0x64E JUMP JUMPDEST PUSH1 0x40 MLOAD DUP1 SWAP2 SUB SWAP1 RETURN JUMPDEST PUSH2 0x138 PUSH2 0x3D9 JUMP JUMPDEST STOP JUMPDEST DUP1 PUSH1 0x0 DUP1 CALLER PUSH20 0xFFFFFFFFFFFFFFFFFFFFFFFFFFFFFFFFFFFFFFFF AND PUSH20 0xFFFFFFFFFFFFFFFFFFFFFFFFFFFFFFFFFFFFFFFF AND DUP2 MSTORE PUSH1 0x20 ADD SWAP1 DUP2 MSTORE PUSH1 0x20 ADD PUSH1 0x0 KECCAK256 SWAP1 DUP1 MLOAD SWAP1 PUSH1 0x20 ADD SWAP1 PUSH2 0x18C SWAP3 SWAP2 SWAP1 PUSH2 0x3DB JUMP JUMPDEST POP POP JUMP JUMPDEST PUSH1 0x2 PUSH1 0x0 DUP2 SLOAD DUP1 SWAP3 SWAP2 SWAP1 PUSH2 0x1A3 SWAP1 PUSH2 0x801 JUMP JUMPDEST SWAP2 SWAP1 POP SSTORE POP PUSH1 0x40 MLOAD DUP1 PUSH1 0x60 ADD PUSH1 0x40 MSTORE DUP1 DUP4 DUP2 MSTORE PUSH1 0x20 ADD DUP3 DUP2 MSTORE PUSH1 0x20 ADD CALLER PUSH20 0xFFFFFFFFFFFFFFFFFFFFFFFFFFFFFFFFFFFFFFFF AND DUP2 MSTORE POP PUSH1 0x1 PUSH1 0x0 PUSH1 0x2 SLOAD DUP2 MSTORE PUSH1 0x20 ADD SWAP1 DUP2 MSTORE PUSH1 0x20 ADD PUSH1 0x0 KECCAK256 PUSH1 0x0 DUP3 ADD MLOAD DUP2 PUSH1 0x0 ADD SWAP1 DUP1 MLOAD SWAP1 PUSH1 0x20 ADD SWAP1 PUSH2 0x20A SWAP3 SWAP2 SWAP1 PUSH2 0x3DB JUMP JUMPDEST POP PUSH1 0x20 DUP3 ADD MLOAD DUP2 PUSH1 0x1 ADD SSTORE PUSH1 0x40 DUP3 ADD MLOAD DUP2 PUSH1 0x2 ADD PUSH1 0x0 PUSH2 0x100 EXP DUP2 SLOAD DUP2 PUSH20 0xFFFFFFFFFFFFFFFFFFFFFFFFFFFFFFFFFFFFFFFF MUL NOT AND SWAP1 DUP4 PUSH20 0xFFFFFFFFFFFFFFFFFFFFFFFFFFFFFFFFFFFFFFFF AND MUL OR SWAP1 SSTORE POP SWAP1 POP POP POP POP JUMP JUMPDEST JUMP JUMPDEST PUSH1 0x1 PUSH1 0x20 MSTORE DUP1 PUSH1 0x0 MSTORE PUSH1 0x40 PUSH1 0x0 KECCAK256 PUSH1 0x0 SWAP2 POP SWAP1 POP DUP1 PUSH1 0x0 ADD DUP1 SLOAD PUSH2 0x288 SWAP1 PUSH2 0x79E JUMP JUMPDEST DUP1 PUSH1 0x1F ADD PUSH1 0x20 DUP1 SWAP2 DIV MUL PUSH1 0x20 ADD PUSH1 0x40 MLOAD SWAP1 DUP2 ADD PUSH1 0x40 MSTORE DUP1 SWAP3 SWAP2 SWAP1 DUP2 DUP2 MSTORE PUSH1 0x20 ADD DUP3 DUP1 SLOAD PUSH2 0x2B4 SWAP1 PUSH2 0x79E JUMP JUMPDEST DUP1 ISZERO PUSH2 0x301 JUMPI DUP1 PUSH1 0x1F LT PUSH2 0x2D6 JUMPI PUSH2 0x100 DUP1 DUP4 SLOAD DIV MUL DUP4 MSTORE SWAP2 PUSH1 0x20 ADD SWAP2 PUSH2 0x301 JUMP JUMPDEST DUP3 ADD SWAP2 SWAP1 PUSH1 0x0 MSTORE PUSH1 0x20 PUSH1 0x0 KECCAK256 SWAP1 JUMPDEST DUP2 SLOAD DUP2 MSTORE SWAP1 PUSH1 0x1 ADD SWAP1 PUSH1 0x20 ADD DUP1 DUP4 GT PUSH2 0x2E4 JUMPI DUP3 SWAP1 SUB PUSH1 0x1F AND DUP3 ADD SWAP2 JUMPDEST POP POP POP POP POP SWAP1 DUP1 PUSH1 0x1 ADD SLOAD SWAP1 DUP1 PUSH1 0x2 ADD PUSH1 0x0 SWAP1 SLOAD SWAP1 PUSH2 0x100 EXP SWAP1 DIV PUSH20 0xFFFFFFFFFFFFFFFFFFFFFFFFFFFFFFFFFFFFFFFF AND SWAP1 POP DUP4 JUMP JUMPDEST JUMP JUMPDEST PUSH1 0x0 PUSH1 0x20 MSTORE DUP1 PUSH1 0x0 MSTORE PUSH1 0x40 PUSH1 0x0 KECCAK256 PUSH1 0x0 SWAP2 POP SWAP1 POP DUP1 SLOAD PUSH2 0x358 SWAP1 PUSH2 0x79E JUMP JUMPDEST DUP1 PUSH1 0x1F ADD PUSH1 0x20 DUP1 SWAP2 DIV MUL PUSH1 0x20 ADD PUSH1 0x40 MLOAD SWAP1 DUP2 ADD PUSH1 0x40 MSTORE DUP1 SWAP3 SWAP2 SWAP1 DUP2 DUP2 MSTORE PUSH1 0x20 ADD DUP3 DUP1 SLOAD PUSH2 0x384 SWAP1 PUSH2 0x79E JUMP JUMPDEST DUP1 ISZERO PUSH2 0x3D1 JUMPI DUP1 PUSH1 0x1F LT PUSH2 0x3A6 JUMPI PUSH2 0x100 DUP1 DUP4 SLOAD DIV MUL DUP4 MSTORE SWAP2 PUSH1 0x20 ADD SWAP2 PUSH2 0x3D1 JUMP JUMPDEST DUP3 ADD SWAP2 SWAP1 PUSH1 0x0 MSTORE PUSH1 0x20 PUSH1 0x0 KECCAK256 SWAP1 JUMPDEST DUP2 SLOAD DUP2 MSTORE SWAP1 PUSH1 0x1 ADD SWAP1 PUSH1 0x20 ADD DUP1 DUP4 GT PUSH2 0x3B4 JUMPI DUP3 SWAP1 SUB PUSH1 0x1F AND DUP3 ADD SWAP2 JUMPDEST POP POP POP POP POP DUP2 JUMP JUMPDEST JUMP JUMPDEST DUP3 DUP1 SLOAD PUSH2 0x3E7 SWAP1 PUSH2 0x79E JUMP JUMPDEST SWAP1 PUSH1 0x0 MSTORE PUSH1 0x20 PUSH1 0x0 KECCAK256 SWAP1 PUSH1 0x1F ADD PUSH1 0x20 SWAP1 DIV DUP2 ADD SWAP3 DUP3 PUSH2 0x409 JUMPI PUSH1 0x0 DUP6 SSTORE PUSH2 0x450 JUMP JUMPDEST DUP3 PUSH1 0x1F LT PUSH2 0x422 JUMPI DUP1 MLOAD PUSH1 0xFF NOT AND DUP4 DUP1 ADD OR DUP6 SSTORE PUSH2 0x450 JUMP JUMPDEST DUP3 DUP1 ADD PUSH1 0x1 ADD DUP6 SSTORE DUP3 ISZERO PUSH2 0x450 JUMPI SWAP2 DUP3 ADD JUMPDEST DUP3 DUP2 GT ISZERO PUSH2 0x44F JUMPI DUP3 MLOAD DUP3 SSTORE SWAP2 PUSH1 0x20 ADD SWAP2 SWAP1 PUSH1 0x1 ADD SWAP1 PUSH2 0x434 JUMP JUMPDEST JUMPDEST POP SWAP1 POP PUSH2 0x45D SWAP2 SWAP1 PUSH2 0x461 JUMP JUMPDEST POP SWAP1 JUMP JUMPDEST JUMPDEST DUP1 DUP3 GT ISZERO PUSH2 0x47A JUMPI PUSH1 0x0 DUP2 PUSH1 0x0 SWAP1 SSTORE POP PUSH1 0x1 ADD PUSH2 0x462 JUMP JUMPDEST POP SWAP1 JUMP JUMPDEST PUSH1 0x0 PUSH2 0x491 PUSH2 0x48C DUP5 PUSH2 0x6D3 JUMP JUMPDEST PUSH2 0x6AE JUMP JUMPDEST SWAP1 POP DUP3 DUP2 MSTORE PUSH1 0x20 DUP2 ADD DUP5 DUP5 DUP5 ADD GT ISZERO PUSH2 0x4A9 JUMPI PUSH1 0x0 DUP1 REVERT JUMPDEST PUSH2 0x4B4 DUP5 DUP3 DUP6 PUSH2 0x75C JUMP JUMPDEST POP SWAP4 SWAP3 POP POP POP JUMP JUMPDEST PUSH1 0x0 DUP2 CALLDATALOAD SWAP1 POP PUSH2 0x4CB DUP2 PUSH2 0x8E8 JUMP JUMPDEST SWAP3 SWAP2 POP POP JUMP JUMPDEST PUSH1 0x0 DUP3 PUSH1 0x1F DUP4 ADD SLT PUSH2 0x4E2 JUMPI PUSH1 0x0 DUP1 REVERT JUMPDEST DUP2 CALLDATALOAD PUSH2 0x4F2 DUP5 DUP3 PUSH1 0x20 DUP7 ADD PUSH2 0x47E JUMP JUMPDEST SWAP2 POP POP SWAP3 SWAP2 POP POP JUMP JUMPDEST PUSH1 0x0 DUP2 CALLDATALOAD SWAP1 POP PUSH2 0x50A DUP2 PUSH2 0x8FF JUMP JUMPDEST SWAP3 SWAP2 POP POP JUMP JUMPDEST PUSH1 0x0 PUSH1 0x20 DUP3 DUP5 SUB SLT ISZERO PUSH2 0x522 JUMPI PUSH1 0x0 DUP1 REVERT JUMPDEST PUSH1 0x0 PUSH2 0x530 DUP5 DUP3 DUP6 ADD PUSH2 0x4BC JUMP JUMPDEST SWAP2 POP POP SWAP3 SWAP2 POP POP JUMP JUMPDEST PUSH1 0x0 PUSH1 0x20 DUP3 DUP5 SUB SLT ISZERO PUSH2 0x54B JUMPI PUSH1 0x0 DUP1 REVERT JUMPDEST PUSH1 0x0 DUP3 ADD CALLDATALOAD PUSH8 0xFFFFFFFFFFFFFFFF DUP2 GT ISZERO PUSH2 0x565 JUMPI PUSH1 0x0 DUP1 REVERT JUMPDEST PUSH2 0x571 DUP5 DUP3 DUP6 ADD PUSH2 0x4D1 JUMP JUMPDEST SWAP2 POP POP SWAP3 SWAP2 POP POP JUMP JUMPDEST PUSH1 0x0 DUP1 PUSH1 0x40 DUP4 DUP6 SUB SLT ISZERO PUSH2 0x58D JUMPI PUSH1 0x0 DUP1 REVERT JUMPDEST PUSH1 0x0 DUP4 ADD CALLDATALOAD PUSH8 0xFFFFFFFFFFFFFFFF DUP2 GT ISZERO PUSH2 0x5A7 JUMPI PUSH1 0x0 DUP1 REVERT JUMPDEST PUSH2 0x5B3 DUP6 DUP3 DUP7 ADD PUSH2 0x4D1 JUMP JUMPDEST SWAP3 POP POP PUSH1 0x20 PUSH2 0x5C4 DUP6 DUP3 DUP7 ADD PUSH2 0x4FB JUMP JUMPDEST SWAP2 POP POP SWAP3 POP SWAP3 SWAP1 POP JUMP JUMPDEST PUSH1 0x0 PUSH1 0x20 DUP3 DUP5 SUB SLT ISZERO PUSH2 0x5E0 JUMPI PUSH1 0x0 DUP1 REVERT JUMPDEST PUSH1 0x0 PUSH2 0x5EE DUP5 DUP3 DUP6 ADD PUSH2 0x4FB JUMP JUMPDEST SWAP2 POP POP SWAP3 SWAP2 POP POP JUMP JUMPDEST PUSH2 0x600 DUP2 PUSH2 0x720 JUMP JUMPDEST DUP3 MSTORE POP POP JUMP JUMPDEST PUSH1 0x0 PUSH2 0x611 DUP3 PUSH2 0x704 JUMP JUMPDEST PUSH2 0x61B DUP2 DUP6 PUSH2 0x70F JUMP JUMPDEST SWAP4 POP PUSH2 0x62B DUP2 DUP6 PUSH1 0x20 DUP7 ADD PUSH2 0x76B JUMP JUMPDEST PUSH2 0x634 DUP2 PUSH2 0x8D7 JUMP JUMPDEST DUP5 ADD SWAP2 POP POP SWAP3 SWAP2 POP POP JUMP JUMPDEST PUSH2 0x648 DUP2 PUSH2 0x752 JUMP JUMPDEST DUP3 MSTORE POP POP JUMP JUMPDEST PUSH1 0x0 PUSH1 0x20 DUP3 ADD SWAP1 POP DUP2 DUP2 SUB PUSH1 0x0 DUP4 ADD MSTORE PUSH2 0x668 DUP2 DUP5 PUSH2 0x606 JUMP JUMPDEST SWAP1 POP SWAP3 SWAP2 POP POP JUMP JUMPDEST PUSH1 0x0 PUSH1 0x60 DUP3 ADD SWAP1 POP DUP2 DUP2 SUB PUSH1 0x0 DUP4 ADD MSTORE PUSH2 0x68A DUP2 DUP7 PUSH2 0x606 JUMP JUMPDEST SWAP1 POP PUSH2 0x699 PUSH1 0x20 DUP4 ADD DUP6 PUSH2 0x63F JUMP JUMPDEST PUSH2 0x6A6 PUSH1 0x40 DUP4 ADD DUP5 PUSH2 0x5F7 JUMP JUMPDEST SWAP5 SWAP4 POP POP POP POP JUMP JUMPDEST PUSH1 0x0 PUSH2 0x6B8 PUSH2 0x6C9 JUMP JUMPDEST SWAP1 POP PUSH2 0x6C4 DUP3 DUP3 PUSH2 0x7D0 JUMP JUMPDEST SWAP2 SWAP1 POP JUMP JUMPDEST PUSH1 0x0 PUSH1 0x40 MLOAD SWAP1 POP SWAP1 JUMP JUMPDEST PUSH1 0x0 PUSH8 0xFFFFFFFFFFFFFFFF DUP3 GT ISZERO PUSH2 0x6EE JUMPI PUSH2 0x6ED PUSH2 0x8A8 JUMP JUMPDEST JUMPDEST PUSH2 0x6F7 DUP3 PUSH2 0x8D7 JUMP JUMPDEST SWAP1 POP PUSH1 0x20 DUP2 ADD SWAP1 POP SWAP2 SWAP1 POP JUMP JUMPDEST PUSH1 0x0 DUP2 MLOAD SWAP1 POP SWAP2 SWAP1 POP JUMP JUMPDEST PUSH1 0x0 DUP3 DUP3 MSTORE PUSH1 0x20 DUP3 ADD SWAP1 POP SWAP3 SWAP2 POP POP JUMP JUMPDEST PUSH1 0x0 PUSH2 0x72B DUP3 PUSH2 0x732 JUMP JUMPDEST SWAP1 POP SWAP2 SWAP1 POP JUMP JUMPDEST PUSH1 0x0 PUSH20 0xFFFFFFFFFFFFFFFFFFFFFFFFFFFFFFFFFFFFFFFF DUP3 AND SWAP1 POP SWAP2 SWAP1 POP JUMP JUMPDEST PUSH1 0x0 DUP2 SWAP1 POP SWAP2 SWAP1 POP JUMP JUMPDEST DUP3 DUP2 DUP4 CALLDATACOPY PUSH1 0x0 DUP4 DUP4 ADD MSTORE POP POP POP JUMP JUMPDEST PUSH1 0x0 JUMPDEST DUP4 DUP2 LT ISZERO PUSH2 0x789 JUMPI DUP1 DUP3 ADD MLOAD DUP2 DUP5 ADD MSTORE PUSH1 0x20 DUP2 ADD SWAP1 POP PUSH2 0x76E JUMP JUMPDEST DUP4 DUP2 GT ISZERO PUSH2 0x798 JUMPI PUSH1 0x0 DUP5 DUP5 ADD MSTORE JUMPDEST POP POP POP POP JUMP JUMPDEST PUSH1 0x0 PUSH1 0x2 DUP3 DIV SWAP1 POP PUSH1 0x1 DUP3 AND DUP1 PUSH2 0x7B6 JUMPI PUSH1 0x7F DUP3 AND SWAP2 POP JUMPDEST PUSH1 0x20 DUP3 LT DUP2 EQ ISZERO PUSH2 0x7CA JUMPI PUSH2 0x7C9 PUSH2 0x879 JUMP JUMPDEST JUMPDEST POP SWAP2 SWAP1 POP JUMP JUMPDEST PUSH2 0x7D9 DUP3 PUSH2 0x8D7 JUMP JUMPDEST DUP2 ADD DUP2 DUP2 LT PUSH8 0xFFFFFFFFFFFFFFFF DUP3 GT OR ISZERO PUSH2 0x7F8 JUMPI PUSH2 0x7F7 PUSH2 0x8A8 JUMP JUMPDEST JUMPDEST DUP1 PUSH1 0x40 MSTORE POP POP POP JUMP JUMPDEST PUSH1 0x0 PUSH2 0x80C DUP3 PUSH2 0x752 JUMP JUMPDEST SWAP2 POP PUSH32 0xFFFFFFFFFFFFFFFFFFFFFFFFFFFFFFFFFFFFFFFFFFFFFFFFFFFFFFFFFFFFFFFF DUP3 EQ ISZERO PUSH2 0x83F JUMPI PUSH2 0x83E PUSH2 0x84A JUMP JUMPDEST JUMPDEST PUSH1 0x1 DUP3 ADD SWAP1 POP SWAP2 SWAP1 POP JUMP JUMPDEST PUSH32 0x4E487B7100000000000000000000000000000000000000000000000000000000 PUSH1 0x0 MSTORE PUSH1 0x11 PUSH1 0x4 MSTORE PUSH1 0x24 PUSH1 0x0 REVERT JUMPDEST PUSH32 0x4E487B7100000000000000000000000000000000000000000000000000000000 PUSH1 0x0 MSTORE PUSH1 0x22 PUSH1 0x4 MSTORE PUSH1 0x24 PUSH1 0x0 REVERT JUMPDEST PUSH32 0x4E487B7100000000000000000000000000000000000000000000000000000000 PUSH1 0x0 MSTORE PUSH1 0x41 PUSH1 0x4 MSTORE PUSH1 0x24 PUSH1 0x0 REVERT JUMPDEST PUSH1 0x0 PUSH1 0x1F NOT PUSH1 0x1F DUP4 ADD AND SWAP1 POP SWAP2 SWAP1 POP JUMP JUMPDEST PUSH2 0x8F1 DUP2 PUSH2 0x720 JUMP JUMPDEST DUP2 EQ PUSH2 0x8FC JUMPI PUSH1 0x0 DUP1 REVERT JUMPDEST POP JUMP JUMPDEST PUSH2 0x908 DUP2 PUSH2 0x752 JUMP JUMPDEST DUP2 EQ PUSH2 0x913 JUMPI PUSH1 0x0 DUP1 REVERT JUMPDEST POP JUMP INVALID LOG2 PUSH5 0x6970667358 0x22 SLT KECCAK256 0xCA LOG4 0xA8 CALLDATALOAD XOR 0xC9 PUSH6 0xD2231162E57C SLOAD 0x4C RETURNDATASIZE DUP10 0xEB RETURN CALLDATACOPY CALLDATASIZE 0xF7 CREATE PUSH27 0x2F6AF43C3A0B524B64736F6C634300080100330000000000000000 "
				},
				"gasEstimates": {
					"creation": {
						"codeDepositCost": "476000",
						"executionCost": "5517",
						"totalCost": "481517"
					},
					"external": {
						"Assets(uint256)": "infinite",
						"Bidding()": "189",
						"Result()": "210",
						"Users(address)": "infinite",
						"addAsset(string,uint256)": "infinite",
						"addUser(string)": "infinite",
						"getAll()": "166"
					}
				},
				"methodIdentifiers": {
					"Assets(uint256)": "4b4a80ba",
					"Bidding()": "3e8a0585",
					"Result()": "f4e5d599",
					"Users(address)": "99b956a0",
					"addAsset(string,uint256)": "1bc7ffe9",
					"addUser(string)": "18b8275a",
					"getAll()": "53ed5143"
				}
			},
			"storageLayout": {
				"storage": [
					{
						"astId": 12,
						"contract": "Auction.sol:Auction",
						"label": "Users",
						"offset": 0,
						"slot": "0",
						"type": "t_mapping(t_address,t_string_storage)"
					},
					{
						"astId": 17,
						"contract": "Auction.sol:Auction",
						"label": "Assets",
						"offset": 0,
						"slot": "1",
						"type": "t_mapping(t_uint256,t_struct(Asset)8_storage)"
					},
					{
						"astId": 33,
						"contract": "Auction.sol:Auction",
						"label": "Id",
						"offset": 0,
						"slot": "2",
						"type": "t_uint256"
					}
				],
				"types": {
					"t_address": {
						"encoding": "inplace",
						"label": "address",
						"numberOfBytes": "20"
					},
					"t_mapping(t_address,t_string_storage)": {
						"encoding": "mapping",
						"key": "t_address",
						"label": "mapping(address => string)",
						"numberOfBytes": "32",
						"value": "t_string_storage"
					},
					"t_mapping(t_uint256,t_struct(Asset)8_storage)": {
						"encoding": "mapping",
						"key": "t_uint256",
						"label": "mapping(uint256 => struct Auction.Asset)",
						"numberOfBytes": "32",
						"value": "t_struct(Asset)8_storage"
					},
					"t_string_storage": {
						"encoding": "bytes",
						"label": "string",
						"numberOfBytes": "32"
					},
					"t_struct(Asset)8_storage": {
						"encoding": "inplace",
						"label": "struct Auction.Asset",
						"members": [
							{
								"astId": 3,
								"contract": "Auction.sol:Auction",
								"label": "AssetName",
								"offset": 0,
								"slot": "0",
								"type": "t_string_storage"
							},
							{
								"astId": 5,
								"contract": "Auction.sol:Auction",
								"label": "AssetSP",
								"offset": 0,
								"slot": "1",
								"type": "t_uint256"
							},
							{
								"astId": 7,
								"contract": "Auction.sol:Auction",
								"label": "Owner",
								"offset": 0,
								"slot": "2",
								"type": "t_address"
							}
						],
						"numberOfBytes": "96"
					},
					"t_uint256": {
						"encoding": "inplace",
						"label": "uint256",
						"numberOfBytes": "32"
					}
				}
			},
			"userdoc": {
				"kind": "user",
				"methods": {},
				"version": 1
			}
		}
	}
}