{
	"Auction.sol": {
		"Auction": {
			"abi": [
				{
					"inputs": [
						{
							"internalType": "uint256",
							"name": "",
							"type": "uint256"
						}
					],
					"name": "Assets",
					"outputs": [
						{
							"internalType": "string",
							"name": "AssetName",
							"type": "string"
						},
						{
							"internalType": "uint256",
							"name": "AssetSP",
							"type": "uint256"
						},
						{
							"internalType": "address",
							"name": "Owner",
							"type": "address"
						}
					],
					"stateMutability": "view",
					"type": "function"
				},
				{
					"inputs": [
						{
							"internalType": "address",
							"name": "",
							"type": "address"
						}
					],
					"name": "Users",
					"outputs": [
						{
							"internalType": "string",
							"name": "",
							"type": "string"
						}
					],
					"stateMutability": "view",
					"type": "function"
				},
				{
					"inputs": [
						{
							"internalType": "string",
							"name": "Name",
							"type": "string"
						},
						{
							"internalType": "uint256",
							"name": "Price",
							"type": "uint256"
						}
					],
					"name": "addAsset",
					"outputs": [
						{
							"internalType": "uint256",
							"name": "",
							"type": "uint256"
						},
						{
							"internalType": "string",
							"name": "",
							"type": "string"
						},
						{
							"internalType": "uint256",
							"name": "",
							"type": "uint256"
						}
					],
					"stateMutability": "nonpayable",
					"type": "function"
				},
				{
					"inputs": [
						{
							"internalType": "string",
							"name": "Name",
							"type": "string"
						}
					],
					"name": "addUser",
					"outputs": [],
					"stateMutability": "nonpayable",
					"type": "function"
				}
			],
			"devdoc": {
				"kind": "dev",
				"methods": {},
				"version": 1
			},
			"evm": {
				"assembly": "    /* \"Auction.sol\":65:834  contract Auction {\r... */\n  mstore(0x40, 0x80)\n    /* \"Auction.sol\":431:432  0 */\n  0x00\n    /* \"Auction.sol\":421:432  uint Id = 0 */\n  0x02\n  sstore\n    /* \"Auction.sol\":65:834  contract Auction {\r... */\n  callvalue\n  dup1\n  iszero\n  tag_1\n  jumpi\n  0x00\n  dup1\n  revert\ntag_1:\n  pop\n  dataSize(sub_0)\n  dup1\n  dataOffset(sub_0)\n  0x00\n  codecopy\n  0x00\n  return\nstop\n\nsub_0: assembly {\n        /* \"Auction.sol\":65:834  contract Auction {\r... */\n      mstore(0x40, 0x80)\n      callvalue\n      dup1\n      iszero\n      tag_1\n      jumpi\n      0x00\n      dup1\n      revert\n    tag_1:\n      pop\n      jumpi(tag_2, lt(calldatasize, 0x04))\n      shr(0xe0, calldataload(0x00))\n      dup1\n      0x18b8275a\n      eq\n      tag_3\n      jumpi\n      dup1\n      0x1bc7ffe9\n      eq\n      tag_4\n      jumpi\n      dup1\n      0x4b4a80ba\n      eq\n      tag_5\n      jumpi\n      dup1\n      0x99b956a0\n      eq\n      tag_6\n      jumpi\n    tag_2:\n      0x00\n      dup1\n      revert\n        /* \"Auction.sol\":287:413  function addUser(string memory Name) public {\r... */\n    tag_3:\n      tag_7\n      0x04\n      dup1\n      calldatasize\n      sub\n      dup2\n      add\n      swap1\n      tag_8\n      swap2\n      swap1\n      tag_9\n      jump\t// in\n    tag_8:\n      tag_10\n      jump\t// in\n    tag_7:\n      stop\n        /* \"Auction.sol\":439:682  function addAsset(string memory Name, uint Price) public returns (uint, string memory, uint) {\r... */\n    tag_4:\n      tag_11\n      0x04\n      dup1\n      calldatasize\n      sub\n      dup2\n      add\n      swap1\n      tag_12\n      swap2\n      swap1\n      tag_13\n      jump\t// in\n    tag_12:\n      tag_14\n      jump\t// in\n    tag_11:\n      mload(0x40)\n      tag_15\n      swap4\n      swap3\n      swap2\n      swap1\n      tag_16\n      jump\t// in\n    tag_15:\n      mload(0x40)\n      dup1\n      swap2\n      sub\n      swap1\n      return\n        /* \"Auction.sol\":242:278  mapping(uint => Asset) public Assets */\n    tag_5:\n      tag_17\n      0x04\n      dup1\n      calldatasize\n      sub\n      dup2\n      add\n      swap1\n      tag_18\n      swap2\n      swap1\n      tag_19\n      jump\t// in\n    tag_18:\n      tag_20\n      jump\t// in\n    tag_17:\n      mload(0x40)\n      tag_21\n      swap4\n      swap3\n      swap2\n      swap1\n      tag_22\n      jump\t// in\n    tag_21:\n      mload(0x40)\n      dup1\n      swap2\n      sub\n      swap1\n      return\n        /* \"Auction.sol\":196:235  mapping(address => string) public Users */\n    tag_6:\n      tag_23\n      0x04\n      dup1\n      calldatasize\n      sub\n      dup2\n      add\n      swap1\n      tag_24\n      swap2\n      swap1\n      tag_25\n      jump\t// in\n    tag_24:\n      tag_26\n      jump\t// in\n    tag_23:\n      mload(0x40)\n      tag_27\n      swap2\n      swap1\n      tag_28\n      jump\t// in\n    tag_27:\n      mload(0x40)\n      dup1\n      swap2\n      sub\n      swap1\n      return\n        /* \"Auction.sol\":287:413  function addUser(string memory Name) public {\r... */\n    tag_10:\n        /* \"Auction.sol\":350:355  false */\n      0x00\n        /* \"Auction.sol\":342:362  require(false, 'us') */\n      tag_30\n      jumpi\n      mload(0x40)\n      0x08c379a000000000000000000000000000000000000000000000000000000000\n      dup2\n      mstore\n      0x04\n      add\n      tag_31\n      swap1\n      tag_32\n      jump\t// in\n    tag_31:\n      mload(0x40)\n      dup1\n      swap2\n      sub\n      swap1\n      revert\n    tag_30:\n        /* \"Auction.sol\":393:397  Name */\n      dup1\n        /* \"Auction.sol\":373:378  Users */\n      0x00\n        /* \"Auction.sol\":373:390  Users[msg.sender] */\n      dup1\n        /* \"Auction.sol\":379:389  msg.sender */\n      caller\n        /* \"Auction.sol\":373:390  Users[msg.sender] */\n      0xffffffffffffffffffffffffffffffffffffffff\n      and\n      0xffffffffffffffffffffffffffffffffffffffff\n      and\n      dup2\n      mstore\n      0x20\n      add\n      swap1\n      dup2\n      mstore\n      0x20\n      add\n      0x00\n      keccak256\n        /* \"Auction.sol\":373:397  Users[msg.sender] = Name */\n      swap1\n      dup1\n      mload\n      swap1\n      0x20\n      add\n      swap1\n      tag_33\n      swap3\n      swap2\n      swap1\n      tag_34\n      jump\t// in\n    tag_33:\n      pop\n        /* \"Auction.sol\":287:413  function addUser(string memory Name) public {\r... */\n      pop\n      jump\t// out\n        /* \"Auction.sol\":439:682  function addAsset(string memory Name, uint Price) public returns (uint, string memory, uint) {\r... */\n    tag_14:\n        /* \"Auction.sol\":505:509  uint */\n      0x00\n        /* \"Auction.sol\":511:524  string memory */\n      0x60\n        /* \"Auction.sol\":526:530  uint */\n      0x00\n        /* \"Auction.sol\":553:554  2 */\n      0x02\n        /* \"Auction.sol\":551:552  1 */\n      0x01\n        /* \"Auction.sol\":551:554  1>2 */\n      gt\n        /* \"Auction.sol\":543:569  require(1>2, 'hi heloow ') */\n      tag_36\n      jumpi\n      mload(0x40)\n      0x08c379a000000000000000000000000000000000000000000000000000000000\n      dup2\n      mstore\n      0x04\n      add\n      tag_37\n      swap1\n      tag_38\n      jump\t// in\n    tag_37:\n      mload(0x40)\n      dup1\n      swap2\n      sub\n      swap1\n      revert\n    tag_36:\n        /* \"Auction.sol\":580:582  Id */\n      0x02\n      0x00\n        /* \"Auction.sol\":580:584  Id++ */\n      dup2\n      sload\n      dup1\n      swap3\n      swap2\n      swap1\n      tag_39\n      swap1\n      tag_40\n      jump\t// in\n    tag_39:\n      swap2\n      swap1\n      pop\n      sstore\n      pop\n        /* \"Auction.sol\":608:638  Asset(Name, Price, msg.sender) */\n      mload(0x40)\n      dup1\n      0x60\n      add\n      0x40\n      mstore\n      dup1\n        /* \"Auction.sol\":614:618  Name */\n      dup7\n        /* \"Auction.sol\":608:638  Asset(Name, Price, msg.sender) */\n      dup2\n      mstore\n      0x20\n      add\n        /* \"Auction.sol\":620:625  Price */\n      dup6\n        /* \"Auction.sol\":608:638  Asset(Name, Price, msg.sender) */\n      dup2\n      mstore\n      0x20\n      add\n        /* \"Auction.sol\":627:637  msg.sender */\n      caller\n        /* \"Auction.sol\":608:638  Asset(Name, Price, msg.sender) */\n      0xffffffffffffffffffffffffffffffffffffffff\n      and\n      dup2\n      mstore\n      pop\n        /* \"Auction.sol\":595:601  Assets */\n      0x01\n        /* \"Auction.sol\":595:605  Assets[Id] */\n      0x00\n        /* \"Auction.sol\":602:604  Id */\n      sload(0x02)\n        /* \"Auction.sol\":595:605  Assets[Id] */\n      dup2\n      mstore\n      0x20\n      add\n      swap1\n      dup2\n      mstore\n      0x20\n      add\n      0x00\n      keccak256\n        /* \"Auction.sol\":595:638  Assets[Id] = Asset(Name, Price, msg.sender) */\n      0x00\n      dup3\n      add\n      mload\n      dup2\n      0x00\n      add\n      swap1\n      dup1\n      mload\n      swap1\n      0x20\n      add\n      swap1\n      tag_41\n      swap3\n      swap2\n      swap1\n      tag_34\n      jump\t// in\n    tag_41:\n      pop\n      0x20\n      dup3\n      add\n      mload\n      dup2\n      0x01\n      add\n      sstore\n      0x40\n      dup3\n      add\n      mload\n      dup2\n      0x02\n      add\n      exp(0x0100, 0x00)\n      dup2\n      sload\n      dup2\n      0xffffffffffffffffffffffffffffffffffffffff\n      mul\n      not\n      and\n      swap1\n      dup4\n      0xffffffffffffffffffffffffffffffffffffffff\n      and\n      mul\n      or\n      swap1\n      sstore\n      pop\n      swap1\n      pop\n      pop\n        /* \"Auction.sol\":657:659  Id */\n      sload(0x02)\n        /* \"Auction.sol\":661:665  Name */\n      dup6\n        /* \"Auction.sol\":667:672  Price */\n      dup6\n        /* \"Auction.sol\":649:673  return (Id, Name, Price) */\n      swap3\n      pop\n      swap3\n      pop\n      swap3\n      pop\n        /* \"Auction.sol\":439:682  function addAsset(string memory Name, uint Price) public returns (uint, string memory, uint) {\r... */\n      swap3\n      pop\n      swap3\n      pop\n      swap3\n      jump\t// out\n        /* \"Auction.sol\":242:278  mapping(uint => Asset) public Assets */\n    tag_20:\n      mstore(0x20, 0x01)\n      dup1\n      0x00\n      mstore\n      keccak256(0x00, 0x40)\n      0x00\n      swap2\n      pop\n      swap1\n      pop\n      dup1\n      0x00\n      add\n      dup1\n      sload\n      tag_42\n      swap1\n      tag_43\n      jump\t// in\n    tag_42:\n      dup1\n      0x1f\n      add\n      0x20\n      dup1\n      swap2\n      div\n      mul\n      0x20\n      add\n      mload(0x40)\n      swap1\n      dup2\n      add\n      0x40\n      mstore\n      dup1\n      swap3\n      swap2\n      swap1\n      dup2\n      dup2\n      mstore\n      0x20\n      add\n      dup3\n      dup1\n      sload\n      tag_44\n      swap1\n      tag_43\n      jump\t// in\n    tag_44:\n      dup1\n      iszero\n      tag_45\n      jumpi\n      dup1\n      0x1f\n      lt\n      tag_46\n      jumpi\n      0x0100\n      dup1\n      dup4\n      sload\n      div\n      mul\n      dup4\n      mstore\n      swap2\n      0x20\n      add\n      swap2\n      jump(tag_45)\n    tag_46:\n      dup3\n      add\n      swap2\n      swap1\n      0x00\n      mstore\n      keccak256(0x00, 0x20)\n      swap1\n    tag_47:\n      dup2\n      sload\n      dup2\n      mstore\n      swap1\n      0x01\n      add\n      swap1\n      0x20\n      add\n      dup1\n      dup4\n      gt\n      tag_47\n      jumpi\n      dup3\n      swap1\n      sub\n      0x1f\n      and\n      dup3\n      add\n      swap2\n    tag_45:\n      pop\n      pop\n      pop\n      pop\n      pop\n      swap1\n      dup1\n      0x01\n      add\n      sload\n      swap1\n      dup1\n      0x02\n      add\n      0x00\n      swap1\n      sload\n      swap1\n      0x0100\n      exp\n      swap1\n      div\n      0xffffffffffffffffffffffffffffffffffffffff\n      and\n      swap1\n      pop\n      dup4\n      jump\t// out\n        /* \"Auction.sol\":196:235  mapping(address => string) public Users */\n    tag_26:\n      mstore(0x20, 0x00)\n      dup1\n      0x00\n      mstore\n      keccak256(0x00, 0x40)\n      0x00\n      swap2\n      pop\n      swap1\n      pop\n      dup1\n      sload\n      tag_48\n      swap1\n      tag_43\n      jump\t// in\n    tag_48:\n      dup1\n      0x1f\n      add\n      0x20\n      dup1\n      swap2\n      div\n      mul\n      0x20\n      add\n      mload(0x40)\n      swap1\n      dup2\n      add\n      0x40\n      mstore\n      dup1\n      swap3\n      swap2\n      swap1\n      dup2\n      dup2\n      mstore\n      0x20\n      add\n      dup3\n      dup1\n      sload\n      tag_49\n      swap1\n      tag_43\n      jump\t// in\n    tag_49:\n      dup1\n      iszero\n      tag_50\n      jumpi\n      dup1\n      0x1f\n      lt\n      tag_51\n      jumpi\n      0x0100\n      dup1\n      dup4\n      sload\n      div\n      mul\n      dup4\n      mstore\n      swap2\n      0x20\n      add\n      swap2\n      jump(tag_50)\n    tag_51:\n      dup3\n      add\n      swap2\n      swap1\n      0x00\n      mstore\n      keccak256(0x00, 0x20)\n      swap1\n    tag_52:\n      dup2\n      sload\n      dup2\n      mstore\n      swap1\n      0x01\n      add\n      swap1\n      0x20\n      add\n      dup1\n      dup4\n      gt\n      tag_52\n      jumpi\n      dup3\n      swap1\n      sub\n      0x1f\n      and\n      dup3\n      add\n      swap2\n    tag_50:\n      pop\n      pop\n      pop\n      pop\n      pop\n      dup2\n      jump\t// out\n    tag_34:\n      dup3\n      dup1\n      sload\n      tag_53\n      swap1\n      tag_43\n      jump\t// in\n    tag_53:\n      swap1\n      0x00\n      mstore\n      keccak256(0x00, 0x20)\n      swap1\n      0x1f\n      add\n      0x20\n      swap1\n      div\n      dup2\n      add\n      swap3\n      dup3\n      tag_55\n      jumpi\n      0x00\n      dup6\n      sstore\n      jump(tag_54)\n    tag_55:\n      dup3\n      0x1f\n      lt\n      tag_56\n      jumpi\n      dup1\n      mload\n      not(0xff)\n      and\n      dup4\n      dup1\n      add\n      or\n      dup6\n      sstore\n      jump(tag_54)\n    tag_56:\n      dup3\n      dup1\n      add\n      0x01\n      add\n      dup6\n      sstore\n      dup3\n      iszero\n      tag_54\n      jumpi\n      swap2\n      dup3\n      add\n    tag_57:\n      dup3\n      dup2\n      gt\n      iszero\n      tag_58\n      jumpi\n      dup3\n      mload\n      dup3\n      sstore\n      swap2\n      0x20\n      add\n      swap2\n      swap1\n      0x01\n      add\n      swap1\n      jump(tag_57)\n    tag_58:\n    tag_54:\n      pop\n      swap1\n      pop\n      tag_59\n      swap2\n      swap1\n      tag_60\n      jump\t// in\n    tag_59:\n      pop\n      swap1\n      jump\t// out\n    tag_60:\n    tag_61:\n      dup1\n      dup3\n      gt\n      iszero\n      tag_62\n      jumpi\n      0x00\n      dup2\n      0x00\n      swap1\n      sstore\n      pop\n      0x01\n      add\n      jump(tag_61)\n    tag_62:\n      pop\n      swap1\n      jump\t// out\n        /* \"#utility.yul\":7:352   */\n    tag_64:\n      0x00\n        /* \"#utility.yul\":110:176   */\n      tag_66\n        /* \"#utility.yul\":126:175   */\n      tag_67\n        /* \"#utility.yul\":168:174   */\n      dup5\n        /* \"#utility.yul\":126:175   */\n      tag_68\n      jump\t// in\n    tag_67:\n        /* \"#utility.yul\":110:176   */\n      tag_69\n      jump\t// in\n    tag_66:\n        /* \"#utility.yul\":101:176   */\n      swap1\n      pop\n        /* \"#utility.yul\":199:205   */\n      dup3\n        /* \"#utility.yul\":192:197   */\n      dup2\n        /* \"#utility.yul\":185:206   */\n      mstore\n        /* \"#utility.yul\":237:241   */\n      0x20\n        /* \"#utility.yul\":230:235   */\n      dup2\n        /* \"#utility.yul\":226:242   */\n      add\n        /* \"#utility.yul\":275:278   */\n      dup5\n        /* \"#utility.yul\":266:272   */\n      dup5\n        /* \"#utility.yul\":261:264   */\n      dup5\n        /* \"#utility.yul\":257:273   */\n      add\n        /* \"#utility.yul\":254:279   */\n      gt\n        /* \"#utility.yul\":251:253   */\n      iszero\n      tag_70\n      jumpi\n        /* \"#utility.yul\":292:293   */\n      0x00\n        /* \"#utility.yul\":289:290   */\n      dup1\n        /* \"#utility.yul\":282:294   */\n      revert\n        /* \"#utility.yul\":251:253   */\n    tag_70:\n        /* \"#utility.yul\":305:346   */\n      tag_71\n        /* \"#utility.yul\":339:345   */\n      dup5\n        /* \"#utility.yul\":334:337   */\n      dup3\n        /* \"#utility.yul\":329:332   */\n      dup6\n        /* \"#utility.yul\":305:346   */\n      tag_72\n      jump\t// in\n    tag_71:\n        /* \"#utility.yul\":91:352   */\n      pop\n      swap4\n      swap3\n      pop\n      pop\n      pop\n      jump\t// out\n        /* \"#utility.yul\":358:497   */\n    tag_73:\n      0x00\n        /* \"#utility.yul\":442:448   */\n      dup2\n        /* \"#utility.yul\":429:449   */\n      calldataload\n        /* \"#utility.yul\":420:449   */\n      swap1\n      pop\n        /* \"#utility.yul\":458:491   */\n      tag_75\n        /* \"#utility.yul\":485:490   */\n      dup2\n        /* \"#utility.yul\":458:491   */\n      tag_76\n      jump\t// in\n    tag_75:\n        /* \"#utility.yul\":410:497   */\n      swap3\n      swap2\n      pop\n      pop\n      jump\t// out\n        /* \"#utility.yul\":517:790   */\n    tag_77:\n      0x00\n        /* \"#utility.yul\":622:625   */\n      dup3\n        /* \"#utility.yul\":615:619   */\n      0x1f\n        /* \"#utility.yul\":607:613   */\n      dup4\n        /* \"#utility.yul\":603:620   */\n      add\n        /* \"#utility.yul\":599:626   */\n      slt\n        /* \"#utility.yul\":589:591   */\n      tag_79\n      jumpi\n        /* \"#utility.yul\":640:641   */\n      0x00\n        /* \"#utility.yul\":637:638   */\n      dup1\n        /* \"#utility.yul\":630:642   */\n      revert\n        /* \"#utility.yul\":589:591   */\n    tag_79:\n        /* \"#utility.yul\":680:686   */\n      dup2\n        /* \"#utility.yul\":667:687   */\n      calldataload\n        /* \"#utility.yul\":705:784   */\n      tag_80\n        /* \"#utility.yul\":780:783   */\n      dup5\n        /* \"#utility.yul\":772:778   */\n      dup3\n        /* \"#utility.yul\":765:769   */\n      0x20\n        /* \"#utility.yul\":757:763   */\n      dup7\n        /* \"#utility.yul\":753:770   */\n      add\n        /* \"#utility.yul\":705:784   */\n      tag_64\n      jump\t// in\n    tag_80:\n        /* \"#utility.yul\":696:784   */\n      swap2\n      pop\n        /* \"#utility.yul\":579:790   */\n      pop\n      swap3\n      swap2\n      pop\n      pop\n      jump\t// out\n        /* \"#utility.yul\":796:935   */\n    tag_81:\n      0x00\n        /* \"#utility.yul\":880:886   */\n      dup2\n        /* \"#utility.yul\":867:887   */\n      calldataload\n        /* \"#utility.yul\":858:887   */\n      swap1\n      pop\n        /* \"#utility.yul\":896:929   */\n      tag_83\n        /* \"#utility.yul\":923:928   */\n      dup2\n        /* \"#utility.yul\":896:929   */\n      tag_84\n      jump\t// in\n    tag_83:\n        /* \"#utility.yul\":848:935   */\n      swap3\n      swap2\n      pop\n      pop\n      jump\t// out\n        /* \"#utility.yul\":941:1203   */\n    tag_25:\n      0x00\n        /* \"#utility.yul\":1049:1051   */\n      0x20\n        /* \"#utility.yul\":1037:1046   */\n      dup3\n        /* \"#utility.yul\":1028:1035   */\n      dup5\n        /* \"#utility.yul\":1024:1047   */\n      sub\n        /* \"#utility.yul\":1020:1052   */\n      slt\n        /* \"#utility.yul\":1017:1019   */\n      iszero\n      tag_86\n      jumpi\n        /* \"#utility.yul\":1065:1066   */\n      0x00\n        /* \"#utility.yul\":1062:1063   */\n      dup1\n        /* \"#utility.yul\":1055:1067   */\n      revert\n        /* \"#utility.yul\":1017:1019   */\n    tag_86:\n        /* \"#utility.yul\":1108:1109   */\n      0x00\n        /* \"#utility.yul\":1133:1186   */\n      tag_87\n        /* \"#utility.yul\":1178:1185   */\n      dup5\n        /* \"#utility.yul\":1169:1175   */\n      dup3\n        /* \"#utility.yul\":1158:1167   */\n      dup6\n        /* \"#utility.yul\":1154:1176   */\n      add\n        /* \"#utility.yul\":1133:1186   */\n      tag_73\n      jump\t// in\n    tag_87:\n        /* \"#utility.yul\":1123:1186   */\n      swap2\n      pop\n        /* \"#utility.yul\":1079:1196   */\n      pop\n        /* \"#utility.yul\":1007:1203   */\n      swap3\n      swap2\n      pop\n      pop\n      jump\t// out\n        /* \"#utility.yul\":1209:1584   */\n    tag_9:\n      0x00\n        /* \"#utility.yul\":1327:1329   */\n      0x20\n        /* \"#utility.yul\":1315:1324   */\n      dup3\n        /* \"#utility.yul\":1306:1313   */\n      dup5\n        /* \"#utility.yul\":1302:1325   */\n      sub\n        /* \"#utility.yul\":1298:1330   */\n      slt\n        /* \"#utility.yul\":1295:1297   */\n      iszero\n      tag_89\n      jumpi\n        /* \"#utility.yul\":1343:1344   */\n      0x00\n        /* \"#utility.yul\":1340:1341   */\n      dup1\n        /* \"#utility.yul\":1333:1345   */\n      revert\n        /* \"#utility.yul\":1295:1297   */\n    tag_89:\n        /* \"#utility.yul\":1414:1415   */\n      0x00\n        /* \"#utility.yul\":1403:1412   */\n      dup3\n        /* \"#utility.yul\":1399:1416   */\n      add\n        /* \"#utility.yul\":1386:1417   */\n      calldataload\n        /* \"#utility.yul\":1444:1462   */\n      0xffffffffffffffff\n        /* \"#utility.yul\":1436:1442   */\n      dup2\n        /* \"#utility.yul\":1433:1463   */\n      gt\n        /* \"#utility.yul\":1430:1432   */\n      iszero\n      tag_90\n      jumpi\n        /* \"#utility.yul\":1476:1477   */\n      0x00\n        /* \"#utility.yul\":1473:1474   */\n      dup1\n        /* \"#utility.yul\":1466:1478   */\n      revert\n        /* \"#utility.yul\":1430:1432   */\n    tag_90:\n        /* \"#utility.yul\":1504:1567   */\n      tag_91\n        /* \"#utility.yul\":1559:1566   */\n      dup5\n        /* \"#utility.yul\":1550:1556   */\n      dup3\n        /* \"#utility.yul\":1539:1548   */\n      dup6\n        /* \"#utility.yul\":1535:1557   */\n      add\n        /* \"#utility.yul\":1504:1567   */\n      tag_77\n      jump\t// in\n    tag_91:\n        /* \"#utility.yul\":1494:1567   */\n      swap2\n      pop\n        /* \"#utility.yul\":1357:1577   */\n      pop\n        /* \"#utility.yul\":1285:1584   */\n      swap3\n      swap2\n      pop\n      pop\n      jump\t// out\n        /* \"#utility.yul\":1590:2110   */\n    tag_13:\n      0x00\n      dup1\n        /* \"#utility.yul\":1725:1727   */\n      0x40\n        /* \"#utility.yul\":1713:1722   */\n      dup4\n        /* \"#utility.yul\":1704:1711   */\n      dup6\n        /* \"#utility.yul\":1700:1723   */\n      sub\n        /* \"#utility.yul\":1696:1728   */\n      slt\n        /* \"#utility.yul\":1693:1695   */\n      iszero\n      tag_93\n      jumpi\n        /* \"#utility.yul\":1741:1742   */\n      0x00\n        /* \"#utility.yul\":1738:1739   */\n      dup1\n        /* \"#utility.yul\":1731:1743   */\n      revert\n        /* \"#utility.yul\":1693:1695   */\n    tag_93:\n        /* \"#utility.yul\":1812:1813   */\n      0x00\n        /* \"#utility.yul\":1801:1810   */\n      dup4\n        /* \"#utility.yul\":1797:1814   */\n      add\n        /* \"#utility.yul\":1784:1815   */\n      calldataload\n        /* \"#utility.yul\":1842:1860   */\n      0xffffffffffffffff\n        /* \"#utility.yul\":1834:1840   */\n      dup2\n        /* \"#utility.yul\":1831:1861   */\n      gt\n        /* \"#utility.yul\":1828:1830   */\n      iszero\n      tag_94\n      jumpi\n        /* \"#utility.yul\":1874:1875   */\n      0x00\n        /* \"#utility.yul\":1871:1872   */\n      dup1\n        /* \"#utility.yul\":1864:1876   */\n      revert\n        /* \"#utility.yul\":1828:1830   */\n    tag_94:\n        /* \"#utility.yul\":1902:1965   */\n      tag_95\n        /* \"#utility.yul\":1957:1964   */\n      dup6\n        /* \"#utility.yul\":1948:1954   */\n      dup3\n        /* \"#utility.yul\":1937:1946   */\n      dup7\n        /* \"#utility.yul\":1933:1955   */\n      add\n        /* \"#utility.yul\":1902:1965   */\n      tag_77\n      jump\t// in\n    tag_95:\n        /* \"#utility.yul\":1892:1965   */\n      swap3\n      pop\n        /* \"#utility.yul\":1755:1975   */\n      pop\n        /* \"#utility.yul\":2014:2016   */\n      0x20\n        /* \"#utility.yul\":2040:2093   */\n      tag_96\n        /* \"#utility.yul\":2085:2092   */\n      dup6\n        /* \"#utility.yul\":2076:2082   */\n      dup3\n        /* \"#utility.yul\":2065:2074   */\n      dup7\n        /* \"#utility.yul\":2061:2083   */\n      add\n        /* \"#utility.yul\":2040:2093   */\n      tag_81\n      jump\t// in\n    tag_96:\n        /* \"#utility.yul\":2030:2093   */\n      swap2\n      pop\n        /* \"#utility.yul\":1985:2103   */\n      pop\n        /* \"#utility.yul\":1683:2110   */\n      swap3\n      pop\n      swap3\n      swap1\n      pop\n      jump\t// out\n        /* \"#utility.yul\":2116:2378   */\n    tag_19:\n      0x00\n        /* \"#utility.yul\":2224:2226   */\n      0x20\n        /* \"#utility.yul\":2212:2221   */\n      dup3\n        /* \"#utility.yul\":2203:2210   */\n      dup5\n        /* \"#utility.yul\":2199:2222   */\n      sub\n        /* \"#utility.yul\":2195:2227   */\n      slt\n        /* \"#utility.yul\":2192:2194   */\n      iszero\n      tag_98\n      jumpi\n        /* \"#utility.yul\":2240:2241   */\n      0x00\n        /* \"#utility.yul\":2237:2238   */\n      dup1\n        /* \"#utility.yul\":2230:2242   */\n      revert\n        /* \"#utility.yul\":2192:2194   */\n    tag_98:\n        /* \"#utility.yul\":2283:2284   */\n      0x00\n        /* \"#utility.yul\":2308:2361   */\n      tag_99\n        /* \"#utility.yul\":2353:2360   */\n      dup5\n        /* \"#utility.yul\":2344:2350   */\n      dup3\n        /* \"#utility.yul\":2333:2342   */\n      dup6\n        /* \"#utility.yul\":2329:2351   */\n      add\n        /* \"#utility.yul\":2308:2361   */\n      tag_81\n      jump\t// in\n    tag_99:\n        /* \"#utility.yul\":2298:2361   */\n      swap2\n      pop\n        /* \"#utility.yul\":2254:2371   */\n      pop\n        /* \"#utility.yul\":2182:2378   */\n      swap3\n      swap2\n      pop\n      pop\n      jump\t// out\n        /* \"#utility.yul\":2384:2502   */\n    tag_100:\n        /* \"#utility.yul\":2471:2495   */\n      tag_102\n        /* \"#utility.yul\":2489:2494   */\n      dup2\n        /* \"#utility.yul\":2471:2495   */\n      tag_103\n      jump\t// in\n    tag_102:\n        /* \"#utility.yul\":2466:2469   */\n      dup3\n        /* \"#utility.yul\":2459:2496   */\n      mstore\n        /* \"#utility.yul\":2449:2502   */\n      pop\n      pop\n      jump\t// out\n        /* \"#utility.yul\":2508:2872   */\n    tag_104:\n      0x00\n        /* \"#utility.yul\":2624:2663   */\n      tag_106\n        /* \"#utility.yul\":2657:2662   */\n      dup3\n        /* \"#utility.yul\":2624:2663   */\n      tag_107\n      jump\t// in\n    tag_106:\n        /* \"#utility.yul\":2679:2750   */\n      tag_108\n        /* \"#utility.yul\":2743:2749   */\n      dup2\n        /* \"#utility.yul\":2738:2741   */\n      dup6\n        /* \"#utility.yul\":2679:2750   */\n      tag_109\n      jump\t// in\n    tag_108:\n        /* \"#utility.yul\":2672:2750   */\n      swap4\n      pop\n        /* \"#utility.yul\":2759:2811   */\n      tag_110\n        /* \"#utility.yul\":2804:2810   */\n      dup2\n        /* \"#utility.yul\":2799:2802   */\n      dup6\n        /* \"#utility.yul\":2792:2796   */\n      0x20\n        /* \"#utility.yul\":2785:2790   */\n      dup7\n        /* \"#utility.yul\":2781:2797   */\n      add\n        /* \"#utility.yul\":2759:2811   */\n      tag_111\n      jump\t// in\n    tag_110:\n        /* \"#utility.yul\":2836:2865   */\n      tag_112\n        /* \"#utility.yul\":2858:2864   */\n      dup2\n        /* \"#utility.yul\":2836:2865   */\n      tag_113\n      jump\t// in\n    tag_112:\n        /* \"#utility.yul\":2831:2834   */\n      dup5\n        /* \"#utility.yul\":2827:2866   */\n      add\n        /* \"#utility.yul\":2820:2866   */\n      swap2\n      pop\n        /* \"#utility.yul\":2600:2872   */\n      pop\n      swap3\n      swap2\n      pop\n      pop\n      jump\t// out\n        /* \"#utility.yul\":2878:3243   */\n    tag_114:\n      0x00\n        /* \"#utility.yul\":3041:3107   */\n      tag_116\n        /* \"#utility.yul\":3105:3106   */\n      0x02\n        /* \"#utility.yul\":3100:3103   */\n      dup4\n        /* \"#utility.yul\":3041:3107   */\n      tag_109\n      jump\t// in\n    tag_116:\n        /* \"#utility.yul\":3034:3107   */\n      swap2\n      pop\n        /* \"#utility.yul\":3116:3209   */\n      tag_117\n        /* \"#utility.yul\":3205:3208   */\n      dup3\n        /* \"#utility.yul\":3116:3209   */\n      tag_118\n      jump\t// in\n    tag_117:\n        /* \"#utility.yul\":3234:3236   */\n      0x20\n        /* \"#utility.yul\":3229:3232   */\n      dup3\n        /* \"#utility.yul\":3225:3237   */\n      add\n        /* \"#utility.yul\":3218:3237   */\n      swap1\n      pop\n        /* \"#utility.yul\":3024:3243   */\n      swap2\n      swap1\n      pop\n      jump\t// out\n        /* \"#utility.yul\":3249:3615   */\n    tag_119:\n      0x00\n        /* \"#utility.yul\":3412:3479   */\n      tag_121\n        /* \"#utility.yul\":3476:3478   */\n      0x0a\n        /* \"#utility.yul\":3471:3474   */\n      dup4\n        /* \"#utility.yul\":3412:3479   */\n      tag_109\n      jump\t// in\n    tag_121:\n        /* \"#utility.yul\":3405:3479   */\n      swap2\n      pop\n        /* \"#utility.yul\":3488:3581   */\n      tag_122\n        /* \"#utility.yul\":3577:3580   */\n      dup3\n        /* \"#utility.yul\":3488:3581   */\n      tag_123\n      jump\t// in\n    tag_122:\n        /* \"#utility.yul\":3606:3608   */\n      0x20\n        /* \"#utility.yul\":3601:3604   */\n      dup3\n        /* \"#utility.yul\":3597:3609   */\n      add\n        /* \"#utility.yul\":3590:3609   */\n      swap1\n      pop\n        /* \"#utility.yul\":3395:3615   */\n      swap2\n      swap1\n      pop\n      jump\t// out\n        /* \"#utility.yul\":3621:3739   */\n    tag_124:\n        /* \"#utility.yul\":3708:3732   */\n      tag_126\n        /* \"#utility.yul\":3726:3731   */\n      dup2\n        /* \"#utility.yul\":3708:3732   */\n      tag_127\n      jump\t// in\n    tag_126:\n        /* \"#utility.yul\":3703:3706   */\n      dup3\n        /* \"#utility.yul\":3696:3733   */\n      mstore\n        /* \"#utility.yul\":3686:3739   */\n      pop\n      pop\n      jump\t// out\n        /* \"#utility.yul\":3745:4058   */\n    tag_28:\n      0x00\n        /* \"#utility.yul\":3896:3898   */\n      0x20\n        /* \"#utility.yul\":3885:3894   */\n      dup3\n        /* \"#utility.yul\":3881:3899   */\n      add\n        /* \"#utility.yul\":3873:3899   */\n      swap1\n      pop\n        /* \"#utility.yul\":3945:3954   */\n      dup2\n        /* \"#utility.yul\":3939:3943   */\n      dup2\n        /* \"#utility.yul\":3935:3955   */\n      sub\n        /* \"#utility.yul\":3931:3932   */\n      0x00\n        /* \"#utility.yul\":3920:3929   */\n      dup4\n        /* \"#utility.yul\":3916:3933   */\n      add\n        /* \"#utility.yul\":3909:3956   */\n      mstore\n        /* \"#utility.yul\":3973:4051   */\n      tag_129\n        /* \"#utility.yul\":4046:4050   */\n      dup2\n        /* \"#utility.yul\":4037:4043   */\n      dup5\n        /* \"#utility.yul\":3973:4051   */\n      tag_104\n      jump\t// in\n    tag_129:\n        /* \"#utility.yul\":3965:4051   */\n      swap1\n      pop\n        /* \"#utility.yul\":3863:4058   */\n      swap3\n      swap2\n      pop\n      pop\n      jump\t// out\n        /* \"#utility.yul\":4064:4597   */\n    tag_22:\n      0x00\n        /* \"#utility.yul\":4271:4273   */\n      0x60\n        /* \"#utility.yul\":4260:4269   */\n      dup3\n        /* \"#utility.yul\":4256:4274   */\n      add\n        /* \"#utility.yul\":4248:4274   */\n      swap1\n      pop\n        /* \"#utility.yul\":4320:4329   */\n      dup2\n        /* \"#utility.yul\":4314:4318   */\n      dup2\n        /* \"#utility.yul\":4310:4330   */\n      sub\n        /* \"#utility.yul\":4306:4307   */\n      0x00\n        /* \"#utility.yul\":4295:4304   */\n      dup4\n        /* \"#utility.yul\":4291:4308   */\n      add\n        /* \"#utility.yul\":4284:4331   */\n      mstore\n        /* \"#utility.yul\":4348:4426   */\n      tag_131\n        /* \"#utility.yul\":4421:4425   */\n      dup2\n        /* \"#utility.yul\":4412:4418   */\n      dup7\n        /* \"#utility.yul\":4348:4426   */\n      tag_104\n      jump\t// in\n    tag_131:\n        /* \"#utility.yul\":4340:4426   */\n      swap1\n      pop\n        /* \"#utility.yul\":4436:4508   */\n      tag_132\n        /* \"#utility.yul\":4504:4506   */\n      0x20\n        /* \"#utility.yul\":4493:4502   */\n      dup4\n        /* \"#utility.yul\":4489:4507   */\n      add\n        /* \"#utility.yul\":4480:4486   */\n      dup6\n        /* \"#utility.yul\":4436:4508   */\n      tag_124\n      jump\t// in\n    tag_132:\n        /* \"#utility.yul\":4518:4590   */\n      tag_133\n        /* \"#utility.yul\":4586:4588   */\n      0x40\n        /* \"#utility.yul\":4575:4584   */\n      dup4\n        /* \"#utility.yul\":4571:4589   */\n      add\n        /* \"#utility.yul\":4562:4568   */\n      dup5\n        /* \"#utility.yul\":4518:4590   */\n      tag_100\n      jump\t// in\n    tag_133:\n        /* \"#utility.yul\":4238:4597   */\n      swap5\n      swap4\n      pop\n      pop\n      pop\n      pop\n      jump\t// out\n        /* \"#utility.yul\":4603:5022   */\n    tag_32:\n      0x00\n        /* \"#utility.yul\":4807:4809   */\n      0x20\n        /* \"#utility.yul\":4796:4805   */\n      dup3\n        /* \"#utility.yul\":4792:4810   */\n      add\n        /* \"#utility.yul\":4784:4810   */\n      swap1\n      pop\n        /* \"#utility.yul\":4856:4865   */\n      dup2\n        /* \"#utility.yul\":4850:4854   */\n      dup2\n        /* \"#utility.yul\":4846:4866   */\n      sub\n        /* \"#utility.yul\":4842:4843   */\n      0x00\n        /* \"#utility.yul\":4831:4840   */\n      dup4\n        /* \"#utility.yul\":4827:4844   */\n      add\n        /* \"#utility.yul\":4820:4867   */\n      mstore\n        /* \"#utility.yul\":4884:5015   */\n      tag_135\n        /* \"#utility.yul\":5010:5014   */\n      dup2\n        /* \"#utility.yul\":4884:5015   */\n      tag_114\n      jump\t// in\n    tag_135:\n        /* \"#utility.yul\":4876:5015   */\n      swap1\n      pop\n        /* \"#utility.yul\":4774:5022   */\n      swap2\n      swap1\n      pop\n      jump\t// out\n        /* \"#utility.yul\":5028:5447   */\n    tag_38:\n      0x00\n        /* \"#utility.yul\":5232:5234   */\n      0x20\n        /* \"#utility.yul\":5221:5230   */\n      dup3\n        /* \"#utility.yul\":5217:5235   */\n      add\n        /* \"#utility.yul\":5209:5235   */\n      swap1\n      pop\n        /* \"#utility.yul\":5281:5290   */\n      dup2\n        /* \"#utility.yul\":5275:5279   */\n      dup2\n        /* \"#utility.yul\":5271:5291   */\n      sub\n        /* \"#utility.yul\":5267:5268   */\n      0x00\n        /* \"#utility.yul\":5256:5265   */\n      dup4\n        /* \"#utility.yul\":5252:5269   */\n      add\n        /* \"#utility.yul\":5245:5292   */\n      mstore\n        /* \"#utility.yul\":5309:5440   */\n      tag_137\n        /* \"#utility.yul\":5435:5439   */\n      dup2\n        /* \"#utility.yul\":5309:5440   */\n      tag_119\n      jump\t// in\n    tag_137:\n        /* \"#utility.yul\":5301:5440   */\n      swap1\n      pop\n        /* \"#utility.yul\":5199:5447   */\n      swap2\n      swap1\n      pop\n      jump\t// out\n        /* \"#utility.yul\":5453:5986   */\n    tag_16:\n      0x00\n        /* \"#utility.yul\":5660:5662   */\n      0x60\n        /* \"#utility.yul\":5649:5658   */\n      dup3\n        /* \"#utility.yul\":5645:5663   */\n      add\n        /* \"#utility.yul\":5637:5663   */\n      swap1\n      pop\n        /* \"#utility.yul\":5673:5744   */\n      tag_139\n        /* \"#utility.yul\":5741:5742   */\n      0x00\n        /* \"#utility.yul\":5730:5739   */\n      dup4\n        /* \"#utility.yul\":5726:5743   */\n      add\n        /* \"#utility.yul\":5717:5723   */\n      dup7\n        /* \"#utility.yul\":5673:5744   */\n      tag_124\n      jump\t// in\n    tag_139:\n        /* \"#utility.yul\":5791:5800   */\n      dup2\n        /* \"#utility.yul\":5785:5789   */\n      dup2\n        /* \"#utility.yul\":5781:5801   */\n      sub\n        /* \"#utility.yul\":5776:5778   */\n      0x20\n        /* \"#utility.yul\":5765:5774   */\n      dup4\n        /* \"#utility.yul\":5761:5779   */\n      add\n        /* \"#utility.yul\":5754:5802   */\n      mstore\n        /* \"#utility.yul\":5819:5897   */\n      tag_140\n        /* \"#utility.yul\":5892:5896   */\n      dup2\n        /* \"#utility.yul\":5883:5889   */\n      dup6\n        /* \"#utility.yul\":5819:5897   */\n      tag_104\n      jump\t// in\n    tag_140:\n        /* \"#utility.yul\":5811:5897   */\n      swap1\n      pop\n        /* \"#utility.yul\":5907:5979   */\n      tag_141\n        /* \"#utility.yul\":5975:5977   */\n      0x40\n        /* \"#utility.yul\":5964:5973   */\n      dup4\n        /* \"#utility.yul\":5960:5978   */\n      add\n        /* \"#utility.yul\":5951:5957   */\n      dup5\n        /* \"#utility.yul\":5907:5979   */\n      tag_124\n      jump\t// in\n    tag_141:\n        /* \"#utility.yul\":5627:5986   */\n      swap5\n      swap4\n      pop\n      pop\n      pop\n      pop\n      jump\t// out\n        /* \"#utility.yul\":5992:6121   */\n    tag_69:\n      0x00\n        /* \"#utility.yul\":6053:6073   */\n      tag_143\n      tag_144\n      jump\t// in\n    tag_143:\n        /* \"#utility.yul\":6043:6073   */\n      swap1\n      pop\n        /* \"#utility.yul\":6082:6115   */\n      tag_145\n        /* \"#utility.yul\":6110:6114   */\n      dup3\n        /* \"#utility.yul\":6102:6108   */\n      dup3\n        /* \"#utility.yul\":6082:6115   */\n      tag_146\n      jump\t// in\n    tag_145:\n        /* \"#utility.yul\":6033:6121   */\n      swap2\n      swap1\n      pop\n      jump\t// out\n        /* \"#utility.yul\":6127:6202   */\n    tag_144:\n      0x00\n        /* \"#utility.yul\":6193:6195   */\n      0x40\n        /* \"#utility.yul\":6187:6196   */\n      mload\n        /* \"#utility.yul\":6177:6196   */\n      swap1\n      pop\n        /* \"#utility.yul\":6167:6202   */\n      swap1\n      jump\t// out\n        /* \"#utility.yul\":6208:6516   */\n    tag_68:\n      0x00\n        /* \"#utility.yul\":6360:6378   */\n      0xffffffffffffffff\n        /* \"#utility.yul\":6352:6358   */\n      dup3\n        /* \"#utility.yul\":6349:6379   */\n      gt\n        /* \"#utility.yul\":6346:6348   */\n      iszero\n      tag_149\n      jumpi\n        /* \"#utility.yul\":6382:6400   */\n      tag_150\n      tag_151\n      jump\t// in\n    tag_150:\n        /* \"#utility.yul\":6346:6348   */\n    tag_149:\n        /* \"#utility.yul\":6420:6449   */\n      tag_152\n        /* \"#utility.yul\":6442:6448   */\n      dup3\n        /* \"#utility.yul\":6420:6449   */\n      tag_113\n      jump\t// in\n    tag_152:\n        /* \"#utility.yul\":6412:6449   */\n      swap1\n      pop\n        /* \"#utility.yul\":6504:6508   */\n      0x20\n        /* \"#utility.yul\":6498:6502   */\n      dup2\n        /* \"#utility.yul\":6494:6509   */\n      add\n        /* \"#utility.yul\":6486:6509   */\n      swap1\n      pop\n        /* \"#utility.yul\":6275:6516   */\n      swap2\n      swap1\n      pop\n      jump\t// out\n        /* \"#utility.yul\":6522:6621   */\n    tag_107:\n      0x00\n        /* \"#utility.yul\":6608:6613   */\n      dup2\n        /* \"#utility.yul\":6602:6614   */\n      mload\n        /* \"#utility.yul\":6592:6614   */\n      swap1\n      pop\n        /* \"#utility.yul\":6581:6621   */\n      swap2\n      swap1\n      pop\n      jump\t// out\n        /* \"#utility.yul\":6627:6796   */\n    tag_109:\n      0x00\n        /* \"#utility.yul\":6745:6751   */\n      dup3\n        /* \"#utility.yul\":6740:6743   */\n      dup3\n        /* \"#utility.yul\":6733:6752   */\n      mstore\n        /* \"#utility.yul\":6785:6789   */\n      0x20\n        /* \"#utility.yul\":6780:6783   */\n      dup3\n        /* \"#utility.yul\":6776:6790   */\n      add\n        /* \"#utility.yul\":6761:6790   */\n      swap1\n      pop\n        /* \"#utility.yul\":6723:6796   */\n      swap3\n      swap2\n      pop\n      pop\n      jump\t// out\n        /* \"#utility.yul\":6802:6898   */\n    tag_103:\n      0x00\n        /* \"#utility.yul\":6868:6892   */\n      tag_156\n        /* \"#utility.yul\":6886:6891   */\n      dup3\n        /* \"#utility.yul\":6868:6892   */\n      tag_157\n      jump\t// in\n    tag_156:\n        /* \"#utility.yul\":6857:6892   */\n      swap1\n      pop\n        /* \"#utility.yul\":6847:6898   */\n      swap2\n      swap1\n      pop\n      jump\t// out\n        /* \"#utility.yul\":6904:7030   */\n    tag_157:\n      0x00\n        /* \"#utility.yul\":6981:7023   */\n      0xffffffffffffffffffffffffffffffffffffffff\n        /* \"#utility.yul\":6974:6979   */\n      dup3\n        /* \"#utility.yul\":6970:7024   */\n      and\n        /* \"#utility.yul\":6959:7024   */\n      swap1\n      pop\n        /* \"#utility.yul\":6949:7030   */\n      swap2\n      swap1\n      pop\n      jump\t// out\n        /* \"#utility.yul\":7036:7113   */\n    tag_127:\n      0x00\n        /* \"#utility.yul\":7102:7107   */\n      dup2\n        /* \"#utility.yul\":7091:7107   */\n      swap1\n      pop\n        /* \"#utility.yul\":7081:7113   */\n      swap2\n      swap1\n      pop\n      jump\t// out\n        /* \"#utility.yul\":7119:7273   */\n    tag_72:\n        /* \"#utility.yul\":7203:7209   */\n      dup3\n        /* \"#utility.yul\":7198:7201   */\n      dup2\n        /* \"#utility.yul\":7193:7196   */\n      dup4\n        /* \"#utility.yul\":7180:7210   */\n      calldatacopy\n        /* \"#utility.yul\":7265:7266   */\n      0x00\n        /* \"#utility.yul\":7256:7262   */\n      dup4\n        /* \"#utility.yul\":7251:7254   */\n      dup4\n        /* \"#utility.yul\":7247:7263   */\n      add\n        /* \"#utility.yul\":7240:7267   */\n      mstore\n        /* \"#utility.yul\":7170:7273   */\n      pop\n      pop\n      pop\n      jump\t// out\n        /* \"#utility.yul\":7279:7586   */\n    tag_111:\n        /* \"#utility.yul\":7347:7348   */\n      0x00\n        /* \"#utility.yul\":7357:7470   */\n    tag_162:\n        /* \"#utility.yul\":7371:7377   */\n      dup4\n        /* \"#utility.yul\":7368:7369   */\n      dup2\n        /* \"#utility.yul\":7365:7378   */\n      lt\n        /* \"#utility.yul\":7357:7470   */\n      iszero\n      tag_164\n      jumpi\n        /* \"#utility.yul\":7456:7457   */\n      dup1\n        /* \"#utility.yul\":7451:7454   */\n      dup3\n        /* \"#utility.yul\":7447:7458   */\n      add\n        /* \"#utility.yul\":7441:7459   */\n      mload\n        /* \"#utility.yul\":7437:7438   */\n      dup2\n        /* \"#utility.yul\":7432:7435   */\n      dup5\n        /* \"#utility.yul\":7428:7439   */\n      add\n        /* \"#utility.yul\":7421:7460   */\n      mstore\n        /* \"#utility.yul\":7393:7395   */\n      0x20\n        /* \"#utility.yul\":7390:7391   */\n      dup2\n        /* \"#utility.yul\":7386:7396   */\n      add\n        /* \"#utility.yul\":7381:7396   */\n      swap1\n      pop\n        /* \"#utility.yul\":7357:7470   */\n      jump(tag_162)\n    tag_164:\n        /* \"#utility.yul\":7488:7494   */\n      dup4\n        /* \"#utility.yul\":7485:7486   */\n      dup2\n        /* \"#utility.yul\":7482:7495   */\n      gt\n        /* \"#utility.yul\":7479:7481   */\n      iszero\n      tag_165\n      jumpi\n        /* \"#utility.yul\":7568:7569   */\n      0x00\n        /* \"#utility.yul\":7559:7565   */\n      dup5\n        /* \"#utility.yul\":7554:7557   */\n      dup5\n        /* \"#utility.yul\":7550:7566   */\n      add\n        /* \"#utility.yul\":7543:7570   */\n      mstore\n        /* \"#utility.yul\":7479:7481   */\n    tag_165:\n        /* \"#utility.yul\":7328:7586   */\n      pop\n      pop\n      pop\n      pop\n      jump\t// out\n        /* \"#utility.yul\":7592:7912   */\n    tag_43:\n      0x00\n        /* \"#utility.yul\":7673:7674   */\n      0x02\n        /* \"#utility.yul\":7667:7671   */\n      dup3\n        /* \"#utility.yul\":7663:7675   */\n      div\n        /* \"#utility.yul\":7653:7675   */\n      swap1\n      pop\n        /* \"#utility.yul\":7720:7721   */\n      0x01\n        /* \"#utility.yul\":7714:7718   */\n      dup3\n        /* \"#utility.yul\":7710:7722   */\n      and\n        /* \"#utility.yul\":7741:7759   */\n      dup1\n        /* \"#utility.yul\":7731:7733   */\n      tag_167\n      jumpi\n        /* \"#utility.yul\":7797:7801   */\n      0x7f\n        /* \"#utility.yul\":7789:7795   */\n      dup3\n        /* \"#utility.yul\":7785:7802   */\n      and\n        /* \"#utility.yul\":7775:7802   */\n      swap2\n      pop\n        /* \"#utility.yul\":7731:7733   */\n    tag_167:\n        /* \"#utility.yul\":7859:7861   */\n      0x20\n        /* \"#utility.yul\":7851:7857   */\n      dup3\n        /* \"#utility.yul\":7848:7862   */\n      lt\n        /* \"#utility.yul\":7828:7846   */\n      dup2\n        /* \"#utility.yul\":7825:7863   */\n      eq\n        /* \"#utility.yul\":7822:7824   */\n      iszero\n      tag_168\n      jumpi\n        /* \"#utility.yul\":7878:7896   */\n      tag_169\n      tag_170\n      jump\t// in\n    tag_169:\n        /* \"#utility.yul\":7822:7824   */\n    tag_168:\n        /* \"#utility.yul\":7643:7912   */\n      pop\n      swap2\n      swap1\n      pop\n      jump\t// out\n        /* \"#utility.yul\":7918:8199   */\n    tag_146:\n        /* \"#utility.yul\":8001:8028   */\n      tag_172\n        /* \"#utility.yul\":8023:8027   */\n      dup3\n        /* \"#utility.yul\":8001:8028   */\n      tag_113\n      jump\t// in\n    tag_172:\n        /* \"#utility.yul\":7993:7999   */\n      dup2\n        /* \"#utility.yul\":7989:8029   */\n      add\n        /* \"#utility.yul\":8131:8137   */\n      dup2\n        /* \"#utility.yul\":8119:8129   */\n      dup2\n        /* \"#utility.yul\":8116:8138   */\n      lt\n        /* \"#utility.yul\":8095:8113   */\n      0xffffffffffffffff\n        /* \"#utility.yul\":8083:8093   */\n      dup3\n        /* \"#utility.yul\":8080:8114   */\n      gt\n        /* \"#utility.yul\":8077:8139   */\n      or\n        /* \"#utility.yul\":8074:8076   */\n      iszero\n      tag_173\n      jumpi\n        /* \"#utility.yul\":8142:8160   */\n      tag_174\n      tag_151\n      jump\t// in\n    tag_174:\n        /* \"#utility.yul\":8074:8076   */\n    tag_173:\n        /* \"#utility.yul\":8182:8192   */\n      dup1\n        /* \"#utility.yul\":8178:8180   */\n      0x40\n        /* \"#utility.yul\":8171:8193   */\n      mstore\n        /* \"#utility.yul\":7961:8199   */\n      pop\n      pop\n      pop\n      jump\t// out\n        /* \"#utility.yul\":8205:8438   */\n    tag_40:\n      0x00\n        /* \"#utility.yul\":8267:8291   */\n      tag_176\n        /* \"#utility.yul\":8285:8290   */\n      dup3\n        /* \"#utility.yul\":8267:8291   */\n      tag_127\n      jump\t// in\n    tag_176:\n        /* \"#utility.yul\":8258:8291   */\n      swap2\n      pop\n        /* \"#utility.yul\":8313:8379   */\n      0xffffffffffffffffffffffffffffffffffffffffffffffffffffffffffffffff\n        /* \"#utility.yul\":8306:8311   */\n      dup3\n        /* \"#utility.yul\":8303:8380   */\n      eq\n        /* \"#utility.yul\":8300:8302   */\n      iszero\n      tag_177\n      jumpi\n        /* \"#utility.yul\":8383:8401   */\n      tag_178\n      tag_179\n      jump\t// in\n    tag_178:\n        /* \"#utility.yul\":8300:8302   */\n    tag_177:\n        /* \"#utility.yul\":8430:8431   */\n      0x01\n        /* \"#utility.yul\":8423:8428   */\n      dup3\n        /* \"#utility.yul\":8419:8432   */\n      add\n        /* \"#utility.yul\":8412:8432   */\n      swap1\n      pop\n        /* \"#utility.yul\":8248:8438   */\n      swap2\n      swap1\n      pop\n      jump\t// out\n        /* \"#utility.yul\":8444:8624   */\n    tag_179:\n        /* \"#utility.yul\":8492:8569   */\n      0x4e487b7100000000000000000000000000000000000000000000000000000000\n        /* \"#utility.yul\":8489:8490   */\n      0x00\n        /* \"#utility.yul\":8482:8570   */\n      mstore\n        /* \"#utility.yul\":8589:8593   */\n      0x11\n        /* \"#utility.yul\":8586:8587   */\n      0x04\n        /* \"#utility.yul\":8579:8594   */\n      mstore\n        /* \"#utility.yul\":8613:8617   */\n      0x24\n        /* \"#utility.yul\":8610:8611   */\n      0x00\n        /* \"#utility.yul\":8603:8618   */\n      revert\n        /* \"#utility.yul\":8630:8810   */\n    tag_170:\n        /* \"#utility.yul\":8678:8755   */\n      0x4e487b7100000000000000000000000000000000000000000000000000000000\n        /* \"#utility.yul\":8675:8676   */\n      0x00\n        /* \"#utility.yul\":8668:8756   */\n      mstore\n        /* \"#utility.yul\":8775:8779   */\n      0x22\n        /* \"#utility.yul\":8772:8773   */\n      0x04\n        /* \"#utility.yul\":8765:8780   */\n      mstore\n        /* \"#utility.yul\":8799:8803   */\n      0x24\n        /* \"#utility.yul\":8796:8797   */\n      0x00\n        /* \"#utility.yul\":8789:8804   */\n      revert\n        /* \"#utility.yul\":8816:8996   */\n    tag_151:\n        /* \"#utility.yul\":8864:8941   */\n      0x4e487b7100000000000000000000000000000000000000000000000000000000\n        /* \"#utility.yul\":8861:8862   */\n      0x00\n        /* \"#utility.yul\":8854:8942   */\n      mstore\n        /* \"#utility.yul\":8961:8965   */\n      0x41\n        /* \"#utility.yul\":8958:8959   */\n      0x04\n        /* \"#utility.yul\":8951:8966   */\n      mstore\n        /* \"#utility.yul\":8985:8989   */\n      0x24\n        /* \"#utility.yul\":8982:8983   */\n      0x00\n        /* \"#utility.yul\":8975:8990   */\n      revert\n        /* \"#utility.yul\":9002:9104   */\n    tag_113:\n      0x00\n        /* \"#utility.yul\":9094:9096   */\n      0x1f\n        /* \"#utility.yul\":9090:9097   */\n      not\n        /* \"#utility.yul\":9085:9087   */\n      0x1f\n        /* \"#utility.yul\":9078:9083   */\n      dup4\n        /* \"#utility.yul\":9074:9088   */\n      add\n        /* \"#utility.yul\":9070:9098   */\n      and\n        /* \"#utility.yul\":9060:9098   */\n      swap1\n      pop\n        /* \"#utility.yul\":9050:9104   */\n      swap2\n      swap1\n      pop\n      jump\t// out\n        /* \"#utility.yul\":9110:9262   */\n    tag_118:\n        /* \"#utility.yul\":9250:9254   */\n      0x7573000000000000000000000000000000000000000000000000000000000000\n        /* \"#utility.yul\":9246:9247   */\n      0x00\n        /* \"#utility.yul\":9238:9244   */\n      dup3\n        /* \"#utility.yul\":9234:9248   */\n      add\n        /* \"#utility.yul\":9227:9255   */\n      mstore\n        /* \"#utility.yul\":9216:9262   */\n      pop\n      jump\t// out\n        /* \"#utility.yul\":9268:9428   */\n    tag_123:\n        /* \"#utility.yul\":9408:9420   */\n      0x68692068656c6f6f772000000000000000000000000000000000000000000000\n        /* \"#utility.yul\":9404:9405   */\n      0x00\n        /* \"#utility.yul\":9396:9402   */\n      dup3\n        /* \"#utility.yul\":9392:9406   */\n      add\n        /* \"#utility.yul\":9385:9421   */\n      mstore\n        /* \"#utility.yul\":9374:9428   */\n      pop\n      jump\t// out\n        /* \"#utility.yul\":9434:9556   */\n    tag_76:\n        /* \"#utility.yul\":9507:9531   */\n      tag_187\n        /* \"#utility.yul\":9525:9530   */\n      dup2\n        /* \"#utility.yul\":9507:9531   */\n      tag_103\n      jump\t// in\n    tag_187:\n        /* \"#utility.yul\":9500:9505   */\n      dup2\n        /* \"#utility.yul\":9497:9532   */\n      eq\n        /* \"#utility.yul\":9487:9489   */\n      tag_188\n      jumpi\n        /* \"#utility.yul\":9546:9547   */\n      0x00\n        /* \"#utility.yul\":9543:9544   */\n      dup1\n        /* \"#utility.yul\":9536:9548   */\n      revert\n        /* \"#utility.yul\":9487:9489   */\n    tag_188:\n        /* \"#utility.yul\":9477:9556   */\n      pop\n      jump\t// out\n        /* \"#utility.yul\":9562:9684   */\n    tag_84:\n        /* \"#utility.yul\":9635:9659   */\n      tag_190\n        /* \"#utility.yul\":9653:9658   */\n      dup2\n        /* \"#utility.yul\":9635:9659   */\n      tag_127\n      jump\t// in\n    tag_190:\n        /* \"#utility.yul\":9628:9633   */\n      dup2\n        /* \"#utility.yul\":9625:9660   */\n      eq\n        /* \"#utility.yul\":9615:9617   */\n      tag_191\n      jumpi\n        /* \"#utility.yul\":9674:9675   */\n      0x00\n        /* \"#utility.yul\":9671:9672   */\n      dup1\n        /* \"#utility.yul\":9664:9676   */\n      revert\n        /* \"#utility.yul\":9615:9617   */\n    tag_191:\n        /* \"#utility.yul\":9605:9684   */\n      pop\n      jump\t// out\n\n    auxdata: 0xa26469706673582212200acc006da8b33f38ad112a4f5e45237c9cabf2513c709492f64f6f0bd02dc36b64736f6c63430008010033\n}\n",
				"bytecode": {
					"linkReferences": {},
					"object": "6080604052600060025534801561001557600080fd5b50610abc806100256000396000f3fe608060405234801561001057600080fd5b506004361061004c5760003560e01c806318b8275a146100515780631bc7ffe91461006d5780634b4a80ba1461009f57806399b956a0146100d1575b600080fd5b61006b60048036038101906100669190610593565b610101565b005b610087600480360381019061008291906105d4565b610198565b6040516100969392919061078e565b60405180910390f35b6100b960048036038101906100b49190610628565b6102c3565b6040516100c893929190610710565b60405180910390f35b6100eb60048036038101906100e6919061056a565b610395565b6040516100f891906106ee565b60405180910390f35b6000610142576040517f08c379a00000000000000000000000000000000000000000000000000000000081526004016101399061074e565b60405180910390fd5b806000803373ffffffffffffffffffffffffffffffffffffffff1673ffffffffffffffffffffffffffffffffffffffff1681526020019081526020016000209080519060200190610194929190610435565b5050565b60006060600060026001116101e2576040517f08c379a00000000000000000000000000000000000000000000000000000000081526004016101d99061076e565b60405180910390fd5b600260008154809291906101f59061091f565b919050555060405180606001604052808681526020018581526020013373ffffffffffffffffffffffffffffffffffffffff16815250600160006002548152602001908152602001600020600082015181600001908051906020019061025c929190610435565b506020820151816001015560408201518160020160006101000a81548173ffffffffffffffffffffffffffffffffffffffff021916908373ffffffffffffffffffffffffffffffffffffffff16021790555090505060025485859250925092509250925092565b60016020528060005260406000206000915090508060000180546102e6906108bc565b80601f0160208091040260200160405190810160405280929190818152602001828054610312906108bc565b801561035f5780601f106103345761010080835404028352916020019161035f565b820191906000526020600020905b81548152906001019060200180831161034257829003601f168201915b5050505050908060010154908060020160009054906101000a900473ffffffffffffffffffffffffffffffffffffffff16905083565b600060205280600052604060002060009150905080546103b4906108bc565b80601f01602080910402602001604051908101604052809291908181526020018280546103e0906108bc565b801561042d5780601f106104025761010080835404028352916020019161042d565b820191906000526020600020905b81548152906001019060200180831161041057829003601f168201915b505050505081565b828054610441906108bc565b90600052602060002090601f01602090048101928261046357600085556104aa565b82601f1061047c57805160ff19168380011785556104aa565b828001600101855582156104aa579182015b828111156104a957825182559160200191906001019061048e565b5b5090506104b791906104bb565b5090565b5b808211156104d45760008160009055506001016104bc565b5090565b60006104eb6104e6846107f1565b6107cc565b90508281526020810184848401111561050357600080fd5b61050e84828561087a565b509392505050565b60008135905061052581610a58565b92915050565b600082601f83011261053c57600080fd5b813561054c8482602086016104d8565b91505092915050565b60008135905061056481610a6f565b92915050565b60006020828403121561057c57600080fd5b600061058a84828501610516565b91505092915050565b6000602082840312156105a557600080fd5b600082013567ffffffffffffffff8111156105bf57600080fd5b6105cb8482850161052b565b91505092915050565b600080604083850312156105e757600080fd5b600083013567ffffffffffffffff81111561060157600080fd5b61060d8582860161052b565b925050602061061e85828601610555565b9150509250929050565b60006020828403121561063a57600080fd5b600061064884828501610555565b91505092915050565b61065a8161083e565b82525050565b600061066b82610822565b610675818561082d565b9350610685818560208601610889565b61068e816109f5565b840191505092915050565b60006106a660028361082d565b91506106b182610a06565b602082019050919050565b60006106c9600a8361082d565b91506106d482610a2f565b602082019050919050565b6106e881610870565b82525050565b600060208201905081810360008301526107088184610660565b905092915050565b6000606082019050818103600083015261072a8186610660565b905061073960208301856106df565b6107466040830184610651565b949350505050565b6000602082019050818103600083015261076781610699565b9050919050565b60006020820190508181036000830152610787816106bc565b9050919050565b60006060820190506107a360008301866106df565b81810360208301526107b58185610660565b90506107c460408301846106df565b949350505050565b60006107d66107e7565b90506107e282826108ee565b919050565b6000604051905090565b600067ffffffffffffffff82111561080c5761080b6109c6565b5b610815826109f5565b9050602081019050919050565b600081519050919050565b600082825260208201905092915050565b600061084982610850565b9050919050565b600073ffffffffffffffffffffffffffffffffffffffff82169050919050565b6000819050919050565b82818337600083830152505050565b60005b838110156108a757808201518184015260208101905061088c565b838111156108b6576000848401525b50505050565b600060028204905060018216806108d457607f821691505b602082108114156108e8576108e7610997565b5b50919050565b6108f7826109f5565b810181811067ffffffffffffffff82111715610916576109156109c6565b5b80604052505050565b600061092a82610870565b91507fffffffffffffffffffffffffffffffffffffffffffffffffffffffffffffffff82141561095d5761095c610968565b5b600182019050919050565b7f4e487b7100000000000000000000000000000000000000000000000000000000600052601160045260246000fd5b7f4e487b7100000000000000000000000000000000000000000000000000000000600052602260045260246000fd5b7f4e487b7100000000000000000000000000000000000000000000000000000000600052604160045260246000fd5b6000601f19601f8301169050919050565b7f7573000000000000000000000000000000000000000000000000000000000000600082015250565b7f68692068656c6f6f772000000000000000000000000000000000000000000000600082015250565b610a618161083e565b8114610a6c57600080fd5b50565b610a7881610870565b8114610a8357600080fd5b5056fea26469706673582212200acc006da8b33f38ad112a4f5e45237c9cabf2513c709492f64f6f0bd02dc36b64736f6c63430008010033",
					"opcodes": "PUSH1 0x80 PUSH1 0x40 MSTORE PUSH1 0x0 PUSH1 0x2 SSTORE CALLVALUE DUP1 ISZERO PUSH2 0x15 JUMPI PUSH1 0x0 DUP1 REVERT JUMPDEST POP PUSH2 0xABC DUP1 PUSH2 0x25 PUSH1 0x0 CODECOPY PUSH1 0x0 RETURN INVALID PUSH1 0x80 PUSH1 0x40 MSTORE CALLVALUE DUP1 ISZERO PUSH2 0x10 JUMPI PUSH1 0x0 DUP1 REVERT JUMPDEST POP PUSH1 0x4 CALLDATASIZE LT PUSH2 0x4C JUMPI PUSH1 0x0 CALLDATALOAD PUSH1 0xE0 SHR DUP1 PUSH4 0x18B8275A EQ PUSH2 0x51 JUMPI DUP1 PUSH4 0x1BC7FFE9 EQ PUSH2 0x6D JUMPI DUP1 PUSH4 0x4B4A80BA EQ PUSH2 0x9F JUMPI DUP1 PUSH4 0x99B956A0 EQ PUSH2 0xD1 JUMPI JUMPDEST PUSH1 0x0 DUP1 REVERT JUMPDEST PUSH2 0x6B PUSH1 0x4 DUP1 CALLDATASIZE SUB DUP2 ADD SWAP1 PUSH2 0x66 SWAP2 SWAP1 PUSH2 0x593 JUMP JUMPDEST PUSH2 0x101 JUMP JUMPDEST STOP JUMPDEST PUSH2 0x87 PUSH1 0x4 DUP1 CALLDATASIZE SUB DUP2 ADD SWAP1 PUSH2 0x82 SWAP2 SWAP1 PUSH2 0x5D4 JUMP JUMPDEST PUSH2 0x198 JUMP JUMPDEST PUSH1 0x40 MLOAD PUSH2 0x96 SWAP4 SWAP3 SWAP2 SWAP1 PUSH2 0x78E JUMP JUMPDEST PUSH1 0x40 MLOAD DUP1 SWAP2 SUB SWAP1 RETURN JUMPDEST PUSH2 0xB9 PUSH1 0x4 DUP1 CALLDATASIZE SUB DUP2 ADD SWAP1 PUSH2 0xB4 SWAP2 SWAP1 PUSH2 0x628 JUMP JUMPDEST PUSH2 0x2C3 JUMP JUMPDEST PUSH1 0x40 MLOAD PUSH2 0xC8 SWAP4 SWAP3 SWAP2 SWAP1 PUSH2 0x710 JUMP JUMPDEST PUSH1 0x40 MLOAD DUP1 SWAP2 SUB SWAP1 RETURN JUMPDEST PUSH2 0xEB PUSH1 0x4 DUP1 CALLDATASIZE SUB DUP2 ADD SWAP1 PUSH2 0xE6 SWAP2 SWAP1 PUSH2 0x56A JUMP JUMPDEST PUSH2 0x395 JUMP JUMPDEST PUSH1 0x40 MLOAD PUSH2 0xF8 SWAP2 SWAP1 PUSH2 0x6EE JUMP JUMPDEST PUSH1 0x40 MLOAD DUP1 SWAP2 SUB SWAP1 RETURN JUMPDEST PUSH1 0x0 PUSH2 0x142 JUMPI PUSH1 0x40 MLOAD PUSH32 0x8C379A000000000000000000000000000000000000000000000000000000000 DUP2 MSTORE PUSH1 0x4 ADD PUSH2 0x139 SWAP1 PUSH2 0x74E JUMP JUMPDEST PUSH1 0x40 MLOAD DUP1 SWAP2 SUB SWAP1 REVERT JUMPDEST DUP1 PUSH1 0x0 DUP1 CALLER PUSH20 0xFFFFFFFFFFFFFFFFFFFFFFFFFFFFFFFFFFFFFFFF AND PUSH20 0xFFFFFFFFFFFFFFFFFFFFFFFFFFFFFFFFFFFFFFFF AND DUP2 MSTORE PUSH1 0x20 ADD SWAP1 DUP2 MSTORE PUSH1 0x20 ADD PUSH1 0x0 KECCAK256 SWAP1 DUP1 MLOAD SWAP1 PUSH1 0x20 ADD SWAP1 PUSH2 0x194 SWAP3 SWAP2 SWAP1 PUSH2 0x435 JUMP JUMPDEST POP POP JUMP JUMPDEST PUSH1 0x0 PUSH1 0x60 PUSH1 0x0 PUSH1 0x2 PUSH1 0x1 GT PUSH2 0x1E2 JUMPI PUSH1 0x40 MLOAD PUSH32 0x8C379A000000000000000000000000000000000000000000000000000000000 DUP2 MSTORE PUSH1 0x4 ADD PUSH2 0x1D9 SWAP1 PUSH2 0x76E JUMP JUMPDEST PUSH1 0x40 MLOAD DUP1 SWAP2 SUB SWAP1 REVERT JUMPDEST PUSH1 0x2 PUSH1 0x0 DUP2 SLOAD DUP1 SWAP3 SWAP2 SWAP1 PUSH2 0x1F5 SWAP1 PUSH2 0x91F JUMP JUMPDEST SWAP2 SWAP1 POP SSTORE POP PUSH1 0x40 MLOAD DUP1 PUSH1 0x60 ADD PUSH1 0x40 MSTORE DUP1 DUP7 DUP2 MSTORE PUSH1 0x20 ADD DUP6 DUP2 MSTORE PUSH1 0x20 ADD CALLER PUSH20 0xFFFFFFFFFFFFFFFFFFFFFFFFFFFFFFFFFFFFFFFF AND DUP2 MSTORE POP PUSH1 0x1 PUSH1 0x0 PUSH1 0x2 SLOAD DUP2 MSTORE PUSH1 0x20 ADD SWAP1 DUP2 MSTORE PUSH1 0x20 ADD PUSH1 0x0 KECCAK256 PUSH1 0x0 DUP3 ADD MLOAD DUP2 PUSH1 0x0 ADD SWAP1 DUP1 MLOAD SWAP1 PUSH1 0x20 ADD SWAP1 PUSH2 0x25C SWAP3 SWAP2 SWAP1 PUSH2 0x435 JUMP JUMPDEST POP PUSH1 0x20 DUP3 ADD MLOAD DUP2 PUSH1 0x1 ADD SSTORE PUSH1 0x40 DUP3 ADD MLOAD DUP2 PUSH1 0x2 ADD PUSH1 0x0 PUSH2 0x100 EXP DUP2 SLOAD DUP2 PUSH20 0xFFFFFFFFFFFFFFFFFFFFFFFFFFFFFFFFFFFFFFFF MUL NOT AND SWAP1 DUP4 PUSH20 0xFFFFFFFFFFFFFFFFFFFFFFFFFFFFFFFFFFFFFFFF AND MUL OR SWAP1 SSTORE POP SWAP1 POP POP PUSH1 0x2 SLOAD DUP6 DUP6 SWAP3 POP SWAP3 POP SWAP3 POP SWAP3 POP SWAP3 POP SWAP3 JUMP JUMPDEST PUSH1 0x1 PUSH1 0x20 MSTORE DUP1 PUSH1 0x0 MSTORE PUSH1 0x40 PUSH1 0x0 KECCAK256 PUSH1 0x0 SWAP2 POP SWAP1 POP DUP1 PUSH1 0x0 ADD DUP1 SLOAD PUSH2 0x2E6 SWAP1 PUSH2 0x8BC JUMP JUMPDEST DUP1 PUSH1 0x1F ADD PUSH1 0x20 DUP1 SWAP2 DIV MUL PUSH1 0x20 ADD PUSH1 0x40 MLOAD SWAP1 DUP2 ADD PUSH1 0x40 MSTORE DUP1 SWAP3 SWAP2 SWAP1 DUP2 DUP2 MSTORE PUSH1 0x20 ADD DUP3 DUP1 SLOAD PUSH2 0x312 SWAP1 PUSH2 0x8BC JUMP JUMPDEST DUP1 ISZERO PUSH2 0x35F JUMPI DUP1 PUSH1 0x1F LT PUSH2 0x334 JUMPI PUSH2 0x100 DUP1 DUP4 SLOAD DIV MUL DUP4 MSTORE SWAP2 PUSH1 0x20 ADD SWAP2 PUSH2 0x35F JUMP JUMPDEST DUP3 ADD SWAP2 SWAP1 PUSH1 0x0 MSTORE PUSH1 0x20 PUSH1 0x0 KECCAK256 SWAP1 JUMPDEST DUP2 SLOAD DUP2 MSTORE SWAP1 PUSH1 0x1 ADD SWAP1 PUSH1 0x20 ADD DUP1 DUP4 GT PUSH2 0x342 JUMPI DUP3 SWAP1 SUB PUSH1 0x1F AND DUP3 ADD SWAP2 JUMPDEST POP POP POP POP POP SWAP1 DUP1 PUSH1 0x1 ADD SLOAD SWAP1 DUP1 PUSH1 0x2 ADD PUSH1 0x0 SWAP1 SLOAD SWAP1 PUSH2 0x100 EXP SWAP1 DIV PUSH20 0xFFFFFFFFFFFFFFFFFFFFFFFFFFFFFFFFFFFFFFFF AND SWAP1 POP DUP4 JUMP JUMPDEST PUSH1 0x0 PUSH1 0x20 MSTORE DUP1 PUSH1 0x0 MSTORE PUSH1 0x40 PUSH1 0x0 KECCAK256 PUSH1 0x0 SWAP2 POP SWAP1 POP DUP1 SLOAD PUSH2 0x3B4 SWAP1 PUSH2 0x8BC JUMP JUMPDEST DUP1 PUSH1 0x1F ADD PUSH1 0x20 DUP1 SWAP2 DIV MUL PUSH1 0x20 ADD PUSH1 0x40 MLOAD SWAP1 DUP2 ADD PUSH1 0x40 MSTORE DUP1 SWAP3 SWAP2 SWAP1 DUP2 DUP2 MSTORE PUSH1 0x20 ADD DUP3 DUP1 SLOAD PUSH2 0x3E0 SWAP1 PUSH2 0x8BC JUMP JUMPDEST DUP1 ISZERO PUSH2 0x42D JUMPI DUP1 PUSH1 0x1F LT PUSH2 0x402 JUMPI PUSH2 0x100 DUP1 DUP4 SLOAD DIV MUL DUP4 MSTORE SWAP2 PUSH1 0x20 ADD SWAP2 PUSH2 0x42D JUMP JUMPDEST DUP3 ADD SWAP2 SWAP1 PUSH1 0x0 MSTORE PUSH1 0x20 PUSH1 0x0 KECCAK256 SWAP1 JUMPDEST DUP2 SLOAD DUP2 MSTORE SWAP1 PUSH1 0x1 ADD SWAP1 PUSH1 0x20 ADD DUP1 DUP4 GT PUSH2 0x410 JUMPI DUP3 SWAP1 SUB PUSH1 0x1F AND DUP3 ADD SWAP2 JUMPDEST POP POP POP POP POP DUP2 JUMP JUMPDEST DUP3 DUP1 SLOAD PUSH2 0x441 SWAP1 PUSH2 0x8BC JUMP JUMPDEST SWAP1 PUSH1 0x0 MSTORE PUSH1 0x20 PUSH1 0x0 KECCAK256 SWAP1 PUSH1 0x1F ADD PUSH1 0x20 SWAP1 DIV DUP2 ADD SWAP3 DUP3 PUSH2 0x463 JUMPI PUSH1 0x0 DUP6 SSTORE PUSH2 0x4AA JUMP JUMPDEST DUP3 PUSH1 0x1F LT PUSH2 0x47C JUMPI DUP1 MLOAD PUSH1 0xFF NOT AND DUP4 DUP1 ADD OR DUP6 SSTORE PUSH2 0x4AA JUMP JUMPDEST DUP3 DUP1 ADD PUSH1 0x1 ADD DUP6 SSTORE DUP3 ISZERO PUSH2 0x4AA JUMPI SWAP2 DUP3 ADD JUMPDEST DUP3 DUP2 GT ISZERO PUSH2 0x4A9 JUMPI DUP3 MLOAD DUP3 SSTORE SWAP2 PUSH1 0x20 ADD SWAP2 SWAP1 PUSH1 0x1 ADD SWAP1 PUSH2 0x48E JUMP JUMPDEST JUMPDEST POP SWAP1 POP PUSH2 0x4B7 SWAP2 SWAP1 PUSH2 0x4BB JUMP JUMPDEST POP SWAP1 JUMP JUMPDEST JUMPDEST DUP1 DUP3 GT ISZERO PUSH2 0x4D4 JUMPI PUSH1 0x0 DUP2 PUSH1 0x0 SWAP1 SSTORE POP PUSH1 0x1 ADD PUSH2 0x4BC JUMP JUMPDEST POP SWAP1 JUMP JUMPDEST PUSH1 0x0 PUSH2 0x4EB PUSH2 0x4E6 DUP5 PUSH2 0x7F1 JUMP JUMPDEST PUSH2 0x7CC JUMP JUMPDEST SWAP1 POP DUP3 DUP2 MSTORE PUSH1 0x20 DUP2 ADD DUP5 DUP5 DUP5 ADD GT ISZERO PUSH2 0x503 JUMPI PUSH1 0x0 DUP1 REVERT JUMPDEST PUSH2 0x50E DUP5 DUP3 DUP6 PUSH2 0x87A JUMP JUMPDEST POP SWAP4 SWAP3 POP POP POP JUMP JUMPDEST PUSH1 0x0 DUP2 CALLDATALOAD SWAP1 POP PUSH2 0x525 DUP2 PUSH2 0xA58 JUMP JUMPDEST SWAP3 SWAP2 POP POP JUMP JUMPDEST PUSH1 0x0 DUP3 PUSH1 0x1F DUP4 ADD SLT PUSH2 0x53C JUMPI PUSH1 0x0 DUP1 REVERT JUMPDEST DUP2 CALLDATALOAD PUSH2 0x54C DUP5 DUP3 PUSH1 0x20 DUP7 ADD PUSH2 0x4D8 JUMP JUMPDEST SWAP2 POP POP SWAP3 SWAP2 POP POP JUMP JUMPDEST PUSH1 0x0 DUP2 CALLDATALOAD SWAP1 POP PUSH2 0x564 DUP2 PUSH2 0xA6F JUMP JUMPDEST SWAP3 SWAP2 POP POP JUMP JUMPDEST PUSH1 0x0 PUSH1 0x20 DUP3 DUP5 SUB SLT ISZERO PUSH2 0x57C JUMPI PUSH1 0x0 DUP1 REVERT JUMPDEST PUSH1 0x0 PUSH2 0x58A DUP5 DUP3 DUP6 ADD PUSH2 0x516 JUMP JUMPDEST SWAP2 POP POP SWAP3 SWAP2 POP POP JUMP JUMPDEST PUSH1 0x0 PUSH1 0x20 DUP3 DUP5 SUB SLT ISZERO PUSH2 0x5A5 JUMPI PUSH1 0x0 DUP1 REVERT JUMPDEST PUSH1 0x0 DUP3 ADD CALLDATALOAD PUSH8 0xFFFFFFFFFFFFFFFF DUP2 GT ISZERO PUSH2 0x5BF JUMPI PUSH1 0x0 DUP1 REVERT JUMPDEST PUSH2 0x5CB DUP5 DUP3 DUP6 ADD PUSH2 0x52B JUMP JUMPDEST SWAP2 POP POP SWAP3 SWAP2 POP POP JUMP JUMPDEST PUSH1 0x0 DUP1 PUSH1 0x40 DUP4 DUP6 SUB SLT ISZERO PUSH2 0x5E7 JUMPI PUSH1 0x0 DUP1 REVERT JUMPDEST PUSH1 0x0 DUP4 ADD CALLDATALOAD PUSH8 0xFFFFFFFFFFFFFFFF DUP2 GT ISZERO PUSH2 0x601 JUMPI PUSH1 0x0 DUP1 REVERT JUMPDEST PUSH2 0x60D DUP6 DUP3 DUP7 ADD PUSH2 0x52B JUMP JUMPDEST SWAP3 POP POP PUSH1 0x20 PUSH2 0x61E DUP6 DUP3 DUP7 ADD PUSH2 0x555 JUMP JUMPDEST SWAP2 POP POP SWAP3 POP SWAP3 SWAP1 POP JUMP JUMPDEST PUSH1 0x0 PUSH1 0x20 DUP3 DUP5 SUB SLT ISZERO PUSH2 0x63A JUMPI PUSH1 0x0 DUP1 REVERT JUMPDEST PUSH1 0x0 PUSH2 0x648 DUP5 DUP3 DUP6 ADD PUSH2 0x555 JUMP JUMPDEST SWAP2 POP POP SWAP3 SWAP2 POP POP JUMP JUMPDEST PUSH2 0x65A DUP2 PUSH2 0x83E JUMP JUMPDEST DUP3 MSTORE POP POP JUMP JUMPDEST PUSH1 0x0 PUSH2 0x66B DUP3 PUSH2 0x822 JUMP JUMPDEST PUSH2 0x675 DUP2 DUP6 PUSH2 0x82D JUMP JUMPDEST SWAP4 POP PUSH2 0x685 DUP2 DUP6 PUSH1 0x20 DUP7 ADD PUSH2 0x889 JUMP JUMPDEST PUSH2 0x68E DUP2 PUSH2 0x9F5 JUMP JUMPDEST DUP5 ADD SWAP2 POP POP SWAP3 SWAP2 POP POP JUMP JUMPDEST PUSH1 0x0 PUSH2 0x6A6 PUSH1 0x2 DUP4 PUSH2 0x82D JUMP JUMPDEST SWAP2 POP PUSH2 0x6B1 DUP3 PUSH2 0xA06 JUMP JUMPDEST PUSH1 0x20 DUP3 ADD SWAP1 POP SWAP2 SWAP1 POP JUMP JUMPDEST PUSH1 0x0 PUSH2 0x6C9 PUSH1 0xA DUP4 PUSH2 0x82D JUMP JUMPDEST SWAP2 POP PUSH2 0x6D4 DUP3 PUSH2 0xA2F JUMP JUMPDEST PUSH1 0x20 DUP3 ADD SWAP1 POP SWAP2 SWAP1 POP JUMP JUMPDEST PUSH2 0x6E8 DUP2 PUSH2 0x870 JUMP JUMPDEST DUP3 MSTORE POP POP JUMP JUMPDEST PUSH1 0x0 PUSH1 0x20 DUP3 ADD SWAP1 POP DUP2 DUP2 SUB PUSH1 0x0 DUP4 ADD MSTORE PUSH2 0x708 DUP2 DUP5 PUSH2 0x660 JUMP JUMPDEST SWAP1 POP SWAP3 SWAP2 POP POP JUMP JUMPDEST PUSH1 0x0 PUSH1 0x60 DUP3 ADD SWAP1 POP DUP2 DUP2 SUB PUSH1 0x0 DUP4 ADD MSTORE PUSH2 0x72A DUP2 DUP7 PUSH2 0x660 JUMP JUMPDEST SWAP1 POP PUSH2 0x739 PUSH1 0x20 DUP4 ADD DUP6 PUSH2 0x6DF JUMP JUMPDEST PUSH2 0x746 PUSH1 0x40 DUP4 ADD DUP5 PUSH2 0x651 JUMP JUMPDEST SWAP5 SWAP4 POP POP POP POP JUMP JUMPDEST PUSH1 0x0 PUSH1 0x20 DUP3 ADD SWAP1 POP DUP2 DUP2 SUB PUSH1 0x0 DUP4 ADD MSTORE PUSH2 0x767 DUP2 PUSH2 0x699 JUMP JUMPDEST SWAP1 POP SWAP2 SWAP1 POP JUMP JUMPDEST PUSH1 0x0 PUSH1 0x20 DUP3 ADD SWAP1 POP DUP2 DUP2 SUB PUSH1 0x0 DUP4 ADD MSTORE PUSH2 0x787 DUP2 PUSH2 0x6BC JUMP JUMPDEST SWAP1 POP SWAP2 SWAP1 POP JUMP JUMPDEST PUSH1 0x0 PUSH1 0x60 DUP3 ADD SWAP1 POP PUSH2 0x7A3 PUSH1 0x0 DUP4 ADD DUP7 PUSH2 0x6DF JUMP JUMPDEST DUP2 DUP2 SUB PUSH1 0x20 DUP4 ADD MSTORE PUSH2 0x7B5 DUP2 DUP6 PUSH2 0x660 JUMP JUMPDEST SWAP1 POP PUSH2 0x7C4 PUSH1 0x40 DUP4 ADD DUP5 PUSH2 0x6DF JUMP JUMPDEST SWAP5 SWAP4 POP POP POP POP JUMP JUMPDEST PUSH1 0x0 PUSH2 0x7D6 PUSH2 0x7E7 JUMP JUMPDEST SWAP1 POP PUSH2 0x7E2 DUP3 DUP3 PUSH2 0x8EE JUMP JUMPDEST SWAP2 SWAP1 POP JUMP JUMPDEST PUSH1 0x0 PUSH1 0x40 MLOAD SWAP1 POP SWAP1 JUMP JUMPDEST PUSH1 0x0 PUSH8 0xFFFFFFFFFFFFFFFF DUP3 GT ISZERO PUSH2 0x80C JUMPI PUSH2 0x80B PUSH2 0x9C6 JUMP JUMPDEST JUMPDEST PUSH2 0x815 DUP3 PUSH2 0x9F5 JUMP JUMPDEST SWAP1 POP PUSH1 0x20 DUP2 ADD SWAP1 POP SWAP2 SWAP1 POP JUMP JUMPDEST PUSH1 0x0 DUP2 MLOAD SWAP1 POP SWAP2 SWAP1 POP JUMP JUMPDEST PUSH1 0x0 DUP3 DUP3 MSTORE PUSH1 0x20 DUP3 ADD SWAP1 POP SWAP3 SWAP2 POP POP JUMP JUMPDEST PUSH1 0x0 PUSH2 0x849 DUP3 PUSH2 0x850 JUMP JUMPDEST SWAP1 POP SWAP2 SWAP1 POP JUMP JUMPDEST PUSH1 0x0 PUSH20 0xFFFFFFFFFFFFFFFFFFFFFFFFFFFFFFFFFFFFFFFF DUP3 AND SWAP1 POP SWAP2 SWAP1 POP JUMP JUMPDEST PUSH1 0x0 DUP2 SWAP1 POP SWAP2 SWAP1 POP JUMP JUMPDEST DUP3 DUP2 DUP4 CALLDATACOPY PUSH1 0x0 DUP4 DUP4 ADD MSTORE POP POP POP JUMP JUMPDEST PUSH1 0x0 JUMPDEST DUP4 DUP2 LT ISZERO PUSH2 0x8A7 JUMPI DUP1 DUP3 ADD MLOAD DUP2 DUP5 ADD MSTORE PUSH1 0x20 DUP2 ADD SWAP1 POP PUSH2 0x88C JUMP JUMPDEST DUP4 DUP2 GT ISZERO PUSH2 0x8B6 JUMPI PUSH1 0x0 DUP5 DUP5 ADD MSTORE JUMPDEST POP POP POP POP JUMP JUMPDEST PUSH1 0x0 PUSH1 0x2 DUP3 DIV SWAP1 POP PUSH1 0x1 DUP3 AND DUP1 PUSH2 0x8D4 JUMPI PUSH1 0x7F DUP3 AND SWAP2 POP JUMPDEST PUSH1 0x20 DUP3 LT DUP2 EQ ISZERO PUSH2 0x8E8 JUMPI PUSH2 0x8E7 PUSH2 0x997 JUMP JUMPDEST JUMPDEST POP SWAP2 SWAP1 POP JUMP JUMPDEST PUSH2 0x8F7 DUP3 PUSH2 0x9F5 JUMP JUMPDEST DUP2 ADD DUP2 DUP2 LT PUSH8 0xFFFFFFFFFFFFFFFF DUP3 GT OR ISZERO PUSH2 0x916 JUMPI PUSH2 0x915 PUSH2 0x9C6 JUMP JUMPDEST JUMPDEST DUP1 PUSH1 0x40 MSTORE POP POP POP JUMP JUMPDEST PUSH1 0x0 PUSH2 0x92A DUP3 PUSH2 0x870 JUMP JUMPDEST SWAP2 POP PUSH32 0xFFFFFFFFFFFFFFFFFFFFFFFFFFFFFFFFFFFFFFFFFFFFFFFFFFFFFFFFFFFFFFFF DUP3 EQ ISZERO PUSH2 0x95D JUMPI PUSH2 0x95C PUSH2 0x968 JUMP JUMPDEST JUMPDEST PUSH1 0x1 DUP3 ADD SWAP1 POP SWAP2 SWAP1 POP JUMP JUMPDEST PUSH32 0x4E487B7100000000000000000000000000000000000000000000000000000000 PUSH1 0x0 MSTORE PUSH1 0x11 PUSH1 0x4 MSTORE PUSH1 0x24 PUSH1 0x0 REVERT JUMPDEST PUSH32 0x4E487B7100000000000000000000000000000000000000000000000000000000 PUSH1 0x0 MSTORE PUSH1 0x22 PUSH1 0x4 MSTORE PUSH1 0x24 PUSH1 0x0 REVERT JUMPDEST PUSH32 0x4E487B7100000000000000000000000000000000000000000000000000000000 PUSH1 0x0 MSTORE PUSH1 0x41 PUSH1 0x4 MSTORE PUSH1 0x24 PUSH1 0x0 REVERT JUMPDEST PUSH1 0x0 PUSH1 0x1F NOT PUSH1 0x1F DUP4 ADD AND SWAP1 POP SWAP2 SWAP1 POP JUMP JUMPDEST PUSH32 0x7573000000000000000000000000000000000000000000000000000000000000 PUSH1 0x0 DUP3 ADD MSTORE POP JUMP JUMPDEST PUSH32 0x68692068656C6F6F772000000000000000000000000000000000000000000000 PUSH1 0x0 DUP3 ADD MSTORE POP JUMP JUMPDEST PUSH2 0xA61 DUP2 PUSH2 0x83E JUMP JUMPDEST DUP2 EQ PUSH2 0xA6C JUMPI PUSH1 0x0 DUP1 REVERT JUMPDEST POP JUMP JUMPDEST PUSH2 0xA78 DUP2 PUSH2 0x870 JUMP JUMPDEST DUP2 EQ PUSH2 0xA83 JUMPI PUSH1 0x0 DUP1 REVERT JUMPDEST POP JUMP INVALID LOG2 PUSH5 0x6970667358 0x22 SLT KECCAK256 EXP 0xCC STOP PUSH14 0xA8B33F38AD112A4F5E45237C9CAB CALLCODE MLOAD EXTCODECOPY PUSH17 0x9492F64F6F0BD02DC36B64736F6C634300 ADDMOD ADD STOP CALLER "
				},
				"gasEstimates": {
					"creation": {
						"codeDepositCost": "549600",
						"executionCost": "5587",
						"totalCost": "555187"
					},
					"external": {
						"Assets(uint256)": "infinite",
						"Users(address)": "infinite",
						"addAsset(string,uint256)": "infinite",
						"addUser(string)": "infinite"
					}
				},
				"methodIdentifiers": {
					"Assets(uint256)": "4b4a80ba",
					"Users(address)": "99b956a0",
					"addAsset(string,uint256)": "1bc7ffe9",
					"addUser(string)": "18b8275a"
				}
			},
			"storageLayout": {
				"storage": [
					{
						"astId": 12,
						"contract": "Auction.sol:Auction",
						"label": "Users",
						"offset": 0,
						"slot": "0",
						"type": "t_mapping(t_address,t_string_storage)"
					},
					{
						"astId": 17,
						"contract": "Auction.sol:Auction",
						"label": "Assets",
						"offset": 0,
						"slot": "1",
						"type": "t_mapping(t_uint256,t_struct(Asset)8_storage)"
					},
					{
						"astId": 38,
						"contract": "Auction.sol:Auction",
						"label": "Id",
						"offset": 0,
						"slot": "2",
						"type": "t_uint256"
					}
				],
				"types": {
					"t_address": {
						"encoding": "inplace",
						"label": "address",
						"numberOfBytes": "20"
					},
					"t_mapping(t_address,t_string_storage)": {
						"encoding": "mapping",
						"key": "t_address",
						"label": "mapping(address => string)",
						"numberOfBytes": "32",
						"value": "t_string_storage"
					},
					"t_mapping(t_uint256,t_struct(Asset)8_storage)": {
						"encoding": "mapping",
						"key": "t_uint256",
						"label": "mapping(uint256 => struct Auction.Asset)",
						"numberOfBytes": "32",
						"value": "t_struct(Asset)8_storage"
					},
					"t_string_storage": {
						"encoding": "bytes",
						"label": "string",
						"numberOfBytes": "32"
					},
					"t_struct(Asset)8_storage": {
						"encoding": "inplace",
						"label": "struct Auction.Asset",
						"members": [
							{
								"astId": 3,
								"contract": "Auction.sol:Auction",
								"label": "AssetName",
								"offset": 0,
								"slot": "0",
								"type": "t_string_storage"
							},
							{
								"astId": 5,
								"contract": "Auction.sol:Auction",
								"label": "AssetSP",
								"offset": 0,
								"slot": "1",
								"type": "t_uint256"
							},
							{
								"astId": 7,
								"contract": "Auction.sol:Auction",
								"label": "Owner",
								"offset": 0,
								"slot": "2",
								"type": "t_address"
							}
						],
						"numberOfBytes": "96"
					},
					"t_uint256": {
						"encoding": "inplace",
						"label": "uint256",
						"numberOfBytes": "32"
					}
				}
			},
			"userdoc": {
				"kind": "user",
				"methods": {},
				"version": 1
			}
		}
	}
}