{
	"Auction.sol": {
		"Auction": {
			"abi": [
				{
					"inputs": [
						{
							"internalType": "uint256",
							"name": "",
							"type": "uint256"
						}
					],
					"name": "Assets",
					"outputs": [
						{
							"internalType": "string",
							"name": "AssetName",
							"type": "string"
						},
						{
							"internalType": "uint256",
							"name": "AssetSP",
							"type": "uint256"
						},
						{
							"internalType": "address",
							"name": "Owner",
							"type": "address"
						}
					],
					"stateMutability": "view",
					"type": "function"
				},
				{
					"inputs": [
						{
							"internalType": "uint256",
							"name": "",
							"type": "uint256"
						},
						{
							"internalType": "uint256",
							"name": "",
							"type": "uint256"
						}
					],
					"name": "AuctDetails",
					"outputs": [
						{
							"internalType": "uint256",
							"name": "bidPrice",
							"type": "uint256"
						},
						{
							"internalType": "address",
							"name": "bidderId",
							"type": "address"
						}
					],
					"stateMutability": "view",
					"type": "function"
				},
				{
					"inputs": [
						{
							"internalType": "uint256",
							"name": "AssetId",
							"type": "uint256"
						},
						{
							"internalType": "address",
							"name": "bidderId",
							"type": "address"
						},
						{
							"internalType": "uint256",
							"name": "bidPrice",
							"type": "uint256"
						}
					],
					"name": "Bidding",
					"outputs": [],
					"stateMutability": "nonpayable",
					"type": "function"
				},
				{
					"inputs": [
						{
							"internalType": "uint256",
							"name": "ID",
							"type": "uint256"
						}
					],
					"name": "Result",
					"outputs": [],
					"stateMutability": "nonpayable",
					"type": "function"
				},
				{
					"inputs": [
						{
							"internalType": "address",
							"name": "",
							"type": "address"
						}
					],
					"name": "Users",
					"outputs": [
						{
							"internalType": "string",
							"name": "",
							"type": "string"
						}
					],
					"stateMutability": "view",
					"type": "function"
				},
				{
					"inputs": [
						{
							"internalType": "string",
							"name": "Name",
							"type": "string"
						},
						{
							"internalType": "uint256",
							"name": "Price",
							"type": "uint256"
						}
					],
					"name": "addAsset",
					"outputs": [
						{
							"internalType": "uint256",
							"name": "",
							"type": "uint256"
						},
						{
							"internalType": "string",
							"name": "",
							"type": "string"
						},
						{
							"internalType": "uint256",
							"name": "",
							"type": "uint256"
						}
					],
					"stateMutability": "nonpayable",
					"type": "function"
				},
				{
					"inputs": [
						{
							"internalType": "string",
							"name": "Name",
							"type": "string"
						}
					],
					"name": "addUser",
					"outputs": [],
					"stateMutability": "nonpayable",
					"type": "function"
				}
			],
			"devdoc": {
				"kind": "dev",
				"methods": {},
				"version": 1
			},
			"evm": {
				"assembly": "    /* \"Auction.sol\":66:1174  contract Auction {... */\n  mstore(0x40, 0x80)\n    /* \"Auction.sol\":535:536  0 */\n  0x00\n    /* \"Auction.sol\":525:536  uint Id = 0 */\n  0x03\n  sstore\n    /* \"Auction.sol\":66:1174  contract Auction {... */\n  callvalue\n  dup1\n  iszero\n  tag_1\n  jumpi\n  0x00\n  dup1\n  revert\ntag_1:\n  pop\n  dataSize(sub_0)\n  dup1\n  dataOffset(sub_0)\n  0x00\n  codecopy\n  0x00\n  return\nstop\n\nsub_0: assembly {\n        /* \"Auction.sol\":66:1174  contract Auction {... */\n      mstore(0x40, 0x80)\n      callvalue\n      dup1\n      iszero\n      tag_1\n      jumpi\n      0x00\n      dup1\n      revert\n    tag_1:\n      pop\n      jumpi(tag_2, lt(calldatasize, 0x04))\n      shr(0xe0, calldataload(0x00))\n      dup1\n      0x2b9af503\n      gt\n      tag_10\n      jumpi\n      dup1\n      0x2b9af503\n      eq\n      tag_6\n      jumpi\n      dup1\n      0x4b4a80ba\n      eq\n      tag_7\n      jumpi\n      dup1\n      0x99b956a0\n      eq\n      tag_8\n      jumpi\n      dup1\n      0xa9bb0fa1\n      eq\n      tag_9\n      jumpi\n      jump(tag_2)\n    tag_10:\n      dup1\n      0x18b8275a\n      eq\n      tag_3\n      jumpi\n      dup1\n      0x1bc7ffe9\n      eq\n      tag_4\n      jumpi\n      dup1\n      0x25503b4f\n      eq\n      tag_5\n      jumpi\n    tag_2:\n      0x00\n      dup1\n      revert\n        /* \"Auction.sol\":430:517  function addUser(string memory Name) public {... */\n    tag_3:\n      tag_11\n      0x04\n      dup1\n      calldatasize\n      sub\n      dup2\n      add\n      swap1\n      tag_12\n      swap2\n      swap1\n      tag_13\n      jump\t// in\n    tag_12:\n      tag_14\n      jump\t// in\n    tag_11:\n      stop\n        /* \"Auction.sol\":543:748  function addAsset(string memory Name, uint Price) public returns (uint, string memory, uint) {... */\n    tag_4:\n      tag_15\n      0x04\n      dup1\n      calldatasize\n      sub\n      dup2\n      add\n      swap1\n      tag_16\n      swap2\n      swap1\n      tag_17\n      jump\t// in\n    tag_16:\n      tag_18\n      jump\t// in\n    tag_15:\n      mload(0x40)\n      tag_19\n      swap4\n      swap3\n      swap2\n      swap1\n      tag_20\n      jump\t// in\n    tag_19:\n      mload(0x40)\n      dup1\n      swap2\n      sub\n      swap1\n      return\n        /* \"Auction.sol\":768:915  function Bidding(uint AssetId, address bidderId, uint bidPrice) public {... */\n    tag_5:\n      tag_21\n      0x04\n      dup1\n      calldatasize\n      sub\n      dup2\n      add\n      swap1\n      tag_22\n      swap2\n      swap1\n      tag_23\n      jump\t// in\n    tag_22:\n      tag_24\n      jump\t// in\n    tag_21:\n      stop\n        /* \"Auction.sol\":367:415  mapping(uint => AuctDetail[]) public AuctDetails */\n    tag_6:\n      tag_25\n      0x04\n      dup1\n      calldatasize\n      sub\n      dup2\n      add\n      swap1\n      tag_26\n      swap2\n      swap1\n      tag_27\n      jump\t// in\n    tag_26:\n      tag_28\n      jump\t// in\n    tag_25:\n      mload(0x40)\n      tag_29\n      swap3\n      swap2\n      swap1\n      tag_30\n      jump\t// in\n    tag_29:\n      mload(0x40)\n      dup1\n      swap2\n      sub\n      swap1\n      return\n        /* \"Auction.sol\":324:360  mapping(uint => Asset) public Assets */\n    tag_7:\n      tag_31\n      0x04\n      dup1\n      calldatasize\n      sub\n      dup2\n      add\n      swap1\n      tag_32\n      swap2\n      swap1\n      tag_33\n      jump\t// in\n    tag_32:\n      tag_34\n      jump\t// in\n    tag_31:\n      mload(0x40)\n      tag_35\n      swap4\n      swap3\n      swap2\n      swap1\n      tag_36\n      jump\t// in\n    tag_35:\n      mload(0x40)\n      dup1\n      swap2\n      sub\n      swap1\n      return\n        /* \"Auction.sol\":278:317  mapping(address => string) public Users */\n    tag_8:\n      tag_37\n      0x04\n      dup1\n      calldatasize\n      sub\n      dup2\n      add\n      swap1\n      tag_38\n      swap2\n      swap1\n      tag_39\n      jump\t// in\n    tag_38:\n      tag_40\n      jump\t// in\n    tag_37:\n      mload(0x40)\n      tag_41\n      swap2\n      swap1\n      tag_42\n      jump\t// in\n    tag_41:\n      mload(0x40)\n      dup1\n      swap2\n      sub\n      swap1\n      return\n        /* \"Auction.sol\":923:1171  function Result(uint ID) public {... */\n    tag_9:\n      tag_43\n      0x04\n      dup1\n      calldatasize\n      sub\n      dup2\n      add\n      swap1\n      tag_44\n      swap2\n      swap1\n      tag_33\n      jump\t// in\n    tag_44:\n      tag_45\n      jump\t// in\n    tag_43:\n      stop\n        /* \"Auction.sol\":430:517  function addUser(string memory Name) public {... */\n    tag_14:\n        /* \"Auction.sol\":505:509  Name */\n      dup1\n        /* \"Auction.sol\":485:490  Users */\n      0x00\n        /* \"Auction.sol\":485:502  Users[msg.sender] */\n      dup1\n        /* \"Auction.sol\":491:501  msg.sender */\n      caller\n        /* \"Auction.sol\":485:502  Users[msg.sender] */\n      0xffffffffffffffffffffffffffffffffffffffff\n      and\n      0xffffffffffffffffffffffffffffffffffffffff\n      and\n      dup2\n      mstore\n      0x20\n      add\n      swap1\n      dup2\n      mstore\n      0x20\n      add\n      0x00\n      keccak256\n        /* \"Auction.sol\":485:509  Users[msg.sender] = Name */\n      swap1\n      dup2\n      tag_47\n      swap2\n      swap1\n      tag_48\n      jump\t// in\n    tag_47:\n      pop\n        /* \"Auction.sol\":430:517  function addUser(string memory Name) public {... */\n      pop\n      jump\t// out\n        /* \"Auction.sol\":543:748  function addAsset(string memory Name, uint Price) public returns (uint, string memory, uint) {... */\n    tag_18:\n        /* \"Auction.sol\":609:613  uint */\n      0x00\n        /* \"Auction.sol\":615:628  string memory */\n      0x60\n        /* \"Auction.sol\":630:634  uint */\n      0x00\n        /* \"Auction.sol\":647:649  Id */\n      0x03\n      0x00\n        /* \"Auction.sol\":647:651  Id++ */\n      dup2\n      sload\n      dup1\n      swap3\n      swap2\n      swap1\n      tag_50\n      swap1\n      tag_51\n      jump\t// in\n    tag_50:\n      swap2\n      swap1\n      pop\n      sstore\n      pop\n        /* \"Auction.sol\":675:705  Asset(Name, Price, msg.sender) */\n      mload(0x40)\n      dup1\n      0x60\n      add\n      0x40\n      mstore\n      dup1\n        /* \"Auction.sol\":681:685  Name */\n      dup7\n        /* \"Auction.sol\":675:705  Asset(Name, Price, msg.sender) */\n      dup2\n      mstore\n      0x20\n      add\n        /* \"Auction.sol\":687:692  Price */\n      dup6\n        /* \"Auction.sol\":675:705  Asset(Name, Price, msg.sender) */\n      dup2\n      mstore\n      0x20\n      add\n        /* \"Auction.sol\":694:704  msg.sender */\n      caller\n        /* \"Auction.sol\":675:705  Asset(Name, Price, msg.sender) */\n      0xffffffffffffffffffffffffffffffffffffffff\n      and\n      dup2\n      mstore\n      pop\n        /* \"Auction.sol\":662:668  Assets */\n      0x01\n        /* \"Auction.sol\":662:672  Assets[Id] */\n      0x00\n        /* \"Auction.sol\":669:671  Id */\n      sload(0x03)\n        /* \"Auction.sol\":662:672  Assets[Id] */\n      dup2\n      mstore\n      0x20\n      add\n      swap1\n      dup2\n      mstore\n      0x20\n      add\n      0x00\n      keccak256\n        /* \"Auction.sol\":662:705  Assets[Id] = Asset(Name, Price, msg.sender) */\n      0x00\n      dup3\n      add\n      mload\n      dup2\n      0x00\n      add\n      swap1\n      dup2\n      tag_52\n      swap2\n      swap1\n      tag_48\n      jump\t// in\n    tag_52:\n      pop\n      0x20\n      dup3\n      add\n      mload\n      dup2\n      0x01\n      add\n      sstore\n      0x40\n      dup3\n      add\n      mload\n      dup2\n      0x02\n      add\n      exp(0x0100, 0x00)\n      dup2\n      sload\n      dup2\n      0xffffffffffffffffffffffffffffffffffffffff\n      mul\n      not\n      and\n      swap1\n      dup4\n      0xffffffffffffffffffffffffffffffffffffffff\n      and\n      mul\n      or\n      swap1\n      sstore\n      pop\n      swap1\n      pop\n      pop\n        /* \"Auction.sol\":724:726  Id */\n      sload(0x03)\n        /* \"Auction.sol\":728:732  Name */\n      dup6\n        /* \"Auction.sol\":734:739  Price */\n      dup6\n        /* \"Auction.sol\":716:740  return (Id, Name, Price) */\n      swap3\n      pop\n      swap3\n      pop\n      swap3\n      pop\n        /* \"Auction.sol\":543:748  function addAsset(string memory Name, uint Price) public returns (uint, string memory, uint) {... */\n      swap3\n      pop\n      swap3\n      pop\n      swap3\n      jump\t// out\n        /* \"Auction.sol\":768:915  function Bidding(uint AssetId, address bidderId, uint bidPrice) public {... */\n    tag_24:\n        /* \"Auction.sol\":850:861  AuctDetails */\n      0x02\n        /* \"Auction.sol\":850:870  AuctDetails[AssetId] */\n      0x00\n        /* \"Auction.sol\":862:869  AssetId */\n      dup5\n        /* \"Auction.sol\":850:870  AuctDetails[AssetId] */\n      dup2\n      mstore\n      0x20\n      add\n      swap1\n      dup2\n      mstore\n      0x20\n      add\n      0x00\n      keccak256\n        /* \"Auction.sol\":876:906  AuctDetail(bidPrice, bidderId) */\n      mload(0x40)\n      dup1\n      0x40\n      add\n      0x40\n      mstore\n      dup1\n        /* \"Auction.sol\":887:895  bidPrice */\n      dup4\n        /* \"Auction.sol\":876:906  AuctDetail(bidPrice, bidderId) */\n      dup2\n      mstore\n      0x20\n      add\n        /* \"Auction.sol\":897:905  bidderId */\n      dup5\n        /* \"Auction.sol\":876:906  AuctDetail(bidPrice, bidderId) */\n      0xffffffffffffffffffffffffffffffffffffffff\n      and\n      dup2\n      mstore\n      pop\n        /* \"Auction.sol\":850:907  AuctDetails[AssetId].push(AuctDetail(bidPrice, bidderId)) */\n      swap1\n      dup1\n      0x01\n      dup2\n      sload\n      add\n      dup1\n      dup3\n      sstore\n      dup1\n      swap2\n      pop\n      pop\n      0x01\n      swap1\n      sub\n      swap1\n      0x00\n      mstore\n      keccak256(0x00, 0x20)\n      swap1\n      0x02\n      mul\n      add\n      0x00\n      swap1\n      swap2\n      swap1\n      swap2\n      swap1\n      swap2\n      pop\n      0x00\n      dup3\n      add\n      mload\n      dup2\n      0x00\n      add\n      sstore\n      0x20\n      dup3\n      add\n      mload\n      dup2\n      0x01\n      add\n      exp(0x0100, 0x00)\n      dup2\n      sload\n      dup2\n      0xffffffffffffffffffffffffffffffffffffffff\n      mul\n      not\n      and\n      swap1\n      dup4\n      0xffffffffffffffffffffffffffffffffffffffff\n      and\n      mul\n      or\n      swap1\n      sstore\n      pop\n      pop\n      pop\n        /* \"Auction.sol\":768:915  function Bidding(uint AssetId, address bidderId, uint bidPrice) public {... */\n      pop\n      pop\n      pop\n      jump\t// out\n        /* \"Auction.sol\":367:415  mapping(uint => AuctDetail[]) public AuctDetails */\n    tag_28:\n      mstore(0x20, 0x02)\n      dup2\n      0x00\n      mstore\n      keccak256(0x00, 0x40)\n      dup2\n      dup2\n      sload\n      dup2\n      lt\n      tag_55\n      jumpi\n      0x00\n      dup1\n      revert\n    tag_55:\n      swap1\n      0x00\n      mstore\n      keccak256(0x00, 0x20)\n      swap1\n      0x02\n      mul\n      add\n      0x00\n      swap2\n      pop\n      swap2\n      pop\n      pop\n      dup1\n      0x00\n      add\n      sload\n      swap1\n      dup1\n      0x01\n      add\n      0x00\n      swap1\n      sload\n      swap1\n      0x0100\n      exp\n      swap1\n      div\n      0xffffffffffffffffffffffffffffffffffffffff\n      and\n      swap1\n      pop\n      dup3\n      jump\t// out\n        /* \"Auction.sol\":324:360  mapping(uint => Asset) public Assets */\n    tag_34:\n      mstore(0x20, 0x01)\n      dup1\n      0x00\n      mstore\n      keccak256(0x00, 0x40)\n      0x00\n      swap2\n      pop\n      swap1\n      pop\n      dup1\n      0x00\n      add\n      dup1\n      sload\n      tag_57\n      swap1\n      tag_58\n      jump\t// in\n    tag_57:\n      dup1\n      0x1f\n      add\n      0x20\n      dup1\n      swap2\n      div\n      mul\n      0x20\n      add\n      mload(0x40)\n      swap1\n      dup2\n      add\n      0x40\n      mstore\n      dup1\n      swap3\n      swap2\n      swap1\n      dup2\n      dup2\n      mstore\n      0x20\n      add\n      dup3\n      dup1\n      sload\n      tag_59\n      swap1\n      tag_58\n      jump\t// in\n    tag_59:\n      dup1\n      iszero\n      tag_60\n      jumpi\n      dup1\n      0x1f\n      lt\n      tag_61\n      jumpi\n      0x0100\n      dup1\n      dup4\n      sload\n      div\n      mul\n      dup4\n      mstore\n      swap2\n      0x20\n      add\n      swap2\n      jump(tag_60)\n    tag_61:\n      dup3\n      add\n      swap2\n      swap1\n      0x00\n      mstore\n      keccak256(0x00, 0x20)\n      swap1\n    tag_62:\n      dup2\n      sload\n      dup2\n      mstore\n      swap1\n      0x01\n      add\n      swap1\n      0x20\n      add\n      dup1\n      dup4\n      gt\n      tag_62\n      jumpi\n      dup3\n      swap1\n      sub\n      0x1f\n      and\n      dup3\n      add\n      swap2\n    tag_60:\n      pop\n      pop\n      pop\n      pop\n      pop\n      swap1\n      dup1\n      0x01\n      add\n      sload\n      swap1\n      dup1\n      0x02\n      add\n      0x00\n      swap1\n      sload\n      swap1\n      0x0100\n      exp\n      swap1\n      div\n      0xffffffffffffffffffffffffffffffffffffffff\n      and\n      swap1\n      pop\n      dup4\n      jump\t// out\n        /* \"Auction.sol\":278:317  mapping(address => string) public Users */\n    tag_40:\n      mstore(0x20, 0x00)\n      dup1\n      0x00\n      mstore\n      keccak256(0x00, 0x40)\n      0x00\n      swap2\n      pop\n      swap1\n      pop\n      dup1\n      sload\n      tag_63\n      swap1\n      tag_58\n      jump\t// in\n    tag_63:\n      dup1\n      0x1f\n      add\n      0x20\n      dup1\n      swap2\n      div\n      mul\n      0x20\n      add\n      mload(0x40)\n      swap1\n      dup2\n      add\n      0x40\n      mstore\n      dup1\n      swap3\n      swap2\n      swap1\n      dup2\n      dup2\n      mstore\n      0x20\n      add\n      dup3\n      dup1\n      sload\n      tag_64\n      swap1\n      tag_58\n      jump\t// in\n    tag_64:\n      dup1\n      iszero\n      tag_65\n      jumpi\n      dup1\n      0x1f\n      lt\n      tag_66\n      jumpi\n      0x0100\n      dup1\n      dup4\n      sload\n      div\n      mul\n      dup4\n      mstore\n      swap2\n      0x20\n      add\n      swap2\n      jump(tag_65)\n    tag_66:\n      dup3\n      add\n      swap2\n      swap1\n      0x00\n      mstore\n      keccak256(0x00, 0x20)\n      swap1\n    tag_67:\n      dup2\n      sload\n      dup2\n      mstore\n      swap1\n      0x01\n      add\n      swap1\n      0x20\n      add\n      dup1\n      dup4\n      gt\n      tag_67\n      jumpi\n      dup3\n      swap1\n      sub\n      0x1f\n      and\n      dup3\n      add\n      swap2\n    tag_65:\n      pop\n      pop\n      pop\n      pop\n      pop\n      dup2\n      jump\t// out\n        /* \"Auction.sol\":923:1171  function Result(uint ID) public {... */\n    tag_45:\n        /* \"Auction.sol\":966:974  uint len */\n      0x00\n        /* \"Auction.sol\":977:988  AuctDetails */\n      0x02\n        /* \"Auction.sol\":977:992  AuctDetails[ID] */\n      0x00\n        /* \"Auction.sol\":989:991  ID */\n      dup4\n        /* \"Auction.sol\":977:992  AuctDetails[ID] */\n      dup2\n      mstore\n      0x20\n      add\n      swap1\n      dup2\n      mstore\n      0x20\n      add\n      0x00\n      keccak256\n        /* \"Auction.sol\":977:999  AuctDetails[ID].length */\n      dup1\n      sload\n      swap1\n      pop\n        /* \"Auction.sol\":966:999  uint len = AuctDetails[ID].length */\n      swap1\n      pop\n        /* \"Auction.sol\":1010:1020  uint Price */\n      0x00\n        /* \"Auction.sol\":1023:1034  AuctDetails */\n      0x02\n        /* \"Auction.sol\":1023:1038  AuctDetails[ID] */\n      0x00\n        /* \"Auction.sol\":1035:1037  ID */\n      dup5\n        /* \"Auction.sol\":1023:1038  AuctDetails[ID] */\n      dup2\n      mstore\n      0x20\n      add\n      swap1\n      dup2\n      mstore\n      0x20\n      add\n      0x00\n      keccak256\n        /* \"Auction.sol\":1039:1040  0 */\n      0x00\n        /* \"Auction.sol\":1023:1041  AuctDetails[ID][0] */\n      dup2\n      sload\n      dup2\n      lt\n      tag_69\n      jumpi\n      tag_70\n      tag_71\n      jump\t// in\n    tag_70:\n    tag_69:\n      swap1\n      0x00\n      mstore\n      keccak256(0x00, 0x20)\n      swap1\n      0x02\n      mul\n      add\n        /* \"Auction.sol\":1023:1050  AuctDetails[ID][0].bidPrice */\n      0x00\n      add\n      sload\n        /* \"Auction.sol\":1010:1050  uint Price = AuctDetails[ID][0].bidPrice */\n      swap1\n      pop\n        /* \"Auction.sol\":1065:1071  uint j */\n      0x00\n        /* \"Auction.sol\":1074:1085  AuctDetails */\n      0x02\n        /* \"Auction.sol\":1074:1089  AuctDetails[ID] */\n      0x00\n        /* \"Auction.sol\":1086:1088  ID */\n      dup6\n        /* \"Auction.sol\":1074:1089  AuctDetails[ID] */\n      dup2\n      mstore\n      0x20\n      add\n      swap1\n      dup2\n      mstore\n      0x20\n      add\n      0x00\n      keccak256\n        /* \"Auction.sol\":1090:1091  0 */\n      0x00\n        /* \"Auction.sol\":1074:1092  AuctDetails[ID][0] */\n      dup2\n      sload\n      dup2\n      lt\n      tag_76\n      jumpi\n      tag_77\n      tag_71\n      jump\t// in\n    tag_77:\n    tag_76:\n      swap1\n      0x00\n      mstore\n      keccak256(0x00, 0x20)\n      swap1\n      0x02\n      mul\n      add\n        /* \"Auction.sol\":1074:1101  AuctDetails[ID][0].bidPrice */\n      0x00\n      add\n      sload\n        /* \"Auction.sol\":1065:1101  uint j = AuctDetails[ID][0].bidPrice */\n      swap1\n      pop\n        /* \"Auction.sol\":1061:1160  for(uint j = AuctDetails[ID][0].bidPrice; j <= len; j++) {... */\n    tag_73:\n        /* \"Auction.sol\":1108:1111  len */\n      dup3\n        /* \"Auction.sol\":1103:1104  j */\n      dup2\n        /* \"Auction.sol\":1103:1111  j <= len */\n      gt\n        /* \"Auction.sol\":1061:1160  for(uint j = AuctDetails[ID][0].bidPrice; j <= len; j++) {... */\n      tag_74\n      jumpi\n        /* \"Auction.sol\":1113:1116  j++ */\n      dup1\n      dup1\n      tag_79\n      swap1\n      tag_51\n      jump\t// in\n    tag_79:\n      swap2\n      pop\n      pop\n        /* \"Auction.sol\":1061:1160  for(uint j = AuctDetails[ID][0].bidPrice; j <= len; j++) {... */\n      jump(tag_73)\n    tag_74:\n      pop\n        /* \"Auction.sol\":955:1171  {... */\n      pop\n      pop\n        /* \"Auction.sol\":923:1171  function Result(uint ID) public {... */\n      pop\n      jump\t// out\n        /* \"#utility.yul\":7:82   */\n    tag_80:\n        /* \"#utility.yul\":40:46   */\n      0x00\n        /* \"#utility.yul\":73:75   */\n      0x40\n        /* \"#utility.yul\":67:76   */\n      mload\n        /* \"#utility.yul\":57:76   */\n      swap1\n      pop\n        /* \"#utility.yul\":7:82   */\n      swap1\n      jump\t// out\n        /* \"#utility.yul\":88:205   */\n    tag_81:\n        /* \"#utility.yul\":197:198   */\n      0x00\n        /* \"#utility.yul\":194:195   */\n      dup1\n        /* \"#utility.yul\":187:199   */\n      revert\n        /* \"#utility.yul\":211:328   */\n    tag_82:\n        /* \"#utility.yul\":320:321   */\n      0x00\n        /* \"#utility.yul\":317:318   */\n      dup1\n        /* \"#utility.yul\":310:322   */\n      revert\n        /* \"#utility.yul\":334:451   */\n    tag_83:\n        /* \"#utility.yul\":443:444   */\n      0x00\n        /* \"#utility.yul\":440:441   */\n      dup1\n        /* \"#utility.yul\":433:445   */\n      revert\n        /* \"#utility.yul\":457:574   */\n    tag_84:\n        /* \"#utility.yul\":566:567   */\n      0x00\n        /* \"#utility.yul\":563:564   */\n      dup1\n        /* \"#utility.yul\":556:568   */\n      revert\n        /* \"#utility.yul\":580:682   */\n    tag_85:\n        /* \"#utility.yul\":621:627   */\n      0x00\n        /* \"#utility.yul\":672:674   */\n      0x1f\n        /* \"#utility.yul\":668:675   */\n      not\n        /* \"#utility.yul\":663:665   */\n      0x1f\n        /* \"#utility.yul\":656:661   */\n      dup4\n        /* \"#utility.yul\":652:666   */\n      add\n        /* \"#utility.yul\":648:676   */\n      and\n        /* \"#utility.yul\":638:676   */\n      swap1\n      pop\n        /* \"#utility.yul\":580:682   */\n      swap2\n      swap1\n      pop\n      jump\t// out\n        /* \"#utility.yul\":688:868   */\n    tag_86:\n        /* \"#utility.yul\":736:813   */\n      0x4e487b7100000000000000000000000000000000000000000000000000000000\n        /* \"#utility.yul\":733:734   */\n      0x00\n        /* \"#utility.yul\":726:814   */\n      mstore\n        /* \"#utility.yul\":833:837   */\n      0x41\n        /* \"#utility.yul\":830:831   */\n      0x04\n        /* \"#utility.yul\":823:838   */\n      mstore\n        /* \"#utility.yul\":857:861   */\n      0x24\n        /* \"#utility.yul\":854:855   */\n      0x00\n        /* \"#utility.yul\":847:862   */\n      revert\n        /* \"#utility.yul\":874:1155   */\n    tag_87:\n        /* \"#utility.yul\":957:984   */\n      tag_132\n        /* \"#utility.yul\":979:983   */\n      dup3\n        /* \"#utility.yul\":957:984   */\n      tag_85\n      jump\t// in\n    tag_132:\n        /* \"#utility.yul\":949:955   */\n      dup2\n        /* \"#utility.yul\":945:985   */\n      add\n        /* \"#utility.yul\":1087:1093   */\n      dup2\n        /* \"#utility.yul\":1075:1085   */\n      dup2\n        /* \"#utility.yul\":1072:1094   */\n      lt\n        /* \"#utility.yul\":1051:1069   */\n      0xffffffffffffffff\n        /* \"#utility.yul\":1039:1049   */\n      dup3\n        /* \"#utility.yul\":1036:1070   */\n      gt\n        /* \"#utility.yul\":1033:1095   */\n      or\n        /* \"#utility.yul\":1030:1118   */\n      iszero\n      tag_133\n      jumpi\n        /* \"#utility.yul\":1098:1116   */\n      tag_134\n      tag_86\n      jump\t// in\n    tag_134:\n        /* \"#utility.yul\":1030:1118   */\n    tag_133:\n        /* \"#utility.yul\":1138:1148   */\n      dup1\n        /* \"#utility.yul\":1134:1136   */\n      0x40\n        /* \"#utility.yul\":1127:1149   */\n      mstore\n        /* \"#utility.yul\":917:1155   */\n      pop\n        /* \"#utility.yul\":874:1155   */\n      pop\n      pop\n      jump\t// out\n        /* \"#utility.yul\":1161:1290   */\n    tag_88:\n        /* \"#utility.yul\":1195:1201   */\n      0x00\n        /* \"#utility.yul\":1222:1242   */\n      tag_136\n      tag_80\n      jump\t// in\n    tag_136:\n        /* \"#utility.yul\":1212:1242   */\n      swap1\n      pop\n        /* \"#utility.yul\":1251:1284   */\n      tag_137\n        /* \"#utility.yul\":1279:1283   */\n      dup3\n        /* \"#utility.yul\":1271:1277   */\n      dup3\n        /* \"#utility.yul\":1251:1284   */\n      tag_87\n      jump\t// in\n    tag_137:\n        /* \"#utility.yul\":1161:1290   */\n      swap2\n      swap1\n      pop\n      jump\t// out\n        /* \"#utility.yul\":1296:1604   */\n    tag_89:\n        /* \"#utility.yul\":1358:1362   */\n      0x00\n        /* \"#utility.yul\":1448:1466   */\n      0xffffffffffffffff\n        /* \"#utility.yul\":1440:1446   */\n      dup3\n        /* \"#utility.yul\":1437:1467   */\n      gt\n        /* \"#utility.yul\":1434:1490   */\n      iszero\n      tag_139\n      jumpi\n        /* \"#utility.yul\":1470:1488   */\n      tag_140\n      tag_86\n      jump\t// in\n    tag_140:\n        /* \"#utility.yul\":1434:1490   */\n    tag_139:\n        /* \"#utility.yul\":1508:1537   */\n      tag_141\n        /* \"#utility.yul\":1530:1536   */\n      dup3\n        /* \"#utility.yul\":1508:1537   */\n      tag_85\n      jump\t// in\n    tag_141:\n        /* \"#utility.yul\":1500:1537   */\n      swap1\n      pop\n        /* \"#utility.yul\":1592:1596   */\n      0x20\n        /* \"#utility.yul\":1586:1590   */\n      dup2\n        /* \"#utility.yul\":1582:1597   */\n      add\n        /* \"#utility.yul\":1574:1597   */\n      swap1\n      pop\n        /* \"#utility.yul\":1296:1604   */\n      swap2\n      swap1\n      pop\n      jump\t// out\n        /* \"#utility.yul\":1610:1764   */\n    tag_90:\n        /* \"#utility.yul\":1694:1700   */\n      dup3\n        /* \"#utility.yul\":1689:1692   */\n      dup2\n        /* \"#utility.yul\":1684:1687   */\n      dup4\n        /* \"#utility.yul\":1671:1701   */\n      calldatacopy\n        /* \"#utility.yul\":1756:1757   */\n      0x00\n        /* \"#utility.yul\":1747:1753   */\n      dup4\n        /* \"#utility.yul\":1742:1745   */\n      dup4\n        /* \"#utility.yul\":1738:1754   */\n      add\n        /* \"#utility.yul\":1731:1758   */\n      mstore\n        /* \"#utility.yul\":1610:1764   */\n      pop\n      pop\n      pop\n      jump\t// out\n        /* \"#utility.yul\":1770:2182   */\n    tag_91:\n        /* \"#utility.yul\":1848:1853   */\n      0x00\n        /* \"#utility.yul\":1873:1939   */\n      tag_144\n        /* \"#utility.yul\":1889:1938   */\n      tag_145\n        /* \"#utility.yul\":1931:1937   */\n      dup5\n        /* \"#utility.yul\":1889:1938   */\n      tag_89\n      jump\t// in\n    tag_145:\n        /* \"#utility.yul\":1873:1939   */\n      tag_88\n      jump\t// in\n    tag_144:\n        /* \"#utility.yul\":1864:1939   */\n      swap1\n      pop\n        /* \"#utility.yul\":1962:1968   */\n      dup3\n        /* \"#utility.yul\":1955:1960   */\n      dup2\n        /* \"#utility.yul\":1948:1969   */\n      mstore\n        /* \"#utility.yul\":2000:2004   */\n      0x20\n        /* \"#utility.yul\":1993:1998   */\n      dup2\n        /* \"#utility.yul\":1989:2005   */\n      add\n        /* \"#utility.yul\":2038:2041   */\n      dup5\n        /* \"#utility.yul\":2029:2035   */\n      dup5\n        /* \"#utility.yul\":2024:2027   */\n      dup5\n        /* \"#utility.yul\":2020:2036   */\n      add\n        /* \"#utility.yul\":2017:2042   */\n      gt\n        /* \"#utility.yul\":2014:2126   */\n      iszero\n      tag_146\n      jumpi\n        /* \"#utility.yul\":2045:2124   */\n      tag_147\n      tag_84\n      jump\t// in\n    tag_147:\n        /* \"#utility.yul\":2014:2126   */\n    tag_146:\n        /* \"#utility.yul\":2135:2176   */\n      tag_148\n        /* \"#utility.yul\":2169:2175   */\n      dup5\n        /* \"#utility.yul\":2164:2167   */\n      dup3\n        /* \"#utility.yul\":2159:2162   */\n      dup6\n        /* \"#utility.yul\":2135:2176   */\n      tag_90\n      jump\t// in\n    tag_148:\n        /* \"#utility.yul\":1854:2182   */\n      pop\n        /* \"#utility.yul\":1770:2182   */\n      swap4\n      swap3\n      pop\n      pop\n      pop\n      jump\t// out\n        /* \"#utility.yul\":2202:2542   */\n    tag_92:\n        /* \"#utility.yul\":2258:2263   */\n      0x00\n        /* \"#utility.yul\":2307:2310   */\n      dup3\n        /* \"#utility.yul\":2300:2304   */\n      0x1f\n        /* \"#utility.yul\":2292:2298   */\n      dup4\n        /* \"#utility.yul\":2288:2305   */\n      add\n        /* \"#utility.yul\":2284:2311   */\n      slt\n        /* \"#utility.yul\":2274:2396   */\n      tag_150\n      jumpi\n        /* \"#utility.yul\":2315:2394   */\n      tag_151\n      tag_83\n      jump\t// in\n    tag_151:\n        /* \"#utility.yul\":2274:2396   */\n    tag_150:\n        /* \"#utility.yul\":2432:2438   */\n      dup2\n        /* \"#utility.yul\":2419:2439   */\n      calldataload\n        /* \"#utility.yul\":2457:2536   */\n      tag_152\n        /* \"#utility.yul\":2532:2535   */\n      dup5\n        /* \"#utility.yul\":2524:2530   */\n      dup3\n        /* \"#utility.yul\":2517:2521   */\n      0x20\n        /* \"#utility.yul\":2509:2515   */\n      dup7\n        /* \"#utility.yul\":2505:2522   */\n      add\n        /* \"#utility.yul\":2457:2536   */\n      tag_91\n      jump\t// in\n    tag_152:\n        /* \"#utility.yul\":2448:2536   */\n      swap2\n      pop\n        /* \"#utility.yul\":2264:2542   */\n      pop\n        /* \"#utility.yul\":2202:2542   */\n      swap3\n      swap2\n      pop\n      pop\n      jump\t// out\n        /* \"#utility.yul\":2548:3057   */\n    tag_13:\n        /* \"#utility.yul\":2617:2623   */\n      0x00\n        /* \"#utility.yul\":2666:2668   */\n      0x20\n        /* \"#utility.yul\":2654:2663   */\n      dup3\n        /* \"#utility.yul\":2645:2652   */\n      dup5\n        /* \"#utility.yul\":2641:2664   */\n      sub\n        /* \"#utility.yul\":2637:2669   */\n      slt\n        /* \"#utility.yul\":2634:2753   */\n      iszero\n      tag_154\n      jumpi\n        /* \"#utility.yul\":2672:2751   */\n      tag_155\n      tag_81\n      jump\t// in\n    tag_155:\n        /* \"#utility.yul\":2634:2753   */\n    tag_154:\n        /* \"#utility.yul\":2820:2821   */\n      0x00\n        /* \"#utility.yul\":2809:2818   */\n      dup3\n        /* \"#utility.yul\":2805:2822   */\n      add\n        /* \"#utility.yul\":2792:2823   */\n      calldataload\n        /* \"#utility.yul\":2850:2868   */\n      0xffffffffffffffff\n        /* \"#utility.yul\":2842:2848   */\n      dup2\n        /* \"#utility.yul\":2839:2869   */\n      gt\n        /* \"#utility.yul\":2836:2953   */\n      iszero\n      tag_156\n      jumpi\n        /* \"#utility.yul\":2872:2951   */\n      tag_157\n      tag_82\n      jump\t// in\n    tag_157:\n        /* \"#utility.yul\":2836:2953   */\n    tag_156:\n        /* \"#utility.yul\":2977:3040   */\n      tag_158\n        /* \"#utility.yul\":3032:3039   */\n      dup5\n        /* \"#utility.yul\":3023:3029   */\n      dup3\n        /* \"#utility.yul\":3012:3021   */\n      dup6\n        /* \"#utility.yul\":3008:3030   */\n      add\n        /* \"#utility.yul\":2977:3040   */\n      tag_92\n      jump\t// in\n    tag_158:\n        /* \"#utility.yul\":2967:3040   */\n      swap2\n      pop\n        /* \"#utility.yul\":2763:3050   */\n      pop\n        /* \"#utility.yul\":2548:3057   */\n      swap3\n      swap2\n      pop\n      pop\n      jump\t// out\n        /* \"#utility.yul\":3063:3140   */\n    tag_93:\n        /* \"#utility.yul\":3100:3107   */\n      0x00\n        /* \"#utility.yul\":3129:3134   */\n      dup2\n        /* \"#utility.yul\":3118:3134   */\n      swap1\n      pop\n        /* \"#utility.yul\":3063:3140   */\n      swap2\n      swap1\n      pop\n      jump\t// out\n        /* \"#utility.yul\":3146:3268   */\n    tag_94:\n        /* \"#utility.yul\":3219:3243   */\n      tag_161\n        /* \"#utility.yul\":3237:3242   */\n      dup2\n        /* \"#utility.yul\":3219:3243   */\n      tag_93\n      jump\t// in\n    tag_161:\n        /* \"#utility.yul\":3212:3217   */\n      dup2\n        /* \"#utility.yul\":3209:3244   */\n      eq\n        /* \"#utility.yul\":3199:3262   */\n      tag_162\n      jumpi\n        /* \"#utility.yul\":3258:3259   */\n      0x00\n        /* \"#utility.yul\":3255:3256   */\n      dup1\n        /* \"#utility.yul\":3248:3260   */\n      revert\n        /* \"#utility.yul\":3199:3262   */\n    tag_162:\n        /* \"#utility.yul\":3146:3268   */\n      pop\n      jump\t// out\n        /* \"#utility.yul\":3274:3413   */\n    tag_95:\n        /* \"#utility.yul\":3320:3325   */\n      0x00\n        /* \"#utility.yul\":3358:3364   */\n      dup2\n        /* \"#utility.yul\":3345:3365   */\n      calldataload\n        /* \"#utility.yul\":3336:3365   */\n      swap1\n      pop\n        /* \"#utility.yul\":3374:3407   */\n      tag_164\n        /* \"#utility.yul\":3401:3406   */\n      dup2\n        /* \"#utility.yul\":3374:3407   */\n      tag_94\n      jump\t// in\n    tag_164:\n        /* \"#utility.yul\":3274:3413   */\n      swap3\n      swap2\n      pop\n      pop\n      jump\t// out\n        /* \"#utility.yul\":3419:4073   */\n    tag_17:\n        /* \"#utility.yul\":3497:3503   */\n      0x00\n        /* \"#utility.yul\":3505:3511   */\n      dup1\n        /* \"#utility.yul\":3554:3556   */\n      0x40\n        /* \"#utility.yul\":3542:3551   */\n      dup4\n        /* \"#utility.yul\":3533:3540   */\n      dup6\n        /* \"#utility.yul\":3529:3552   */\n      sub\n        /* \"#utility.yul\":3525:3557   */\n      slt\n        /* \"#utility.yul\":3522:3641   */\n      iszero\n      tag_166\n      jumpi\n        /* \"#utility.yul\":3560:3639   */\n      tag_167\n      tag_81\n      jump\t// in\n    tag_167:\n        /* \"#utility.yul\":3522:3641   */\n    tag_166:\n        /* \"#utility.yul\":3708:3709   */\n      0x00\n        /* \"#utility.yul\":3697:3706   */\n      dup4\n        /* \"#utility.yul\":3693:3710   */\n      add\n        /* \"#utility.yul\":3680:3711   */\n      calldataload\n        /* \"#utility.yul\":3738:3756   */\n      0xffffffffffffffff\n        /* \"#utility.yul\":3730:3736   */\n      dup2\n        /* \"#utility.yul\":3727:3757   */\n      gt\n        /* \"#utility.yul\":3724:3841   */\n      iszero\n      tag_168\n      jumpi\n        /* \"#utility.yul\":3760:3839   */\n      tag_169\n      tag_82\n      jump\t// in\n    tag_169:\n        /* \"#utility.yul\":3724:3841   */\n    tag_168:\n        /* \"#utility.yul\":3865:3928   */\n      tag_170\n        /* \"#utility.yul\":3920:3927   */\n      dup6\n        /* \"#utility.yul\":3911:3917   */\n      dup3\n        /* \"#utility.yul\":3900:3909   */\n      dup7\n        /* \"#utility.yul\":3896:3918   */\n      add\n        /* \"#utility.yul\":3865:3928   */\n      tag_92\n      jump\t// in\n    tag_170:\n        /* \"#utility.yul\":3855:3928   */\n      swap3\n      pop\n        /* \"#utility.yul\":3651:3938   */\n      pop\n        /* \"#utility.yul\":3977:3979   */\n      0x20\n        /* \"#utility.yul\":4003:4056   */\n      tag_171\n        /* \"#utility.yul\":4048:4055   */\n      dup6\n        /* \"#utility.yul\":4039:4045   */\n      dup3\n        /* \"#utility.yul\":4028:4037   */\n      dup7\n        /* \"#utility.yul\":4024:4046   */\n      add\n        /* \"#utility.yul\":4003:4056   */\n      tag_95\n      jump\t// in\n    tag_171:\n        /* \"#utility.yul\":3993:4056   */\n      swap2\n      pop\n        /* \"#utility.yul\":3948:4066   */\n      pop\n        /* \"#utility.yul\":3419:4073   */\n      swap3\n      pop\n      swap3\n      swap1\n      pop\n      jump\t// out\n        /* \"#utility.yul\":4079:4197   */\n    tag_96:\n        /* \"#utility.yul\":4166:4190   */\n      tag_173\n        /* \"#utility.yul\":4184:4189   */\n      dup2\n        /* \"#utility.yul\":4166:4190   */\n      tag_93\n      jump\t// in\n    tag_173:\n        /* \"#utility.yul\":4161:4164   */\n      dup3\n        /* \"#utility.yul\":4154:4191   */\n      mstore\n        /* \"#utility.yul\":4079:4197   */\n      pop\n      pop\n      jump\t// out\n        /* \"#utility.yul\":4203:4302   */\n    tag_97:\n        /* \"#utility.yul\":4255:4261   */\n      0x00\n        /* \"#utility.yul\":4289:4294   */\n      dup2\n        /* \"#utility.yul\":4283:4295   */\n      mload\n        /* \"#utility.yul\":4273:4295   */\n      swap1\n      pop\n        /* \"#utility.yul\":4203:4302   */\n      swap2\n      swap1\n      pop\n      jump\t// out\n        /* \"#utility.yul\":4308:4477   */\n    tag_98:\n        /* \"#utility.yul\":4392:4403   */\n      0x00\n        /* \"#utility.yul\":4426:4432   */\n      dup3\n        /* \"#utility.yul\":4421:4424   */\n      dup3\n        /* \"#utility.yul\":4414:4433   */\n      mstore\n        /* \"#utility.yul\":4466:4470   */\n      0x20\n        /* \"#utility.yul\":4461:4464   */\n      dup3\n        /* \"#utility.yul\":4457:4471   */\n      add\n        /* \"#utility.yul\":4442:4471   */\n      swap1\n      pop\n        /* \"#utility.yul\":4308:4477   */\n      swap3\n      swap2\n      pop\n      pop\n      jump\t// out\n        /* \"#utility.yul\":4483:4790   */\n    tag_99:\n        /* \"#utility.yul\":4551:4552   */\n      0x00\n        /* \"#utility.yul\":4561:4674   */\n    tag_177:\n        /* \"#utility.yul\":4575:4581   */\n      dup4\n        /* \"#utility.yul\":4572:4573   */\n      dup2\n        /* \"#utility.yul\":4569:4582   */\n      lt\n        /* \"#utility.yul\":4561:4674   */\n      iszero\n      tag_179\n      jumpi\n        /* \"#utility.yul\":4660:4661   */\n      dup1\n        /* \"#utility.yul\":4655:4658   */\n      dup3\n        /* \"#utility.yul\":4651:4662   */\n      add\n        /* \"#utility.yul\":4645:4663   */\n      mload\n        /* \"#utility.yul\":4641:4642   */\n      dup2\n        /* \"#utility.yul\":4636:4639   */\n      dup5\n        /* \"#utility.yul\":4632:4643   */\n      add\n        /* \"#utility.yul\":4625:4664   */\n      mstore\n        /* \"#utility.yul\":4597:4599   */\n      0x20\n        /* \"#utility.yul\":4594:4595   */\n      dup2\n        /* \"#utility.yul\":4590:4600   */\n      add\n        /* \"#utility.yul\":4585:4600   */\n      swap1\n      pop\n        /* \"#utility.yul\":4561:4674   */\n      jump(tag_177)\n    tag_179:\n        /* \"#utility.yul\":4692:4698   */\n      dup4\n        /* \"#utility.yul\":4689:4690   */\n      dup2\n        /* \"#utility.yul\":4686:4699   */\n      gt\n        /* \"#utility.yul\":4683:4784   */\n      iszero\n      tag_180\n      jumpi\n        /* \"#utility.yul\":4772:4773   */\n      0x00\n        /* \"#utility.yul\":4763:4769   */\n      dup5\n        /* \"#utility.yul\":4758:4761   */\n      dup5\n        /* \"#utility.yul\":4754:4770   */\n      add\n        /* \"#utility.yul\":4747:4774   */\n      mstore\n        /* \"#utility.yul\":4683:4784   */\n    tag_180:\n        /* \"#utility.yul\":4532:4790   */\n      pop\n        /* \"#utility.yul\":4483:4790   */\n      pop\n      pop\n      pop\n      jump\t// out\n        /* \"#utility.yul\":4796:5160   */\n    tag_100:\n        /* \"#utility.yul\":4884:4887   */\n      0x00\n        /* \"#utility.yul\":4912:4951   */\n      tag_182\n        /* \"#utility.yul\":4945:4950   */\n      dup3\n        /* \"#utility.yul\":4912:4951   */\n      tag_97\n      jump\t// in\n    tag_182:\n        /* \"#utility.yul\":4967:5038   */\n      tag_183\n        /* \"#utility.yul\":5031:5037   */\n      dup2\n        /* \"#utility.yul\":5026:5029   */\n      dup6\n        /* \"#utility.yul\":4967:5038   */\n      tag_98\n      jump\t// in\n    tag_183:\n        /* \"#utility.yul\":4960:5038   */\n      swap4\n      pop\n        /* \"#utility.yul\":5047:5099   */\n      tag_184\n        /* \"#utility.yul\":5092:5098   */\n      dup2\n        /* \"#utility.yul\":5087:5090   */\n      dup6\n        /* \"#utility.yul\":5080:5084   */\n      0x20\n        /* \"#utility.yul\":5073:5078   */\n      dup7\n        /* \"#utility.yul\":5069:5085   */\n      add\n        /* \"#utility.yul\":5047:5099   */\n      tag_99\n      jump\t// in\n    tag_184:\n        /* \"#utility.yul\":5124:5153   */\n      tag_185\n        /* \"#utility.yul\":5146:5152   */\n      dup2\n        /* \"#utility.yul\":5124:5153   */\n      tag_85\n      jump\t// in\n    tag_185:\n        /* \"#utility.yul\":5119:5122   */\n      dup5\n        /* \"#utility.yul\":5115:5154   */\n      add\n        /* \"#utility.yul\":5108:5154   */\n      swap2\n      pop\n        /* \"#utility.yul\":4888:5160   */\n      pop\n        /* \"#utility.yul\":4796:5160   */\n      swap3\n      swap2\n      pop\n      pop\n      jump\t// out\n        /* \"#utility.yul\":5166:5699   */\n    tag_20:\n        /* \"#utility.yul\":5335:5339   */\n      0x00\n        /* \"#utility.yul\":5373:5375   */\n      0x60\n        /* \"#utility.yul\":5362:5371   */\n      dup3\n        /* \"#utility.yul\":5358:5376   */\n      add\n        /* \"#utility.yul\":5350:5376   */\n      swap1\n      pop\n        /* \"#utility.yul\":5386:5457   */\n      tag_187\n        /* \"#utility.yul\":5454:5455   */\n      0x00\n        /* \"#utility.yul\":5443:5452   */\n      dup4\n        /* \"#utility.yul\":5439:5456   */\n      add\n        /* \"#utility.yul\":5430:5436   */\n      dup7\n        /* \"#utility.yul\":5386:5457   */\n      tag_96\n      jump\t// in\n    tag_187:\n        /* \"#utility.yul\":5504:5513   */\n      dup2\n        /* \"#utility.yul\":5498:5502   */\n      dup2\n        /* \"#utility.yul\":5494:5514   */\n      sub\n        /* \"#utility.yul\":5489:5491   */\n      0x20\n        /* \"#utility.yul\":5478:5487   */\n      dup4\n        /* \"#utility.yul\":5474:5492   */\n      add\n        /* \"#utility.yul\":5467:5515   */\n      mstore\n        /* \"#utility.yul\":5532:5610   */\n      tag_188\n        /* \"#utility.yul\":5605:5609   */\n      dup2\n        /* \"#utility.yul\":5596:5602   */\n      dup6\n        /* \"#utility.yul\":5532:5610   */\n      tag_100\n      jump\t// in\n    tag_188:\n        /* \"#utility.yul\":5524:5610   */\n      swap1\n      pop\n        /* \"#utility.yul\":5620:5692   */\n      tag_189\n        /* \"#utility.yul\":5688:5690   */\n      0x40\n        /* \"#utility.yul\":5677:5686   */\n      dup4\n        /* \"#utility.yul\":5673:5691   */\n      add\n        /* \"#utility.yul\":5664:5670   */\n      dup5\n        /* \"#utility.yul\":5620:5692   */\n      tag_96\n      jump\t// in\n    tag_189:\n        /* \"#utility.yul\":5166:5699   */\n      swap5\n      swap4\n      pop\n      pop\n      pop\n      pop\n      jump\t// out\n        /* \"#utility.yul\":5705:5831   */\n    tag_101:\n        /* \"#utility.yul\":5742:5749   */\n      0x00\n        /* \"#utility.yul\":5782:5824   */\n      0xffffffffffffffffffffffffffffffffffffffff\n        /* \"#utility.yul\":5775:5780   */\n      dup3\n        /* \"#utility.yul\":5771:5825   */\n      and\n        /* \"#utility.yul\":5760:5825   */\n      swap1\n      pop\n        /* \"#utility.yul\":5705:5831   */\n      swap2\n      swap1\n      pop\n      jump\t// out\n        /* \"#utility.yul\":5837:5933   */\n    tag_102:\n        /* \"#utility.yul\":5874:5881   */\n      0x00\n        /* \"#utility.yul\":5903:5927   */\n      tag_192\n        /* \"#utility.yul\":5921:5926   */\n      dup3\n        /* \"#utility.yul\":5903:5927   */\n      tag_101\n      jump\t// in\n    tag_192:\n        /* \"#utility.yul\":5892:5927   */\n      swap1\n      pop\n        /* \"#utility.yul\":5837:5933   */\n      swap2\n      swap1\n      pop\n      jump\t// out\n        /* \"#utility.yul\":5939:6061   */\n    tag_103:\n        /* \"#utility.yul\":6012:6036   */\n      tag_194\n        /* \"#utility.yul\":6030:6035   */\n      dup2\n        /* \"#utility.yul\":6012:6036   */\n      tag_102\n      jump\t// in\n    tag_194:\n        /* \"#utility.yul\":6005:6010   */\n      dup2\n        /* \"#utility.yul\":6002:6037   */\n      eq\n        /* \"#utility.yul\":5992:6055   */\n      tag_195\n      jumpi\n        /* \"#utility.yul\":6051:6052   */\n      0x00\n        /* \"#utility.yul\":6048:6049   */\n      dup1\n        /* \"#utility.yul\":6041:6053   */\n      revert\n        /* \"#utility.yul\":5992:6055   */\n    tag_195:\n        /* \"#utility.yul\":5939:6061   */\n      pop\n      jump\t// out\n        /* \"#utility.yul\":6067:6206   */\n    tag_104:\n        /* \"#utility.yul\":6113:6118   */\n      0x00\n        /* \"#utility.yul\":6151:6157   */\n      dup2\n        /* \"#utility.yul\":6138:6158   */\n      calldataload\n        /* \"#utility.yul\":6129:6158   */\n      swap1\n      pop\n        /* \"#utility.yul\":6167:6200   */\n      tag_197\n        /* \"#utility.yul\":6194:6199   */\n      dup2\n        /* \"#utility.yul\":6167:6200   */\n      tag_103\n      jump\t// in\n    tag_197:\n        /* \"#utility.yul\":6067:6206   */\n      swap3\n      swap2\n      pop\n      pop\n      jump\t// out\n        /* \"#utility.yul\":6212:6831   */\n    tag_23:\n        /* \"#utility.yul\":6289:6295   */\n      0x00\n        /* \"#utility.yul\":6297:6303   */\n      dup1\n        /* \"#utility.yul\":6305:6311   */\n      0x00\n        /* \"#utility.yul\":6354:6356   */\n      0x60\n        /* \"#utility.yul\":6342:6351   */\n      dup5\n        /* \"#utility.yul\":6333:6340   */\n      dup7\n        /* \"#utility.yul\":6329:6352   */\n      sub\n        /* \"#utility.yul\":6325:6357   */\n      slt\n        /* \"#utility.yul\":6322:6441   */\n      iszero\n      tag_199\n      jumpi\n        /* \"#utility.yul\":6360:6439   */\n      tag_200\n      tag_81\n      jump\t// in\n    tag_200:\n        /* \"#utility.yul\":6322:6441   */\n    tag_199:\n        /* \"#utility.yul\":6480:6481   */\n      0x00\n        /* \"#utility.yul\":6505:6558   */\n      tag_201\n        /* \"#utility.yul\":6550:6557   */\n      dup7\n        /* \"#utility.yul\":6541:6547   */\n      dup3\n        /* \"#utility.yul\":6530:6539   */\n      dup8\n        /* \"#utility.yul\":6526:6548   */\n      add\n        /* \"#utility.yul\":6505:6558   */\n      tag_95\n      jump\t// in\n    tag_201:\n        /* \"#utility.yul\":6495:6558   */\n      swap4\n      pop\n        /* \"#utility.yul\":6451:6568   */\n      pop\n        /* \"#utility.yul\":6607:6609   */\n      0x20\n        /* \"#utility.yul\":6633:6686   */\n      tag_202\n        /* \"#utility.yul\":6678:6685   */\n      dup7\n        /* \"#utility.yul\":6669:6675   */\n      dup3\n        /* \"#utility.yul\":6658:6667   */\n      dup8\n        /* \"#utility.yul\":6654:6676   */\n      add\n        /* \"#utility.yul\":6633:6686   */\n      tag_104\n      jump\t// in\n    tag_202:\n        /* \"#utility.yul\":6623:6686   */\n      swap3\n      pop\n        /* \"#utility.yul\":6578:6696   */\n      pop\n        /* \"#utility.yul\":6735:6737   */\n      0x40\n        /* \"#utility.yul\":6761:6814   */\n      tag_203\n        /* \"#utility.yul\":6806:6813   */\n      dup7\n        /* \"#utility.yul\":6797:6803   */\n      dup3\n        /* \"#utility.yul\":6786:6795   */\n      dup8\n        /* \"#utility.yul\":6782:6804   */\n      add\n        /* \"#utility.yul\":6761:6814   */\n      tag_95\n      jump\t// in\n    tag_203:\n        /* \"#utility.yul\":6751:6814   */\n      swap2\n      pop\n        /* \"#utility.yul\":6706:6824   */\n      pop\n        /* \"#utility.yul\":6212:6831   */\n      swap3\n      pop\n      swap3\n      pop\n      swap3\n      jump\t// out\n        /* \"#utility.yul\":6837:7311   */\n    tag_27:\n        /* \"#utility.yul\":6905:6911   */\n      0x00\n        /* \"#utility.yul\":6913:6919   */\n      dup1\n        /* \"#utility.yul\":6962:6964   */\n      0x40\n        /* \"#utility.yul\":6950:6959   */\n      dup4\n        /* \"#utility.yul\":6941:6948   */\n      dup6\n        /* \"#utility.yul\":6937:6960   */\n      sub\n        /* \"#utility.yul\":6933:6965   */\n      slt\n        /* \"#utility.yul\":6930:7049   */\n      iszero\n      tag_205\n      jumpi\n        /* \"#utility.yul\":6968:7047   */\n      tag_206\n      tag_81\n      jump\t// in\n    tag_206:\n        /* \"#utility.yul\":6930:7049   */\n    tag_205:\n        /* \"#utility.yul\":7088:7089   */\n      0x00\n        /* \"#utility.yul\":7113:7166   */\n      tag_207\n        /* \"#utility.yul\":7158:7165   */\n      dup6\n        /* \"#utility.yul\":7149:7155   */\n      dup3\n        /* \"#utility.yul\":7138:7147   */\n      dup7\n        /* \"#utility.yul\":7134:7156   */\n      add\n        /* \"#utility.yul\":7113:7166   */\n      tag_95\n      jump\t// in\n    tag_207:\n        /* \"#utility.yul\":7103:7166   */\n      swap3\n      pop\n        /* \"#utility.yul\":7059:7176   */\n      pop\n        /* \"#utility.yul\":7215:7217   */\n      0x20\n        /* \"#utility.yul\":7241:7294   */\n      tag_208\n        /* \"#utility.yul\":7286:7293   */\n      dup6\n        /* \"#utility.yul\":7277:7283   */\n      dup3\n        /* \"#utility.yul\":7266:7275   */\n      dup7\n        /* \"#utility.yul\":7262:7284   */\n      add\n        /* \"#utility.yul\":7241:7294   */\n      tag_95\n      jump\t// in\n    tag_208:\n        /* \"#utility.yul\":7231:7294   */\n      swap2\n      pop\n        /* \"#utility.yul\":7186:7304   */\n      pop\n        /* \"#utility.yul\":6837:7311   */\n      swap3\n      pop\n      swap3\n      swap1\n      pop\n      jump\t// out\n        /* \"#utility.yul\":7317:7435   */\n    tag_105:\n        /* \"#utility.yul\":7404:7428   */\n      tag_210\n        /* \"#utility.yul\":7422:7427   */\n      dup2\n        /* \"#utility.yul\":7404:7428   */\n      tag_102\n      jump\t// in\n    tag_210:\n        /* \"#utility.yul\":7399:7402   */\n      dup3\n        /* \"#utility.yul\":7392:7429   */\n      mstore\n        /* \"#utility.yul\":7317:7435   */\n      pop\n      pop\n      jump\t// out\n        /* \"#utility.yul\":7441:7773   */\n    tag_30:\n        /* \"#utility.yul\":7562:7566   */\n      0x00\n        /* \"#utility.yul\":7600:7602   */\n      0x40\n        /* \"#utility.yul\":7589:7598   */\n      dup3\n        /* \"#utility.yul\":7585:7603   */\n      add\n        /* \"#utility.yul\":7577:7603   */\n      swap1\n      pop\n        /* \"#utility.yul\":7613:7684   */\n      tag_212\n        /* \"#utility.yul\":7681:7682   */\n      0x00\n        /* \"#utility.yul\":7670:7679   */\n      dup4\n        /* \"#utility.yul\":7666:7683   */\n      add\n        /* \"#utility.yul\":7657:7663   */\n      dup6\n        /* \"#utility.yul\":7613:7684   */\n      tag_96\n      jump\t// in\n    tag_212:\n        /* \"#utility.yul\":7694:7766   */\n      tag_213\n        /* \"#utility.yul\":7762:7764   */\n      0x20\n        /* \"#utility.yul\":7751:7760   */\n      dup4\n        /* \"#utility.yul\":7747:7765   */\n      add\n        /* \"#utility.yul\":7738:7744   */\n      dup5\n        /* \"#utility.yul\":7694:7766   */\n      tag_105\n      jump\t// in\n    tag_213:\n        /* \"#utility.yul\":7441:7773   */\n      swap4\n      swap3\n      pop\n      pop\n      pop\n      jump\t// out\n        /* \"#utility.yul\":7779:8108   */\n    tag_33:\n        /* \"#utility.yul\":7838:7844   */\n      0x00\n        /* \"#utility.yul\":7887:7889   */\n      0x20\n        /* \"#utility.yul\":7875:7884   */\n      dup3\n        /* \"#utility.yul\":7866:7873   */\n      dup5\n        /* \"#utility.yul\":7862:7885   */\n      sub\n        /* \"#utility.yul\":7858:7890   */\n      slt\n        /* \"#utility.yul\":7855:7974   */\n      iszero\n      tag_215\n      jumpi\n        /* \"#utility.yul\":7893:7972   */\n      tag_216\n      tag_81\n      jump\t// in\n    tag_216:\n        /* \"#utility.yul\":7855:7974   */\n    tag_215:\n        /* \"#utility.yul\":8013:8014   */\n      0x00\n        /* \"#utility.yul\":8038:8091   */\n      tag_217\n        /* \"#utility.yul\":8083:8090   */\n      dup5\n        /* \"#utility.yul\":8074:8080   */\n      dup3\n        /* \"#utility.yul\":8063:8072   */\n      dup6\n        /* \"#utility.yul\":8059:8081   */\n      add\n        /* \"#utility.yul\":8038:8091   */\n      tag_95\n      jump\t// in\n    tag_217:\n        /* \"#utility.yul\":8028:8091   */\n      swap2\n      pop\n        /* \"#utility.yul\":7984:8101   */\n      pop\n        /* \"#utility.yul\":7779:8108   */\n      swap3\n      swap2\n      pop\n      pop\n      jump\t// out\n        /* \"#utility.yul\":8114:8647   */\n    tag_36:\n        /* \"#utility.yul\":8283:8287   */\n      0x00\n        /* \"#utility.yul\":8321:8323   */\n      0x60\n        /* \"#utility.yul\":8310:8319   */\n      dup3\n        /* \"#utility.yul\":8306:8324   */\n      add\n        /* \"#utility.yul\":8298:8324   */\n      swap1\n      pop\n        /* \"#utility.yul\":8370:8379   */\n      dup2\n        /* \"#utility.yul\":8364:8368   */\n      dup2\n        /* \"#utility.yul\":8360:8380   */\n      sub\n        /* \"#utility.yul\":8356:8357   */\n      0x00\n        /* \"#utility.yul\":8345:8354   */\n      dup4\n        /* \"#utility.yul\":8341:8358   */\n      add\n        /* \"#utility.yul\":8334:8381   */\n      mstore\n        /* \"#utility.yul\":8398:8476   */\n      tag_219\n        /* \"#utility.yul\":8471:8475   */\n      dup2\n        /* \"#utility.yul\":8462:8468   */\n      dup7\n        /* \"#utility.yul\":8398:8476   */\n      tag_100\n      jump\t// in\n    tag_219:\n        /* \"#utility.yul\":8390:8476   */\n      swap1\n      pop\n        /* \"#utility.yul\":8486:8558   */\n      tag_220\n        /* \"#utility.yul\":8554:8556   */\n      0x20\n        /* \"#utility.yul\":8543:8552   */\n      dup4\n        /* \"#utility.yul\":8539:8557   */\n      add\n        /* \"#utility.yul\":8530:8536   */\n      dup6\n        /* \"#utility.yul\":8486:8558   */\n      tag_96\n      jump\t// in\n    tag_220:\n        /* \"#utility.yul\":8568:8640   */\n      tag_221\n        /* \"#utility.yul\":8636:8638   */\n      0x40\n        /* \"#utility.yul\":8625:8634   */\n      dup4\n        /* \"#utility.yul\":8621:8639   */\n      add\n        /* \"#utility.yul\":8612:8618   */\n      dup5\n        /* \"#utility.yul\":8568:8640   */\n      tag_105\n      jump\t// in\n    tag_221:\n        /* \"#utility.yul\":8114:8647   */\n      swap5\n      swap4\n      pop\n      pop\n      pop\n      pop\n      jump\t// out\n        /* \"#utility.yul\":8653:8982   */\n    tag_39:\n        /* \"#utility.yul\":8712:8718   */\n      0x00\n        /* \"#utility.yul\":8761:8763   */\n      0x20\n        /* \"#utility.yul\":8749:8758   */\n      dup3\n        /* \"#utility.yul\":8740:8747   */\n      dup5\n        /* \"#utility.yul\":8736:8759   */\n      sub\n        /* \"#utility.yul\":8732:8764   */\n      slt\n        /* \"#utility.yul\":8729:8848   */\n      iszero\n      tag_223\n      jumpi\n        /* \"#utility.yul\":8767:8846   */\n      tag_224\n      tag_81\n      jump\t// in\n    tag_224:\n        /* \"#utility.yul\":8729:8848   */\n    tag_223:\n        /* \"#utility.yul\":8887:8888   */\n      0x00\n        /* \"#utility.yul\":8912:8965   */\n      tag_225\n        /* \"#utility.yul\":8957:8964   */\n      dup5\n        /* \"#utility.yul\":8948:8954   */\n      dup3\n        /* \"#utility.yul\":8937:8946   */\n      dup6\n        /* \"#utility.yul\":8933:8955   */\n      add\n        /* \"#utility.yul\":8912:8965   */\n      tag_104\n      jump\t// in\n    tag_225:\n        /* \"#utility.yul\":8902:8965   */\n      swap2\n      pop\n        /* \"#utility.yul\":8858:8975   */\n      pop\n        /* \"#utility.yul\":8653:8982   */\n      swap3\n      swap2\n      pop\n      pop\n      jump\t// out\n        /* \"#utility.yul\":8988:9301   */\n    tag_42:\n        /* \"#utility.yul\":9101:9105   */\n      0x00\n        /* \"#utility.yul\":9139:9141   */\n      0x20\n        /* \"#utility.yul\":9128:9137   */\n      dup3\n        /* \"#utility.yul\":9124:9142   */\n      add\n        /* \"#utility.yul\":9116:9142   */\n      swap1\n      pop\n        /* \"#utility.yul\":9188:9197   */\n      dup2\n        /* \"#utility.yul\":9182:9186   */\n      dup2\n        /* \"#utility.yul\":9178:9198   */\n      sub\n        /* \"#utility.yul\":9174:9175   */\n      0x00\n        /* \"#utility.yul\":9163:9172   */\n      dup4\n        /* \"#utility.yul\":9159:9176   */\n      add\n        /* \"#utility.yul\":9152:9199   */\n      mstore\n        /* \"#utility.yul\":9216:9294   */\n      tag_227\n        /* \"#utility.yul\":9289:9293   */\n      dup2\n        /* \"#utility.yul\":9280:9286   */\n      dup5\n        /* \"#utility.yul\":9216:9294   */\n      tag_100\n      jump\t// in\n    tag_227:\n        /* \"#utility.yul\":9208:9294   */\n      swap1\n      pop\n        /* \"#utility.yul\":8988:9301   */\n      swap3\n      swap2\n      pop\n      pop\n      jump\t// out\n        /* \"#utility.yul\":9307:9487   */\n    tag_106:\n        /* \"#utility.yul\":9355:9432   */\n      0x4e487b7100000000000000000000000000000000000000000000000000000000\n        /* \"#utility.yul\":9352:9353   */\n      0x00\n        /* \"#utility.yul\":9345:9433   */\n      mstore\n        /* \"#utility.yul\":9452:9456   */\n      0x22\n        /* \"#utility.yul\":9449:9450   */\n      0x04\n        /* \"#utility.yul\":9442:9457   */\n      mstore\n        /* \"#utility.yul\":9476:9480   */\n      0x24\n        /* \"#utility.yul\":9473:9474   */\n      0x00\n        /* \"#utility.yul\":9466:9481   */\n      revert\n        /* \"#utility.yul\":9493:9813   */\n    tag_58:\n        /* \"#utility.yul\":9537:9543   */\n      0x00\n        /* \"#utility.yul\":9574:9575   */\n      0x02\n        /* \"#utility.yul\":9568:9572   */\n      dup3\n        /* \"#utility.yul\":9564:9576   */\n      div\n        /* \"#utility.yul\":9554:9576   */\n      swap1\n      pop\n        /* \"#utility.yul\":9621:9622   */\n      0x01\n        /* \"#utility.yul\":9615:9619   */\n      dup3\n        /* \"#utility.yul\":9611:9623   */\n      and\n        /* \"#utility.yul\":9642:9660   */\n      dup1\n        /* \"#utility.yul\":9632:9713   */\n      tag_230\n      jumpi\n        /* \"#utility.yul\":9698:9702   */\n      0x7f\n        /* \"#utility.yul\":9690:9696   */\n      dup3\n        /* \"#utility.yul\":9686:9703   */\n      and\n        /* \"#utility.yul\":9676:9703   */\n      swap2\n      pop\n        /* \"#utility.yul\":9632:9713   */\n    tag_230:\n        /* \"#utility.yul\":9760:9762   */\n      0x20\n        /* \"#utility.yul\":9752:9758   */\n      dup3\n        /* \"#utility.yul\":9749:9763   */\n      lt\n        /* \"#utility.yul\":9729:9747   */\n      dup2\n        /* \"#utility.yul\":9726:9764   */\n      sub\n        /* \"#utility.yul\":9723:9807   */\n      tag_231\n      jumpi\n        /* \"#utility.yul\":9779:9797   */\n      tag_232\n      tag_106\n      jump\t// in\n    tag_232:\n        /* \"#utility.yul\":9723:9807   */\n    tag_231:\n        /* \"#utility.yul\":9544:9813   */\n      pop\n        /* \"#utility.yul\":9493:9813   */\n      swap2\n      swap1\n      pop\n      jump\t// out\n        /* \"#utility.yul\":9819:9960   */\n    tag_107:\n        /* \"#utility.yul\":9868:9872   */\n      0x00\n        /* \"#utility.yul\":9891:9894   */\n      dup2\n        /* \"#utility.yul\":9883:9894   */\n      swap1\n      pop\n        /* \"#utility.yul\":9914:9917   */\n      dup2\n        /* \"#utility.yul\":9911:9912   */\n      0x00\n        /* \"#utility.yul\":9904:9918   */\n      mstore\n        /* \"#utility.yul\":9948:9952   */\n      0x20\n        /* \"#utility.yul\":9945:9946   */\n      0x00\n        /* \"#utility.yul\":9935:9953   */\n      keccak256\n        /* \"#utility.yul\":9927:9953   */\n      swap1\n      pop\n        /* \"#utility.yul\":9819:9960   */\n      swap2\n      swap1\n      pop\n      jump\t// out\n        /* \"#utility.yul\":9966:10059   */\n    tag_108:\n        /* \"#utility.yul\":10003:10009   */\n      0x00\n        /* \"#utility.yul\":10050:10052   */\n      0x20\n        /* \"#utility.yul\":10045:10047   */\n      0x1f\n        /* \"#utility.yul\":10038:10043   */\n      dup4\n        /* \"#utility.yul\":10034:10048   */\n      add\n        /* \"#utility.yul\":10030:10053   */\n      div\n        /* \"#utility.yul\":10020:10053   */\n      swap1\n      pop\n        /* \"#utility.yul\":9966:10059   */\n      swap2\n      swap1\n      pop\n      jump\t// out\n        /* \"#utility.yul\":10065:10172   */\n    tag_109:\n        /* \"#utility.yul\":10109:10117   */\n      0x00\n        /* \"#utility.yul\":10159:10164   */\n      dup3\n        /* \"#utility.yul\":10153:10157   */\n      dup3\n        /* \"#utility.yul\":10149:10165   */\n      shl\n        /* \"#utility.yul\":10128:10165   */\n      swap1\n      pop\n        /* \"#utility.yul\":10065:10172   */\n      swap3\n      swap2\n      pop\n      pop\n      jump\t// out\n        /* \"#utility.yul\":10178:10571   */\n    tag_110:\n        /* \"#utility.yul\":10247:10253   */\n      0x00\n        /* \"#utility.yul\":10297:10298   */\n      0x08\n        /* \"#utility.yul\":10285:10295   */\n      dup4\n        /* \"#utility.yul\":10281:10299   */\n      mul\n        /* \"#utility.yul\":10320:10417   */\n      tag_237\n        /* \"#utility.yul\":10350:10416   */\n      0xffffffffffffffffffffffffffffffffffffffffffffffffffffffffffffffff\n        /* \"#utility.yul\":10339:10348   */\n      dup3\n        /* \"#utility.yul\":10320:10417   */\n      tag_109\n      jump\t// in\n    tag_237:\n        /* \"#utility.yul\":10438:10477   */\n      tag_238\n        /* \"#utility.yul\":10468:10476   */\n      dup7\n        /* \"#utility.yul\":10457:10466   */\n      dup4\n        /* \"#utility.yul\":10438:10477   */\n      tag_109\n      jump\t// in\n    tag_238:\n        /* \"#utility.yul\":10426:10477   */\n      swap6\n      pop\n        /* \"#utility.yul\":10510:10514   */\n      dup1\n        /* \"#utility.yul\":10506:10515   */\n      not\n        /* \"#utility.yul\":10499:10504   */\n      dup5\n        /* \"#utility.yul\":10495:10516   */\n      and\n        /* \"#utility.yul\":10486:10516   */\n      swap4\n      pop\n        /* \"#utility.yul\":10559:10563   */\n      dup1\n        /* \"#utility.yul\":10549:10557   */\n      dup7\n        /* \"#utility.yul\":10545:10564   */\n      and\n        /* \"#utility.yul\":10538:10543   */\n      dup5\n        /* \"#utility.yul\":10535:10565   */\n      or\n        /* \"#utility.yul\":10525:10565   */\n      swap3\n      pop\n        /* \"#utility.yul\":10254:10571   */\n      pop\n      pop\n        /* \"#utility.yul\":10178:10571   */\n      swap4\n      swap3\n      pop\n      pop\n      pop\n      jump\t// out\n        /* \"#utility.yul\":10577:10637   */\n    tag_111:\n        /* \"#utility.yul\":10605:10608   */\n      0x00\n        /* \"#utility.yul\":10626:10631   */\n      dup2\n        /* \"#utility.yul\":10619:10631   */\n      swap1\n      pop\n        /* \"#utility.yul\":10577:10637   */\n      swap2\n      swap1\n      pop\n      jump\t// out\n        /* \"#utility.yul\":10643:10785   */\n    tag_112:\n        /* \"#utility.yul\":10693:10702   */\n      0x00\n        /* \"#utility.yul\":10726:10779   */\n      tag_241\n        /* \"#utility.yul\":10744:10778   */\n      tag_242\n        /* \"#utility.yul\":10753:10777   */\n      tag_243\n        /* \"#utility.yul\":10771:10776   */\n      dup5\n        /* \"#utility.yul\":10753:10777   */\n      tag_93\n      jump\t// in\n    tag_243:\n        /* \"#utility.yul\":10744:10778   */\n      tag_111\n      jump\t// in\n    tag_242:\n        /* \"#utility.yul\":10726:10779   */\n      tag_93\n      jump\t// in\n    tag_241:\n        /* \"#utility.yul\":10713:10779   */\n      swap1\n      pop\n        /* \"#utility.yul\":10643:10785   */\n      swap2\n      swap1\n      pop\n      jump\t// out\n        /* \"#utility.yul\":10791:10866   */\n    tag_113:\n        /* \"#utility.yul\":10834:10837   */\n      0x00\n        /* \"#utility.yul\":10855:10860   */\n      dup2\n        /* \"#utility.yul\":10848:10860   */\n      swap1\n      pop\n        /* \"#utility.yul\":10791:10866   */\n      swap2\n      swap1\n      pop\n      jump\t// out\n        /* \"#utility.yul\":10872:11141   */\n    tag_114:\n        /* \"#utility.yul\":10982:11021   */\n      tag_246\n        /* \"#utility.yul\":11013:11020   */\n      dup4\n        /* \"#utility.yul\":10982:11021   */\n      tag_112\n      jump\t// in\n    tag_246:\n        /* \"#utility.yul\":11043:11134   */\n      tag_247\n        /* \"#utility.yul\":11092:11133   */\n      tag_248\n        /* \"#utility.yul\":11116:11132   */\n      dup3\n        /* \"#utility.yul\":11092:11133   */\n      tag_113\n      jump\t// in\n    tag_248:\n        /* \"#utility.yul\":11084:11090   */\n      dup5\n        /* \"#utility.yul\":11077:11081   */\n      dup5\n        /* \"#utility.yul\":11071:11082   */\n      sload\n        /* \"#utility.yul\":11043:11134   */\n      tag_110\n      jump\t// in\n    tag_247:\n        /* \"#utility.yul\":11037:11041   */\n      dup3\n        /* \"#utility.yul\":11030:11135   */\n      sstore\n        /* \"#utility.yul\":10948:11141   */\n      pop\n        /* \"#utility.yul\":10872:11141   */\n      pop\n      pop\n      pop\n      jump\t// out\n        /* \"#utility.yul\":11147:11220   */\n    tag_115:\n        /* \"#utility.yul\":11192:11195   */\n      0x00\n        /* \"#utility.yul\":11147:11220   */\n      swap1\n      jump\t// out\n        /* \"#utility.yul\":11226:11415   */\n    tag_116:\n        /* \"#utility.yul\":11303:11335   */\n      tag_251\n      tag_115\n      jump\t// in\n    tag_251:\n        /* \"#utility.yul\":11344:11409   */\n      tag_252\n        /* \"#utility.yul\":11402:11408   */\n      dup2\n        /* \"#utility.yul\":11394:11400   */\n      dup5\n        /* \"#utility.yul\":11388:11392   */\n      dup5\n        /* \"#utility.yul\":11344:11409   */\n      tag_114\n      jump\t// in\n    tag_252:\n        /* \"#utility.yul\":11279:11415   */\n      pop\n        /* \"#utility.yul\":11226:11415   */\n      pop\n      pop\n      jump\t// out\n        /* \"#utility.yul\":11421:11607   */\n    tag_117:\n        /* \"#utility.yul\":11481:11601   */\n    tag_254:\n        /* \"#utility.yul\":11498:11501   */\n      dup2\n        /* \"#utility.yul\":11491:11496   */\n      dup2\n        /* \"#utility.yul\":11488:11502   */\n      lt\n        /* \"#utility.yul\":11481:11601   */\n      iszero\n      tag_256\n      jumpi\n        /* \"#utility.yul\":11552:11591   */\n      tag_257\n        /* \"#utility.yul\":11589:11590   */\n      0x00\n        /* \"#utility.yul\":11582:11587   */\n      dup3\n        /* \"#utility.yul\":11552:11591   */\n      tag_116\n      jump\t// in\n    tag_257:\n        /* \"#utility.yul\":11525:11526   */\n      0x01\n        /* \"#utility.yul\":11518:11523   */\n      dup2\n        /* \"#utility.yul\":11514:11527   */\n      add\n        /* \"#utility.yul\":11505:11527   */\n      swap1\n      pop\n        /* \"#utility.yul\":11481:11601   */\n      jump(tag_254)\n    tag_256:\n        /* \"#utility.yul\":11421:11607   */\n      pop\n      pop\n      jump\t// out\n        /* \"#utility.yul\":11613:12156   */\n    tag_118:\n        /* \"#utility.yul\":11714:11716   */\n      0x1f\n        /* \"#utility.yul\":11709:11712   */\n      dup3\n        /* \"#utility.yul\":11706:11717   */\n      gt\n        /* \"#utility.yul\":11703:12149   */\n      iszero\n      tag_259\n      jumpi\n        /* \"#utility.yul\":11748:11786   */\n      tag_260\n        /* \"#utility.yul\":11780:11785   */\n      dup2\n        /* \"#utility.yul\":11748:11786   */\n      tag_107\n      jump\t// in\n    tag_260:\n        /* \"#utility.yul\":11832:11861   */\n      tag_261\n        /* \"#utility.yul\":11850:11860   */\n      dup5\n        /* \"#utility.yul\":11832:11861   */\n      tag_108\n      jump\t// in\n    tag_261:\n        /* \"#utility.yul\":11822:11830   */\n      dup2\n        /* \"#utility.yul\":11818:11862   */\n      add\n        /* \"#utility.yul\":12015:12017   */\n      0x20\n        /* \"#utility.yul\":12003:12013   */\n      dup6\n        /* \"#utility.yul\":12000:12018   */\n      lt\n        /* \"#utility.yul\":11997:12046   */\n      iszero\n      tag_262\n      jumpi\n        /* \"#utility.yul\":12036:12044   */\n      dup2\n        /* \"#utility.yul\":12021:12044   */\n      swap1\n      pop\n        /* \"#utility.yul\":11997:12046   */\n    tag_262:\n        /* \"#utility.yul\":12059:12139   */\n      tag_263\n        /* \"#utility.yul\":12115:12137   */\n      tag_264\n        /* \"#utility.yul\":12133:12136   */\n      dup6\n        /* \"#utility.yul\":12115:12137   */\n      tag_108\n      jump\t// in\n    tag_264:\n        /* \"#utility.yul\":12105:12113   */\n      dup4\n        /* \"#utility.yul\":12101:12138   */\n      add\n        /* \"#utility.yul\":12088:12099   */\n      dup3\n        /* \"#utility.yul\":12059:12139   */\n      tag_117\n      jump\t// in\n    tag_263:\n        /* \"#utility.yul\":11718:12149   */\n      pop\n      pop\n        /* \"#utility.yul\":11703:12149   */\n    tag_259:\n        /* \"#utility.yul\":11613:12156   */\n      pop\n      pop\n      pop\n      jump\t// out\n        /* \"#utility.yul\":12162:12279   */\n    tag_119:\n        /* \"#utility.yul\":12216:12224   */\n      0x00\n        /* \"#utility.yul\":12266:12271   */\n      dup3\n        /* \"#utility.yul\":12260:12264   */\n      dup3\n        /* \"#utility.yul\":12256:12272   */\n      shr\n        /* \"#utility.yul\":12235:12272   */\n      swap1\n      pop\n        /* \"#utility.yul\":12162:12279   */\n      swap3\n      swap2\n      pop\n      pop\n      jump\t// out\n        /* \"#utility.yul\":12285:12454   */\n    tag_120:\n        /* \"#utility.yul\":12329:12335   */\n      0x00\n        /* \"#utility.yul\":12362:12413   */\n      tag_267\n        /* \"#utility.yul\":12410:12411   */\n      0x00\n        /* \"#utility.yul\":12406:12412   */\n      not\n        /* \"#utility.yul\":12398:12403   */\n      dup5\n        /* \"#utility.yul\":12395:12396   */\n      0x08\n        /* \"#utility.yul\":12391:12404   */\n      mul\n        /* \"#utility.yul\":12362:12413   */\n      tag_119\n      jump\t// in\n    tag_267:\n        /* \"#utility.yul\":12358:12414   */\n      not\n        /* \"#utility.yul\":12443:12447   */\n      dup1\n        /* \"#utility.yul\":12437:12441   */\n      dup4\n        /* \"#utility.yul\":12433:12448   */\n      and\n        /* \"#utility.yul\":12423:12448   */\n      swap2\n      pop\n        /* \"#utility.yul\":12336:12454   */\n      pop\n        /* \"#utility.yul\":12285:12454   */\n      swap3\n      swap2\n      pop\n      pop\n      jump\t// out\n        /* \"#utility.yul\":12459:12754   */\n    tag_121:\n        /* \"#utility.yul\":12535:12539   */\n      0x00\n        /* \"#utility.yul\":12681:12710   */\n      tag_269\n        /* \"#utility.yul\":12706:12709   */\n      dup4\n        /* \"#utility.yul\":12700:12704   */\n      dup4\n        /* \"#utility.yul\":12681:12710   */\n      tag_120\n      jump\t// in\n    tag_269:\n        /* \"#utility.yul\":12673:12710   */\n      swap2\n      pop\n        /* \"#utility.yul\":12743:12746   */\n      dup3\n        /* \"#utility.yul\":12740:12741   */\n      0x02\n        /* \"#utility.yul\":12736:12747   */\n      mul\n        /* \"#utility.yul\":12730:12734   */\n      dup3\n        /* \"#utility.yul\":12727:12748   */\n      or\n        /* \"#utility.yul\":12719:12748   */\n      swap1\n      pop\n        /* \"#utility.yul\":12459:12754   */\n      swap3\n      swap2\n      pop\n      pop\n      jump\t// out\n        /* \"#utility.yul\":12759:14154   */\n    tag_48:\n        /* \"#utility.yul\":12876:12913   */\n      tag_271\n        /* \"#utility.yul\":12909:12912   */\n      dup3\n        /* \"#utility.yul\":12876:12913   */\n      tag_97\n      jump\t// in\n    tag_271:\n        /* \"#utility.yul\":12978:12996   */\n      0xffffffffffffffff\n        /* \"#utility.yul\":12970:12976   */\n      dup2\n        /* \"#utility.yul\":12967:12997   */\n      gt\n        /* \"#utility.yul\":12964:13020   */\n      iszero\n      tag_272\n      jumpi\n        /* \"#utility.yul\":13000:13018   */\n      tag_273\n      tag_86\n      jump\t// in\n    tag_273:\n        /* \"#utility.yul\":12964:13020   */\n    tag_272:\n        /* \"#utility.yul\":13044:13082   */\n      tag_274\n        /* \"#utility.yul\":13076:13080   */\n      dup3\n        /* \"#utility.yul\":13070:13081   */\n      sload\n        /* \"#utility.yul\":13044:13082   */\n      tag_58\n      jump\t// in\n    tag_274:\n        /* \"#utility.yul\":13129:13196   */\n      tag_275\n        /* \"#utility.yul\":13189:13195   */\n      dup3\n        /* \"#utility.yul\":13181:13187   */\n      dup3\n        /* \"#utility.yul\":13175:13179   */\n      dup6\n        /* \"#utility.yul\":13129:13196   */\n      tag_118\n      jump\t// in\n    tag_275:\n        /* \"#utility.yul\":13223:13224   */\n      0x00\n        /* \"#utility.yul\":13247:13251   */\n      0x20\n        /* \"#utility.yul\":13234:13251   */\n      swap1\n      pop\n        /* \"#utility.yul\":13279:13281   */\n      0x1f\n        /* \"#utility.yul\":13271:13277   */\n      dup4\n        /* \"#utility.yul\":13268:13282   */\n      gt\n        /* \"#utility.yul\":13296:13297   */\n      0x01\n        /* \"#utility.yul\":13291:13909   */\n      dup2\n      eq\n      tag_277\n      jumpi\n        /* \"#utility.yul\":13953:13954   */\n      0x00\n        /* \"#utility.yul\":13970:13976   */\n      dup5\n        /* \"#utility.yul\":13967:14044   */\n      iszero\n      tag_278\n      jumpi\n        /* \"#utility.yul\":14019:14028   */\n      dup3\n        /* \"#utility.yul\":14014:14017   */\n      dup8\n        /* \"#utility.yul\":14010:14029   */\n      add\n        /* \"#utility.yul\":14004:14030   */\n      mload\n        /* \"#utility.yul\":13995:14030   */\n      swap1\n      pop\n        /* \"#utility.yul\":13967:14044   */\n    tag_278:\n        /* \"#utility.yul\":14070:14137   */\n      tag_279\n        /* \"#utility.yul\":14130:14136   */\n      dup6\n        /* \"#utility.yul\":14123:14128   */\n      dup3\n        /* \"#utility.yul\":14070:14137   */\n      tag_121\n      jump\t// in\n    tag_279:\n        /* \"#utility.yul\":14064:14068   */\n      dup7\n        /* \"#utility.yul\":14057:14138   */\n      sstore\n        /* \"#utility.yul\":13926:14148   */\n      pop\n        /* \"#utility.yul\":13261:14148   */\n      jump(tag_276)\n        /* \"#utility.yul\":13291:13909   */\n    tag_277:\n        /* \"#utility.yul\":13343:13347   */\n      0x1f\n        /* \"#utility.yul\":13339:13348   */\n      not\n        /* \"#utility.yul\":13331:13337   */\n      dup5\n        /* \"#utility.yul\":13327:13349   */\n      and\n        /* \"#utility.yul\":13377:13414   */\n      tag_280\n        /* \"#utility.yul\":13409:13413   */\n      dup7\n        /* \"#utility.yul\":13377:13414   */\n      tag_107\n      jump\t// in\n    tag_280:\n        /* \"#utility.yul\":13436:13437   */\n      0x00\n        /* \"#utility.yul\":13450:13658   */\n    tag_281:\n        /* \"#utility.yul\":13464:13471   */\n      dup3\n        /* \"#utility.yul\":13461:13462   */\n      dup2\n        /* \"#utility.yul\":13458:13472   */\n      lt\n        /* \"#utility.yul\":13450:13658   */\n      iszero\n      tag_283\n      jumpi\n        /* \"#utility.yul\":13543:13552   */\n      dup5\n        /* \"#utility.yul\":13538:13541   */\n      dup10\n        /* \"#utility.yul\":13534:13553   */\n      add\n        /* \"#utility.yul\":13528:13554   */\n      mload\n        /* \"#utility.yul\":13520:13526   */\n      dup3\n        /* \"#utility.yul\":13513:13555   */\n      sstore\n        /* \"#utility.yul\":13594:13595   */\n      0x01\n        /* \"#utility.yul\":13586:13592   */\n      dup3\n        /* \"#utility.yul\":13582:13596   */\n      add\n        /* \"#utility.yul\":13572:13596   */\n      swap2\n      pop\n        /* \"#utility.yul\":13641:13643   */\n      0x20\n        /* \"#utility.yul\":13630:13639   */\n      dup6\n        /* \"#utility.yul\":13626:13644   */\n      add\n        /* \"#utility.yul\":13613:13644   */\n      swap5\n      pop\n        /* \"#utility.yul\":13487:13491   */\n      0x20\n        /* \"#utility.yul\":13484:13485   */\n      dup2\n        /* \"#utility.yul\":13480:13492   */\n      add\n        /* \"#utility.yul\":13475:13492   */\n      swap1\n      pop\n        /* \"#utility.yul\":13450:13658   */\n      jump(tag_281)\n    tag_283:\n        /* \"#utility.yul\":13686:13692   */\n      dup7\n        /* \"#utility.yul\":13677:13684   */\n      dup4\n        /* \"#utility.yul\":13674:13693   */\n      lt\n        /* \"#utility.yul\":13671:13850   */\n      iszero\n      tag_284\n      jumpi\n        /* \"#utility.yul\":13744:13753   */\n      dup5\n        /* \"#utility.yul\":13739:13742   */\n      dup10\n        /* \"#utility.yul\":13735:13754   */\n      add\n        /* \"#utility.yul\":13729:13755   */\n      mload\n        /* \"#utility.yul\":13787:13835   */\n      tag_285\n        /* \"#utility.yul\":13829:13833   */\n      0x1f\n        /* \"#utility.yul\":13821:13827   */\n      dup10\n        /* \"#utility.yul\":13817:13834   */\n      and\n        /* \"#utility.yul\":13806:13815   */\n      dup3\n        /* \"#utility.yul\":13787:13835   */\n      tag_120\n      jump\t// in\n    tag_285:\n        /* \"#utility.yul\":13779:13785   */\n      dup4\n        /* \"#utility.yul\":13772:13836   */\n      sstore\n        /* \"#utility.yul\":13694:13850   */\n      pop\n        /* \"#utility.yul\":13671:13850   */\n    tag_284:\n        /* \"#utility.yul\":13896:13897   */\n      0x01\n        /* \"#utility.yul\":13892:13893   */\n      0x02\n        /* \"#utility.yul\":13884:13890   */\n      dup9\n        /* \"#utility.yul\":13880:13894   */\n      mul\n        /* \"#utility.yul\":13876:13898   */\n      add\n        /* \"#utility.yul\":13870:13874   */\n      dup9\n        /* \"#utility.yul\":13863:13899   */\n      sstore\n        /* \"#utility.yul\":13298:13909   */\n      pop\n      pop\n      pop\n        /* \"#utility.yul\":13261:14148   */\n    tag_276:\n      pop\n        /* \"#utility.yul\":12851:14154   */\n      pop\n      pop\n      pop\n        /* \"#utility.yul\":12759:14154   */\n      pop\n      pop\n      jump\t// out\n        /* \"#utility.yul\":14160:14340   */\n    tag_122:\n        /* \"#utility.yul\":14208:14285   */\n      0x4e487b7100000000000000000000000000000000000000000000000000000000\n        /* \"#utility.yul\":14205:14206   */\n      0x00\n        /* \"#utility.yul\":14198:14286   */\n      mstore\n        /* \"#utility.yul\":14305:14309   */\n      0x11\n        /* \"#utility.yul\":14302:14303   */\n      0x04\n        /* \"#utility.yul\":14295:14310   */\n      mstore\n        /* \"#utility.yul\":14329:14333   */\n      0x24\n        /* \"#utility.yul\":14326:14327   */\n      0x00\n        /* \"#utility.yul\":14319:14334   */\n      revert\n        /* \"#utility.yul\":14346:14579   */\n    tag_51:\n        /* \"#utility.yul\":14385:14388   */\n      0x00\n        /* \"#utility.yul\":14408:14432   */\n      tag_288\n        /* \"#utility.yul\":14426:14431   */\n      dup3\n        /* \"#utility.yul\":14408:14432   */\n      tag_93\n      jump\t// in\n    tag_288:\n        /* \"#utility.yul\":14399:14432   */\n      swap2\n      pop\n        /* \"#utility.yul\":14454:14520   */\n      0xffffffffffffffffffffffffffffffffffffffffffffffffffffffffffffffff\n        /* \"#utility.yul\":14447:14452   */\n      dup3\n        /* \"#utility.yul\":14444:14521   */\n      sub\n        /* \"#utility.yul\":14441:14544   */\n      tag_289\n      jumpi\n        /* \"#utility.yul\":14524:14542   */\n      tag_290\n      tag_122\n      jump\t// in\n    tag_290:\n        /* \"#utility.yul\":14441:14544   */\n    tag_289:\n        /* \"#utility.yul\":14571:14572   */\n      0x01\n        /* \"#utility.yul\":14564:14569   */\n      dup3\n        /* \"#utility.yul\":14560:14573   */\n      add\n        /* \"#utility.yul\":14553:14573   */\n      swap1\n      pop\n        /* \"#utility.yul\":14346:14579   */\n      swap2\n      swap1\n      pop\n      jump\t// out\n        /* \"#utility.yul\":14585:14765   */\n    tag_71:\n        /* \"#utility.yul\":14633:14710   */\n      0x4e487b7100000000000000000000000000000000000000000000000000000000\n        /* \"#utility.yul\":14630:14631   */\n      0x00\n        /* \"#utility.yul\":14623:14711   */\n      mstore\n        /* \"#utility.yul\":14730:14734   */\n      0x32\n        /* \"#utility.yul\":14727:14728   */\n      0x04\n        /* \"#utility.yul\":14720:14735   */\n      mstore\n        /* \"#utility.yul\":14754:14758   */\n      0x24\n        /* \"#utility.yul\":14751:14752   */\n      0x00\n        /* \"#utility.yul\":14744:14759   */\n      revert\n\n    auxdata: 0xa26469706673582212209a0e14b9593a97c3680dde8c28f031dbb0276dcf400a742f13ab52ff34e0e59a64736f6c634300080f0033\n}\n",
				"bytecode": {
					"linkReferences": {},
					"object": "6080604052600060035534801561001557600080fd5b50610eb7806100256000396000f3fe608060405234801561001057600080fd5b506004361061007d5760003560e01c80632b9af5031161005b5780632b9af503146100ec5780634b4a80ba1461011d57806399b956a01461014f578063a9bb0fa11461017f5761007d565b806318b8275a146100825780631bc7ffe91461009e57806325503b4f146100d0575b600080fd5b61009c6004803603810190610097919061076a565b61019b565b005b6100b860048036038101906100b391906107e9565b6101ea565b6040516100c7939291906108dc565b60405180910390f35b6100ea60048036038101906100e59190610978565b6102ca565b005b610106600480360381019061010191906109cb565b610389565b604051610114929190610a1a565b60405180910390f35b61013760048036038101906101329190610a43565b6103ea565b60405161014693929190610a70565b60405180910390f35b61016960048036038101906101649190610aae565b6104bc565b6040516101769190610adb565b60405180910390f35b61019960048036038101906101949190610a43565b61055c565b005b806000803373ffffffffffffffffffffffffffffffffffffffff1673ffffffffffffffffffffffffffffffffffffffff16815260200190815260200160002090816101e69190610d09565b5050565b6000606060006003600081548092919061020390610e0a565b919050555060405180606001604052808681526020018581526020013373ffffffffffffffffffffffffffffffffffffffff1681525060016000600354815260200190815260200160002060008201518160000190816102639190610d09565b506020820151816001015560408201518160020160006101000a81548173ffffffffffffffffffffffffffffffffffffffff021916908373ffffffffffffffffffffffffffffffffffffffff16021790555090505060035485859250925092509250925092565b6002600084815260200190815260200160002060405180604001604052808381526020018473ffffffffffffffffffffffffffffffffffffffff1681525090806001815401808255809150506001900390600052602060002090600202016000909190919091506000820151816000015560208201518160010160006101000a81548173ffffffffffffffffffffffffffffffffffffffff021916908373ffffffffffffffffffffffffffffffffffffffff1602179055505050505050565b600260205281600052604060002081815481106103a557600080fd5b9060005260206000209060020201600091509150508060000154908060010160009054906101000a900473ffffffffffffffffffffffffffffffffffffffff16905082565b600160205280600052604060002060009150905080600001805461040d90610b2c565b80601f016020809104026020016040519081016040528092919081815260200182805461043990610b2c565b80156104865780601f1061045b57610100808354040283529160200191610486565b820191906000526020600020905b81548152906001019060200180831161046957829003601f168201915b5050505050908060010154908060020160009054906101000a900473ffffffffffffffffffffffffffffffffffffffff16905083565b600060205280600052604060002060009150905080546104db90610b2c565b80601f016020809104026020016040519081016040528092919081815260200182805461050790610b2c565b80156105545780601f1061052957610100808354040283529160200191610554565b820191906000526020600020905b81548152906001019060200180831161053757829003601f168201915b505050505081565b60006002600083815260200190815260200160002080549050905060006002600084815260200190815260200160002060008154811061059f5761059e610e52565b5b90600052602060002090600202016000015490506000600260008581526020019081526020016000206000815481106105db576105da610e52565b5b90600052602060002090600202016000015490505b82811161060a57808061060290610e0a565b9150506105f0565b50505050565b6000604051905090565b600080fd5b600080fd5b600080fd5b600080fd5b6000601f19601f8301169050919050565b7f4e487b7100000000000000000000000000000000000000000000000000000000600052604160045260246000fd5b6106778261062e565b810181811067ffffffffffffffff821117156106965761069561063f565b5b80604052505050565b60006106a9610610565b90506106b5828261066e565b919050565b600067ffffffffffffffff8211156106d5576106d461063f565b5b6106de8261062e565b9050602081019050919050565b82818337600083830152505050565b600061070d610708846106ba565b61069f565b90508281526020810184848401111561072957610728610629565b5b6107348482856106eb565b509392505050565b600082601f83011261075157610750610624565b5b81356107618482602086016106fa565b91505092915050565b6000602082840312156107805761077f61061a565b5b600082013567ffffffffffffffff81111561079e5761079d61061f565b5b6107aa8482850161073c565b91505092915050565b6000819050919050565b6107c6816107b3565b81146107d157600080fd5b50565b6000813590506107e3816107bd565b92915050565b60008060408385031215610800576107ff61061a565b5b600083013567ffffffffffffffff81111561081e5761081d61061f565b5b61082a8582860161073c565b925050602061083b858286016107d4565b9150509250929050565b61084e816107b3565b82525050565b600081519050919050565b600082825260208201905092915050565b60005b8381101561088e578082015181840152602081019050610873565b8381111561089d576000848401525b50505050565b60006108ae82610854565b6108b8818561085f565b93506108c8818560208601610870565b6108d18161062e565b840191505092915050565b60006060820190506108f16000830186610845565b818103602083015261090381856108a3565b90506109126040830184610845565b949350505050565b600073ffffffffffffffffffffffffffffffffffffffff82169050919050565b60006109458261091a565b9050919050565b6109558161093a565b811461096057600080fd5b50565b6000813590506109728161094c565b92915050565b6000806000606084860312156109915761099061061a565b5b600061099f868287016107d4565b93505060206109b086828701610963565b92505060406109c1868287016107d4565b9150509250925092565b600080604083850312156109e2576109e161061a565b5b60006109f0858286016107d4565b9250506020610a01858286016107d4565b9150509250929050565b610a148161093a565b82525050565b6000604082019050610a2f6000830185610845565b610a3c6020830184610a0b565b9392505050565b600060208284031215610a5957610a5861061a565b5b6000610a67848285016107d4565b91505092915050565b60006060820190508181036000830152610a8a81866108a3565b9050610a996020830185610845565b610aa66040830184610a0b565b949350505050565b600060208284031215610ac457610ac361061a565b5b6000610ad284828501610963565b91505092915050565b60006020820190508181036000830152610af581846108a3565b905092915050565b7f4e487b7100000000000000000000000000000000000000000000000000000000600052602260045260246000fd5b60006002820490506001821680610b4457607f821691505b602082108103610b5757610b56610afd565b5b50919050565b60008190508160005260206000209050919050565b60006020601f8301049050919050565b600082821b905092915050565b600060088302610bbf7fffffffffffffffffffffffffffffffffffffffffffffffffffffffffffffffff82610b82565b610bc98683610b82565b95508019841693508086168417925050509392505050565b6000819050919050565b6000610c06610c01610bfc846107b3565b610be1565b6107b3565b9050919050565b6000819050919050565b610c2083610beb565b610c34610c2c82610c0d565b848454610b8f565b825550505050565b600090565b610c49610c3c565b610c54818484610c17565b505050565b5b81811015610c7857610c6d600082610c41565b600181019050610c5a565b5050565b601f821115610cbd57610c8e81610b5d565b610c9784610b72565b81016020851015610ca6578190505b610cba610cb285610b72565b830182610c59565b50505b505050565b600082821c905092915050565b6000610ce060001984600802610cc2565b1980831691505092915050565b6000610cf98383610ccf565b9150826002028217905092915050565b610d1282610854565b67ffffffffffffffff811115610d2b57610d2a61063f565b5b610d358254610b2c565b610d40828285610c7c565b600060209050601f831160018114610d735760008415610d61578287015190505b610d6b8582610ced565b865550610dd3565b601f198416610d8186610b5d565b60005b82811015610da957848901518255600182019150602085019450602081019050610d84565b86831015610dc65784890151610dc2601f891682610ccf565b8355505b6001600288020188555050505b505050505050565b7f4e487b7100000000000000000000000000000000000000000000000000000000600052601160045260246000fd5b6000610e15826107b3565b91507fffffffffffffffffffffffffffffffffffffffffffffffffffffffffffffffff8203610e4757610e46610ddb565b5b600182019050919050565b7f4e487b7100000000000000000000000000000000000000000000000000000000600052603260045260246000fdfea26469706673582212209a0e14b9593a97c3680dde8c28f031dbb0276dcf400a742f13ab52ff34e0e59a64736f6c634300080f0033",
					"opcodes": "PUSH1 0x80 PUSH1 0x40 MSTORE PUSH1 0x0 PUSH1 0x3 SSTORE CALLVALUE DUP1 ISZERO PUSH2 0x15 JUMPI PUSH1 0x0 DUP1 REVERT JUMPDEST POP PUSH2 0xEB7 DUP1 PUSH2 0x25 PUSH1 0x0 CODECOPY PUSH1 0x0 RETURN INVALID PUSH1 0x80 PUSH1 0x40 MSTORE CALLVALUE DUP1 ISZERO PUSH2 0x10 JUMPI PUSH1 0x0 DUP1 REVERT JUMPDEST POP PUSH1 0x4 CALLDATASIZE LT PUSH2 0x7D JUMPI PUSH1 0x0 CALLDATALOAD PUSH1 0xE0 SHR DUP1 PUSH4 0x2B9AF503 GT PUSH2 0x5B JUMPI DUP1 PUSH4 0x2B9AF503 EQ PUSH2 0xEC JUMPI DUP1 PUSH4 0x4B4A80BA EQ PUSH2 0x11D JUMPI DUP1 PUSH4 0x99B956A0 EQ PUSH2 0x14F JUMPI DUP1 PUSH4 0xA9BB0FA1 EQ PUSH2 0x17F JUMPI PUSH2 0x7D JUMP JUMPDEST DUP1 PUSH4 0x18B8275A EQ PUSH2 0x82 JUMPI DUP1 PUSH4 0x1BC7FFE9 EQ PUSH2 0x9E JUMPI DUP1 PUSH4 0x25503B4F EQ PUSH2 0xD0 JUMPI JUMPDEST PUSH1 0x0 DUP1 REVERT JUMPDEST PUSH2 0x9C PUSH1 0x4 DUP1 CALLDATASIZE SUB DUP2 ADD SWAP1 PUSH2 0x97 SWAP2 SWAP1 PUSH2 0x76A JUMP JUMPDEST PUSH2 0x19B JUMP JUMPDEST STOP JUMPDEST PUSH2 0xB8 PUSH1 0x4 DUP1 CALLDATASIZE SUB DUP2 ADD SWAP1 PUSH2 0xB3 SWAP2 SWAP1 PUSH2 0x7E9 JUMP JUMPDEST PUSH2 0x1EA JUMP JUMPDEST PUSH1 0x40 MLOAD PUSH2 0xC7 SWAP4 SWAP3 SWAP2 SWAP1 PUSH2 0x8DC JUMP JUMPDEST PUSH1 0x40 MLOAD DUP1 SWAP2 SUB SWAP1 RETURN JUMPDEST PUSH2 0xEA PUSH1 0x4 DUP1 CALLDATASIZE SUB DUP2 ADD SWAP1 PUSH2 0xE5 SWAP2 SWAP1 PUSH2 0x978 JUMP JUMPDEST PUSH2 0x2CA JUMP JUMPDEST STOP JUMPDEST PUSH2 0x106 PUSH1 0x4 DUP1 CALLDATASIZE SUB DUP2 ADD SWAP1 PUSH2 0x101 SWAP2 SWAP1 PUSH2 0x9CB JUMP JUMPDEST PUSH2 0x389 JUMP JUMPDEST PUSH1 0x40 MLOAD PUSH2 0x114 SWAP3 SWAP2 SWAP1 PUSH2 0xA1A JUMP JUMPDEST PUSH1 0x40 MLOAD DUP1 SWAP2 SUB SWAP1 RETURN JUMPDEST PUSH2 0x137 PUSH1 0x4 DUP1 CALLDATASIZE SUB DUP2 ADD SWAP1 PUSH2 0x132 SWAP2 SWAP1 PUSH2 0xA43 JUMP JUMPDEST PUSH2 0x3EA JUMP JUMPDEST PUSH1 0x40 MLOAD PUSH2 0x146 SWAP4 SWAP3 SWAP2 SWAP1 PUSH2 0xA70 JUMP JUMPDEST PUSH1 0x40 MLOAD DUP1 SWAP2 SUB SWAP1 RETURN JUMPDEST PUSH2 0x169 PUSH1 0x4 DUP1 CALLDATASIZE SUB DUP2 ADD SWAP1 PUSH2 0x164 SWAP2 SWAP1 PUSH2 0xAAE JUMP JUMPDEST PUSH2 0x4BC JUMP JUMPDEST PUSH1 0x40 MLOAD PUSH2 0x176 SWAP2 SWAP1 PUSH2 0xADB JUMP JUMPDEST PUSH1 0x40 MLOAD DUP1 SWAP2 SUB SWAP1 RETURN JUMPDEST PUSH2 0x199 PUSH1 0x4 DUP1 CALLDATASIZE SUB DUP2 ADD SWAP1 PUSH2 0x194 SWAP2 SWAP1 PUSH2 0xA43 JUMP JUMPDEST PUSH2 0x55C JUMP JUMPDEST STOP JUMPDEST DUP1 PUSH1 0x0 DUP1 CALLER PUSH20 0xFFFFFFFFFFFFFFFFFFFFFFFFFFFFFFFFFFFFFFFF AND PUSH20 0xFFFFFFFFFFFFFFFFFFFFFFFFFFFFFFFFFFFFFFFF AND DUP2 MSTORE PUSH1 0x20 ADD SWAP1 DUP2 MSTORE PUSH1 0x20 ADD PUSH1 0x0 KECCAK256 SWAP1 DUP2 PUSH2 0x1E6 SWAP2 SWAP1 PUSH2 0xD09 JUMP JUMPDEST POP POP JUMP JUMPDEST PUSH1 0x0 PUSH1 0x60 PUSH1 0x0 PUSH1 0x3 PUSH1 0x0 DUP2 SLOAD DUP1 SWAP3 SWAP2 SWAP1 PUSH2 0x203 SWAP1 PUSH2 0xE0A JUMP JUMPDEST SWAP2 SWAP1 POP SSTORE POP PUSH1 0x40 MLOAD DUP1 PUSH1 0x60 ADD PUSH1 0x40 MSTORE DUP1 DUP7 DUP2 MSTORE PUSH1 0x20 ADD DUP6 DUP2 MSTORE PUSH1 0x20 ADD CALLER PUSH20 0xFFFFFFFFFFFFFFFFFFFFFFFFFFFFFFFFFFFFFFFF AND DUP2 MSTORE POP PUSH1 0x1 PUSH1 0x0 PUSH1 0x3 SLOAD DUP2 MSTORE PUSH1 0x20 ADD SWAP1 DUP2 MSTORE PUSH1 0x20 ADD PUSH1 0x0 KECCAK256 PUSH1 0x0 DUP3 ADD MLOAD DUP2 PUSH1 0x0 ADD SWAP1 DUP2 PUSH2 0x263 SWAP2 SWAP1 PUSH2 0xD09 JUMP JUMPDEST POP PUSH1 0x20 DUP3 ADD MLOAD DUP2 PUSH1 0x1 ADD SSTORE PUSH1 0x40 DUP3 ADD MLOAD DUP2 PUSH1 0x2 ADD PUSH1 0x0 PUSH2 0x100 EXP DUP2 SLOAD DUP2 PUSH20 0xFFFFFFFFFFFFFFFFFFFFFFFFFFFFFFFFFFFFFFFF MUL NOT AND SWAP1 DUP4 PUSH20 0xFFFFFFFFFFFFFFFFFFFFFFFFFFFFFFFFFFFFFFFF AND MUL OR SWAP1 SSTORE POP SWAP1 POP POP PUSH1 0x3 SLOAD DUP6 DUP6 SWAP3 POP SWAP3 POP SWAP3 POP SWAP3 POP SWAP3 POP SWAP3 JUMP JUMPDEST PUSH1 0x2 PUSH1 0x0 DUP5 DUP2 MSTORE PUSH1 0x20 ADD SWAP1 DUP2 MSTORE PUSH1 0x20 ADD PUSH1 0x0 KECCAK256 PUSH1 0x40 MLOAD DUP1 PUSH1 0x40 ADD PUSH1 0x40 MSTORE DUP1 DUP4 DUP2 MSTORE PUSH1 0x20 ADD DUP5 PUSH20 0xFFFFFFFFFFFFFFFFFFFFFFFFFFFFFFFFFFFFFFFF AND DUP2 MSTORE POP SWAP1 DUP1 PUSH1 0x1 DUP2 SLOAD ADD DUP1 DUP3 SSTORE DUP1 SWAP2 POP POP PUSH1 0x1 SWAP1 SUB SWAP1 PUSH1 0x0 MSTORE PUSH1 0x20 PUSH1 0x0 KECCAK256 SWAP1 PUSH1 0x2 MUL ADD PUSH1 0x0 SWAP1 SWAP2 SWAP1 SWAP2 SWAP1 SWAP2 POP PUSH1 0x0 DUP3 ADD MLOAD DUP2 PUSH1 0x0 ADD SSTORE PUSH1 0x20 DUP3 ADD MLOAD DUP2 PUSH1 0x1 ADD PUSH1 0x0 PUSH2 0x100 EXP DUP2 SLOAD DUP2 PUSH20 0xFFFFFFFFFFFFFFFFFFFFFFFFFFFFFFFFFFFFFFFF MUL NOT AND SWAP1 DUP4 PUSH20 0xFFFFFFFFFFFFFFFFFFFFFFFFFFFFFFFFFFFFFFFF AND MUL OR SWAP1 SSTORE POP POP POP POP POP POP JUMP JUMPDEST PUSH1 0x2 PUSH1 0x20 MSTORE DUP2 PUSH1 0x0 MSTORE PUSH1 0x40 PUSH1 0x0 KECCAK256 DUP2 DUP2 SLOAD DUP2 LT PUSH2 0x3A5 JUMPI PUSH1 0x0 DUP1 REVERT JUMPDEST SWAP1 PUSH1 0x0 MSTORE PUSH1 0x20 PUSH1 0x0 KECCAK256 SWAP1 PUSH1 0x2 MUL ADD PUSH1 0x0 SWAP2 POP SWAP2 POP POP DUP1 PUSH1 0x0 ADD SLOAD SWAP1 DUP1 PUSH1 0x1 ADD PUSH1 0x0 SWAP1 SLOAD SWAP1 PUSH2 0x100 EXP SWAP1 DIV PUSH20 0xFFFFFFFFFFFFFFFFFFFFFFFFFFFFFFFFFFFFFFFF AND SWAP1 POP DUP3 JUMP JUMPDEST PUSH1 0x1 PUSH1 0x20 MSTORE DUP1 PUSH1 0x0 MSTORE PUSH1 0x40 PUSH1 0x0 KECCAK256 PUSH1 0x0 SWAP2 POP SWAP1 POP DUP1 PUSH1 0x0 ADD DUP1 SLOAD PUSH2 0x40D SWAP1 PUSH2 0xB2C JUMP JUMPDEST DUP1 PUSH1 0x1F ADD PUSH1 0x20 DUP1 SWAP2 DIV MUL PUSH1 0x20 ADD PUSH1 0x40 MLOAD SWAP1 DUP2 ADD PUSH1 0x40 MSTORE DUP1 SWAP3 SWAP2 SWAP1 DUP2 DUP2 MSTORE PUSH1 0x20 ADD DUP3 DUP1 SLOAD PUSH2 0x439 SWAP1 PUSH2 0xB2C JUMP JUMPDEST DUP1 ISZERO PUSH2 0x486 JUMPI DUP1 PUSH1 0x1F LT PUSH2 0x45B JUMPI PUSH2 0x100 DUP1 DUP4 SLOAD DIV MUL DUP4 MSTORE SWAP2 PUSH1 0x20 ADD SWAP2 PUSH2 0x486 JUMP JUMPDEST DUP3 ADD SWAP2 SWAP1 PUSH1 0x0 MSTORE PUSH1 0x20 PUSH1 0x0 KECCAK256 SWAP1 JUMPDEST DUP2 SLOAD DUP2 MSTORE SWAP1 PUSH1 0x1 ADD SWAP1 PUSH1 0x20 ADD DUP1 DUP4 GT PUSH2 0x469 JUMPI DUP3 SWAP1 SUB PUSH1 0x1F AND DUP3 ADD SWAP2 JUMPDEST POP POP POP POP POP SWAP1 DUP1 PUSH1 0x1 ADD SLOAD SWAP1 DUP1 PUSH1 0x2 ADD PUSH1 0x0 SWAP1 SLOAD SWAP1 PUSH2 0x100 EXP SWAP1 DIV PUSH20 0xFFFFFFFFFFFFFFFFFFFFFFFFFFFFFFFFFFFFFFFF AND SWAP1 POP DUP4 JUMP JUMPDEST PUSH1 0x0 PUSH1 0x20 MSTORE DUP1 PUSH1 0x0 MSTORE PUSH1 0x40 PUSH1 0x0 KECCAK256 PUSH1 0x0 SWAP2 POP SWAP1 POP DUP1 SLOAD PUSH2 0x4DB SWAP1 PUSH2 0xB2C JUMP JUMPDEST DUP1 PUSH1 0x1F ADD PUSH1 0x20 DUP1 SWAP2 DIV MUL PUSH1 0x20 ADD PUSH1 0x40 MLOAD SWAP1 DUP2 ADD PUSH1 0x40 MSTORE DUP1 SWAP3 SWAP2 SWAP1 DUP2 DUP2 MSTORE PUSH1 0x20 ADD DUP3 DUP1 SLOAD PUSH2 0x507 SWAP1 PUSH2 0xB2C JUMP JUMPDEST DUP1 ISZERO PUSH2 0x554 JUMPI DUP1 PUSH1 0x1F LT PUSH2 0x529 JUMPI PUSH2 0x100 DUP1 DUP4 SLOAD DIV MUL DUP4 MSTORE SWAP2 PUSH1 0x20 ADD SWAP2 PUSH2 0x554 JUMP JUMPDEST DUP3 ADD SWAP2 SWAP1 PUSH1 0x0 MSTORE PUSH1 0x20 PUSH1 0x0 KECCAK256 SWAP1 JUMPDEST DUP2 SLOAD DUP2 MSTORE SWAP1 PUSH1 0x1 ADD SWAP1 PUSH1 0x20 ADD DUP1 DUP4 GT PUSH2 0x537 JUMPI DUP3 SWAP1 SUB PUSH1 0x1F AND DUP3 ADD SWAP2 JUMPDEST POP POP POP POP POP DUP2 JUMP JUMPDEST PUSH1 0x0 PUSH1 0x2 PUSH1 0x0 DUP4 DUP2 MSTORE PUSH1 0x20 ADD SWAP1 DUP2 MSTORE PUSH1 0x20 ADD PUSH1 0x0 KECCAK256 DUP1 SLOAD SWAP1 POP SWAP1 POP PUSH1 0x0 PUSH1 0x2 PUSH1 0x0 DUP5 DUP2 MSTORE PUSH1 0x20 ADD SWAP1 DUP2 MSTORE PUSH1 0x20 ADD PUSH1 0x0 KECCAK256 PUSH1 0x0 DUP2 SLOAD DUP2 LT PUSH2 0x59F JUMPI PUSH2 0x59E PUSH2 0xE52 JUMP JUMPDEST JUMPDEST SWAP1 PUSH1 0x0 MSTORE PUSH1 0x20 PUSH1 0x0 KECCAK256 SWAP1 PUSH1 0x2 MUL ADD PUSH1 0x0 ADD SLOAD SWAP1 POP PUSH1 0x0 PUSH1 0x2 PUSH1 0x0 DUP6 DUP2 MSTORE PUSH1 0x20 ADD SWAP1 DUP2 MSTORE PUSH1 0x20 ADD PUSH1 0x0 KECCAK256 PUSH1 0x0 DUP2 SLOAD DUP2 LT PUSH2 0x5DB JUMPI PUSH2 0x5DA PUSH2 0xE52 JUMP JUMPDEST JUMPDEST SWAP1 PUSH1 0x0 MSTORE PUSH1 0x20 PUSH1 0x0 KECCAK256 SWAP1 PUSH1 0x2 MUL ADD PUSH1 0x0 ADD SLOAD SWAP1 POP JUMPDEST DUP3 DUP2 GT PUSH2 0x60A JUMPI DUP1 DUP1 PUSH2 0x602 SWAP1 PUSH2 0xE0A JUMP JUMPDEST SWAP2 POP POP PUSH2 0x5F0 JUMP JUMPDEST POP POP POP POP JUMP JUMPDEST PUSH1 0x0 PUSH1 0x40 MLOAD SWAP1 POP SWAP1 JUMP JUMPDEST PUSH1 0x0 DUP1 REVERT JUMPDEST PUSH1 0x0 DUP1 REVERT JUMPDEST PUSH1 0x0 DUP1 REVERT JUMPDEST PUSH1 0x0 DUP1 REVERT JUMPDEST PUSH1 0x0 PUSH1 0x1F NOT PUSH1 0x1F DUP4 ADD AND SWAP1 POP SWAP2 SWAP1 POP JUMP JUMPDEST PUSH32 0x4E487B7100000000000000000000000000000000000000000000000000000000 PUSH1 0x0 MSTORE PUSH1 0x41 PUSH1 0x4 MSTORE PUSH1 0x24 PUSH1 0x0 REVERT JUMPDEST PUSH2 0x677 DUP3 PUSH2 0x62E JUMP JUMPDEST DUP2 ADD DUP2 DUP2 LT PUSH8 0xFFFFFFFFFFFFFFFF DUP3 GT OR ISZERO PUSH2 0x696 JUMPI PUSH2 0x695 PUSH2 0x63F JUMP JUMPDEST JUMPDEST DUP1 PUSH1 0x40 MSTORE POP POP POP JUMP JUMPDEST PUSH1 0x0 PUSH2 0x6A9 PUSH2 0x610 JUMP JUMPDEST SWAP1 POP PUSH2 0x6B5 DUP3 DUP3 PUSH2 0x66E JUMP JUMPDEST SWAP2 SWAP1 POP JUMP JUMPDEST PUSH1 0x0 PUSH8 0xFFFFFFFFFFFFFFFF DUP3 GT ISZERO PUSH2 0x6D5 JUMPI PUSH2 0x6D4 PUSH2 0x63F JUMP JUMPDEST JUMPDEST PUSH2 0x6DE DUP3 PUSH2 0x62E JUMP JUMPDEST SWAP1 POP PUSH1 0x20 DUP2 ADD SWAP1 POP SWAP2 SWAP1 POP JUMP JUMPDEST DUP3 DUP2 DUP4 CALLDATACOPY PUSH1 0x0 DUP4 DUP4 ADD MSTORE POP POP POP JUMP JUMPDEST PUSH1 0x0 PUSH2 0x70D PUSH2 0x708 DUP5 PUSH2 0x6BA JUMP JUMPDEST PUSH2 0x69F JUMP JUMPDEST SWAP1 POP DUP3 DUP2 MSTORE PUSH1 0x20 DUP2 ADD DUP5 DUP5 DUP5 ADD GT ISZERO PUSH2 0x729 JUMPI PUSH2 0x728 PUSH2 0x629 JUMP JUMPDEST JUMPDEST PUSH2 0x734 DUP5 DUP3 DUP6 PUSH2 0x6EB JUMP JUMPDEST POP SWAP4 SWAP3 POP POP POP JUMP JUMPDEST PUSH1 0x0 DUP3 PUSH1 0x1F DUP4 ADD SLT PUSH2 0x751 JUMPI PUSH2 0x750 PUSH2 0x624 JUMP JUMPDEST JUMPDEST DUP2 CALLDATALOAD PUSH2 0x761 DUP5 DUP3 PUSH1 0x20 DUP7 ADD PUSH2 0x6FA JUMP JUMPDEST SWAP2 POP POP SWAP3 SWAP2 POP POP JUMP JUMPDEST PUSH1 0x0 PUSH1 0x20 DUP3 DUP5 SUB SLT ISZERO PUSH2 0x780 JUMPI PUSH2 0x77F PUSH2 0x61A JUMP JUMPDEST JUMPDEST PUSH1 0x0 DUP3 ADD CALLDATALOAD PUSH8 0xFFFFFFFFFFFFFFFF DUP2 GT ISZERO PUSH2 0x79E JUMPI PUSH2 0x79D PUSH2 0x61F JUMP JUMPDEST JUMPDEST PUSH2 0x7AA DUP5 DUP3 DUP6 ADD PUSH2 0x73C JUMP JUMPDEST SWAP2 POP POP SWAP3 SWAP2 POP POP JUMP JUMPDEST PUSH1 0x0 DUP2 SWAP1 POP SWAP2 SWAP1 POP JUMP JUMPDEST PUSH2 0x7C6 DUP2 PUSH2 0x7B3 JUMP JUMPDEST DUP2 EQ PUSH2 0x7D1 JUMPI PUSH1 0x0 DUP1 REVERT JUMPDEST POP JUMP JUMPDEST PUSH1 0x0 DUP2 CALLDATALOAD SWAP1 POP PUSH2 0x7E3 DUP2 PUSH2 0x7BD JUMP JUMPDEST SWAP3 SWAP2 POP POP JUMP JUMPDEST PUSH1 0x0 DUP1 PUSH1 0x40 DUP4 DUP6 SUB SLT ISZERO PUSH2 0x800 JUMPI PUSH2 0x7FF PUSH2 0x61A JUMP JUMPDEST JUMPDEST PUSH1 0x0 DUP4 ADD CALLDATALOAD PUSH8 0xFFFFFFFFFFFFFFFF DUP2 GT ISZERO PUSH2 0x81E JUMPI PUSH2 0x81D PUSH2 0x61F JUMP JUMPDEST JUMPDEST PUSH2 0x82A DUP6 DUP3 DUP7 ADD PUSH2 0x73C JUMP JUMPDEST SWAP3 POP POP PUSH1 0x20 PUSH2 0x83B DUP6 DUP3 DUP7 ADD PUSH2 0x7D4 JUMP JUMPDEST SWAP2 POP POP SWAP3 POP SWAP3 SWAP1 POP JUMP JUMPDEST PUSH2 0x84E DUP2 PUSH2 0x7B3 JUMP JUMPDEST DUP3 MSTORE POP POP JUMP JUMPDEST PUSH1 0x0 DUP2 MLOAD SWAP1 POP SWAP2 SWAP1 POP JUMP JUMPDEST PUSH1 0x0 DUP3 DUP3 MSTORE PUSH1 0x20 DUP3 ADD SWAP1 POP SWAP3 SWAP2 POP POP JUMP JUMPDEST PUSH1 0x0 JUMPDEST DUP4 DUP2 LT ISZERO PUSH2 0x88E JUMPI DUP1 DUP3 ADD MLOAD DUP2 DUP5 ADD MSTORE PUSH1 0x20 DUP2 ADD SWAP1 POP PUSH2 0x873 JUMP JUMPDEST DUP4 DUP2 GT ISZERO PUSH2 0x89D JUMPI PUSH1 0x0 DUP5 DUP5 ADD MSTORE JUMPDEST POP POP POP POP JUMP JUMPDEST PUSH1 0x0 PUSH2 0x8AE DUP3 PUSH2 0x854 JUMP JUMPDEST PUSH2 0x8B8 DUP2 DUP6 PUSH2 0x85F JUMP JUMPDEST SWAP4 POP PUSH2 0x8C8 DUP2 DUP6 PUSH1 0x20 DUP7 ADD PUSH2 0x870 JUMP JUMPDEST PUSH2 0x8D1 DUP2 PUSH2 0x62E JUMP JUMPDEST DUP5 ADD SWAP2 POP POP SWAP3 SWAP2 POP POP JUMP JUMPDEST PUSH1 0x0 PUSH1 0x60 DUP3 ADD SWAP1 POP PUSH2 0x8F1 PUSH1 0x0 DUP4 ADD DUP7 PUSH2 0x845 JUMP JUMPDEST DUP2 DUP2 SUB PUSH1 0x20 DUP4 ADD MSTORE PUSH2 0x903 DUP2 DUP6 PUSH2 0x8A3 JUMP JUMPDEST SWAP1 POP PUSH2 0x912 PUSH1 0x40 DUP4 ADD DUP5 PUSH2 0x845 JUMP JUMPDEST SWAP5 SWAP4 POP POP POP POP JUMP JUMPDEST PUSH1 0x0 PUSH20 0xFFFFFFFFFFFFFFFFFFFFFFFFFFFFFFFFFFFFFFFF DUP3 AND SWAP1 POP SWAP2 SWAP1 POP JUMP JUMPDEST PUSH1 0x0 PUSH2 0x945 DUP3 PUSH2 0x91A JUMP JUMPDEST SWAP1 POP SWAP2 SWAP1 POP JUMP JUMPDEST PUSH2 0x955 DUP2 PUSH2 0x93A JUMP JUMPDEST DUP2 EQ PUSH2 0x960 JUMPI PUSH1 0x0 DUP1 REVERT JUMPDEST POP JUMP JUMPDEST PUSH1 0x0 DUP2 CALLDATALOAD SWAP1 POP PUSH2 0x972 DUP2 PUSH2 0x94C JUMP JUMPDEST SWAP3 SWAP2 POP POP JUMP JUMPDEST PUSH1 0x0 DUP1 PUSH1 0x0 PUSH1 0x60 DUP5 DUP7 SUB SLT ISZERO PUSH2 0x991 JUMPI PUSH2 0x990 PUSH2 0x61A JUMP JUMPDEST JUMPDEST PUSH1 0x0 PUSH2 0x99F DUP7 DUP3 DUP8 ADD PUSH2 0x7D4 JUMP JUMPDEST SWAP4 POP POP PUSH1 0x20 PUSH2 0x9B0 DUP7 DUP3 DUP8 ADD PUSH2 0x963 JUMP JUMPDEST SWAP3 POP POP PUSH1 0x40 PUSH2 0x9C1 DUP7 DUP3 DUP8 ADD PUSH2 0x7D4 JUMP JUMPDEST SWAP2 POP POP SWAP3 POP SWAP3 POP SWAP3 JUMP JUMPDEST PUSH1 0x0 DUP1 PUSH1 0x40 DUP4 DUP6 SUB SLT ISZERO PUSH2 0x9E2 JUMPI PUSH2 0x9E1 PUSH2 0x61A JUMP JUMPDEST JUMPDEST PUSH1 0x0 PUSH2 0x9F0 DUP6 DUP3 DUP7 ADD PUSH2 0x7D4 JUMP JUMPDEST SWAP3 POP POP PUSH1 0x20 PUSH2 0xA01 DUP6 DUP3 DUP7 ADD PUSH2 0x7D4 JUMP JUMPDEST SWAP2 POP POP SWAP3 POP SWAP3 SWAP1 POP JUMP JUMPDEST PUSH2 0xA14 DUP2 PUSH2 0x93A JUMP JUMPDEST DUP3 MSTORE POP POP JUMP JUMPDEST PUSH1 0x0 PUSH1 0x40 DUP3 ADD SWAP1 POP PUSH2 0xA2F PUSH1 0x0 DUP4 ADD DUP6 PUSH2 0x845 JUMP JUMPDEST PUSH2 0xA3C PUSH1 0x20 DUP4 ADD DUP5 PUSH2 0xA0B JUMP JUMPDEST SWAP4 SWAP3 POP POP POP JUMP JUMPDEST PUSH1 0x0 PUSH1 0x20 DUP3 DUP5 SUB SLT ISZERO PUSH2 0xA59 JUMPI PUSH2 0xA58 PUSH2 0x61A JUMP JUMPDEST JUMPDEST PUSH1 0x0 PUSH2 0xA67 DUP5 DUP3 DUP6 ADD PUSH2 0x7D4 JUMP JUMPDEST SWAP2 POP POP SWAP3 SWAP2 POP POP JUMP JUMPDEST PUSH1 0x0 PUSH1 0x60 DUP3 ADD SWAP1 POP DUP2 DUP2 SUB PUSH1 0x0 DUP4 ADD MSTORE PUSH2 0xA8A DUP2 DUP7 PUSH2 0x8A3 JUMP JUMPDEST SWAP1 POP PUSH2 0xA99 PUSH1 0x20 DUP4 ADD DUP6 PUSH2 0x845 JUMP JUMPDEST PUSH2 0xAA6 PUSH1 0x40 DUP4 ADD DUP5 PUSH2 0xA0B JUMP JUMPDEST SWAP5 SWAP4 POP POP POP POP JUMP JUMPDEST PUSH1 0x0 PUSH1 0x20 DUP3 DUP5 SUB SLT ISZERO PUSH2 0xAC4 JUMPI PUSH2 0xAC3 PUSH2 0x61A JUMP JUMPDEST JUMPDEST PUSH1 0x0 PUSH2 0xAD2 DUP5 DUP3 DUP6 ADD PUSH2 0x963 JUMP JUMPDEST SWAP2 POP POP SWAP3 SWAP2 POP POP JUMP JUMPDEST PUSH1 0x0 PUSH1 0x20 DUP3 ADD SWAP1 POP DUP2 DUP2 SUB PUSH1 0x0 DUP4 ADD MSTORE PUSH2 0xAF5 DUP2 DUP5 PUSH2 0x8A3 JUMP JUMPDEST SWAP1 POP SWAP3 SWAP2 POP POP JUMP JUMPDEST PUSH32 0x4E487B7100000000000000000000000000000000000000000000000000000000 PUSH1 0x0 MSTORE PUSH1 0x22 PUSH1 0x4 MSTORE PUSH1 0x24 PUSH1 0x0 REVERT JUMPDEST PUSH1 0x0 PUSH1 0x2 DUP3 DIV SWAP1 POP PUSH1 0x1 DUP3 AND DUP1 PUSH2 0xB44 JUMPI PUSH1 0x7F DUP3 AND SWAP2 POP JUMPDEST PUSH1 0x20 DUP3 LT DUP2 SUB PUSH2 0xB57 JUMPI PUSH2 0xB56 PUSH2 0xAFD JUMP JUMPDEST JUMPDEST POP SWAP2 SWAP1 POP JUMP JUMPDEST PUSH1 0x0 DUP2 SWAP1 POP DUP2 PUSH1 0x0 MSTORE PUSH1 0x20 PUSH1 0x0 KECCAK256 SWAP1 POP SWAP2 SWAP1 POP JUMP JUMPDEST PUSH1 0x0 PUSH1 0x20 PUSH1 0x1F DUP4 ADD DIV SWAP1 POP SWAP2 SWAP1 POP JUMP JUMPDEST PUSH1 0x0 DUP3 DUP3 SHL SWAP1 POP SWAP3 SWAP2 POP POP JUMP JUMPDEST PUSH1 0x0 PUSH1 0x8 DUP4 MUL PUSH2 0xBBF PUSH32 0xFFFFFFFFFFFFFFFFFFFFFFFFFFFFFFFFFFFFFFFFFFFFFFFFFFFFFFFFFFFFFFFF DUP3 PUSH2 0xB82 JUMP JUMPDEST PUSH2 0xBC9 DUP7 DUP4 PUSH2 0xB82 JUMP JUMPDEST SWAP6 POP DUP1 NOT DUP5 AND SWAP4 POP DUP1 DUP7 AND DUP5 OR SWAP3 POP POP POP SWAP4 SWAP3 POP POP POP JUMP JUMPDEST PUSH1 0x0 DUP2 SWAP1 POP SWAP2 SWAP1 POP JUMP JUMPDEST PUSH1 0x0 PUSH2 0xC06 PUSH2 0xC01 PUSH2 0xBFC DUP5 PUSH2 0x7B3 JUMP JUMPDEST PUSH2 0xBE1 JUMP JUMPDEST PUSH2 0x7B3 JUMP JUMPDEST SWAP1 POP SWAP2 SWAP1 POP JUMP JUMPDEST PUSH1 0x0 DUP2 SWAP1 POP SWAP2 SWAP1 POP JUMP JUMPDEST PUSH2 0xC20 DUP4 PUSH2 0xBEB JUMP JUMPDEST PUSH2 0xC34 PUSH2 0xC2C DUP3 PUSH2 0xC0D JUMP JUMPDEST DUP5 DUP5 SLOAD PUSH2 0xB8F JUMP JUMPDEST DUP3 SSTORE POP POP POP POP JUMP JUMPDEST PUSH1 0x0 SWAP1 JUMP JUMPDEST PUSH2 0xC49 PUSH2 0xC3C JUMP JUMPDEST PUSH2 0xC54 DUP2 DUP5 DUP5 PUSH2 0xC17 JUMP JUMPDEST POP POP POP JUMP JUMPDEST JUMPDEST DUP2 DUP2 LT ISZERO PUSH2 0xC78 JUMPI PUSH2 0xC6D PUSH1 0x0 DUP3 PUSH2 0xC41 JUMP JUMPDEST PUSH1 0x1 DUP2 ADD SWAP1 POP PUSH2 0xC5A JUMP JUMPDEST POP POP JUMP JUMPDEST PUSH1 0x1F DUP3 GT ISZERO PUSH2 0xCBD JUMPI PUSH2 0xC8E DUP2 PUSH2 0xB5D JUMP JUMPDEST PUSH2 0xC97 DUP5 PUSH2 0xB72 JUMP JUMPDEST DUP2 ADD PUSH1 0x20 DUP6 LT ISZERO PUSH2 0xCA6 JUMPI DUP2 SWAP1 POP JUMPDEST PUSH2 0xCBA PUSH2 0xCB2 DUP6 PUSH2 0xB72 JUMP JUMPDEST DUP4 ADD DUP3 PUSH2 0xC59 JUMP JUMPDEST POP POP JUMPDEST POP POP POP JUMP JUMPDEST PUSH1 0x0 DUP3 DUP3 SHR SWAP1 POP SWAP3 SWAP2 POP POP JUMP JUMPDEST PUSH1 0x0 PUSH2 0xCE0 PUSH1 0x0 NOT DUP5 PUSH1 0x8 MUL PUSH2 0xCC2 JUMP JUMPDEST NOT DUP1 DUP4 AND SWAP2 POP POP SWAP3 SWAP2 POP POP JUMP JUMPDEST PUSH1 0x0 PUSH2 0xCF9 DUP4 DUP4 PUSH2 0xCCF JUMP JUMPDEST SWAP2 POP DUP3 PUSH1 0x2 MUL DUP3 OR SWAP1 POP SWAP3 SWAP2 POP POP JUMP JUMPDEST PUSH2 0xD12 DUP3 PUSH2 0x854 JUMP JUMPDEST PUSH8 0xFFFFFFFFFFFFFFFF DUP2 GT ISZERO PUSH2 0xD2B JUMPI PUSH2 0xD2A PUSH2 0x63F JUMP JUMPDEST JUMPDEST PUSH2 0xD35 DUP3 SLOAD PUSH2 0xB2C JUMP JUMPDEST PUSH2 0xD40 DUP3 DUP3 DUP6 PUSH2 0xC7C JUMP JUMPDEST PUSH1 0x0 PUSH1 0x20 SWAP1 POP PUSH1 0x1F DUP4 GT PUSH1 0x1 DUP2 EQ PUSH2 0xD73 JUMPI PUSH1 0x0 DUP5 ISZERO PUSH2 0xD61 JUMPI DUP3 DUP8 ADD MLOAD SWAP1 POP JUMPDEST PUSH2 0xD6B DUP6 DUP3 PUSH2 0xCED JUMP JUMPDEST DUP7 SSTORE POP PUSH2 0xDD3 JUMP JUMPDEST PUSH1 0x1F NOT DUP5 AND PUSH2 0xD81 DUP7 PUSH2 0xB5D JUMP JUMPDEST PUSH1 0x0 JUMPDEST DUP3 DUP2 LT ISZERO PUSH2 0xDA9 JUMPI DUP5 DUP10 ADD MLOAD DUP3 SSTORE PUSH1 0x1 DUP3 ADD SWAP2 POP PUSH1 0x20 DUP6 ADD SWAP5 POP PUSH1 0x20 DUP2 ADD SWAP1 POP PUSH2 0xD84 JUMP JUMPDEST DUP7 DUP4 LT ISZERO PUSH2 0xDC6 JUMPI DUP5 DUP10 ADD MLOAD PUSH2 0xDC2 PUSH1 0x1F DUP10 AND DUP3 PUSH2 0xCCF JUMP JUMPDEST DUP4 SSTORE POP JUMPDEST PUSH1 0x1 PUSH1 0x2 DUP9 MUL ADD DUP9 SSTORE POP POP POP JUMPDEST POP POP POP POP POP POP JUMP JUMPDEST PUSH32 0x4E487B7100000000000000000000000000000000000000000000000000000000 PUSH1 0x0 MSTORE PUSH1 0x11 PUSH1 0x4 MSTORE PUSH1 0x24 PUSH1 0x0 REVERT JUMPDEST PUSH1 0x0 PUSH2 0xE15 DUP3 PUSH2 0x7B3 JUMP JUMPDEST SWAP2 POP PUSH32 0xFFFFFFFFFFFFFFFFFFFFFFFFFFFFFFFFFFFFFFFFFFFFFFFFFFFFFFFFFFFFFFFF DUP3 SUB PUSH2 0xE47 JUMPI PUSH2 0xE46 PUSH2 0xDDB JUMP JUMPDEST JUMPDEST PUSH1 0x1 DUP3 ADD SWAP1 POP SWAP2 SWAP1 POP JUMP JUMPDEST PUSH32 0x4E487B7100000000000000000000000000000000000000000000000000000000 PUSH1 0x0 MSTORE PUSH1 0x32 PUSH1 0x4 MSTORE PUSH1 0x24 PUSH1 0x0 REVERT INVALID LOG2 PUSH5 0x6970667358 0x22 SLT KECCAK256 SWAP11 0xE EQ 0xB9 MSIZE GASPRICE SWAP8 0xC3 PUSH9 0xDDE8C28F031DBB027 PUSH14 0xCF400A742F13AB52FF34E0E59A64 PUSH20 0x6F6C634300080F00330000000000000000000000 "
				},
				"gasEstimates": {
					"creation": {
						"codeDepositCost": "753400",
						"executionCost": "5792",
						"totalCost": "759192"
					},
					"external": {
						"Assets(uint256)": "infinite",
						"AuctDetails(uint256,uint256)": "infinite",
						"Bidding(uint256,address,uint256)": "infinite",
						"Result(uint256)": "infinite",
						"Users(address)": "infinite",
						"addAsset(string,uint256)": "infinite",
						"addUser(string)": "infinite"
					}
				},
				"methodIdentifiers": {
					"Assets(uint256)": "4b4a80ba",
					"AuctDetails(uint256,uint256)": "2b9af503",
					"Bidding(uint256,address,uint256)": "25503b4f",
					"Result(uint256)": "a9bb0fa1",
					"Users(address)": "99b956a0",
					"addAsset(string,uint256)": "1bc7ffe9",
					"addUser(string)": "18b8275a"
				}
			},
			"storageLayout": {
				"storage": [
					{
						"astId": 17,
						"contract": "Auction.sol:Auction",
						"label": "Users",
						"offset": 0,
						"slot": "0",
						"type": "t_mapping(t_address,t_string_storage)"
					},
					{
						"astId": 22,
						"contract": "Auction.sol:Auction",
						"label": "Assets",
						"offset": 0,
						"slot": "1",
						"type": "t_mapping(t_uint256,t_struct(Asset)8_storage)"
					},
					{
						"astId": 28,
						"contract": "Auction.sol:Auction",
						"label": "AuctDetails",
						"offset": 0,
						"slot": "2",
						"type": "t_mapping(t_uint256,t_array(t_struct(AuctDetail)13_storage)dyn_storage)"
					},
					{
						"astId": 44,
						"contract": "Auction.sol:Auction",
						"label": "Id",
						"offset": 0,
						"slot": "3",
						"type": "t_uint256"
					}
				],
				"types": {
					"t_address": {
						"encoding": "inplace",
						"label": "address",
						"numberOfBytes": "20"
					},
					"t_array(t_struct(AuctDetail)13_storage)dyn_storage": {
						"base": "t_struct(AuctDetail)13_storage",
						"encoding": "dynamic_array",
						"label": "struct Auction.AuctDetail[]",
						"numberOfBytes": "32"
					},
					"t_mapping(t_address,t_string_storage)": {
						"encoding": "mapping",
						"key": "t_address",
						"label": "mapping(address => string)",
						"numberOfBytes": "32",
						"value": "t_string_storage"
					},
					"t_mapping(t_uint256,t_array(t_struct(AuctDetail)13_storage)dyn_storage)": {
						"encoding": "mapping",
						"key": "t_uint256",
						"label": "mapping(uint256 => struct Auction.AuctDetail[])",
						"numberOfBytes": "32",
						"value": "t_array(t_struct(AuctDetail)13_storage)dyn_storage"
					},
					"t_mapping(t_uint256,t_struct(Asset)8_storage)": {
						"encoding": "mapping",
						"key": "t_uint256",
						"label": "mapping(uint256 => struct Auction.Asset)",
						"numberOfBytes": "32",
						"value": "t_struct(Asset)8_storage"
					},
					"t_string_storage": {
						"encoding": "bytes",
						"label": "string",
						"numberOfBytes": "32"
					},
					"t_struct(Asset)8_storage": {
						"encoding": "inplace",
						"label": "struct Auction.Asset",
						"members": [
							{
								"astId": 3,
								"contract": "Auction.sol:Auction",
								"label": "AssetName",
								"offset": 0,
								"slot": "0",
								"type": "t_string_storage"
							},
							{
								"astId": 5,
								"contract": "Auction.sol:Auction",
								"label": "AssetSP",
								"offset": 0,
								"slot": "1",
								"type": "t_uint256"
							},
							{
								"astId": 7,
								"contract": "Auction.sol:Auction",
								"label": "Owner",
								"offset": 0,
								"slot": "2",
								"type": "t_address"
							}
						],
						"numberOfBytes": "96"
					},
					"t_struct(AuctDetail)13_storage": {
						"encoding": "inplace",
						"label": "struct Auction.AuctDetail",
						"members": [
							{
								"astId": 10,
								"contract": "Auction.sol:Auction",
								"label": "bidPrice",
								"offset": 0,
								"slot": "0",
								"type": "t_uint256"
							},
							{
								"astId": 12,
								"contract": "Auction.sol:Auction",
								"label": "bidderId",
								"offset": 0,
								"slot": "1",
								"type": "t_address"
							}
						],
						"numberOfBytes": "64"
					},
					"t_uint256": {
						"encoding": "inplace",
						"label": "uint256",
						"numberOfBytes": "32"
					}
				}
			},
			"userdoc": {
				"kind": "user",
				"methods": {},
				"version": 1
			}
		}
	}
}