{
	"Auction.sol": {
		"Auction": {
			"abi": [
				{
					"inputs": [
						{
							"internalType": "uint256",
							"name": "",
							"type": "uint256"
						}
					],
					"name": "Assets",
					"outputs": [
						{
							"internalType": "string",
							"name": "AssetName",
							"type": "string"
						},
						{
							"internalType": "uint256",
							"name": "AssetSP",
							"type": "uint256"
						},
						{
							"internalType": "address",
							"name": "Owner",
							"type": "address"
						}
					],
					"stateMutability": "view",
					"type": "function"
				},
				{
					"inputs": [
						{
							"internalType": "uint256",
							"name": "",
							"type": "uint256"
						},
						{
							"internalType": "uint256",
							"name": "",
							"type": "uint256"
						}
					],
					"name": "AuctDetails",
					"outputs": [
						{
							"internalType": "uint256",
							"name": "bidPrice",
							"type": "uint256"
						},
						{
							"internalType": "address",
							"name": "bidderId",
							"type": "address"
						}
					],
					"stateMutability": "view",
					"type": "function"
				},
				{
					"inputs": [
						{
							"internalType": "uint256",
							"name": "AssetId",
							"type": "uint256"
						},
						{
							"internalType": "uint256",
							"name": "bidPrice",
							"type": "uint256"
						}
					],
					"name": "Bidding",
					"outputs": [],
					"stateMutability": "nonpayable",
					"type": "function"
				},
				{
					"inputs": [
						{
							"internalType": "uint256",
							"name": "ID",
							"type": "uint256"
						}
					],
					"name": "Result",
					"outputs": [
						{
							"internalType": "address",
							"name": "",
							"type": "address"
						},
						{
							"internalType": "uint256",
							"name": "",
							"type": "uint256"
						},
						{
							"internalType": "uint256",
							"name": "",
							"type": "uint256"
						}
					],
					"stateMutability": "payable",
					"type": "function"
				},
				{
					"inputs": [
						{
							"internalType": "address",
							"name": "",
							"type": "address"
						}
					],
					"name": "Users",
					"outputs": [
						{
							"internalType": "string",
							"name": "",
							"type": "string"
						}
					],
					"stateMutability": "view",
					"type": "function"
				},
				{
					"inputs": [
						{
							"internalType": "uint256",
							"name": "Id",
							"type": "uint256"
						},
						{
							"internalType": "string",
							"name": "Name",
							"type": "string"
						},
						{
							"internalType": "uint256",
							"name": "Price",
							"type": "uint256"
						}
					],
					"name": "addAsset",
					"outputs": [
						{
							"internalType": "uint256",
							"name": "",
							"type": "uint256"
						},
						{
							"internalType": "string",
							"name": "",
							"type": "string"
						},
						{
							"internalType": "uint256",
							"name": "",
							"type": "uint256"
						}
					],
					"stateMutability": "nonpayable",
					"type": "function"
				},
				{
					"inputs": [
						{
							"internalType": "string",
							"name": "Name",
							"type": "string"
						}
					],
					"name": "addUser",
					"outputs": [
						{
							"internalType": "string",
							"name": "",
							"type": "string"
						},
						{
							"internalType": "address",
							"name": "",
							"type": "address"
						}
					],
					"stateMutability": "nonpayable",
					"type": "function"
				}
			],
			"devdoc": {
				"kind": "dev",
				"methods": {},
				"version": 1
			},
			"evm": {
				"assembly": "    /* \"Auction.sol\":66:1476  contract Auction {... */\n  mstore(0x40, 0x80)\n    /* \"Auction.sol\":604:605  0 */\n  0x00\n    /* \"Auction.sol\":594:605  uint Id = 0 */\n  0x03\n  sstore\n    /* \"Auction.sol\":66:1476  contract Auction {... */\n  callvalue\n  dup1\n  iszero\n  tag_1\n  jumpi\n  0x00\n  dup1\n  revert\ntag_1:\n  pop\n  dataSize(sub_0)\n  dup1\n  dataOffset(sub_0)\n  0x00\n  codecopy\n  0x00\n  return\nstop\n\nsub_0: assembly {\n        /* \"Auction.sol\":66:1476  contract Auction {... */\n      mstore(0x40, 0x80)\n      jumpi(tag_1, lt(calldatasize, 0x04))\n      shr(0xe0, calldataload(0x00))\n      dup1\n      0x6fe605fc\n      gt\n      tag_9\n      jumpi\n      dup1\n      0x6fe605fc\n      eq\n      tag_5\n      jumpi\n      dup1\n      0x99b956a0\n      eq\n      tag_6\n      jumpi\n      dup1\n      0xa9bb0fa1\n      eq\n      tag_7\n      jumpi\n      dup1\n      0xe783080c\n      eq\n      tag_8\n      jumpi\n      jump(tag_1)\n    tag_9:\n      dup1\n      0x18b8275a\n      eq\n      tag_2\n      jumpi\n      dup1\n      0x2b9af503\n      eq\n      tag_3\n      jumpi\n      dup1\n      0x4b4a80ba\n      eq\n      tag_4\n      jumpi\n    tag_1:\n      0x00\n      dup1\n      revert\n        /* \"Auction.sol\":430:586  function addUser(string memory Name) public returns (string memory, address) {... */\n    tag_2:\n      callvalue\n      dup1\n      iszero\n      tag_10\n      jumpi\n      0x00\n      dup1\n      revert\n    tag_10:\n      pop\n      tag_11\n      0x04\n      dup1\n      calldatasize\n      sub\n      dup2\n      add\n      swap1\n      tag_12\n      swap2\n      swap1\n      tag_13\n      jump\t// in\n    tag_12:\n      tag_14\n      jump\t// in\n    tag_11:\n      mload(0x40)\n      tag_15\n      swap3\n      swap2\n      swap1\n      tag_16\n      jump\t// in\n    tag_15:\n      mload(0x40)\n      dup1\n      swap2\n      sub\n      swap1\n      return\n        /* \"Auction.sol\":367:415  mapping(uint => AuctDetail[]) public AuctDetails */\n    tag_3:\n      callvalue\n      dup1\n      iszero\n      tag_17\n      jumpi\n      0x00\n      dup1\n      revert\n    tag_17:\n      pop\n      tag_18\n      0x04\n      dup1\n      calldatasize\n      sub\n      dup2\n      add\n      swap1\n      tag_19\n      swap2\n      swap1\n      tag_20\n      jump\t// in\n    tag_19:\n      tag_21\n      jump\t// in\n    tag_18:\n      mload(0x40)\n      tag_22\n      swap3\n      swap2\n      swap1\n      tag_23\n      jump\t// in\n    tag_22:\n      mload(0x40)\n      dup1\n      swap2\n      sub\n      swap1\n      return\n        /* \"Auction.sol\":324:360  mapping(uint => Asset) public Assets */\n    tag_4:\n      callvalue\n      dup1\n      iszero\n      tag_24\n      jumpi\n      0x00\n      dup1\n      revert\n    tag_24:\n      pop\n      tag_25\n      0x04\n      dup1\n      calldatasize\n      sub\n      dup2\n      add\n      swap1\n      tag_26\n      swap2\n      swap1\n      tag_27\n      jump\t// in\n    tag_26:\n      tag_28\n      jump\t// in\n    tag_25:\n      mload(0x40)\n      tag_29\n      swap4\n      swap3\n      swap2\n      swap1\n      tag_30\n      jump\t// in\n    tag_29:\n      mload(0x40)\n      dup1\n      swap2\n      sub\n      swap1\n      return\n        /* \"Auction.sol\":845:976  function Bidding(uint AssetId, uint bidPrice) public {... */\n    tag_5:\n      callvalue\n      dup1\n      iszero\n      tag_31\n      jumpi\n      0x00\n      dup1\n      revert\n    tag_31:\n      pop\n      tag_32\n      0x04\n      dup1\n      calldatasize\n      sub\n      dup2\n      add\n      swap1\n      tag_33\n      swap2\n      swap1\n      tag_20\n      jump\t// in\n    tag_33:\n      tag_34\n      jump\t// in\n    tag_32:\n      stop\n        /* \"Auction.sol\":278:317  mapping(address => string) public Users */\n    tag_6:\n      callvalue\n      dup1\n      iszero\n      tag_35\n      jumpi\n      0x00\n      dup1\n      revert\n    tag_35:\n      pop\n      tag_36\n      0x04\n      dup1\n      calldatasize\n      sub\n      dup2\n      add\n      swap1\n      tag_37\n      swap2\n      swap1\n      tag_38\n      jump\t// in\n    tag_37:\n      tag_39\n      jump\t// in\n    tag_36:\n      mload(0x40)\n      tag_40\n      swap2\n      swap1\n      tag_41\n      jump\t// in\n    tag_40:\n      mload(0x40)\n      dup1\n      swap2\n      sub\n      swap1\n      return\n        /* \"Auction.sol\":984:1473  function Result(uint ID) public payable returns (address, uint, uint) {... */\n    tag_7:\n      tag_42\n      0x04\n      dup1\n      calldatasize\n      sub\n      dup2\n      add\n      swap1\n      tag_43\n      swap2\n      swap1\n      tag_27\n      jump\t// in\n    tag_43:\n      tag_44\n      jump\t// in\n    tag_42:\n      mload(0x40)\n      tag_45\n      swap4\n      swap3\n      swap2\n      swap1\n      tag_46\n      jump\t// in\n    tag_45:\n      mload(0x40)\n      dup1\n      swap2\n      sub\n      swap1\n      return\n        /* \"Auction.sol\":612:825  function addAsset(uint Id,string memory Name, uint Price) public returns (uint, string memory, uint) {... */\n    tag_8:\n      callvalue\n      dup1\n      iszero\n      tag_47\n      jumpi\n      0x00\n      dup1\n      revert\n    tag_47:\n      pop\n      tag_48\n      0x04\n      dup1\n      calldatasize\n      sub\n      dup2\n      add\n      swap1\n      tag_49\n      swap2\n      swap1\n      tag_50\n      jump\t// in\n    tag_49:\n      tag_51\n      jump\t// in\n    tag_48:\n      mload(0x40)\n      tag_52\n      swap4\n      swap3\n      swap2\n      swap1\n      tag_53\n      jump\t// in\n    tag_52:\n      mload(0x40)\n      dup1\n      swap2\n      sub\n      swap1\n      return\n        /* \"Auction.sol\":430:586  function addUser(string memory Name) public returns (string memory, address) {... */\n    tag_14:\n        /* \"Auction.sol\":483:496  string memory */\n      0x60\n        /* \"Auction.sol\":498:505  address */\n      0x00\n        /* \"Auction.sol\":538:542  Name */\n      dup3\n        /* \"Auction.sol\":518:523  Users */\n      0x00\n        /* \"Auction.sol\":518:535  Users[msg.sender] */\n      dup1\n        /* \"Auction.sol\":524:534  msg.sender */\n      caller\n        /* \"Auction.sol\":518:535  Users[msg.sender] */\n      0xffffffffffffffffffffffffffffffffffffffff\n      and\n      0xffffffffffffffffffffffffffffffffffffffff\n      and\n      dup2\n      mstore\n      0x20\n      add\n      swap1\n      dup2\n      mstore\n      0x20\n      add\n      0x00\n      keccak256\n        /* \"Auction.sol\":518:542  Users[msg.sender] = Name */\n      swap1\n      dup2\n      tag_55\n      swap2\n      swap1\n      tag_56\n      jump\t// in\n    tag_55:\n      pop\n        /* \"Auction.sol\":561:565  Name */\n      dup3\n        /* \"Auction.sol\":567:577  msg.sender */\n      caller\n        /* \"Auction.sol\":553:578  return (Name, msg.sender) */\n      swap2\n      pop\n      swap2\n      pop\n        /* \"Auction.sol\":430:586  function addUser(string memory Name) public returns (string memory, address) {... */\n      swap2\n      pop\n      swap2\n      jump\t// out\n        /* \"Auction.sol\":367:415  mapping(uint => AuctDetail[]) public AuctDetails */\n    tag_21:\n      mstore(0x20, 0x02)\n      dup2\n      0x00\n      mstore\n      keccak256(0x00, 0x40)\n      dup2\n      dup2\n      sload\n      dup2\n      lt\n      tag_57\n      jumpi\n      0x00\n      dup1\n      revert\n    tag_57:\n      swap1\n      0x00\n      mstore\n      keccak256(0x00, 0x20)\n      swap1\n      0x02\n      mul\n      add\n      0x00\n      swap2\n      pop\n      swap2\n      pop\n      pop\n      dup1\n      0x00\n      add\n      sload\n      swap1\n      dup1\n      0x01\n      add\n      0x00\n      swap1\n      sload\n      swap1\n      0x0100\n      exp\n      swap1\n      div\n      0xffffffffffffffffffffffffffffffffffffffff\n      and\n      swap1\n      pop\n      dup3\n      jump\t// out\n        /* \"Auction.sol\":324:360  mapping(uint => Asset) public Assets */\n    tag_28:\n      mstore(0x20, 0x01)\n      dup1\n      0x00\n      mstore\n      keccak256(0x00, 0x40)\n      0x00\n      swap2\n      pop\n      swap1\n      pop\n      dup1\n      0x00\n      add\n      dup1\n      sload\n      tag_59\n      swap1\n      tag_60\n      jump\t// in\n    tag_59:\n      dup1\n      0x1f\n      add\n      0x20\n      dup1\n      swap2\n      div\n      mul\n      0x20\n      add\n      mload(0x40)\n      swap1\n      dup2\n      add\n      0x40\n      mstore\n      dup1\n      swap3\n      swap2\n      swap1\n      dup2\n      dup2\n      mstore\n      0x20\n      add\n      dup3\n      dup1\n      sload\n      tag_61\n      swap1\n      tag_60\n      jump\t// in\n    tag_61:\n      dup1\n      iszero\n      tag_62\n      jumpi\n      dup1\n      0x1f\n      lt\n      tag_63\n      jumpi\n      0x0100\n      dup1\n      dup4\n      sload\n      div\n      mul\n      dup4\n      mstore\n      swap2\n      0x20\n      add\n      swap2\n      jump(tag_62)\n    tag_63:\n      dup3\n      add\n      swap2\n      swap1\n      0x00\n      mstore\n      keccak256(0x00, 0x20)\n      swap1\n    tag_64:\n      dup2\n      sload\n      dup2\n      mstore\n      swap1\n      0x01\n      add\n      swap1\n      0x20\n      add\n      dup1\n      dup4\n      gt\n      tag_64\n      jumpi\n      dup3\n      swap1\n      sub\n      0x1f\n      and\n      dup3\n      add\n      swap2\n    tag_62:\n      pop\n      pop\n      pop\n      pop\n      pop\n      swap1\n      dup1\n      0x01\n      add\n      sload\n      swap1\n      dup1\n      0x02\n      add\n      0x00\n      swap1\n      sload\n      swap1\n      0x0100\n      exp\n      swap1\n      div\n      0xffffffffffffffffffffffffffffffffffffffff\n      and\n      swap1\n      pop\n      dup4\n      jump\t// out\n        /* \"Auction.sol\":845:976  function Bidding(uint AssetId, uint bidPrice) public {... */\n    tag_34:\n        /* \"Auction.sol\":909:920  AuctDetails */\n      0x02\n        /* \"Auction.sol\":909:929  AuctDetails[AssetId] */\n      0x00\n        /* \"Auction.sol\":921:928  AssetId */\n      dup4\n        /* \"Auction.sol\":909:929  AuctDetails[AssetId] */\n      dup2\n      mstore\n      0x20\n      add\n      swap1\n      dup2\n      mstore\n      0x20\n      add\n      0x00\n      keccak256\n        /* \"Auction.sol\":935:967  AuctDetail(bidPrice, msg.sender) */\n      mload(0x40)\n      dup1\n      0x40\n      add\n      0x40\n      mstore\n      dup1\n        /* \"Auction.sol\":946:954  bidPrice */\n      dup4\n        /* \"Auction.sol\":935:967  AuctDetail(bidPrice, msg.sender) */\n      dup2\n      mstore\n      0x20\n      add\n        /* \"Auction.sol\":956:966  msg.sender */\n      caller\n        /* \"Auction.sol\":935:967  AuctDetail(bidPrice, msg.sender) */\n      0xffffffffffffffffffffffffffffffffffffffff\n      and\n      dup2\n      mstore\n      pop\n        /* \"Auction.sol\":909:968  AuctDetails[AssetId].push(AuctDetail(bidPrice, msg.sender)) */\n      swap1\n      dup1\n      0x01\n      dup2\n      sload\n      add\n      dup1\n      dup3\n      sstore\n      dup1\n      swap2\n      pop\n      pop\n      0x01\n      swap1\n      sub\n      swap1\n      0x00\n      mstore\n      keccak256(0x00, 0x20)\n      swap1\n      0x02\n      mul\n      add\n      0x00\n      swap1\n      swap2\n      swap1\n      swap2\n      swap1\n      swap2\n      pop\n      0x00\n      dup3\n      add\n      mload\n      dup2\n      0x00\n      add\n      sstore\n      0x20\n      dup3\n      add\n      mload\n      dup2\n      0x01\n      add\n      exp(0x0100, 0x00)\n      dup2\n      sload\n      dup2\n      0xffffffffffffffffffffffffffffffffffffffff\n      mul\n      not\n      and\n      swap1\n      dup4\n      0xffffffffffffffffffffffffffffffffffffffff\n      and\n      mul\n      or\n      swap1\n      sstore\n      pop\n      pop\n      pop\n        /* \"Auction.sol\":845:976  function Bidding(uint AssetId, uint bidPrice) public {... */\n      pop\n      pop\n      jump\t// out\n        /* \"Auction.sol\":278:317  mapping(address => string) public Users */\n    tag_39:\n      mstore(0x20, 0x00)\n      dup1\n      0x00\n      mstore\n      keccak256(0x00, 0x40)\n      0x00\n      swap2\n      pop\n      swap1\n      pop\n      dup1\n      sload\n      tag_67\n      swap1\n      tag_60\n      jump\t// in\n    tag_67:\n      dup1\n      0x1f\n      add\n      0x20\n      dup1\n      swap2\n      div\n      mul\n      0x20\n      add\n      mload(0x40)\n      swap1\n      dup2\n      add\n      0x40\n      mstore\n      dup1\n      swap3\n      swap2\n      swap1\n      dup2\n      dup2\n      mstore\n      0x20\n      add\n      dup3\n      dup1\n      sload\n      tag_68\n      swap1\n      tag_60\n      jump\t// in\n    tag_68:\n      dup1\n      iszero\n      tag_69\n      jumpi\n      dup1\n      0x1f\n      lt\n      tag_70\n      jumpi\n      0x0100\n      dup1\n      dup4\n      sload\n      div\n      mul\n      dup4\n      mstore\n      swap2\n      0x20\n      add\n      swap2\n      jump(tag_69)\n    tag_70:\n      dup3\n      add\n      swap2\n      swap1\n      0x00\n      mstore\n      keccak256(0x00, 0x20)\n      swap1\n    tag_71:\n      dup2\n      sload\n      dup2\n      mstore\n      swap1\n      0x01\n      add\n      swap1\n      0x20\n      add\n      dup1\n      dup4\n      gt\n      tag_71\n      jumpi\n      dup3\n      swap1\n      sub\n      0x1f\n      and\n      dup3\n      add\n      swap2\n    tag_69:\n      pop\n      pop\n      pop\n      pop\n      pop\n      dup2\n      jump\t// out\n        /* \"Auction.sol\":984:1473  function Result(uint ID) public payable returns (address, uint, uint) {... */\n    tag_44:\n        /* \"Auction.sol\":1033:1040  address */\n      0x00\n        /* \"Auction.sol\":1042:1046  uint */\n      dup1\n        /* \"Auction.sol\":1048:1052  uint */\n      0x00\n        /* \"Auction.sol\":1065:1075  uint Price */\n      dup1\n        /* \"Auction.sol\":1078:1079  0 */\n      0x00\n        /* \"Auction.sol\":1065:1079  uint Price = 0 */\n      swap1\n      pop\n        /* \"Auction.sol\":1090:1105  address OwnerId */\n      0x00\n        /* \"Auction.sol\":1116:1124  uint len */\n      dup1\n        /* \"Auction.sol\":1127:1138  AuctDetails */\n      0x02\n        /* \"Auction.sol\":1127:1142  AuctDetails[ID] */\n      0x00\n        /* \"Auction.sol\":1139:1141  ID */\n      dup9\n        /* \"Auction.sol\":1127:1142  AuctDetails[ID] */\n      dup2\n      mstore\n      0x20\n      add\n      swap1\n      dup2\n      mstore\n      0x20\n      add\n      0x00\n      keccak256\n        /* \"Auction.sol\":1127:1149  AuctDetails[ID].length */\n      dup1\n      sload\n      swap1\n      pop\n        /* \"Auction.sol\":1116:1149  uint len = AuctDetails[ID].length */\n      swap1\n      pop\n        /* \"Auction.sol\":1164:1170  uint j */\n      0x00\n        /* \"Auction.sol\":1160:1427  for(uint j = 0; j <= AuctDetails[ID].length ; j++) {... */\n    tag_73:\n        /* \"Auction.sol\":1181:1192  AuctDetails */\n      0x02\n        /* \"Auction.sol\":1181:1196  AuctDetails[ID] */\n      0x00\n        /* \"Auction.sol\":1193:1195  ID */\n      dup10\n        /* \"Auction.sol\":1181:1196  AuctDetails[ID] */\n      dup2\n      mstore\n      0x20\n      add\n      swap1\n      dup2\n      mstore\n      0x20\n      add\n      0x00\n      keccak256\n        /* \"Auction.sol\":1181:1203  AuctDetails[ID].length */\n      dup1\n      sload\n      swap1\n      pop\n        /* \"Auction.sol\":1176:1177  j */\n      dup2\n        /* \"Auction.sol\":1176:1203  j <= AuctDetails[ID].length */\n      gt\n        /* \"Auction.sol\":1160:1427  for(uint j = 0; j <= AuctDetails[ID].length ; j++) {... */\n      tag_74\n      jumpi\n        /* \"Auction.sol\":1260:1265  Price */\n      dup4\n        /* \"Auction.sol\":1230:1241  AuctDetails */\n      0x02\n        /* \"Auction.sol\":1230:1245  AuctDetails[ID] */\n      0x00\n        /* \"Auction.sol\":1242:1244  ID */\n      dup11\n        /* \"Auction.sol\":1230:1245  AuctDetails[ID] */\n      dup2\n      mstore\n      0x20\n      add\n      swap1\n      dup2\n      mstore\n      0x20\n      add\n      0x00\n      keccak256\n        /* \"Auction.sol\":1246:1247  j */\n      dup3\n        /* \"Auction.sol\":1230:1248  AuctDetails[ID][j] */\n      dup2\n      sload\n      dup2\n      lt\n      tag_76\n      jumpi\n      tag_77\n      tag_78\n      jump\t// in\n    tag_77:\n    tag_76:\n      swap1\n      0x00\n      mstore\n      keccak256(0x00, 0x20)\n      swap1\n      0x02\n      mul\n      add\n        /* \"Auction.sol\":1230:1257  AuctDetails[ID][j].bidPrice */\n      0x00\n      add\n      sload\n        /* \"Auction.sol\":1230:1265  AuctDetails[ID][j].bidPrice > Price */\n      gt\n        /* \"Auction.sol\":1226:1393  if (AuctDetails[ID][j].bidPrice > Price) {... */\n      iszero\n      tag_80\n      jumpi\n        /* \"Auction.sol\":1294:1305  AuctDetails */\n      0x02\n        /* \"Auction.sol\":1294:1309  AuctDetails[ID] */\n      0x00\n        /* \"Auction.sol\":1306:1308  ID */\n      dup10\n        /* \"Auction.sol\":1294:1309  AuctDetails[ID] */\n      dup2\n      mstore\n      0x20\n      add\n      swap1\n      dup2\n      mstore\n      0x20\n      add\n      0x00\n      keccak256\n        /* \"Auction.sol\":1310:1311  j */\n      dup2\n        /* \"Auction.sol\":1294:1312  AuctDetails[ID][j] */\n      dup2\n      sload\n      dup2\n      lt\n      tag_81\n      jumpi\n      tag_82\n      tag_78\n      jump\t// in\n    tag_82:\n    tag_81:\n      swap1\n      0x00\n      mstore\n      keccak256(0x00, 0x20)\n      swap1\n      0x02\n      mul\n      add\n        /* \"Auction.sol\":1294:1321  AuctDetails[ID][j].bidPrice */\n      0x00\n      add\n      sload\n        /* \"Auction.sol\":1286:1321  Price = AuctDetails[ID][j].bidPrice */\n      swap4\n      pop\n        /* \"Auction.sol\":1350:1361  AuctDetails */\n      0x02\n        /* \"Auction.sol\":1350:1365  AuctDetails[ID] */\n      0x00\n        /* \"Auction.sol\":1362:1364  ID */\n      dup10\n        /* \"Auction.sol\":1350:1365  AuctDetails[ID] */\n      dup2\n      mstore\n      0x20\n      add\n      swap1\n      dup2\n      mstore\n      0x20\n      add\n      0x00\n      keccak256\n        /* \"Auction.sol\":1366:1367  j */\n      dup2\n        /* \"Auction.sol\":1350:1368  AuctDetails[ID][j] */\n      dup2\n      sload\n      dup2\n      lt\n      tag_84\n      jumpi\n      tag_85\n      tag_78\n      jump\t// in\n    tag_85:\n    tag_84:\n      swap1\n      0x00\n      mstore\n      keccak256(0x00, 0x20)\n      swap1\n      0x02\n      mul\n      add\n        /* \"Auction.sol\":1350:1377  AuctDetails[ID][j].bidderId */\n      0x01\n      add\n      0x00\n      swap1\n      sload\n      swap1\n      0x0100\n      exp\n      swap1\n      div\n      0xffffffffffffffffffffffffffffffffffffffff\n      and\n        /* \"Auction.sol\":1340:1377  OwnerId = AuctDetails[ID][j].bidderId */\n      swap3\n      pop\n        /* \"Auction.sol\":1226:1393  if (AuctDetails[ID][j].bidPrice > Price) {... */\n    tag_80:\n        /* \"Auction.sol\":1206:1209  j++ */\n      dup1\n      dup1\n      tag_87\n      swap1\n      tag_88\n      jump\t// in\n    tag_87:\n      swap2\n      pop\n      pop\n        /* \"Auction.sol\":1160:1427  for(uint j = 0; j <= AuctDetails[ID].length ; j++) {... */\n      jump(tag_73)\n    tag_74:\n      pop\n        /* \"Auction.sol\":1445:1452  OwnerId */\n      dup2\n        /* \"Auction.sol\":1454:1459  Price */\n      dup4\n        /* \"Auction.sol\":1461:1464  len */\n      dup3\n        /* \"Auction.sol\":1437:1465  return (OwnerId, Price, len) */\n      swap6\n      pop\n      swap6\n      pop\n      swap6\n      pop\n      pop\n      pop\n      pop\n        /* \"Auction.sol\":984:1473  function Result(uint ID) public payable returns (address, uint, uint) {... */\n      swap2\n      swap4\n      swap1\n      swap3\n      pop\n      jump\t// out\n        /* \"Auction.sol\":612:825  function addAsset(uint Id,string memory Name, uint Price) public returns (uint, string memory, uint) {... */\n    tag_51:\n        /* \"Auction.sol\":686:690  uint */\n      0x00\n        /* \"Auction.sol\":692:705  string memory */\n      0x60\n        /* \"Auction.sol\":707:711  uint */\n      0x00\n        /* \"Auction.sol\":737:767  Asset(Name, Price, msg.sender) */\n      mload(0x40)\n      dup1\n      0x60\n      add\n      0x40\n      mstore\n      dup1\n        /* \"Auction.sol\":743:747  Name */\n      dup7\n        /* \"Auction.sol\":737:767  Asset(Name, Price, msg.sender) */\n      dup2\n      mstore\n      0x20\n      add\n        /* \"Auction.sol\":749:754  Price */\n      dup6\n        /* \"Auction.sol\":737:767  Asset(Name, Price, msg.sender) */\n      dup2\n      mstore\n      0x20\n      add\n        /* \"Auction.sol\":756:766  msg.sender */\n      caller\n        /* \"Auction.sol\":737:767  Asset(Name, Price, msg.sender) */\n      0xffffffffffffffffffffffffffffffffffffffff\n      and\n      dup2\n      mstore\n      pop\n        /* \"Auction.sol\":724:730  Assets */\n      0x01\n        /* \"Auction.sol\":724:734  Assets[Id] */\n      0x00\n        /* \"Auction.sol\":731:733  Id */\n      dup9\n        /* \"Auction.sol\":724:734  Assets[Id] */\n      dup2\n      mstore\n      0x20\n      add\n      swap1\n      dup2\n      mstore\n      0x20\n      add\n      0x00\n      keccak256\n        /* \"Auction.sol\":724:767  Assets[Id] = Asset(Name, Price, msg.sender) */\n      0x00\n      dup3\n      add\n      mload\n      dup2\n      0x00\n      add\n      swap1\n      dup2\n      tag_90\n      swap2\n      swap1\n      tag_56\n      jump\t// in\n    tag_90:\n      pop\n      0x20\n      dup3\n      add\n      mload\n      dup2\n      0x01\n      add\n      sstore\n      0x40\n      dup3\n      add\n      mload\n      dup2\n      0x02\n      add\n      exp(0x0100, 0x00)\n      dup2\n      sload\n      dup2\n      0xffffffffffffffffffffffffffffffffffffffff\n      mul\n      not\n      and\n      swap1\n      dup4\n      0xffffffffffffffffffffffffffffffffffffffff\n      and\n      mul\n      or\n      swap1\n      sstore\n      pop\n      swap1\n      pop\n      pop\n        /* \"Auction.sol\":778:782  Id++ */\n      dup6\n      dup1\n      tag_91\n      swap1\n      tag_88\n      jump\t// in\n    tag_91:\n      swap7\n      pop\n      pop\n        /* \"Auction.sol\":801:803  Id */\n      dup6\n        /* \"Auction.sol\":805:809  Name */\n      dup6\n        /* \"Auction.sol\":811:816  Price */\n      dup6\n        /* \"Auction.sol\":793:817  return (Id, Name, Price) */\n      swap3\n      pop\n      swap3\n      pop\n      swap3\n      pop\n        /* \"Auction.sol\":612:825  function addAsset(uint Id,string memory Name, uint Price) public returns (uint, string memory, uint) {... */\n      swap4\n      pop\n      swap4\n      pop\n      swap4\n      swap1\n      pop\n      jump\t// out\n        /* \"#utility.yul\":7:82   */\n    tag_92:\n        /* \"#utility.yul\":40:46   */\n      0x00\n        /* \"#utility.yul\":73:75   */\n      0x40\n        /* \"#utility.yul\":67:76   */\n      mload\n        /* \"#utility.yul\":57:76   */\n      swap1\n      pop\n        /* \"#utility.yul\":7:82   */\n      swap1\n      jump\t// out\n        /* \"#utility.yul\":88:205   */\n    tag_93:\n        /* \"#utility.yul\":197:198   */\n      0x00\n        /* \"#utility.yul\":194:195   */\n      dup1\n        /* \"#utility.yul\":187:199   */\n      revert\n        /* \"#utility.yul\":211:328   */\n    tag_94:\n        /* \"#utility.yul\":320:321   */\n      0x00\n        /* \"#utility.yul\":317:318   */\n      dup1\n        /* \"#utility.yul\":310:322   */\n      revert\n        /* \"#utility.yul\":334:451   */\n    tag_95:\n        /* \"#utility.yul\":443:444   */\n      0x00\n        /* \"#utility.yul\":440:441   */\n      dup1\n        /* \"#utility.yul\":433:445   */\n      revert\n        /* \"#utility.yul\":457:574   */\n    tag_96:\n        /* \"#utility.yul\":566:567   */\n      0x00\n        /* \"#utility.yul\":563:564   */\n      dup1\n        /* \"#utility.yul\":556:568   */\n      revert\n        /* \"#utility.yul\":580:682   */\n    tag_97:\n        /* \"#utility.yul\":621:627   */\n      0x00\n        /* \"#utility.yul\":672:674   */\n      0x1f\n        /* \"#utility.yul\":668:675   */\n      not\n        /* \"#utility.yul\":663:665   */\n      0x1f\n        /* \"#utility.yul\":656:661   */\n      dup4\n        /* \"#utility.yul\":652:666   */\n      add\n        /* \"#utility.yul\":648:676   */\n      and\n        /* \"#utility.yul\":638:676   */\n      swap1\n      pop\n        /* \"#utility.yul\":580:682   */\n      swap2\n      swap1\n      pop\n      jump\t// out\n        /* \"#utility.yul\":688:868   */\n    tag_98:\n        /* \"#utility.yul\":736:813   */\n      0x4e487b7100000000000000000000000000000000000000000000000000000000\n        /* \"#utility.yul\":733:734   */\n      0x00\n        /* \"#utility.yul\":726:814   */\n      mstore\n        /* \"#utility.yul\":833:837   */\n      0x41\n        /* \"#utility.yul\":830:831   */\n      0x04\n        /* \"#utility.yul\":823:838   */\n      mstore\n        /* \"#utility.yul\":857:861   */\n      0x24\n        /* \"#utility.yul\":854:855   */\n      0x00\n        /* \"#utility.yul\":847:862   */\n      revert\n        /* \"#utility.yul\":874:1155   */\n    tag_99:\n        /* \"#utility.yul\":957:984   */\n      tag_144\n        /* \"#utility.yul\":979:983   */\n      dup3\n        /* \"#utility.yul\":957:984   */\n      tag_97\n      jump\t// in\n    tag_144:\n        /* \"#utility.yul\":949:955   */\n      dup2\n        /* \"#utility.yul\":945:985   */\n      add\n        /* \"#utility.yul\":1087:1093   */\n      dup2\n        /* \"#utility.yul\":1075:1085   */\n      dup2\n        /* \"#utility.yul\":1072:1094   */\n      lt\n        /* \"#utility.yul\":1051:1069   */\n      0xffffffffffffffff\n        /* \"#utility.yul\":1039:1049   */\n      dup3\n        /* \"#utility.yul\":1036:1070   */\n      gt\n        /* \"#utility.yul\":1033:1095   */\n      or\n        /* \"#utility.yul\":1030:1118   */\n      iszero\n      tag_145\n      jumpi\n        /* \"#utility.yul\":1098:1116   */\n      tag_146\n      tag_98\n      jump\t// in\n    tag_146:\n        /* \"#utility.yul\":1030:1118   */\n    tag_145:\n        /* \"#utility.yul\":1138:1148   */\n      dup1\n        /* \"#utility.yul\":1134:1136   */\n      0x40\n        /* \"#utility.yul\":1127:1149   */\n      mstore\n        /* \"#utility.yul\":917:1155   */\n      pop\n        /* \"#utility.yul\":874:1155   */\n      pop\n      pop\n      jump\t// out\n        /* \"#utility.yul\":1161:1290   */\n    tag_100:\n        /* \"#utility.yul\":1195:1201   */\n      0x00\n        /* \"#utility.yul\":1222:1242   */\n      tag_148\n      tag_92\n      jump\t// in\n    tag_148:\n        /* \"#utility.yul\":1212:1242   */\n      swap1\n      pop\n        /* \"#utility.yul\":1251:1284   */\n      tag_149\n        /* \"#utility.yul\":1279:1283   */\n      dup3\n        /* \"#utility.yul\":1271:1277   */\n      dup3\n        /* \"#utility.yul\":1251:1284   */\n      tag_99\n      jump\t// in\n    tag_149:\n        /* \"#utility.yul\":1161:1290   */\n      swap2\n      swap1\n      pop\n      jump\t// out\n        /* \"#utility.yul\":1296:1604   */\n    tag_101:\n        /* \"#utility.yul\":1358:1362   */\n      0x00\n        /* \"#utility.yul\":1448:1466   */\n      0xffffffffffffffff\n        /* \"#utility.yul\":1440:1446   */\n      dup3\n        /* \"#utility.yul\":1437:1467   */\n      gt\n        /* \"#utility.yul\":1434:1490   */\n      iszero\n      tag_151\n      jumpi\n        /* \"#utility.yul\":1470:1488   */\n      tag_152\n      tag_98\n      jump\t// in\n    tag_152:\n        /* \"#utility.yul\":1434:1490   */\n    tag_151:\n        /* \"#utility.yul\":1508:1537   */\n      tag_153\n        /* \"#utility.yul\":1530:1536   */\n      dup3\n        /* \"#utility.yul\":1508:1537   */\n      tag_97\n      jump\t// in\n    tag_153:\n        /* \"#utility.yul\":1500:1537   */\n      swap1\n      pop\n        /* \"#utility.yul\":1592:1596   */\n      0x20\n        /* \"#utility.yul\":1586:1590   */\n      dup2\n        /* \"#utility.yul\":1582:1597   */\n      add\n        /* \"#utility.yul\":1574:1597   */\n      swap1\n      pop\n        /* \"#utility.yul\":1296:1604   */\n      swap2\n      swap1\n      pop\n      jump\t// out\n        /* \"#utility.yul\":1610:1764   */\n    tag_102:\n        /* \"#utility.yul\":1694:1700   */\n      dup3\n        /* \"#utility.yul\":1689:1692   */\n      dup2\n        /* \"#utility.yul\":1684:1687   */\n      dup4\n        /* \"#utility.yul\":1671:1701   */\n      calldatacopy\n        /* \"#utility.yul\":1756:1757   */\n      0x00\n        /* \"#utility.yul\":1747:1753   */\n      dup4\n        /* \"#utility.yul\":1742:1745   */\n      dup4\n        /* \"#utility.yul\":1738:1754   */\n      add\n        /* \"#utility.yul\":1731:1758   */\n      mstore\n        /* \"#utility.yul\":1610:1764   */\n      pop\n      pop\n      pop\n      jump\t// out\n        /* \"#utility.yul\":1770:2182   */\n    tag_103:\n        /* \"#utility.yul\":1848:1853   */\n      0x00\n        /* \"#utility.yul\":1873:1939   */\n      tag_156\n        /* \"#utility.yul\":1889:1938   */\n      tag_157\n        /* \"#utility.yul\":1931:1937   */\n      dup5\n        /* \"#utility.yul\":1889:1938   */\n      tag_101\n      jump\t// in\n    tag_157:\n        /* \"#utility.yul\":1873:1939   */\n      tag_100\n      jump\t// in\n    tag_156:\n        /* \"#utility.yul\":1864:1939   */\n      swap1\n      pop\n        /* \"#utility.yul\":1962:1968   */\n      dup3\n        /* \"#utility.yul\":1955:1960   */\n      dup2\n        /* \"#utility.yul\":1948:1969   */\n      mstore\n        /* \"#utility.yul\":2000:2004   */\n      0x20\n        /* \"#utility.yul\":1993:1998   */\n      dup2\n        /* \"#utility.yul\":1989:2005   */\n      add\n        /* \"#utility.yul\":2038:2041   */\n      dup5\n        /* \"#utility.yul\":2029:2035   */\n      dup5\n        /* \"#utility.yul\":2024:2027   */\n      dup5\n        /* \"#utility.yul\":2020:2036   */\n      add\n        /* \"#utility.yul\":2017:2042   */\n      gt\n        /* \"#utility.yul\":2014:2126   */\n      iszero\n      tag_158\n      jumpi\n        /* \"#utility.yul\":2045:2124   */\n      tag_159\n      tag_96\n      jump\t// in\n    tag_159:\n        /* \"#utility.yul\":2014:2126   */\n    tag_158:\n        /* \"#utility.yul\":2135:2176   */\n      tag_160\n        /* \"#utility.yul\":2169:2175   */\n      dup5\n        /* \"#utility.yul\":2164:2167   */\n      dup3\n        /* \"#utility.yul\":2159:2162   */\n      dup6\n        /* \"#utility.yul\":2135:2176   */\n      tag_102\n      jump\t// in\n    tag_160:\n        /* \"#utility.yul\":1854:2182   */\n      pop\n        /* \"#utility.yul\":1770:2182   */\n      swap4\n      swap3\n      pop\n      pop\n      pop\n      jump\t// out\n        /* \"#utility.yul\":2202:2542   */\n    tag_104:\n        /* \"#utility.yul\":2258:2263   */\n      0x00\n        /* \"#utility.yul\":2307:2310   */\n      dup3\n        /* \"#utility.yul\":2300:2304   */\n      0x1f\n        /* \"#utility.yul\":2292:2298   */\n      dup4\n        /* \"#utility.yul\":2288:2305   */\n      add\n        /* \"#utility.yul\":2284:2311   */\n      slt\n        /* \"#utility.yul\":2274:2396   */\n      tag_162\n      jumpi\n        /* \"#utility.yul\":2315:2394   */\n      tag_163\n      tag_95\n      jump\t// in\n    tag_163:\n        /* \"#utility.yul\":2274:2396   */\n    tag_162:\n        /* \"#utility.yul\":2432:2438   */\n      dup2\n        /* \"#utility.yul\":2419:2439   */\n      calldataload\n        /* \"#utility.yul\":2457:2536   */\n      tag_164\n        /* \"#utility.yul\":2532:2535   */\n      dup5\n        /* \"#utility.yul\":2524:2530   */\n      dup3\n        /* \"#utility.yul\":2517:2521   */\n      0x20\n        /* \"#utility.yul\":2509:2515   */\n      dup7\n        /* \"#utility.yul\":2505:2522   */\n      add\n        /* \"#utility.yul\":2457:2536   */\n      tag_103\n      jump\t// in\n    tag_164:\n        /* \"#utility.yul\":2448:2536   */\n      swap2\n      pop\n        /* \"#utility.yul\":2264:2542   */\n      pop\n        /* \"#utility.yul\":2202:2542   */\n      swap3\n      swap2\n      pop\n      pop\n      jump\t// out\n        /* \"#utility.yul\":2548:3057   */\n    tag_13:\n        /* \"#utility.yul\":2617:2623   */\n      0x00\n        /* \"#utility.yul\":2666:2668   */\n      0x20\n        /* \"#utility.yul\":2654:2663   */\n      dup3\n        /* \"#utility.yul\":2645:2652   */\n      dup5\n        /* \"#utility.yul\":2641:2664   */\n      sub\n        /* \"#utility.yul\":2637:2669   */\n      slt\n        /* \"#utility.yul\":2634:2753   */\n      iszero\n      tag_166\n      jumpi\n        /* \"#utility.yul\":2672:2751   */\n      tag_167\n      tag_93\n      jump\t// in\n    tag_167:\n        /* \"#utility.yul\":2634:2753   */\n    tag_166:\n        /* \"#utility.yul\":2820:2821   */\n      0x00\n        /* \"#utility.yul\":2809:2818   */\n      dup3\n        /* \"#utility.yul\":2805:2822   */\n      add\n        /* \"#utility.yul\":2792:2823   */\n      calldataload\n        /* \"#utility.yul\":2850:2868   */\n      0xffffffffffffffff\n        /* \"#utility.yul\":2842:2848   */\n      dup2\n        /* \"#utility.yul\":2839:2869   */\n      gt\n        /* \"#utility.yul\":2836:2953   */\n      iszero\n      tag_168\n      jumpi\n        /* \"#utility.yul\":2872:2951   */\n      tag_169\n      tag_94\n      jump\t// in\n    tag_169:\n        /* \"#utility.yul\":2836:2953   */\n    tag_168:\n        /* \"#utility.yul\":2977:3040   */\n      tag_170\n        /* \"#utility.yul\":3032:3039   */\n      dup5\n        /* \"#utility.yul\":3023:3029   */\n      dup3\n        /* \"#utility.yul\":3012:3021   */\n      dup6\n        /* \"#utility.yul\":3008:3030   */\n      add\n        /* \"#utility.yul\":2977:3040   */\n      tag_104\n      jump\t// in\n    tag_170:\n        /* \"#utility.yul\":2967:3040   */\n      swap2\n      pop\n        /* \"#utility.yul\":2763:3050   */\n      pop\n        /* \"#utility.yul\":2548:3057   */\n      swap3\n      swap2\n      pop\n      pop\n      jump\t// out\n        /* \"#utility.yul\":3063:3162   */\n    tag_105:\n        /* \"#utility.yul\":3115:3121   */\n      0x00\n        /* \"#utility.yul\":3149:3154   */\n      dup2\n        /* \"#utility.yul\":3143:3155   */\n      mload\n        /* \"#utility.yul\":3133:3155   */\n      swap1\n      pop\n        /* \"#utility.yul\":3063:3162   */\n      swap2\n      swap1\n      pop\n      jump\t// out\n        /* \"#utility.yul\":3168:3337   */\n    tag_106:\n        /* \"#utility.yul\":3252:3263   */\n      0x00\n        /* \"#utility.yul\":3286:3292   */\n      dup3\n        /* \"#utility.yul\":3281:3284   */\n      dup3\n        /* \"#utility.yul\":3274:3293   */\n      mstore\n        /* \"#utility.yul\":3326:3330   */\n      0x20\n        /* \"#utility.yul\":3321:3324   */\n      dup3\n        /* \"#utility.yul\":3317:3331   */\n      add\n        /* \"#utility.yul\":3302:3331   */\n      swap1\n      pop\n        /* \"#utility.yul\":3168:3337   */\n      swap3\n      swap2\n      pop\n      pop\n      jump\t// out\n        /* \"#utility.yul\":3343:3650   */\n    tag_107:\n        /* \"#utility.yul\":3411:3412   */\n      0x00\n        /* \"#utility.yul\":3421:3534   */\n    tag_174:\n        /* \"#utility.yul\":3435:3441   */\n      dup4\n        /* \"#utility.yul\":3432:3433   */\n      dup2\n        /* \"#utility.yul\":3429:3442   */\n      lt\n        /* \"#utility.yul\":3421:3534   */\n      iszero\n      tag_176\n      jumpi\n        /* \"#utility.yul\":3520:3521   */\n      dup1\n        /* \"#utility.yul\":3515:3518   */\n      dup3\n        /* \"#utility.yul\":3511:3522   */\n      add\n        /* \"#utility.yul\":3505:3523   */\n      mload\n        /* \"#utility.yul\":3501:3502   */\n      dup2\n        /* \"#utility.yul\":3496:3499   */\n      dup5\n        /* \"#utility.yul\":3492:3503   */\n      add\n        /* \"#utility.yul\":3485:3524   */\n      mstore\n        /* \"#utility.yul\":3457:3459   */\n      0x20\n        /* \"#utility.yul\":3454:3455   */\n      dup2\n        /* \"#utility.yul\":3450:3460   */\n      add\n        /* \"#utility.yul\":3445:3460   */\n      swap1\n      pop\n        /* \"#utility.yul\":3421:3534   */\n      jump(tag_174)\n    tag_176:\n        /* \"#utility.yul\":3552:3558   */\n      dup4\n        /* \"#utility.yul\":3549:3550   */\n      dup2\n        /* \"#utility.yul\":3546:3559   */\n      gt\n        /* \"#utility.yul\":3543:3644   */\n      iszero\n      tag_177\n      jumpi\n        /* \"#utility.yul\":3632:3633   */\n      0x00\n        /* \"#utility.yul\":3623:3629   */\n      dup5\n        /* \"#utility.yul\":3618:3621   */\n      dup5\n        /* \"#utility.yul\":3614:3630   */\n      add\n        /* \"#utility.yul\":3607:3634   */\n      mstore\n        /* \"#utility.yul\":3543:3644   */\n    tag_177:\n        /* \"#utility.yul\":3392:3650   */\n      pop\n        /* \"#utility.yul\":3343:3650   */\n      pop\n      pop\n      pop\n      jump\t// out\n        /* \"#utility.yul\":3656:4020   */\n    tag_108:\n        /* \"#utility.yul\":3744:3747   */\n      0x00\n        /* \"#utility.yul\":3772:3811   */\n      tag_179\n        /* \"#utility.yul\":3805:3810   */\n      dup3\n        /* \"#utility.yul\":3772:3811   */\n      tag_105\n      jump\t// in\n    tag_179:\n        /* \"#utility.yul\":3827:3898   */\n      tag_180\n        /* \"#utility.yul\":3891:3897   */\n      dup2\n        /* \"#utility.yul\":3886:3889   */\n      dup6\n        /* \"#utility.yul\":3827:3898   */\n      tag_106\n      jump\t// in\n    tag_180:\n        /* \"#utility.yul\":3820:3898   */\n      swap4\n      pop\n        /* \"#utility.yul\":3907:3959   */\n      tag_181\n        /* \"#utility.yul\":3952:3958   */\n      dup2\n        /* \"#utility.yul\":3947:3950   */\n      dup6\n        /* \"#utility.yul\":3940:3944   */\n      0x20\n        /* \"#utility.yul\":3933:3938   */\n      dup7\n        /* \"#utility.yul\":3929:3945   */\n      add\n        /* \"#utility.yul\":3907:3959   */\n      tag_107\n      jump\t// in\n    tag_181:\n        /* \"#utility.yul\":3984:4013   */\n      tag_182\n        /* \"#utility.yul\":4006:4012   */\n      dup2\n        /* \"#utility.yul\":3984:4013   */\n      tag_97\n      jump\t// in\n    tag_182:\n        /* \"#utility.yul\":3979:3982   */\n      dup5\n        /* \"#utility.yul\":3975:4014   */\n      add\n        /* \"#utility.yul\":3968:4014   */\n      swap2\n      pop\n        /* \"#utility.yul\":3748:4020   */\n      pop\n        /* \"#utility.yul\":3656:4020   */\n      swap3\n      swap2\n      pop\n      pop\n      jump\t// out\n        /* \"#utility.yul\":4026:4152   */\n    tag_109:\n        /* \"#utility.yul\":4063:4070   */\n      0x00\n        /* \"#utility.yul\":4103:4145   */\n      0xffffffffffffffffffffffffffffffffffffffff\n        /* \"#utility.yul\":4096:4101   */\n      dup3\n        /* \"#utility.yul\":4092:4146   */\n      and\n        /* \"#utility.yul\":4081:4146   */\n      swap1\n      pop\n        /* \"#utility.yul\":4026:4152   */\n      swap2\n      swap1\n      pop\n      jump\t// out\n        /* \"#utility.yul\":4158:4254   */\n    tag_110:\n        /* \"#utility.yul\":4195:4202   */\n      0x00\n        /* \"#utility.yul\":4224:4248   */\n      tag_185\n        /* \"#utility.yul\":4242:4247   */\n      dup3\n        /* \"#utility.yul\":4224:4248   */\n      tag_109\n      jump\t// in\n    tag_185:\n        /* \"#utility.yul\":4213:4248   */\n      swap1\n      pop\n        /* \"#utility.yul\":4158:4254   */\n      swap2\n      swap1\n      pop\n      jump\t// out\n        /* \"#utility.yul\":4260:4378   */\n    tag_111:\n        /* \"#utility.yul\":4347:4371   */\n      tag_187\n        /* \"#utility.yul\":4365:4370   */\n      dup2\n        /* \"#utility.yul\":4347:4371   */\n      tag_110\n      jump\t// in\n    tag_187:\n        /* \"#utility.yul\":4342:4345   */\n      dup3\n        /* \"#utility.yul\":4335:4372   */\n      mstore\n        /* \"#utility.yul\":4260:4378   */\n      pop\n      pop\n      jump\t// out\n        /* \"#utility.yul\":4384:4807   */\n    tag_16:\n        /* \"#utility.yul\":4525:4529   */\n      0x00\n        /* \"#utility.yul\":4563:4565   */\n      0x40\n        /* \"#utility.yul\":4552:4561   */\n      dup3\n        /* \"#utility.yul\":4548:4566   */\n      add\n        /* \"#utility.yul\":4540:4566   */\n      swap1\n      pop\n        /* \"#utility.yul\":4612:4621   */\n      dup2\n        /* \"#utility.yul\":4606:4610   */\n      dup2\n        /* \"#utility.yul\":4602:4622   */\n      sub\n        /* \"#utility.yul\":4598:4599   */\n      0x00\n        /* \"#utility.yul\":4587:4596   */\n      dup4\n        /* \"#utility.yul\":4583:4600   */\n      add\n        /* \"#utility.yul\":4576:4623   */\n      mstore\n        /* \"#utility.yul\":4640:4718   */\n      tag_189\n        /* \"#utility.yul\":4713:4717   */\n      dup2\n        /* \"#utility.yul\":4704:4710   */\n      dup6\n        /* \"#utility.yul\":4640:4718   */\n      tag_108\n      jump\t// in\n    tag_189:\n        /* \"#utility.yul\":4632:4718   */\n      swap1\n      pop\n        /* \"#utility.yul\":4728:4800   */\n      tag_190\n        /* \"#utility.yul\":4796:4798   */\n      0x20\n        /* \"#utility.yul\":4785:4794   */\n      dup4\n        /* \"#utility.yul\":4781:4799   */\n      add\n        /* \"#utility.yul\":4772:4778   */\n      dup5\n        /* \"#utility.yul\":4728:4800   */\n      tag_111\n      jump\t// in\n    tag_190:\n        /* \"#utility.yul\":4384:4807   */\n      swap4\n      swap3\n      pop\n      pop\n      pop\n      jump\t// out\n        /* \"#utility.yul\":4813:4890   */\n    tag_112:\n        /* \"#utility.yul\":4850:4857   */\n      0x00\n        /* \"#utility.yul\":4879:4884   */\n      dup2\n        /* \"#utility.yul\":4868:4884   */\n      swap1\n      pop\n        /* \"#utility.yul\":4813:4890   */\n      swap2\n      swap1\n      pop\n      jump\t// out\n        /* \"#utility.yul\":4896:5018   */\n    tag_113:\n        /* \"#utility.yul\":4969:4993   */\n      tag_193\n        /* \"#utility.yul\":4987:4992   */\n      dup2\n        /* \"#utility.yul\":4969:4993   */\n      tag_112\n      jump\t// in\n    tag_193:\n        /* \"#utility.yul\":4962:4967   */\n      dup2\n        /* \"#utility.yul\":4959:4994   */\n      eq\n        /* \"#utility.yul\":4949:5012   */\n      tag_194\n      jumpi\n        /* \"#utility.yul\":5008:5009   */\n      0x00\n        /* \"#utility.yul\":5005:5006   */\n      dup1\n        /* \"#utility.yul\":4998:5010   */\n      revert\n        /* \"#utility.yul\":4949:5012   */\n    tag_194:\n        /* \"#utility.yul\":4896:5018   */\n      pop\n      jump\t// out\n        /* \"#utility.yul\":5024:5163   */\n    tag_114:\n        /* \"#utility.yul\":5070:5075   */\n      0x00\n        /* \"#utility.yul\":5108:5114   */\n      dup2\n        /* \"#utility.yul\":5095:5115   */\n      calldataload\n        /* \"#utility.yul\":5086:5115   */\n      swap1\n      pop\n        /* \"#utility.yul\":5124:5157   */\n      tag_196\n        /* \"#utility.yul\":5151:5156   */\n      dup2\n        /* \"#utility.yul\":5124:5157   */\n      tag_113\n      jump\t// in\n    tag_196:\n        /* \"#utility.yul\":5024:5163   */\n      swap3\n      swap2\n      pop\n      pop\n      jump\t// out\n        /* \"#utility.yul\":5169:5643   */\n    tag_20:\n        /* \"#utility.yul\":5237:5243   */\n      0x00\n        /* \"#utility.yul\":5245:5251   */\n      dup1\n        /* \"#utility.yul\":5294:5296   */\n      0x40\n        /* \"#utility.yul\":5282:5291   */\n      dup4\n        /* \"#utility.yul\":5273:5280   */\n      dup6\n        /* \"#utility.yul\":5269:5292   */\n      sub\n        /* \"#utility.yul\":5265:5297   */\n      slt\n        /* \"#utility.yul\":5262:5381   */\n      iszero\n      tag_198\n      jumpi\n        /* \"#utility.yul\":5300:5379   */\n      tag_199\n      tag_93\n      jump\t// in\n    tag_199:\n        /* \"#utility.yul\":5262:5381   */\n    tag_198:\n        /* \"#utility.yul\":5420:5421   */\n      0x00\n        /* \"#utility.yul\":5445:5498   */\n      tag_200\n        /* \"#utility.yul\":5490:5497   */\n      dup6\n        /* \"#utility.yul\":5481:5487   */\n      dup3\n        /* \"#utility.yul\":5470:5479   */\n      dup7\n        /* \"#utility.yul\":5466:5488   */\n      add\n        /* \"#utility.yul\":5445:5498   */\n      tag_114\n      jump\t// in\n    tag_200:\n        /* \"#utility.yul\":5435:5498   */\n      swap3\n      pop\n        /* \"#utility.yul\":5391:5508   */\n      pop\n        /* \"#utility.yul\":5547:5549   */\n      0x20\n        /* \"#utility.yul\":5573:5626   */\n      tag_201\n        /* \"#utility.yul\":5618:5625   */\n      dup6\n        /* \"#utility.yul\":5609:5615   */\n      dup3\n        /* \"#utility.yul\":5598:5607   */\n      dup7\n        /* \"#utility.yul\":5594:5616   */\n      add\n        /* \"#utility.yul\":5573:5626   */\n      tag_114\n      jump\t// in\n    tag_201:\n        /* \"#utility.yul\":5563:5626   */\n      swap2\n      pop\n        /* \"#utility.yul\":5518:5636   */\n      pop\n        /* \"#utility.yul\":5169:5643   */\n      swap3\n      pop\n      swap3\n      swap1\n      pop\n      jump\t// out\n        /* \"#utility.yul\":5649:5767   */\n    tag_115:\n        /* \"#utility.yul\":5736:5760   */\n      tag_203\n        /* \"#utility.yul\":5754:5759   */\n      dup2\n        /* \"#utility.yul\":5736:5760   */\n      tag_112\n      jump\t// in\n    tag_203:\n        /* \"#utility.yul\":5731:5734   */\n      dup3\n        /* \"#utility.yul\":5724:5761   */\n      mstore\n        /* \"#utility.yul\":5649:5767   */\n      pop\n      pop\n      jump\t// out\n        /* \"#utility.yul\":5773:6105   */\n    tag_23:\n        /* \"#utility.yul\":5894:5898   */\n      0x00\n        /* \"#utility.yul\":5932:5934   */\n      0x40\n        /* \"#utility.yul\":5921:5930   */\n      dup3\n        /* \"#utility.yul\":5917:5935   */\n      add\n        /* \"#utility.yul\":5909:5935   */\n      swap1\n      pop\n        /* \"#utility.yul\":5945:6016   */\n      tag_205\n        /* \"#utility.yul\":6013:6014   */\n      0x00\n        /* \"#utility.yul\":6002:6011   */\n      dup4\n        /* \"#utility.yul\":5998:6015   */\n      add\n        /* \"#utility.yul\":5989:5995   */\n      dup6\n        /* \"#utility.yul\":5945:6016   */\n      tag_115\n      jump\t// in\n    tag_205:\n        /* \"#utility.yul\":6026:6098   */\n      tag_206\n        /* \"#utility.yul\":6094:6096   */\n      0x20\n        /* \"#utility.yul\":6083:6092   */\n      dup4\n        /* \"#utility.yul\":6079:6097   */\n      add\n        /* \"#utility.yul\":6070:6076   */\n      dup5\n        /* \"#utility.yul\":6026:6098   */\n      tag_111\n      jump\t// in\n    tag_206:\n        /* \"#utility.yul\":5773:6105   */\n      swap4\n      swap3\n      pop\n      pop\n      pop\n      jump\t// out\n        /* \"#utility.yul\":6111:6440   */\n    tag_27:\n        /* \"#utility.yul\":6170:6176   */\n      0x00\n        /* \"#utility.yul\":6219:6221   */\n      0x20\n        /* \"#utility.yul\":6207:6216   */\n      dup3\n        /* \"#utility.yul\":6198:6205   */\n      dup5\n        /* \"#utility.yul\":6194:6217   */\n      sub\n        /* \"#utility.yul\":6190:6222   */\n      slt\n        /* \"#utility.yul\":6187:6306   */\n      iszero\n      tag_208\n      jumpi\n        /* \"#utility.yul\":6225:6304   */\n      tag_209\n      tag_93\n      jump\t// in\n    tag_209:\n        /* \"#utility.yul\":6187:6306   */\n    tag_208:\n        /* \"#utility.yul\":6345:6346   */\n      0x00\n        /* \"#utility.yul\":6370:6423   */\n      tag_210\n        /* \"#utility.yul\":6415:6422   */\n      dup5\n        /* \"#utility.yul\":6406:6412   */\n      dup3\n        /* \"#utility.yul\":6395:6404   */\n      dup6\n        /* \"#utility.yul\":6391:6413   */\n      add\n        /* \"#utility.yul\":6370:6423   */\n      tag_114\n      jump\t// in\n    tag_210:\n        /* \"#utility.yul\":6360:6423   */\n      swap2\n      pop\n        /* \"#utility.yul\":6316:6433   */\n      pop\n        /* \"#utility.yul\":6111:6440   */\n      swap3\n      swap2\n      pop\n      pop\n      jump\t// out\n        /* \"#utility.yul\":6446:6979   */\n    tag_30:\n        /* \"#utility.yul\":6615:6619   */\n      0x00\n        /* \"#utility.yul\":6653:6655   */\n      0x60\n        /* \"#utility.yul\":6642:6651   */\n      dup3\n        /* \"#utility.yul\":6638:6656   */\n      add\n        /* \"#utility.yul\":6630:6656   */\n      swap1\n      pop\n        /* \"#utility.yul\":6702:6711   */\n      dup2\n        /* \"#utility.yul\":6696:6700   */\n      dup2\n        /* \"#utility.yul\":6692:6712   */\n      sub\n        /* \"#utility.yul\":6688:6689   */\n      0x00\n        /* \"#utility.yul\":6677:6686   */\n      dup4\n        /* \"#utility.yul\":6673:6690   */\n      add\n        /* \"#utility.yul\":6666:6713   */\n      mstore\n        /* \"#utility.yul\":6730:6808   */\n      tag_212\n        /* \"#utility.yul\":6803:6807   */\n      dup2\n        /* \"#utility.yul\":6794:6800   */\n      dup7\n        /* \"#utility.yul\":6730:6808   */\n      tag_108\n      jump\t// in\n    tag_212:\n        /* \"#utility.yul\":6722:6808   */\n      swap1\n      pop\n        /* \"#utility.yul\":6818:6890   */\n      tag_213\n        /* \"#utility.yul\":6886:6888   */\n      0x20\n        /* \"#utility.yul\":6875:6884   */\n      dup4\n        /* \"#utility.yul\":6871:6889   */\n      add\n        /* \"#utility.yul\":6862:6868   */\n      dup6\n        /* \"#utility.yul\":6818:6890   */\n      tag_115\n      jump\t// in\n    tag_213:\n        /* \"#utility.yul\":6900:6972   */\n      tag_214\n        /* \"#utility.yul\":6968:6970   */\n      0x40\n        /* \"#utility.yul\":6957:6966   */\n      dup4\n        /* \"#utility.yul\":6953:6971   */\n      add\n        /* \"#utility.yul\":6944:6950   */\n      dup5\n        /* \"#utility.yul\":6900:6972   */\n      tag_111\n      jump\t// in\n    tag_214:\n        /* \"#utility.yul\":6446:6979   */\n      swap5\n      swap4\n      pop\n      pop\n      pop\n      pop\n      jump\t// out\n        /* \"#utility.yul\":6985:7107   */\n    tag_116:\n        /* \"#utility.yul\":7058:7082   */\n      tag_216\n        /* \"#utility.yul\":7076:7081   */\n      dup2\n        /* \"#utility.yul\":7058:7082   */\n      tag_110\n      jump\t// in\n    tag_216:\n        /* \"#utility.yul\":7051:7056   */\n      dup2\n        /* \"#utility.yul\":7048:7083   */\n      eq\n        /* \"#utility.yul\":7038:7101   */\n      tag_217\n      jumpi\n        /* \"#utility.yul\":7097:7098   */\n      0x00\n        /* \"#utility.yul\":7094:7095   */\n      dup1\n        /* \"#utility.yul\":7087:7099   */\n      revert\n        /* \"#utility.yul\":7038:7101   */\n    tag_217:\n        /* \"#utility.yul\":6985:7107   */\n      pop\n      jump\t// out\n        /* \"#utility.yul\":7113:7252   */\n    tag_117:\n        /* \"#utility.yul\":7159:7164   */\n      0x00\n        /* \"#utility.yul\":7197:7203   */\n      dup2\n        /* \"#utility.yul\":7184:7204   */\n      calldataload\n        /* \"#utility.yul\":7175:7204   */\n      swap1\n      pop\n        /* \"#utility.yul\":7213:7246   */\n      tag_219\n        /* \"#utility.yul\":7240:7245   */\n      dup2\n        /* \"#utility.yul\":7213:7246   */\n      tag_116\n      jump\t// in\n    tag_219:\n        /* \"#utility.yul\":7113:7252   */\n      swap3\n      swap2\n      pop\n      pop\n      jump\t// out\n        /* \"#utility.yul\":7258:7587   */\n    tag_38:\n        /* \"#utility.yul\":7317:7323   */\n      0x00\n        /* \"#utility.yul\":7366:7368   */\n      0x20\n        /* \"#utility.yul\":7354:7363   */\n      dup3\n        /* \"#utility.yul\":7345:7352   */\n      dup5\n        /* \"#utility.yul\":7341:7364   */\n      sub\n        /* \"#utility.yul\":7337:7369   */\n      slt\n        /* \"#utility.yul\":7334:7453   */\n      iszero\n      tag_221\n      jumpi\n        /* \"#utility.yul\":7372:7451   */\n      tag_222\n      tag_93\n      jump\t// in\n    tag_222:\n        /* \"#utility.yul\":7334:7453   */\n    tag_221:\n        /* \"#utility.yul\":7492:7493   */\n      0x00\n        /* \"#utility.yul\":7517:7570   */\n      tag_223\n        /* \"#utility.yul\":7562:7569   */\n      dup5\n        /* \"#utility.yul\":7553:7559   */\n      dup3\n        /* \"#utility.yul\":7542:7551   */\n      dup6\n        /* \"#utility.yul\":7538:7560   */\n      add\n        /* \"#utility.yul\":7517:7570   */\n      tag_117\n      jump\t// in\n    tag_223:\n        /* \"#utility.yul\":7507:7570   */\n      swap2\n      pop\n        /* \"#utility.yul\":7463:7580   */\n      pop\n        /* \"#utility.yul\":7258:7587   */\n      swap3\n      swap2\n      pop\n      pop\n      jump\t// out\n        /* \"#utility.yul\":7593:7906   */\n    tag_41:\n        /* \"#utility.yul\":7706:7710   */\n      0x00\n        /* \"#utility.yul\":7744:7746   */\n      0x20\n        /* \"#utility.yul\":7733:7742   */\n      dup3\n        /* \"#utility.yul\":7729:7747   */\n      add\n        /* \"#utility.yul\":7721:7747   */\n      swap1\n      pop\n        /* \"#utility.yul\":7793:7802   */\n      dup2\n        /* \"#utility.yul\":7787:7791   */\n      dup2\n        /* \"#utility.yul\":7783:7803   */\n      sub\n        /* \"#utility.yul\":7779:7780   */\n      0x00\n        /* \"#utility.yul\":7768:7777   */\n      dup4\n        /* \"#utility.yul\":7764:7781   */\n      add\n        /* \"#utility.yul\":7757:7804   */\n      mstore\n        /* \"#utility.yul\":7821:7899   */\n      tag_225\n        /* \"#utility.yul\":7894:7898   */\n      dup2\n        /* \"#utility.yul\":7885:7891   */\n      dup5\n        /* \"#utility.yul\":7821:7899   */\n      tag_108\n      jump\t// in\n    tag_225:\n        /* \"#utility.yul\":7813:7899   */\n      swap1\n      pop\n        /* \"#utility.yul\":7593:7906   */\n      swap3\n      swap2\n      pop\n      pop\n      jump\t// out\n        /* \"#utility.yul\":7912:8354   */\n    tag_46:\n        /* \"#utility.yul\":8061:8065   */\n      0x00\n        /* \"#utility.yul\":8099:8101   */\n      0x60\n        /* \"#utility.yul\":8088:8097   */\n      dup3\n        /* \"#utility.yul\":8084:8102   */\n      add\n        /* \"#utility.yul\":8076:8102   */\n      swap1\n      pop\n        /* \"#utility.yul\":8112:8183   */\n      tag_227\n        /* \"#utility.yul\":8180:8181   */\n      0x00\n        /* \"#utility.yul\":8169:8178   */\n      dup4\n        /* \"#utility.yul\":8165:8182   */\n      add\n        /* \"#utility.yul\":8156:8162   */\n      dup7\n        /* \"#utility.yul\":8112:8183   */\n      tag_111\n      jump\t// in\n    tag_227:\n        /* \"#utility.yul\":8193:8265   */\n      tag_228\n        /* \"#utility.yul\":8261:8263   */\n      0x20\n        /* \"#utility.yul\":8250:8259   */\n      dup4\n        /* \"#utility.yul\":8246:8264   */\n      add\n        /* \"#utility.yul\":8237:8243   */\n      dup6\n        /* \"#utility.yul\":8193:8265   */\n      tag_115\n      jump\t// in\n    tag_228:\n        /* \"#utility.yul\":8275:8347   */\n      tag_229\n        /* \"#utility.yul\":8343:8345   */\n      0x40\n        /* \"#utility.yul\":8332:8341   */\n      dup4\n        /* \"#utility.yul\":8328:8346   */\n      add\n        /* \"#utility.yul\":8319:8325   */\n      dup5\n        /* \"#utility.yul\":8275:8347   */\n      tag_115\n      jump\t// in\n    tag_229:\n        /* \"#utility.yul\":7912:8354   */\n      swap5\n      swap4\n      pop\n      pop\n      pop\n      pop\n      jump\t// out\n        /* \"#utility.yul\":8360:9159   */\n    tag_50:\n        /* \"#utility.yul\":8447:8453   */\n      0x00\n        /* \"#utility.yul\":8455:8461   */\n      dup1\n        /* \"#utility.yul\":8463:8469   */\n      0x00\n        /* \"#utility.yul\":8512:8514   */\n      0x60\n        /* \"#utility.yul\":8500:8509   */\n      dup5\n        /* \"#utility.yul\":8491:8498   */\n      dup7\n        /* \"#utility.yul\":8487:8510   */\n      sub\n        /* \"#utility.yul\":8483:8515   */\n      slt\n        /* \"#utility.yul\":8480:8599   */\n      iszero\n      tag_231\n      jumpi\n        /* \"#utility.yul\":8518:8597   */\n      tag_232\n      tag_93\n      jump\t// in\n    tag_232:\n        /* \"#utility.yul\":8480:8599   */\n    tag_231:\n        /* \"#utility.yul\":8638:8639   */\n      0x00\n        /* \"#utility.yul\":8663:8716   */\n      tag_233\n        /* \"#utility.yul\":8708:8715   */\n      dup7\n        /* \"#utility.yul\":8699:8705   */\n      dup3\n        /* \"#utility.yul\":8688:8697   */\n      dup8\n        /* \"#utility.yul\":8684:8706   */\n      add\n        /* \"#utility.yul\":8663:8716   */\n      tag_114\n      jump\t// in\n    tag_233:\n        /* \"#utility.yul\":8653:8716   */\n      swap4\n      pop\n        /* \"#utility.yul\":8609:8726   */\n      pop\n        /* \"#utility.yul\":8793:8795   */\n      0x20\n        /* \"#utility.yul\":8782:8791   */\n      dup5\n        /* \"#utility.yul\":8778:8796   */\n      add\n        /* \"#utility.yul\":8765:8797   */\n      calldataload\n        /* \"#utility.yul\":8824:8842   */\n      0xffffffffffffffff\n        /* \"#utility.yul\":8816:8822   */\n      dup2\n        /* \"#utility.yul\":8813:8843   */\n      gt\n        /* \"#utility.yul\":8810:8927   */\n      iszero\n      tag_234\n      jumpi\n        /* \"#utility.yul\":8846:8925   */\n      tag_235\n      tag_94\n      jump\t// in\n    tag_235:\n        /* \"#utility.yul\":8810:8927   */\n    tag_234:\n        /* \"#utility.yul\":8951:9014   */\n      tag_236\n        /* \"#utility.yul\":9006:9013   */\n      dup7\n        /* \"#utility.yul\":8997:9003   */\n      dup3\n        /* \"#utility.yul\":8986:8995   */\n      dup8\n        /* \"#utility.yul\":8982:9004   */\n      add\n        /* \"#utility.yul\":8951:9014   */\n      tag_104\n      jump\t// in\n    tag_236:\n        /* \"#utility.yul\":8941:9014   */\n      swap3\n      pop\n        /* \"#utility.yul\":8736:9024   */\n      pop\n        /* \"#utility.yul\":9063:9065   */\n      0x40\n        /* \"#utility.yul\":9089:9142   */\n      tag_237\n        /* \"#utility.yul\":9134:9141   */\n      dup7\n        /* \"#utility.yul\":9125:9131   */\n      dup3\n        /* \"#utility.yul\":9114:9123   */\n      dup8\n        /* \"#utility.yul\":9110:9132   */\n      add\n        /* \"#utility.yul\":9089:9142   */\n      tag_114\n      jump\t// in\n    tag_237:\n        /* \"#utility.yul\":9079:9142   */\n      swap2\n      pop\n        /* \"#utility.yul\":9034:9152   */\n      pop\n        /* \"#utility.yul\":8360:9159   */\n      swap3\n      pop\n      swap3\n      pop\n      swap3\n      jump\t// out\n        /* \"#utility.yul\":9165:9698   */\n    tag_53:\n        /* \"#utility.yul\":9334:9338   */\n      0x00\n        /* \"#utility.yul\":9372:9374   */\n      0x60\n        /* \"#utility.yul\":9361:9370   */\n      dup3\n        /* \"#utility.yul\":9357:9375   */\n      add\n        /* \"#utility.yul\":9349:9375   */\n      swap1\n      pop\n        /* \"#utility.yul\":9385:9456   */\n      tag_239\n        /* \"#utility.yul\":9453:9454   */\n      0x00\n        /* \"#utility.yul\":9442:9451   */\n      dup4\n        /* \"#utility.yul\":9438:9455   */\n      add\n        /* \"#utility.yul\":9429:9435   */\n      dup7\n        /* \"#utility.yul\":9385:9456   */\n      tag_115\n      jump\t// in\n    tag_239:\n        /* \"#utility.yul\":9503:9512   */\n      dup2\n        /* \"#utility.yul\":9497:9501   */\n      dup2\n        /* \"#utility.yul\":9493:9513   */\n      sub\n        /* \"#utility.yul\":9488:9490   */\n      0x20\n        /* \"#utility.yul\":9477:9486   */\n      dup4\n        /* \"#utility.yul\":9473:9491   */\n      add\n        /* \"#utility.yul\":9466:9514   */\n      mstore\n        /* \"#utility.yul\":9531:9609   */\n      tag_240\n        /* \"#utility.yul\":9604:9608   */\n      dup2\n        /* \"#utility.yul\":9595:9601   */\n      dup6\n        /* \"#utility.yul\":9531:9609   */\n      tag_108\n      jump\t// in\n    tag_240:\n        /* \"#utility.yul\":9523:9609   */\n      swap1\n      pop\n        /* \"#utility.yul\":9619:9691   */\n      tag_241\n        /* \"#utility.yul\":9687:9689   */\n      0x40\n        /* \"#utility.yul\":9676:9685   */\n      dup4\n        /* \"#utility.yul\":9672:9690   */\n      add\n        /* \"#utility.yul\":9663:9669   */\n      dup5\n        /* \"#utility.yul\":9619:9691   */\n      tag_115\n      jump\t// in\n    tag_241:\n        /* \"#utility.yul\":9165:9698   */\n      swap5\n      swap4\n      pop\n      pop\n      pop\n      pop\n      jump\t// out\n        /* \"#utility.yul\":9704:9884   */\n    tag_118:\n        /* \"#utility.yul\":9752:9829   */\n      0x4e487b7100000000000000000000000000000000000000000000000000000000\n        /* \"#utility.yul\":9749:9750   */\n      0x00\n        /* \"#utility.yul\":9742:9830   */\n      mstore\n        /* \"#utility.yul\":9849:9853   */\n      0x22\n        /* \"#utility.yul\":9846:9847   */\n      0x04\n        /* \"#utility.yul\":9839:9854   */\n      mstore\n        /* \"#utility.yul\":9873:9877   */\n      0x24\n        /* \"#utility.yul\":9870:9871   */\n      0x00\n        /* \"#utility.yul\":9863:9878   */\n      revert\n        /* \"#utility.yul\":9890:10210   */\n    tag_60:\n        /* \"#utility.yul\":9934:9940   */\n      0x00\n        /* \"#utility.yul\":9971:9972   */\n      0x02\n        /* \"#utility.yul\":9965:9969   */\n      dup3\n        /* \"#utility.yul\":9961:9973   */\n      div\n        /* \"#utility.yul\":9951:9973   */\n      swap1\n      pop\n        /* \"#utility.yul\":10018:10019   */\n      0x01\n        /* \"#utility.yul\":10012:10016   */\n      dup3\n        /* \"#utility.yul\":10008:10020   */\n      and\n        /* \"#utility.yul\":10039:10057   */\n      dup1\n        /* \"#utility.yul\":10029:10110   */\n      tag_244\n      jumpi\n        /* \"#utility.yul\":10095:10099   */\n      0x7f\n        /* \"#utility.yul\":10087:10093   */\n      dup3\n        /* \"#utility.yul\":10083:10100   */\n      and\n        /* \"#utility.yul\":10073:10100   */\n      swap2\n      pop\n        /* \"#utility.yul\":10029:10110   */\n    tag_244:\n        /* \"#utility.yul\":10157:10159   */\n      0x20\n        /* \"#utility.yul\":10149:10155   */\n      dup3\n        /* \"#utility.yul\":10146:10160   */\n      lt\n        /* \"#utility.yul\":10126:10144   */\n      dup2\n        /* \"#utility.yul\":10123:10161   */\n      sub\n        /* \"#utility.yul\":10120:10204   */\n      tag_245\n      jumpi\n        /* \"#utility.yul\":10176:10194   */\n      tag_246\n      tag_118\n      jump\t// in\n    tag_246:\n        /* \"#utility.yul\":10120:10204   */\n    tag_245:\n        /* \"#utility.yul\":9941:10210   */\n      pop\n        /* \"#utility.yul\":9890:10210   */\n      swap2\n      swap1\n      pop\n      jump\t// out\n        /* \"#utility.yul\":10216:10357   */\n    tag_119:\n        /* \"#utility.yul\":10265:10269   */\n      0x00\n        /* \"#utility.yul\":10288:10291   */\n      dup2\n        /* \"#utility.yul\":10280:10291   */\n      swap1\n      pop\n        /* \"#utility.yul\":10311:10314   */\n      dup2\n        /* \"#utility.yul\":10308:10309   */\n      0x00\n        /* \"#utility.yul\":10301:10315   */\n      mstore\n        /* \"#utility.yul\":10345:10349   */\n      0x20\n        /* \"#utility.yul\":10342:10343   */\n      0x00\n        /* \"#utility.yul\":10332:10350   */\n      keccak256\n        /* \"#utility.yul\":10324:10350   */\n      swap1\n      pop\n        /* \"#utility.yul\":10216:10357   */\n      swap2\n      swap1\n      pop\n      jump\t// out\n        /* \"#utility.yul\":10363:10456   */\n    tag_120:\n        /* \"#utility.yul\":10400:10406   */\n      0x00\n        /* \"#utility.yul\":10447:10449   */\n      0x20\n        /* \"#utility.yul\":10442:10444   */\n      0x1f\n        /* \"#utility.yul\":10435:10440   */\n      dup4\n        /* \"#utility.yul\":10431:10445   */\n      add\n        /* \"#utility.yul\":10427:10450   */\n      div\n        /* \"#utility.yul\":10417:10450   */\n      swap1\n      pop\n        /* \"#utility.yul\":10363:10456   */\n      swap2\n      swap1\n      pop\n      jump\t// out\n        /* \"#utility.yul\":10462:10569   */\n    tag_121:\n        /* \"#utility.yul\":10506:10514   */\n      0x00\n        /* \"#utility.yul\":10556:10561   */\n      dup3\n        /* \"#utility.yul\":10550:10554   */\n      dup3\n        /* \"#utility.yul\":10546:10562   */\n      shl\n        /* \"#utility.yul\":10525:10562   */\n      swap1\n      pop\n        /* \"#utility.yul\":10462:10569   */\n      swap3\n      swap2\n      pop\n      pop\n      jump\t// out\n        /* \"#utility.yul\":10575:10968   */\n    tag_122:\n        /* \"#utility.yul\":10644:10650   */\n      0x00\n        /* \"#utility.yul\":10694:10695   */\n      0x08\n        /* \"#utility.yul\":10682:10692   */\n      dup4\n        /* \"#utility.yul\":10678:10696   */\n      mul\n        /* \"#utility.yul\":10717:10814   */\n      tag_251\n        /* \"#utility.yul\":10747:10813   */\n      0xffffffffffffffffffffffffffffffffffffffffffffffffffffffffffffffff\n        /* \"#utility.yul\":10736:10745   */\n      dup3\n        /* \"#utility.yul\":10717:10814   */\n      tag_121\n      jump\t// in\n    tag_251:\n        /* \"#utility.yul\":10835:10874   */\n      tag_252\n        /* \"#utility.yul\":10865:10873   */\n      dup7\n        /* \"#utility.yul\":10854:10863   */\n      dup4\n        /* \"#utility.yul\":10835:10874   */\n      tag_121\n      jump\t// in\n    tag_252:\n        /* \"#utility.yul\":10823:10874   */\n      swap6\n      pop\n        /* \"#utility.yul\":10907:10911   */\n      dup1\n        /* \"#utility.yul\":10903:10912   */\n      not\n        /* \"#utility.yul\":10896:10901   */\n      dup5\n        /* \"#utility.yul\":10892:10913   */\n      and\n        /* \"#utility.yul\":10883:10913   */\n      swap4\n      pop\n        /* \"#utility.yul\":10956:10960   */\n      dup1\n        /* \"#utility.yul\":10946:10954   */\n      dup7\n        /* \"#utility.yul\":10942:10961   */\n      and\n        /* \"#utility.yul\":10935:10940   */\n      dup5\n        /* \"#utility.yul\":10932:10962   */\n      or\n        /* \"#utility.yul\":10922:10962   */\n      swap3\n      pop\n        /* \"#utility.yul\":10651:10968   */\n      pop\n      pop\n        /* \"#utility.yul\":10575:10968   */\n      swap4\n      swap3\n      pop\n      pop\n      pop\n      jump\t// out\n        /* \"#utility.yul\":10974:11034   */\n    tag_123:\n        /* \"#utility.yul\":11002:11005   */\n      0x00\n        /* \"#utility.yul\":11023:11028   */\n      dup2\n        /* \"#utility.yul\":11016:11028   */\n      swap1\n      pop\n        /* \"#utility.yul\":10974:11034   */\n      swap2\n      swap1\n      pop\n      jump\t// out\n        /* \"#utility.yul\":11040:11182   */\n    tag_124:\n        /* \"#utility.yul\":11090:11099   */\n      0x00\n        /* \"#utility.yul\":11123:11176   */\n      tag_255\n        /* \"#utility.yul\":11141:11175   */\n      tag_256\n        /* \"#utility.yul\":11150:11174   */\n      tag_257\n        /* \"#utility.yul\":11168:11173   */\n      dup5\n        /* \"#utility.yul\":11150:11174   */\n      tag_112\n      jump\t// in\n    tag_257:\n        /* \"#utility.yul\":11141:11175   */\n      tag_123\n      jump\t// in\n    tag_256:\n        /* \"#utility.yul\":11123:11176   */\n      tag_112\n      jump\t// in\n    tag_255:\n        /* \"#utility.yul\":11110:11176   */\n      swap1\n      pop\n        /* \"#utility.yul\":11040:11182   */\n      swap2\n      swap1\n      pop\n      jump\t// out\n        /* \"#utility.yul\":11188:11263   */\n    tag_125:\n        /* \"#utility.yul\":11231:11234   */\n      0x00\n        /* \"#utility.yul\":11252:11257   */\n      dup2\n        /* \"#utility.yul\":11245:11257   */\n      swap1\n      pop\n        /* \"#utility.yul\":11188:11263   */\n      swap2\n      swap1\n      pop\n      jump\t// out\n        /* \"#utility.yul\":11269:11538   */\n    tag_126:\n        /* \"#utility.yul\":11379:11418   */\n      tag_260\n        /* \"#utility.yul\":11410:11417   */\n      dup4\n        /* \"#utility.yul\":11379:11418   */\n      tag_124\n      jump\t// in\n    tag_260:\n        /* \"#utility.yul\":11440:11531   */\n      tag_261\n        /* \"#utility.yul\":11489:11530   */\n      tag_262\n        /* \"#utility.yul\":11513:11529   */\n      dup3\n        /* \"#utility.yul\":11489:11530   */\n      tag_125\n      jump\t// in\n    tag_262:\n        /* \"#utility.yul\":11481:11487   */\n      dup5\n        /* \"#utility.yul\":11474:11478   */\n      dup5\n        /* \"#utility.yul\":11468:11479   */\n      sload\n        /* \"#utility.yul\":11440:11531   */\n      tag_122\n      jump\t// in\n    tag_261:\n        /* \"#utility.yul\":11434:11438   */\n      dup3\n        /* \"#utility.yul\":11427:11532   */\n      sstore\n        /* \"#utility.yul\":11345:11538   */\n      pop\n        /* \"#utility.yul\":11269:11538   */\n      pop\n      pop\n      pop\n      jump\t// out\n        /* \"#utility.yul\":11544:11617   */\n    tag_127:\n        /* \"#utility.yul\":11589:11592   */\n      0x00\n        /* \"#utility.yul\":11544:11617   */\n      swap1\n      jump\t// out\n        /* \"#utility.yul\":11623:11812   */\n    tag_128:\n        /* \"#utility.yul\":11700:11732   */\n      tag_265\n      tag_127\n      jump\t// in\n    tag_265:\n        /* \"#utility.yul\":11741:11806   */\n      tag_266\n        /* \"#utility.yul\":11799:11805   */\n      dup2\n        /* \"#utility.yul\":11791:11797   */\n      dup5\n        /* \"#utility.yul\":11785:11789   */\n      dup5\n        /* \"#utility.yul\":11741:11806   */\n      tag_126\n      jump\t// in\n    tag_266:\n        /* \"#utility.yul\":11676:11812   */\n      pop\n        /* \"#utility.yul\":11623:11812   */\n      pop\n      pop\n      jump\t// out\n        /* \"#utility.yul\":11818:12004   */\n    tag_129:\n        /* \"#utility.yul\":11878:11998   */\n    tag_268:\n        /* \"#utility.yul\":11895:11898   */\n      dup2\n        /* \"#utility.yul\":11888:11893   */\n      dup2\n        /* \"#utility.yul\":11885:11899   */\n      lt\n        /* \"#utility.yul\":11878:11998   */\n      iszero\n      tag_270\n      jumpi\n        /* \"#utility.yul\":11949:11988   */\n      tag_271\n        /* \"#utility.yul\":11986:11987   */\n      0x00\n        /* \"#utility.yul\":11979:11984   */\n      dup3\n        /* \"#utility.yul\":11949:11988   */\n      tag_128\n      jump\t// in\n    tag_271:\n        /* \"#utility.yul\":11922:11923   */\n      0x01\n        /* \"#utility.yul\":11915:11920   */\n      dup2\n        /* \"#utility.yul\":11911:11924   */\n      add\n        /* \"#utility.yul\":11902:11924   */\n      swap1\n      pop\n        /* \"#utility.yul\":11878:11998   */\n      jump(tag_268)\n    tag_270:\n        /* \"#utility.yul\":11818:12004   */\n      pop\n      pop\n      jump\t// out\n        /* \"#utility.yul\":12010:12553   */\n    tag_130:\n        /* \"#utility.yul\":12111:12113   */\n      0x1f\n        /* \"#utility.yul\":12106:12109   */\n      dup3\n        /* \"#utility.yul\":12103:12114   */\n      gt\n        /* \"#utility.yul\":12100:12546   */\n      iszero\n      tag_273\n      jumpi\n        /* \"#utility.yul\":12145:12183   */\n      tag_274\n        /* \"#utility.yul\":12177:12182   */\n      dup2\n        /* \"#utility.yul\":12145:12183   */\n      tag_119\n      jump\t// in\n    tag_274:\n        /* \"#utility.yul\":12229:12258   */\n      tag_275\n        /* \"#utility.yul\":12247:12257   */\n      dup5\n        /* \"#utility.yul\":12229:12258   */\n      tag_120\n      jump\t// in\n    tag_275:\n        /* \"#utility.yul\":12219:12227   */\n      dup2\n        /* \"#utility.yul\":12215:12259   */\n      add\n        /* \"#utility.yul\":12412:12414   */\n      0x20\n        /* \"#utility.yul\":12400:12410   */\n      dup6\n        /* \"#utility.yul\":12397:12415   */\n      lt\n        /* \"#utility.yul\":12394:12443   */\n      iszero\n      tag_276\n      jumpi\n        /* \"#utility.yul\":12433:12441   */\n      dup2\n        /* \"#utility.yul\":12418:12441   */\n      swap1\n      pop\n        /* \"#utility.yul\":12394:12443   */\n    tag_276:\n        /* \"#utility.yul\":12456:12536   */\n      tag_277\n        /* \"#utility.yul\":12512:12534   */\n      tag_278\n        /* \"#utility.yul\":12530:12533   */\n      dup6\n        /* \"#utility.yul\":12512:12534   */\n      tag_120\n      jump\t// in\n    tag_278:\n        /* \"#utility.yul\":12502:12510   */\n      dup4\n        /* \"#utility.yul\":12498:12535   */\n      add\n        /* \"#utility.yul\":12485:12496   */\n      dup3\n        /* \"#utility.yul\":12456:12536   */\n      tag_129\n      jump\t// in\n    tag_277:\n        /* \"#utility.yul\":12115:12546   */\n      pop\n      pop\n        /* \"#utility.yul\":12100:12546   */\n    tag_273:\n        /* \"#utility.yul\":12010:12553   */\n      pop\n      pop\n      pop\n      jump\t// out\n        /* \"#utility.yul\":12559:12676   */\n    tag_131:\n        /* \"#utility.yul\":12613:12621   */\n      0x00\n        /* \"#utility.yul\":12663:12668   */\n      dup3\n        /* \"#utility.yul\":12657:12661   */\n      dup3\n        /* \"#utility.yul\":12653:12669   */\n      shr\n        /* \"#utility.yul\":12632:12669   */\n      swap1\n      pop\n        /* \"#utility.yul\":12559:12676   */\n      swap3\n      swap2\n      pop\n      pop\n      jump\t// out\n        /* \"#utility.yul\":12682:12851   */\n    tag_132:\n        /* \"#utility.yul\":12726:12732   */\n      0x00\n        /* \"#utility.yul\":12759:12810   */\n      tag_281\n        /* \"#utility.yul\":12807:12808   */\n      0x00\n        /* \"#utility.yul\":12803:12809   */\n      not\n        /* \"#utility.yul\":12795:12800   */\n      dup5\n        /* \"#utility.yul\":12792:12793   */\n      0x08\n        /* \"#utility.yul\":12788:12801   */\n      mul\n        /* \"#utility.yul\":12759:12810   */\n      tag_131\n      jump\t// in\n    tag_281:\n        /* \"#utility.yul\":12755:12811   */\n      not\n        /* \"#utility.yul\":12840:12844   */\n      dup1\n        /* \"#utility.yul\":12834:12838   */\n      dup4\n        /* \"#utility.yul\":12830:12845   */\n      and\n        /* \"#utility.yul\":12820:12845   */\n      swap2\n      pop\n        /* \"#utility.yul\":12733:12851   */\n      pop\n        /* \"#utility.yul\":12682:12851   */\n      swap3\n      swap2\n      pop\n      pop\n      jump\t// out\n        /* \"#utility.yul\":12856:13151   */\n    tag_133:\n        /* \"#utility.yul\":12932:12936   */\n      0x00\n        /* \"#utility.yul\":13078:13107   */\n      tag_283\n        /* \"#utility.yul\":13103:13106   */\n      dup4\n        /* \"#utility.yul\":13097:13101   */\n      dup4\n        /* \"#utility.yul\":13078:13107   */\n      tag_132\n      jump\t// in\n    tag_283:\n        /* \"#utility.yul\":13070:13107   */\n      swap2\n      pop\n        /* \"#utility.yul\":13140:13143   */\n      dup3\n        /* \"#utility.yul\":13137:13138   */\n      0x02\n        /* \"#utility.yul\":13133:13144   */\n      mul\n        /* \"#utility.yul\":13127:13131   */\n      dup3\n        /* \"#utility.yul\":13124:13145   */\n      or\n        /* \"#utility.yul\":13116:13145   */\n      swap1\n      pop\n        /* \"#utility.yul\":12856:13151   */\n      swap3\n      swap2\n      pop\n      pop\n      jump\t// out\n        /* \"#utility.yul\":13156:14551   */\n    tag_56:\n        /* \"#utility.yul\":13273:13310   */\n      tag_285\n        /* \"#utility.yul\":13306:13309   */\n      dup3\n        /* \"#utility.yul\":13273:13310   */\n      tag_105\n      jump\t// in\n    tag_285:\n        /* \"#utility.yul\":13375:13393   */\n      0xffffffffffffffff\n        /* \"#utility.yul\":13367:13373   */\n      dup2\n        /* \"#utility.yul\":13364:13394   */\n      gt\n        /* \"#utility.yul\":13361:13417   */\n      iszero\n      tag_286\n      jumpi\n        /* \"#utility.yul\":13397:13415   */\n      tag_287\n      tag_98\n      jump\t// in\n    tag_287:\n        /* \"#utility.yul\":13361:13417   */\n    tag_286:\n        /* \"#utility.yul\":13441:13479   */\n      tag_288\n        /* \"#utility.yul\":13473:13477   */\n      dup3\n        /* \"#utility.yul\":13467:13478   */\n      sload\n        /* \"#utility.yul\":13441:13479   */\n      tag_60\n      jump\t// in\n    tag_288:\n        /* \"#utility.yul\":13526:13593   */\n      tag_289\n        /* \"#utility.yul\":13586:13592   */\n      dup3\n        /* \"#utility.yul\":13578:13584   */\n      dup3\n        /* \"#utility.yul\":13572:13576   */\n      dup6\n        /* \"#utility.yul\":13526:13593   */\n      tag_130\n      jump\t// in\n    tag_289:\n        /* \"#utility.yul\":13620:13621   */\n      0x00\n        /* \"#utility.yul\":13644:13648   */\n      0x20\n        /* \"#utility.yul\":13631:13648   */\n      swap1\n      pop\n        /* \"#utility.yul\":13676:13678   */\n      0x1f\n        /* \"#utility.yul\":13668:13674   */\n      dup4\n        /* \"#utility.yul\":13665:13679   */\n      gt\n        /* \"#utility.yul\":13693:13694   */\n      0x01\n        /* \"#utility.yul\":13688:14306   */\n      dup2\n      eq\n      tag_291\n      jumpi\n        /* \"#utility.yul\":14350:14351   */\n      0x00\n        /* \"#utility.yul\":14367:14373   */\n      dup5\n        /* \"#utility.yul\":14364:14441   */\n      iszero\n      tag_292\n      jumpi\n        /* \"#utility.yul\":14416:14425   */\n      dup3\n        /* \"#utility.yul\":14411:14414   */\n      dup8\n        /* \"#utility.yul\":14407:14426   */\n      add\n        /* \"#utility.yul\":14401:14427   */\n      mload\n        /* \"#utility.yul\":14392:14427   */\n      swap1\n      pop\n        /* \"#utility.yul\":14364:14441   */\n    tag_292:\n        /* \"#utility.yul\":14467:14534   */\n      tag_293\n        /* \"#utility.yul\":14527:14533   */\n      dup6\n        /* \"#utility.yul\":14520:14525   */\n      dup3\n        /* \"#utility.yul\":14467:14534   */\n      tag_133\n      jump\t// in\n    tag_293:\n        /* \"#utility.yul\":14461:14465   */\n      dup7\n        /* \"#utility.yul\":14454:14535   */\n      sstore\n        /* \"#utility.yul\":14323:14545   */\n      pop\n        /* \"#utility.yul\":13658:14545   */\n      jump(tag_290)\n        /* \"#utility.yul\":13688:14306   */\n    tag_291:\n        /* \"#utility.yul\":13740:13744   */\n      0x1f\n        /* \"#utility.yul\":13736:13745   */\n      not\n        /* \"#utility.yul\":13728:13734   */\n      dup5\n        /* \"#utility.yul\":13724:13746   */\n      and\n        /* \"#utility.yul\":13774:13811   */\n      tag_294\n        /* \"#utility.yul\":13806:13810   */\n      dup7\n        /* \"#utility.yul\":13774:13811   */\n      tag_119\n      jump\t// in\n    tag_294:\n        /* \"#utility.yul\":13833:13834   */\n      0x00\n        /* \"#utility.yul\":13847:14055   */\n    tag_295:\n        /* \"#utility.yul\":13861:13868   */\n      dup3\n        /* \"#utility.yul\":13858:13859   */\n      dup2\n        /* \"#utility.yul\":13855:13869   */\n      lt\n        /* \"#utility.yul\":13847:14055   */\n      iszero\n      tag_297\n      jumpi\n        /* \"#utility.yul\":13940:13949   */\n      dup5\n        /* \"#utility.yul\":13935:13938   */\n      dup10\n        /* \"#utility.yul\":13931:13950   */\n      add\n        /* \"#utility.yul\":13925:13951   */\n      mload\n        /* \"#utility.yul\":13917:13923   */\n      dup3\n        /* \"#utility.yul\":13910:13952   */\n      sstore\n        /* \"#utility.yul\":13991:13992   */\n      0x01\n        /* \"#utility.yul\":13983:13989   */\n      dup3\n        /* \"#utility.yul\":13979:13993   */\n      add\n        /* \"#utility.yul\":13969:13993   */\n      swap2\n      pop\n        /* \"#utility.yul\":14038:14040   */\n      0x20\n        /* \"#utility.yul\":14027:14036   */\n      dup6\n        /* \"#utility.yul\":14023:14041   */\n      add\n        /* \"#utility.yul\":14010:14041   */\n      swap5\n      pop\n        /* \"#utility.yul\":13884:13888   */\n      0x20\n        /* \"#utility.yul\":13881:13882   */\n      dup2\n        /* \"#utility.yul\":13877:13889   */\n      add\n        /* \"#utility.yul\":13872:13889   */\n      swap1\n      pop\n        /* \"#utility.yul\":13847:14055   */\n      jump(tag_295)\n    tag_297:\n        /* \"#utility.yul\":14083:14089   */\n      dup7\n        /* \"#utility.yul\":14074:14081   */\n      dup4\n        /* \"#utility.yul\":14071:14090   */\n      lt\n        /* \"#utility.yul\":14068:14247   */\n      iszero\n      tag_298\n      jumpi\n        /* \"#utility.yul\":14141:14150   */\n      dup5\n        /* \"#utility.yul\":14136:14139   */\n      dup10\n        /* \"#utility.yul\":14132:14151   */\n      add\n        /* \"#utility.yul\":14126:14152   */\n      mload\n        /* \"#utility.yul\":14184:14232   */\n      tag_299\n        /* \"#utility.yul\":14226:14230   */\n      0x1f\n        /* \"#utility.yul\":14218:14224   */\n      dup10\n        /* \"#utility.yul\":14214:14231   */\n      and\n        /* \"#utility.yul\":14203:14212   */\n      dup3\n        /* \"#utility.yul\":14184:14232   */\n      tag_132\n      jump\t// in\n    tag_299:\n        /* \"#utility.yul\":14176:14182   */\n      dup4\n        /* \"#utility.yul\":14169:14233   */\n      sstore\n        /* \"#utility.yul\":14091:14247   */\n      pop\n        /* \"#utility.yul\":14068:14247   */\n    tag_298:\n        /* \"#utility.yul\":14293:14294   */\n      0x01\n        /* \"#utility.yul\":14289:14290   */\n      0x02\n        /* \"#utility.yul\":14281:14287   */\n      dup9\n        /* \"#utility.yul\":14277:14291   */\n      mul\n        /* \"#utility.yul\":14273:14295   */\n      add\n        /* \"#utility.yul\":14267:14271   */\n      dup9\n        /* \"#utility.yul\":14260:14296   */\n      sstore\n        /* \"#utility.yul\":13695:14306   */\n      pop\n      pop\n      pop\n        /* \"#utility.yul\":13658:14545   */\n    tag_290:\n      pop\n        /* \"#utility.yul\":13248:14551   */\n      pop\n      pop\n      pop\n        /* \"#utility.yul\":13156:14551   */\n      pop\n      pop\n      jump\t// out\n        /* \"#utility.yul\":14557:14737   */\n    tag_78:\n        /* \"#utility.yul\":14605:14682   */\n      0x4e487b7100000000000000000000000000000000000000000000000000000000\n        /* \"#utility.yul\":14602:14603   */\n      0x00\n        /* \"#utility.yul\":14595:14683   */\n      mstore\n        /* \"#utility.yul\":14702:14706   */\n      0x32\n        /* \"#utility.yul\":14699:14700   */\n      0x04\n        /* \"#utility.yul\":14692:14707   */\n      mstore\n        /* \"#utility.yul\":14726:14730   */\n      0x24\n        /* \"#utility.yul\":14723:14724   */\n      0x00\n        /* \"#utility.yul\":14716:14731   */\n      revert\n        /* \"#utility.yul\":14743:14923   */\n    tag_134:\n        /* \"#utility.yul\":14791:14868   */\n      0x4e487b7100000000000000000000000000000000000000000000000000000000\n        /* \"#utility.yul\":14788:14789   */\n      0x00\n        /* \"#utility.yul\":14781:14869   */\n      mstore\n        /* \"#utility.yul\":14888:14892   */\n      0x11\n        /* \"#utility.yul\":14885:14886   */\n      0x04\n        /* \"#utility.yul\":14878:14893   */\n      mstore\n        /* \"#utility.yul\":14912:14916   */\n      0x24\n        /* \"#utility.yul\":14909:14910   */\n      0x00\n        /* \"#utility.yul\":14902:14917   */\n      revert\n        /* \"#utility.yul\":14929:15162   */\n    tag_88:\n        /* \"#utility.yul\":14968:14971   */\n      0x00\n        /* \"#utility.yul\":14991:15015   */\n      tag_303\n        /* \"#utility.yul\":15009:15014   */\n      dup3\n        /* \"#utility.yul\":14991:15015   */\n      tag_112\n      jump\t// in\n    tag_303:\n        /* \"#utility.yul\":14982:15015   */\n      swap2\n      pop\n        /* \"#utility.yul\":15037:15103   */\n      0xffffffffffffffffffffffffffffffffffffffffffffffffffffffffffffffff\n        /* \"#utility.yul\":15030:15035   */\n      dup3\n        /* \"#utility.yul\":15027:15104   */\n      sub\n        /* \"#utility.yul\":15024:15127   */\n      tag_304\n      jumpi\n        /* \"#utility.yul\":15107:15125   */\n      tag_305\n      tag_134\n      jump\t// in\n    tag_305:\n        /* \"#utility.yul\":15024:15127   */\n    tag_304:\n        /* \"#utility.yul\":15154:15155   */\n      0x01\n        /* \"#utility.yul\":15147:15152   */\n      dup3\n        /* \"#utility.yul\":15143:15156   */\n      add\n        /* \"#utility.yul\":15136:15156   */\n      swap1\n      pop\n        /* \"#utility.yul\":14929:15162   */\n      swap2\n      swap1\n      pop\n      jump\t// out\n\n    auxdata: 0xa2646970667358221220453fd9796ace27e2034486a86d479be8344282eb1d373ab0f4da458d9a984fdd64736f6c634300080f0033\n}\n",
				"bytecode": {
					"linkReferences": {},
					"object": "6080604052600060035534801561001557600080fd5b50610fd3806100256000396000f3fe6080604052600436106100705760003560e01c80636fe605fc1161004e5780636fe605fc1461013057806399b956a014610159578063a9bb0fa114610196578063e783080c146101c857610070565b806318b8275a146100755780632b9af503146100b35780634b4a80ba146100f1575b600080fd5b34801561008157600080fd5b5061009c6004803603810190610097919061085f565b610207565b6040516100aa929190610971565b60405180910390f35b3480156100bf57600080fd5b506100da60048036038101906100d591906109d7565b610262565b6040516100e8929190610a26565b60405180910390f35b3480156100fd57600080fd5b5061011860048036038101906101139190610a4f565b6102c3565b60405161012793929190610a7c565b60405180910390f35b34801561013c57600080fd5b50610157600480360381019061015291906109d7565b610395565b005b34801561016557600080fd5b50610180600480360381019061017b9190610ae6565b610453565b60405161018d9190610b13565b60405180910390f35b6101b060048036038101906101ab9190610a4f565b6104f3565b6040516101bf93929190610b35565b60405180910390f35b3480156101d457600080fd5b506101ef60048036038101906101ea9190610b6c565b610631565b6040516101fe93929190610bdb565b60405180910390f35b60606000826000803373ffffffffffffffffffffffffffffffffffffffff1673ffffffffffffffffffffffffffffffffffffffff16815260200190815260200160002090816102569190610e25565b50823391509150915091565b6002602052816000526040600020818154811061027e57600080fd5b9060005260206000209060020201600091509150508060000154908060010160009054906101000a900473ffffffffffffffffffffffffffffffffffffffff16905082565b60016020528060005260406000206000915090508060000180546102e690610c48565b80601f016020809104026020016040519081016040528092919081815260200182805461031290610c48565b801561035f5780601f106103345761010080835404028352916020019161035f565b820191906000526020600020905b81548152906001019060200180831161034257829003601f168201915b5050505050908060010154908060020160009054906101000a900473ffffffffffffffffffffffffffffffffffffffff16905083565b6002600083815260200190815260200160002060405180604001604052808381526020013373ffffffffffffffffffffffffffffffffffffffff1681525090806001815401808255809150506001900390600052602060002090600202016000909190919091506000820151816000015560208201518160010160006101000a81548173ffffffffffffffffffffffffffffffffffffffff021916908373ffffffffffffffffffffffffffffffffffffffff16021790555050505050565b6000602052806000526040600020600091509050805461047290610c48565b80601f016020809104026020016040519081016040528092919081815260200182805461049e90610c48565b80156104eb5780601f106104c0576101008083540402835291602001916104eb565b820191906000526020600020905b8154815290600101906020018083116104ce57829003601f168201915b505050505081565b600080600080600090506000806002600088815260200190815260200160002080549050905060005b6002600089815260200190815260200160002080549050811161061d5783600260008a8152602001908152602001600020828154811061055f5761055e610ef7565b5b906000526020600020906002020160000154111561060a5760026000898152602001908152602001600020818154811061059c5761059b610ef7565b5b90600052602060002090600202016000015493506002600089815260200190815260200160002081815481106105d5576105d4610ef7565b5b906000526020600020906002020160010160009054906101000a900473ffffffffffffffffffffffffffffffffffffffff1692505b808061061590610f55565b91505061051c565b508183829550955095505050509193909250565b60006060600060405180606001604052808681526020018581526020013373ffffffffffffffffffffffffffffffffffffffff168152506001600088815260200190815260200160002060008201518160000190816106909190610e25565b506020820151816001015560408201518160020160006101000a81548173ffffffffffffffffffffffffffffffffffffffff021916908373ffffffffffffffffffffffffffffffffffffffff16021790555090505085806106f090610f55565b96505085858592509250925093509350939050565b6000604051905090565b600080fd5b600080fd5b600080fd5b600080fd5b6000601f19601f8301169050919050565b7f4e487b7100000000000000000000000000000000000000000000000000000000600052604160045260246000fd5b61076c82610723565b810181811067ffffffffffffffff8211171561078b5761078a610734565b5b80604052505050565b600061079e610705565b90506107aa8282610763565b919050565b600067ffffffffffffffff8211156107ca576107c9610734565b5b6107d382610723565b9050602081019050919050565b82818337600083830152505050565b60006108026107fd846107af565b610794565b90508281526020810184848401111561081e5761081d61071e565b5b6108298482856107e0565b509392505050565b600082601f83011261084657610845610719565b5b81356108568482602086016107ef565b91505092915050565b6000602082840312156108755761087461070f565b5b600082013567ffffffffffffffff81111561089357610892610714565b5b61089f84828501610831565b91505092915050565b600081519050919050565b600082825260208201905092915050565b60005b838110156108e25780820151818401526020810190506108c7565b838111156108f1576000848401525b50505050565b6000610902826108a8565b61090c81856108b3565b935061091c8185602086016108c4565b61092581610723565b840191505092915050565b600073ffffffffffffffffffffffffffffffffffffffff82169050919050565b600061095b82610930565b9050919050565b61096b81610950565b82525050565b6000604082019050818103600083015261098b81856108f7565b905061099a6020830184610962565b9392505050565b6000819050919050565b6109b4816109a1565b81146109bf57600080fd5b50565b6000813590506109d1816109ab565b92915050565b600080604083850312156109ee576109ed61070f565b5b60006109fc858286016109c2565b9250506020610a0d858286016109c2565b9150509250929050565b610a20816109a1565b82525050565b6000604082019050610a3b6000830185610a17565b610a486020830184610962565b9392505050565b600060208284031215610a6557610a6461070f565b5b6000610a73848285016109c2565b91505092915050565b60006060820190508181036000830152610a9681866108f7565b9050610aa56020830185610a17565b610ab26040830184610962565b949350505050565b610ac381610950565b8114610ace57600080fd5b50565b600081359050610ae081610aba565b92915050565b600060208284031215610afc57610afb61070f565b5b6000610b0a84828501610ad1565b91505092915050565b60006020820190508181036000830152610b2d81846108f7565b905092915050565b6000606082019050610b4a6000830186610962565b610b576020830185610a17565b610b646040830184610a17565b949350505050565b600080600060608486031215610b8557610b8461070f565b5b6000610b93868287016109c2565b935050602084013567ffffffffffffffff811115610bb457610bb3610714565b5b610bc086828701610831565b9250506040610bd1868287016109c2565b9150509250925092565b6000606082019050610bf06000830186610a17565b8181036020830152610c0281856108f7565b9050610c116040830184610a17565b949350505050565b7f4e487b7100000000000000000000000000000000000000000000000000000000600052602260045260246000fd5b60006002820490506001821680610c6057607f821691505b602082108103610c7357610c72610c19565b5b50919050565b60008190508160005260206000209050919050565b60006020601f8301049050919050565b600082821b905092915050565b600060088302610cdb7fffffffffffffffffffffffffffffffffffffffffffffffffffffffffffffffff82610c9e565b610ce58683610c9e565b95508019841693508086168417925050509392505050565b6000819050919050565b6000610d22610d1d610d18846109a1565b610cfd565b6109a1565b9050919050565b6000819050919050565b610d3c83610d07565b610d50610d4882610d29565b848454610cab565b825550505050565b600090565b610d65610d58565b610d70818484610d33565b505050565b5b81811015610d9457610d89600082610d5d565b600181019050610d76565b5050565b601f821115610dd957610daa81610c79565b610db384610c8e565b81016020851015610dc2578190505b610dd6610dce85610c8e565b830182610d75565b50505b505050565b600082821c905092915050565b6000610dfc60001984600802610dde565b1980831691505092915050565b6000610e158383610deb565b9150826002028217905092915050565b610e2e826108a8565b67ffffffffffffffff811115610e4757610e46610734565b5b610e518254610c48565b610e5c828285610d98565b600060209050601f831160018114610e8f5760008415610e7d578287015190505b610e878582610e09565b865550610eef565b601f198416610e9d86610c79565b60005b82811015610ec557848901518255600182019150602085019450602081019050610ea0565b86831015610ee25784890151610ede601f891682610deb565b8355505b6001600288020188555050505b505050505050565b7f4e487b7100000000000000000000000000000000000000000000000000000000600052603260045260246000fd5b7f4e487b7100000000000000000000000000000000000000000000000000000000600052601160045260246000fd5b6000610f60826109a1565b91507fffffffffffffffffffffffffffffffffffffffffffffffffffffffffffffffff8203610f9257610f91610f26565b5b60018201905091905056fea2646970667358221220453fd9796ace27e2034486a86d479be8344282eb1d373ab0f4da458d9a984fdd64736f6c634300080f0033",
					"opcodes": "PUSH1 0x80 PUSH1 0x40 MSTORE PUSH1 0x0 PUSH1 0x3 SSTORE CALLVALUE DUP1 ISZERO PUSH2 0x15 JUMPI PUSH1 0x0 DUP1 REVERT JUMPDEST POP PUSH2 0xFD3 DUP1 PUSH2 0x25 PUSH1 0x0 CODECOPY PUSH1 0x0 RETURN INVALID PUSH1 0x80 PUSH1 0x40 MSTORE PUSH1 0x4 CALLDATASIZE LT PUSH2 0x70 JUMPI PUSH1 0x0 CALLDATALOAD PUSH1 0xE0 SHR DUP1 PUSH4 0x6FE605FC GT PUSH2 0x4E JUMPI DUP1 PUSH4 0x6FE605FC EQ PUSH2 0x130 JUMPI DUP1 PUSH4 0x99B956A0 EQ PUSH2 0x159 JUMPI DUP1 PUSH4 0xA9BB0FA1 EQ PUSH2 0x196 JUMPI DUP1 PUSH4 0xE783080C EQ PUSH2 0x1C8 JUMPI PUSH2 0x70 JUMP JUMPDEST DUP1 PUSH4 0x18B8275A EQ PUSH2 0x75 JUMPI DUP1 PUSH4 0x2B9AF503 EQ PUSH2 0xB3 JUMPI DUP1 PUSH4 0x4B4A80BA EQ PUSH2 0xF1 JUMPI JUMPDEST PUSH1 0x0 DUP1 REVERT JUMPDEST CALLVALUE DUP1 ISZERO PUSH2 0x81 JUMPI PUSH1 0x0 DUP1 REVERT JUMPDEST POP PUSH2 0x9C PUSH1 0x4 DUP1 CALLDATASIZE SUB DUP2 ADD SWAP1 PUSH2 0x97 SWAP2 SWAP1 PUSH2 0x85F JUMP JUMPDEST PUSH2 0x207 JUMP JUMPDEST PUSH1 0x40 MLOAD PUSH2 0xAA SWAP3 SWAP2 SWAP1 PUSH2 0x971 JUMP JUMPDEST PUSH1 0x40 MLOAD DUP1 SWAP2 SUB SWAP1 RETURN JUMPDEST CALLVALUE DUP1 ISZERO PUSH2 0xBF JUMPI PUSH1 0x0 DUP1 REVERT JUMPDEST POP PUSH2 0xDA PUSH1 0x4 DUP1 CALLDATASIZE SUB DUP2 ADD SWAP1 PUSH2 0xD5 SWAP2 SWAP1 PUSH2 0x9D7 JUMP JUMPDEST PUSH2 0x262 JUMP JUMPDEST PUSH1 0x40 MLOAD PUSH2 0xE8 SWAP3 SWAP2 SWAP1 PUSH2 0xA26 JUMP JUMPDEST PUSH1 0x40 MLOAD DUP1 SWAP2 SUB SWAP1 RETURN JUMPDEST CALLVALUE DUP1 ISZERO PUSH2 0xFD JUMPI PUSH1 0x0 DUP1 REVERT JUMPDEST POP PUSH2 0x118 PUSH1 0x4 DUP1 CALLDATASIZE SUB DUP2 ADD SWAP1 PUSH2 0x113 SWAP2 SWAP1 PUSH2 0xA4F JUMP JUMPDEST PUSH2 0x2C3 JUMP JUMPDEST PUSH1 0x40 MLOAD PUSH2 0x127 SWAP4 SWAP3 SWAP2 SWAP1 PUSH2 0xA7C JUMP JUMPDEST PUSH1 0x40 MLOAD DUP1 SWAP2 SUB SWAP1 RETURN JUMPDEST CALLVALUE DUP1 ISZERO PUSH2 0x13C JUMPI PUSH1 0x0 DUP1 REVERT JUMPDEST POP PUSH2 0x157 PUSH1 0x4 DUP1 CALLDATASIZE SUB DUP2 ADD SWAP1 PUSH2 0x152 SWAP2 SWAP1 PUSH2 0x9D7 JUMP JUMPDEST PUSH2 0x395 JUMP JUMPDEST STOP JUMPDEST CALLVALUE DUP1 ISZERO PUSH2 0x165 JUMPI PUSH1 0x0 DUP1 REVERT JUMPDEST POP PUSH2 0x180 PUSH1 0x4 DUP1 CALLDATASIZE SUB DUP2 ADD SWAP1 PUSH2 0x17B SWAP2 SWAP1 PUSH2 0xAE6 JUMP JUMPDEST PUSH2 0x453 JUMP JUMPDEST PUSH1 0x40 MLOAD PUSH2 0x18D SWAP2 SWAP1 PUSH2 0xB13 JUMP JUMPDEST PUSH1 0x40 MLOAD DUP1 SWAP2 SUB SWAP1 RETURN JUMPDEST PUSH2 0x1B0 PUSH1 0x4 DUP1 CALLDATASIZE SUB DUP2 ADD SWAP1 PUSH2 0x1AB SWAP2 SWAP1 PUSH2 0xA4F JUMP JUMPDEST PUSH2 0x4F3 JUMP JUMPDEST PUSH1 0x40 MLOAD PUSH2 0x1BF SWAP4 SWAP3 SWAP2 SWAP1 PUSH2 0xB35 JUMP JUMPDEST PUSH1 0x40 MLOAD DUP1 SWAP2 SUB SWAP1 RETURN JUMPDEST CALLVALUE DUP1 ISZERO PUSH2 0x1D4 JUMPI PUSH1 0x0 DUP1 REVERT JUMPDEST POP PUSH2 0x1EF PUSH1 0x4 DUP1 CALLDATASIZE SUB DUP2 ADD SWAP1 PUSH2 0x1EA SWAP2 SWAP1 PUSH2 0xB6C JUMP JUMPDEST PUSH2 0x631 JUMP JUMPDEST PUSH1 0x40 MLOAD PUSH2 0x1FE SWAP4 SWAP3 SWAP2 SWAP1 PUSH2 0xBDB JUMP JUMPDEST PUSH1 0x40 MLOAD DUP1 SWAP2 SUB SWAP1 RETURN JUMPDEST PUSH1 0x60 PUSH1 0x0 DUP3 PUSH1 0x0 DUP1 CALLER PUSH20 0xFFFFFFFFFFFFFFFFFFFFFFFFFFFFFFFFFFFFFFFF AND PUSH20 0xFFFFFFFFFFFFFFFFFFFFFFFFFFFFFFFFFFFFFFFF AND DUP2 MSTORE PUSH1 0x20 ADD SWAP1 DUP2 MSTORE PUSH1 0x20 ADD PUSH1 0x0 KECCAK256 SWAP1 DUP2 PUSH2 0x256 SWAP2 SWAP1 PUSH2 0xE25 JUMP JUMPDEST POP DUP3 CALLER SWAP2 POP SWAP2 POP SWAP2 POP SWAP2 JUMP JUMPDEST PUSH1 0x2 PUSH1 0x20 MSTORE DUP2 PUSH1 0x0 MSTORE PUSH1 0x40 PUSH1 0x0 KECCAK256 DUP2 DUP2 SLOAD DUP2 LT PUSH2 0x27E JUMPI PUSH1 0x0 DUP1 REVERT JUMPDEST SWAP1 PUSH1 0x0 MSTORE PUSH1 0x20 PUSH1 0x0 KECCAK256 SWAP1 PUSH1 0x2 MUL ADD PUSH1 0x0 SWAP2 POP SWAP2 POP POP DUP1 PUSH1 0x0 ADD SLOAD SWAP1 DUP1 PUSH1 0x1 ADD PUSH1 0x0 SWAP1 SLOAD SWAP1 PUSH2 0x100 EXP SWAP1 DIV PUSH20 0xFFFFFFFFFFFFFFFFFFFFFFFFFFFFFFFFFFFFFFFF AND SWAP1 POP DUP3 JUMP JUMPDEST PUSH1 0x1 PUSH1 0x20 MSTORE DUP1 PUSH1 0x0 MSTORE PUSH1 0x40 PUSH1 0x0 KECCAK256 PUSH1 0x0 SWAP2 POP SWAP1 POP DUP1 PUSH1 0x0 ADD DUP1 SLOAD PUSH2 0x2E6 SWAP1 PUSH2 0xC48 JUMP JUMPDEST DUP1 PUSH1 0x1F ADD PUSH1 0x20 DUP1 SWAP2 DIV MUL PUSH1 0x20 ADD PUSH1 0x40 MLOAD SWAP1 DUP2 ADD PUSH1 0x40 MSTORE DUP1 SWAP3 SWAP2 SWAP1 DUP2 DUP2 MSTORE PUSH1 0x20 ADD DUP3 DUP1 SLOAD PUSH2 0x312 SWAP1 PUSH2 0xC48 JUMP JUMPDEST DUP1 ISZERO PUSH2 0x35F JUMPI DUP1 PUSH1 0x1F LT PUSH2 0x334 JUMPI PUSH2 0x100 DUP1 DUP4 SLOAD DIV MUL DUP4 MSTORE SWAP2 PUSH1 0x20 ADD SWAP2 PUSH2 0x35F JUMP JUMPDEST DUP3 ADD SWAP2 SWAP1 PUSH1 0x0 MSTORE PUSH1 0x20 PUSH1 0x0 KECCAK256 SWAP1 JUMPDEST DUP2 SLOAD DUP2 MSTORE SWAP1 PUSH1 0x1 ADD SWAP1 PUSH1 0x20 ADD DUP1 DUP4 GT PUSH2 0x342 JUMPI DUP3 SWAP1 SUB PUSH1 0x1F AND DUP3 ADD SWAP2 JUMPDEST POP POP POP POP POP SWAP1 DUP1 PUSH1 0x1 ADD SLOAD SWAP1 DUP1 PUSH1 0x2 ADD PUSH1 0x0 SWAP1 SLOAD SWAP1 PUSH2 0x100 EXP SWAP1 DIV PUSH20 0xFFFFFFFFFFFFFFFFFFFFFFFFFFFFFFFFFFFFFFFF AND SWAP1 POP DUP4 JUMP JUMPDEST PUSH1 0x2 PUSH1 0x0 DUP4 DUP2 MSTORE PUSH1 0x20 ADD SWAP1 DUP2 MSTORE PUSH1 0x20 ADD PUSH1 0x0 KECCAK256 PUSH1 0x40 MLOAD DUP1 PUSH1 0x40 ADD PUSH1 0x40 MSTORE DUP1 DUP4 DUP2 MSTORE PUSH1 0x20 ADD CALLER PUSH20 0xFFFFFFFFFFFFFFFFFFFFFFFFFFFFFFFFFFFFFFFF AND DUP2 MSTORE POP SWAP1 DUP1 PUSH1 0x1 DUP2 SLOAD ADD DUP1 DUP3 SSTORE DUP1 SWAP2 POP POP PUSH1 0x1 SWAP1 SUB SWAP1 PUSH1 0x0 MSTORE PUSH1 0x20 PUSH1 0x0 KECCAK256 SWAP1 PUSH1 0x2 MUL ADD PUSH1 0x0 SWAP1 SWAP2 SWAP1 SWAP2 SWAP1 SWAP2 POP PUSH1 0x0 DUP3 ADD MLOAD DUP2 PUSH1 0x0 ADD SSTORE PUSH1 0x20 DUP3 ADD MLOAD DUP2 PUSH1 0x1 ADD PUSH1 0x0 PUSH2 0x100 EXP DUP2 SLOAD DUP2 PUSH20 0xFFFFFFFFFFFFFFFFFFFFFFFFFFFFFFFFFFFFFFFF MUL NOT AND SWAP1 DUP4 PUSH20 0xFFFFFFFFFFFFFFFFFFFFFFFFFFFFFFFFFFFFFFFF AND MUL OR SWAP1 SSTORE POP POP POP POP POP JUMP JUMPDEST PUSH1 0x0 PUSH1 0x20 MSTORE DUP1 PUSH1 0x0 MSTORE PUSH1 0x40 PUSH1 0x0 KECCAK256 PUSH1 0x0 SWAP2 POP SWAP1 POP DUP1 SLOAD PUSH2 0x472 SWAP1 PUSH2 0xC48 JUMP JUMPDEST DUP1 PUSH1 0x1F ADD PUSH1 0x20 DUP1 SWAP2 DIV MUL PUSH1 0x20 ADD PUSH1 0x40 MLOAD SWAP1 DUP2 ADD PUSH1 0x40 MSTORE DUP1 SWAP3 SWAP2 SWAP1 DUP2 DUP2 MSTORE PUSH1 0x20 ADD DUP3 DUP1 SLOAD PUSH2 0x49E SWAP1 PUSH2 0xC48 JUMP JUMPDEST DUP1 ISZERO PUSH2 0x4EB JUMPI DUP1 PUSH1 0x1F LT PUSH2 0x4C0 JUMPI PUSH2 0x100 DUP1 DUP4 SLOAD DIV MUL DUP4 MSTORE SWAP2 PUSH1 0x20 ADD SWAP2 PUSH2 0x4EB JUMP JUMPDEST DUP3 ADD SWAP2 SWAP1 PUSH1 0x0 MSTORE PUSH1 0x20 PUSH1 0x0 KECCAK256 SWAP1 JUMPDEST DUP2 SLOAD DUP2 MSTORE SWAP1 PUSH1 0x1 ADD SWAP1 PUSH1 0x20 ADD DUP1 DUP4 GT PUSH2 0x4CE JUMPI DUP3 SWAP1 SUB PUSH1 0x1F AND DUP3 ADD SWAP2 JUMPDEST POP POP POP POP POP DUP2 JUMP JUMPDEST PUSH1 0x0 DUP1 PUSH1 0x0 DUP1 PUSH1 0x0 SWAP1 POP PUSH1 0x0 DUP1 PUSH1 0x2 PUSH1 0x0 DUP9 DUP2 MSTORE PUSH1 0x20 ADD SWAP1 DUP2 MSTORE PUSH1 0x20 ADD PUSH1 0x0 KECCAK256 DUP1 SLOAD SWAP1 POP SWAP1 POP PUSH1 0x0 JUMPDEST PUSH1 0x2 PUSH1 0x0 DUP10 DUP2 MSTORE PUSH1 0x20 ADD SWAP1 DUP2 MSTORE PUSH1 0x20 ADD PUSH1 0x0 KECCAK256 DUP1 SLOAD SWAP1 POP DUP2 GT PUSH2 0x61D JUMPI DUP4 PUSH1 0x2 PUSH1 0x0 DUP11 DUP2 MSTORE PUSH1 0x20 ADD SWAP1 DUP2 MSTORE PUSH1 0x20 ADD PUSH1 0x0 KECCAK256 DUP3 DUP2 SLOAD DUP2 LT PUSH2 0x55F JUMPI PUSH2 0x55E PUSH2 0xEF7 JUMP JUMPDEST JUMPDEST SWAP1 PUSH1 0x0 MSTORE PUSH1 0x20 PUSH1 0x0 KECCAK256 SWAP1 PUSH1 0x2 MUL ADD PUSH1 0x0 ADD SLOAD GT ISZERO PUSH2 0x60A JUMPI PUSH1 0x2 PUSH1 0x0 DUP10 DUP2 MSTORE PUSH1 0x20 ADD SWAP1 DUP2 MSTORE PUSH1 0x20 ADD PUSH1 0x0 KECCAK256 DUP2 DUP2 SLOAD DUP2 LT PUSH2 0x59C JUMPI PUSH2 0x59B PUSH2 0xEF7 JUMP JUMPDEST JUMPDEST SWAP1 PUSH1 0x0 MSTORE PUSH1 0x20 PUSH1 0x0 KECCAK256 SWAP1 PUSH1 0x2 MUL ADD PUSH1 0x0 ADD SLOAD SWAP4 POP PUSH1 0x2 PUSH1 0x0 DUP10 DUP2 MSTORE PUSH1 0x20 ADD SWAP1 DUP2 MSTORE PUSH1 0x20 ADD PUSH1 0x0 KECCAK256 DUP2 DUP2 SLOAD DUP2 LT PUSH2 0x5D5 JUMPI PUSH2 0x5D4 PUSH2 0xEF7 JUMP JUMPDEST JUMPDEST SWAP1 PUSH1 0x0 MSTORE PUSH1 0x20 PUSH1 0x0 KECCAK256 SWAP1 PUSH1 0x2 MUL ADD PUSH1 0x1 ADD PUSH1 0x0 SWAP1 SLOAD SWAP1 PUSH2 0x100 EXP SWAP1 DIV PUSH20 0xFFFFFFFFFFFFFFFFFFFFFFFFFFFFFFFFFFFFFFFF AND SWAP3 POP JUMPDEST DUP1 DUP1 PUSH2 0x615 SWAP1 PUSH2 0xF55 JUMP JUMPDEST SWAP2 POP POP PUSH2 0x51C JUMP JUMPDEST POP DUP2 DUP4 DUP3 SWAP6 POP SWAP6 POP SWAP6 POP POP POP POP SWAP2 SWAP4 SWAP1 SWAP3 POP JUMP JUMPDEST PUSH1 0x0 PUSH1 0x60 PUSH1 0x0 PUSH1 0x40 MLOAD DUP1 PUSH1 0x60 ADD PUSH1 0x40 MSTORE DUP1 DUP7 DUP2 MSTORE PUSH1 0x20 ADD DUP6 DUP2 MSTORE PUSH1 0x20 ADD CALLER PUSH20 0xFFFFFFFFFFFFFFFFFFFFFFFFFFFFFFFFFFFFFFFF AND DUP2 MSTORE POP PUSH1 0x1 PUSH1 0x0 DUP9 DUP2 MSTORE PUSH1 0x20 ADD SWAP1 DUP2 MSTORE PUSH1 0x20 ADD PUSH1 0x0 KECCAK256 PUSH1 0x0 DUP3 ADD MLOAD DUP2 PUSH1 0x0 ADD SWAP1 DUP2 PUSH2 0x690 SWAP2 SWAP1 PUSH2 0xE25 JUMP JUMPDEST POP PUSH1 0x20 DUP3 ADD MLOAD DUP2 PUSH1 0x1 ADD SSTORE PUSH1 0x40 DUP3 ADD MLOAD DUP2 PUSH1 0x2 ADD PUSH1 0x0 PUSH2 0x100 EXP DUP2 SLOAD DUP2 PUSH20 0xFFFFFFFFFFFFFFFFFFFFFFFFFFFFFFFFFFFFFFFF MUL NOT AND SWAP1 DUP4 PUSH20 0xFFFFFFFFFFFFFFFFFFFFFFFFFFFFFFFFFFFFFFFF AND MUL OR SWAP1 SSTORE POP SWAP1 POP POP DUP6 DUP1 PUSH2 0x6F0 SWAP1 PUSH2 0xF55 JUMP JUMPDEST SWAP7 POP POP DUP6 DUP6 DUP6 SWAP3 POP SWAP3 POP SWAP3 POP SWAP4 POP SWAP4 POP SWAP4 SWAP1 POP JUMP JUMPDEST PUSH1 0x0 PUSH1 0x40 MLOAD SWAP1 POP SWAP1 JUMP JUMPDEST PUSH1 0x0 DUP1 REVERT JUMPDEST PUSH1 0x0 DUP1 REVERT JUMPDEST PUSH1 0x0 DUP1 REVERT JUMPDEST PUSH1 0x0 DUP1 REVERT JUMPDEST PUSH1 0x0 PUSH1 0x1F NOT PUSH1 0x1F DUP4 ADD AND SWAP1 POP SWAP2 SWAP1 POP JUMP JUMPDEST PUSH32 0x4E487B7100000000000000000000000000000000000000000000000000000000 PUSH1 0x0 MSTORE PUSH1 0x41 PUSH1 0x4 MSTORE PUSH1 0x24 PUSH1 0x0 REVERT JUMPDEST PUSH2 0x76C DUP3 PUSH2 0x723 JUMP JUMPDEST DUP2 ADD DUP2 DUP2 LT PUSH8 0xFFFFFFFFFFFFFFFF DUP3 GT OR ISZERO PUSH2 0x78B JUMPI PUSH2 0x78A PUSH2 0x734 JUMP JUMPDEST JUMPDEST DUP1 PUSH1 0x40 MSTORE POP POP POP JUMP JUMPDEST PUSH1 0x0 PUSH2 0x79E PUSH2 0x705 JUMP JUMPDEST SWAP1 POP PUSH2 0x7AA DUP3 DUP3 PUSH2 0x763 JUMP JUMPDEST SWAP2 SWAP1 POP JUMP JUMPDEST PUSH1 0x0 PUSH8 0xFFFFFFFFFFFFFFFF DUP3 GT ISZERO PUSH2 0x7CA JUMPI PUSH2 0x7C9 PUSH2 0x734 JUMP JUMPDEST JUMPDEST PUSH2 0x7D3 DUP3 PUSH2 0x723 JUMP JUMPDEST SWAP1 POP PUSH1 0x20 DUP2 ADD SWAP1 POP SWAP2 SWAP1 POP JUMP JUMPDEST DUP3 DUP2 DUP4 CALLDATACOPY PUSH1 0x0 DUP4 DUP4 ADD MSTORE POP POP POP JUMP JUMPDEST PUSH1 0x0 PUSH2 0x802 PUSH2 0x7FD DUP5 PUSH2 0x7AF JUMP JUMPDEST PUSH2 0x794 JUMP JUMPDEST SWAP1 POP DUP3 DUP2 MSTORE PUSH1 0x20 DUP2 ADD DUP5 DUP5 DUP5 ADD GT ISZERO PUSH2 0x81E JUMPI PUSH2 0x81D PUSH2 0x71E JUMP JUMPDEST JUMPDEST PUSH2 0x829 DUP5 DUP3 DUP6 PUSH2 0x7E0 JUMP JUMPDEST POP SWAP4 SWAP3 POP POP POP JUMP JUMPDEST PUSH1 0x0 DUP3 PUSH1 0x1F DUP4 ADD SLT PUSH2 0x846 JUMPI PUSH2 0x845 PUSH2 0x719 JUMP JUMPDEST JUMPDEST DUP2 CALLDATALOAD PUSH2 0x856 DUP5 DUP3 PUSH1 0x20 DUP7 ADD PUSH2 0x7EF JUMP JUMPDEST SWAP2 POP POP SWAP3 SWAP2 POP POP JUMP JUMPDEST PUSH1 0x0 PUSH1 0x20 DUP3 DUP5 SUB SLT ISZERO PUSH2 0x875 JUMPI PUSH2 0x874 PUSH2 0x70F JUMP JUMPDEST JUMPDEST PUSH1 0x0 DUP3 ADD CALLDATALOAD PUSH8 0xFFFFFFFFFFFFFFFF DUP2 GT ISZERO PUSH2 0x893 JUMPI PUSH2 0x892 PUSH2 0x714 JUMP JUMPDEST JUMPDEST PUSH2 0x89F DUP5 DUP3 DUP6 ADD PUSH2 0x831 JUMP JUMPDEST SWAP2 POP POP SWAP3 SWAP2 POP POP JUMP JUMPDEST PUSH1 0x0 DUP2 MLOAD SWAP1 POP SWAP2 SWAP1 POP JUMP JUMPDEST PUSH1 0x0 DUP3 DUP3 MSTORE PUSH1 0x20 DUP3 ADD SWAP1 POP SWAP3 SWAP2 POP POP JUMP JUMPDEST PUSH1 0x0 JUMPDEST DUP4 DUP2 LT ISZERO PUSH2 0x8E2 JUMPI DUP1 DUP3 ADD MLOAD DUP2 DUP5 ADD MSTORE PUSH1 0x20 DUP2 ADD SWAP1 POP PUSH2 0x8C7 JUMP JUMPDEST DUP4 DUP2 GT ISZERO PUSH2 0x8F1 JUMPI PUSH1 0x0 DUP5 DUP5 ADD MSTORE JUMPDEST POP POP POP POP JUMP JUMPDEST PUSH1 0x0 PUSH2 0x902 DUP3 PUSH2 0x8A8 JUMP JUMPDEST PUSH2 0x90C DUP2 DUP6 PUSH2 0x8B3 JUMP JUMPDEST SWAP4 POP PUSH2 0x91C DUP2 DUP6 PUSH1 0x20 DUP7 ADD PUSH2 0x8C4 JUMP JUMPDEST PUSH2 0x925 DUP2 PUSH2 0x723 JUMP JUMPDEST DUP5 ADD SWAP2 POP POP SWAP3 SWAP2 POP POP JUMP JUMPDEST PUSH1 0x0 PUSH20 0xFFFFFFFFFFFFFFFFFFFFFFFFFFFFFFFFFFFFFFFF DUP3 AND SWAP1 POP SWAP2 SWAP1 POP JUMP JUMPDEST PUSH1 0x0 PUSH2 0x95B DUP3 PUSH2 0x930 JUMP JUMPDEST SWAP1 POP SWAP2 SWAP1 POP JUMP JUMPDEST PUSH2 0x96B DUP2 PUSH2 0x950 JUMP JUMPDEST DUP3 MSTORE POP POP JUMP JUMPDEST PUSH1 0x0 PUSH1 0x40 DUP3 ADD SWAP1 POP DUP2 DUP2 SUB PUSH1 0x0 DUP4 ADD MSTORE PUSH2 0x98B DUP2 DUP6 PUSH2 0x8F7 JUMP JUMPDEST SWAP1 POP PUSH2 0x99A PUSH1 0x20 DUP4 ADD DUP5 PUSH2 0x962 JUMP JUMPDEST SWAP4 SWAP3 POP POP POP JUMP JUMPDEST PUSH1 0x0 DUP2 SWAP1 POP SWAP2 SWAP1 POP JUMP JUMPDEST PUSH2 0x9B4 DUP2 PUSH2 0x9A1 JUMP JUMPDEST DUP2 EQ PUSH2 0x9BF JUMPI PUSH1 0x0 DUP1 REVERT JUMPDEST POP JUMP JUMPDEST PUSH1 0x0 DUP2 CALLDATALOAD SWAP1 POP PUSH2 0x9D1 DUP2 PUSH2 0x9AB JUMP JUMPDEST SWAP3 SWAP2 POP POP JUMP JUMPDEST PUSH1 0x0 DUP1 PUSH1 0x40 DUP4 DUP6 SUB SLT ISZERO PUSH2 0x9EE JUMPI PUSH2 0x9ED PUSH2 0x70F JUMP JUMPDEST JUMPDEST PUSH1 0x0 PUSH2 0x9FC DUP6 DUP3 DUP7 ADD PUSH2 0x9C2 JUMP JUMPDEST SWAP3 POP POP PUSH1 0x20 PUSH2 0xA0D DUP6 DUP3 DUP7 ADD PUSH2 0x9C2 JUMP JUMPDEST SWAP2 POP POP SWAP3 POP SWAP3 SWAP1 POP JUMP JUMPDEST PUSH2 0xA20 DUP2 PUSH2 0x9A1 JUMP JUMPDEST DUP3 MSTORE POP POP JUMP JUMPDEST PUSH1 0x0 PUSH1 0x40 DUP3 ADD SWAP1 POP PUSH2 0xA3B PUSH1 0x0 DUP4 ADD DUP6 PUSH2 0xA17 JUMP JUMPDEST PUSH2 0xA48 PUSH1 0x20 DUP4 ADD DUP5 PUSH2 0x962 JUMP JUMPDEST SWAP4 SWAP3 POP POP POP JUMP JUMPDEST PUSH1 0x0 PUSH1 0x20 DUP3 DUP5 SUB SLT ISZERO PUSH2 0xA65 JUMPI PUSH2 0xA64 PUSH2 0x70F JUMP JUMPDEST JUMPDEST PUSH1 0x0 PUSH2 0xA73 DUP5 DUP3 DUP6 ADD PUSH2 0x9C2 JUMP JUMPDEST SWAP2 POP POP SWAP3 SWAP2 POP POP JUMP JUMPDEST PUSH1 0x0 PUSH1 0x60 DUP3 ADD SWAP1 POP DUP2 DUP2 SUB PUSH1 0x0 DUP4 ADD MSTORE PUSH2 0xA96 DUP2 DUP7 PUSH2 0x8F7 JUMP JUMPDEST SWAP1 POP PUSH2 0xAA5 PUSH1 0x20 DUP4 ADD DUP6 PUSH2 0xA17 JUMP JUMPDEST PUSH2 0xAB2 PUSH1 0x40 DUP4 ADD DUP5 PUSH2 0x962 JUMP JUMPDEST SWAP5 SWAP4 POP POP POP POP JUMP JUMPDEST PUSH2 0xAC3 DUP2 PUSH2 0x950 JUMP JUMPDEST DUP2 EQ PUSH2 0xACE JUMPI PUSH1 0x0 DUP1 REVERT JUMPDEST POP JUMP JUMPDEST PUSH1 0x0 DUP2 CALLDATALOAD SWAP1 POP PUSH2 0xAE0 DUP2 PUSH2 0xABA JUMP JUMPDEST SWAP3 SWAP2 POP POP JUMP JUMPDEST PUSH1 0x0 PUSH1 0x20 DUP3 DUP5 SUB SLT ISZERO PUSH2 0xAFC JUMPI PUSH2 0xAFB PUSH2 0x70F JUMP JUMPDEST JUMPDEST PUSH1 0x0 PUSH2 0xB0A DUP5 DUP3 DUP6 ADD PUSH2 0xAD1 JUMP JUMPDEST SWAP2 POP POP SWAP3 SWAP2 POP POP JUMP JUMPDEST PUSH1 0x0 PUSH1 0x20 DUP3 ADD SWAP1 POP DUP2 DUP2 SUB PUSH1 0x0 DUP4 ADD MSTORE PUSH2 0xB2D DUP2 DUP5 PUSH2 0x8F7 JUMP JUMPDEST SWAP1 POP SWAP3 SWAP2 POP POP JUMP JUMPDEST PUSH1 0x0 PUSH1 0x60 DUP3 ADD SWAP1 POP PUSH2 0xB4A PUSH1 0x0 DUP4 ADD DUP7 PUSH2 0x962 JUMP JUMPDEST PUSH2 0xB57 PUSH1 0x20 DUP4 ADD DUP6 PUSH2 0xA17 JUMP JUMPDEST PUSH2 0xB64 PUSH1 0x40 DUP4 ADD DUP5 PUSH2 0xA17 JUMP JUMPDEST SWAP5 SWAP4 POP POP POP POP JUMP JUMPDEST PUSH1 0x0 DUP1 PUSH1 0x0 PUSH1 0x60 DUP5 DUP7 SUB SLT ISZERO PUSH2 0xB85 JUMPI PUSH2 0xB84 PUSH2 0x70F JUMP JUMPDEST JUMPDEST PUSH1 0x0 PUSH2 0xB93 DUP7 DUP3 DUP8 ADD PUSH2 0x9C2 JUMP JUMPDEST SWAP4 POP POP PUSH1 0x20 DUP5 ADD CALLDATALOAD PUSH8 0xFFFFFFFFFFFFFFFF DUP2 GT ISZERO PUSH2 0xBB4 JUMPI PUSH2 0xBB3 PUSH2 0x714 JUMP JUMPDEST JUMPDEST PUSH2 0xBC0 DUP7 DUP3 DUP8 ADD PUSH2 0x831 JUMP JUMPDEST SWAP3 POP POP PUSH1 0x40 PUSH2 0xBD1 DUP7 DUP3 DUP8 ADD PUSH2 0x9C2 JUMP JUMPDEST SWAP2 POP POP SWAP3 POP SWAP3 POP SWAP3 JUMP JUMPDEST PUSH1 0x0 PUSH1 0x60 DUP3 ADD SWAP1 POP PUSH2 0xBF0 PUSH1 0x0 DUP4 ADD DUP7 PUSH2 0xA17 JUMP JUMPDEST DUP2 DUP2 SUB PUSH1 0x20 DUP4 ADD MSTORE PUSH2 0xC02 DUP2 DUP6 PUSH2 0x8F7 JUMP JUMPDEST SWAP1 POP PUSH2 0xC11 PUSH1 0x40 DUP4 ADD DUP5 PUSH2 0xA17 JUMP JUMPDEST SWAP5 SWAP4 POP POP POP POP JUMP JUMPDEST PUSH32 0x4E487B7100000000000000000000000000000000000000000000000000000000 PUSH1 0x0 MSTORE PUSH1 0x22 PUSH1 0x4 MSTORE PUSH1 0x24 PUSH1 0x0 REVERT JUMPDEST PUSH1 0x0 PUSH1 0x2 DUP3 DIV SWAP1 POP PUSH1 0x1 DUP3 AND DUP1 PUSH2 0xC60 JUMPI PUSH1 0x7F DUP3 AND SWAP2 POP JUMPDEST PUSH1 0x20 DUP3 LT DUP2 SUB PUSH2 0xC73 JUMPI PUSH2 0xC72 PUSH2 0xC19 JUMP JUMPDEST JUMPDEST POP SWAP2 SWAP1 POP JUMP JUMPDEST PUSH1 0x0 DUP2 SWAP1 POP DUP2 PUSH1 0x0 MSTORE PUSH1 0x20 PUSH1 0x0 KECCAK256 SWAP1 POP SWAP2 SWAP1 POP JUMP JUMPDEST PUSH1 0x0 PUSH1 0x20 PUSH1 0x1F DUP4 ADD DIV SWAP1 POP SWAP2 SWAP1 POP JUMP JUMPDEST PUSH1 0x0 DUP3 DUP3 SHL SWAP1 POP SWAP3 SWAP2 POP POP JUMP JUMPDEST PUSH1 0x0 PUSH1 0x8 DUP4 MUL PUSH2 0xCDB PUSH32 0xFFFFFFFFFFFFFFFFFFFFFFFFFFFFFFFFFFFFFFFFFFFFFFFFFFFFFFFFFFFFFFFF DUP3 PUSH2 0xC9E JUMP JUMPDEST PUSH2 0xCE5 DUP7 DUP4 PUSH2 0xC9E JUMP JUMPDEST SWAP6 POP DUP1 NOT DUP5 AND SWAP4 POP DUP1 DUP7 AND DUP5 OR SWAP3 POP POP POP SWAP4 SWAP3 POP POP POP JUMP JUMPDEST PUSH1 0x0 DUP2 SWAP1 POP SWAP2 SWAP1 POP JUMP JUMPDEST PUSH1 0x0 PUSH2 0xD22 PUSH2 0xD1D PUSH2 0xD18 DUP5 PUSH2 0x9A1 JUMP JUMPDEST PUSH2 0xCFD JUMP JUMPDEST PUSH2 0x9A1 JUMP JUMPDEST SWAP1 POP SWAP2 SWAP1 POP JUMP JUMPDEST PUSH1 0x0 DUP2 SWAP1 POP SWAP2 SWAP1 POP JUMP JUMPDEST PUSH2 0xD3C DUP4 PUSH2 0xD07 JUMP JUMPDEST PUSH2 0xD50 PUSH2 0xD48 DUP3 PUSH2 0xD29 JUMP JUMPDEST DUP5 DUP5 SLOAD PUSH2 0xCAB JUMP JUMPDEST DUP3 SSTORE POP POP POP POP JUMP JUMPDEST PUSH1 0x0 SWAP1 JUMP JUMPDEST PUSH2 0xD65 PUSH2 0xD58 JUMP JUMPDEST PUSH2 0xD70 DUP2 DUP5 DUP5 PUSH2 0xD33 JUMP JUMPDEST POP POP POP JUMP JUMPDEST JUMPDEST DUP2 DUP2 LT ISZERO PUSH2 0xD94 JUMPI PUSH2 0xD89 PUSH1 0x0 DUP3 PUSH2 0xD5D JUMP JUMPDEST PUSH1 0x1 DUP2 ADD SWAP1 POP PUSH2 0xD76 JUMP JUMPDEST POP POP JUMP JUMPDEST PUSH1 0x1F DUP3 GT ISZERO PUSH2 0xDD9 JUMPI PUSH2 0xDAA DUP2 PUSH2 0xC79 JUMP JUMPDEST PUSH2 0xDB3 DUP5 PUSH2 0xC8E JUMP JUMPDEST DUP2 ADD PUSH1 0x20 DUP6 LT ISZERO PUSH2 0xDC2 JUMPI DUP2 SWAP1 POP JUMPDEST PUSH2 0xDD6 PUSH2 0xDCE DUP6 PUSH2 0xC8E JUMP JUMPDEST DUP4 ADD DUP3 PUSH2 0xD75 JUMP JUMPDEST POP POP JUMPDEST POP POP POP JUMP JUMPDEST PUSH1 0x0 DUP3 DUP3 SHR SWAP1 POP SWAP3 SWAP2 POP POP JUMP JUMPDEST PUSH1 0x0 PUSH2 0xDFC PUSH1 0x0 NOT DUP5 PUSH1 0x8 MUL PUSH2 0xDDE JUMP JUMPDEST NOT DUP1 DUP4 AND SWAP2 POP POP SWAP3 SWAP2 POP POP JUMP JUMPDEST PUSH1 0x0 PUSH2 0xE15 DUP4 DUP4 PUSH2 0xDEB JUMP JUMPDEST SWAP2 POP DUP3 PUSH1 0x2 MUL DUP3 OR SWAP1 POP SWAP3 SWAP2 POP POP JUMP JUMPDEST PUSH2 0xE2E DUP3 PUSH2 0x8A8 JUMP JUMPDEST PUSH8 0xFFFFFFFFFFFFFFFF DUP2 GT ISZERO PUSH2 0xE47 JUMPI PUSH2 0xE46 PUSH2 0x734 JUMP JUMPDEST JUMPDEST PUSH2 0xE51 DUP3 SLOAD PUSH2 0xC48 JUMP JUMPDEST PUSH2 0xE5C DUP3 DUP3 DUP6 PUSH2 0xD98 JUMP JUMPDEST PUSH1 0x0 PUSH1 0x20 SWAP1 POP PUSH1 0x1F DUP4 GT PUSH1 0x1 DUP2 EQ PUSH2 0xE8F JUMPI PUSH1 0x0 DUP5 ISZERO PUSH2 0xE7D JUMPI DUP3 DUP8 ADD MLOAD SWAP1 POP JUMPDEST PUSH2 0xE87 DUP6 DUP3 PUSH2 0xE09 JUMP JUMPDEST DUP7 SSTORE POP PUSH2 0xEEF JUMP JUMPDEST PUSH1 0x1F NOT DUP5 AND PUSH2 0xE9D DUP7 PUSH2 0xC79 JUMP JUMPDEST PUSH1 0x0 JUMPDEST DUP3 DUP2 LT ISZERO PUSH2 0xEC5 JUMPI DUP5 DUP10 ADD MLOAD DUP3 SSTORE PUSH1 0x1 DUP3 ADD SWAP2 POP PUSH1 0x20 DUP6 ADD SWAP5 POP PUSH1 0x20 DUP2 ADD SWAP1 POP PUSH2 0xEA0 JUMP JUMPDEST DUP7 DUP4 LT ISZERO PUSH2 0xEE2 JUMPI DUP5 DUP10 ADD MLOAD PUSH2 0xEDE PUSH1 0x1F DUP10 AND DUP3 PUSH2 0xDEB JUMP JUMPDEST DUP4 SSTORE POP JUMPDEST PUSH1 0x1 PUSH1 0x2 DUP9 MUL ADD DUP9 SSTORE POP POP POP JUMPDEST POP POP POP POP POP POP JUMP JUMPDEST PUSH32 0x4E487B7100000000000000000000000000000000000000000000000000000000 PUSH1 0x0 MSTORE PUSH1 0x32 PUSH1 0x4 MSTORE PUSH1 0x24 PUSH1 0x0 REVERT JUMPDEST PUSH32 0x4E487B7100000000000000000000000000000000000000000000000000000000 PUSH1 0x0 MSTORE PUSH1 0x11 PUSH1 0x4 MSTORE PUSH1 0x24 PUSH1 0x0 REVERT JUMPDEST PUSH1 0x0 PUSH2 0xF60 DUP3 PUSH2 0x9A1 JUMP JUMPDEST SWAP2 POP PUSH32 0xFFFFFFFFFFFFFFFFFFFFFFFFFFFFFFFFFFFFFFFFFFFFFFFFFFFFFFFFFFFFFFFF DUP3 SUB PUSH2 0xF92 JUMPI PUSH2 0xF91 PUSH2 0xF26 JUMP JUMPDEST JUMPDEST PUSH1 0x1 DUP3 ADD SWAP1 POP SWAP2 SWAP1 POP JUMP INVALID LOG2 PUSH5 0x6970667358 0x22 SLT KECCAK256 GASLIMIT EXTCODEHASH 0xD9 PUSH26 0x6ACE27E2034486A86D479BE8344282EB1D373AB0F4DA458D9A98 0x4F 0xDD PUSH5 0x736F6C6343 STOP ADDMOD 0xF STOP CALLER "
				},
				"gasEstimates": {
					"creation": {
						"codeDepositCost": "810200",
						"executionCost": "5850",
						"totalCost": "816050"
					},
					"external": {
						"Assets(uint256)": "infinite",
						"AuctDetails(uint256,uint256)": "infinite",
						"Bidding(uint256,uint256)": "infinite",
						"Result(uint256)": "infinite",
						"Users(address)": "infinite",
						"addAsset(uint256,string,uint256)": "infinite",
						"addUser(string)": "infinite"
					}
				},
				"methodIdentifiers": {
					"Assets(uint256)": "4b4a80ba",
					"AuctDetails(uint256,uint256)": "2b9af503",
					"Bidding(uint256,uint256)": "6fe605fc",
					"Result(uint256)": "a9bb0fa1",
					"Users(address)": "99b956a0",
					"addAsset(uint256,string,uint256)": "e783080c",
					"addUser(string)": "18b8275a"
				}
			},
			"storageLayout": {
				"storage": [
					{
						"astId": 17,
						"contract": "Auction.sol:Auction",
						"label": "Users",
						"offset": 0,
						"slot": "0",
						"type": "t_mapping(t_address,t_string_storage)"
					},
					{
						"astId": 22,
						"contract": "Auction.sol:Auction",
						"label": "Assets",
						"offset": 0,
						"slot": "1",
						"type": "t_mapping(t_uint256,t_struct(Asset)8_storage)"
					},
					{
						"astId": 28,
						"contract": "Auction.sol:Auction",
						"label": "AuctDetails",
						"offset": 0,
						"slot": "2",
						"type": "t_mapping(t_uint256,t_array(t_struct(AuctDetail)13_storage)dyn_storage)"
					},
					{
						"astId": 53,
						"contract": "Auction.sol:Auction",
						"label": "Id",
						"offset": 0,
						"slot": "3",
						"type": "t_uint256"
					}
				],
				"types": {
					"t_address": {
						"encoding": "inplace",
						"label": "address",
						"numberOfBytes": "20"
					},
					"t_array(t_struct(AuctDetail)13_storage)dyn_storage": {
						"base": "t_struct(AuctDetail)13_storage",
						"encoding": "dynamic_array",
						"label": "struct Auction.AuctDetail[]",
						"numberOfBytes": "32"
					},
					"t_mapping(t_address,t_string_storage)": {
						"encoding": "mapping",
						"key": "t_address",
						"label": "mapping(address => string)",
						"numberOfBytes": "32",
						"value": "t_string_storage"
					},
					"t_mapping(t_uint256,t_array(t_struct(AuctDetail)13_storage)dyn_storage)": {
						"encoding": "mapping",
						"key": "t_uint256",
						"label": "mapping(uint256 => struct Auction.AuctDetail[])",
						"numberOfBytes": "32",
						"value": "t_array(t_struct(AuctDetail)13_storage)dyn_storage"
					},
					"t_mapping(t_uint256,t_struct(Asset)8_storage)": {
						"encoding": "mapping",
						"key": "t_uint256",
						"label": "mapping(uint256 => struct Auction.Asset)",
						"numberOfBytes": "32",
						"value": "t_struct(Asset)8_storage"
					},
					"t_string_storage": {
						"encoding": "bytes",
						"label": "string",
						"numberOfBytes": "32"
					},
					"t_struct(Asset)8_storage": {
						"encoding": "inplace",
						"label": "struct Auction.Asset",
						"members": [
							{
								"astId": 3,
								"contract": "Auction.sol:Auction",
								"label": "AssetName",
								"offset": 0,
								"slot": "0",
								"type": "t_string_storage"
							},
							{
								"astId": 5,
								"contract": "Auction.sol:Auction",
								"label": "AssetSP",
								"offset": 0,
								"slot": "1",
								"type": "t_uint256"
							},
							{
								"astId": 7,
								"contract": "Auction.sol:Auction",
								"label": "Owner",
								"offset": 0,
								"slot": "2",
								"type": "t_address"
							}
						],
						"numberOfBytes": "96"
					},
					"t_struct(AuctDetail)13_storage": {
						"encoding": "inplace",
						"label": "struct Auction.AuctDetail",
						"members": [
							{
								"astId": 10,
								"contract": "Auction.sol:Auction",
								"label": "bidPrice",
								"offset": 0,
								"slot": "0",
								"type": "t_uint256"
							},
							{
								"astId": 12,
								"contract": "Auction.sol:Auction",
								"label": "bidderId",
								"offset": 0,
								"slot": "1",
								"type": "t_address"
							}
						],
						"numberOfBytes": "64"
					},
					"t_uint256": {
						"encoding": "inplace",
						"label": "uint256",
						"numberOfBytes": "32"
					}
				}
			},
			"userdoc": {
				"kind": "user",
				"methods": {},
				"version": 1
			}
		}
	}
}