{
	"Auction.sol": {
		"Auction": {
			"abi": [
				{
					"inputs": [
						{
							"internalType": "uint256",
							"name": "",
							"type": "uint256"
						}
					],
					"name": "Assets",
					"outputs": [
						{
							"internalType": "string",
							"name": "AssetName",
							"type": "string"
						},
						{
							"internalType": "uint256",
							"name": "AssetSP",
							"type": "uint256"
						},
						{
							"internalType": "address",
							"name": "Owner",
							"type": "address"
						}
					],
					"stateMutability": "view",
					"type": "function"
				},
				{
					"inputs": [
						{
							"internalType": "uint256",
							"name": "",
							"type": "uint256"
						}
					],
					"name": "AuctDetails",
					"outputs": [
						{
							"internalType": "uint256",
							"name": "bidPrice",
							"type": "uint256"
						},
						{
							"internalType": "address",
							"name": "bidderId",
							"type": "address"
						}
					],
					"stateMutability": "view",
					"type": "function"
				},
				{
					"inputs": [
						{
							"internalType": "uint256",
							"name": "AssetId",
							"type": "uint256"
						},
						{
							"internalType": "address",
							"name": "bidderId",
							"type": "address"
						},
						{
							"internalType": "uint256",
							"name": "bidPrice",
							"type": "uint256"
						}
					],
					"name": "Bidding",
					"outputs": [],
					"stateMutability": "nonpayable",
					"type": "function"
				},
				{
					"inputs": [],
					"name": "Result",
					"outputs": [],
					"stateMutability": "nonpayable",
					"type": "function"
				},
				{
					"inputs": [
						{
							"internalType": "address",
							"name": "",
							"type": "address"
						}
					],
					"name": "Users",
					"outputs": [
						{
							"internalType": "string",
							"name": "",
							"type": "string"
						}
					],
					"stateMutability": "view",
					"type": "function"
				},
				{
					"inputs": [
						{
							"internalType": "string",
							"name": "Name",
							"type": "string"
						},
						{
							"internalType": "uint256",
							"name": "Price",
							"type": "uint256"
						}
					],
					"name": "addAsset",
					"outputs": [
						{
							"internalType": "uint256",
							"name": "",
							"type": "uint256"
						},
						{
							"internalType": "string",
							"name": "",
							"type": "string"
						},
						{
							"internalType": "uint256",
							"name": "",
							"type": "uint256"
						}
					],
					"stateMutability": "nonpayable",
					"type": "function"
				},
				{
					"inputs": [
						{
							"internalType": "string",
							"name": "Name",
							"type": "string"
						}
					],
					"name": "addUser",
					"outputs": [],
					"stateMutability": "nonpayable",
					"type": "function"
				}
			],
			"devdoc": {
				"kind": "dev",
				"methods": {},
				"version": 1
			},
			"evm": {
				"assembly": "    /* \"Auction.sol\":66:944  contract Auction {... */\n  mstore(0x40, 0x80)\n    /* \"Auction.sol\":525:526  0 */\n  0x00\n    /* \"Auction.sol\":515:526  uint Id = 0 */\n  0x03\n  sstore\n    /* \"Auction.sol\":66:944  contract Auction {... */\n  callvalue\n  dup1\n  iszero\n  tag_1\n  jumpi\n  0x00\n  dup1\n  revert\ntag_1:\n  pop\n  dataSize(sub_0)\n  dup1\n  dataOffset(sub_0)\n  0x00\n  codecopy\n  0x00\n  return\nstop\n\nsub_0: assembly {\n        /* \"Auction.sol\":66:944  contract Auction {... */\n      mstore(0x40, 0x80)\n      callvalue\n      dup1\n      iszero\n      tag_1\n      jumpi\n      0x00\n      dup1\n      revert\n    tag_1:\n      pop\n      jumpi(tag_2, lt(calldatasize, 0x04))\n      shr(0xe0, calldataload(0x00))\n      dup1\n      0x32c84765\n      gt\n      tag_10\n      jumpi\n      dup1\n      0x32c84765\n      eq\n      tag_6\n      jumpi\n      dup1\n      0x4b4a80ba\n      eq\n      tag_7\n      jumpi\n      dup1\n      0x99b956a0\n      eq\n      tag_8\n      jumpi\n      dup1\n      0xf4e5d599\n      eq\n      tag_9\n      jumpi\n      jump(tag_2)\n    tag_10:\n      dup1\n      0x18b8275a\n      eq\n      tag_3\n      jumpi\n      dup1\n      0x1bc7ffe9\n      eq\n      tag_4\n      jumpi\n      dup1\n      0x25503b4f\n      eq\n      tag_5\n      jumpi\n    tag_2:\n      0x00\n      dup1\n      revert\n        /* \"Auction.sol\":420:507  function addUser(string memory Name) public {... */\n    tag_3:\n      tag_11\n      0x04\n      dup1\n      calldatasize\n      sub\n      dup2\n      add\n      swap1\n      tag_12\n      swap2\n      swap1\n      tag_13\n      jump\t// in\n    tag_12:\n      tag_14\n      jump\t// in\n    tag_11:\n      stop\n        /* \"Auction.sol\":533:738  function addAsset(string memory Name, uint Price) public returns (uint, string memory, uint) {... */\n    tag_4:\n      tag_15\n      0x04\n      dup1\n      calldatasize\n      sub\n      dup2\n      add\n      swap1\n      tag_16\n      swap2\n      swap1\n      tag_17\n      jump\t// in\n    tag_16:\n      tag_18\n      jump\t// in\n    tag_15:\n      mload(0x40)\n      tag_19\n      swap4\n      swap3\n      swap2\n      swap1\n      tag_20\n      jump\t// in\n    tag_19:\n      mload(0x40)\n      dup1\n      swap2\n      sub\n      swap1\n      return\n        /* \"Auction.sol\":758:898  function Bidding(uint AssetId, address bidderId, uint bidPrice) public {... */\n    tag_5:\n      tag_21\n      0x04\n      dup1\n      calldatasize\n      sub\n      dup2\n      add\n      swap1\n      tag_22\n      swap2\n      swap1\n      tag_23\n      jump\t// in\n    tag_22:\n      tag_24\n      jump\t// in\n    tag_21:\n      stop\n        /* \"Auction.sol\":368:411  mapping(uint => AuctDet) public AuctDetails */\n    tag_6:\n      tag_25\n      0x04\n      dup1\n      calldatasize\n      sub\n      dup2\n      add\n      swap1\n      tag_26\n      swap2\n      swap1\n      tag_27\n      jump\t// in\n    tag_26:\n      tag_28\n      jump\t// in\n    tag_25:\n      mload(0x40)\n      tag_29\n      swap3\n      swap2\n      swap1\n      tag_30\n      jump\t// in\n    tag_29:\n      mload(0x40)\n      dup1\n      swap2\n      sub\n      swap1\n      return\n        /* \"Auction.sol\":325:361  mapping(uint => Asset) public Assets */\n    tag_7:\n      tag_31\n      0x04\n      dup1\n      calldatasize\n      sub\n      dup2\n      add\n      swap1\n      tag_32\n      swap2\n      swap1\n      tag_27\n      jump\t// in\n    tag_32:\n      tag_33\n      jump\t// in\n    tag_31:\n      mload(0x40)\n      tag_34\n      swap4\n      swap3\n      swap2\n      swap1\n      tag_35\n      jump\t// in\n    tag_34:\n      mload(0x40)\n      dup1\n      swap2\n      sub\n      swap1\n      return\n        /* \"Auction.sol\":279:318  mapping(address => string) public Users */\n    tag_8:\n      tag_36\n      0x04\n      dup1\n      calldatasize\n      sub\n      dup2\n      add\n      swap1\n      tag_37\n      swap2\n      swap1\n      tag_38\n      jump\t// in\n    tag_37:\n      tag_39\n      jump\t// in\n    tag_36:\n      mload(0x40)\n      tag_40\n      swap2\n      swap1\n      tag_41\n      jump\t// in\n    tag_40:\n      mload(0x40)\n      dup1\n      swap2\n      sub\n      swap1\n      return\n        /* \"Auction.sol\":906:941  function Result() public {... */\n    tag_9:\n      tag_42\n      tag_43\n      jump\t// in\n    tag_42:\n      stop\n        /* \"Auction.sol\":420:507  function addUser(string memory Name) public {... */\n    tag_14:\n        /* \"Auction.sol\":495:499  Name */\n      dup1\n        /* \"Auction.sol\":475:480  Users */\n      0x00\n        /* \"Auction.sol\":475:492  Users[msg.sender] */\n      dup1\n        /* \"Auction.sol\":481:491  msg.sender */\n      caller\n        /* \"Auction.sol\":475:492  Users[msg.sender] */\n      0xffffffffffffffffffffffffffffffffffffffff\n      and\n      0xffffffffffffffffffffffffffffffffffffffff\n      and\n      dup2\n      mstore\n      0x20\n      add\n      swap1\n      dup2\n      mstore\n      0x20\n      add\n      0x00\n      keccak256\n        /* \"Auction.sol\":475:499  Users[msg.sender] = Name */\n      swap1\n      dup2\n      tag_45\n      swap2\n      swap1\n      tag_46\n      jump\t// in\n    tag_45:\n      pop\n        /* \"Auction.sol\":420:507  function addUser(string memory Name) public {... */\n      pop\n      jump\t// out\n        /* \"Auction.sol\":533:738  function addAsset(string memory Name, uint Price) public returns (uint, string memory, uint) {... */\n    tag_18:\n        /* \"Auction.sol\":599:603  uint */\n      0x00\n        /* \"Auction.sol\":605:618  string memory */\n      0x60\n        /* \"Auction.sol\":620:624  uint */\n      0x00\n        /* \"Auction.sol\":637:639  Id */\n      0x03\n      0x00\n        /* \"Auction.sol\":637:641  Id++ */\n      dup2\n      sload\n      dup1\n      swap3\n      swap2\n      swap1\n      tag_48\n      swap1\n      tag_49\n      jump\t// in\n    tag_48:\n      swap2\n      swap1\n      pop\n      sstore\n      pop\n        /* \"Auction.sol\":665:695  Asset(Name, Price, msg.sender) */\n      mload(0x40)\n      dup1\n      0x60\n      add\n      0x40\n      mstore\n      dup1\n        /* \"Auction.sol\":671:675  Name */\n      dup7\n        /* \"Auction.sol\":665:695  Asset(Name, Price, msg.sender) */\n      dup2\n      mstore\n      0x20\n      add\n        /* \"Auction.sol\":677:682  Price */\n      dup6\n        /* \"Auction.sol\":665:695  Asset(Name, Price, msg.sender) */\n      dup2\n      mstore\n      0x20\n      add\n        /* \"Auction.sol\":684:694  msg.sender */\n      caller\n        /* \"Auction.sol\":665:695  Asset(Name, Price, msg.sender) */\n      0xffffffffffffffffffffffffffffffffffffffff\n      and\n      dup2\n      mstore\n      pop\n        /* \"Auction.sol\":652:658  Assets */\n      0x01\n        /* \"Auction.sol\":652:662  Assets[Id] */\n      0x00\n        /* \"Auction.sol\":659:661  Id */\n      sload(0x03)\n        /* \"Auction.sol\":652:662  Assets[Id] */\n      dup2\n      mstore\n      0x20\n      add\n      swap1\n      dup2\n      mstore\n      0x20\n      add\n      0x00\n      keccak256\n        /* \"Auction.sol\":652:695  Assets[Id] = Asset(Name, Price, msg.sender) */\n      0x00\n      dup3\n      add\n      mload\n      dup2\n      0x00\n      add\n      swap1\n      dup2\n      tag_50\n      swap2\n      swap1\n      tag_46\n      jump\t// in\n    tag_50:\n      pop\n      0x20\n      dup3\n      add\n      mload\n      dup2\n      0x01\n      add\n      sstore\n      0x40\n      dup3\n      add\n      mload\n      dup2\n      0x02\n      add\n      exp(0x0100, 0x00)\n      dup2\n      sload\n      dup2\n      0xffffffffffffffffffffffffffffffffffffffff\n      mul\n      not\n      and\n      swap1\n      dup4\n      0xffffffffffffffffffffffffffffffffffffffff\n      and\n      mul\n      or\n      swap1\n      sstore\n      pop\n      swap1\n      pop\n      pop\n        /* \"Auction.sol\":714:716  Id */\n      sload(0x03)\n        /* \"Auction.sol\":718:722  Name */\n      dup6\n        /* \"Auction.sol\":724:729  Price */\n      dup6\n        /* \"Auction.sol\":706:730  return (Id, Name, Price) */\n      swap3\n      pop\n      swap3\n      pop\n      swap3\n      pop\n        /* \"Auction.sol\":533:738  function addAsset(string memory Name, uint Price) public returns (uint, string memory, uint) {... */\n      swap3\n      pop\n      swap3\n      pop\n      swap3\n      jump\t// out\n        /* \"Auction.sol\":758:898  function Bidding(uint AssetId, address bidderId, uint bidPrice) public {... */\n    tag_24:\n        /* \"Auction.sol\":863:890  AuctDet(bidPrice, bidderId) */\n      mload(0x40)\n      dup1\n      0x40\n      add\n      0x40\n      mstore\n      dup1\n        /* \"Auction.sol\":871:879  bidPrice */\n      dup3\n        /* \"Auction.sol\":863:890  AuctDet(bidPrice, bidderId) */\n      dup2\n      mstore\n      0x20\n      add\n        /* \"Auction.sol\":881:889  bidderId */\n      dup4\n        /* \"Auction.sol\":863:890  AuctDet(bidPrice, bidderId) */\n      0xffffffffffffffffffffffffffffffffffffffff\n      and\n      dup2\n      mstore\n      pop\n        /* \"Auction.sol\":840:851  AuctDetails */\n      0x02\n        /* \"Auction.sol\":840:860  AuctDetails[AssetId] */\n      0x00\n        /* \"Auction.sol\":852:859  AssetId */\n      dup6\n        /* \"Auction.sol\":840:860  AuctDetails[AssetId] */\n      dup2\n      mstore\n      0x20\n      add\n      swap1\n      dup2\n      mstore\n      0x20\n      add\n      0x00\n      keccak256\n        /* \"Auction.sol\":840:890  AuctDetails[AssetId] = AuctDet(bidPrice, bidderId) */\n      0x00\n      dup3\n      add\n      mload\n      dup2\n      0x00\n      add\n      sstore\n      0x20\n      dup3\n      add\n      mload\n      dup2\n      0x01\n      add\n      exp(0x0100, 0x00)\n      dup2\n      sload\n      dup2\n      0xffffffffffffffffffffffffffffffffffffffff\n      mul\n      not\n      and\n      swap1\n      dup4\n      0xffffffffffffffffffffffffffffffffffffffff\n      and\n      mul\n      or\n      swap1\n      sstore\n      pop\n      swap1\n      pop\n      pop\n        /* \"Auction.sol\":758:898  function Bidding(uint AssetId, address bidderId, uint bidPrice) public {... */\n      pop\n      pop\n      pop\n      jump\t// out\n        /* \"Auction.sol\":368:411  mapping(uint => AuctDet) public AuctDetails */\n    tag_28:\n      mstore(0x20, 0x02)\n      dup1\n      0x00\n      mstore\n      keccak256(0x00, 0x40)\n      0x00\n      swap2\n      pop\n      swap1\n      pop\n      dup1\n      0x00\n      add\n      sload\n      swap1\n      dup1\n      0x01\n      add\n      0x00\n      swap1\n      sload\n      swap1\n      0x0100\n      exp\n      swap1\n      div\n      0xffffffffffffffffffffffffffffffffffffffff\n      and\n      swap1\n      pop\n      dup3\n      jump\t// out\n        /* \"Auction.sol\":325:361  mapping(uint => Asset) public Assets */\n    tag_33:\n      mstore(0x20, 0x01)\n      dup1\n      0x00\n      mstore\n      keccak256(0x00, 0x40)\n      0x00\n      swap2\n      pop\n      swap1\n      pop\n      dup1\n      0x00\n      add\n      dup1\n      sload\n      tag_52\n      swap1\n      tag_53\n      jump\t// in\n    tag_52:\n      dup1\n      0x1f\n      add\n      0x20\n      dup1\n      swap2\n      div\n      mul\n      0x20\n      add\n      mload(0x40)\n      swap1\n      dup2\n      add\n      0x40\n      mstore\n      dup1\n      swap3\n      swap2\n      swap1\n      dup2\n      dup2\n      mstore\n      0x20\n      add\n      dup3\n      dup1\n      sload\n      tag_54\n      swap1\n      tag_53\n      jump\t// in\n    tag_54:\n      dup1\n      iszero\n      tag_55\n      jumpi\n      dup1\n      0x1f\n      lt\n      tag_56\n      jumpi\n      0x0100\n      dup1\n      dup4\n      sload\n      div\n      mul\n      dup4\n      mstore\n      swap2\n      0x20\n      add\n      swap2\n      jump(tag_55)\n    tag_56:\n      dup3\n      add\n      swap2\n      swap1\n      0x00\n      mstore\n      keccak256(0x00, 0x20)\n      swap1\n    tag_57:\n      dup2\n      sload\n      dup2\n      mstore\n      swap1\n      0x01\n      add\n      swap1\n      0x20\n      add\n      dup1\n      dup4\n      gt\n      tag_57\n      jumpi\n      dup3\n      swap1\n      sub\n      0x1f\n      and\n      dup3\n      add\n      swap2\n    tag_55:\n      pop\n      pop\n      pop\n      pop\n      pop\n      swap1\n      dup1\n      0x01\n      add\n      sload\n      swap1\n      dup1\n      0x02\n      add\n      0x00\n      swap1\n      sload\n      swap1\n      0x0100\n      exp\n      swap1\n      div\n      0xffffffffffffffffffffffffffffffffffffffff\n      and\n      swap1\n      pop\n      dup4\n      jump\t// out\n        /* \"Auction.sol\":279:318  mapping(address => string) public Users */\n    tag_39:\n      mstore(0x20, 0x00)\n      dup1\n      0x00\n      mstore\n      keccak256(0x00, 0x40)\n      0x00\n      swap2\n      pop\n      swap1\n      pop\n      dup1\n      sload\n      tag_58\n      swap1\n      tag_53\n      jump\t// in\n    tag_58:\n      dup1\n      0x1f\n      add\n      0x20\n      dup1\n      swap2\n      div\n      mul\n      0x20\n      add\n      mload(0x40)\n      swap1\n      dup2\n      add\n      0x40\n      mstore\n      dup1\n      swap3\n      swap2\n      swap1\n      dup2\n      dup2\n      mstore\n      0x20\n      add\n      dup3\n      dup1\n      sload\n      tag_59\n      swap1\n      tag_53\n      jump\t// in\n    tag_59:\n      dup1\n      iszero\n      tag_60\n      jumpi\n      dup1\n      0x1f\n      lt\n      tag_61\n      jumpi\n      0x0100\n      dup1\n      dup4\n      sload\n      div\n      mul\n      dup4\n      mstore\n      swap2\n      0x20\n      add\n      swap2\n      jump(tag_60)\n    tag_61:\n      dup3\n      add\n      swap2\n      swap1\n      0x00\n      mstore\n      keccak256(0x00, 0x20)\n      swap1\n    tag_62:\n      dup2\n      sload\n      dup2\n      mstore\n      swap1\n      0x01\n      add\n      swap1\n      0x20\n      add\n      dup1\n      dup4\n      gt\n      tag_62\n      jumpi\n      dup3\n      swap1\n      sub\n      0x1f\n      and\n      dup3\n      add\n      swap2\n    tag_60:\n      pop\n      pop\n      pop\n      pop\n      pop\n      dup2\n      jump\t// out\n        /* \"Auction.sol\":906:941  function Result() public {... */\n    tag_43:\n      jump\t// out\n        /* \"#utility.yul\":7:82   */\n    tag_64:\n        /* \"#utility.yul\":40:46   */\n      0x00\n        /* \"#utility.yul\":73:75   */\n      0x40\n        /* \"#utility.yul\":67:76   */\n      mload\n        /* \"#utility.yul\":57:76   */\n      swap1\n      pop\n        /* \"#utility.yul\":7:82   */\n      swap1\n      jump\t// out\n        /* \"#utility.yul\":88:205   */\n    tag_65:\n        /* \"#utility.yul\":197:198   */\n      0x00\n        /* \"#utility.yul\":194:195   */\n      dup1\n        /* \"#utility.yul\":187:199   */\n      revert\n        /* \"#utility.yul\":211:328   */\n    tag_66:\n        /* \"#utility.yul\":320:321   */\n      0x00\n        /* \"#utility.yul\":317:318   */\n      dup1\n        /* \"#utility.yul\":310:322   */\n      revert\n        /* \"#utility.yul\":334:451   */\n    tag_67:\n        /* \"#utility.yul\":443:444   */\n      0x00\n        /* \"#utility.yul\":440:441   */\n      dup1\n        /* \"#utility.yul\":433:445   */\n      revert\n        /* \"#utility.yul\":457:574   */\n    tag_68:\n        /* \"#utility.yul\":566:567   */\n      0x00\n        /* \"#utility.yul\":563:564   */\n      dup1\n        /* \"#utility.yul\":556:568   */\n      revert\n        /* \"#utility.yul\":580:682   */\n    tag_69:\n        /* \"#utility.yul\":621:627   */\n      0x00\n        /* \"#utility.yul\":672:674   */\n      0x1f\n        /* \"#utility.yul\":668:675   */\n      not\n        /* \"#utility.yul\":663:665   */\n      0x1f\n        /* \"#utility.yul\":656:661   */\n      dup4\n        /* \"#utility.yul\":652:666   */\n      add\n        /* \"#utility.yul\":648:676   */\n      and\n        /* \"#utility.yul\":638:676   */\n      swap1\n      pop\n        /* \"#utility.yul\":580:682   */\n      swap2\n      swap1\n      pop\n      jump\t// out\n        /* \"#utility.yul\":688:868   */\n    tag_70:\n        /* \"#utility.yul\":736:813   */\n      0x4e487b7100000000000000000000000000000000000000000000000000000000\n        /* \"#utility.yul\":733:734   */\n      0x00\n        /* \"#utility.yul\":726:814   */\n      mstore\n        /* \"#utility.yul\":833:837   */\n      0x41\n        /* \"#utility.yul\":830:831   */\n      0x04\n        /* \"#utility.yul\":823:838   */\n      mstore\n        /* \"#utility.yul\":857:861   */\n      0x24\n        /* \"#utility.yul\":854:855   */\n      0x00\n        /* \"#utility.yul\":847:862   */\n      revert\n        /* \"#utility.yul\":874:1155   */\n    tag_71:\n        /* \"#utility.yul\":957:984   */\n      tag_116\n        /* \"#utility.yul\":979:983   */\n      dup3\n        /* \"#utility.yul\":957:984   */\n      tag_69\n      jump\t// in\n    tag_116:\n        /* \"#utility.yul\":949:955   */\n      dup2\n        /* \"#utility.yul\":945:985   */\n      add\n        /* \"#utility.yul\":1087:1093   */\n      dup2\n        /* \"#utility.yul\":1075:1085   */\n      dup2\n        /* \"#utility.yul\":1072:1094   */\n      lt\n        /* \"#utility.yul\":1051:1069   */\n      0xffffffffffffffff\n        /* \"#utility.yul\":1039:1049   */\n      dup3\n        /* \"#utility.yul\":1036:1070   */\n      gt\n        /* \"#utility.yul\":1033:1095   */\n      or\n        /* \"#utility.yul\":1030:1118   */\n      iszero\n      tag_117\n      jumpi\n        /* \"#utility.yul\":1098:1116   */\n      tag_118\n      tag_70\n      jump\t// in\n    tag_118:\n        /* \"#utility.yul\":1030:1118   */\n    tag_117:\n        /* \"#utility.yul\":1138:1148   */\n      dup1\n        /* \"#utility.yul\":1134:1136   */\n      0x40\n        /* \"#utility.yul\":1127:1149   */\n      mstore\n        /* \"#utility.yul\":917:1155   */\n      pop\n        /* \"#utility.yul\":874:1155   */\n      pop\n      pop\n      jump\t// out\n        /* \"#utility.yul\":1161:1290   */\n    tag_72:\n        /* \"#utility.yul\":1195:1201   */\n      0x00\n        /* \"#utility.yul\":1222:1242   */\n      tag_120\n      tag_64\n      jump\t// in\n    tag_120:\n        /* \"#utility.yul\":1212:1242   */\n      swap1\n      pop\n        /* \"#utility.yul\":1251:1284   */\n      tag_121\n        /* \"#utility.yul\":1279:1283   */\n      dup3\n        /* \"#utility.yul\":1271:1277   */\n      dup3\n        /* \"#utility.yul\":1251:1284   */\n      tag_71\n      jump\t// in\n    tag_121:\n        /* \"#utility.yul\":1161:1290   */\n      swap2\n      swap1\n      pop\n      jump\t// out\n        /* \"#utility.yul\":1296:1604   */\n    tag_73:\n        /* \"#utility.yul\":1358:1362   */\n      0x00\n        /* \"#utility.yul\":1448:1466   */\n      0xffffffffffffffff\n        /* \"#utility.yul\":1440:1446   */\n      dup3\n        /* \"#utility.yul\":1437:1467   */\n      gt\n        /* \"#utility.yul\":1434:1490   */\n      iszero\n      tag_123\n      jumpi\n        /* \"#utility.yul\":1470:1488   */\n      tag_124\n      tag_70\n      jump\t// in\n    tag_124:\n        /* \"#utility.yul\":1434:1490   */\n    tag_123:\n        /* \"#utility.yul\":1508:1537   */\n      tag_125\n        /* \"#utility.yul\":1530:1536   */\n      dup3\n        /* \"#utility.yul\":1508:1537   */\n      tag_69\n      jump\t// in\n    tag_125:\n        /* \"#utility.yul\":1500:1537   */\n      swap1\n      pop\n        /* \"#utility.yul\":1592:1596   */\n      0x20\n        /* \"#utility.yul\":1586:1590   */\n      dup2\n        /* \"#utility.yul\":1582:1597   */\n      add\n        /* \"#utility.yul\":1574:1597   */\n      swap1\n      pop\n        /* \"#utility.yul\":1296:1604   */\n      swap2\n      swap1\n      pop\n      jump\t// out\n        /* \"#utility.yul\":1610:1764   */\n    tag_74:\n        /* \"#utility.yul\":1694:1700   */\n      dup3\n        /* \"#utility.yul\":1689:1692   */\n      dup2\n        /* \"#utility.yul\":1684:1687   */\n      dup4\n        /* \"#utility.yul\":1671:1701   */\n      calldatacopy\n        /* \"#utility.yul\":1756:1757   */\n      0x00\n        /* \"#utility.yul\":1747:1753   */\n      dup4\n        /* \"#utility.yul\":1742:1745   */\n      dup4\n        /* \"#utility.yul\":1738:1754   */\n      add\n        /* \"#utility.yul\":1731:1758   */\n      mstore\n        /* \"#utility.yul\":1610:1764   */\n      pop\n      pop\n      pop\n      jump\t// out\n        /* \"#utility.yul\":1770:2182   */\n    tag_75:\n        /* \"#utility.yul\":1848:1853   */\n      0x00\n        /* \"#utility.yul\":1873:1939   */\n      tag_128\n        /* \"#utility.yul\":1889:1938   */\n      tag_129\n        /* \"#utility.yul\":1931:1937   */\n      dup5\n        /* \"#utility.yul\":1889:1938   */\n      tag_73\n      jump\t// in\n    tag_129:\n        /* \"#utility.yul\":1873:1939   */\n      tag_72\n      jump\t// in\n    tag_128:\n        /* \"#utility.yul\":1864:1939   */\n      swap1\n      pop\n        /* \"#utility.yul\":1962:1968   */\n      dup3\n        /* \"#utility.yul\":1955:1960   */\n      dup2\n        /* \"#utility.yul\":1948:1969   */\n      mstore\n        /* \"#utility.yul\":2000:2004   */\n      0x20\n        /* \"#utility.yul\":1993:1998   */\n      dup2\n        /* \"#utility.yul\":1989:2005   */\n      add\n        /* \"#utility.yul\":2038:2041   */\n      dup5\n        /* \"#utility.yul\":2029:2035   */\n      dup5\n        /* \"#utility.yul\":2024:2027   */\n      dup5\n        /* \"#utility.yul\":2020:2036   */\n      add\n        /* \"#utility.yul\":2017:2042   */\n      gt\n        /* \"#utility.yul\":2014:2126   */\n      iszero\n      tag_130\n      jumpi\n        /* \"#utility.yul\":2045:2124   */\n      tag_131\n      tag_68\n      jump\t// in\n    tag_131:\n        /* \"#utility.yul\":2014:2126   */\n    tag_130:\n        /* \"#utility.yul\":2135:2176   */\n      tag_132\n        /* \"#utility.yul\":2169:2175   */\n      dup5\n        /* \"#utility.yul\":2164:2167   */\n      dup3\n        /* \"#utility.yul\":2159:2162   */\n      dup6\n        /* \"#utility.yul\":2135:2176   */\n      tag_74\n      jump\t// in\n    tag_132:\n        /* \"#utility.yul\":1854:2182   */\n      pop\n        /* \"#utility.yul\":1770:2182   */\n      swap4\n      swap3\n      pop\n      pop\n      pop\n      jump\t// out\n        /* \"#utility.yul\":2202:2542   */\n    tag_76:\n        /* \"#utility.yul\":2258:2263   */\n      0x00\n        /* \"#utility.yul\":2307:2310   */\n      dup3\n        /* \"#utility.yul\":2300:2304   */\n      0x1f\n        /* \"#utility.yul\":2292:2298   */\n      dup4\n        /* \"#utility.yul\":2288:2305   */\n      add\n        /* \"#utility.yul\":2284:2311   */\n      slt\n        /* \"#utility.yul\":2274:2396   */\n      tag_134\n      jumpi\n        /* \"#utility.yul\":2315:2394   */\n      tag_135\n      tag_67\n      jump\t// in\n    tag_135:\n        /* \"#utility.yul\":2274:2396   */\n    tag_134:\n        /* \"#utility.yul\":2432:2438   */\n      dup2\n        /* \"#utility.yul\":2419:2439   */\n      calldataload\n        /* \"#utility.yul\":2457:2536   */\n      tag_136\n        /* \"#utility.yul\":2532:2535   */\n      dup5\n        /* \"#utility.yul\":2524:2530   */\n      dup3\n        /* \"#utility.yul\":2517:2521   */\n      0x20\n        /* \"#utility.yul\":2509:2515   */\n      dup7\n        /* \"#utility.yul\":2505:2522   */\n      add\n        /* \"#utility.yul\":2457:2536   */\n      tag_75\n      jump\t// in\n    tag_136:\n        /* \"#utility.yul\":2448:2536   */\n      swap2\n      pop\n        /* \"#utility.yul\":2264:2542   */\n      pop\n        /* \"#utility.yul\":2202:2542   */\n      swap3\n      swap2\n      pop\n      pop\n      jump\t// out\n        /* \"#utility.yul\":2548:3057   */\n    tag_13:\n        /* \"#utility.yul\":2617:2623   */\n      0x00\n        /* \"#utility.yul\":2666:2668   */\n      0x20\n        /* \"#utility.yul\":2654:2663   */\n      dup3\n        /* \"#utility.yul\":2645:2652   */\n      dup5\n        /* \"#utility.yul\":2641:2664   */\n      sub\n        /* \"#utility.yul\":2637:2669   */\n      slt\n        /* \"#utility.yul\":2634:2753   */\n      iszero\n      tag_138\n      jumpi\n        /* \"#utility.yul\":2672:2751   */\n      tag_139\n      tag_65\n      jump\t// in\n    tag_139:\n        /* \"#utility.yul\":2634:2753   */\n    tag_138:\n        /* \"#utility.yul\":2820:2821   */\n      0x00\n        /* \"#utility.yul\":2809:2818   */\n      dup3\n        /* \"#utility.yul\":2805:2822   */\n      add\n        /* \"#utility.yul\":2792:2823   */\n      calldataload\n        /* \"#utility.yul\":2850:2868   */\n      0xffffffffffffffff\n        /* \"#utility.yul\":2842:2848   */\n      dup2\n        /* \"#utility.yul\":2839:2869   */\n      gt\n        /* \"#utility.yul\":2836:2953   */\n      iszero\n      tag_140\n      jumpi\n        /* \"#utility.yul\":2872:2951   */\n      tag_141\n      tag_66\n      jump\t// in\n    tag_141:\n        /* \"#utility.yul\":2836:2953   */\n    tag_140:\n        /* \"#utility.yul\":2977:3040   */\n      tag_142\n        /* \"#utility.yul\":3032:3039   */\n      dup5\n        /* \"#utility.yul\":3023:3029   */\n      dup3\n        /* \"#utility.yul\":3012:3021   */\n      dup6\n        /* \"#utility.yul\":3008:3030   */\n      add\n        /* \"#utility.yul\":2977:3040   */\n      tag_76\n      jump\t// in\n    tag_142:\n        /* \"#utility.yul\":2967:3040   */\n      swap2\n      pop\n        /* \"#utility.yul\":2763:3050   */\n      pop\n        /* \"#utility.yul\":2548:3057   */\n      swap3\n      swap2\n      pop\n      pop\n      jump\t// out\n        /* \"#utility.yul\":3063:3140   */\n    tag_77:\n        /* \"#utility.yul\":3100:3107   */\n      0x00\n        /* \"#utility.yul\":3129:3134   */\n      dup2\n        /* \"#utility.yul\":3118:3134   */\n      swap1\n      pop\n        /* \"#utility.yul\":3063:3140   */\n      swap2\n      swap1\n      pop\n      jump\t// out\n        /* \"#utility.yul\":3146:3268   */\n    tag_78:\n        /* \"#utility.yul\":3219:3243   */\n      tag_145\n        /* \"#utility.yul\":3237:3242   */\n      dup2\n        /* \"#utility.yul\":3219:3243   */\n      tag_77\n      jump\t// in\n    tag_145:\n        /* \"#utility.yul\":3212:3217   */\n      dup2\n        /* \"#utility.yul\":3209:3244   */\n      eq\n        /* \"#utility.yul\":3199:3262   */\n      tag_146\n      jumpi\n        /* \"#utility.yul\":3258:3259   */\n      0x00\n        /* \"#utility.yul\":3255:3256   */\n      dup1\n        /* \"#utility.yul\":3248:3260   */\n      revert\n        /* \"#utility.yul\":3199:3262   */\n    tag_146:\n        /* \"#utility.yul\":3146:3268   */\n      pop\n      jump\t// out\n        /* \"#utility.yul\":3274:3413   */\n    tag_79:\n        /* \"#utility.yul\":3320:3325   */\n      0x00\n        /* \"#utility.yul\":3358:3364   */\n      dup2\n        /* \"#utility.yul\":3345:3365   */\n      calldataload\n        /* \"#utility.yul\":3336:3365   */\n      swap1\n      pop\n        /* \"#utility.yul\":3374:3407   */\n      tag_148\n        /* \"#utility.yul\":3401:3406   */\n      dup2\n        /* \"#utility.yul\":3374:3407   */\n      tag_78\n      jump\t// in\n    tag_148:\n        /* \"#utility.yul\":3274:3413   */\n      swap3\n      swap2\n      pop\n      pop\n      jump\t// out\n        /* \"#utility.yul\":3419:4073   */\n    tag_17:\n        /* \"#utility.yul\":3497:3503   */\n      0x00\n        /* \"#utility.yul\":3505:3511   */\n      dup1\n        /* \"#utility.yul\":3554:3556   */\n      0x40\n        /* \"#utility.yul\":3542:3551   */\n      dup4\n        /* \"#utility.yul\":3533:3540   */\n      dup6\n        /* \"#utility.yul\":3529:3552   */\n      sub\n        /* \"#utility.yul\":3525:3557   */\n      slt\n        /* \"#utility.yul\":3522:3641   */\n      iszero\n      tag_150\n      jumpi\n        /* \"#utility.yul\":3560:3639   */\n      tag_151\n      tag_65\n      jump\t// in\n    tag_151:\n        /* \"#utility.yul\":3522:3641   */\n    tag_150:\n        /* \"#utility.yul\":3708:3709   */\n      0x00\n        /* \"#utility.yul\":3697:3706   */\n      dup4\n        /* \"#utility.yul\":3693:3710   */\n      add\n        /* \"#utility.yul\":3680:3711   */\n      calldataload\n        /* \"#utility.yul\":3738:3756   */\n      0xffffffffffffffff\n        /* \"#utility.yul\":3730:3736   */\n      dup2\n        /* \"#utility.yul\":3727:3757   */\n      gt\n        /* \"#utility.yul\":3724:3841   */\n      iszero\n      tag_152\n      jumpi\n        /* \"#utility.yul\":3760:3839   */\n      tag_153\n      tag_66\n      jump\t// in\n    tag_153:\n        /* \"#utility.yul\":3724:3841   */\n    tag_152:\n        /* \"#utility.yul\":3865:3928   */\n      tag_154\n        /* \"#utility.yul\":3920:3927   */\n      dup6\n        /* \"#utility.yul\":3911:3917   */\n      dup3\n        /* \"#utility.yul\":3900:3909   */\n      dup7\n        /* \"#utility.yul\":3896:3918   */\n      add\n        /* \"#utility.yul\":3865:3928   */\n      tag_76\n      jump\t// in\n    tag_154:\n        /* \"#utility.yul\":3855:3928   */\n      swap3\n      pop\n        /* \"#utility.yul\":3651:3938   */\n      pop\n        /* \"#utility.yul\":3977:3979   */\n      0x20\n        /* \"#utility.yul\":4003:4056   */\n      tag_155\n        /* \"#utility.yul\":4048:4055   */\n      dup6\n        /* \"#utility.yul\":4039:4045   */\n      dup3\n        /* \"#utility.yul\":4028:4037   */\n      dup7\n        /* \"#utility.yul\":4024:4046   */\n      add\n        /* \"#utility.yul\":4003:4056   */\n      tag_79\n      jump\t// in\n    tag_155:\n        /* \"#utility.yul\":3993:4056   */\n      swap2\n      pop\n        /* \"#utility.yul\":3948:4066   */\n      pop\n        /* \"#utility.yul\":3419:4073   */\n      swap3\n      pop\n      swap3\n      swap1\n      pop\n      jump\t// out\n        /* \"#utility.yul\":4079:4197   */\n    tag_80:\n        /* \"#utility.yul\":4166:4190   */\n      tag_157\n        /* \"#utility.yul\":4184:4189   */\n      dup2\n        /* \"#utility.yul\":4166:4190   */\n      tag_77\n      jump\t// in\n    tag_157:\n        /* \"#utility.yul\":4161:4164   */\n      dup3\n        /* \"#utility.yul\":4154:4191   */\n      mstore\n        /* \"#utility.yul\":4079:4197   */\n      pop\n      pop\n      jump\t// out\n        /* \"#utility.yul\":4203:4302   */\n    tag_81:\n        /* \"#utility.yul\":4255:4261   */\n      0x00\n        /* \"#utility.yul\":4289:4294   */\n      dup2\n        /* \"#utility.yul\":4283:4295   */\n      mload\n        /* \"#utility.yul\":4273:4295   */\n      swap1\n      pop\n        /* \"#utility.yul\":4203:4302   */\n      swap2\n      swap1\n      pop\n      jump\t// out\n        /* \"#utility.yul\":4308:4477   */\n    tag_82:\n        /* \"#utility.yul\":4392:4403   */\n      0x00\n        /* \"#utility.yul\":4426:4432   */\n      dup3\n        /* \"#utility.yul\":4421:4424   */\n      dup3\n        /* \"#utility.yul\":4414:4433   */\n      mstore\n        /* \"#utility.yul\":4466:4470   */\n      0x20\n        /* \"#utility.yul\":4461:4464   */\n      dup3\n        /* \"#utility.yul\":4457:4471   */\n      add\n        /* \"#utility.yul\":4442:4471   */\n      swap1\n      pop\n        /* \"#utility.yul\":4308:4477   */\n      swap3\n      swap2\n      pop\n      pop\n      jump\t// out\n        /* \"#utility.yul\":4483:4790   */\n    tag_83:\n        /* \"#utility.yul\":4551:4552   */\n      0x00\n        /* \"#utility.yul\":4561:4674   */\n    tag_161:\n        /* \"#utility.yul\":4575:4581   */\n      dup4\n        /* \"#utility.yul\":4572:4573   */\n      dup2\n        /* \"#utility.yul\":4569:4582   */\n      lt\n        /* \"#utility.yul\":4561:4674   */\n      iszero\n      tag_163\n      jumpi\n        /* \"#utility.yul\":4660:4661   */\n      dup1\n        /* \"#utility.yul\":4655:4658   */\n      dup3\n        /* \"#utility.yul\":4651:4662   */\n      add\n        /* \"#utility.yul\":4645:4663   */\n      mload\n        /* \"#utility.yul\":4641:4642   */\n      dup2\n        /* \"#utility.yul\":4636:4639   */\n      dup5\n        /* \"#utility.yul\":4632:4643   */\n      add\n        /* \"#utility.yul\":4625:4664   */\n      mstore\n        /* \"#utility.yul\":4597:4599   */\n      0x20\n        /* \"#utility.yul\":4594:4595   */\n      dup2\n        /* \"#utility.yul\":4590:4600   */\n      add\n        /* \"#utility.yul\":4585:4600   */\n      swap1\n      pop\n        /* \"#utility.yul\":4561:4674   */\n      jump(tag_161)\n    tag_163:\n        /* \"#utility.yul\":4692:4698   */\n      dup4\n        /* \"#utility.yul\":4689:4690   */\n      dup2\n        /* \"#utility.yul\":4686:4699   */\n      gt\n        /* \"#utility.yul\":4683:4784   */\n      iszero\n      tag_164\n      jumpi\n        /* \"#utility.yul\":4772:4773   */\n      0x00\n        /* \"#utility.yul\":4763:4769   */\n      dup5\n        /* \"#utility.yul\":4758:4761   */\n      dup5\n        /* \"#utility.yul\":4754:4770   */\n      add\n        /* \"#utility.yul\":4747:4774   */\n      mstore\n        /* \"#utility.yul\":4683:4784   */\n    tag_164:\n        /* \"#utility.yul\":4532:4790   */\n      pop\n        /* \"#utility.yul\":4483:4790   */\n      pop\n      pop\n      pop\n      jump\t// out\n        /* \"#utility.yul\":4796:5160   */\n    tag_84:\n        /* \"#utility.yul\":4884:4887   */\n      0x00\n        /* \"#utility.yul\":4912:4951   */\n      tag_166\n        /* \"#utility.yul\":4945:4950   */\n      dup3\n        /* \"#utility.yul\":4912:4951   */\n      tag_81\n      jump\t// in\n    tag_166:\n        /* \"#utility.yul\":4967:5038   */\n      tag_167\n        /* \"#utility.yul\":5031:5037   */\n      dup2\n        /* \"#utility.yul\":5026:5029   */\n      dup6\n        /* \"#utility.yul\":4967:5038   */\n      tag_82\n      jump\t// in\n    tag_167:\n        /* \"#utility.yul\":4960:5038   */\n      swap4\n      pop\n        /* \"#utility.yul\":5047:5099   */\n      tag_168\n        /* \"#utility.yul\":5092:5098   */\n      dup2\n        /* \"#utility.yul\":5087:5090   */\n      dup6\n        /* \"#utility.yul\":5080:5084   */\n      0x20\n        /* \"#utility.yul\":5073:5078   */\n      dup7\n        /* \"#utility.yul\":5069:5085   */\n      add\n        /* \"#utility.yul\":5047:5099   */\n      tag_83\n      jump\t// in\n    tag_168:\n        /* \"#utility.yul\":5124:5153   */\n      tag_169\n        /* \"#utility.yul\":5146:5152   */\n      dup2\n        /* \"#utility.yul\":5124:5153   */\n      tag_69\n      jump\t// in\n    tag_169:\n        /* \"#utility.yul\":5119:5122   */\n      dup5\n        /* \"#utility.yul\":5115:5154   */\n      add\n        /* \"#utility.yul\":5108:5154   */\n      swap2\n      pop\n        /* \"#utility.yul\":4888:5160   */\n      pop\n        /* \"#utility.yul\":4796:5160   */\n      swap3\n      swap2\n      pop\n      pop\n      jump\t// out\n        /* \"#utility.yul\":5166:5699   */\n    tag_20:\n        /* \"#utility.yul\":5335:5339   */\n      0x00\n        /* \"#utility.yul\":5373:5375   */\n      0x60\n        /* \"#utility.yul\":5362:5371   */\n      dup3\n        /* \"#utility.yul\":5358:5376   */\n      add\n        /* \"#utility.yul\":5350:5376   */\n      swap1\n      pop\n        /* \"#utility.yul\":5386:5457   */\n      tag_171\n        /* \"#utility.yul\":5454:5455   */\n      0x00\n        /* \"#utility.yul\":5443:5452   */\n      dup4\n        /* \"#utility.yul\":5439:5456   */\n      add\n        /* \"#utility.yul\":5430:5436   */\n      dup7\n        /* \"#utility.yul\":5386:5457   */\n      tag_80\n      jump\t// in\n    tag_171:\n        /* \"#utility.yul\":5504:5513   */\n      dup2\n        /* \"#utility.yul\":5498:5502   */\n      dup2\n        /* \"#utility.yul\":5494:5514   */\n      sub\n        /* \"#utility.yul\":5489:5491   */\n      0x20\n        /* \"#utility.yul\":5478:5487   */\n      dup4\n        /* \"#utility.yul\":5474:5492   */\n      add\n        /* \"#utility.yul\":5467:5515   */\n      mstore\n        /* \"#utility.yul\":5532:5610   */\n      tag_172\n        /* \"#utility.yul\":5605:5609   */\n      dup2\n        /* \"#utility.yul\":5596:5602   */\n      dup6\n        /* \"#utility.yul\":5532:5610   */\n      tag_84\n      jump\t// in\n    tag_172:\n        /* \"#utility.yul\":5524:5610   */\n      swap1\n      pop\n        /* \"#utility.yul\":5620:5692   */\n      tag_173\n        /* \"#utility.yul\":5688:5690   */\n      0x40\n        /* \"#utility.yul\":5677:5686   */\n      dup4\n        /* \"#utility.yul\":5673:5691   */\n      add\n        /* \"#utility.yul\":5664:5670   */\n      dup5\n        /* \"#utility.yul\":5620:5692   */\n      tag_80\n      jump\t// in\n    tag_173:\n        /* \"#utility.yul\":5166:5699   */\n      swap5\n      swap4\n      pop\n      pop\n      pop\n      pop\n      jump\t// out\n        /* \"#utility.yul\":5705:5831   */\n    tag_85:\n        /* \"#utility.yul\":5742:5749   */\n      0x00\n        /* \"#utility.yul\":5782:5824   */\n      0xffffffffffffffffffffffffffffffffffffffff\n        /* \"#utility.yul\":5775:5780   */\n      dup3\n        /* \"#utility.yul\":5771:5825   */\n      and\n        /* \"#utility.yul\":5760:5825   */\n      swap1\n      pop\n        /* \"#utility.yul\":5705:5831   */\n      swap2\n      swap1\n      pop\n      jump\t// out\n        /* \"#utility.yul\":5837:5933   */\n    tag_86:\n        /* \"#utility.yul\":5874:5881   */\n      0x00\n        /* \"#utility.yul\":5903:5927   */\n      tag_176\n        /* \"#utility.yul\":5921:5926   */\n      dup3\n        /* \"#utility.yul\":5903:5927   */\n      tag_85\n      jump\t// in\n    tag_176:\n        /* \"#utility.yul\":5892:5927   */\n      swap1\n      pop\n        /* \"#utility.yul\":5837:5933   */\n      swap2\n      swap1\n      pop\n      jump\t// out\n        /* \"#utility.yul\":5939:6061   */\n    tag_87:\n        /* \"#utility.yul\":6012:6036   */\n      tag_178\n        /* \"#utility.yul\":6030:6035   */\n      dup2\n        /* \"#utility.yul\":6012:6036   */\n      tag_86\n      jump\t// in\n    tag_178:\n        /* \"#utility.yul\":6005:6010   */\n      dup2\n        /* \"#utility.yul\":6002:6037   */\n      eq\n        /* \"#utility.yul\":5992:6055   */\n      tag_179\n      jumpi\n        /* \"#utility.yul\":6051:6052   */\n      0x00\n        /* \"#utility.yul\":6048:6049   */\n      dup1\n        /* \"#utility.yul\":6041:6053   */\n      revert\n        /* \"#utility.yul\":5992:6055   */\n    tag_179:\n        /* \"#utility.yul\":5939:6061   */\n      pop\n      jump\t// out\n        /* \"#utility.yul\":6067:6206   */\n    tag_88:\n        /* \"#utility.yul\":6113:6118   */\n      0x00\n        /* \"#utility.yul\":6151:6157   */\n      dup2\n        /* \"#utility.yul\":6138:6158   */\n      calldataload\n        /* \"#utility.yul\":6129:6158   */\n      swap1\n      pop\n        /* \"#utility.yul\":6167:6200   */\n      tag_181\n        /* \"#utility.yul\":6194:6199   */\n      dup2\n        /* \"#utility.yul\":6167:6200   */\n      tag_87\n      jump\t// in\n    tag_181:\n        /* \"#utility.yul\":6067:6206   */\n      swap3\n      swap2\n      pop\n      pop\n      jump\t// out\n        /* \"#utility.yul\":6212:6831   */\n    tag_23:\n        /* \"#utility.yul\":6289:6295   */\n      0x00\n        /* \"#utility.yul\":6297:6303   */\n      dup1\n        /* \"#utility.yul\":6305:6311   */\n      0x00\n        /* \"#utility.yul\":6354:6356   */\n      0x60\n        /* \"#utility.yul\":6342:6351   */\n      dup5\n        /* \"#utility.yul\":6333:6340   */\n      dup7\n        /* \"#utility.yul\":6329:6352   */\n      sub\n        /* \"#utility.yul\":6325:6357   */\n      slt\n        /* \"#utility.yul\":6322:6441   */\n      iszero\n      tag_183\n      jumpi\n        /* \"#utility.yul\":6360:6439   */\n      tag_184\n      tag_65\n      jump\t// in\n    tag_184:\n        /* \"#utility.yul\":6322:6441   */\n    tag_183:\n        /* \"#utility.yul\":6480:6481   */\n      0x00\n        /* \"#utility.yul\":6505:6558   */\n      tag_185\n        /* \"#utility.yul\":6550:6557   */\n      dup7\n        /* \"#utility.yul\":6541:6547   */\n      dup3\n        /* \"#utility.yul\":6530:6539   */\n      dup8\n        /* \"#utility.yul\":6526:6548   */\n      add\n        /* \"#utility.yul\":6505:6558   */\n      tag_79\n      jump\t// in\n    tag_185:\n        /* \"#utility.yul\":6495:6558   */\n      swap4\n      pop\n        /* \"#utility.yul\":6451:6568   */\n      pop\n        /* \"#utility.yul\":6607:6609   */\n      0x20\n        /* \"#utility.yul\":6633:6686   */\n      tag_186\n        /* \"#utility.yul\":6678:6685   */\n      dup7\n        /* \"#utility.yul\":6669:6675   */\n      dup3\n        /* \"#utility.yul\":6658:6667   */\n      dup8\n        /* \"#utility.yul\":6654:6676   */\n      add\n        /* \"#utility.yul\":6633:6686   */\n      tag_88\n      jump\t// in\n    tag_186:\n        /* \"#utility.yul\":6623:6686   */\n      swap3\n      pop\n        /* \"#utility.yul\":6578:6696   */\n      pop\n        /* \"#utility.yul\":6735:6737   */\n      0x40\n        /* \"#utility.yul\":6761:6814   */\n      tag_187\n        /* \"#utility.yul\":6806:6813   */\n      dup7\n        /* \"#utility.yul\":6797:6803   */\n      dup3\n        /* \"#utility.yul\":6786:6795   */\n      dup8\n        /* \"#utility.yul\":6782:6804   */\n      add\n        /* \"#utility.yul\":6761:6814   */\n      tag_79\n      jump\t// in\n    tag_187:\n        /* \"#utility.yul\":6751:6814   */\n      swap2\n      pop\n        /* \"#utility.yul\":6706:6824   */\n      pop\n        /* \"#utility.yul\":6212:6831   */\n      swap3\n      pop\n      swap3\n      pop\n      swap3\n      jump\t// out\n        /* \"#utility.yul\":6837:7166   */\n    tag_27:\n        /* \"#utility.yul\":6896:6902   */\n      0x00\n        /* \"#utility.yul\":6945:6947   */\n      0x20\n        /* \"#utility.yul\":6933:6942   */\n      dup3\n        /* \"#utility.yul\":6924:6931   */\n      dup5\n        /* \"#utility.yul\":6920:6943   */\n      sub\n        /* \"#utility.yul\":6916:6948   */\n      slt\n        /* \"#utility.yul\":6913:7032   */\n      iszero\n      tag_189\n      jumpi\n        /* \"#utility.yul\":6951:7030   */\n      tag_190\n      tag_65\n      jump\t// in\n    tag_190:\n        /* \"#utility.yul\":6913:7032   */\n    tag_189:\n        /* \"#utility.yul\":7071:7072   */\n      0x00\n        /* \"#utility.yul\":7096:7149   */\n      tag_191\n        /* \"#utility.yul\":7141:7148   */\n      dup5\n        /* \"#utility.yul\":7132:7138   */\n      dup3\n        /* \"#utility.yul\":7121:7130   */\n      dup6\n        /* \"#utility.yul\":7117:7139   */\n      add\n        /* \"#utility.yul\":7096:7149   */\n      tag_79\n      jump\t// in\n    tag_191:\n        /* \"#utility.yul\":7086:7149   */\n      swap2\n      pop\n        /* \"#utility.yul\":7042:7159   */\n      pop\n        /* \"#utility.yul\":6837:7166   */\n      swap3\n      swap2\n      pop\n      pop\n      jump\t// out\n        /* \"#utility.yul\":7172:7290   */\n    tag_89:\n        /* \"#utility.yul\":7259:7283   */\n      tag_193\n        /* \"#utility.yul\":7277:7282   */\n      dup2\n        /* \"#utility.yul\":7259:7283   */\n      tag_86\n      jump\t// in\n    tag_193:\n        /* \"#utility.yul\":7254:7257   */\n      dup3\n        /* \"#utility.yul\":7247:7284   */\n      mstore\n        /* \"#utility.yul\":7172:7290   */\n      pop\n      pop\n      jump\t// out\n        /* \"#utility.yul\":7296:7628   */\n    tag_30:\n        /* \"#utility.yul\":7417:7421   */\n      0x00\n        /* \"#utility.yul\":7455:7457   */\n      0x40\n        /* \"#utility.yul\":7444:7453   */\n      dup3\n        /* \"#utility.yul\":7440:7458   */\n      add\n        /* \"#utility.yul\":7432:7458   */\n      swap1\n      pop\n        /* \"#utility.yul\":7468:7539   */\n      tag_195\n        /* \"#utility.yul\":7536:7537   */\n      0x00\n        /* \"#utility.yul\":7525:7534   */\n      dup4\n        /* \"#utility.yul\":7521:7538   */\n      add\n        /* \"#utility.yul\":7512:7518   */\n      dup6\n        /* \"#utility.yul\":7468:7539   */\n      tag_80\n      jump\t// in\n    tag_195:\n        /* \"#utility.yul\":7549:7621   */\n      tag_196\n        /* \"#utility.yul\":7617:7619   */\n      0x20\n        /* \"#utility.yul\":7606:7615   */\n      dup4\n        /* \"#utility.yul\":7602:7620   */\n      add\n        /* \"#utility.yul\":7593:7599   */\n      dup5\n        /* \"#utility.yul\":7549:7621   */\n      tag_89\n      jump\t// in\n    tag_196:\n        /* \"#utility.yul\":7296:7628   */\n      swap4\n      swap3\n      pop\n      pop\n      pop\n      jump\t// out\n        /* \"#utility.yul\":7634:8167   */\n    tag_35:\n        /* \"#utility.yul\":7803:7807   */\n      0x00\n        /* \"#utility.yul\":7841:7843   */\n      0x60\n        /* \"#utility.yul\":7830:7839   */\n      dup3\n        /* \"#utility.yul\":7826:7844   */\n      add\n        /* \"#utility.yul\":7818:7844   */\n      swap1\n      pop\n        /* \"#utility.yul\":7890:7899   */\n      dup2\n        /* \"#utility.yul\":7884:7888   */\n      dup2\n        /* \"#utility.yul\":7880:7900   */\n      sub\n        /* \"#utility.yul\":7876:7877   */\n      0x00\n        /* \"#utility.yul\":7865:7874   */\n      dup4\n        /* \"#utility.yul\":7861:7878   */\n      add\n        /* \"#utility.yul\":7854:7901   */\n      mstore\n        /* \"#utility.yul\":7918:7996   */\n      tag_198\n        /* \"#utility.yul\":7991:7995   */\n      dup2\n        /* \"#utility.yul\":7982:7988   */\n      dup7\n        /* \"#utility.yul\":7918:7996   */\n      tag_84\n      jump\t// in\n    tag_198:\n        /* \"#utility.yul\":7910:7996   */\n      swap1\n      pop\n        /* \"#utility.yul\":8006:8078   */\n      tag_199\n        /* \"#utility.yul\":8074:8076   */\n      0x20\n        /* \"#utility.yul\":8063:8072   */\n      dup4\n        /* \"#utility.yul\":8059:8077   */\n      add\n        /* \"#utility.yul\":8050:8056   */\n      dup6\n        /* \"#utility.yul\":8006:8078   */\n      tag_80\n      jump\t// in\n    tag_199:\n        /* \"#utility.yul\":8088:8160   */\n      tag_200\n        /* \"#utility.yul\":8156:8158   */\n      0x40\n        /* \"#utility.yul\":8145:8154   */\n      dup4\n        /* \"#utility.yul\":8141:8159   */\n      add\n        /* \"#utility.yul\":8132:8138   */\n      dup5\n        /* \"#utility.yul\":8088:8160   */\n      tag_89\n      jump\t// in\n    tag_200:\n        /* \"#utility.yul\":7634:8167   */\n      swap5\n      swap4\n      pop\n      pop\n      pop\n      pop\n      jump\t// out\n        /* \"#utility.yul\":8173:8502   */\n    tag_38:\n        /* \"#utility.yul\":8232:8238   */\n      0x00\n        /* \"#utility.yul\":8281:8283   */\n      0x20\n        /* \"#utility.yul\":8269:8278   */\n      dup3\n        /* \"#utility.yul\":8260:8267   */\n      dup5\n        /* \"#utility.yul\":8256:8279   */\n      sub\n        /* \"#utility.yul\":8252:8284   */\n      slt\n        /* \"#utility.yul\":8249:8368   */\n      iszero\n      tag_202\n      jumpi\n        /* \"#utility.yul\":8287:8366   */\n      tag_203\n      tag_65\n      jump\t// in\n    tag_203:\n        /* \"#utility.yul\":8249:8368   */\n    tag_202:\n        /* \"#utility.yul\":8407:8408   */\n      0x00\n        /* \"#utility.yul\":8432:8485   */\n      tag_204\n        /* \"#utility.yul\":8477:8484   */\n      dup5\n        /* \"#utility.yul\":8468:8474   */\n      dup3\n        /* \"#utility.yul\":8457:8466   */\n      dup6\n        /* \"#utility.yul\":8453:8475   */\n      add\n        /* \"#utility.yul\":8432:8485   */\n      tag_88\n      jump\t// in\n    tag_204:\n        /* \"#utility.yul\":8422:8485   */\n      swap2\n      pop\n        /* \"#utility.yul\":8378:8495   */\n      pop\n        /* \"#utility.yul\":8173:8502   */\n      swap3\n      swap2\n      pop\n      pop\n      jump\t// out\n        /* \"#utility.yul\":8508:8821   */\n    tag_41:\n        /* \"#utility.yul\":8621:8625   */\n      0x00\n        /* \"#utility.yul\":8659:8661   */\n      0x20\n        /* \"#utility.yul\":8648:8657   */\n      dup3\n        /* \"#utility.yul\":8644:8662   */\n      add\n        /* \"#utility.yul\":8636:8662   */\n      swap1\n      pop\n        /* \"#utility.yul\":8708:8717   */\n      dup2\n        /* \"#utility.yul\":8702:8706   */\n      dup2\n        /* \"#utility.yul\":8698:8718   */\n      sub\n        /* \"#utility.yul\":8694:8695   */\n      0x00\n        /* \"#utility.yul\":8683:8692   */\n      dup4\n        /* \"#utility.yul\":8679:8696   */\n      add\n        /* \"#utility.yul\":8672:8719   */\n      mstore\n        /* \"#utility.yul\":8736:8814   */\n      tag_206\n        /* \"#utility.yul\":8809:8813   */\n      dup2\n        /* \"#utility.yul\":8800:8806   */\n      dup5\n        /* \"#utility.yul\":8736:8814   */\n      tag_84\n      jump\t// in\n    tag_206:\n        /* \"#utility.yul\":8728:8814   */\n      swap1\n      pop\n        /* \"#utility.yul\":8508:8821   */\n      swap3\n      swap2\n      pop\n      pop\n      jump\t// out\n        /* \"#utility.yul\":8827:9007   */\n    tag_90:\n        /* \"#utility.yul\":8875:8952   */\n      0x4e487b7100000000000000000000000000000000000000000000000000000000\n        /* \"#utility.yul\":8872:8873   */\n      0x00\n        /* \"#utility.yul\":8865:8953   */\n      mstore\n        /* \"#utility.yul\":8972:8976   */\n      0x22\n        /* \"#utility.yul\":8969:8970   */\n      0x04\n        /* \"#utility.yul\":8962:8977   */\n      mstore\n        /* \"#utility.yul\":8996:9000   */\n      0x24\n        /* \"#utility.yul\":8993:8994   */\n      0x00\n        /* \"#utility.yul\":8986:9001   */\n      revert\n        /* \"#utility.yul\":9013:9333   */\n    tag_53:\n        /* \"#utility.yul\":9057:9063   */\n      0x00\n        /* \"#utility.yul\":9094:9095   */\n      0x02\n        /* \"#utility.yul\":9088:9092   */\n      dup3\n        /* \"#utility.yul\":9084:9096   */\n      div\n        /* \"#utility.yul\":9074:9096   */\n      swap1\n      pop\n        /* \"#utility.yul\":9141:9142   */\n      0x01\n        /* \"#utility.yul\":9135:9139   */\n      dup3\n        /* \"#utility.yul\":9131:9143   */\n      and\n        /* \"#utility.yul\":9162:9180   */\n      dup1\n        /* \"#utility.yul\":9152:9233   */\n      tag_209\n      jumpi\n        /* \"#utility.yul\":9218:9222   */\n      0x7f\n        /* \"#utility.yul\":9210:9216   */\n      dup3\n        /* \"#utility.yul\":9206:9223   */\n      and\n        /* \"#utility.yul\":9196:9223   */\n      swap2\n      pop\n        /* \"#utility.yul\":9152:9233   */\n    tag_209:\n        /* \"#utility.yul\":9280:9282   */\n      0x20\n        /* \"#utility.yul\":9272:9278   */\n      dup3\n        /* \"#utility.yul\":9269:9283   */\n      lt\n        /* \"#utility.yul\":9249:9267   */\n      dup2\n        /* \"#utility.yul\":9246:9284   */\n      sub\n        /* \"#utility.yul\":9243:9327   */\n      tag_210\n      jumpi\n        /* \"#utility.yul\":9299:9317   */\n      tag_211\n      tag_90\n      jump\t// in\n    tag_211:\n        /* \"#utility.yul\":9243:9327   */\n    tag_210:\n        /* \"#utility.yul\":9064:9333   */\n      pop\n        /* \"#utility.yul\":9013:9333   */\n      swap2\n      swap1\n      pop\n      jump\t// out\n        /* \"#utility.yul\":9339:9480   */\n    tag_91:\n        /* \"#utility.yul\":9388:9392   */\n      0x00\n        /* \"#utility.yul\":9411:9414   */\n      dup2\n        /* \"#utility.yul\":9403:9414   */\n      swap1\n      pop\n        /* \"#utility.yul\":9434:9437   */\n      dup2\n        /* \"#utility.yul\":9431:9432   */\n      0x00\n        /* \"#utility.yul\":9424:9438   */\n      mstore\n        /* \"#utility.yul\":9468:9472   */\n      0x20\n        /* \"#utility.yul\":9465:9466   */\n      0x00\n        /* \"#utility.yul\":9455:9473   */\n      keccak256\n        /* \"#utility.yul\":9447:9473   */\n      swap1\n      pop\n        /* \"#utility.yul\":9339:9480   */\n      swap2\n      swap1\n      pop\n      jump\t// out\n        /* \"#utility.yul\":9486:9579   */\n    tag_92:\n        /* \"#utility.yul\":9523:9529   */\n      0x00\n        /* \"#utility.yul\":9570:9572   */\n      0x20\n        /* \"#utility.yul\":9565:9567   */\n      0x1f\n        /* \"#utility.yul\":9558:9563   */\n      dup4\n        /* \"#utility.yul\":9554:9568   */\n      add\n        /* \"#utility.yul\":9550:9573   */\n      div\n        /* \"#utility.yul\":9540:9573   */\n      swap1\n      pop\n        /* \"#utility.yul\":9486:9579   */\n      swap2\n      swap1\n      pop\n      jump\t// out\n        /* \"#utility.yul\":9585:9692   */\n    tag_93:\n        /* \"#utility.yul\":9629:9637   */\n      0x00\n        /* \"#utility.yul\":9679:9684   */\n      dup3\n        /* \"#utility.yul\":9673:9677   */\n      dup3\n        /* \"#utility.yul\":9669:9685   */\n      shl\n        /* \"#utility.yul\":9648:9685   */\n      swap1\n      pop\n        /* \"#utility.yul\":9585:9692   */\n      swap3\n      swap2\n      pop\n      pop\n      jump\t// out\n        /* \"#utility.yul\":9698:10091   */\n    tag_94:\n        /* \"#utility.yul\":9767:9773   */\n      0x00\n        /* \"#utility.yul\":9817:9818   */\n      0x08\n        /* \"#utility.yul\":9805:9815   */\n      dup4\n        /* \"#utility.yul\":9801:9819   */\n      mul\n        /* \"#utility.yul\":9840:9937   */\n      tag_216\n        /* \"#utility.yul\":9870:9936   */\n      0xffffffffffffffffffffffffffffffffffffffffffffffffffffffffffffffff\n        /* \"#utility.yul\":9859:9868   */\n      dup3\n        /* \"#utility.yul\":9840:9937   */\n      tag_93\n      jump\t// in\n    tag_216:\n        /* \"#utility.yul\":9958:9997   */\n      tag_217\n        /* \"#utility.yul\":9988:9996   */\n      dup7\n        /* \"#utility.yul\":9977:9986   */\n      dup4\n        /* \"#utility.yul\":9958:9997   */\n      tag_93\n      jump\t// in\n    tag_217:\n        /* \"#utility.yul\":9946:9997   */\n      swap6\n      pop\n        /* \"#utility.yul\":10030:10034   */\n      dup1\n        /* \"#utility.yul\":10026:10035   */\n      not\n        /* \"#utility.yul\":10019:10024   */\n      dup5\n        /* \"#utility.yul\":10015:10036   */\n      and\n        /* \"#utility.yul\":10006:10036   */\n      swap4\n      pop\n        /* \"#utility.yul\":10079:10083   */\n      dup1\n        /* \"#utility.yul\":10069:10077   */\n      dup7\n        /* \"#utility.yul\":10065:10084   */\n      and\n        /* \"#utility.yul\":10058:10063   */\n      dup5\n        /* \"#utility.yul\":10055:10085   */\n      or\n        /* \"#utility.yul\":10045:10085   */\n      swap3\n      pop\n        /* \"#utility.yul\":9774:10091   */\n      pop\n      pop\n        /* \"#utility.yul\":9698:10091   */\n      swap4\n      swap3\n      pop\n      pop\n      pop\n      jump\t// out\n        /* \"#utility.yul\":10097:10157   */\n    tag_95:\n        /* \"#utility.yul\":10125:10128   */\n      0x00\n        /* \"#utility.yul\":10146:10151   */\n      dup2\n        /* \"#utility.yul\":10139:10151   */\n      swap1\n      pop\n        /* \"#utility.yul\":10097:10157   */\n      swap2\n      swap1\n      pop\n      jump\t// out\n        /* \"#utility.yul\":10163:10305   */\n    tag_96:\n        /* \"#utility.yul\":10213:10222   */\n      0x00\n        /* \"#utility.yul\":10246:10299   */\n      tag_220\n        /* \"#utility.yul\":10264:10298   */\n      tag_221\n        /* \"#utility.yul\":10273:10297   */\n      tag_222\n        /* \"#utility.yul\":10291:10296   */\n      dup5\n        /* \"#utility.yul\":10273:10297   */\n      tag_77\n      jump\t// in\n    tag_222:\n        /* \"#utility.yul\":10264:10298   */\n      tag_95\n      jump\t// in\n    tag_221:\n        /* \"#utility.yul\":10246:10299   */\n      tag_77\n      jump\t// in\n    tag_220:\n        /* \"#utility.yul\":10233:10299   */\n      swap1\n      pop\n        /* \"#utility.yul\":10163:10305   */\n      swap2\n      swap1\n      pop\n      jump\t// out\n        /* \"#utility.yul\":10311:10386   */\n    tag_97:\n        /* \"#utility.yul\":10354:10357   */\n      0x00\n        /* \"#utility.yul\":10375:10380   */\n      dup2\n        /* \"#utility.yul\":10368:10380   */\n      swap1\n      pop\n        /* \"#utility.yul\":10311:10386   */\n      swap2\n      swap1\n      pop\n      jump\t// out\n        /* \"#utility.yul\":10392:10661   */\n    tag_98:\n        /* \"#utility.yul\":10502:10541   */\n      tag_225\n        /* \"#utility.yul\":10533:10540   */\n      dup4\n        /* \"#utility.yul\":10502:10541   */\n      tag_96\n      jump\t// in\n    tag_225:\n        /* \"#utility.yul\":10563:10654   */\n      tag_226\n        /* \"#utility.yul\":10612:10653   */\n      tag_227\n        /* \"#utility.yul\":10636:10652   */\n      dup3\n        /* \"#utility.yul\":10612:10653   */\n      tag_97\n      jump\t// in\n    tag_227:\n        /* \"#utility.yul\":10604:10610   */\n      dup5\n        /* \"#utility.yul\":10597:10601   */\n      dup5\n        /* \"#utility.yul\":10591:10602   */\n      sload\n        /* \"#utility.yul\":10563:10654   */\n      tag_94\n      jump\t// in\n    tag_226:\n        /* \"#utility.yul\":10557:10561   */\n      dup3\n        /* \"#utility.yul\":10550:10655   */\n      sstore\n        /* \"#utility.yul\":10468:10661   */\n      pop\n        /* \"#utility.yul\":10392:10661   */\n      pop\n      pop\n      pop\n      jump\t// out\n        /* \"#utility.yul\":10667:10740   */\n    tag_99:\n        /* \"#utility.yul\":10712:10715   */\n      0x00\n        /* \"#utility.yul\":10667:10740   */\n      swap1\n      jump\t// out\n        /* \"#utility.yul\":10746:10935   */\n    tag_100:\n        /* \"#utility.yul\":10823:10855   */\n      tag_230\n      tag_99\n      jump\t// in\n    tag_230:\n        /* \"#utility.yul\":10864:10929   */\n      tag_231\n        /* \"#utility.yul\":10922:10928   */\n      dup2\n        /* \"#utility.yul\":10914:10920   */\n      dup5\n        /* \"#utility.yul\":10908:10912   */\n      dup5\n        /* \"#utility.yul\":10864:10929   */\n      tag_98\n      jump\t// in\n    tag_231:\n        /* \"#utility.yul\":10799:10935   */\n      pop\n        /* \"#utility.yul\":10746:10935   */\n      pop\n      pop\n      jump\t// out\n        /* \"#utility.yul\":10941:11127   */\n    tag_101:\n        /* \"#utility.yul\":11001:11121   */\n    tag_233:\n        /* \"#utility.yul\":11018:11021   */\n      dup2\n        /* \"#utility.yul\":11011:11016   */\n      dup2\n        /* \"#utility.yul\":11008:11022   */\n      lt\n        /* \"#utility.yul\":11001:11121   */\n      iszero\n      tag_235\n      jumpi\n        /* \"#utility.yul\":11072:11111   */\n      tag_236\n        /* \"#utility.yul\":11109:11110   */\n      0x00\n        /* \"#utility.yul\":11102:11107   */\n      dup3\n        /* \"#utility.yul\":11072:11111   */\n      tag_100\n      jump\t// in\n    tag_236:\n        /* \"#utility.yul\":11045:11046   */\n      0x01\n        /* \"#utility.yul\":11038:11043   */\n      dup2\n        /* \"#utility.yul\":11034:11047   */\n      add\n        /* \"#utility.yul\":11025:11047   */\n      swap1\n      pop\n        /* \"#utility.yul\":11001:11121   */\n      jump(tag_233)\n    tag_235:\n        /* \"#utility.yul\":10941:11127   */\n      pop\n      pop\n      jump\t// out\n        /* \"#utility.yul\":11133:11676   */\n    tag_102:\n        /* \"#utility.yul\":11234:11236   */\n      0x1f\n        /* \"#utility.yul\":11229:11232   */\n      dup3\n        /* \"#utility.yul\":11226:11237   */\n      gt\n        /* \"#utility.yul\":11223:11669   */\n      iszero\n      tag_238\n      jumpi\n        /* \"#utility.yul\":11268:11306   */\n      tag_239\n        /* \"#utility.yul\":11300:11305   */\n      dup2\n        /* \"#utility.yul\":11268:11306   */\n      tag_91\n      jump\t// in\n    tag_239:\n        /* \"#utility.yul\":11352:11381   */\n      tag_240\n        /* \"#utility.yul\":11370:11380   */\n      dup5\n        /* \"#utility.yul\":11352:11381   */\n      tag_92\n      jump\t// in\n    tag_240:\n        /* \"#utility.yul\":11342:11350   */\n      dup2\n        /* \"#utility.yul\":11338:11382   */\n      add\n        /* \"#utility.yul\":11535:11537   */\n      0x20\n        /* \"#utility.yul\":11523:11533   */\n      dup6\n        /* \"#utility.yul\":11520:11538   */\n      lt\n        /* \"#utility.yul\":11517:11566   */\n      iszero\n      tag_241\n      jumpi\n        /* \"#utility.yul\":11556:11564   */\n      dup2\n        /* \"#utility.yul\":11541:11564   */\n      swap1\n      pop\n        /* \"#utility.yul\":11517:11566   */\n    tag_241:\n        /* \"#utility.yul\":11579:11659   */\n      tag_242\n        /* \"#utility.yul\":11635:11657   */\n      tag_243\n        /* \"#utility.yul\":11653:11656   */\n      dup6\n        /* \"#utility.yul\":11635:11657   */\n      tag_92\n      jump\t// in\n    tag_243:\n        /* \"#utility.yul\":11625:11633   */\n      dup4\n        /* \"#utility.yul\":11621:11658   */\n      add\n        /* \"#utility.yul\":11608:11619   */\n      dup3\n        /* \"#utility.yul\":11579:11659   */\n      tag_101\n      jump\t// in\n    tag_242:\n        /* \"#utility.yul\":11238:11669   */\n      pop\n      pop\n        /* \"#utility.yul\":11223:11669   */\n    tag_238:\n        /* \"#utility.yul\":11133:11676   */\n      pop\n      pop\n      pop\n      jump\t// out\n        /* \"#utility.yul\":11682:11799   */\n    tag_103:\n        /* \"#utility.yul\":11736:11744   */\n      0x00\n        /* \"#utility.yul\":11786:11791   */\n      dup3\n        /* \"#utility.yul\":11780:11784   */\n      dup3\n        /* \"#utility.yul\":11776:11792   */\n      shr\n        /* \"#utility.yul\":11755:11792   */\n      swap1\n      pop\n        /* \"#utility.yul\":11682:11799   */\n      swap3\n      swap2\n      pop\n      pop\n      jump\t// out\n        /* \"#utility.yul\":11805:11974   */\n    tag_104:\n        /* \"#utility.yul\":11849:11855   */\n      0x00\n        /* \"#utility.yul\":11882:11933   */\n      tag_246\n        /* \"#utility.yul\":11930:11931   */\n      0x00\n        /* \"#utility.yul\":11926:11932   */\n      not\n        /* \"#utility.yul\":11918:11923   */\n      dup5\n        /* \"#utility.yul\":11915:11916   */\n      0x08\n        /* \"#utility.yul\":11911:11924   */\n      mul\n        /* \"#utility.yul\":11882:11933   */\n      tag_103\n      jump\t// in\n    tag_246:\n        /* \"#utility.yul\":11878:11934   */\n      not\n        /* \"#utility.yul\":11963:11967   */\n      dup1\n        /* \"#utility.yul\":11957:11961   */\n      dup4\n        /* \"#utility.yul\":11953:11968   */\n      and\n        /* \"#utility.yul\":11943:11968   */\n      swap2\n      pop\n        /* \"#utility.yul\":11856:11974   */\n      pop\n        /* \"#utility.yul\":11805:11974   */\n      swap3\n      swap2\n      pop\n      pop\n      jump\t// out\n        /* \"#utility.yul\":11979:12274   */\n    tag_105:\n        /* \"#utility.yul\":12055:12059   */\n      0x00\n        /* \"#utility.yul\":12201:12230   */\n      tag_248\n        /* \"#utility.yul\":12226:12229   */\n      dup4\n        /* \"#utility.yul\":12220:12224   */\n      dup4\n        /* \"#utility.yul\":12201:12230   */\n      tag_104\n      jump\t// in\n    tag_248:\n        /* \"#utility.yul\":12193:12230   */\n      swap2\n      pop\n        /* \"#utility.yul\":12263:12266   */\n      dup3\n        /* \"#utility.yul\":12260:12261   */\n      0x02\n        /* \"#utility.yul\":12256:12267   */\n      mul\n        /* \"#utility.yul\":12250:12254   */\n      dup3\n        /* \"#utility.yul\":12247:12268   */\n      or\n        /* \"#utility.yul\":12239:12268   */\n      swap1\n      pop\n        /* \"#utility.yul\":11979:12274   */\n      swap3\n      swap2\n      pop\n      pop\n      jump\t// out\n        /* \"#utility.yul\":12279:13674   */\n    tag_46:\n        /* \"#utility.yul\":12396:12433   */\n      tag_250\n        /* \"#utility.yul\":12429:12432   */\n      dup3\n        /* \"#utility.yul\":12396:12433   */\n      tag_81\n      jump\t// in\n    tag_250:\n        /* \"#utility.yul\":12498:12516   */\n      0xffffffffffffffff\n        /* \"#utility.yul\":12490:12496   */\n      dup2\n        /* \"#utility.yul\":12487:12517   */\n      gt\n        /* \"#utility.yul\":12484:12540   */\n      iszero\n      tag_251\n      jumpi\n        /* \"#utility.yul\":12520:12538   */\n      tag_252\n      tag_70\n      jump\t// in\n    tag_252:\n        /* \"#utility.yul\":12484:12540   */\n    tag_251:\n        /* \"#utility.yul\":12564:12602   */\n      tag_253\n        /* \"#utility.yul\":12596:12600   */\n      dup3\n        /* \"#utility.yul\":12590:12601   */\n      sload\n        /* \"#utility.yul\":12564:12602   */\n      tag_53\n      jump\t// in\n    tag_253:\n        /* \"#utility.yul\":12649:12716   */\n      tag_254\n        /* \"#utility.yul\":12709:12715   */\n      dup3\n        /* \"#utility.yul\":12701:12707   */\n      dup3\n        /* \"#utility.yul\":12695:12699   */\n      dup6\n        /* \"#utility.yul\":12649:12716   */\n      tag_102\n      jump\t// in\n    tag_254:\n        /* \"#utility.yul\":12743:12744   */\n      0x00\n        /* \"#utility.yul\":12767:12771   */\n      0x20\n        /* \"#utility.yul\":12754:12771   */\n      swap1\n      pop\n        /* \"#utility.yul\":12799:12801   */\n      0x1f\n        /* \"#utility.yul\":12791:12797   */\n      dup4\n        /* \"#utility.yul\":12788:12802   */\n      gt\n        /* \"#utility.yul\":12816:12817   */\n      0x01\n        /* \"#utility.yul\":12811:13429   */\n      dup2\n      eq\n      tag_256\n      jumpi\n        /* \"#utility.yul\":13473:13474   */\n      0x00\n        /* \"#utility.yul\":13490:13496   */\n      dup5\n        /* \"#utility.yul\":13487:13564   */\n      iszero\n      tag_257\n      jumpi\n        /* \"#utility.yul\":13539:13548   */\n      dup3\n        /* \"#utility.yul\":13534:13537   */\n      dup8\n        /* \"#utility.yul\":13530:13549   */\n      add\n        /* \"#utility.yul\":13524:13550   */\n      mload\n        /* \"#utility.yul\":13515:13550   */\n      swap1\n      pop\n        /* \"#utility.yul\":13487:13564   */\n    tag_257:\n        /* \"#utility.yul\":13590:13657   */\n      tag_258\n        /* \"#utility.yul\":13650:13656   */\n      dup6\n        /* \"#utility.yul\":13643:13648   */\n      dup3\n        /* \"#utility.yul\":13590:13657   */\n      tag_105\n      jump\t// in\n    tag_258:\n        /* \"#utility.yul\":13584:13588   */\n      dup7\n        /* \"#utility.yul\":13577:13658   */\n      sstore\n        /* \"#utility.yul\":13446:13668   */\n      pop\n        /* \"#utility.yul\":12781:13668   */\n      jump(tag_255)\n        /* \"#utility.yul\":12811:13429   */\n    tag_256:\n        /* \"#utility.yul\":12863:12867   */\n      0x1f\n        /* \"#utility.yul\":12859:12868   */\n      not\n        /* \"#utility.yul\":12851:12857   */\n      dup5\n        /* \"#utility.yul\":12847:12869   */\n      and\n        /* \"#utility.yul\":12897:12934   */\n      tag_259\n        /* \"#utility.yul\":12929:12933   */\n      dup7\n        /* \"#utility.yul\":12897:12934   */\n      tag_91\n      jump\t// in\n    tag_259:\n        /* \"#utility.yul\":12956:12957   */\n      0x00\n        /* \"#utility.yul\":12970:13178   */\n    tag_260:\n        /* \"#utility.yul\":12984:12991   */\n      dup3\n        /* \"#utility.yul\":12981:12982   */\n      dup2\n        /* \"#utility.yul\":12978:12992   */\n      lt\n        /* \"#utility.yul\":12970:13178   */\n      iszero\n      tag_262\n      jumpi\n        /* \"#utility.yul\":13063:13072   */\n      dup5\n        /* \"#utility.yul\":13058:13061   */\n      dup10\n        /* \"#utility.yul\":13054:13073   */\n      add\n        /* \"#utility.yul\":13048:13074   */\n      mload\n        /* \"#utility.yul\":13040:13046   */\n      dup3\n        /* \"#utility.yul\":13033:13075   */\n      sstore\n        /* \"#utility.yul\":13114:13115   */\n      0x01\n        /* \"#utility.yul\":13106:13112   */\n      dup3\n        /* \"#utility.yul\":13102:13116   */\n      add\n        /* \"#utility.yul\":13092:13116   */\n      swap2\n      pop\n        /* \"#utility.yul\":13161:13163   */\n      0x20\n        /* \"#utility.yul\":13150:13159   */\n      dup6\n        /* \"#utility.yul\":13146:13164   */\n      add\n        /* \"#utility.yul\":13133:13164   */\n      swap5\n      pop\n        /* \"#utility.yul\":13007:13011   */\n      0x20\n        /* \"#utility.yul\":13004:13005   */\n      dup2\n        /* \"#utility.yul\":13000:13012   */\n      add\n        /* \"#utility.yul\":12995:13012   */\n      swap1\n      pop\n        /* \"#utility.yul\":12970:13178   */\n      jump(tag_260)\n    tag_262:\n        /* \"#utility.yul\":13206:13212   */\n      dup7\n        /* \"#utility.yul\":13197:13204   */\n      dup4\n        /* \"#utility.yul\":13194:13213   */\n      lt\n        /* \"#utility.yul\":13191:13370   */\n      iszero\n      tag_263\n      jumpi\n        /* \"#utility.yul\":13264:13273   */\n      dup5\n        /* \"#utility.yul\":13259:13262   */\n      dup10\n        /* \"#utility.yul\":13255:13274   */\n      add\n        /* \"#utility.yul\":13249:13275   */\n      mload\n        /* \"#utility.yul\":13307:13355   */\n      tag_264\n        /* \"#utility.yul\":13349:13353   */\n      0x1f\n        /* \"#utility.yul\":13341:13347   */\n      dup10\n        /* \"#utility.yul\":13337:13354   */\n      and\n        /* \"#utility.yul\":13326:13335   */\n      dup3\n        /* \"#utility.yul\":13307:13355   */\n      tag_104\n      jump\t// in\n    tag_264:\n        /* \"#utility.yul\":13299:13305   */\n      dup4\n        /* \"#utility.yul\":13292:13356   */\n      sstore\n        /* \"#utility.yul\":13214:13370   */\n      pop\n        /* \"#utility.yul\":13191:13370   */\n    tag_263:\n        /* \"#utility.yul\":13416:13417   */\n      0x01\n        /* \"#utility.yul\":13412:13413   */\n      0x02\n        /* \"#utility.yul\":13404:13410   */\n      dup9\n        /* \"#utility.yul\":13400:13414   */\n      mul\n        /* \"#utility.yul\":13396:13418   */\n      add\n        /* \"#utility.yul\":13390:13394   */\n      dup9\n        /* \"#utility.yul\":13383:13419   */\n      sstore\n        /* \"#utility.yul\":12818:13429   */\n      pop\n      pop\n      pop\n        /* \"#utility.yul\":12781:13668   */\n    tag_255:\n      pop\n        /* \"#utility.yul\":12371:13674   */\n      pop\n      pop\n      pop\n        /* \"#utility.yul\":12279:13674   */\n      pop\n      pop\n      jump\t// out\n        /* \"#utility.yul\":13680:13860   */\n    tag_106:\n        /* \"#utility.yul\":13728:13805   */\n      0x4e487b7100000000000000000000000000000000000000000000000000000000\n        /* \"#utility.yul\":13725:13726   */\n      0x00\n        /* \"#utility.yul\":13718:13806   */\n      mstore\n        /* \"#utility.yul\":13825:13829   */\n      0x11\n        /* \"#utility.yul\":13822:13823   */\n      0x04\n        /* \"#utility.yul\":13815:13830   */\n      mstore\n        /* \"#utility.yul\":13849:13853   */\n      0x24\n        /* \"#utility.yul\":13846:13847   */\n      0x00\n        /* \"#utility.yul\":13839:13854   */\n      revert\n        /* \"#utility.yul\":13866:14099   */\n    tag_49:\n        /* \"#utility.yul\":13905:13908   */\n      0x00\n        /* \"#utility.yul\":13928:13952   */\n      tag_267\n        /* \"#utility.yul\":13946:13951   */\n      dup3\n        /* \"#utility.yul\":13928:13952   */\n      tag_77\n      jump\t// in\n    tag_267:\n        /* \"#utility.yul\":13919:13952   */\n      swap2\n      pop\n        /* \"#utility.yul\":13974:14040   */\n      0xffffffffffffffffffffffffffffffffffffffffffffffffffffffffffffffff\n        /* \"#utility.yul\":13967:13972   */\n      dup3\n        /* \"#utility.yul\":13964:14041   */\n      sub\n        /* \"#utility.yul\":13961:14064   */\n      tag_268\n      jumpi\n        /* \"#utility.yul\":14044:14062   */\n      tag_269\n      tag_106\n      jump\t// in\n    tag_269:\n        /* \"#utility.yul\":13961:14064   */\n    tag_268:\n        /* \"#utility.yul\":14091:14092   */\n      0x01\n        /* \"#utility.yul\":14084:14089   */\n      dup3\n        /* \"#utility.yul\":14080:14093   */\n      add\n        /* \"#utility.yul\":14073:14093   */\n      swap1\n      pop\n        /* \"#utility.yul\":13866:14099   */\n      swap2\n      swap1\n      pop\n      jump\t// out\n\n    auxdata: 0xa26469706673582212205c4baf72f23cab4b56499191859e69093bfd7bfd6e9dbb4445ea83bda229a28a64736f6c634300080f0033\n}\n",
				"bytecode": {
					"linkReferences": {},
					"object": "6080604052600060035534801561001557600080fd5b50610d3f806100256000396000f3fe608060405234801561001057600080fd5b506004361061007d5760003560e01c806332c847651161005b57806332c84765146100ec5780634b4a80ba1461011d57806399b956a01461014f578063f4e5d5991461017f5761007d565b806318b8275a146100825780631bc7ffe91461009e57806325503b4f146100d0575b600080fd5b61009c60048036038101906100979190610661565b610189565b005b6100b860048036038101906100b391906106e0565b6101d8565b6040516100c7939291906107d3565b60405180910390f35b6100ea60048036038101906100e5919061086f565b6102b8565b005b610106600480360381019061010191906108c2565b61034f565b6040516101149291906108fe565b60405180910390f35b610137600480360381019061013291906108c2565b610393565b60405161014693929190610927565b60405180910390f35b61016960048036038101906101649190610965565b610465565b6040516101769190610992565b60405180910390f35b610187610505565b005b806000803373ffffffffffffffffffffffffffffffffffffffff1673ffffffffffffffffffffffffffffffffffffffff16815260200190815260200160002090816101d49190610bc0565b5050565b600060606000600360008154809291906101f190610cc1565b919050555060405180606001604052808681526020018581526020013373ffffffffffffffffffffffffffffffffffffffff1681525060016000600354815260200190815260200160002060008201518160000190816102519190610bc0565b506020820151816001015560408201518160020160006101000a81548173ffffffffffffffffffffffffffffffffffffffff021916908373ffffffffffffffffffffffffffffffffffffffff16021790555090505060035485859250925092509250925092565b60405180604001604052808281526020018373ffffffffffffffffffffffffffffffffffffffff16815250600260008581526020019081526020016000206000820151816000015560208201518160010160006101000a81548173ffffffffffffffffffffffffffffffffffffffff021916908373ffffffffffffffffffffffffffffffffffffffff160217905550905050505050565b60026020528060005260406000206000915090508060000154908060010160009054906101000a900473ffffffffffffffffffffffffffffffffffffffff16905082565b60016020528060005260406000206000915090508060000180546103b6906109e3565b80601f01602080910402602001604051908101604052809291908181526020018280546103e2906109e3565b801561042f5780601f106104045761010080835404028352916020019161042f565b820191906000526020600020905b81548152906001019060200180831161041257829003601f168201915b5050505050908060010154908060020160009054906101000a900473ffffffffffffffffffffffffffffffffffffffff16905083565b60006020528060005260406000206000915090508054610484906109e3565b80601f01602080910402602001604051908101604052809291908181526020018280546104b0906109e3565b80156104fd5780601f106104d2576101008083540402835291602001916104fd565b820191906000526020600020905b8154815290600101906020018083116104e057829003601f168201915b505050505081565b565b6000604051905090565b600080fd5b600080fd5b600080fd5b600080fd5b6000601f19601f8301169050919050565b7f4e487b7100000000000000000000000000000000000000000000000000000000600052604160045260246000fd5b61056e82610525565b810181811067ffffffffffffffff8211171561058d5761058c610536565b5b80604052505050565b60006105a0610507565b90506105ac8282610565565b919050565b600067ffffffffffffffff8211156105cc576105cb610536565b5b6105d582610525565b9050602081019050919050565b82818337600083830152505050565b60006106046105ff846105b1565b610596565b9050828152602081018484840111156106205761061f610520565b5b61062b8482856105e2565b509392505050565b600082601f8301126106485761064761051b565b5b81356106588482602086016105f1565b91505092915050565b60006020828403121561067757610676610511565b5b600082013567ffffffffffffffff81111561069557610694610516565b5b6106a184828501610633565b91505092915050565b6000819050919050565b6106bd816106aa565b81146106c857600080fd5b50565b6000813590506106da816106b4565b92915050565b600080604083850312156106f7576106f6610511565b5b600083013567ffffffffffffffff81111561071557610714610516565b5b61072185828601610633565b9250506020610732858286016106cb565b9150509250929050565b610745816106aa565b82525050565b600081519050919050565b600082825260208201905092915050565b60005b8381101561078557808201518184015260208101905061076a565b83811115610794576000848401525b50505050565b60006107a58261074b565b6107af8185610756565b93506107bf818560208601610767565b6107c881610525565b840191505092915050565b60006060820190506107e8600083018661073c565b81810360208301526107fa818561079a565b9050610809604083018461073c565b949350505050565b600073ffffffffffffffffffffffffffffffffffffffff82169050919050565b600061083c82610811565b9050919050565b61084c81610831565b811461085757600080fd5b50565b60008135905061086981610843565b92915050565b60008060006060848603121561088857610887610511565b5b6000610896868287016106cb565b93505060206108a78682870161085a565b92505060406108b8868287016106cb565b9150509250925092565b6000602082840312156108d8576108d7610511565b5b60006108e6848285016106cb565b91505092915050565b6108f881610831565b82525050565b6000604082019050610913600083018561073c565b61092060208301846108ef565b9392505050565b60006060820190508181036000830152610941818661079a565b9050610950602083018561073c565b61095d60408301846108ef565b949350505050565b60006020828403121561097b5761097a610511565b5b60006109898482850161085a565b91505092915050565b600060208201905081810360008301526109ac818461079a565b905092915050565b7f4e487b7100000000000000000000000000000000000000000000000000000000600052602260045260246000fd5b600060028204905060018216806109fb57607f821691505b602082108103610a0e57610a0d6109b4565b5b50919050565b60008190508160005260206000209050919050565b60006020601f8301049050919050565b600082821b905092915050565b600060088302610a767fffffffffffffffffffffffffffffffffffffffffffffffffffffffffffffffff82610a39565b610a808683610a39565b95508019841693508086168417925050509392505050565b6000819050919050565b6000610abd610ab8610ab3846106aa565b610a98565b6106aa565b9050919050565b6000819050919050565b610ad783610aa2565b610aeb610ae382610ac4565b848454610a46565b825550505050565b600090565b610b00610af3565b610b0b818484610ace565b505050565b5b81811015610b2f57610b24600082610af8565b600181019050610b11565b5050565b601f821115610b7457610b4581610a14565b610b4e84610a29565b81016020851015610b5d578190505b610b71610b6985610a29565b830182610b10565b50505b505050565b600082821c905092915050565b6000610b9760001984600802610b79565b1980831691505092915050565b6000610bb08383610b86565b9150826002028217905092915050565b610bc98261074b565b67ffffffffffffffff811115610be257610be1610536565b5b610bec82546109e3565b610bf7828285610b33565b600060209050601f831160018114610c2a5760008415610c18578287015190505b610c228582610ba4565b865550610c8a565b601f198416610c3886610a14565b60005b82811015610c6057848901518255600182019150602085019450602081019050610c3b565b86831015610c7d5784890151610c79601f891682610b86565b8355505b6001600288020188555050505b505050505050565b7f4e487b7100000000000000000000000000000000000000000000000000000000600052601160045260246000fd5b6000610ccc826106aa565b91507fffffffffffffffffffffffffffffffffffffffffffffffffffffffffffffffff8203610cfe57610cfd610c92565b5b60018201905091905056fea26469706673582212205c4baf72f23cab4b56499191859e69093bfd7bfd6e9dbb4445ea83bda229a28a64736f6c634300080f0033",
					"opcodes": "PUSH1 0x80 PUSH1 0x40 MSTORE PUSH1 0x0 PUSH1 0x3 SSTORE CALLVALUE DUP1 ISZERO PUSH2 0x15 JUMPI PUSH1 0x0 DUP1 REVERT JUMPDEST POP PUSH2 0xD3F DUP1 PUSH2 0x25 PUSH1 0x0 CODECOPY PUSH1 0x0 RETURN INVALID PUSH1 0x80 PUSH1 0x40 MSTORE CALLVALUE DUP1 ISZERO PUSH2 0x10 JUMPI PUSH1 0x0 DUP1 REVERT JUMPDEST POP PUSH1 0x4 CALLDATASIZE LT PUSH2 0x7D JUMPI PUSH1 0x0 CALLDATALOAD PUSH1 0xE0 SHR DUP1 PUSH4 0x32C84765 GT PUSH2 0x5B JUMPI DUP1 PUSH4 0x32C84765 EQ PUSH2 0xEC JUMPI DUP1 PUSH4 0x4B4A80BA EQ PUSH2 0x11D JUMPI DUP1 PUSH4 0x99B956A0 EQ PUSH2 0x14F JUMPI DUP1 PUSH4 0xF4E5D599 EQ PUSH2 0x17F JUMPI PUSH2 0x7D JUMP JUMPDEST DUP1 PUSH4 0x18B8275A EQ PUSH2 0x82 JUMPI DUP1 PUSH4 0x1BC7FFE9 EQ PUSH2 0x9E JUMPI DUP1 PUSH4 0x25503B4F EQ PUSH2 0xD0 JUMPI JUMPDEST PUSH1 0x0 DUP1 REVERT JUMPDEST PUSH2 0x9C PUSH1 0x4 DUP1 CALLDATASIZE SUB DUP2 ADD SWAP1 PUSH2 0x97 SWAP2 SWAP1 PUSH2 0x661 JUMP JUMPDEST PUSH2 0x189 JUMP JUMPDEST STOP JUMPDEST PUSH2 0xB8 PUSH1 0x4 DUP1 CALLDATASIZE SUB DUP2 ADD SWAP1 PUSH2 0xB3 SWAP2 SWAP1 PUSH2 0x6E0 JUMP JUMPDEST PUSH2 0x1D8 JUMP JUMPDEST PUSH1 0x40 MLOAD PUSH2 0xC7 SWAP4 SWAP3 SWAP2 SWAP1 PUSH2 0x7D3 JUMP JUMPDEST PUSH1 0x40 MLOAD DUP1 SWAP2 SUB SWAP1 RETURN JUMPDEST PUSH2 0xEA PUSH1 0x4 DUP1 CALLDATASIZE SUB DUP2 ADD SWAP1 PUSH2 0xE5 SWAP2 SWAP1 PUSH2 0x86F JUMP JUMPDEST PUSH2 0x2B8 JUMP JUMPDEST STOP JUMPDEST PUSH2 0x106 PUSH1 0x4 DUP1 CALLDATASIZE SUB DUP2 ADD SWAP1 PUSH2 0x101 SWAP2 SWAP1 PUSH2 0x8C2 JUMP JUMPDEST PUSH2 0x34F JUMP JUMPDEST PUSH1 0x40 MLOAD PUSH2 0x114 SWAP3 SWAP2 SWAP1 PUSH2 0x8FE JUMP JUMPDEST PUSH1 0x40 MLOAD DUP1 SWAP2 SUB SWAP1 RETURN JUMPDEST PUSH2 0x137 PUSH1 0x4 DUP1 CALLDATASIZE SUB DUP2 ADD SWAP1 PUSH2 0x132 SWAP2 SWAP1 PUSH2 0x8C2 JUMP JUMPDEST PUSH2 0x393 JUMP JUMPDEST PUSH1 0x40 MLOAD PUSH2 0x146 SWAP4 SWAP3 SWAP2 SWAP1 PUSH2 0x927 JUMP JUMPDEST PUSH1 0x40 MLOAD DUP1 SWAP2 SUB SWAP1 RETURN JUMPDEST PUSH2 0x169 PUSH1 0x4 DUP1 CALLDATASIZE SUB DUP2 ADD SWAP1 PUSH2 0x164 SWAP2 SWAP1 PUSH2 0x965 JUMP JUMPDEST PUSH2 0x465 JUMP JUMPDEST PUSH1 0x40 MLOAD PUSH2 0x176 SWAP2 SWAP1 PUSH2 0x992 JUMP JUMPDEST PUSH1 0x40 MLOAD DUP1 SWAP2 SUB SWAP1 RETURN JUMPDEST PUSH2 0x187 PUSH2 0x505 JUMP JUMPDEST STOP JUMPDEST DUP1 PUSH1 0x0 DUP1 CALLER PUSH20 0xFFFFFFFFFFFFFFFFFFFFFFFFFFFFFFFFFFFFFFFF AND PUSH20 0xFFFFFFFFFFFFFFFFFFFFFFFFFFFFFFFFFFFFFFFF AND DUP2 MSTORE PUSH1 0x20 ADD SWAP1 DUP2 MSTORE PUSH1 0x20 ADD PUSH1 0x0 KECCAK256 SWAP1 DUP2 PUSH2 0x1D4 SWAP2 SWAP1 PUSH2 0xBC0 JUMP JUMPDEST POP POP JUMP JUMPDEST PUSH1 0x0 PUSH1 0x60 PUSH1 0x0 PUSH1 0x3 PUSH1 0x0 DUP2 SLOAD DUP1 SWAP3 SWAP2 SWAP1 PUSH2 0x1F1 SWAP1 PUSH2 0xCC1 JUMP JUMPDEST SWAP2 SWAP1 POP SSTORE POP PUSH1 0x40 MLOAD DUP1 PUSH1 0x60 ADD PUSH1 0x40 MSTORE DUP1 DUP7 DUP2 MSTORE PUSH1 0x20 ADD DUP6 DUP2 MSTORE PUSH1 0x20 ADD CALLER PUSH20 0xFFFFFFFFFFFFFFFFFFFFFFFFFFFFFFFFFFFFFFFF AND DUP2 MSTORE POP PUSH1 0x1 PUSH1 0x0 PUSH1 0x3 SLOAD DUP2 MSTORE PUSH1 0x20 ADD SWAP1 DUP2 MSTORE PUSH1 0x20 ADD PUSH1 0x0 KECCAK256 PUSH1 0x0 DUP3 ADD MLOAD DUP2 PUSH1 0x0 ADD SWAP1 DUP2 PUSH2 0x251 SWAP2 SWAP1 PUSH2 0xBC0 JUMP JUMPDEST POP PUSH1 0x20 DUP3 ADD MLOAD DUP2 PUSH1 0x1 ADD SSTORE PUSH1 0x40 DUP3 ADD MLOAD DUP2 PUSH1 0x2 ADD PUSH1 0x0 PUSH2 0x100 EXP DUP2 SLOAD DUP2 PUSH20 0xFFFFFFFFFFFFFFFFFFFFFFFFFFFFFFFFFFFFFFFF MUL NOT AND SWAP1 DUP4 PUSH20 0xFFFFFFFFFFFFFFFFFFFFFFFFFFFFFFFFFFFFFFFF AND MUL OR SWAP1 SSTORE POP SWAP1 POP POP PUSH1 0x3 SLOAD DUP6 DUP6 SWAP3 POP SWAP3 POP SWAP3 POP SWAP3 POP SWAP3 POP SWAP3 JUMP JUMPDEST PUSH1 0x40 MLOAD DUP1 PUSH1 0x40 ADD PUSH1 0x40 MSTORE DUP1 DUP3 DUP2 MSTORE PUSH1 0x20 ADD DUP4 PUSH20 0xFFFFFFFFFFFFFFFFFFFFFFFFFFFFFFFFFFFFFFFF AND DUP2 MSTORE POP PUSH1 0x2 PUSH1 0x0 DUP6 DUP2 MSTORE PUSH1 0x20 ADD SWAP1 DUP2 MSTORE PUSH1 0x20 ADD PUSH1 0x0 KECCAK256 PUSH1 0x0 DUP3 ADD MLOAD DUP2 PUSH1 0x0 ADD SSTORE PUSH1 0x20 DUP3 ADD MLOAD DUP2 PUSH1 0x1 ADD PUSH1 0x0 PUSH2 0x100 EXP DUP2 SLOAD DUP2 PUSH20 0xFFFFFFFFFFFFFFFFFFFFFFFFFFFFFFFFFFFFFFFF MUL NOT AND SWAP1 DUP4 PUSH20 0xFFFFFFFFFFFFFFFFFFFFFFFFFFFFFFFFFFFFFFFF AND MUL OR SWAP1 SSTORE POP SWAP1 POP POP POP POP POP JUMP JUMPDEST PUSH1 0x2 PUSH1 0x20 MSTORE DUP1 PUSH1 0x0 MSTORE PUSH1 0x40 PUSH1 0x0 KECCAK256 PUSH1 0x0 SWAP2 POP SWAP1 POP DUP1 PUSH1 0x0 ADD SLOAD SWAP1 DUP1 PUSH1 0x1 ADD PUSH1 0x0 SWAP1 SLOAD SWAP1 PUSH2 0x100 EXP SWAP1 DIV PUSH20 0xFFFFFFFFFFFFFFFFFFFFFFFFFFFFFFFFFFFFFFFF AND SWAP1 POP DUP3 JUMP JUMPDEST PUSH1 0x1 PUSH1 0x20 MSTORE DUP1 PUSH1 0x0 MSTORE PUSH1 0x40 PUSH1 0x0 KECCAK256 PUSH1 0x0 SWAP2 POP SWAP1 POP DUP1 PUSH1 0x0 ADD DUP1 SLOAD PUSH2 0x3B6 SWAP1 PUSH2 0x9E3 JUMP JUMPDEST DUP1 PUSH1 0x1F ADD PUSH1 0x20 DUP1 SWAP2 DIV MUL PUSH1 0x20 ADD PUSH1 0x40 MLOAD SWAP1 DUP2 ADD PUSH1 0x40 MSTORE DUP1 SWAP3 SWAP2 SWAP1 DUP2 DUP2 MSTORE PUSH1 0x20 ADD DUP3 DUP1 SLOAD PUSH2 0x3E2 SWAP1 PUSH2 0x9E3 JUMP JUMPDEST DUP1 ISZERO PUSH2 0x42F JUMPI DUP1 PUSH1 0x1F LT PUSH2 0x404 JUMPI PUSH2 0x100 DUP1 DUP4 SLOAD DIV MUL DUP4 MSTORE SWAP2 PUSH1 0x20 ADD SWAP2 PUSH2 0x42F JUMP JUMPDEST DUP3 ADD SWAP2 SWAP1 PUSH1 0x0 MSTORE PUSH1 0x20 PUSH1 0x0 KECCAK256 SWAP1 JUMPDEST DUP2 SLOAD DUP2 MSTORE SWAP1 PUSH1 0x1 ADD SWAP1 PUSH1 0x20 ADD DUP1 DUP4 GT PUSH2 0x412 JUMPI DUP3 SWAP1 SUB PUSH1 0x1F AND DUP3 ADD SWAP2 JUMPDEST POP POP POP POP POP SWAP1 DUP1 PUSH1 0x1 ADD SLOAD SWAP1 DUP1 PUSH1 0x2 ADD PUSH1 0x0 SWAP1 SLOAD SWAP1 PUSH2 0x100 EXP SWAP1 DIV PUSH20 0xFFFFFFFFFFFFFFFFFFFFFFFFFFFFFFFFFFFFFFFF AND SWAP1 POP DUP4 JUMP JUMPDEST PUSH1 0x0 PUSH1 0x20 MSTORE DUP1 PUSH1 0x0 MSTORE PUSH1 0x40 PUSH1 0x0 KECCAK256 PUSH1 0x0 SWAP2 POP SWAP1 POP DUP1 SLOAD PUSH2 0x484 SWAP1 PUSH2 0x9E3 JUMP JUMPDEST DUP1 PUSH1 0x1F ADD PUSH1 0x20 DUP1 SWAP2 DIV MUL PUSH1 0x20 ADD PUSH1 0x40 MLOAD SWAP1 DUP2 ADD PUSH1 0x40 MSTORE DUP1 SWAP3 SWAP2 SWAP1 DUP2 DUP2 MSTORE PUSH1 0x20 ADD DUP3 DUP1 SLOAD PUSH2 0x4B0 SWAP1 PUSH2 0x9E3 JUMP JUMPDEST DUP1 ISZERO PUSH2 0x4FD JUMPI DUP1 PUSH1 0x1F LT PUSH2 0x4D2 JUMPI PUSH2 0x100 DUP1 DUP4 SLOAD DIV MUL DUP4 MSTORE SWAP2 PUSH1 0x20 ADD SWAP2 PUSH2 0x4FD JUMP JUMPDEST DUP3 ADD SWAP2 SWAP1 PUSH1 0x0 MSTORE PUSH1 0x20 PUSH1 0x0 KECCAK256 SWAP1 JUMPDEST DUP2 SLOAD DUP2 MSTORE SWAP1 PUSH1 0x1 ADD SWAP1 PUSH1 0x20 ADD DUP1 DUP4 GT PUSH2 0x4E0 JUMPI DUP3 SWAP1 SUB PUSH1 0x1F AND DUP3 ADD SWAP2 JUMPDEST POP POP POP POP POP DUP2 JUMP JUMPDEST JUMP JUMPDEST PUSH1 0x0 PUSH1 0x40 MLOAD SWAP1 POP SWAP1 JUMP JUMPDEST PUSH1 0x0 DUP1 REVERT JUMPDEST PUSH1 0x0 DUP1 REVERT JUMPDEST PUSH1 0x0 DUP1 REVERT JUMPDEST PUSH1 0x0 DUP1 REVERT JUMPDEST PUSH1 0x0 PUSH1 0x1F NOT PUSH1 0x1F DUP4 ADD AND SWAP1 POP SWAP2 SWAP1 POP JUMP JUMPDEST PUSH32 0x4E487B7100000000000000000000000000000000000000000000000000000000 PUSH1 0x0 MSTORE PUSH1 0x41 PUSH1 0x4 MSTORE PUSH1 0x24 PUSH1 0x0 REVERT JUMPDEST PUSH2 0x56E DUP3 PUSH2 0x525 JUMP JUMPDEST DUP2 ADD DUP2 DUP2 LT PUSH8 0xFFFFFFFFFFFFFFFF DUP3 GT OR ISZERO PUSH2 0x58D JUMPI PUSH2 0x58C PUSH2 0x536 JUMP JUMPDEST JUMPDEST DUP1 PUSH1 0x40 MSTORE POP POP POP JUMP JUMPDEST PUSH1 0x0 PUSH2 0x5A0 PUSH2 0x507 JUMP JUMPDEST SWAP1 POP PUSH2 0x5AC DUP3 DUP3 PUSH2 0x565 JUMP JUMPDEST SWAP2 SWAP1 POP JUMP JUMPDEST PUSH1 0x0 PUSH8 0xFFFFFFFFFFFFFFFF DUP3 GT ISZERO PUSH2 0x5CC JUMPI PUSH2 0x5CB PUSH2 0x536 JUMP JUMPDEST JUMPDEST PUSH2 0x5D5 DUP3 PUSH2 0x525 JUMP JUMPDEST SWAP1 POP PUSH1 0x20 DUP2 ADD SWAP1 POP SWAP2 SWAP1 POP JUMP JUMPDEST DUP3 DUP2 DUP4 CALLDATACOPY PUSH1 0x0 DUP4 DUP4 ADD MSTORE POP POP POP JUMP JUMPDEST PUSH1 0x0 PUSH2 0x604 PUSH2 0x5FF DUP5 PUSH2 0x5B1 JUMP JUMPDEST PUSH2 0x596 JUMP JUMPDEST SWAP1 POP DUP3 DUP2 MSTORE PUSH1 0x20 DUP2 ADD DUP5 DUP5 DUP5 ADD GT ISZERO PUSH2 0x620 JUMPI PUSH2 0x61F PUSH2 0x520 JUMP JUMPDEST JUMPDEST PUSH2 0x62B DUP5 DUP3 DUP6 PUSH2 0x5E2 JUMP JUMPDEST POP SWAP4 SWAP3 POP POP POP JUMP JUMPDEST PUSH1 0x0 DUP3 PUSH1 0x1F DUP4 ADD SLT PUSH2 0x648 JUMPI PUSH2 0x647 PUSH2 0x51B JUMP JUMPDEST JUMPDEST DUP2 CALLDATALOAD PUSH2 0x658 DUP5 DUP3 PUSH1 0x20 DUP7 ADD PUSH2 0x5F1 JUMP JUMPDEST SWAP2 POP POP SWAP3 SWAP2 POP POP JUMP JUMPDEST PUSH1 0x0 PUSH1 0x20 DUP3 DUP5 SUB SLT ISZERO PUSH2 0x677 JUMPI PUSH2 0x676 PUSH2 0x511 JUMP JUMPDEST JUMPDEST PUSH1 0x0 DUP3 ADD CALLDATALOAD PUSH8 0xFFFFFFFFFFFFFFFF DUP2 GT ISZERO PUSH2 0x695 JUMPI PUSH2 0x694 PUSH2 0x516 JUMP JUMPDEST JUMPDEST PUSH2 0x6A1 DUP5 DUP3 DUP6 ADD PUSH2 0x633 JUMP JUMPDEST SWAP2 POP POP SWAP3 SWAP2 POP POP JUMP JUMPDEST PUSH1 0x0 DUP2 SWAP1 POP SWAP2 SWAP1 POP JUMP JUMPDEST PUSH2 0x6BD DUP2 PUSH2 0x6AA JUMP JUMPDEST DUP2 EQ PUSH2 0x6C8 JUMPI PUSH1 0x0 DUP1 REVERT JUMPDEST POP JUMP JUMPDEST PUSH1 0x0 DUP2 CALLDATALOAD SWAP1 POP PUSH2 0x6DA DUP2 PUSH2 0x6B4 JUMP JUMPDEST SWAP3 SWAP2 POP POP JUMP JUMPDEST PUSH1 0x0 DUP1 PUSH1 0x40 DUP4 DUP6 SUB SLT ISZERO PUSH2 0x6F7 JUMPI PUSH2 0x6F6 PUSH2 0x511 JUMP JUMPDEST JUMPDEST PUSH1 0x0 DUP4 ADD CALLDATALOAD PUSH8 0xFFFFFFFFFFFFFFFF DUP2 GT ISZERO PUSH2 0x715 JUMPI PUSH2 0x714 PUSH2 0x516 JUMP JUMPDEST JUMPDEST PUSH2 0x721 DUP6 DUP3 DUP7 ADD PUSH2 0x633 JUMP JUMPDEST SWAP3 POP POP PUSH1 0x20 PUSH2 0x732 DUP6 DUP3 DUP7 ADD PUSH2 0x6CB JUMP JUMPDEST SWAP2 POP POP SWAP3 POP SWAP3 SWAP1 POP JUMP JUMPDEST PUSH2 0x745 DUP2 PUSH2 0x6AA JUMP JUMPDEST DUP3 MSTORE POP POP JUMP JUMPDEST PUSH1 0x0 DUP2 MLOAD SWAP1 POP SWAP2 SWAP1 POP JUMP JUMPDEST PUSH1 0x0 DUP3 DUP3 MSTORE PUSH1 0x20 DUP3 ADD SWAP1 POP SWAP3 SWAP2 POP POP JUMP JUMPDEST PUSH1 0x0 JUMPDEST DUP4 DUP2 LT ISZERO PUSH2 0x785 JUMPI DUP1 DUP3 ADD MLOAD DUP2 DUP5 ADD MSTORE PUSH1 0x20 DUP2 ADD SWAP1 POP PUSH2 0x76A JUMP JUMPDEST DUP4 DUP2 GT ISZERO PUSH2 0x794 JUMPI PUSH1 0x0 DUP5 DUP5 ADD MSTORE JUMPDEST POP POP POP POP JUMP JUMPDEST PUSH1 0x0 PUSH2 0x7A5 DUP3 PUSH2 0x74B JUMP JUMPDEST PUSH2 0x7AF DUP2 DUP6 PUSH2 0x756 JUMP JUMPDEST SWAP4 POP PUSH2 0x7BF DUP2 DUP6 PUSH1 0x20 DUP7 ADD PUSH2 0x767 JUMP JUMPDEST PUSH2 0x7C8 DUP2 PUSH2 0x525 JUMP JUMPDEST DUP5 ADD SWAP2 POP POP SWAP3 SWAP2 POP POP JUMP JUMPDEST PUSH1 0x0 PUSH1 0x60 DUP3 ADD SWAP1 POP PUSH2 0x7E8 PUSH1 0x0 DUP4 ADD DUP7 PUSH2 0x73C JUMP JUMPDEST DUP2 DUP2 SUB PUSH1 0x20 DUP4 ADD MSTORE PUSH2 0x7FA DUP2 DUP6 PUSH2 0x79A JUMP JUMPDEST SWAP1 POP PUSH2 0x809 PUSH1 0x40 DUP4 ADD DUP5 PUSH2 0x73C JUMP JUMPDEST SWAP5 SWAP4 POP POP POP POP JUMP JUMPDEST PUSH1 0x0 PUSH20 0xFFFFFFFFFFFFFFFFFFFFFFFFFFFFFFFFFFFFFFFF DUP3 AND SWAP1 POP SWAP2 SWAP1 POP JUMP JUMPDEST PUSH1 0x0 PUSH2 0x83C DUP3 PUSH2 0x811 JUMP JUMPDEST SWAP1 POP SWAP2 SWAP1 POP JUMP JUMPDEST PUSH2 0x84C DUP2 PUSH2 0x831 JUMP JUMPDEST DUP2 EQ PUSH2 0x857 JUMPI PUSH1 0x0 DUP1 REVERT JUMPDEST POP JUMP JUMPDEST PUSH1 0x0 DUP2 CALLDATALOAD SWAP1 POP PUSH2 0x869 DUP2 PUSH2 0x843 JUMP JUMPDEST SWAP3 SWAP2 POP POP JUMP JUMPDEST PUSH1 0x0 DUP1 PUSH1 0x0 PUSH1 0x60 DUP5 DUP7 SUB SLT ISZERO PUSH2 0x888 JUMPI PUSH2 0x887 PUSH2 0x511 JUMP JUMPDEST JUMPDEST PUSH1 0x0 PUSH2 0x896 DUP7 DUP3 DUP8 ADD PUSH2 0x6CB JUMP JUMPDEST SWAP4 POP POP PUSH1 0x20 PUSH2 0x8A7 DUP7 DUP3 DUP8 ADD PUSH2 0x85A JUMP JUMPDEST SWAP3 POP POP PUSH1 0x40 PUSH2 0x8B8 DUP7 DUP3 DUP8 ADD PUSH2 0x6CB JUMP JUMPDEST SWAP2 POP POP SWAP3 POP SWAP3 POP SWAP3 JUMP JUMPDEST PUSH1 0x0 PUSH1 0x20 DUP3 DUP5 SUB SLT ISZERO PUSH2 0x8D8 JUMPI PUSH2 0x8D7 PUSH2 0x511 JUMP JUMPDEST JUMPDEST PUSH1 0x0 PUSH2 0x8E6 DUP5 DUP3 DUP6 ADD PUSH2 0x6CB JUMP JUMPDEST SWAP2 POP POP SWAP3 SWAP2 POP POP JUMP JUMPDEST PUSH2 0x8F8 DUP2 PUSH2 0x831 JUMP JUMPDEST DUP3 MSTORE POP POP JUMP JUMPDEST PUSH1 0x0 PUSH1 0x40 DUP3 ADD SWAP1 POP PUSH2 0x913 PUSH1 0x0 DUP4 ADD DUP6 PUSH2 0x73C JUMP JUMPDEST PUSH2 0x920 PUSH1 0x20 DUP4 ADD DUP5 PUSH2 0x8EF JUMP JUMPDEST SWAP4 SWAP3 POP POP POP JUMP JUMPDEST PUSH1 0x0 PUSH1 0x60 DUP3 ADD SWAP1 POP DUP2 DUP2 SUB PUSH1 0x0 DUP4 ADD MSTORE PUSH2 0x941 DUP2 DUP7 PUSH2 0x79A JUMP JUMPDEST SWAP1 POP PUSH2 0x950 PUSH1 0x20 DUP4 ADD DUP6 PUSH2 0x73C JUMP JUMPDEST PUSH2 0x95D PUSH1 0x40 DUP4 ADD DUP5 PUSH2 0x8EF JUMP JUMPDEST SWAP5 SWAP4 POP POP POP POP JUMP JUMPDEST PUSH1 0x0 PUSH1 0x20 DUP3 DUP5 SUB SLT ISZERO PUSH2 0x97B JUMPI PUSH2 0x97A PUSH2 0x511 JUMP JUMPDEST JUMPDEST PUSH1 0x0 PUSH2 0x989 DUP5 DUP3 DUP6 ADD PUSH2 0x85A JUMP JUMPDEST SWAP2 POP POP SWAP3 SWAP2 POP POP JUMP JUMPDEST PUSH1 0x0 PUSH1 0x20 DUP3 ADD SWAP1 POP DUP2 DUP2 SUB PUSH1 0x0 DUP4 ADD MSTORE PUSH2 0x9AC DUP2 DUP5 PUSH2 0x79A JUMP JUMPDEST SWAP1 POP SWAP3 SWAP2 POP POP JUMP JUMPDEST PUSH32 0x4E487B7100000000000000000000000000000000000000000000000000000000 PUSH1 0x0 MSTORE PUSH1 0x22 PUSH1 0x4 MSTORE PUSH1 0x24 PUSH1 0x0 REVERT JUMPDEST PUSH1 0x0 PUSH1 0x2 DUP3 DIV SWAP1 POP PUSH1 0x1 DUP3 AND DUP1 PUSH2 0x9FB JUMPI PUSH1 0x7F DUP3 AND SWAP2 POP JUMPDEST PUSH1 0x20 DUP3 LT DUP2 SUB PUSH2 0xA0E JUMPI PUSH2 0xA0D PUSH2 0x9B4 JUMP JUMPDEST JUMPDEST POP SWAP2 SWAP1 POP JUMP JUMPDEST PUSH1 0x0 DUP2 SWAP1 POP DUP2 PUSH1 0x0 MSTORE PUSH1 0x20 PUSH1 0x0 KECCAK256 SWAP1 POP SWAP2 SWAP1 POP JUMP JUMPDEST PUSH1 0x0 PUSH1 0x20 PUSH1 0x1F DUP4 ADD DIV SWAP1 POP SWAP2 SWAP1 POP JUMP JUMPDEST PUSH1 0x0 DUP3 DUP3 SHL SWAP1 POP SWAP3 SWAP2 POP POP JUMP JUMPDEST PUSH1 0x0 PUSH1 0x8 DUP4 MUL PUSH2 0xA76 PUSH32 0xFFFFFFFFFFFFFFFFFFFFFFFFFFFFFFFFFFFFFFFFFFFFFFFFFFFFFFFFFFFFFFFF DUP3 PUSH2 0xA39 JUMP JUMPDEST PUSH2 0xA80 DUP7 DUP4 PUSH2 0xA39 JUMP JUMPDEST SWAP6 POP DUP1 NOT DUP5 AND SWAP4 POP DUP1 DUP7 AND DUP5 OR SWAP3 POP POP POP SWAP4 SWAP3 POP POP POP JUMP JUMPDEST PUSH1 0x0 DUP2 SWAP1 POP SWAP2 SWAP1 POP JUMP JUMPDEST PUSH1 0x0 PUSH2 0xABD PUSH2 0xAB8 PUSH2 0xAB3 DUP5 PUSH2 0x6AA JUMP JUMPDEST PUSH2 0xA98 JUMP JUMPDEST PUSH2 0x6AA JUMP JUMPDEST SWAP1 POP SWAP2 SWAP1 POP JUMP JUMPDEST PUSH1 0x0 DUP2 SWAP1 POP SWAP2 SWAP1 POP JUMP JUMPDEST PUSH2 0xAD7 DUP4 PUSH2 0xAA2 JUMP JUMPDEST PUSH2 0xAEB PUSH2 0xAE3 DUP3 PUSH2 0xAC4 JUMP JUMPDEST DUP5 DUP5 SLOAD PUSH2 0xA46 JUMP JUMPDEST DUP3 SSTORE POP POP POP POP JUMP JUMPDEST PUSH1 0x0 SWAP1 JUMP JUMPDEST PUSH2 0xB00 PUSH2 0xAF3 JUMP JUMPDEST PUSH2 0xB0B DUP2 DUP5 DUP5 PUSH2 0xACE JUMP JUMPDEST POP POP POP JUMP JUMPDEST JUMPDEST DUP2 DUP2 LT ISZERO PUSH2 0xB2F JUMPI PUSH2 0xB24 PUSH1 0x0 DUP3 PUSH2 0xAF8 JUMP JUMPDEST PUSH1 0x1 DUP2 ADD SWAP1 POP PUSH2 0xB11 JUMP JUMPDEST POP POP JUMP JUMPDEST PUSH1 0x1F DUP3 GT ISZERO PUSH2 0xB74 JUMPI PUSH2 0xB45 DUP2 PUSH2 0xA14 JUMP JUMPDEST PUSH2 0xB4E DUP5 PUSH2 0xA29 JUMP JUMPDEST DUP2 ADD PUSH1 0x20 DUP6 LT ISZERO PUSH2 0xB5D JUMPI DUP2 SWAP1 POP JUMPDEST PUSH2 0xB71 PUSH2 0xB69 DUP6 PUSH2 0xA29 JUMP JUMPDEST DUP4 ADD DUP3 PUSH2 0xB10 JUMP JUMPDEST POP POP JUMPDEST POP POP POP JUMP JUMPDEST PUSH1 0x0 DUP3 DUP3 SHR SWAP1 POP SWAP3 SWAP2 POP POP JUMP JUMPDEST PUSH1 0x0 PUSH2 0xB97 PUSH1 0x0 NOT DUP5 PUSH1 0x8 MUL PUSH2 0xB79 JUMP JUMPDEST NOT DUP1 DUP4 AND SWAP2 POP POP SWAP3 SWAP2 POP POP JUMP JUMPDEST PUSH1 0x0 PUSH2 0xBB0 DUP4 DUP4 PUSH2 0xB86 JUMP JUMPDEST SWAP2 POP DUP3 PUSH1 0x2 MUL DUP3 OR SWAP1 POP SWAP3 SWAP2 POP POP JUMP JUMPDEST PUSH2 0xBC9 DUP3 PUSH2 0x74B JUMP JUMPDEST PUSH8 0xFFFFFFFFFFFFFFFF DUP2 GT ISZERO PUSH2 0xBE2 JUMPI PUSH2 0xBE1 PUSH2 0x536 JUMP JUMPDEST JUMPDEST PUSH2 0xBEC DUP3 SLOAD PUSH2 0x9E3 JUMP JUMPDEST PUSH2 0xBF7 DUP3 DUP3 DUP6 PUSH2 0xB33 JUMP JUMPDEST PUSH1 0x0 PUSH1 0x20 SWAP1 POP PUSH1 0x1F DUP4 GT PUSH1 0x1 DUP2 EQ PUSH2 0xC2A JUMPI PUSH1 0x0 DUP5 ISZERO PUSH2 0xC18 JUMPI DUP3 DUP8 ADD MLOAD SWAP1 POP JUMPDEST PUSH2 0xC22 DUP6 DUP3 PUSH2 0xBA4 JUMP JUMPDEST DUP7 SSTORE POP PUSH2 0xC8A JUMP JUMPDEST PUSH1 0x1F NOT DUP5 AND PUSH2 0xC38 DUP7 PUSH2 0xA14 JUMP JUMPDEST PUSH1 0x0 JUMPDEST DUP3 DUP2 LT ISZERO PUSH2 0xC60 JUMPI DUP5 DUP10 ADD MLOAD DUP3 SSTORE PUSH1 0x1 DUP3 ADD SWAP2 POP PUSH1 0x20 DUP6 ADD SWAP5 POP PUSH1 0x20 DUP2 ADD SWAP1 POP PUSH2 0xC3B JUMP JUMPDEST DUP7 DUP4 LT ISZERO PUSH2 0xC7D JUMPI DUP5 DUP10 ADD MLOAD PUSH2 0xC79 PUSH1 0x1F DUP10 AND DUP3 PUSH2 0xB86 JUMP JUMPDEST DUP4 SSTORE POP JUMPDEST PUSH1 0x1 PUSH1 0x2 DUP9 MUL ADD DUP9 SSTORE POP POP POP JUMPDEST POP POP POP POP POP POP JUMP JUMPDEST PUSH32 0x4E487B7100000000000000000000000000000000000000000000000000000000 PUSH1 0x0 MSTORE PUSH1 0x11 PUSH1 0x4 MSTORE PUSH1 0x24 PUSH1 0x0 REVERT JUMPDEST PUSH1 0x0 PUSH2 0xCCC DUP3 PUSH2 0x6AA JUMP JUMPDEST SWAP2 POP PUSH32 0xFFFFFFFFFFFFFFFFFFFFFFFFFFFFFFFFFFFFFFFFFFFFFFFFFFFFFFFFFFFFFFFF DUP3 SUB PUSH2 0xCFE JUMPI PUSH2 0xCFD PUSH2 0xC92 JUMP JUMPDEST JUMPDEST PUSH1 0x1 DUP3 ADD SWAP1 POP SWAP2 SWAP1 POP JUMP INVALID LOG2 PUSH5 0x6970667358 0x22 SLT KECCAK256 0x5C 0x4B 0xAF PUSH19 0xF23CAB4B56499191859E69093BFD7BFD6E9DBB DIFFICULTY GASLIMIT 0xEA DUP4 0xBD LOG2 0x29 LOG2 DUP11 PUSH5 0x736F6C6343 STOP ADDMOD 0xF STOP CALLER "
				},
				"gasEstimates": {
					"creation": {
						"codeDepositCost": "678200",
						"executionCost": "5714",
						"totalCost": "683914"
					},
					"external": {
						"Assets(uint256)": "infinite",
						"AuctDetails(uint256)": "infinite",
						"Bidding(uint256,address,uint256)": "infinite",
						"Result()": "210",
						"Users(address)": "infinite",
						"addAsset(string,uint256)": "infinite",
						"addUser(string)": "infinite"
					}
				},
				"methodIdentifiers": {
					"Assets(uint256)": "4b4a80ba",
					"AuctDetails(uint256)": "32c84765",
					"Bidding(uint256,address,uint256)": "25503b4f",
					"Result()": "f4e5d599",
					"Users(address)": "99b956a0",
					"addAsset(string,uint256)": "1bc7ffe9",
					"addUser(string)": "18b8275a"
				}
			},
			"storageLayout": {
				"storage": [
					{
						"astId": 17,
						"contract": "Auction.sol:Auction",
						"label": "Users",
						"offset": 0,
						"slot": "0",
						"type": "t_mapping(t_address,t_string_storage)"
					},
					{
						"astId": 22,
						"contract": "Auction.sol:Auction",
						"label": "Assets",
						"offset": 0,
						"slot": "1",
						"type": "t_mapping(t_uint256,t_struct(Asset)8_storage)"
					},
					{
						"astId": 27,
						"contract": "Auction.sol:Auction",
						"label": "AuctDetails",
						"offset": 0,
						"slot": "2",
						"type": "t_mapping(t_uint256,t_struct(AuctDet)13_storage)"
					},
					{
						"astId": 43,
						"contract": "Auction.sol:Auction",
						"label": "Id",
						"offset": 0,
						"slot": "3",
						"type": "t_uint256"
					}
				],
				"types": {
					"t_address": {
						"encoding": "inplace",
						"label": "address",
						"numberOfBytes": "20"
					},
					"t_mapping(t_address,t_string_storage)": {
						"encoding": "mapping",
						"key": "t_address",
						"label": "mapping(address => string)",
						"numberOfBytes": "32",
						"value": "t_string_storage"
					},
					"t_mapping(t_uint256,t_struct(Asset)8_storage)": {
						"encoding": "mapping",
						"key": "t_uint256",
						"label": "mapping(uint256 => struct Auction.Asset)",
						"numberOfBytes": "32",
						"value": "t_struct(Asset)8_storage"
					},
					"t_mapping(t_uint256,t_struct(AuctDet)13_storage)": {
						"encoding": "mapping",
						"key": "t_uint256",
						"label": "mapping(uint256 => struct Auction.AuctDet)",
						"numberOfBytes": "32",
						"value": "t_struct(AuctDet)13_storage"
					},
					"t_string_storage": {
						"encoding": "bytes",
						"label": "string",
						"numberOfBytes": "32"
					},
					"t_struct(Asset)8_storage": {
						"encoding": "inplace",
						"label": "struct Auction.Asset",
						"members": [
							{
								"astId": 3,
								"contract": "Auction.sol:Auction",
								"label": "AssetName",
								"offset": 0,
								"slot": "0",
								"type": "t_string_storage"
							},
							{
								"astId": 5,
								"contract": "Auction.sol:Auction",
								"label": "AssetSP",
								"offset": 0,
								"slot": "1",
								"type": "t_uint256"
							},
							{
								"astId": 7,
								"contract": "Auction.sol:Auction",
								"label": "Owner",
								"offset": 0,
								"slot": "2",
								"type": "t_address"
							}
						],
						"numberOfBytes": "96"
					},
					"t_struct(AuctDet)13_storage": {
						"encoding": "inplace",
						"label": "struct Auction.AuctDet",
						"members": [
							{
								"astId": 10,
								"contract": "Auction.sol:Auction",
								"label": "bidPrice",
								"offset": 0,
								"slot": "0",
								"type": "t_uint256"
							},
							{
								"astId": 12,
								"contract": "Auction.sol:Auction",
								"label": "bidderId",
								"offset": 0,
								"slot": "1",
								"type": "t_address"
							}
						],
						"numberOfBytes": "64"
					},
					"t_uint256": {
						"encoding": "inplace",
						"label": "uint256",
						"numberOfBytes": "32"
					}
				}
			},
			"userdoc": {
				"kind": "user",
				"methods": {},
				"version": 1
			}
		}
	}
}