{
	"Auction.sol": {
		"Auction": {
			"abi": [
				{
					"inputs": [
						{
							"internalType": "uint256",
							"name": "",
							"type": "uint256"
						},
						{
							"internalType": "uint256",
							"name": "",
							"type": "uint256"
						}
					],
					"name": "Assets",
					"outputs": [
						{
							"internalType": "string",
							"name": "",
							"type": "string"
						}
					],
					"stateMutability": "view",
					"type": "function"
				},
				{
					"inputs": [
						{
							"internalType": "uint256",
							"name": "",
							"type": "uint256"
						}
					],
					"name": "Users",
					"outputs": [
						{
							"internalType": "string",
							"name": "",
							"type": "string"
						}
					],
					"stateMutability": "view",
					"type": "function"
				},
				{
					"inputs": [
						{
							"internalType": "uint256",
							"name": "aId",
							"type": "uint256"
						},
						{
							"internalType": "string",
							"name": "aName",
							"type": "string"
						},
						{
							"internalType": "uint256",
							"name": "aSP",
							"type": "uint256"
						},
						{
							"internalType": "string",
							"name": "aOwner",
							"type": "string"
						}
					],
					"name": "addAsset",
					"outputs": [],
					"stateMutability": "nonpayable",
					"type": "function"
				},
				{
					"inputs": [
						{
							"internalType": "uint256",
							"name": "UserId",
							"type": "uint256"
						},
						{
							"internalType": "string",
							"name": "Name",
							"type": "string"
						}
					],
					"name": "addUser",
					"outputs": [],
					"stateMutability": "nonpayable",
					"type": "function"
				}
			],
			"devdoc": {
				"kind": "dev",
				"methods": {},
				"version": 1
			},
			"evm": {
				"assembly": "    /* \"Auction.sol\":65:534  contract Auction {\r... */\n  mstore(0x40, 0x80)\n  callvalue\n  dup1\n  iszero\n  tag_1\n  jumpi\n  0x00\n  dup1\n  revert\ntag_1:\n  pop\n  dataSize(sub_0)\n  dup1\n  dataOffset(sub_0)\n  0x00\n  codecopy\n  0x00\n  return\nstop\n\nsub_0: assembly {\n        /* \"Auction.sol\":65:534  contract Auction {\r... */\n      mstore(0x40, 0x80)\n      callvalue\n      dup1\n      iszero\n      tag_1\n      jumpi\n      0x00\n      dup1\n      revert\n    tag_1:\n      pop\n      jumpi(tag_2, lt(calldatasize, 0x04))\n      shr(0xe0, calldataload(0x00))\n      dup1\n      0x1e98fd1c\n      eq\n      tag_3\n      jumpi\n      dup1\n      0x23c674af\n      eq\n      tag_4\n      jumpi\n      dup1\n      0x8f3b1b91\n      eq\n      tag_5\n      jumpi\n      dup1\n      0xd51af2bf\n      eq\n      tag_6\n      jumpi\n    tag_2:\n      0x00\n      dup1\n      revert\n        /* \"Auction.sol\":95:131  mapping(uint => string) public Users */\n    tag_3:\n      tag_7\n      0x04\n      dup1\n      calldatasize\n      sub\n      dup2\n      add\n      swap1\n      tag_8\n      swap2\n      swap1\n      tag_9\n      jump\t// in\n    tag_8:\n      tag_10\n      jump\t// in\n    tag_7:\n      mload(0x40)\n      tag_11\n      swap2\n      swap1\n      tag_12\n      jump\t// in\n    tag_11:\n      mload(0x40)\n      dup1\n      swap2\n      sub\n      swap1\n      return\n        /* \"Auction.sol\":138:177  mapping(uint => string[]) public Assets */\n    tag_4:\n      tag_13\n      0x04\n      dup1\n      calldatasize\n      sub\n      dup2\n      add\n      swap1\n      tag_14\n      swap2\n      swap1\n      tag_15\n      jump\t// in\n    tag_14:\n      tag_16\n      jump\t// in\n    tag_13:\n      mload(0x40)\n      tag_17\n      swap2\n      swap1\n      tag_12\n      jump\t// in\n    tag_17:\n      mload(0x40)\n      dup1\n      swap2\n      sub\n      swap1\n      return\n        /* \"Auction.sol\":290:426  function addAsset(uint aId, string memory aName, uint aSP, string memory aOwner) public {\r... */\n    tag_5:\n      tag_18\n      0x04\n      dup1\n      calldatasize\n      sub\n      dup2\n      add\n      swap1\n      tag_19\n      swap2\n      swap1\n      tag_20\n      jump\t// in\n    tag_19:\n      tag_21\n      jump\t// in\n    tag_18:\n      stop\n        /* \"Auction.sol\":186:282  function addUser(uint UserId, string memory Name) public {\r... */\n    tag_6:\n      tag_22\n      0x04\n      dup1\n      calldatasize\n      sub\n      dup2\n      add\n      swap1\n      tag_23\n      swap2\n      swap1\n      tag_24\n      jump\t// in\n    tag_23:\n      tag_25\n      jump\t// in\n    tag_22:\n      stop\n        /* \"Auction.sol\":95:131  mapping(uint => string) public Users */\n    tag_10:\n      mstore(0x20, 0x00)\n      dup1\n      0x00\n      mstore\n      keccak256(0x00, 0x40)\n      0x00\n      swap2\n      pop\n      swap1\n      pop\n      dup1\n      sload\n      tag_26\n      swap1\n      tag_27\n      jump\t// in\n    tag_26:\n      dup1\n      0x1f\n      add\n      0x20\n      dup1\n      swap2\n      div\n      mul\n      0x20\n      add\n      mload(0x40)\n      swap1\n      dup2\n      add\n      0x40\n      mstore\n      dup1\n      swap3\n      swap2\n      swap1\n      dup2\n      dup2\n      mstore\n      0x20\n      add\n      dup3\n      dup1\n      sload\n      tag_28\n      swap1\n      tag_27\n      jump\t// in\n    tag_28:\n      dup1\n      iszero\n      tag_29\n      jumpi\n      dup1\n      0x1f\n      lt\n      tag_30\n      jumpi\n      0x0100\n      dup1\n      dup4\n      sload\n      div\n      mul\n      dup4\n      mstore\n      swap2\n      0x20\n      add\n      swap2\n      jump(tag_29)\n    tag_30:\n      dup3\n      add\n      swap2\n      swap1\n      0x00\n      mstore\n      keccak256(0x00, 0x20)\n      swap1\n    tag_31:\n      dup2\n      sload\n      dup2\n      mstore\n      swap1\n      0x01\n      add\n      swap1\n      0x20\n      add\n      dup1\n      dup4\n      gt\n      tag_31\n      jumpi\n      dup3\n      swap1\n      sub\n      0x1f\n      and\n      dup3\n      add\n      swap2\n    tag_29:\n      pop\n      pop\n      pop\n      pop\n      pop\n      dup2\n      jump\t// out\n        /* \"Auction.sol\":138:177  mapping(uint => string[]) public Assets */\n    tag_16:\n      mstore(0x20, 0x01)\n      dup2\n      0x00\n      mstore\n      keccak256(0x00, 0x40)\n      dup2\n      dup2\n      sload\n      dup2\n      lt\n      tag_32\n      jumpi\n      0x00\n      dup1\n      revert\n    tag_32:\n      swap1\n      0x00\n      mstore\n      keccak256(0x00, 0x20)\n      add\n      0x00\n      swap2\n      pop\n      swap2\n      pop\n      pop\n      dup1\n      sload\n      tag_34\n      swap1\n      tag_27\n      jump\t// in\n    tag_34:\n      dup1\n      0x1f\n      add\n      0x20\n      dup1\n      swap2\n      div\n      mul\n      0x20\n      add\n      mload(0x40)\n      swap1\n      dup2\n      add\n      0x40\n      mstore\n      dup1\n      swap3\n      swap2\n      swap1\n      dup2\n      dup2\n      mstore\n      0x20\n      add\n      dup3\n      dup1\n      sload\n      tag_35\n      swap1\n      tag_27\n      jump\t// in\n    tag_35:\n      dup1\n      iszero\n      tag_36\n      jumpi\n      dup1\n      0x1f\n      lt\n      tag_37\n      jumpi\n      0x0100\n      dup1\n      dup4\n      sload\n      div\n      mul\n      dup4\n      mstore\n      swap2\n      0x20\n      add\n      swap2\n      jump(tag_36)\n    tag_37:\n      dup3\n      add\n      swap2\n      swap1\n      0x00\n      mstore\n      keccak256(0x00, 0x20)\n      swap1\n    tag_38:\n      dup2\n      sload\n      dup2\n      mstore\n      swap1\n      0x01\n      add\n      swap1\n      0x20\n      add\n      dup1\n      dup4\n      gt\n      tag_38\n      jumpi\n      dup3\n      swap1\n      sub\n      0x1f\n      and\n      dup3\n      add\n      swap2\n    tag_36:\n      pop\n      pop\n      pop\n      pop\n      pop\n      dup2\n      jump\t// out\n        /* \"Auction.sol\":290:426  function addAsset(uint aId, string memory aName, uint aSP, string memory aOwner) public {\r... */\n    tag_21:\n        /* \"Auction.sol\":389:418  Assets[aId] = [aName, aOwner] */\n      mload(0x40)\n      dup1\n      0x40\n      add\n      0x40\n      mstore\n      dup1\n        /* \"Auction.sol\":404:409  aName */\n      dup5\n        /* \"Auction.sol\":389:418  Assets[aId] = [aName, aOwner] */\n      dup2\n      mstore\n      0x20\n      add\n        /* \"Auction.sol\":411:417  aOwner */\n      dup3\n        /* \"Auction.sol\":389:418  Assets[aId] = [aName, aOwner] */\n      dup2\n      mstore\n      pop\n        /* \"Auction.sol\":389:395  Assets */\n      0x01\n        /* \"Auction.sol\":389:400  Assets[aId] */\n      0x00\n        /* \"Auction.sol\":396:399  aId */\n      dup7\n        /* \"Auction.sol\":389:400  Assets[aId] */\n      dup2\n      mstore\n      0x20\n      add\n      swap1\n      dup2\n      mstore\n      0x20\n      add\n      0x00\n      keccak256\n        /* \"Auction.sol\":389:418  Assets[aId] = [aName, aOwner] */\n      swap1\n      0x02\n      tag_40\n      swap3\n      swap2\n      swap1\n      tag_41\n      jump\t// in\n    tag_40:\n      pop\n        /* \"Auction.sol\":290:426  function addAsset(uint aId, string memory aName, uint aSP, string memory aOwner) public {\r... */\n      pop\n      pop\n      pop\n      pop\n      jump\t// out\n        /* \"Auction.sol\":186:282  function addUser(uint UserId, string memory Name) public {\r... */\n    tag_25:\n        /* \"Auction.sol\":270:274  Name */\n      dup1\n        /* \"Auction.sol\":254:259  Users */\n      0x00\n        /* \"Auction.sol\":254:267  Users[UserId] */\n      dup1\n        /* \"Auction.sol\":260:266  UserId */\n      dup5\n        /* \"Auction.sol\":254:267  Users[UserId] */\n      dup2\n      mstore\n      0x20\n      add\n      swap1\n      dup2\n      mstore\n      0x20\n      add\n      0x00\n      keccak256\n        /* \"Auction.sol\":254:274  Users[UserId] = Name */\n      swap1\n      dup1\n      mload\n      swap1\n      0x20\n      add\n      swap1\n      tag_43\n      swap3\n      swap2\n      swap1\n      tag_44\n      jump\t// in\n    tag_43:\n      pop\n        /* \"Auction.sol\":186:282  function addUser(uint UserId, string memory Name) public {\r... */\n      pop\n      pop\n      jump\t// out\n    tag_41:\n      dup3\n      dup1\n      sload\n      dup3\n      dup3\n      sstore\n      swap1\n      0x00\n      mstore\n      keccak256(0x00, 0x20)\n      swap1\n      dup2\n      add\n      swap3\n      dup3\n      iszero\n      tag_45\n      jumpi\n      swap2\n      0x20\n      mul\n      dup3\n      add\n    tag_46:\n      dup3\n      dup2\n      gt\n      iszero\n      tag_47\n      jumpi\n      dup3\n      mload\n      dup3\n      swap1\n      dup1\n      mload\n      swap1\n      0x20\n      add\n      swap1\n      tag_48\n      swap3\n      swap2\n      swap1\n      tag_44\n      jump\t// in\n    tag_48:\n      pop\n      swap2\n      0x20\n      add\n      swap2\n      swap1\n      0x01\n      add\n      swap1\n      jump(tag_46)\n    tag_47:\n    tag_45:\n      pop\n      swap1\n      pop\n      tag_49\n      swap2\n      swap1\n      tag_50\n      jump\t// in\n    tag_49:\n      pop\n      swap1\n      jump\t// out\n    tag_44:\n      dup3\n      dup1\n      sload\n      tag_51\n      swap1\n      tag_27\n      jump\t// in\n    tag_51:\n      swap1\n      0x00\n      mstore\n      keccak256(0x00, 0x20)\n      swap1\n      0x1f\n      add\n      0x20\n      swap1\n      div\n      dup2\n      add\n      swap3\n      dup3\n      tag_53\n      jumpi\n      0x00\n      dup6\n      sstore\n      jump(tag_52)\n    tag_53:\n      dup3\n      0x1f\n      lt\n      tag_54\n      jumpi\n      dup1\n      mload\n      not(0xff)\n      and\n      dup4\n      dup1\n      add\n      or\n      dup6\n      sstore\n      jump(tag_52)\n    tag_54:\n      dup3\n      dup1\n      add\n      0x01\n      add\n      dup6\n      sstore\n      dup3\n      iszero\n      tag_52\n      jumpi\n      swap2\n      dup3\n      add\n    tag_55:\n      dup3\n      dup2\n      gt\n      iszero\n      tag_56\n      jumpi\n      dup3\n      mload\n      dup3\n      sstore\n      swap2\n      0x20\n      add\n      swap2\n      swap1\n      0x01\n      add\n      swap1\n      jump(tag_55)\n    tag_56:\n    tag_52:\n      pop\n      swap1\n      pop\n      tag_57\n      swap2\n      swap1\n      tag_58\n      jump\t// in\n    tag_57:\n      pop\n      swap1\n      jump\t// out\n    tag_50:\n    tag_59:\n      dup1\n      dup3\n      gt\n      iszero\n      tag_60\n      jumpi\n      0x00\n      dup2\n      dup2\n      tag_61\n      swap2\n      swap1\n      tag_62\n      jump\t// in\n    tag_61:\n      pop\n      0x01\n      add\n      jump(tag_59)\n    tag_60:\n      pop\n      swap1\n      jump\t// out\n    tag_58:\n    tag_63:\n      dup1\n      dup3\n      gt\n      iszero\n      tag_64\n      jumpi\n      0x00\n      dup2\n      0x00\n      swap1\n      sstore\n      pop\n      0x01\n      add\n      jump(tag_63)\n    tag_64:\n      pop\n      swap1\n      jump\t// out\n    tag_62:\n      pop\n      dup1\n      sload\n      tag_65\n      swap1\n      tag_27\n      jump\t// in\n    tag_65:\n      0x00\n      dup3\n      sstore\n      dup1\n      0x1f\n      lt\n      tag_67\n      jumpi\n      pop\n      jump(tag_66)\n    tag_67:\n      0x1f\n      add\n      0x20\n      swap1\n      div\n      swap1\n      0x00\n      mstore\n      keccak256(0x00, 0x20)\n      swap1\n      dup2\n      add\n      swap1\n      tag_68\n      swap2\n      swap1\n      tag_58\n      jump\t// in\n    tag_68:\n    tag_66:\n      pop\n      jump\t// out\n        /* \"#utility.yul\":7:352   */\n    tag_70:\n      0x00\n        /* \"#utility.yul\":110:176   */\n      tag_72\n        /* \"#utility.yul\":126:175   */\n      tag_73\n        /* \"#utility.yul\":168:174   */\n      dup5\n        /* \"#utility.yul\":126:175   */\n      tag_74\n      jump\t// in\n    tag_73:\n        /* \"#utility.yul\":110:176   */\n      tag_75\n      jump\t// in\n    tag_72:\n        /* \"#utility.yul\":101:176   */\n      swap1\n      pop\n        /* \"#utility.yul\":199:205   */\n      dup3\n        /* \"#utility.yul\":192:197   */\n      dup2\n        /* \"#utility.yul\":185:206   */\n      mstore\n        /* \"#utility.yul\":237:241   */\n      0x20\n        /* \"#utility.yul\":230:235   */\n      dup2\n        /* \"#utility.yul\":226:242   */\n      add\n        /* \"#utility.yul\":275:278   */\n      dup5\n        /* \"#utility.yul\":266:272   */\n      dup5\n        /* \"#utility.yul\":261:264   */\n      dup5\n        /* \"#utility.yul\":257:273   */\n      add\n        /* \"#utility.yul\":254:279   */\n      gt\n        /* \"#utility.yul\":251:253   */\n      iszero\n      tag_76\n      jumpi\n        /* \"#utility.yul\":292:293   */\n      0x00\n        /* \"#utility.yul\":289:290   */\n      dup1\n        /* \"#utility.yul\":282:294   */\n      revert\n        /* \"#utility.yul\":251:253   */\n    tag_76:\n        /* \"#utility.yul\":305:346   */\n      tag_77\n        /* \"#utility.yul\":339:345   */\n      dup5\n        /* \"#utility.yul\":334:337   */\n      dup3\n        /* \"#utility.yul\":329:332   */\n      dup6\n        /* \"#utility.yul\":305:346   */\n      tag_78\n      jump\t// in\n    tag_77:\n        /* \"#utility.yul\":91:352   */\n      pop\n      swap4\n      swap3\n      pop\n      pop\n      pop\n      jump\t// out\n        /* \"#utility.yul\":372:645   */\n    tag_79:\n      0x00\n        /* \"#utility.yul\":477:480   */\n      dup3\n        /* \"#utility.yul\":470:474   */\n      0x1f\n        /* \"#utility.yul\":462:468   */\n      dup4\n        /* \"#utility.yul\":458:475   */\n      add\n        /* \"#utility.yul\":454:481   */\n      slt\n        /* \"#utility.yul\":444:446   */\n      tag_81\n      jumpi\n        /* \"#utility.yul\":495:496   */\n      0x00\n        /* \"#utility.yul\":492:493   */\n      dup1\n        /* \"#utility.yul\":485:497   */\n      revert\n        /* \"#utility.yul\":444:446   */\n    tag_81:\n        /* \"#utility.yul\":535:541   */\n      dup2\n        /* \"#utility.yul\":522:542   */\n      calldataload\n        /* \"#utility.yul\":560:639   */\n      tag_82\n        /* \"#utility.yul\":635:638   */\n      dup5\n        /* \"#utility.yul\":627:633   */\n      dup3\n        /* \"#utility.yul\":620:624   */\n      0x20\n        /* \"#utility.yul\":612:618   */\n      dup7\n        /* \"#utility.yul\":608:625   */\n      add\n        /* \"#utility.yul\":560:639   */\n      tag_70\n      jump\t// in\n    tag_82:\n        /* \"#utility.yul\":551:639   */\n      swap2\n      pop\n        /* \"#utility.yul\":434:645   */\n      pop\n      swap3\n      swap2\n      pop\n      pop\n      jump\t// out\n        /* \"#utility.yul\":651:790   */\n    tag_83:\n      0x00\n        /* \"#utility.yul\":735:741   */\n      dup2\n        /* \"#utility.yul\":722:742   */\n      calldataload\n        /* \"#utility.yul\":713:742   */\n      swap1\n      pop\n        /* \"#utility.yul\":751:784   */\n      tag_85\n        /* \"#utility.yul\":778:783   */\n      dup2\n        /* \"#utility.yul\":751:784   */\n      tag_86\n      jump\t// in\n    tag_85:\n        /* \"#utility.yul\":703:790   */\n      swap3\n      swap2\n      pop\n      pop\n      jump\t// out\n        /* \"#utility.yul\":796:1058   */\n    tag_9:\n      0x00\n        /* \"#utility.yul\":904:906   */\n      0x20\n        /* \"#utility.yul\":892:901   */\n      dup3\n        /* \"#utility.yul\":883:890   */\n      dup5\n        /* \"#utility.yul\":879:902   */\n      sub\n        /* \"#utility.yul\":875:907   */\n      slt\n        /* \"#utility.yul\":872:874   */\n      iszero\n      tag_88\n      jumpi\n        /* \"#utility.yul\":920:921   */\n      0x00\n        /* \"#utility.yul\":917:918   */\n      dup1\n        /* \"#utility.yul\":910:922   */\n      revert\n        /* \"#utility.yul\":872:874   */\n    tag_88:\n        /* \"#utility.yul\":963:964   */\n      0x00\n        /* \"#utility.yul\":988:1041   */\n      tag_89\n        /* \"#utility.yul\":1033:1040   */\n      dup5\n        /* \"#utility.yul\":1024:1030   */\n      dup3\n        /* \"#utility.yul\":1013:1022   */\n      dup6\n        /* \"#utility.yul\":1009:1031   */\n      add\n        /* \"#utility.yul\":988:1041   */\n      tag_83\n      jump\t// in\n    tag_89:\n        /* \"#utility.yul\":978:1041   */\n      swap2\n      pop\n        /* \"#utility.yul\":934:1051   */\n      pop\n        /* \"#utility.yul\":862:1058   */\n      swap3\n      swap2\n      pop\n      pop\n      jump\t// out\n        /* \"#utility.yul\":1064:1584   */\n    tag_24:\n      0x00\n      dup1\n        /* \"#utility.yul\":1199:1201   */\n      0x40\n        /* \"#utility.yul\":1187:1196   */\n      dup4\n        /* \"#utility.yul\":1178:1185   */\n      dup6\n        /* \"#utility.yul\":1174:1197   */\n      sub\n        /* \"#utility.yul\":1170:1202   */\n      slt\n        /* \"#utility.yul\":1167:1169   */\n      iszero\n      tag_91\n      jumpi\n        /* \"#utility.yul\":1215:1216   */\n      0x00\n        /* \"#utility.yul\":1212:1213   */\n      dup1\n        /* \"#utility.yul\":1205:1217   */\n      revert\n        /* \"#utility.yul\":1167:1169   */\n    tag_91:\n        /* \"#utility.yul\":1258:1259   */\n      0x00\n        /* \"#utility.yul\":1283:1336   */\n      tag_92\n        /* \"#utility.yul\":1328:1335   */\n      dup6\n        /* \"#utility.yul\":1319:1325   */\n      dup3\n        /* \"#utility.yul\":1308:1317   */\n      dup7\n        /* \"#utility.yul\":1304:1326   */\n      add\n        /* \"#utility.yul\":1283:1336   */\n      tag_83\n      jump\t// in\n    tag_92:\n        /* \"#utility.yul\":1273:1336   */\n      swap3\n      pop\n        /* \"#utility.yul\":1229:1346   */\n      pop\n        /* \"#utility.yul\":1413:1415   */\n      0x20\n        /* \"#utility.yul\":1402:1411   */\n      dup4\n        /* \"#utility.yul\":1398:1416   */\n      add\n        /* \"#utility.yul\":1385:1417   */\n      calldataload\n        /* \"#utility.yul\":1444:1462   */\n      0xffffffffffffffff\n        /* \"#utility.yul\":1436:1442   */\n      dup2\n        /* \"#utility.yul\":1433:1463   */\n      gt\n        /* \"#utility.yul\":1430:1432   */\n      iszero\n      tag_93\n      jumpi\n        /* \"#utility.yul\":1476:1477   */\n      0x00\n        /* \"#utility.yul\":1473:1474   */\n      dup1\n        /* \"#utility.yul\":1466:1478   */\n      revert\n        /* \"#utility.yul\":1430:1432   */\n    tag_93:\n        /* \"#utility.yul\":1504:1567   */\n      tag_94\n        /* \"#utility.yul\":1559:1566   */\n      dup6\n        /* \"#utility.yul\":1550:1556   */\n      dup3\n        /* \"#utility.yul\":1539:1548   */\n      dup7\n        /* \"#utility.yul\":1535:1557   */\n      add\n        /* \"#utility.yul\":1504:1567   */\n      tag_79\n      jump\t// in\n    tag_94:\n        /* \"#utility.yul\":1494:1567   */\n      swap2\n      pop\n        /* \"#utility.yul\":1356:1577   */\n      pop\n        /* \"#utility.yul\":1157:1584   */\n      swap3\n      pop\n      swap3\n      swap1\n      pop\n      jump\t// out\n        /* \"#utility.yul\":1590:2514   */\n    tag_20:\n      0x00\n      dup1\n      0x00\n      dup1\n        /* \"#utility.yul\":1769:1772   */\n      0x80\n        /* \"#utility.yul\":1757:1766   */\n      dup6\n        /* \"#utility.yul\":1748:1755   */\n      dup8\n        /* \"#utility.yul\":1744:1767   */\n      sub\n        /* \"#utility.yul\":1740:1773   */\n      slt\n        /* \"#utility.yul\":1737:1739   */\n      iszero\n      tag_96\n      jumpi\n        /* \"#utility.yul\":1786:1787   */\n      0x00\n        /* \"#utility.yul\":1783:1784   */\n      dup1\n        /* \"#utility.yul\":1776:1788   */\n      revert\n        /* \"#utility.yul\":1737:1739   */\n    tag_96:\n        /* \"#utility.yul\":1829:1830   */\n      0x00\n        /* \"#utility.yul\":1854:1907   */\n      tag_97\n        /* \"#utility.yul\":1899:1906   */\n      dup8\n        /* \"#utility.yul\":1890:1896   */\n      dup3\n        /* \"#utility.yul\":1879:1888   */\n      dup9\n        /* \"#utility.yul\":1875:1897   */\n      add\n        /* \"#utility.yul\":1854:1907   */\n      tag_83\n      jump\t// in\n    tag_97:\n        /* \"#utility.yul\":1844:1907   */\n      swap5\n      pop\n        /* \"#utility.yul\":1800:1917   */\n      pop\n        /* \"#utility.yul\":1984:1986   */\n      0x20\n        /* \"#utility.yul\":1973:1982   */\n      dup6\n        /* \"#utility.yul\":1969:1987   */\n      add\n        /* \"#utility.yul\":1956:1988   */\n      calldataload\n        /* \"#utility.yul\":2015:2033   */\n      0xffffffffffffffff\n        /* \"#utility.yul\":2007:2013   */\n      dup2\n        /* \"#utility.yul\":2004:2034   */\n      gt\n        /* \"#utility.yul\":2001:2003   */\n      iszero\n      tag_98\n      jumpi\n        /* \"#utility.yul\":2047:2048   */\n      0x00\n        /* \"#utility.yul\":2044:2045   */\n      dup1\n        /* \"#utility.yul\":2037:2049   */\n      revert\n        /* \"#utility.yul\":2001:2003   */\n    tag_98:\n        /* \"#utility.yul\":2075:2138   */\n      tag_99\n        /* \"#utility.yul\":2130:2137   */\n      dup8\n        /* \"#utility.yul\":2121:2127   */\n      dup3\n        /* \"#utility.yul\":2110:2119   */\n      dup9\n        /* \"#utility.yul\":2106:2128   */\n      add\n        /* \"#utility.yul\":2075:2138   */\n      tag_79\n      jump\t// in\n    tag_99:\n        /* \"#utility.yul\":2065:2138   */\n      swap4\n      pop\n        /* \"#utility.yul\":1927:2148   */\n      pop\n        /* \"#utility.yul\":2187:2189   */\n      0x40\n        /* \"#utility.yul\":2213:2266   */\n      tag_100\n        /* \"#utility.yul\":2258:2265   */\n      dup8\n        /* \"#utility.yul\":2249:2255   */\n      dup3\n        /* \"#utility.yul\":2238:2247   */\n      dup9\n        /* \"#utility.yul\":2234:2256   */\n      add\n        /* \"#utility.yul\":2213:2266   */\n      tag_83\n      jump\t// in\n    tag_100:\n        /* \"#utility.yul\":2203:2266   */\n      swap3\n      pop\n        /* \"#utility.yul\":2158:2276   */\n      pop\n        /* \"#utility.yul\":2343:2345   */\n      0x60\n        /* \"#utility.yul\":2332:2341   */\n      dup6\n        /* \"#utility.yul\":2328:2346   */\n      add\n        /* \"#utility.yul\":2315:2347   */\n      calldataload\n        /* \"#utility.yul\":2374:2392   */\n      0xffffffffffffffff\n        /* \"#utility.yul\":2366:2372   */\n      dup2\n        /* \"#utility.yul\":2363:2393   */\n      gt\n        /* \"#utility.yul\":2360:2362   */\n      iszero\n      tag_101\n      jumpi\n        /* \"#utility.yul\":2406:2407   */\n      0x00\n        /* \"#utility.yul\":2403:2404   */\n      dup1\n        /* \"#utility.yul\":2396:2408   */\n      revert\n        /* \"#utility.yul\":2360:2362   */\n    tag_101:\n        /* \"#utility.yul\":2434:2497   */\n      tag_102\n        /* \"#utility.yul\":2489:2496   */\n      dup8\n        /* \"#utility.yul\":2480:2486   */\n      dup3\n        /* \"#utility.yul\":2469:2478   */\n      dup9\n        /* \"#utility.yul\":2465:2487   */\n      add\n        /* \"#utility.yul\":2434:2497   */\n      tag_79\n      jump\t// in\n    tag_102:\n        /* \"#utility.yul\":2424:2497   */\n      swap2\n      pop\n        /* \"#utility.yul\":2286:2507   */\n      pop\n        /* \"#utility.yul\":1727:2514   */\n      swap3\n      swap6\n      swap2\n      swap5\n      pop\n      swap3\n      pop\n      jump\t// out\n        /* \"#utility.yul\":2520:2927   */\n    tag_15:\n      0x00\n      dup1\n        /* \"#utility.yul\":2645:2647   */\n      0x40\n        /* \"#utility.yul\":2633:2642   */\n      dup4\n        /* \"#utility.yul\":2624:2631   */\n      dup6\n        /* \"#utility.yul\":2620:2643   */\n      sub\n        /* \"#utility.yul\":2616:2648   */\n      slt\n        /* \"#utility.yul\":2613:2615   */\n      iszero\n      tag_104\n      jumpi\n        /* \"#utility.yul\":2661:2662   */\n      0x00\n        /* \"#utility.yul\":2658:2659   */\n      dup1\n        /* \"#utility.yul\":2651:2663   */\n      revert\n        /* \"#utility.yul\":2613:2615   */\n    tag_104:\n        /* \"#utility.yul\":2704:2705   */\n      0x00\n        /* \"#utility.yul\":2729:2782   */\n      tag_105\n        /* \"#utility.yul\":2774:2781   */\n      dup6\n        /* \"#utility.yul\":2765:2771   */\n      dup3\n        /* \"#utility.yul\":2754:2763   */\n      dup7\n        /* \"#utility.yul\":2750:2772   */\n      add\n        /* \"#utility.yul\":2729:2782   */\n      tag_83\n      jump\t// in\n    tag_105:\n        /* \"#utility.yul\":2719:2782   */\n      swap3\n      pop\n        /* \"#utility.yul\":2675:2792   */\n      pop\n        /* \"#utility.yul\":2831:2833   */\n      0x20\n        /* \"#utility.yul\":2857:2910   */\n      tag_106\n        /* \"#utility.yul\":2902:2909   */\n      dup6\n        /* \"#utility.yul\":2893:2899   */\n      dup3\n        /* \"#utility.yul\":2882:2891   */\n      dup7\n        /* \"#utility.yul\":2878:2900   */\n      add\n        /* \"#utility.yul\":2857:2910   */\n      tag_83\n      jump\t// in\n    tag_106:\n        /* \"#utility.yul\":2847:2910   */\n      swap2\n      pop\n        /* \"#utility.yul\":2802:2920   */\n      pop\n        /* \"#utility.yul\":2603:2927   */\n      swap3\n      pop\n      swap3\n      swap1\n      pop\n      jump\t// out\n        /* \"#utility.yul\":2933:3297   */\n    tag_107:\n      0x00\n        /* \"#utility.yul\":3049:3088   */\n      tag_109\n        /* \"#utility.yul\":3082:3087   */\n      dup3\n        /* \"#utility.yul\":3049:3088   */\n      tag_110\n      jump\t// in\n    tag_109:\n        /* \"#utility.yul\":3104:3175   */\n      tag_111\n        /* \"#utility.yul\":3168:3174   */\n      dup2\n        /* \"#utility.yul\":3163:3166   */\n      dup6\n        /* \"#utility.yul\":3104:3175   */\n      tag_112\n      jump\t// in\n    tag_111:\n        /* \"#utility.yul\":3097:3175   */\n      swap4\n      pop\n        /* \"#utility.yul\":3184:3236   */\n      tag_113\n        /* \"#utility.yul\":3229:3235   */\n      dup2\n        /* \"#utility.yul\":3224:3227   */\n      dup6\n        /* \"#utility.yul\":3217:3221   */\n      0x20\n        /* \"#utility.yul\":3210:3215   */\n      dup7\n        /* \"#utility.yul\":3206:3222   */\n      add\n        /* \"#utility.yul\":3184:3236   */\n      tag_114\n      jump\t// in\n    tag_113:\n        /* \"#utility.yul\":3261:3290   */\n      tag_115\n        /* \"#utility.yul\":3283:3289   */\n      dup2\n        /* \"#utility.yul\":3261:3290   */\n      tag_116\n      jump\t// in\n    tag_115:\n        /* \"#utility.yul\":3256:3259   */\n      dup5\n        /* \"#utility.yul\":3252:3291   */\n      add\n        /* \"#utility.yul\":3245:3291   */\n      swap2\n      pop\n        /* \"#utility.yul\":3025:3297   */\n      pop\n      swap3\n      swap2\n      pop\n      pop\n      jump\t// out\n        /* \"#utility.yul\":3303:3616   */\n    tag_12:\n      0x00\n        /* \"#utility.yul\":3454:3456   */\n      0x20\n        /* \"#utility.yul\":3443:3452   */\n      dup3\n        /* \"#utility.yul\":3439:3457   */\n      add\n        /* \"#utility.yul\":3431:3457   */\n      swap1\n      pop\n        /* \"#utility.yul\":3503:3512   */\n      dup2\n        /* \"#utility.yul\":3497:3501   */\n      dup2\n        /* \"#utility.yul\":3493:3513   */\n      sub\n        /* \"#utility.yul\":3489:3490   */\n      0x00\n        /* \"#utility.yul\":3478:3487   */\n      dup4\n        /* \"#utility.yul\":3474:3491   */\n      add\n        /* \"#utility.yul\":3467:3514   */\n      mstore\n        /* \"#utility.yul\":3531:3609   */\n      tag_118\n        /* \"#utility.yul\":3604:3608   */\n      dup2\n        /* \"#utility.yul\":3595:3601   */\n      dup5\n        /* \"#utility.yul\":3531:3609   */\n      tag_107\n      jump\t// in\n    tag_118:\n        /* \"#utility.yul\":3523:3609   */\n      swap1\n      pop\n        /* \"#utility.yul\":3421:3616   */\n      swap3\n      swap2\n      pop\n      pop\n      jump\t// out\n        /* \"#utility.yul\":3622:3751   */\n    tag_75:\n      0x00\n        /* \"#utility.yul\":3683:3703   */\n      tag_120\n      tag_121\n      jump\t// in\n    tag_120:\n        /* \"#utility.yul\":3673:3703   */\n      swap1\n      pop\n        /* \"#utility.yul\":3712:3745   */\n      tag_122\n        /* \"#utility.yul\":3740:3744   */\n      dup3\n        /* \"#utility.yul\":3732:3738   */\n      dup3\n        /* \"#utility.yul\":3712:3745   */\n      tag_123\n      jump\t// in\n    tag_122:\n        /* \"#utility.yul\":3663:3751   */\n      swap2\n      swap1\n      pop\n      jump\t// out\n        /* \"#utility.yul\":3757:3832   */\n    tag_121:\n      0x00\n        /* \"#utility.yul\":3823:3825   */\n      0x40\n        /* \"#utility.yul\":3817:3826   */\n      mload\n        /* \"#utility.yul\":3807:3826   */\n      swap1\n      pop\n        /* \"#utility.yul\":3797:3832   */\n      swap1\n      jump\t// out\n        /* \"#utility.yul\":3838:4146   */\n    tag_74:\n      0x00\n        /* \"#utility.yul\":3990:4008   */\n      0xffffffffffffffff\n        /* \"#utility.yul\":3982:3988   */\n      dup3\n        /* \"#utility.yul\":3979:4009   */\n      gt\n        /* \"#utility.yul\":3976:3978   */\n      iszero\n      tag_126\n      jumpi\n        /* \"#utility.yul\":4012:4030   */\n      tag_127\n      tag_128\n      jump\t// in\n    tag_127:\n        /* \"#utility.yul\":3976:3978   */\n    tag_126:\n        /* \"#utility.yul\":4050:4079   */\n      tag_129\n        /* \"#utility.yul\":4072:4078   */\n      dup3\n        /* \"#utility.yul\":4050:4079   */\n      tag_116\n      jump\t// in\n    tag_129:\n        /* \"#utility.yul\":4042:4079   */\n      swap1\n      pop\n        /* \"#utility.yul\":4134:4138   */\n      0x20\n        /* \"#utility.yul\":4128:4132   */\n      dup2\n        /* \"#utility.yul\":4124:4139   */\n      add\n        /* \"#utility.yul\":4116:4139   */\n      swap1\n      pop\n        /* \"#utility.yul\":3905:4146   */\n      swap2\n      swap1\n      pop\n      jump\t// out\n        /* \"#utility.yul\":4152:4251   */\n    tag_110:\n      0x00\n        /* \"#utility.yul\":4238:4243   */\n      dup2\n        /* \"#utility.yul\":4232:4244   */\n      mload\n        /* \"#utility.yul\":4222:4244   */\n      swap1\n      pop\n        /* \"#utility.yul\":4211:4251   */\n      swap2\n      swap1\n      pop\n      jump\t// out\n        /* \"#utility.yul\":4257:4426   */\n    tag_112:\n      0x00\n        /* \"#utility.yul\":4375:4381   */\n      dup3\n        /* \"#utility.yul\":4370:4373   */\n      dup3\n        /* \"#utility.yul\":4363:4382   */\n      mstore\n        /* \"#utility.yul\":4415:4419   */\n      0x20\n        /* \"#utility.yul\":4410:4413   */\n      dup3\n        /* \"#utility.yul\":4406:4420   */\n      add\n        /* \"#utility.yul\":4391:4420   */\n      swap1\n      pop\n        /* \"#utility.yul\":4353:4426   */\n      swap3\n      swap2\n      pop\n      pop\n      jump\t// out\n        /* \"#utility.yul\":4432:4509   */\n    tag_132:\n      0x00\n        /* \"#utility.yul\":4498:4503   */\n      dup2\n        /* \"#utility.yul\":4487:4503   */\n      swap1\n      pop\n        /* \"#utility.yul\":4477:4509   */\n      swap2\n      swap1\n      pop\n      jump\t// out\n        /* \"#utility.yul\":4515:4669   */\n    tag_78:\n        /* \"#utility.yul\":4599:4605   */\n      dup3\n        /* \"#utility.yul\":4594:4597   */\n      dup2\n        /* \"#utility.yul\":4589:4592   */\n      dup4\n        /* \"#utility.yul\":4576:4606   */\n      calldatacopy\n        /* \"#utility.yul\":4661:4662   */\n      0x00\n        /* \"#utility.yul\":4652:4658   */\n      dup4\n        /* \"#utility.yul\":4647:4650   */\n      dup4\n        /* \"#utility.yul\":4643:4659   */\n      add\n        /* \"#utility.yul\":4636:4663   */\n      mstore\n        /* \"#utility.yul\":4566:4669   */\n      pop\n      pop\n      pop\n      jump\t// out\n        /* \"#utility.yul\":4675:4982   */\n    tag_114:\n        /* \"#utility.yul\":4743:4744   */\n      0x00\n        /* \"#utility.yul\":4753:4866   */\n    tag_136:\n        /* \"#utility.yul\":4767:4773   */\n      dup4\n        /* \"#utility.yul\":4764:4765   */\n      dup2\n        /* \"#utility.yul\":4761:4774   */\n      lt\n        /* \"#utility.yul\":4753:4866   */\n      iszero\n      tag_138\n      jumpi\n        /* \"#utility.yul\":4852:4853   */\n      dup1\n        /* \"#utility.yul\":4847:4850   */\n      dup3\n        /* \"#utility.yul\":4843:4854   */\n      add\n        /* \"#utility.yul\":4837:4855   */\n      mload\n        /* \"#utility.yul\":4833:4834   */\n      dup2\n        /* \"#utility.yul\":4828:4831   */\n      dup5\n        /* \"#utility.yul\":4824:4835   */\n      add\n        /* \"#utility.yul\":4817:4856   */\n      mstore\n        /* \"#utility.yul\":4789:4791   */\n      0x20\n        /* \"#utility.yul\":4786:4787   */\n      dup2\n        /* \"#utility.yul\":4782:4792   */\n      add\n        /* \"#utility.yul\":4777:4792   */\n      swap1\n      pop\n        /* \"#utility.yul\":4753:4866   */\n      jump(tag_136)\n    tag_138:\n        /* \"#utility.yul\":4884:4890   */\n      dup4\n        /* \"#utility.yul\":4881:4882   */\n      dup2\n        /* \"#utility.yul\":4878:4891   */\n      gt\n        /* \"#utility.yul\":4875:4877   */\n      iszero\n      tag_139\n      jumpi\n        /* \"#utility.yul\":4964:4965   */\n      0x00\n        /* \"#utility.yul\":4955:4961   */\n      dup5\n        /* \"#utility.yul\":4950:4953   */\n      dup5\n        /* \"#utility.yul\":4946:4962   */\n      add\n        /* \"#utility.yul\":4939:4966   */\n      mstore\n        /* \"#utility.yul\":4875:4877   */\n    tag_139:\n        /* \"#utility.yul\":4724:4982   */\n      pop\n      pop\n      pop\n      pop\n      jump\t// out\n        /* \"#utility.yul\":4988:5308   */\n    tag_27:\n      0x00\n        /* \"#utility.yul\":5069:5070   */\n      0x02\n        /* \"#utility.yul\":5063:5067   */\n      dup3\n        /* \"#utility.yul\":5059:5071   */\n      div\n        /* \"#utility.yul\":5049:5071   */\n      swap1\n      pop\n        /* \"#utility.yul\":5116:5117   */\n      0x01\n        /* \"#utility.yul\":5110:5114   */\n      dup3\n        /* \"#utility.yul\":5106:5118   */\n      and\n        /* \"#utility.yul\":5137:5155   */\n      dup1\n        /* \"#utility.yul\":5127:5129   */\n      tag_141\n      jumpi\n        /* \"#utility.yul\":5193:5197   */\n      0x7f\n        /* \"#utility.yul\":5185:5191   */\n      dup3\n        /* \"#utility.yul\":5181:5198   */\n      and\n        /* \"#utility.yul\":5171:5198   */\n      swap2\n      pop\n        /* \"#utility.yul\":5127:5129   */\n    tag_141:\n        /* \"#utility.yul\":5255:5257   */\n      0x20\n        /* \"#utility.yul\":5247:5253   */\n      dup3\n        /* \"#utility.yul\":5244:5258   */\n      lt\n        /* \"#utility.yul\":5224:5242   */\n      dup2\n        /* \"#utility.yul\":5221:5259   */\n      eq\n        /* \"#utility.yul\":5218:5220   */\n      iszero\n      tag_142\n      jumpi\n        /* \"#utility.yul\":5274:5292   */\n      tag_143\n      tag_144\n      jump\t// in\n    tag_143:\n        /* \"#utility.yul\":5218:5220   */\n    tag_142:\n        /* \"#utility.yul\":5039:5308   */\n      pop\n      swap2\n      swap1\n      pop\n      jump\t// out\n        /* \"#utility.yul\":5314:5595   */\n    tag_123:\n        /* \"#utility.yul\":5397:5424   */\n      tag_146\n        /* \"#utility.yul\":5419:5423   */\n      dup3\n        /* \"#utility.yul\":5397:5424   */\n      tag_116\n      jump\t// in\n    tag_146:\n        /* \"#utility.yul\":5389:5395   */\n      dup2\n        /* \"#utility.yul\":5385:5425   */\n      add\n        /* \"#utility.yul\":5527:5533   */\n      dup2\n        /* \"#utility.yul\":5515:5525   */\n      dup2\n        /* \"#utility.yul\":5512:5534   */\n      lt\n        /* \"#utility.yul\":5491:5509   */\n      0xffffffffffffffff\n        /* \"#utility.yul\":5479:5489   */\n      dup3\n        /* \"#utility.yul\":5476:5510   */\n      gt\n        /* \"#utility.yul\":5473:5535   */\n      or\n        /* \"#utility.yul\":5470:5472   */\n      iszero\n      tag_147\n      jumpi\n        /* \"#utility.yul\":5538:5556   */\n      tag_148\n      tag_128\n      jump\t// in\n    tag_148:\n        /* \"#utility.yul\":5470:5472   */\n    tag_147:\n        /* \"#utility.yul\":5578:5588   */\n      dup1\n        /* \"#utility.yul\":5574:5576   */\n      0x40\n        /* \"#utility.yul\":5567:5589   */\n      mstore\n        /* \"#utility.yul\":5357:5595   */\n      pop\n      pop\n      pop\n      jump\t// out\n        /* \"#utility.yul\":5601:5781   */\n    tag_144:\n        /* \"#utility.yul\":5649:5726   */\n      0x4e487b7100000000000000000000000000000000000000000000000000000000\n        /* \"#utility.yul\":5646:5647   */\n      0x00\n        /* \"#utility.yul\":5639:5727   */\n      mstore\n        /* \"#utility.yul\":5746:5750   */\n      0x22\n        /* \"#utility.yul\":5743:5744   */\n      0x04\n        /* \"#utility.yul\":5736:5751   */\n      mstore\n        /* \"#utility.yul\":5770:5774   */\n      0x24\n        /* \"#utility.yul\":5767:5768   */\n      0x00\n        /* \"#utility.yul\":5760:5775   */\n      revert\n        /* \"#utility.yul\":5787:5967   */\n    tag_128:\n        /* \"#utility.yul\":5835:5912   */\n      0x4e487b7100000000000000000000000000000000000000000000000000000000\n        /* \"#utility.yul\":5832:5833   */\n      0x00\n        /* \"#utility.yul\":5825:5913   */\n      mstore\n        /* \"#utility.yul\":5932:5936   */\n      0x41\n        /* \"#utility.yul\":5929:5930   */\n      0x04\n        /* \"#utility.yul\":5922:5937   */\n      mstore\n        /* \"#utility.yul\":5956:5960   */\n      0x24\n        /* \"#utility.yul\":5953:5954   */\n      0x00\n        /* \"#utility.yul\":5946:5961   */\n      revert\n        /* \"#utility.yul\":5973:6075   */\n    tag_116:\n      0x00\n        /* \"#utility.yul\":6065:6067   */\n      0x1f\n        /* \"#utility.yul\":6061:6068   */\n      not\n        /* \"#utility.yul\":6056:6058   */\n      0x1f\n        /* \"#utility.yul\":6049:6054   */\n      dup4\n        /* \"#utility.yul\":6045:6059   */\n      add\n        /* \"#utility.yul\":6041:6069   */\n      and\n        /* \"#utility.yul\":6031:6069   */\n      swap1\n      pop\n        /* \"#utility.yul\":6021:6075   */\n      swap2\n      swap1\n      pop\n      jump\t// out\n        /* \"#utility.yul\":6081:6203   */\n    tag_86:\n        /* \"#utility.yul\":6154:6178   */\n      tag_153\n        /* \"#utility.yul\":6172:6177   */\n      dup2\n        /* \"#utility.yul\":6154:6178   */\n      tag_132\n      jump\t// in\n    tag_153:\n        /* \"#utility.yul\":6147:6152   */\n      dup2\n        /* \"#utility.yul\":6144:6179   */\n      eq\n        /* \"#utility.yul\":6134:6136   */\n      tag_154\n      jumpi\n        /* \"#utility.yul\":6193:6194   */\n      0x00\n        /* \"#utility.yul\":6190:6191   */\n      dup1\n        /* \"#utility.yul\":6183:6195   */\n      revert\n        /* \"#utility.yul\":6134:6136   */\n    tag_154:\n        /* \"#utility.yul\":6124:6203   */\n      pop\n      jump\t// out\n\n    auxdata: 0xa2646970667358221220fa970e25f8698f31a5264293f70aa779d66f775d552d4bd862d06a8585fc2bba64736f6c63430008010033\n}\n",
				"bytecode": {
					"linkReferences": {},
					"object": "608060405234801561001057600080fd5b50610812806100206000396000f3fe608060405234801561001057600080fd5b506004361061004c5760003560e01c80631e98fd1c1461005157806323c674af146100815780638f3b1b91146100b1578063d51af2bf146100cd575b600080fd5b61006b6004803603810190610066919061048e565b6100e9565b6040516100789190610613565b60405180910390f35b61009b6004803603810190610096919061059e565b610189565b6040516100a89190610613565b60405180910390f35b6100cb60048036038101906100c6919061050b565b610242565b005b6100e760048036038101906100e291906104b7565b61027f565b005b60006020528060005260406000206000915090508054610108906106f3565b80601f0160208091040260200160405190810160405280929190818152602001828054610134906106f3565b80156101815780601f1061015657610100808354040283529160200191610181565b820191906000526020600020905b81548152906001019060200180831161016457829003601f168201915b505050505081565b600160205281600052604060002081815481106101a557600080fd5b906000526020600020016000915091505080546101c1906106f3565b80601f01602080910402602001604051908101604052809291908181526020018280546101ed906106f3565b801561023a5780601f1061020f5761010080835404028352916020019161023a565b820191906000526020600020905b81548152906001019060200180831161021d57829003601f168201915b505050505081565b604051806040016040528084815260200182815250600160008681526020019081526020016000209060026102789291906102aa565b5050505050565b8060008084815260200190815260200160002090805190602001906102a592919061030a565b505050565b8280548282559060005260206000209081019282156102f9579160200282015b828111156102f85782518290805190602001906102e892919061030a565b50916020019190600101906102ca565b5b5090506103069190610390565b5090565b828054610316906106f3565b90600052602060002090601f016020900481019282610338576000855561037f565b82601f1061035157805160ff191683800117855561037f565b8280016001018555821561037f579182015b8281111561037e578251825591602001919060010190610363565b5b50905061038c91906103b4565b5090565b5b808211156103b057600081816103a791906103d1565b50600101610391565b5090565b5b808211156103cd5760008160009055506001016103b5565b5090565b5080546103dd906106f3565b6000825580601f106103ef575061040e565b601f01602090049060005260206000209081019061040d91906103b4565b5b50565b600061042461041f8461065a565b610635565b90508281526020810184848401111561043c57600080fd5b6104478482856106b1565b509392505050565b600082601f83011261046057600080fd5b8135610470848260208601610411565b91505092915050565b600081359050610488816107c5565b92915050565b6000602082840312156104a057600080fd5b60006104ae84828501610479565b91505092915050565b600080604083850312156104ca57600080fd5b60006104d885828601610479565b925050602083013567ffffffffffffffff8111156104f557600080fd5b6105018582860161044f565b9150509250929050565b6000806000806080858703121561052157600080fd5b600061052f87828801610479565b945050602085013567ffffffffffffffff81111561054c57600080fd5b6105588782880161044f565b935050604061056987828801610479565b925050606085013567ffffffffffffffff81111561058657600080fd5b6105928782880161044f565b91505092959194509250565b600080604083850312156105b157600080fd5b60006105bf85828601610479565b92505060206105d085828601610479565b9150509250929050565b60006105e58261068b565b6105ef8185610696565b93506105ff8185602086016106c0565b610608816107b4565b840191505092915050565b6000602082019050818103600083015261062d81846105da565b905092915050565b600061063f610650565b905061064b8282610725565b919050565b6000604051905090565b600067ffffffffffffffff82111561067557610674610785565b5b61067e826107b4565b9050602081019050919050565b600081519050919050565b600082825260208201905092915050565b6000819050919050565b82818337600083830152505050565b60005b838110156106de5780820151818401526020810190506106c3565b838111156106ed576000848401525b50505050565b6000600282049050600182168061070b57607f821691505b6020821081141561071f5761071e610756565b5b50919050565b61072e826107b4565b810181811067ffffffffffffffff8211171561074d5761074c610785565b5b80604052505050565b7f4e487b7100000000000000000000000000000000000000000000000000000000600052602260045260246000fd5b7f4e487b7100000000000000000000000000000000000000000000000000000000600052604160045260246000fd5b6000601f19601f8301169050919050565b6107ce816106a7565b81146107d957600080fd5b5056fea2646970667358221220fa970e25f8698f31a5264293f70aa779d66f775d552d4bd862d06a8585fc2bba64736f6c63430008010033",
					"opcodes": "PUSH1 0x80 PUSH1 0x40 MSTORE CALLVALUE DUP1 ISZERO PUSH2 0x10 JUMPI PUSH1 0x0 DUP1 REVERT JUMPDEST POP PUSH2 0x812 DUP1 PUSH2 0x20 PUSH1 0x0 CODECOPY PUSH1 0x0 RETURN INVALID PUSH1 0x80 PUSH1 0x40 MSTORE CALLVALUE DUP1 ISZERO PUSH2 0x10 JUMPI PUSH1 0x0 DUP1 REVERT JUMPDEST POP PUSH1 0x4 CALLDATASIZE LT PUSH2 0x4C JUMPI PUSH1 0x0 CALLDATALOAD PUSH1 0xE0 SHR DUP1 PUSH4 0x1E98FD1C EQ PUSH2 0x51 JUMPI DUP1 PUSH4 0x23C674AF EQ PUSH2 0x81 JUMPI DUP1 PUSH4 0x8F3B1B91 EQ PUSH2 0xB1 JUMPI DUP1 PUSH4 0xD51AF2BF EQ PUSH2 0xCD JUMPI JUMPDEST PUSH1 0x0 DUP1 REVERT JUMPDEST PUSH2 0x6B PUSH1 0x4 DUP1 CALLDATASIZE SUB DUP2 ADD SWAP1 PUSH2 0x66 SWAP2 SWAP1 PUSH2 0x48E JUMP JUMPDEST PUSH2 0xE9 JUMP JUMPDEST PUSH1 0x40 MLOAD PUSH2 0x78 SWAP2 SWAP1 PUSH2 0x613 JUMP JUMPDEST PUSH1 0x40 MLOAD DUP1 SWAP2 SUB SWAP1 RETURN JUMPDEST PUSH2 0x9B PUSH1 0x4 DUP1 CALLDATASIZE SUB DUP2 ADD SWAP1 PUSH2 0x96 SWAP2 SWAP1 PUSH2 0x59E JUMP JUMPDEST PUSH2 0x189 JUMP JUMPDEST PUSH1 0x40 MLOAD PUSH2 0xA8 SWAP2 SWAP1 PUSH2 0x613 JUMP JUMPDEST PUSH1 0x40 MLOAD DUP1 SWAP2 SUB SWAP1 RETURN JUMPDEST PUSH2 0xCB PUSH1 0x4 DUP1 CALLDATASIZE SUB DUP2 ADD SWAP1 PUSH2 0xC6 SWAP2 SWAP1 PUSH2 0x50B JUMP JUMPDEST PUSH2 0x242 JUMP JUMPDEST STOP JUMPDEST PUSH2 0xE7 PUSH1 0x4 DUP1 CALLDATASIZE SUB DUP2 ADD SWAP1 PUSH2 0xE2 SWAP2 SWAP1 PUSH2 0x4B7 JUMP JUMPDEST PUSH2 0x27F JUMP JUMPDEST STOP JUMPDEST PUSH1 0x0 PUSH1 0x20 MSTORE DUP1 PUSH1 0x0 MSTORE PUSH1 0x40 PUSH1 0x0 KECCAK256 PUSH1 0x0 SWAP2 POP SWAP1 POP DUP1 SLOAD PUSH2 0x108 SWAP1 PUSH2 0x6F3 JUMP JUMPDEST DUP1 PUSH1 0x1F ADD PUSH1 0x20 DUP1 SWAP2 DIV MUL PUSH1 0x20 ADD PUSH1 0x40 MLOAD SWAP1 DUP2 ADD PUSH1 0x40 MSTORE DUP1 SWAP3 SWAP2 SWAP1 DUP2 DUP2 MSTORE PUSH1 0x20 ADD DUP3 DUP1 SLOAD PUSH2 0x134 SWAP1 PUSH2 0x6F3 JUMP JUMPDEST DUP1 ISZERO PUSH2 0x181 JUMPI DUP1 PUSH1 0x1F LT PUSH2 0x156 JUMPI PUSH2 0x100 DUP1 DUP4 SLOAD DIV MUL DUP4 MSTORE SWAP2 PUSH1 0x20 ADD SWAP2 PUSH2 0x181 JUMP JUMPDEST DUP3 ADD SWAP2 SWAP1 PUSH1 0x0 MSTORE PUSH1 0x20 PUSH1 0x0 KECCAK256 SWAP1 JUMPDEST DUP2 SLOAD DUP2 MSTORE SWAP1 PUSH1 0x1 ADD SWAP1 PUSH1 0x20 ADD DUP1 DUP4 GT PUSH2 0x164 JUMPI DUP3 SWAP1 SUB PUSH1 0x1F AND DUP3 ADD SWAP2 JUMPDEST POP POP POP POP POP DUP2 JUMP JUMPDEST PUSH1 0x1 PUSH1 0x20 MSTORE DUP2 PUSH1 0x0 MSTORE PUSH1 0x40 PUSH1 0x0 KECCAK256 DUP2 DUP2 SLOAD DUP2 LT PUSH2 0x1A5 JUMPI PUSH1 0x0 DUP1 REVERT JUMPDEST SWAP1 PUSH1 0x0 MSTORE PUSH1 0x20 PUSH1 0x0 KECCAK256 ADD PUSH1 0x0 SWAP2 POP SWAP2 POP POP DUP1 SLOAD PUSH2 0x1C1 SWAP1 PUSH2 0x6F3 JUMP JUMPDEST DUP1 PUSH1 0x1F ADD PUSH1 0x20 DUP1 SWAP2 DIV MUL PUSH1 0x20 ADD PUSH1 0x40 MLOAD SWAP1 DUP2 ADD PUSH1 0x40 MSTORE DUP1 SWAP3 SWAP2 SWAP1 DUP2 DUP2 MSTORE PUSH1 0x20 ADD DUP3 DUP1 SLOAD PUSH2 0x1ED SWAP1 PUSH2 0x6F3 JUMP JUMPDEST DUP1 ISZERO PUSH2 0x23A JUMPI DUP1 PUSH1 0x1F LT PUSH2 0x20F JUMPI PUSH2 0x100 DUP1 DUP4 SLOAD DIV MUL DUP4 MSTORE SWAP2 PUSH1 0x20 ADD SWAP2 PUSH2 0x23A JUMP JUMPDEST DUP3 ADD SWAP2 SWAP1 PUSH1 0x0 MSTORE PUSH1 0x20 PUSH1 0x0 KECCAK256 SWAP1 JUMPDEST DUP2 SLOAD DUP2 MSTORE SWAP1 PUSH1 0x1 ADD SWAP1 PUSH1 0x20 ADD DUP1 DUP4 GT PUSH2 0x21D JUMPI DUP3 SWAP1 SUB PUSH1 0x1F AND DUP3 ADD SWAP2 JUMPDEST POP POP POP POP POP DUP2 JUMP JUMPDEST PUSH1 0x40 MLOAD DUP1 PUSH1 0x40 ADD PUSH1 0x40 MSTORE DUP1 DUP5 DUP2 MSTORE PUSH1 0x20 ADD DUP3 DUP2 MSTORE POP PUSH1 0x1 PUSH1 0x0 DUP7 DUP2 MSTORE PUSH1 0x20 ADD SWAP1 DUP2 MSTORE PUSH1 0x20 ADD PUSH1 0x0 KECCAK256 SWAP1 PUSH1 0x2 PUSH2 0x278 SWAP3 SWAP2 SWAP1 PUSH2 0x2AA JUMP JUMPDEST POP POP POP POP POP JUMP JUMPDEST DUP1 PUSH1 0x0 DUP1 DUP5 DUP2 MSTORE PUSH1 0x20 ADD SWAP1 DUP2 MSTORE PUSH1 0x20 ADD PUSH1 0x0 KECCAK256 SWAP1 DUP1 MLOAD SWAP1 PUSH1 0x20 ADD SWAP1 PUSH2 0x2A5 SWAP3 SWAP2 SWAP1 PUSH2 0x30A JUMP JUMPDEST POP POP POP JUMP JUMPDEST DUP3 DUP1 SLOAD DUP3 DUP3 SSTORE SWAP1 PUSH1 0x0 MSTORE PUSH1 0x20 PUSH1 0x0 KECCAK256 SWAP1 DUP2 ADD SWAP3 DUP3 ISZERO PUSH2 0x2F9 JUMPI SWAP2 PUSH1 0x20 MUL DUP3 ADD JUMPDEST DUP3 DUP2 GT ISZERO PUSH2 0x2F8 JUMPI DUP3 MLOAD DUP3 SWAP1 DUP1 MLOAD SWAP1 PUSH1 0x20 ADD SWAP1 PUSH2 0x2E8 SWAP3 SWAP2 SWAP1 PUSH2 0x30A JUMP JUMPDEST POP SWAP2 PUSH1 0x20 ADD SWAP2 SWAP1 PUSH1 0x1 ADD SWAP1 PUSH2 0x2CA JUMP JUMPDEST JUMPDEST POP SWAP1 POP PUSH2 0x306 SWAP2 SWAP1 PUSH2 0x390 JUMP JUMPDEST POP SWAP1 JUMP JUMPDEST DUP3 DUP1 SLOAD PUSH2 0x316 SWAP1 PUSH2 0x6F3 JUMP JUMPDEST SWAP1 PUSH1 0x0 MSTORE PUSH1 0x20 PUSH1 0x0 KECCAK256 SWAP1 PUSH1 0x1F ADD PUSH1 0x20 SWAP1 DIV DUP2 ADD SWAP3 DUP3 PUSH2 0x338 JUMPI PUSH1 0x0 DUP6 SSTORE PUSH2 0x37F JUMP JUMPDEST DUP3 PUSH1 0x1F LT PUSH2 0x351 JUMPI DUP1 MLOAD PUSH1 0xFF NOT AND DUP4 DUP1 ADD OR DUP6 SSTORE PUSH2 0x37F JUMP JUMPDEST DUP3 DUP1 ADD PUSH1 0x1 ADD DUP6 SSTORE DUP3 ISZERO PUSH2 0x37F JUMPI SWAP2 DUP3 ADD JUMPDEST DUP3 DUP2 GT ISZERO PUSH2 0x37E JUMPI DUP3 MLOAD DUP3 SSTORE SWAP2 PUSH1 0x20 ADD SWAP2 SWAP1 PUSH1 0x1 ADD SWAP1 PUSH2 0x363 JUMP JUMPDEST JUMPDEST POP SWAP1 POP PUSH2 0x38C SWAP2 SWAP1 PUSH2 0x3B4 JUMP JUMPDEST POP SWAP1 JUMP JUMPDEST JUMPDEST DUP1 DUP3 GT ISZERO PUSH2 0x3B0 JUMPI PUSH1 0x0 DUP2 DUP2 PUSH2 0x3A7 SWAP2 SWAP1 PUSH2 0x3D1 JUMP JUMPDEST POP PUSH1 0x1 ADD PUSH2 0x391 JUMP JUMPDEST POP SWAP1 JUMP JUMPDEST JUMPDEST DUP1 DUP3 GT ISZERO PUSH2 0x3CD JUMPI PUSH1 0x0 DUP2 PUSH1 0x0 SWAP1 SSTORE POP PUSH1 0x1 ADD PUSH2 0x3B5 JUMP JUMPDEST POP SWAP1 JUMP JUMPDEST POP DUP1 SLOAD PUSH2 0x3DD SWAP1 PUSH2 0x6F3 JUMP JUMPDEST PUSH1 0x0 DUP3 SSTORE DUP1 PUSH1 0x1F LT PUSH2 0x3EF JUMPI POP PUSH2 0x40E JUMP JUMPDEST PUSH1 0x1F ADD PUSH1 0x20 SWAP1 DIV SWAP1 PUSH1 0x0 MSTORE PUSH1 0x20 PUSH1 0x0 KECCAK256 SWAP1 DUP2 ADD SWAP1 PUSH2 0x40D SWAP2 SWAP1 PUSH2 0x3B4 JUMP JUMPDEST JUMPDEST POP JUMP JUMPDEST PUSH1 0x0 PUSH2 0x424 PUSH2 0x41F DUP5 PUSH2 0x65A JUMP JUMPDEST PUSH2 0x635 JUMP JUMPDEST SWAP1 POP DUP3 DUP2 MSTORE PUSH1 0x20 DUP2 ADD DUP5 DUP5 DUP5 ADD GT ISZERO PUSH2 0x43C JUMPI PUSH1 0x0 DUP1 REVERT JUMPDEST PUSH2 0x447 DUP5 DUP3 DUP6 PUSH2 0x6B1 JUMP JUMPDEST POP SWAP4 SWAP3 POP POP POP JUMP JUMPDEST PUSH1 0x0 DUP3 PUSH1 0x1F DUP4 ADD SLT PUSH2 0x460 JUMPI PUSH1 0x0 DUP1 REVERT JUMPDEST DUP2 CALLDATALOAD PUSH2 0x470 DUP5 DUP3 PUSH1 0x20 DUP7 ADD PUSH2 0x411 JUMP JUMPDEST SWAP2 POP POP SWAP3 SWAP2 POP POP JUMP JUMPDEST PUSH1 0x0 DUP2 CALLDATALOAD SWAP1 POP PUSH2 0x488 DUP2 PUSH2 0x7C5 JUMP JUMPDEST SWAP3 SWAP2 POP POP JUMP JUMPDEST PUSH1 0x0 PUSH1 0x20 DUP3 DUP5 SUB SLT ISZERO PUSH2 0x4A0 JUMPI PUSH1 0x0 DUP1 REVERT JUMPDEST PUSH1 0x0 PUSH2 0x4AE DUP5 DUP3 DUP6 ADD PUSH2 0x479 JUMP JUMPDEST SWAP2 POP POP SWAP3 SWAP2 POP POP JUMP JUMPDEST PUSH1 0x0 DUP1 PUSH1 0x40 DUP4 DUP6 SUB SLT ISZERO PUSH2 0x4CA JUMPI PUSH1 0x0 DUP1 REVERT JUMPDEST PUSH1 0x0 PUSH2 0x4D8 DUP6 DUP3 DUP7 ADD PUSH2 0x479 JUMP JUMPDEST SWAP3 POP POP PUSH1 0x20 DUP4 ADD CALLDATALOAD PUSH8 0xFFFFFFFFFFFFFFFF DUP2 GT ISZERO PUSH2 0x4F5 JUMPI PUSH1 0x0 DUP1 REVERT JUMPDEST PUSH2 0x501 DUP6 DUP3 DUP7 ADD PUSH2 0x44F JUMP JUMPDEST SWAP2 POP POP SWAP3 POP SWAP3 SWAP1 POP JUMP JUMPDEST PUSH1 0x0 DUP1 PUSH1 0x0 DUP1 PUSH1 0x80 DUP6 DUP8 SUB SLT ISZERO PUSH2 0x521 JUMPI PUSH1 0x0 DUP1 REVERT JUMPDEST PUSH1 0x0 PUSH2 0x52F DUP8 DUP3 DUP9 ADD PUSH2 0x479 JUMP JUMPDEST SWAP5 POP POP PUSH1 0x20 DUP6 ADD CALLDATALOAD PUSH8 0xFFFFFFFFFFFFFFFF DUP2 GT ISZERO PUSH2 0x54C JUMPI PUSH1 0x0 DUP1 REVERT JUMPDEST PUSH2 0x558 DUP8 DUP3 DUP9 ADD PUSH2 0x44F JUMP JUMPDEST SWAP4 POP POP PUSH1 0x40 PUSH2 0x569 DUP8 DUP3 DUP9 ADD PUSH2 0x479 JUMP JUMPDEST SWAP3 POP POP PUSH1 0x60 DUP6 ADD CALLDATALOAD PUSH8 0xFFFFFFFFFFFFFFFF DUP2 GT ISZERO PUSH2 0x586 JUMPI PUSH1 0x0 DUP1 REVERT JUMPDEST PUSH2 0x592 DUP8 DUP3 DUP9 ADD PUSH2 0x44F JUMP JUMPDEST SWAP2 POP POP SWAP3 SWAP6 SWAP2 SWAP5 POP SWAP3 POP JUMP JUMPDEST PUSH1 0x0 DUP1 PUSH1 0x40 DUP4 DUP6 SUB SLT ISZERO PUSH2 0x5B1 JUMPI PUSH1 0x0 DUP1 REVERT JUMPDEST PUSH1 0x0 PUSH2 0x5BF DUP6 DUP3 DUP7 ADD PUSH2 0x479 JUMP JUMPDEST SWAP3 POP POP PUSH1 0x20 PUSH2 0x5D0 DUP6 DUP3 DUP7 ADD PUSH2 0x479 JUMP JUMPDEST SWAP2 POP POP SWAP3 POP SWAP3 SWAP1 POP JUMP JUMPDEST PUSH1 0x0 PUSH2 0x5E5 DUP3 PUSH2 0x68B JUMP JUMPDEST PUSH2 0x5EF DUP2 DUP6 PUSH2 0x696 JUMP JUMPDEST SWAP4 POP PUSH2 0x5FF DUP2 DUP6 PUSH1 0x20 DUP7 ADD PUSH2 0x6C0 JUMP JUMPDEST PUSH2 0x608 DUP2 PUSH2 0x7B4 JUMP JUMPDEST DUP5 ADD SWAP2 POP POP SWAP3 SWAP2 POP POP JUMP JUMPDEST PUSH1 0x0 PUSH1 0x20 DUP3 ADD SWAP1 POP DUP2 DUP2 SUB PUSH1 0x0 DUP4 ADD MSTORE PUSH2 0x62D DUP2 DUP5 PUSH2 0x5DA JUMP JUMPDEST SWAP1 POP SWAP3 SWAP2 POP POP JUMP JUMPDEST PUSH1 0x0 PUSH2 0x63F PUSH2 0x650 JUMP JUMPDEST SWAP1 POP PUSH2 0x64B DUP3 DUP3 PUSH2 0x725 JUMP JUMPDEST SWAP2 SWAP1 POP JUMP JUMPDEST PUSH1 0x0 PUSH1 0x40 MLOAD SWAP1 POP SWAP1 JUMP JUMPDEST PUSH1 0x0 PUSH8 0xFFFFFFFFFFFFFFFF DUP3 GT ISZERO PUSH2 0x675 JUMPI PUSH2 0x674 PUSH2 0x785 JUMP JUMPDEST JUMPDEST PUSH2 0x67E DUP3 PUSH2 0x7B4 JUMP JUMPDEST SWAP1 POP PUSH1 0x20 DUP2 ADD SWAP1 POP SWAP2 SWAP1 POP JUMP JUMPDEST PUSH1 0x0 DUP2 MLOAD SWAP1 POP SWAP2 SWAP1 POP JUMP JUMPDEST PUSH1 0x0 DUP3 DUP3 MSTORE PUSH1 0x20 DUP3 ADD SWAP1 POP SWAP3 SWAP2 POP POP JUMP JUMPDEST PUSH1 0x0 DUP2 SWAP1 POP SWAP2 SWAP1 POP JUMP JUMPDEST DUP3 DUP2 DUP4 CALLDATACOPY PUSH1 0x0 DUP4 DUP4 ADD MSTORE POP POP POP JUMP JUMPDEST PUSH1 0x0 JUMPDEST DUP4 DUP2 LT ISZERO PUSH2 0x6DE JUMPI DUP1 DUP3 ADD MLOAD DUP2 DUP5 ADD MSTORE PUSH1 0x20 DUP2 ADD SWAP1 POP PUSH2 0x6C3 JUMP JUMPDEST DUP4 DUP2 GT ISZERO PUSH2 0x6ED JUMPI PUSH1 0x0 DUP5 DUP5 ADD MSTORE JUMPDEST POP POP POP POP JUMP JUMPDEST PUSH1 0x0 PUSH1 0x2 DUP3 DIV SWAP1 POP PUSH1 0x1 DUP3 AND DUP1 PUSH2 0x70B JUMPI PUSH1 0x7F DUP3 AND SWAP2 POP JUMPDEST PUSH1 0x20 DUP3 LT DUP2 EQ ISZERO PUSH2 0x71F JUMPI PUSH2 0x71E PUSH2 0x756 JUMP JUMPDEST JUMPDEST POP SWAP2 SWAP1 POP JUMP JUMPDEST PUSH2 0x72E DUP3 PUSH2 0x7B4 JUMP JUMPDEST DUP2 ADD DUP2 DUP2 LT PUSH8 0xFFFFFFFFFFFFFFFF DUP3 GT OR ISZERO PUSH2 0x74D JUMPI PUSH2 0x74C PUSH2 0x785 JUMP JUMPDEST JUMPDEST DUP1 PUSH1 0x40 MSTORE POP POP POP JUMP JUMPDEST PUSH32 0x4E487B7100000000000000000000000000000000000000000000000000000000 PUSH1 0x0 MSTORE PUSH1 0x22 PUSH1 0x4 MSTORE PUSH1 0x24 PUSH1 0x0 REVERT JUMPDEST PUSH32 0x4E487B7100000000000000000000000000000000000000000000000000000000 PUSH1 0x0 MSTORE PUSH1 0x41 PUSH1 0x4 MSTORE PUSH1 0x24 PUSH1 0x0 REVERT JUMPDEST PUSH1 0x0 PUSH1 0x1F NOT PUSH1 0x1F DUP4 ADD AND SWAP1 POP SWAP2 SWAP1 POP JUMP JUMPDEST PUSH2 0x7CE DUP2 PUSH2 0x6A7 JUMP JUMPDEST DUP2 EQ PUSH2 0x7D9 JUMPI PUSH1 0x0 DUP1 REVERT JUMPDEST POP JUMP INVALID LOG2 PUSH5 0x6970667358 0x22 SLT KECCAK256 STATICCALL SWAP8 0xE 0x25 0xF8 PUSH10 0x8F31A5264293F70AA779 0xD6 PUSH16 0x775D552D4BD862D06A8585FC2BBA6473 PUSH16 0x6C634300080100330000000000000000 "
				},
				"gasEstimates": {
					"creation": {
						"codeDepositCost": "413200",
						"executionCost": "449",
						"totalCost": "413649"
					},
					"external": {
						"Assets(uint256,uint256)": "infinite",
						"Users(uint256)": "infinite",
						"addAsset(uint256,string,uint256,string)": "infinite",
						"addUser(uint256,string)": "infinite"
					}
				},
				"methodIdentifiers": {
					"Assets(uint256,uint256)": "23c674af",
					"Users(uint256)": "1e98fd1c",
					"addAsset(uint256,string,uint256,string)": "8f3b1b91",
					"addUser(uint256,string)": "d51af2bf"
				}
			},
			"storageLayout": {
				"storage": [
					{
						"astId": 5,
						"contract": "Auction.sol:Auction",
						"label": "Users",
						"offset": 0,
						"slot": "0",
						"type": "t_mapping(t_uint256,t_string_storage)"
					},
					{
						"astId": 10,
						"contract": "Auction.sol:Auction",
						"label": "Assets",
						"offset": 0,
						"slot": "1",
						"type": "t_mapping(t_uint256,t_array(t_string_storage)dyn_storage)"
					}
				],
				"types": {
					"t_array(t_string_storage)dyn_storage": {
						"base": "t_string_storage",
						"encoding": "dynamic_array",
						"label": "string[]",
						"numberOfBytes": "32"
					},
					"t_mapping(t_uint256,t_array(t_string_storage)dyn_storage)": {
						"encoding": "mapping",
						"key": "t_uint256",
						"label": "mapping(uint256 => string[])",
						"numberOfBytes": "32",
						"value": "t_array(t_string_storage)dyn_storage"
					},
					"t_mapping(t_uint256,t_string_storage)": {
						"encoding": "mapping",
						"key": "t_uint256",
						"label": "mapping(uint256 => string)",
						"numberOfBytes": "32",
						"value": "t_string_storage"
					},
					"t_string_storage": {
						"encoding": "bytes",
						"label": "string",
						"numberOfBytes": "32"
					},
					"t_uint256": {
						"encoding": "inplace",
						"label": "uint256",
						"numberOfBytes": "32"
					}
				}
			},
			"userdoc": {
				"kind": "user",
				"methods": {},
				"version": 1
			}
		}
	}
}