{
	"Auction.sol": {
		"Auction": {
			"abi": [
				{
					"inputs": [
						{
							"internalType": "uint256",
							"name": "",
							"type": "uint256"
						}
					],
					"name": "Assets",
					"outputs": [
						{
							"internalType": "string",
							"name": "AssetName",
							"type": "string"
						},
						{
							"internalType": "uint256",
							"name": "AssetSP",
							"type": "uint256"
						},
						{
							"internalType": "address",
							"name": "Owner",
							"type": "address"
						}
					],
					"stateMutability": "view",
					"type": "function"
				},
				{
					"inputs": [],
					"name": "Bidding",
					"outputs": [],
					"stateMutability": "nonpayable",
					"type": "function"
				},
				{
					"inputs": [],
					"name": "Result",
					"outputs": [],
					"stateMutability": "nonpayable",
					"type": "function"
				},
				{
					"inputs": [
						{
							"internalType": "address",
							"name": "",
							"type": "address"
						}
					],
					"name": "Users",
					"outputs": [
						{
							"internalType": "string",
							"name": "",
							"type": "string"
						}
					],
					"stateMutability": "view",
					"type": "function"
				},
				{
					"inputs": [
						{
							"internalType": "uint256",
							"name": "Id",
							"type": "uint256"
						},
						{
							"internalType": "string",
							"name": "Name",
							"type": "string"
						},
						{
							"internalType": "uint256",
							"name": "Price",
							"type": "uint256"
						},
						{
							"internalType": "address",
							"name": "Owner",
							"type": "address"
						}
					],
					"name": "addAsset",
					"outputs": [],
					"stateMutability": "nonpayable",
					"type": "function"
				},
				{
					"inputs": [
						{
							"internalType": "string",
							"name": "Name",
							"type": "string"
						}
					],
					"name": "addUser",
					"outputs": [],
					"stateMutability": "nonpayable",
					"type": "function"
				}
			],
			"devdoc": {
				"kind": "dev",
				"methods": {},
				"version": 1
			},
			"evm": {
				"assembly": "    /* \"Auction.sol\":65:616  contract Auction {\r... */\n  mstore(0x40, 0x80)\n  callvalue\n  dup1\n  iszero\n  tag_1\n  jumpi\n  0x00\n  dup1\n  revert\ntag_1:\n  pop\n  dataSize(sub_0)\n  dup1\n  dataOffset(sub_0)\n  0x00\n  codecopy\n  0x00\n  return\nstop\n\nsub_0: assembly {\n        /* \"Auction.sol\":65:616  contract Auction {\r... */\n      mstore(0x40, 0x80)\n      callvalue\n      dup1\n      iszero\n      tag_1\n      jumpi\n      0x00\n      dup1\n      revert\n    tag_1:\n      pop\n      jumpi(tag_2, lt(calldatasize, 0x04))\n      shr(0xe0, calldataload(0x00))\n      dup1\n      0x18b8275a\n      eq\n      tag_3\n      jumpi\n      dup1\n      0x3e8a0585\n      eq\n      tag_4\n      jumpi\n      dup1\n      0x4b4a80ba\n      eq\n      tag_5\n      jumpi\n      dup1\n      0x99b956a0\n      eq\n      tag_6\n      jumpi\n      dup1\n      0xe03b8ad9\n      eq\n      tag_7\n      jumpi\n      dup1\n      0xf4e5d599\n      eq\n      tag_8\n      jumpi\n    tag_2:\n      0x00\n      dup1\n      revert\n        /* \"Auction.sol\":287:374  function addUser(string memory Name) public {\r... */\n    tag_3:\n      tag_9\n      0x04\n      dup1\n      calldatasize\n      sub\n      dup2\n      add\n      swap1\n      tag_10\n      swap2\n      swap1\n      tag_11\n      jump\t// in\n    tag_10:\n      tag_12\n      jump\t// in\n    tag_9:\n      stop\n        /* \"Auction.sol\":528:566  function Bidding() public {\r... */\n    tag_4:\n      tag_13\n      tag_14\n      jump\t// in\n    tag_13:\n      stop\n        /* \"Auction.sol\":242:278  mapping(uint => Asset) public Assets */\n    tag_5:\n      tag_15\n      0x04\n      dup1\n      calldatasize\n      sub\n      dup2\n      add\n      swap1\n      tag_16\n      swap2\n      swap1\n      tag_17\n      jump\t// in\n    tag_16:\n      tag_18\n      jump\t// in\n    tag_15:\n      mload(0x40)\n      tag_19\n      swap4\n      swap3\n      swap2\n      swap1\n      tag_20\n      jump\t// in\n    tag_19:\n      mload(0x40)\n      dup1\n      swap2\n      sub\n      swap1\n      return\n        /* \"Auction.sol\":196:235  mapping(address => string) public Users */\n    tag_6:\n      tag_21\n      0x04\n      dup1\n      calldatasize\n      sub\n      dup2\n      add\n      swap1\n      tag_22\n      swap2\n      swap1\n      tag_23\n      jump\t// in\n    tag_22:\n      tag_24\n      jump\t// in\n    tag_21:\n      mload(0x40)\n      tag_25\n      swap2\n      swap1\n      tag_26\n      jump\t// in\n    tag_25:\n      mload(0x40)\n      dup1\n      swap2\n      sub\n      swap1\n      return\n        /* \"Auction.sol\":382:520  function addAsset(uint Id, string memory Name, uint Price, address Owner) public {\r... */\n    tag_7:\n      tag_27\n      0x04\n      dup1\n      calldatasize\n      sub\n      dup2\n      add\n      swap1\n      tag_28\n      swap2\n      swap1\n      tag_29\n      jump\t// in\n    tag_28:\n      tag_30\n      jump\t// in\n    tag_27:\n      stop\n        /* \"Auction.sol\":574:609  function Result() public {\r... */\n    tag_8:\n      tag_31\n      tag_32\n      jump\t// in\n    tag_31:\n      stop\n        /* \"Auction.sol\":287:374  function addUser(string memory Name) public {\r... */\n    tag_12:\n        /* \"Auction.sol\":362:366  Name */\n      dup1\n        /* \"Auction.sol\":342:347  Users */\n      0x00\n        /* \"Auction.sol\":342:359  Users[msg.sender] */\n      dup1\n        /* \"Auction.sol\":348:358  msg.sender */\n      caller\n        /* \"Auction.sol\":342:359  Users[msg.sender] */\n      0xffffffffffffffffffffffffffffffffffffffff\n      and\n      0xffffffffffffffffffffffffffffffffffffffff\n      and\n      dup2\n      mstore\n      0x20\n      add\n      swap1\n      dup2\n      mstore\n      0x20\n      add\n      0x00\n      keccak256\n        /* \"Auction.sol\":342:366  Users[msg.sender] = Name */\n      swap1\n      dup1\n      mload\n      swap1\n      0x20\n      add\n      swap1\n      tag_34\n      swap3\n      swap2\n      swap1\n      tag_35\n      jump\t// in\n    tag_34:\n      pop\n        /* \"Auction.sol\":287:374  function addUser(string memory Name) public {\r... */\n      pop\n      jump\t// out\n        /* \"Auction.sol\":528:566  function Bidding() public {\r... */\n    tag_14:\n      jump\t// out\n        /* \"Auction.sol\":242:278  mapping(uint => Asset) public Assets */\n    tag_18:\n      mstore(0x20, 0x01)\n      dup1\n      0x00\n      mstore\n      keccak256(0x00, 0x40)\n      0x00\n      swap2\n      pop\n      swap1\n      pop\n      dup1\n      0x00\n      add\n      dup1\n      sload\n      tag_37\n      swap1\n      tag_38\n      jump\t// in\n    tag_37:\n      dup1\n      0x1f\n      add\n      0x20\n      dup1\n      swap2\n      div\n      mul\n      0x20\n      add\n      mload(0x40)\n      swap1\n      dup2\n      add\n      0x40\n      mstore\n      dup1\n      swap3\n      swap2\n      swap1\n      dup2\n      dup2\n      mstore\n      0x20\n      add\n      dup3\n      dup1\n      sload\n      tag_39\n      swap1\n      tag_38\n      jump\t// in\n    tag_39:\n      dup1\n      iszero\n      tag_40\n      jumpi\n      dup1\n      0x1f\n      lt\n      tag_41\n      jumpi\n      0x0100\n      dup1\n      dup4\n      sload\n      div\n      mul\n      dup4\n      mstore\n      swap2\n      0x20\n      add\n      swap2\n      jump(tag_40)\n    tag_41:\n      dup3\n      add\n      swap2\n      swap1\n      0x00\n      mstore\n      keccak256(0x00, 0x20)\n      swap1\n    tag_42:\n      dup2\n      sload\n      dup2\n      mstore\n      swap1\n      0x01\n      add\n      swap1\n      0x20\n      add\n      dup1\n      dup4\n      gt\n      tag_42\n      jumpi\n      dup3\n      swap1\n      sub\n      0x1f\n      and\n      dup3\n      add\n      swap2\n    tag_40:\n      pop\n      pop\n      pop\n      pop\n      pop\n      swap1\n      dup1\n      0x01\n      add\n      sload\n      swap1\n      dup1\n      0x02\n      add\n      0x00\n      swap1\n      sload\n      swap1\n      0x0100\n      exp\n      swap1\n      div\n      0xffffffffffffffffffffffffffffffffffffffff\n      and\n      swap1\n      pop\n      dup4\n      jump\t// out\n        /* \"Auction.sol\":196:235  mapping(address => string) public Users */\n    tag_24:\n      mstore(0x20, 0x00)\n      dup1\n      0x00\n      mstore\n      keccak256(0x00, 0x40)\n      0x00\n      swap2\n      pop\n      swap1\n      pop\n      dup1\n      sload\n      tag_43\n      swap1\n      tag_38\n      jump\t// in\n    tag_43:\n      dup1\n      0x1f\n      add\n      0x20\n      dup1\n      swap2\n      div\n      mul\n      0x20\n      add\n      mload(0x40)\n      swap1\n      dup2\n      add\n      0x40\n      mstore\n      dup1\n      swap3\n      swap2\n      swap1\n      dup2\n      dup2\n      mstore\n      0x20\n      add\n      dup3\n      dup1\n      sload\n      tag_44\n      swap1\n      tag_38\n      jump\t// in\n    tag_44:\n      dup1\n      iszero\n      tag_45\n      jumpi\n      dup1\n      0x1f\n      lt\n      tag_46\n      jumpi\n      0x0100\n      dup1\n      dup4\n      sload\n      div\n      mul\n      dup4\n      mstore\n      swap2\n      0x20\n      add\n      swap2\n      jump(tag_45)\n    tag_46:\n      dup3\n      add\n      swap2\n      swap1\n      0x00\n      mstore\n      keccak256(0x00, 0x20)\n      swap1\n    tag_47:\n      dup2\n      sload\n      dup2\n      mstore\n      swap1\n      0x01\n      add\n      swap1\n      0x20\n      add\n      dup1\n      dup4\n      gt\n      tag_47\n      jumpi\n      dup3\n      swap1\n      sub\n      0x1f\n      and\n      dup3\n      add\n      swap2\n    tag_45:\n      pop\n      pop\n      pop\n      pop\n      pop\n      dup2\n      jump\t// out\n        /* \"Auction.sol\":382:520  function addAsset(uint Id, string memory Name, uint Price, address Owner) public {\r... */\n    tag_30:\n        /* \"Auction.sol\":487:512  Asset(Name, Price, Owner) */\n      mload(0x40)\n      dup1\n      0x60\n      add\n      0x40\n      mstore\n      dup1\n        /* \"Auction.sol\":493:497  Name */\n      dup5\n        /* \"Auction.sol\":487:512  Asset(Name, Price, Owner) */\n      dup2\n      mstore\n      0x20\n      add\n        /* \"Auction.sol\":499:504  Price */\n      dup4\n        /* \"Auction.sol\":487:512  Asset(Name, Price, Owner) */\n      dup2\n      mstore\n      0x20\n      add\n        /* \"Auction.sol\":506:511  Owner */\n      dup3\n        /* \"Auction.sol\":487:512  Asset(Name, Price, Owner) */\n      0xffffffffffffffffffffffffffffffffffffffff\n      and\n      dup2\n      mstore\n      pop\n        /* \"Auction.sol\":474:480  Assets */\n      0x01\n        /* \"Auction.sol\":474:484  Assets[Id] */\n      0x00\n        /* \"Auction.sol\":481:483  Id */\n      dup7\n        /* \"Auction.sol\":474:484  Assets[Id] */\n      dup2\n      mstore\n      0x20\n      add\n      swap1\n      dup2\n      mstore\n      0x20\n      add\n      0x00\n      keccak256\n        /* \"Auction.sol\":474:512  Assets[Id] = Asset(Name, Price, Owner) */\n      0x00\n      dup3\n      add\n      mload\n      dup2\n      0x00\n      add\n      swap1\n      dup1\n      mload\n      swap1\n      0x20\n      add\n      swap1\n      tag_49\n      swap3\n      swap2\n      swap1\n      tag_35\n      jump\t// in\n    tag_49:\n      pop\n      0x20\n      dup3\n      add\n      mload\n      dup2\n      0x01\n      add\n      sstore\n      0x40\n      dup3\n      add\n      mload\n      dup2\n      0x02\n      add\n      exp(0x0100, 0x00)\n      dup2\n      sload\n      dup2\n      0xffffffffffffffffffffffffffffffffffffffff\n      mul\n      not\n      and\n      swap1\n      dup4\n      0xffffffffffffffffffffffffffffffffffffffff\n      and\n      mul\n      or\n      swap1\n      sstore\n      pop\n      swap1\n      pop\n      pop\n        /* \"Auction.sol\":382:520  function addAsset(uint Id, string memory Name, uint Price, address Owner) public {\r... */\n      pop\n      pop\n      pop\n      pop\n      jump\t// out\n        /* \"Auction.sol\":574:609  function Result() public {\r... */\n    tag_32:\n      jump\t// out\n    tag_35:\n      dup3\n      dup1\n      sload\n      tag_51\n      swap1\n      tag_38\n      jump\t// in\n    tag_51:\n      swap1\n      0x00\n      mstore\n      keccak256(0x00, 0x20)\n      swap1\n      0x1f\n      add\n      0x20\n      swap1\n      div\n      dup2\n      add\n      swap3\n      dup3\n      tag_53\n      jumpi\n      0x00\n      dup6\n      sstore\n      jump(tag_52)\n    tag_53:\n      dup3\n      0x1f\n      lt\n      tag_54\n      jumpi\n      dup1\n      mload\n      not(0xff)\n      and\n      dup4\n      dup1\n      add\n      or\n      dup6\n      sstore\n      jump(tag_52)\n    tag_54:\n      dup3\n      dup1\n      add\n      0x01\n      add\n      dup6\n      sstore\n      dup3\n      iszero\n      tag_52\n      jumpi\n      swap2\n      dup3\n      add\n    tag_55:\n      dup3\n      dup2\n      gt\n      iszero\n      tag_56\n      jumpi\n      dup3\n      mload\n      dup3\n      sstore\n      swap2\n      0x20\n      add\n      swap2\n      swap1\n      0x01\n      add\n      swap1\n      jump(tag_55)\n    tag_56:\n    tag_52:\n      pop\n      swap1\n      pop\n      tag_57\n      swap2\n      swap1\n      tag_58\n      jump\t// in\n    tag_57:\n      pop\n      swap1\n      jump\t// out\n    tag_58:\n    tag_59:\n      dup1\n      dup3\n      gt\n      iszero\n      tag_60\n      jumpi\n      0x00\n      dup2\n      0x00\n      swap1\n      sstore\n      pop\n      0x01\n      add\n      jump(tag_59)\n    tag_60:\n      pop\n      swap1\n      jump\t// out\n        /* \"#utility.yul\":7:352   */\n    tag_62:\n      0x00\n        /* \"#utility.yul\":110:176   */\n      tag_64\n        /* \"#utility.yul\":126:175   */\n      tag_65\n        /* \"#utility.yul\":168:174   */\n      dup5\n        /* \"#utility.yul\":126:175   */\n      tag_66\n      jump\t// in\n    tag_65:\n        /* \"#utility.yul\":110:176   */\n      tag_67\n      jump\t// in\n    tag_64:\n        /* \"#utility.yul\":101:176   */\n      swap1\n      pop\n        /* \"#utility.yul\":199:205   */\n      dup3\n        /* \"#utility.yul\":192:197   */\n      dup2\n        /* \"#utility.yul\":185:206   */\n      mstore\n        /* \"#utility.yul\":237:241   */\n      0x20\n        /* \"#utility.yul\":230:235   */\n      dup2\n        /* \"#utility.yul\":226:242   */\n      add\n        /* \"#utility.yul\":275:278   */\n      dup5\n        /* \"#utility.yul\":266:272   */\n      dup5\n        /* \"#utility.yul\":261:264   */\n      dup5\n        /* \"#utility.yul\":257:273   */\n      add\n        /* \"#utility.yul\":254:279   */\n      gt\n        /* \"#utility.yul\":251:253   */\n      iszero\n      tag_68\n      jumpi\n        /* \"#utility.yul\":292:293   */\n      0x00\n        /* \"#utility.yul\":289:290   */\n      dup1\n        /* \"#utility.yul\":282:294   */\n      revert\n        /* \"#utility.yul\":251:253   */\n    tag_68:\n        /* \"#utility.yul\":305:346   */\n      tag_69\n        /* \"#utility.yul\":339:345   */\n      dup5\n        /* \"#utility.yul\":334:337   */\n      dup3\n        /* \"#utility.yul\":329:332   */\n      dup6\n        /* \"#utility.yul\":305:346   */\n      tag_70\n      jump\t// in\n    tag_69:\n        /* \"#utility.yul\":91:352   */\n      pop\n      swap4\n      swap3\n      pop\n      pop\n      pop\n      jump\t// out\n        /* \"#utility.yul\":358:497   */\n    tag_71:\n      0x00\n        /* \"#utility.yul\":442:448   */\n      dup2\n        /* \"#utility.yul\":429:449   */\n      calldataload\n        /* \"#utility.yul\":420:449   */\n      swap1\n      pop\n        /* \"#utility.yul\":458:491   */\n      tag_73\n        /* \"#utility.yul\":485:490   */\n      dup2\n        /* \"#utility.yul\":458:491   */\n      tag_74\n      jump\t// in\n    tag_73:\n        /* \"#utility.yul\":410:497   */\n      swap3\n      swap2\n      pop\n      pop\n      jump\t// out\n        /* \"#utility.yul\":517:790   */\n    tag_75:\n      0x00\n        /* \"#utility.yul\":622:625   */\n      dup3\n        /* \"#utility.yul\":615:619   */\n      0x1f\n        /* \"#utility.yul\":607:613   */\n      dup4\n        /* \"#utility.yul\":603:620   */\n      add\n        /* \"#utility.yul\":599:626   */\n      slt\n        /* \"#utility.yul\":589:591   */\n      tag_77\n      jumpi\n        /* \"#utility.yul\":640:641   */\n      0x00\n        /* \"#utility.yul\":637:638   */\n      dup1\n        /* \"#utility.yul\":630:642   */\n      revert\n        /* \"#utility.yul\":589:591   */\n    tag_77:\n        /* \"#utility.yul\":680:686   */\n      dup2\n        /* \"#utility.yul\":667:687   */\n      calldataload\n        /* \"#utility.yul\":705:784   */\n      tag_78\n        /* \"#utility.yul\":780:783   */\n      dup5\n        /* \"#utility.yul\":772:778   */\n      dup3\n        /* \"#utility.yul\":765:769   */\n      0x20\n        /* \"#utility.yul\":757:763   */\n      dup7\n        /* \"#utility.yul\":753:770   */\n      add\n        /* \"#utility.yul\":705:784   */\n      tag_62\n      jump\t// in\n    tag_78:\n        /* \"#utility.yul\":696:784   */\n      swap2\n      pop\n        /* \"#utility.yul\":579:790   */\n      pop\n      swap3\n      swap2\n      pop\n      pop\n      jump\t// out\n        /* \"#utility.yul\":796:935   */\n    tag_79:\n      0x00\n        /* \"#utility.yul\":880:886   */\n      dup2\n        /* \"#utility.yul\":867:887   */\n      calldataload\n        /* \"#utility.yul\":858:887   */\n      swap1\n      pop\n        /* \"#utility.yul\":896:929   */\n      tag_81\n        /* \"#utility.yul\":923:928   */\n      dup2\n        /* \"#utility.yul\":896:929   */\n      tag_82\n      jump\t// in\n    tag_81:\n        /* \"#utility.yul\":848:935   */\n      swap3\n      swap2\n      pop\n      pop\n      jump\t// out\n        /* \"#utility.yul\":941:1203   */\n    tag_23:\n      0x00\n        /* \"#utility.yul\":1049:1051   */\n      0x20\n        /* \"#utility.yul\":1037:1046   */\n      dup3\n        /* \"#utility.yul\":1028:1035   */\n      dup5\n        /* \"#utility.yul\":1024:1047   */\n      sub\n        /* \"#utility.yul\":1020:1052   */\n      slt\n        /* \"#utility.yul\":1017:1019   */\n      iszero\n      tag_84\n      jumpi\n        /* \"#utility.yul\":1065:1066   */\n      0x00\n        /* \"#utility.yul\":1062:1063   */\n      dup1\n        /* \"#utility.yul\":1055:1067   */\n      revert\n        /* \"#utility.yul\":1017:1019   */\n    tag_84:\n        /* \"#utility.yul\":1108:1109   */\n      0x00\n        /* \"#utility.yul\":1133:1186   */\n      tag_85\n        /* \"#utility.yul\":1178:1185   */\n      dup5\n        /* \"#utility.yul\":1169:1175   */\n      dup3\n        /* \"#utility.yul\":1158:1167   */\n      dup6\n        /* \"#utility.yul\":1154:1176   */\n      add\n        /* \"#utility.yul\":1133:1186   */\n      tag_71\n      jump\t// in\n    tag_85:\n        /* \"#utility.yul\":1123:1186   */\n      swap2\n      pop\n        /* \"#utility.yul\":1079:1196   */\n      pop\n        /* \"#utility.yul\":1007:1203   */\n      swap3\n      swap2\n      pop\n      pop\n      jump\t// out\n        /* \"#utility.yul\":1209:1584   */\n    tag_11:\n      0x00\n        /* \"#utility.yul\":1327:1329   */\n      0x20\n        /* \"#utility.yul\":1315:1324   */\n      dup3\n        /* \"#utility.yul\":1306:1313   */\n      dup5\n        /* \"#utility.yul\":1302:1325   */\n      sub\n        /* \"#utility.yul\":1298:1330   */\n      slt\n        /* \"#utility.yul\":1295:1297   */\n      iszero\n      tag_87\n      jumpi\n        /* \"#utility.yul\":1343:1344   */\n      0x00\n        /* \"#utility.yul\":1340:1341   */\n      dup1\n        /* \"#utility.yul\":1333:1345   */\n      revert\n        /* \"#utility.yul\":1295:1297   */\n    tag_87:\n        /* \"#utility.yul\":1414:1415   */\n      0x00\n        /* \"#utility.yul\":1403:1412   */\n      dup3\n        /* \"#utility.yul\":1399:1416   */\n      add\n        /* \"#utility.yul\":1386:1417   */\n      calldataload\n        /* \"#utility.yul\":1444:1462   */\n      0xffffffffffffffff\n        /* \"#utility.yul\":1436:1442   */\n      dup2\n        /* \"#utility.yul\":1433:1463   */\n      gt\n        /* \"#utility.yul\":1430:1432   */\n      iszero\n      tag_88\n      jumpi\n        /* \"#utility.yul\":1476:1477   */\n      0x00\n        /* \"#utility.yul\":1473:1474   */\n      dup1\n        /* \"#utility.yul\":1466:1478   */\n      revert\n        /* \"#utility.yul\":1430:1432   */\n    tag_88:\n        /* \"#utility.yul\":1504:1567   */\n      tag_89\n        /* \"#utility.yul\":1559:1566   */\n      dup5\n        /* \"#utility.yul\":1550:1556   */\n      dup3\n        /* \"#utility.yul\":1539:1548   */\n      dup6\n        /* \"#utility.yul\":1535:1557   */\n      add\n        /* \"#utility.yul\":1504:1567   */\n      tag_75\n      jump\t// in\n    tag_89:\n        /* \"#utility.yul\":1494:1567   */\n      swap2\n      pop\n        /* \"#utility.yul\":1357:1577   */\n      pop\n        /* \"#utility.yul\":1285:1584   */\n      swap3\n      swap2\n      pop\n      pop\n      jump\t// out\n        /* \"#utility.yul\":1590:1852   */\n    tag_17:\n      0x00\n        /* \"#utility.yul\":1698:1700   */\n      0x20\n        /* \"#utility.yul\":1686:1695   */\n      dup3\n        /* \"#utility.yul\":1677:1684   */\n      dup5\n        /* \"#utility.yul\":1673:1696   */\n      sub\n        /* \"#utility.yul\":1669:1701   */\n      slt\n        /* \"#utility.yul\":1666:1668   */\n      iszero\n      tag_91\n      jumpi\n        /* \"#utility.yul\":1714:1715   */\n      0x00\n        /* \"#utility.yul\":1711:1712   */\n      dup1\n        /* \"#utility.yul\":1704:1716   */\n      revert\n        /* \"#utility.yul\":1666:1668   */\n    tag_91:\n        /* \"#utility.yul\":1757:1758   */\n      0x00\n        /* \"#utility.yul\":1782:1835   */\n      tag_92\n        /* \"#utility.yul\":1827:1834   */\n      dup5\n        /* \"#utility.yul\":1818:1824   */\n      dup3\n        /* \"#utility.yul\":1807:1816   */\n      dup6\n        /* \"#utility.yul\":1803:1825   */\n      add\n        /* \"#utility.yul\":1782:1835   */\n      tag_79\n      jump\t// in\n    tag_92:\n        /* \"#utility.yul\":1772:1835   */\n      swap2\n      pop\n        /* \"#utility.yul\":1728:1845   */\n      pop\n        /* \"#utility.yul\":1656:1852   */\n      swap3\n      swap2\n      pop\n      pop\n      jump\t// out\n        /* \"#utility.yul\":1858:2669   */\n    tag_29:\n      0x00\n      dup1\n      0x00\n      dup1\n        /* \"#utility.yul\":2027:2030   */\n      0x80\n        /* \"#utility.yul\":2015:2024   */\n      dup6\n        /* \"#utility.yul\":2006:2013   */\n      dup8\n        /* \"#utility.yul\":2002:2025   */\n      sub\n        /* \"#utility.yul\":1998:2031   */\n      slt\n        /* \"#utility.yul\":1995:1997   */\n      iszero\n      tag_94\n      jumpi\n        /* \"#utility.yul\":2044:2045   */\n      0x00\n        /* \"#utility.yul\":2041:2042   */\n      dup1\n        /* \"#utility.yul\":2034:2046   */\n      revert\n        /* \"#utility.yul\":1995:1997   */\n    tag_94:\n        /* \"#utility.yul\":2087:2088   */\n      0x00\n        /* \"#utility.yul\":2112:2165   */\n      tag_95\n        /* \"#utility.yul\":2157:2164   */\n      dup8\n        /* \"#utility.yul\":2148:2154   */\n      dup3\n        /* \"#utility.yul\":2137:2146   */\n      dup9\n        /* \"#utility.yul\":2133:2155   */\n      add\n        /* \"#utility.yul\":2112:2165   */\n      tag_79\n      jump\t// in\n    tag_95:\n        /* \"#utility.yul\":2102:2165   */\n      swap5\n      pop\n        /* \"#utility.yul\":2058:2175   */\n      pop\n        /* \"#utility.yul\":2242:2244   */\n      0x20\n        /* \"#utility.yul\":2231:2240   */\n      dup6\n        /* \"#utility.yul\":2227:2245   */\n      add\n        /* \"#utility.yul\":2214:2246   */\n      calldataload\n        /* \"#utility.yul\":2273:2291   */\n      0xffffffffffffffff\n        /* \"#utility.yul\":2265:2271   */\n      dup2\n        /* \"#utility.yul\":2262:2292   */\n      gt\n        /* \"#utility.yul\":2259:2261   */\n      iszero\n      tag_96\n      jumpi\n        /* \"#utility.yul\":2305:2306   */\n      0x00\n        /* \"#utility.yul\":2302:2303   */\n      dup1\n        /* \"#utility.yul\":2295:2307   */\n      revert\n        /* \"#utility.yul\":2259:2261   */\n    tag_96:\n        /* \"#utility.yul\":2333:2396   */\n      tag_97\n        /* \"#utility.yul\":2388:2395   */\n      dup8\n        /* \"#utility.yul\":2379:2385   */\n      dup3\n        /* \"#utility.yul\":2368:2377   */\n      dup9\n        /* \"#utility.yul\":2364:2386   */\n      add\n        /* \"#utility.yul\":2333:2396   */\n      tag_75\n      jump\t// in\n    tag_97:\n        /* \"#utility.yul\":2323:2396   */\n      swap4\n      pop\n        /* \"#utility.yul\":2185:2406   */\n      pop\n        /* \"#utility.yul\":2445:2447   */\n      0x40\n        /* \"#utility.yul\":2471:2524   */\n      tag_98\n        /* \"#utility.yul\":2516:2523   */\n      dup8\n        /* \"#utility.yul\":2507:2513   */\n      dup3\n        /* \"#utility.yul\":2496:2505   */\n      dup9\n        /* \"#utility.yul\":2492:2514   */\n      add\n        /* \"#utility.yul\":2471:2524   */\n      tag_79\n      jump\t// in\n    tag_98:\n        /* \"#utility.yul\":2461:2524   */\n      swap3\n      pop\n        /* \"#utility.yul\":2416:2534   */\n      pop\n        /* \"#utility.yul\":2573:2575   */\n      0x60\n        /* \"#utility.yul\":2599:2652   */\n      tag_99\n        /* \"#utility.yul\":2644:2651   */\n      dup8\n        /* \"#utility.yul\":2635:2641   */\n      dup3\n        /* \"#utility.yul\":2624:2633   */\n      dup9\n        /* \"#utility.yul\":2620:2642   */\n      add\n        /* \"#utility.yul\":2599:2652   */\n      tag_71\n      jump\t// in\n    tag_99:\n        /* \"#utility.yul\":2589:2652   */\n      swap2\n      pop\n        /* \"#utility.yul\":2544:2662   */\n      pop\n        /* \"#utility.yul\":1985:2669   */\n      swap3\n      swap6\n      swap2\n      swap5\n      pop\n      swap3\n      pop\n      jump\t// out\n        /* \"#utility.yul\":2675:2793   */\n    tag_100:\n        /* \"#utility.yul\":2762:2786   */\n      tag_102\n        /* \"#utility.yul\":2780:2785   */\n      dup2\n        /* \"#utility.yul\":2762:2786   */\n      tag_103\n      jump\t// in\n    tag_102:\n        /* \"#utility.yul\":2757:2760   */\n      dup3\n        /* \"#utility.yul\":2750:2787   */\n      mstore\n        /* \"#utility.yul\":2740:2793   */\n      pop\n      pop\n      jump\t// out\n        /* \"#utility.yul\":2799:3163   */\n    tag_104:\n      0x00\n        /* \"#utility.yul\":2915:2954   */\n      tag_106\n        /* \"#utility.yul\":2948:2953   */\n      dup3\n        /* \"#utility.yul\":2915:2954   */\n      tag_107\n      jump\t// in\n    tag_106:\n        /* \"#utility.yul\":2970:3041   */\n      tag_108\n        /* \"#utility.yul\":3034:3040   */\n      dup2\n        /* \"#utility.yul\":3029:3032   */\n      dup6\n        /* \"#utility.yul\":2970:3041   */\n      tag_109\n      jump\t// in\n    tag_108:\n        /* \"#utility.yul\":2963:3041   */\n      swap4\n      pop\n        /* \"#utility.yul\":3050:3102   */\n      tag_110\n        /* \"#utility.yul\":3095:3101   */\n      dup2\n        /* \"#utility.yul\":3090:3093   */\n      dup6\n        /* \"#utility.yul\":3083:3087   */\n      0x20\n        /* \"#utility.yul\":3076:3081   */\n      dup7\n        /* \"#utility.yul\":3072:3088   */\n      add\n        /* \"#utility.yul\":3050:3102   */\n      tag_111\n      jump\t// in\n    tag_110:\n        /* \"#utility.yul\":3127:3156   */\n      tag_112\n        /* \"#utility.yul\":3149:3155   */\n      dup2\n        /* \"#utility.yul\":3127:3156   */\n      tag_113\n      jump\t// in\n    tag_112:\n        /* \"#utility.yul\":3122:3125   */\n      dup5\n        /* \"#utility.yul\":3118:3157   */\n      add\n        /* \"#utility.yul\":3111:3157   */\n      swap2\n      pop\n        /* \"#utility.yul\":2891:3163   */\n      pop\n      swap3\n      swap2\n      pop\n      pop\n      jump\t// out\n        /* \"#utility.yul\":3169:3287   */\n    tag_114:\n        /* \"#utility.yul\":3256:3280   */\n      tag_116\n        /* \"#utility.yul\":3274:3279   */\n      dup2\n        /* \"#utility.yul\":3256:3280   */\n      tag_117\n      jump\t// in\n    tag_116:\n        /* \"#utility.yul\":3251:3254   */\n      dup3\n        /* \"#utility.yul\":3244:3281   */\n      mstore\n        /* \"#utility.yul\":3234:3287   */\n      pop\n      pop\n      jump\t// out\n        /* \"#utility.yul\":3293:3606   */\n    tag_26:\n      0x00\n        /* \"#utility.yul\":3444:3446   */\n      0x20\n        /* \"#utility.yul\":3433:3442   */\n      dup3\n        /* \"#utility.yul\":3429:3447   */\n      add\n        /* \"#utility.yul\":3421:3447   */\n      swap1\n      pop\n        /* \"#utility.yul\":3493:3502   */\n      dup2\n        /* \"#utility.yul\":3487:3491   */\n      dup2\n        /* \"#utility.yul\":3483:3503   */\n      sub\n        /* \"#utility.yul\":3479:3480   */\n      0x00\n        /* \"#utility.yul\":3468:3477   */\n      dup4\n        /* \"#utility.yul\":3464:3481   */\n      add\n        /* \"#utility.yul\":3457:3504   */\n      mstore\n        /* \"#utility.yul\":3521:3599   */\n      tag_119\n        /* \"#utility.yul\":3594:3598   */\n      dup2\n        /* \"#utility.yul\":3585:3591   */\n      dup5\n        /* \"#utility.yul\":3521:3599   */\n      tag_104\n      jump\t// in\n    tag_119:\n        /* \"#utility.yul\":3513:3599   */\n      swap1\n      pop\n        /* \"#utility.yul\":3411:3606   */\n      swap3\n      swap2\n      pop\n      pop\n      jump\t// out\n        /* \"#utility.yul\":3612:4145   */\n    tag_20:\n      0x00\n        /* \"#utility.yul\":3819:3821   */\n      0x60\n        /* \"#utility.yul\":3808:3817   */\n      dup3\n        /* \"#utility.yul\":3804:3822   */\n      add\n        /* \"#utility.yul\":3796:3822   */\n      swap1\n      pop\n        /* \"#utility.yul\":3868:3877   */\n      dup2\n        /* \"#utility.yul\":3862:3866   */\n      dup2\n        /* \"#utility.yul\":3858:3878   */\n      sub\n        /* \"#utility.yul\":3854:3855   */\n      0x00\n        /* \"#utility.yul\":3843:3852   */\n      dup4\n        /* \"#utility.yul\":3839:3856   */\n      add\n        /* \"#utility.yul\":3832:3879   */\n      mstore\n        /* \"#utility.yul\":3896:3974   */\n      tag_121\n        /* \"#utility.yul\":3969:3973   */\n      dup2\n        /* \"#utility.yul\":3960:3966   */\n      dup7\n        /* \"#utility.yul\":3896:3974   */\n      tag_104\n      jump\t// in\n    tag_121:\n        /* \"#utility.yul\":3888:3974   */\n      swap1\n      pop\n        /* \"#utility.yul\":3984:4056   */\n      tag_122\n        /* \"#utility.yul\":4052:4054   */\n      0x20\n        /* \"#utility.yul\":4041:4050   */\n      dup4\n        /* \"#utility.yul\":4037:4055   */\n      add\n        /* \"#utility.yul\":4028:4034   */\n      dup6\n        /* \"#utility.yul\":3984:4056   */\n      tag_114\n      jump\t// in\n    tag_122:\n        /* \"#utility.yul\":4066:4138   */\n      tag_123\n        /* \"#utility.yul\":4134:4136   */\n      0x40\n        /* \"#utility.yul\":4123:4132   */\n      dup4\n        /* \"#utility.yul\":4119:4137   */\n      add\n        /* \"#utility.yul\":4110:4116   */\n      dup5\n        /* \"#utility.yul\":4066:4138   */\n      tag_100\n      jump\t// in\n    tag_123:\n        /* \"#utility.yul\":3786:4145   */\n      swap5\n      swap4\n      pop\n      pop\n      pop\n      pop\n      jump\t// out\n        /* \"#utility.yul\":4151:4280   */\n    tag_67:\n      0x00\n        /* \"#utility.yul\":4212:4232   */\n      tag_125\n      tag_126\n      jump\t// in\n    tag_125:\n        /* \"#utility.yul\":4202:4232   */\n      swap1\n      pop\n        /* \"#utility.yul\":4241:4274   */\n      tag_127\n        /* \"#utility.yul\":4269:4273   */\n      dup3\n        /* \"#utility.yul\":4261:4267   */\n      dup3\n        /* \"#utility.yul\":4241:4274   */\n      tag_128\n      jump\t// in\n    tag_127:\n        /* \"#utility.yul\":4192:4280   */\n      swap2\n      swap1\n      pop\n      jump\t// out\n        /* \"#utility.yul\":4286:4361   */\n    tag_126:\n      0x00\n        /* \"#utility.yul\":4352:4354   */\n      0x40\n        /* \"#utility.yul\":4346:4355   */\n      mload\n        /* \"#utility.yul\":4336:4355   */\n      swap1\n      pop\n        /* \"#utility.yul\":4326:4361   */\n      swap1\n      jump\t// out\n        /* \"#utility.yul\":4367:4675   */\n    tag_66:\n      0x00\n        /* \"#utility.yul\":4519:4537   */\n      0xffffffffffffffff\n        /* \"#utility.yul\":4511:4517   */\n      dup3\n        /* \"#utility.yul\":4508:4538   */\n      gt\n        /* \"#utility.yul\":4505:4507   */\n      iszero\n      tag_131\n      jumpi\n        /* \"#utility.yul\":4541:4559   */\n      tag_132\n      tag_133\n      jump\t// in\n    tag_132:\n        /* \"#utility.yul\":4505:4507   */\n    tag_131:\n        /* \"#utility.yul\":4579:4608   */\n      tag_134\n        /* \"#utility.yul\":4601:4607   */\n      dup3\n        /* \"#utility.yul\":4579:4608   */\n      tag_113\n      jump\t// in\n    tag_134:\n        /* \"#utility.yul\":4571:4608   */\n      swap1\n      pop\n        /* \"#utility.yul\":4663:4667   */\n      0x20\n        /* \"#utility.yul\":4657:4661   */\n      dup2\n        /* \"#utility.yul\":4653:4668   */\n      add\n        /* \"#utility.yul\":4645:4668   */\n      swap1\n      pop\n        /* \"#utility.yul\":4434:4675   */\n      swap2\n      swap1\n      pop\n      jump\t// out\n        /* \"#utility.yul\":4681:4780   */\n    tag_107:\n      0x00\n        /* \"#utility.yul\":4767:4772   */\n      dup2\n        /* \"#utility.yul\":4761:4773   */\n      mload\n        /* \"#utility.yul\":4751:4773   */\n      swap1\n      pop\n        /* \"#utility.yul\":4740:4780   */\n      swap2\n      swap1\n      pop\n      jump\t// out\n        /* \"#utility.yul\":4786:4955   */\n    tag_109:\n      0x00\n        /* \"#utility.yul\":4904:4910   */\n      dup3\n        /* \"#utility.yul\":4899:4902   */\n      dup3\n        /* \"#utility.yul\":4892:4911   */\n      mstore\n        /* \"#utility.yul\":4944:4948   */\n      0x20\n        /* \"#utility.yul\":4939:4942   */\n      dup3\n        /* \"#utility.yul\":4935:4949   */\n      add\n        /* \"#utility.yul\":4920:4949   */\n      swap1\n      pop\n        /* \"#utility.yul\":4882:4955   */\n      swap3\n      swap2\n      pop\n      pop\n      jump\t// out\n        /* \"#utility.yul\":4961:5057   */\n    tag_103:\n      0x00\n        /* \"#utility.yul\":5027:5051   */\n      tag_138\n        /* \"#utility.yul\":5045:5050   */\n      dup3\n        /* \"#utility.yul\":5027:5051   */\n      tag_139\n      jump\t// in\n    tag_138:\n        /* \"#utility.yul\":5016:5051   */\n      swap1\n      pop\n        /* \"#utility.yul\":5006:5057   */\n      swap2\n      swap1\n      pop\n      jump\t// out\n        /* \"#utility.yul\":5063:5189   */\n    tag_139:\n      0x00\n        /* \"#utility.yul\":5140:5182   */\n      0xffffffffffffffffffffffffffffffffffffffff\n        /* \"#utility.yul\":5133:5138   */\n      dup3\n        /* \"#utility.yul\":5129:5183   */\n      and\n        /* \"#utility.yul\":5118:5183   */\n      swap1\n      pop\n        /* \"#utility.yul\":5108:5189   */\n      swap2\n      swap1\n      pop\n      jump\t// out\n        /* \"#utility.yul\":5195:5272   */\n    tag_117:\n      0x00\n        /* \"#utility.yul\":5261:5266   */\n      dup2\n        /* \"#utility.yul\":5250:5266   */\n      swap1\n      pop\n        /* \"#utility.yul\":5240:5272   */\n      swap2\n      swap1\n      pop\n      jump\t// out\n        /* \"#utility.yul\":5278:5432   */\n    tag_70:\n        /* \"#utility.yul\":5362:5368   */\n      dup3\n        /* \"#utility.yul\":5357:5360   */\n      dup2\n        /* \"#utility.yul\":5352:5355   */\n      dup4\n        /* \"#utility.yul\":5339:5369   */\n      calldatacopy\n        /* \"#utility.yul\":5424:5425   */\n      0x00\n        /* \"#utility.yul\":5415:5421   */\n      dup4\n        /* \"#utility.yul\":5410:5413   */\n      dup4\n        /* \"#utility.yul\":5406:5422   */\n      add\n        /* \"#utility.yul\":5399:5426   */\n      mstore\n        /* \"#utility.yul\":5329:5432   */\n      pop\n      pop\n      pop\n      jump\t// out\n        /* \"#utility.yul\":5438:5745   */\n    tag_111:\n        /* \"#utility.yul\":5506:5507   */\n      0x00\n        /* \"#utility.yul\":5516:5629   */\n    tag_144:\n        /* \"#utility.yul\":5530:5536   */\n      dup4\n        /* \"#utility.yul\":5527:5528   */\n      dup2\n        /* \"#utility.yul\":5524:5537   */\n      lt\n        /* \"#utility.yul\":5516:5629   */\n      iszero\n      tag_146\n      jumpi\n        /* \"#utility.yul\":5615:5616   */\n      dup1\n        /* \"#utility.yul\":5610:5613   */\n      dup3\n        /* \"#utility.yul\":5606:5617   */\n      add\n        /* \"#utility.yul\":5600:5618   */\n      mload\n        /* \"#utility.yul\":5596:5597   */\n      dup2\n        /* \"#utility.yul\":5591:5594   */\n      dup5\n        /* \"#utility.yul\":5587:5598   */\n      add\n        /* \"#utility.yul\":5580:5619   */\n      mstore\n        /* \"#utility.yul\":5552:5554   */\n      0x20\n        /* \"#utility.yul\":5549:5550   */\n      dup2\n        /* \"#utility.yul\":5545:5555   */\n      add\n        /* \"#utility.yul\":5540:5555   */\n      swap1\n      pop\n        /* \"#utility.yul\":5516:5629   */\n      jump(tag_144)\n    tag_146:\n        /* \"#utility.yul\":5647:5653   */\n      dup4\n        /* \"#utility.yul\":5644:5645   */\n      dup2\n        /* \"#utility.yul\":5641:5654   */\n      gt\n        /* \"#utility.yul\":5638:5640   */\n      iszero\n      tag_147\n      jumpi\n        /* \"#utility.yul\":5727:5728   */\n      0x00\n        /* \"#utility.yul\":5718:5724   */\n      dup5\n        /* \"#utility.yul\":5713:5716   */\n      dup5\n        /* \"#utility.yul\":5709:5725   */\n      add\n        /* \"#utility.yul\":5702:5729   */\n      mstore\n        /* \"#utility.yul\":5638:5640   */\n    tag_147:\n        /* \"#utility.yul\":5487:5745   */\n      pop\n      pop\n      pop\n      pop\n      jump\t// out\n        /* \"#utility.yul\":5751:6071   */\n    tag_38:\n      0x00\n        /* \"#utility.yul\":5832:5833   */\n      0x02\n        /* \"#utility.yul\":5826:5830   */\n      dup3\n        /* \"#utility.yul\":5822:5834   */\n      div\n        /* \"#utility.yul\":5812:5834   */\n      swap1\n      pop\n        /* \"#utility.yul\":5879:5880   */\n      0x01\n        /* \"#utility.yul\":5873:5877   */\n      dup3\n        /* \"#utility.yul\":5869:5881   */\n      and\n        /* \"#utility.yul\":5900:5918   */\n      dup1\n        /* \"#utility.yul\":5890:5892   */\n      tag_149\n      jumpi\n        /* \"#utility.yul\":5956:5960   */\n      0x7f\n        /* \"#utility.yul\":5948:5954   */\n      dup3\n        /* \"#utility.yul\":5944:5961   */\n      and\n        /* \"#utility.yul\":5934:5961   */\n      swap2\n      pop\n        /* \"#utility.yul\":5890:5892   */\n    tag_149:\n        /* \"#utility.yul\":6018:6020   */\n      0x20\n        /* \"#utility.yul\":6010:6016   */\n      dup3\n        /* \"#utility.yul\":6007:6021   */\n      lt\n        /* \"#utility.yul\":5987:6005   */\n      dup2\n        /* \"#utility.yul\":5984:6022   */\n      eq\n        /* \"#utility.yul\":5981:5983   */\n      iszero\n      tag_150\n      jumpi\n        /* \"#utility.yul\":6037:6055   */\n      tag_151\n      tag_152\n      jump\t// in\n    tag_151:\n        /* \"#utility.yul\":5981:5983   */\n    tag_150:\n        /* \"#utility.yul\":5802:6071   */\n      pop\n      swap2\n      swap1\n      pop\n      jump\t// out\n        /* \"#utility.yul\":6077:6358   */\n    tag_128:\n        /* \"#utility.yul\":6160:6187   */\n      tag_154\n        /* \"#utility.yul\":6182:6186   */\n      dup3\n        /* \"#utility.yul\":6160:6187   */\n      tag_113\n      jump\t// in\n    tag_154:\n        /* \"#utility.yul\":6152:6158   */\n      dup2\n        /* \"#utility.yul\":6148:6188   */\n      add\n        /* \"#utility.yul\":6290:6296   */\n      dup2\n        /* \"#utility.yul\":6278:6288   */\n      dup2\n        /* \"#utility.yul\":6275:6297   */\n      lt\n        /* \"#utility.yul\":6254:6272   */\n      0xffffffffffffffff\n        /* \"#utility.yul\":6242:6252   */\n      dup3\n        /* \"#utility.yul\":6239:6273   */\n      gt\n        /* \"#utility.yul\":6236:6298   */\n      or\n        /* \"#utility.yul\":6233:6235   */\n      iszero\n      tag_155\n      jumpi\n        /* \"#utility.yul\":6301:6319   */\n      tag_156\n      tag_133\n      jump\t// in\n    tag_156:\n        /* \"#utility.yul\":6233:6235   */\n    tag_155:\n        /* \"#utility.yul\":6341:6351   */\n      dup1\n        /* \"#utility.yul\":6337:6339   */\n      0x40\n        /* \"#utility.yul\":6330:6352   */\n      mstore\n        /* \"#utility.yul\":6120:6358   */\n      pop\n      pop\n      pop\n      jump\t// out\n        /* \"#utility.yul\":6364:6544   */\n    tag_152:\n        /* \"#utility.yul\":6412:6489   */\n      0x4e487b7100000000000000000000000000000000000000000000000000000000\n        /* \"#utility.yul\":6409:6410   */\n      0x00\n        /* \"#utility.yul\":6402:6490   */\n      mstore\n        /* \"#utility.yul\":6509:6513   */\n      0x22\n        /* \"#utility.yul\":6506:6507   */\n      0x04\n        /* \"#utility.yul\":6499:6514   */\n      mstore\n        /* \"#utility.yul\":6533:6537   */\n      0x24\n        /* \"#utility.yul\":6530:6531   */\n      0x00\n        /* \"#utility.yul\":6523:6538   */\n      revert\n        /* \"#utility.yul\":6550:6730   */\n    tag_133:\n        /* \"#utility.yul\":6598:6675   */\n      0x4e487b7100000000000000000000000000000000000000000000000000000000\n        /* \"#utility.yul\":6595:6596   */\n      0x00\n        /* \"#utility.yul\":6588:6676   */\n      mstore\n        /* \"#utility.yul\":6695:6699   */\n      0x41\n        /* \"#utility.yul\":6692:6693   */\n      0x04\n        /* \"#utility.yul\":6685:6700   */\n      mstore\n        /* \"#utility.yul\":6719:6723   */\n      0x24\n        /* \"#utility.yul\":6716:6717   */\n      0x00\n        /* \"#utility.yul\":6709:6724   */\n      revert\n        /* \"#utility.yul\":6736:6838   */\n    tag_113:\n      0x00\n        /* \"#utility.yul\":6828:6830   */\n      0x1f\n        /* \"#utility.yul\":6824:6831   */\n      not\n        /* \"#utility.yul\":6819:6821   */\n      0x1f\n        /* \"#utility.yul\":6812:6817   */\n      dup4\n        /* \"#utility.yul\":6808:6822   */\n      add\n        /* \"#utility.yul\":6804:6832   */\n      and\n        /* \"#utility.yul\":6794:6832   */\n      swap1\n      pop\n        /* \"#utility.yul\":6784:6838   */\n      swap2\n      swap1\n      pop\n      jump\t// out\n        /* \"#utility.yul\":6844:6966   */\n    tag_74:\n        /* \"#utility.yul\":6917:6941   */\n      tag_161\n        /* \"#utility.yul\":6935:6940   */\n      dup2\n        /* \"#utility.yul\":6917:6941   */\n      tag_103\n      jump\t// in\n    tag_161:\n        /* \"#utility.yul\":6910:6915   */\n      dup2\n        /* \"#utility.yul\":6907:6942   */\n      eq\n        /* \"#utility.yul\":6897:6899   */\n      tag_162\n      jumpi\n        /* \"#utility.yul\":6956:6957   */\n      0x00\n        /* \"#utility.yul\":6953:6954   */\n      dup1\n        /* \"#utility.yul\":6946:6958   */\n      revert\n        /* \"#utility.yul\":6897:6899   */\n    tag_162:\n        /* \"#utility.yul\":6887:6966   */\n      pop\n      jump\t// out\n        /* \"#utility.yul\":6972:7094   */\n    tag_82:\n        /* \"#utility.yul\":7045:7069   */\n      tag_164\n        /* \"#utility.yul\":7063:7068   */\n      dup2\n        /* \"#utility.yul\":7045:7069   */\n      tag_117\n      jump\t// in\n    tag_164:\n        /* \"#utility.yul\":7038:7043   */\n      dup2\n        /* \"#utility.yul\":7035:7070   */\n      eq\n        /* \"#utility.yul\":7025:7027   */\n      tag_165\n      jumpi\n        /* \"#utility.yul\":7084:7085   */\n      0x00\n        /* \"#utility.yul\":7081:7082   */\n      dup1\n        /* \"#utility.yul\":7074:7086   */\n      revert\n        /* \"#utility.yul\":7025:7027   */\n    tag_165:\n        /* \"#utility.yul\":7015:7094   */\n      pop\n      jump\t// out\n\n    auxdata: 0xa2646970667358221220b4e47ea9c7d868523f1bc8c6548992081571c7a9da1b421d882ecdc05ab9d8b164736f6c63430008010033\n}\n",
				"bytecode": {
					"linkReferences": {},
					"object": "608060405234801561001057600080fd5b506108bc806100206000396000f3fe608060405234801561001057600080fd5b50600436106100625760003560e01c806318b8275a146100675780633e8a0585146100835780634b4a80ba1461008d57806399b956a0146100bf578063e03b8ad9146100ef578063f4e5d5991461010b575b600080fd5b610081600480360381019061007c91906104fa565b610115565b005b61008b61016b565b005b6100a760048036038101906100a2919061053b565b61016d565b6040516100b693929190610658565b60405180910390f35b6100d960048036038101906100d491906104d1565b61023f565b6040516100e69190610636565b60405180910390f35b61010960048036038101906101049190610564565b6102df565b005b61011361039a565b005b806000803373ffffffffffffffffffffffffffffffffffffffff1673ffffffffffffffffffffffffffffffffffffffff168152602001908152602001600020908051906020019061016792919061039c565b5050565b565b600160205280600052604060002060009150905080600001805461019090610786565b80601f01602080910402602001604051908101604052809291908181526020018280546101bc90610786565b80156102095780601f106101de57610100808354040283529160200191610209565b820191906000526020600020905b8154815290600101906020018083116101ec57829003601f168201915b5050505050908060010154908060020160009054906101000a900473ffffffffffffffffffffffffffffffffffffffff16905083565b6000602052806000526040600020600091509050805461025e90610786565b80601f016020809104026020016040519081016040528092919081815260200182805461028a90610786565b80156102d75780601f106102ac576101008083540402835291602001916102d7565b820191906000526020600020905b8154815290600101906020018083116102ba57829003601f168201915b505050505081565b60405180606001604052808481526020018381526020018273ffffffffffffffffffffffffffffffffffffffff1681525060016000868152602001908152602001600020600082015181600001908051906020019061033f92919061039c565b506020820151816001015560408201518160020160006101000a81548173ffffffffffffffffffffffffffffffffffffffff021916908373ffffffffffffffffffffffffffffffffffffffff16021790555090505050505050565b565b8280546103a890610786565b90600052602060002090601f0160209004810192826103ca5760008555610411565b82601f106103e357805160ff1916838001178555610411565b82800160010185558215610411579182015b828111156104105782518255916020019190600101906103f5565b5b50905061041e9190610422565b5090565b5b8082111561043b576000816000905550600101610423565b5090565b600061045261044d846106bb565b610696565b90508281526020810184848401111561046a57600080fd5b610475848285610744565b509392505050565b60008135905061048c81610858565b92915050565b600082601f8301126104a357600080fd5b81356104b384826020860161043f565b91505092915050565b6000813590506104cb8161086f565b92915050565b6000602082840312156104e357600080fd5b60006104f18482850161047d565b91505092915050565b60006020828403121561050c57600080fd5b600082013567ffffffffffffffff81111561052657600080fd5b61053284828501610492565b91505092915050565b60006020828403121561054d57600080fd5b600061055b848285016104bc565b91505092915050565b6000806000806080858703121561057a57600080fd5b6000610588878288016104bc565b945050602085013567ffffffffffffffff8111156105a557600080fd5b6105b187828801610492565b93505060406105c2878288016104bc565b92505060606105d38782880161047d565b91505092959194509250565b6105e881610708565b82525050565b60006105f9826106ec565b61060381856106f7565b9350610613818560208601610753565b61061c81610847565b840191505092915050565b6106308161073a565b82525050565b6000602082019050818103600083015261065081846105ee565b905092915050565b6000606082019050818103600083015261067281866105ee565b90506106816020830185610627565b61068e60408301846105df565b949350505050565b60006106a06106b1565b90506106ac82826107b8565b919050565b6000604051905090565b600067ffffffffffffffff8211156106d6576106d5610818565b5b6106df82610847565b9050602081019050919050565b600081519050919050565b600082825260208201905092915050565b60006107138261071a565b9050919050565b600073ffffffffffffffffffffffffffffffffffffffff82169050919050565b6000819050919050565b82818337600083830152505050565b60005b83811015610771578082015181840152602081019050610756565b83811115610780576000848401525b50505050565b6000600282049050600182168061079e57607f821691505b602082108114156107b2576107b16107e9565b5b50919050565b6107c182610847565b810181811067ffffffffffffffff821117156107e0576107df610818565b5b80604052505050565b7f4e487b7100000000000000000000000000000000000000000000000000000000600052602260045260246000fd5b7f4e487b7100000000000000000000000000000000000000000000000000000000600052604160045260246000fd5b6000601f19601f8301169050919050565b61086181610708565b811461086c57600080fd5b50565b6108788161073a565b811461088357600080fd5b5056fea2646970667358221220b4e47ea9c7d868523f1bc8c6548992081571c7a9da1b421d882ecdc05ab9d8b164736f6c63430008010033",
					"opcodes": "PUSH1 0x80 PUSH1 0x40 MSTORE CALLVALUE DUP1 ISZERO PUSH2 0x10 JUMPI PUSH1 0x0 DUP1 REVERT JUMPDEST POP PUSH2 0x8BC DUP1 PUSH2 0x20 PUSH1 0x0 CODECOPY PUSH1 0x0 RETURN INVALID PUSH1 0x80 PUSH1 0x40 MSTORE CALLVALUE DUP1 ISZERO PUSH2 0x10 JUMPI PUSH1 0x0 DUP1 REVERT JUMPDEST POP PUSH1 0x4 CALLDATASIZE LT PUSH2 0x62 JUMPI PUSH1 0x0 CALLDATALOAD PUSH1 0xE0 SHR DUP1 PUSH4 0x18B8275A EQ PUSH2 0x67 JUMPI DUP1 PUSH4 0x3E8A0585 EQ PUSH2 0x83 JUMPI DUP1 PUSH4 0x4B4A80BA EQ PUSH2 0x8D JUMPI DUP1 PUSH4 0x99B956A0 EQ PUSH2 0xBF JUMPI DUP1 PUSH4 0xE03B8AD9 EQ PUSH2 0xEF JUMPI DUP1 PUSH4 0xF4E5D599 EQ PUSH2 0x10B JUMPI JUMPDEST PUSH1 0x0 DUP1 REVERT JUMPDEST PUSH2 0x81 PUSH1 0x4 DUP1 CALLDATASIZE SUB DUP2 ADD SWAP1 PUSH2 0x7C SWAP2 SWAP1 PUSH2 0x4FA JUMP JUMPDEST PUSH2 0x115 JUMP JUMPDEST STOP JUMPDEST PUSH2 0x8B PUSH2 0x16B JUMP JUMPDEST STOP JUMPDEST PUSH2 0xA7 PUSH1 0x4 DUP1 CALLDATASIZE SUB DUP2 ADD SWAP1 PUSH2 0xA2 SWAP2 SWAP1 PUSH2 0x53B JUMP JUMPDEST PUSH2 0x16D JUMP JUMPDEST PUSH1 0x40 MLOAD PUSH2 0xB6 SWAP4 SWAP3 SWAP2 SWAP1 PUSH2 0x658 JUMP JUMPDEST PUSH1 0x40 MLOAD DUP1 SWAP2 SUB SWAP1 RETURN JUMPDEST PUSH2 0xD9 PUSH1 0x4 DUP1 CALLDATASIZE SUB DUP2 ADD SWAP1 PUSH2 0xD4 SWAP2 SWAP1 PUSH2 0x4D1 JUMP JUMPDEST PUSH2 0x23F JUMP JUMPDEST PUSH1 0x40 MLOAD PUSH2 0xE6 SWAP2 SWAP1 PUSH2 0x636 JUMP JUMPDEST PUSH1 0x40 MLOAD DUP1 SWAP2 SUB SWAP1 RETURN JUMPDEST PUSH2 0x109 PUSH1 0x4 DUP1 CALLDATASIZE SUB DUP2 ADD SWAP1 PUSH2 0x104 SWAP2 SWAP1 PUSH2 0x564 JUMP JUMPDEST PUSH2 0x2DF JUMP JUMPDEST STOP JUMPDEST PUSH2 0x113 PUSH2 0x39A JUMP JUMPDEST STOP JUMPDEST DUP1 PUSH1 0x0 DUP1 CALLER PUSH20 0xFFFFFFFFFFFFFFFFFFFFFFFFFFFFFFFFFFFFFFFF AND PUSH20 0xFFFFFFFFFFFFFFFFFFFFFFFFFFFFFFFFFFFFFFFF AND DUP2 MSTORE PUSH1 0x20 ADD SWAP1 DUP2 MSTORE PUSH1 0x20 ADD PUSH1 0x0 KECCAK256 SWAP1 DUP1 MLOAD SWAP1 PUSH1 0x20 ADD SWAP1 PUSH2 0x167 SWAP3 SWAP2 SWAP1 PUSH2 0x39C JUMP JUMPDEST POP POP JUMP JUMPDEST JUMP JUMPDEST PUSH1 0x1 PUSH1 0x20 MSTORE DUP1 PUSH1 0x0 MSTORE PUSH1 0x40 PUSH1 0x0 KECCAK256 PUSH1 0x0 SWAP2 POP SWAP1 POP DUP1 PUSH1 0x0 ADD DUP1 SLOAD PUSH2 0x190 SWAP1 PUSH2 0x786 JUMP JUMPDEST DUP1 PUSH1 0x1F ADD PUSH1 0x20 DUP1 SWAP2 DIV MUL PUSH1 0x20 ADD PUSH1 0x40 MLOAD SWAP1 DUP2 ADD PUSH1 0x40 MSTORE DUP1 SWAP3 SWAP2 SWAP1 DUP2 DUP2 MSTORE PUSH1 0x20 ADD DUP3 DUP1 SLOAD PUSH2 0x1BC SWAP1 PUSH2 0x786 JUMP JUMPDEST DUP1 ISZERO PUSH2 0x209 JUMPI DUP1 PUSH1 0x1F LT PUSH2 0x1DE JUMPI PUSH2 0x100 DUP1 DUP4 SLOAD DIV MUL DUP4 MSTORE SWAP2 PUSH1 0x20 ADD SWAP2 PUSH2 0x209 JUMP JUMPDEST DUP3 ADD SWAP2 SWAP1 PUSH1 0x0 MSTORE PUSH1 0x20 PUSH1 0x0 KECCAK256 SWAP1 JUMPDEST DUP2 SLOAD DUP2 MSTORE SWAP1 PUSH1 0x1 ADD SWAP1 PUSH1 0x20 ADD DUP1 DUP4 GT PUSH2 0x1EC JUMPI DUP3 SWAP1 SUB PUSH1 0x1F AND DUP3 ADD SWAP2 JUMPDEST POP POP POP POP POP SWAP1 DUP1 PUSH1 0x1 ADD SLOAD SWAP1 DUP1 PUSH1 0x2 ADD PUSH1 0x0 SWAP1 SLOAD SWAP1 PUSH2 0x100 EXP SWAP1 DIV PUSH20 0xFFFFFFFFFFFFFFFFFFFFFFFFFFFFFFFFFFFFFFFF AND SWAP1 POP DUP4 JUMP JUMPDEST PUSH1 0x0 PUSH1 0x20 MSTORE DUP1 PUSH1 0x0 MSTORE PUSH1 0x40 PUSH1 0x0 KECCAK256 PUSH1 0x0 SWAP2 POP SWAP1 POP DUP1 SLOAD PUSH2 0x25E SWAP1 PUSH2 0x786 JUMP JUMPDEST DUP1 PUSH1 0x1F ADD PUSH1 0x20 DUP1 SWAP2 DIV MUL PUSH1 0x20 ADD PUSH1 0x40 MLOAD SWAP1 DUP2 ADD PUSH1 0x40 MSTORE DUP1 SWAP3 SWAP2 SWAP1 DUP2 DUP2 MSTORE PUSH1 0x20 ADD DUP3 DUP1 SLOAD PUSH2 0x28A SWAP1 PUSH2 0x786 JUMP JUMPDEST DUP1 ISZERO PUSH2 0x2D7 JUMPI DUP1 PUSH1 0x1F LT PUSH2 0x2AC JUMPI PUSH2 0x100 DUP1 DUP4 SLOAD DIV MUL DUP4 MSTORE SWAP2 PUSH1 0x20 ADD SWAP2 PUSH2 0x2D7 JUMP JUMPDEST DUP3 ADD SWAP2 SWAP1 PUSH1 0x0 MSTORE PUSH1 0x20 PUSH1 0x0 KECCAK256 SWAP1 JUMPDEST DUP2 SLOAD DUP2 MSTORE SWAP1 PUSH1 0x1 ADD SWAP1 PUSH1 0x20 ADD DUP1 DUP4 GT PUSH2 0x2BA JUMPI DUP3 SWAP1 SUB PUSH1 0x1F AND DUP3 ADD SWAP2 JUMPDEST POP POP POP POP POP DUP2 JUMP JUMPDEST PUSH1 0x40 MLOAD DUP1 PUSH1 0x60 ADD PUSH1 0x40 MSTORE DUP1 DUP5 DUP2 MSTORE PUSH1 0x20 ADD DUP4 DUP2 MSTORE PUSH1 0x20 ADD DUP3 PUSH20 0xFFFFFFFFFFFFFFFFFFFFFFFFFFFFFFFFFFFFFFFF AND DUP2 MSTORE POP PUSH1 0x1 PUSH1 0x0 DUP7 DUP2 MSTORE PUSH1 0x20 ADD SWAP1 DUP2 MSTORE PUSH1 0x20 ADD PUSH1 0x0 KECCAK256 PUSH1 0x0 DUP3 ADD MLOAD DUP2 PUSH1 0x0 ADD SWAP1 DUP1 MLOAD SWAP1 PUSH1 0x20 ADD SWAP1 PUSH2 0x33F SWAP3 SWAP2 SWAP1 PUSH2 0x39C JUMP JUMPDEST POP PUSH1 0x20 DUP3 ADD MLOAD DUP2 PUSH1 0x1 ADD SSTORE PUSH1 0x40 DUP3 ADD MLOAD DUP2 PUSH1 0x2 ADD PUSH1 0x0 PUSH2 0x100 EXP DUP2 SLOAD DUP2 PUSH20 0xFFFFFFFFFFFFFFFFFFFFFFFFFFFFFFFFFFFFFFFF MUL NOT AND SWAP1 DUP4 PUSH20 0xFFFFFFFFFFFFFFFFFFFFFFFFFFFFFFFFFFFFFFFF AND MUL OR SWAP1 SSTORE POP SWAP1 POP POP POP POP POP POP JUMP JUMPDEST JUMP JUMPDEST DUP3 DUP1 SLOAD PUSH2 0x3A8 SWAP1 PUSH2 0x786 JUMP JUMPDEST SWAP1 PUSH1 0x0 MSTORE PUSH1 0x20 PUSH1 0x0 KECCAK256 SWAP1 PUSH1 0x1F ADD PUSH1 0x20 SWAP1 DIV DUP2 ADD SWAP3 DUP3 PUSH2 0x3CA JUMPI PUSH1 0x0 DUP6 SSTORE PUSH2 0x411 JUMP JUMPDEST DUP3 PUSH1 0x1F LT PUSH2 0x3E3 JUMPI DUP1 MLOAD PUSH1 0xFF NOT AND DUP4 DUP1 ADD OR DUP6 SSTORE PUSH2 0x411 JUMP JUMPDEST DUP3 DUP1 ADD PUSH1 0x1 ADD DUP6 SSTORE DUP3 ISZERO PUSH2 0x411 JUMPI SWAP2 DUP3 ADD JUMPDEST DUP3 DUP2 GT ISZERO PUSH2 0x410 JUMPI DUP3 MLOAD DUP3 SSTORE SWAP2 PUSH1 0x20 ADD SWAP2 SWAP1 PUSH1 0x1 ADD SWAP1 PUSH2 0x3F5 JUMP JUMPDEST JUMPDEST POP SWAP1 POP PUSH2 0x41E SWAP2 SWAP1 PUSH2 0x422 JUMP JUMPDEST POP SWAP1 JUMP JUMPDEST JUMPDEST DUP1 DUP3 GT ISZERO PUSH2 0x43B JUMPI PUSH1 0x0 DUP2 PUSH1 0x0 SWAP1 SSTORE POP PUSH1 0x1 ADD PUSH2 0x423 JUMP JUMPDEST POP SWAP1 JUMP JUMPDEST PUSH1 0x0 PUSH2 0x452 PUSH2 0x44D DUP5 PUSH2 0x6BB JUMP JUMPDEST PUSH2 0x696 JUMP JUMPDEST SWAP1 POP DUP3 DUP2 MSTORE PUSH1 0x20 DUP2 ADD DUP5 DUP5 DUP5 ADD GT ISZERO PUSH2 0x46A JUMPI PUSH1 0x0 DUP1 REVERT JUMPDEST PUSH2 0x475 DUP5 DUP3 DUP6 PUSH2 0x744 JUMP JUMPDEST POP SWAP4 SWAP3 POP POP POP JUMP JUMPDEST PUSH1 0x0 DUP2 CALLDATALOAD SWAP1 POP PUSH2 0x48C DUP2 PUSH2 0x858 JUMP JUMPDEST SWAP3 SWAP2 POP POP JUMP JUMPDEST PUSH1 0x0 DUP3 PUSH1 0x1F DUP4 ADD SLT PUSH2 0x4A3 JUMPI PUSH1 0x0 DUP1 REVERT JUMPDEST DUP2 CALLDATALOAD PUSH2 0x4B3 DUP5 DUP3 PUSH1 0x20 DUP7 ADD PUSH2 0x43F JUMP JUMPDEST SWAP2 POP POP SWAP3 SWAP2 POP POP JUMP JUMPDEST PUSH1 0x0 DUP2 CALLDATALOAD SWAP1 POP PUSH2 0x4CB DUP2 PUSH2 0x86F JUMP JUMPDEST SWAP3 SWAP2 POP POP JUMP JUMPDEST PUSH1 0x0 PUSH1 0x20 DUP3 DUP5 SUB SLT ISZERO PUSH2 0x4E3 JUMPI PUSH1 0x0 DUP1 REVERT JUMPDEST PUSH1 0x0 PUSH2 0x4F1 DUP5 DUP3 DUP6 ADD PUSH2 0x47D JUMP JUMPDEST SWAP2 POP POP SWAP3 SWAP2 POP POP JUMP JUMPDEST PUSH1 0x0 PUSH1 0x20 DUP3 DUP5 SUB SLT ISZERO PUSH2 0x50C JUMPI PUSH1 0x0 DUP1 REVERT JUMPDEST PUSH1 0x0 DUP3 ADD CALLDATALOAD PUSH8 0xFFFFFFFFFFFFFFFF DUP2 GT ISZERO PUSH2 0x526 JUMPI PUSH1 0x0 DUP1 REVERT JUMPDEST PUSH2 0x532 DUP5 DUP3 DUP6 ADD PUSH2 0x492 JUMP JUMPDEST SWAP2 POP POP SWAP3 SWAP2 POP POP JUMP JUMPDEST PUSH1 0x0 PUSH1 0x20 DUP3 DUP5 SUB SLT ISZERO PUSH2 0x54D JUMPI PUSH1 0x0 DUP1 REVERT JUMPDEST PUSH1 0x0 PUSH2 0x55B DUP5 DUP3 DUP6 ADD PUSH2 0x4BC JUMP JUMPDEST SWAP2 POP POP SWAP3 SWAP2 POP POP JUMP JUMPDEST PUSH1 0x0 DUP1 PUSH1 0x0 DUP1 PUSH1 0x80 DUP6 DUP8 SUB SLT ISZERO PUSH2 0x57A JUMPI PUSH1 0x0 DUP1 REVERT JUMPDEST PUSH1 0x0 PUSH2 0x588 DUP8 DUP3 DUP9 ADD PUSH2 0x4BC JUMP JUMPDEST SWAP5 POP POP PUSH1 0x20 DUP6 ADD CALLDATALOAD PUSH8 0xFFFFFFFFFFFFFFFF DUP2 GT ISZERO PUSH2 0x5A5 JUMPI PUSH1 0x0 DUP1 REVERT JUMPDEST PUSH2 0x5B1 DUP8 DUP3 DUP9 ADD PUSH2 0x492 JUMP JUMPDEST SWAP4 POP POP PUSH1 0x40 PUSH2 0x5C2 DUP8 DUP3 DUP9 ADD PUSH2 0x4BC JUMP JUMPDEST SWAP3 POP POP PUSH1 0x60 PUSH2 0x5D3 DUP8 DUP3 DUP9 ADD PUSH2 0x47D JUMP JUMPDEST SWAP2 POP POP SWAP3 SWAP6 SWAP2 SWAP5 POP SWAP3 POP JUMP JUMPDEST PUSH2 0x5E8 DUP2 PUSH2 0x708 JUMP JUMPDEST DUP3 MSTORE POP POP JUMP JUMPDEST PUSH1 0x0 PUSH2 0x5F9 DUP3 PUSH2 0x6EC JUMP JUMPDEST PUSH2 0x603 DUP2 DUP6 PUSH2 0x6F7 JUMP JUMPDEST SWAP4 POP PUSH2 0x613 DUP2 DUP6 PUSH1 0x20 DUP7 ADD PUSH2 0x753 JUMP JUMPDEST PUSH2 0x61C DUP2 PUSH2 0x847 JUMP JUMPDEST DUP5 ADD SWAP2 POP POP SWAP3 SWAP2 POP POP JUMP JUMPDEST PUSH2 0x630 DUP2 PUSH2 0x73A JUMP JUMPDEST DUP3 MSTORE POP POP JUMP JUMPDEST PUSH1 0x0 PUSH1 0x20 DUP3 ADD SWAP1 POP DUP2 DUP2 SUB PUSH1 0x0 DUP4 ADD MSTORE PUSH2 0x650 DUP2 DUP5 PUSH2 0x5EE JUMP JUMPDEST SWAP1 POP SWAP3 SWAP2 POP POP JUMP JUMPDEST PUSH1 0x0 PUSH1 0x60 DUP3 ADD SWAP1 POP DUP2 DUP2 SUB PUSH1 0x0 DUP4 ADD MSTORE PUSH2 0x672 DUP2 DUP7 PUSH2 0x5EE JUMP JUMPDEST SWAP1 POP PUSH2 0x681 PUSH1 0x20 DUP4 ADD DUP6 PUSH2 0x627 JUMP JUMPDEST PUSH2 0x68E PUSH1 0x40 DUP4 ADD DUP5 PUSH2 0x5DF JUMP JUMPDEST SWAP5 SWAP4 POP POP POP POP JUMP JUMPDEST PUSH1 0x0 PUSH2 0x6A0 PUSH2 0x6B1 JUMP JUMPDEST SWAP1 POP PUSH2 0x6AC DUP3 DUP3 PUSH2 0x7B8 JUMP JUMPDEST SWAP2 SWAP1 POP JUMP JUMPDEST PUSH1 0x0 PUSH1 0x40 MLOAD SWAP1 POP SWAP1 JUMP JUMPDEST PUSH1 0x0 PUSH8 0xFFFFFFFFFFFFFFFF DUP3 GT ISZERO PUSH2 0x6D6 JUMPI PUSH2 0x6D5 PUSH2 0x818 JUMP JUMPDEST JUMPDEST PUSH2 0x6DF DUP3 PUSH2 0x847 JUMP JUMPDEST SWAP1 POP PUSH1 0x20 DUP2 ADD SWAP1 POP SWAP2 SWAP1 POP JUMP JUMPDEST PUSH1 0x0 DUP2 MLOAD SWAP1 POP SWAP2 SWAP1 POP JUMP JUMPDEST PUSH1 0x0 DUP3 DUP3 MSTORE PUSH1 0x20 DUP3 ADD SWAP1 POP SWAP3 SWAP2 POP POP JUMP JUMPDEST PUSH1 0x0 PUSH2 0x713 DUP3 PUSH2 0x71A JUMP JUMPDEST SWAP1 POP SWAP2 SWAP1 POP JUMP JUMPDEST PUSH1 0x0 PUSH20 0xFFFFFFFFFFFFFFFFFFFFFFFFFFFFFFFFFFFFFFFF DUP3 AND SWAP1 POP SWAP2 SWAP1 POP JUMP JUMPDEST PUSH1 0x0 DUP2 SWAP1 POP SWAP2 SWAP1 POP JUMP JUMPDEST DUP3 DUP2 DUP4 CALLDATACOPY PUSH1 0x0 DUP4 DUP4 ADD MSTORE POP POP POP JUMP JUMPDEST PUSH1 0x0 JUMPDEST DUP4 DUP2 LT ISZERO PUSH2 0x771 JUMPI DUP1 DUP3 ADD MLOAD DUP2 DUP5 ADD MSTORE PUSH1 0x20 DUP2 ADD SWAP1 POP PUSH2 0x756 JUMP JUMPDEST DUP4 DUP2 GT ISZERO PUSH2 0x780 JUMPI PUSH1 0x0 DUP5 DUP5 ADD MSTORE JUMPDEST POP POP POP POP JUMP JUMPDEST PUSH1 0x0 PUSH1 0x2 DUP3 DIV SWAP1 POP PUSH1 0x1 DUP3 AND DUP1 PUSH2 0x79E JUMPI PUSH1 0x7F DUP3 AND SWAP2 POP JUMPDEST PUSH1 0x20 DUP3 LT DUP2 EQ ISZERO PUSH2 0x7B2 JUMPI PUSH2 0x7B1 PUSH2 0x7E9 JUMP JUMPDEST JUMPDEST POP SWAP2 SWAP1 POP JUMP JUMPDEST PUSH2 0x7C1 DUP3 PUSH2 0x847 JUMP JUMPDEST DUP2 ADD DUP2 DUP2 LT PUSH8 0xFFFFFFFFFFFFFFFF DUP3 GT OR ISZERO PUSH2 0x7E0 JUMPI PUSH2 0x7DF PUSH2 0x818 JUMP JUMPDEST JUMPDEST DUP1 PUSH1 0x40 MSTORE POP POP POP JUMP JUMPDEST PUSH32 0x4E487B7100000000000000000000000000000000000000000000000000000000 PUSH1 0x0 MSTORE PUSH1 0x22 PUSH1 0x4 MSTORE PUSH1 0x24 PUSH1 0x0 REVERT JUMPDEST PUSH32 0x4E487B7100000000000000000000000000000000000000000000000000000000 PUSH1 0x0 MSTORE PUSH1 0x41 PUSH1 0x4 MSTORE PUSH1 0x24 PUSH1 0x0 REVERT JUMPDEST PUSH1 0x0 PUSH1 0x1F NOT PUSH1 0x1F DUP4 ADD AND SWAP1 POP SWAP2 SWAP1 POP JUMP JUMPDEST PUSH2 0x861 DUP2 PUSH2 0x708 JUMP JUMPDEST DUP2 EQ PUSH2 0x86C JUMPI PUSH1 0x0 DUP1 REVERT JUMPDEST POP JUMP JUMPDEST PUSH2 0x878 DUP2 PUSH2 0x73A JUMP JUMPDEST DUP2 EQ PUSH2 0x883 JUMPI PUSH1 0x0 DUP1 REVERT JUMPDEST POP JUMP INVALID LOG2 PUSH5 0x6970667358 0x22 SLT KECCAK256 0xB4 0xE4 PUSH31 0xA9C7D868523F1BC8C6548992081571C7A9DA1B421D882ECDC05AB9D8B16473 PUSH16 0x6C634300080100330000000000000000 "
				},
				"gasEstimates": {
					"creation": {
						"codeDepositCost": "447200",
						"executionCost": "480",
						"totalCost": "447680"
					},
					"external": {
						"Assets(uint256)": "infinite",
						"Bidding()": "144",
						"Result()": "232",
						"Users(address)": "infinite",
						"addAsset(uint256,string,uint256,address)": "infinite",
						"addUser(string)": "infinite"
					}
				},
				"methodIdentifiers": {
					"Assets(uint256)": "4b4a80ba",
					"Bidding()": "3e8a0585",
					"Result()": "f4e5d599",
					"Users(address)": "99b956a0",
					"addAsset(uint256,string,uint256,address)": "e03b8ad9",
					"addUser(string)": "18b8275a"
				}
			},
			"storageLayout": {
				"storage": [
					{
						"astId": 12,
						"contract": "Auction.sol:Auction",
						"label": "Users",
						"offset": 0,
						"slot": "0",
						"type": "t_mapping(t_address,t_string_storage)"
					},
					{
						"astId": 17,
						"contract": "Auction.sol:Auction",
						"label": "Assets",
						"offset": 0,
						"slot": "1",
						"type": "t_mapping(t_uint256,t_struct(Asset)8_storage)"
					}
				],
				"types": {
					"t_address": {
						"encoding": "inplace",
						"label": "address",
						"numberOfBytes": "20"
					},
					"t_mapping(t_address,t_string_storage)": {
						"encoding": "mapping",
						"key": "t_address",
						"label": "mapping(address => string)",
						"numberOfBytes": "32",
						"value": "t_string_storage"
					},
					"t_mapping(t_uint256,t_struct(Asset)8_storage)": {
						"encoding": "mapping",
						"key": "t_uint256",
						"label": "mapping(uint256 => struct Auction.Asset)",
						"numberOfBytes": "32",
						"value": "t_struct(Asset)8_storage"
					},
					"t_string_storage": {
						"encoding": "bytes",
						"label": "string",
						"numberOfBytes": "32"
					},
					"t_struct(Asset)8_storage": {
						"encoding": "inplace",
						"label": "struct Auction.Asset",
						"members": [
							{
								"astId": 3,
								"contract": "Auction.sol:Auction",
								"label": "AssetName",
								"offset": 0,
								"slot": "0",
								"type": "t_string_storage"
							},
							{
								"astId": 5,
								"contract": "Auction.sol:Auction",
								"label": "AssetSP",
								"offset": 0,
								"slot": "1",
								"type": "t_uint256"
							},
							{
								"astId": 7,
								"contract": "Auction.sol:Auction",
								"label": "Owner",
								"offset": 0,
								"slot": "2",
								"type": "t_address"
							}
						],
						"numberOfBytes": "96"
					},
					"t_uint256": {
						"encoding": "inplace",
						"label": "uint256",
						"numberOfBytes": "32"
					}
				}
			},
			"userdoc": {
				"kind": "user",
				"methods": {},
				"version": 1
			}
		}
	}
}