{
	"Auction.sol": {
		"Auction": {
			"abi": [
				{
					"inputs": [
						{
							"internalType": "uint256",
							"name": "",
							"type": "uint256"
						}
					],
					"name": "Assets",
					"outputs": [
						{
							"internalType": "string",
							"name": "AssetName",
							"type": "string"
						},
						{
							"internalType": "uint256",
							"name": "AssetSP",
							"type": "uint256"
						},
						{
							"internalType": "address",
							"name": "Owner",
							"type": "address"
						}
					],
					"stateMutability": "view",
					"type": "function"
				},
				{
					"inputs": [
						{
							"internalType": "uint256",
							"name": "",
							"type": "uint256"
						},
						{
							"internalType": "uint256",
							"name": "",
							"type": "uint256"
						}
					],
					"name": "AuctDetails",
					"outputs": [
						{
							"internalType": "uint256",
							"name": "bidPrice",
							"type": "uint256"
						},
						{
							"internalType": "address",
							"name": "bidderId",
							"type": "address"
						}
					],
					"stateMutability": "view",
					"type": "function"
				},
				{
					"inputs": [
						{
							"internalType": "uint256",
							"name": "AssetId",
							"type": "uint256"
						},
						{
							"internalType": "uint256",
							"name": "bidPrice",
							"type": "uint256"
						}
					],
					"name": "Bidding",
					"outputs": [],
					"stateMutability": "nonpayable",
					"type": "function"
				},
				{
					"inputs": [
						{
							"internalType": "uint256",
							"name": "ID",
							"type": "uint256"
						}
					],
					"name": "Result",
					"outputs": [
						{
							"internalType": "address",
							"name": "",
							"type": "address"
						},
						{
							"internalType": "uint256",
							"name": "",
							"type": "uint256"
						},
						{
							"internalType": "uint256",
							"name": "",
							"type": "uint256"
						}
					],
					"stateMutability": "payable",
					"type": "function"
				},
				{
					"inputs": [
						{
							"internalType": "address",
							"name": "",
							"type": "address"
						}
					],
					"name": "Users",
					"outputs": [
						{
							"internalType": "string",
							"name": "",
							"type": "string"
						}
					],
					"stateMutability": "view",
					"type": "function"
				},
				{
					"inputs": [
						{
							"internalType": "string",
							"name": "Name",
							"type": "string"
						},
						{
							"internalType": "uint256",
							"name": "Price",
							"type": "uint256"
						}
					],
					"name": "addAsset",
					"outputs": [
						{
							"internalType": "uint256",
							"name": "",
							"type": "uint256"
						},
						{
							"internalType": "string",
							"name": "",
							"type": "string"
						},
						{
							"internalType": "uint256",
							"name": "",
							"type": "uint256"
						}
					],
					"stateMutability": "nonpayable",
					"type": "function"
				},
				{
					"inputs": [
						{
							"internalType": "string",
							"name": "Name",
							"type": "string"
						}
					],
					"name": "addUser",
					"outputs": [
						{
							"internalType": "string",
							"name": "",
							"type": "string"
						},
						{
							"internalType": "address",
							"name": "",
							"type": "address"
						}
					],
					"stateMutability": "nonpayable",
					"type": "function"
				}
			],
			"devdoc": {
				"kind": "dev",
				"methods": {},
				"version": 1
			},
			"evm": {
				"assembly": "    /* \"Auction.sol\":66:1468  contract Auction {... */\n  mstore(0x40, 0x80)\n    /* \"Auction.sol\":604:605  0 */\n  0x00\n    /* \"Auction.sol\":594:605  uint Id = 0 */\n  0x03\n  sstore\n    /* \"Auction.sol\":66:1468  contract Auction {... */\n  callvalue\n  dup1\n  iszero\n  tag_1\n  jumpi\n  0x00\n  dup1\n  revert\ntag_1:\n  pop\n  dataSize(sub_0)\n  dup1\n  dataOffset(sub_0)\n  0x00\n  codecopy\n  0x00\n  return\nstop\n\nsub_0: assembly {\n        /* \"Auction.sol\":66:1468  contract Auction {... */\n      mstore(0x40, 0x80)\n      jumpi(tag_1, lt(calldatasize, 0x04))\n      shr(0xe0, calldataload(0x00))\n      dup1\n      0x4b4a80ba\n      gt\n      tag_9\n      jumpi\n      dup1\n      0x4b4a80ba\n      eq\n      tag_5\n      jumpi\n      dup1\n      0x6fe605fc\n      eq\n      tag_6\n      jumpi\n      dup1\n      0x99b956a0\n      eq\n      tag_7\n      jumpi\n      dup1\n      0xa9bb0fa1\n      eq\n      tag_8\n      jumpi\n      jump(tag_1)\n    tag_9:\n      dup1\n      0x18b8275a\n      eq\n      tag_2\n      jumpi\n      dup1\n      0x1bc7ffe9\n      eq\n      tag_3\n      jumpi\n      dup1\n      0x2b9af503\n      eq\n      tag_4\n      jumpi\n    tag_1:\n      0x00\n      dup1\n      revert\n        /* \"Auction.sol\":430:586  function addUser(string memory Name) public returns (string memory, address) {... */\n    tag_2:\n      callvalue\n      dup1\n      iszero\n      tag_10\n      jumpi\n      0x00\n      dup1\n      revert\n    tag_10:\n      pop\n      tag_11\n      0x04\n      dup1\n      calldatasize\n      sub\n      dup2\n      add\n      swap1\n      tag_12\n      swap2\n      swap1\n      tag_13\n      jump\t// in\n    tag_12:\n      tag_14\n      jump\t// in\n    tag_11:\n      mload(0x40)\n      tag_15\n      swap3\n      swap2\n      swap1\n      tag_16\n      jump\t// in\n    tag_15:\n      mload(0x40)\n      dup1\n      swap2\n      sub\n      swap1\n      return\n        /* \"Auction.sol\":612:817  function addAsset(string memory Name, uint Price) public returns (uint, string memory, uint) {... */\n    tag_3:\n      callvalue\n      dup1\n      iszero\n      tag_17\n      jumpi\n      0x00\n      dup1\n      revert\n    tag_17:\n      pop\n      tag_18\n      0x04\n      dup1\n      calldatasize\n      sub\n      dup2\n      add\n      swap1\n      tag_19\n      swap2\n      swap1\n      tag_20\n      jump\t// in\n    tag_19:\n      tag_21\n      jump\t// in\n    tag_18:\n      mload(0x40)\n      tag_22\n      swap4\n      swap3\n      swap2\n      swap1\n      tag_23\n      jump\t// in\n    tag_22:\n      mload(0x40)\n      dup1\n      swap2\n      sub\n      swap1\n      return\n        /* \"Auction.sol\":367:415  mapping(uint => AuctDetail[]) public AuctDetails */\n    tag_4:\n      callvalue\n      dup1\n      iszero\n      tag_24\n      jumpi\n      0x00\n      dup1\n      revert\n    tag_24:\n      pop\n      tag_25\n      0x04\n      dup1\n      calldatasize\n      sub\n      dup2\n      add\n      swap1\n      tag_26\n      swap2\n      swap1\n      tag_27\n      jump\t// in\n    tag_26:\n      tag_28\n      jump\t// in\n    tag_25:\n      mload(0x40)\n      tag_29\n      swap3\n      swap2\n      swap1\n      tag_30\n      jump\t// in\n    tag_29:\n      mload(0x40)\n      dup1\n      swap2\n      sub\n      swap1\n      return\n        /* \"Auction.sol\":324:360  mapping(uint => Asset) public Assets */\n    tag_5:\n      callvalue\n      dup1\n      iszero\n      tag_31\n      jumpi\n      0x00\n      dup1\n      revert\n    tag_31:\n      pop\n      tag_32\n      0x04\n      dup1\n      calldatasize\n      sub\n      dup2\n      add\n      swap1\n      tag_33\n      swap2\n      swap1\n      tag_34\n      jump\t// in\n    tag_33:\n      tag_35\n      jump\t// in\n    tag_32:\n      mload(0x40)\n      tag_36\n      swap4\n      swap3\n      swap2\n      swap1\n      tag_37\n      jump\t// in\n    tag_36:\n      mload(0x40)\n      dup1\n      swap2\n      sub\n      swap1\n      return\n        /* \"Auction.sol\":837:968  function Bidding(uint AssetId, uint bidPrice) public {... */\n    tag_6:\n      callvalue\n      dup1\n      iszero\n      tag_38\n      jumpi\n      0x00\n      dup1\n      revert\n    tag_38:\n      pop\n      tag_39\n      0x04\n      dup1\n      calldatasize\n      sub\n      dup2\n      add\n      swap1\n      tag_40\n      swap2\n      swap1\n      tag_27\n      jump\t// in\n    tag_40:\n      tag_41\n      jump\t// in\n    tag_39:\n      stop\n        /* \"Auction.sol\":278:317  mapping(address => string) public Users */\n    tag_7:\n      callvalue\n      dup1\n      iszero\n      tag_42\n      jumpi\n      0x00\n      dup1\n      revert\n    tag_42:\n      pop\n      tag_43\n      0x04\n      dup1\n      calldatasize\n      sub\n      dup2\n      add\n      swap1\n      tag_44\n      swap2\n      swap1\n      tag_45\n      jump\t// in\n    tag_44:\n      tag_46\n      jump\t// in\n    tag_43:\n      mload(0x40)\n      tag_47\n      swap2\n      swap1\n      tag_48\n      jump\t// in\n    tag_47:\n      mload(0x40)\n      dup1\n      swap2\n      sub\n      swap1\n      return\n        /* \"Auction.sol\":976:1465  function Result(uint ID) public payable returns (address, uint, uint) {... */\n    tag_8:\n      tag_49\n      0x04\n      dup1\n      calldatasize\n      sub\n      dup2\n      add\n      swap1\n      tag_50\n      swap2\n      swap1\n      tag_34\n      jump\t// in\n    tag_50:\n      tag_51\n      jump\t// in\n    tag_49:\n      mload(0x40)\n      tag_52\n      swap4\n      swap3\n      swap2\n      swap1\n      tag_53\n      jump\t// in\n    tag_52:\n      mload(0x40)\n      dup1\n      swap2\n      sub\n      swap1\n      return\n        /* \"Auction.sol\":430:586  function addUser(string memory Name) public returns (string memory, address) {... */\n    tag_14:\n        /* \"Auction.sol\":483:496  string memory */\n      0x60\n        /* \"Auction.sol\":498:505  address */\n      0x00\n        /* \"Auction.sol\":538:542  Name */\n      dup3\n        /* \"Auction.sol\":518:523  Users */\n      0x00\n        /* \"Auction.sol\":518:535  Users[msg.sender] */\n      dup1\n        /* \"Auction.sol\":524:534  msg.sender */\n      caller\n        /* \"Auction.sol\":518:535  Users[msg.sender] */\n      0xffffffffffffffffffffffffffffffffffffffff\n      and\n      0xffffffffffffffffffffffffffffffffffffffff\n      and\n      dup2\n      mstore\n      0x20\n      add\n      swap1\n      dup2\n      mstore\n      0x20\n      add\n      0x00\n      keccak256\n        /* \"Auction.sol\":518:542  Users[msg.sender] = Name */\n      swap1\n      dup2\n      tag_55\n      swap2\n      swap1\n      tag_56\n      jump\t// in\n    tag_55:\n      pop\n        /* \"Auction.sol\":561:565  Name */\n      dup3\n        /* \"Auction.sol\":567:577  msg.sender */\n      caller\n        /* \"Auction.sol\":553:578  return (Name, msg.sender) */\n      swap2\n      pop\n      swap2\n      pop\n        /* \"Auction.sol\":430:586  function addUser(string memory Name) public returns (string memory, address) {... */\n      swap2\n      pop\n      swap2\n      jump\t// out\n        /* \"Auction.sol\":612:817  function addAsset(string memory Name, uint Price) public returns (uint, string memory, uint) {... */\n    tag_21:\n        /* \"Auction.sol\":678:682  uint */\n      0x00\n        /* \"Auction.sol\":684:697  string memory */\n      0x60\n        /* \"Auction.sol\":699:703  uint */\n      0x00\n        /* \"Auction.sol\":729:759  Asset(Name, Price, msg.sender) */\n      mload(0x40)\n      dup1\n      0x60\n      add\n      0x40\n      mstore\n      dup1\n        /* \"Auction.sol\":735:739  Name */\n      dup7\n        /* \"Auction.sol\":729:759  Asset(Name, Price, msg.sender) */\n      dup2\n      mstore\n      0x20\n      add\n        /* \"Auction.sol\":741:746  Price */\n      dup6\n        /* \"Auction.sol\":729:759  Asset(Name, Price, msg.sender) */\n      dup2\n      mstore\n      0x20\n      add\n        /* \"Auction.sol\":748:758  msg.sender */\n      caller\n        /* \"Auction.sol\":729:759  Asset(Name, Price, msg.sender) */\n      0xffffffffffffffffffffffffffffffffffffffff\n      and\n      dup2\n      mstore\n      pop\n        /* \"Auction.sol\":716:722  Assets */\n      0x01\n        /* \"Auction.sol\":716:726  Assets[Id] */\n      0x00\n        /* \"Auction.sol\":723:725  Id */\n      sload(0x03)\n        /* \"Auction.sol\":716:726  Assets[Id] */\n      dup2\n      mstore\n      0x20\n      add\n      swap1\n      dup2\n      mstore\n      0x20\n      add\n      0x00\n      keccak256\n        /* \"Auction.sol\":716:759  Assets[Id] = Asset(Name, Price, msg.sender) */\n      0x00\n      dup3\n      add\n      mload\n      dup2\n      0x00\n      add\n      swap1\n      dup2\n      tag_58\n      swap2\n      swap1\n      tag_56\n      jump\t// in\n    tag_58:\n      pop\n      0x20\n      dup3\n      add\n      mload\n      dup2\n      0x01\n      add\n      sstore\n      0x40\n      dup3\n      add\n      mload\n      dup2\n      0x02\n      add\n      exp(0x0100, 0x00)\n      dup2\n      sload\n      dup2\n      0xffffffffffffffffffffffffffffffffffffffff\n      mul\n      not\n      and\n      swap1\n      dup4\n      0xffffffffffffffffffffffffffffffffffffffff\n      and\n      mul\n      or\n      swap1\n      sstore\n      pop\n      swap1\n      pop\n      pop\n        /* \"Auction.sol\":770:772  Id */\n      0x03\n      0x00\n        /* \"Auction.sol\":770:774  Id++ */\n      dup2\n      sload\n      dup1\n      swap3\n      swap2\n      swap1\n      tag_59\n      swap1\n      tag_60\n      jump\t// in\n    tag_59:\n      swap2\n      swap1\n      pop\n      sstore\n      pop\n        /* \"Auction.sol\":793:795  Id */\n      sload(0x03)\n        /* \"Auction.sol\":797:801  Name */\n      dup6\n        /* \"Auction.sol\":803:808  Price */\n      dup6\n        /* \"Auction.sol\":785:809  return (Id, Name, Price) */\n      swap3\n      pop\n      swap3\n      pop\n      swap3\n      pop\n        /* \"Auction.sol\":612:817  function addAsset(string memory Name, uint Price) public returns (uint, string memory, uint) {... */\n      swap3\n      pop\n      swap3\n      pop\n      swap3\n      jump\t// out\n        /* \"Auction.sol\":367:415  mapping(uint => AuctDetail[]) public AuctDetails */\n    tag_28:\n      mstore(0x20, 0x02)\n      dup2\n      0x00\n      mstore\n      keccak256(0x00, 0x40)\n      dup2\n      dup2\n      sload\n      dup2\n      lt\n      tag_61\n      jumpi\n      0x00\n      dup1\n      revert\n    tag_61:\n      swap1\n      0x00\n      mstore\n      keccak256(0x00, 0x20)\n      swap1\n      0x02\n      mul\n      add\n      0x00\n      swap2\n      pop\n      swap2\n      pop\n      pop\n      dup1\n      0x00\n      add\n      sload\n      swap1\n      dup1\n      0x01\n      add\n      0x00\n      swap1\n      sload\n      swap1\n      0x0100\n      exp\n      swap1\n      div\n      0xffffffffffffffffffffffffffffffffffffffff\n      and\n      swap1\n      pop\n      dup3\n      jump\t// out\n        /* \"Auction.sol\":324:360  mapping(uint => Asset) public Assets */\n    tag_35:\n      mstore(0x20, 0x01)\n      dup1\n      0x00\n      mstore\n      keccak256(0x00, 0x40)\n      0x00\n      swap2\n      pop\n      swap1\n      pop\n      dup1\n      0x00\n      add\n      dup1\n      sload\n      tag_63\n      swap1\n      tag_64\n      jump\t// in\n    tag_63:\n      dup1\n      0x1f\n      add\n      0x20\n      dup1\n      swap2\n      div\n      mul\n      0x20\n      add\n      mload(0x40)\n      swap1\n      dup2\n      add\n      0x40\n      mstore\n      dup1\n      swap3\n      swap2\n      swap1\n      dup2\n      dup2\n      mstore\n      0x20\n      add\n      dup3\n      dup1\n      sload\n      tag_65\n      swap1\n      tag_64\n      jump\t// in\n    tag_65:\n      dup1\n      iszero\n      tag_66\n      jumpi\n      dup1\n      0x1f\n      lt\n      tag_67\n      jumpi\n      0x0100\n      dup1\n      dup4\n      sload\n      div\n      mul\n      dup4\n      mstore\n      swap2\n      0x20\n      add\n      swap2\n      jump(tag_66)\n    tag_67:\n      dup3\n      add\n      swap2\n      swap1\n      0x00\n      mstore\n      keccak256(0x00, 0x20)\n      swap1\n    tag_68:\n      dup2\n      sload\n      dup2\n      mstore\n      swap1\n      0x01\n      add\n      swap1\n      0x20\n      add\n      dup1\n      dup4\n      gt\n      tag_68\n      jumpi\n      dup3\n      swap1\n      sub\n      0x1f\n      and\n      dup3\n      add\n      swap2\n    tag_66:\n      pop\n      pop\n      pop\n      pop\n      pop\n      swap1\n      dup1\n      0x01\n      add\n      sload\n      swap1\n      dup1\n      0x02\n      add\n      0x00\n      swap1\n      sload\n      swap1\n      0x0100\n      exp\n      swap1\n      div\n      0xffffffffffffffffffffffffffffffffffffffff\n      and\n      swap1\n      pop\n      dup4\n      jump\t// out\n        /* \"Auction.sol\":837:968  function Bidding(uint AssetId, uint bidPrice) public {... */\n    tag_41:\n        /* \"Auction.sol\":901:912  AuctDetails */\n      0x02\n        /* \"Auction.sol\":901:921  AuctDetails[AssetId] */\n      0x00\n        /* \"Auction.sol\":913:920  AssetId */\n      dup4\n        /* \"Auction.sol\":901:921  AuctDetails[AssetId] */\n      dup2\n      mstore\n      0x20\n      add\n      swap1\n      dup2\n      mstore\n      0x20\n      add\n      0x00\n      keccak256\n        /* \"Auction.sol\":927:959  AuctDetail(bidPrice, msg.sender) */\n      mload(0x40)\n      dup1\n      0x40\n      add\n      0x40\n      mstore\n      dup1\n        /* \"Auction.sol\":938:946  bidPrice */\n      dup4\n        /* \"Auction.sol\":927:959  AuctDetail(bidPrice, msg.sender) */\n      dup2\n      mstore\n      0x20\n      add\n        /* \"Auction.sol\":948:958  msg.sender */\n      caller\n        /* \"Auction.sol\":927:959  AuctDetail(bidPrice, msg.sender) */\n      0xffffffffffffffffffffffffffffffffffffffff\n      and\n      dup2\n      mstore\n      pop\n        /* \"Auction.sol\":901:960  AuctDetails[AssetId].push(AuctDetail(bidPrice, msg.sender)) */\n      swap1\n      dup1\n      0x01\n      dup2\n      sload\n      add\n      dup1\n      dup3\n      sstore\n      dup1\n      swap2\n      pop\n      pop\n      0x01\n      swap1\n      sub\n      swap1\n      0x00\n      mstore\n      keccak256(0x00, 0x20)\n      swap1\n      0x02\n      mul\n      add\n      0x00\n      swap1\n      swap2\n      swap1\n      swap2\n      swap1\n      swap2\n      pop\n      0x00\n      dup3\n      add\n      mload\n      dup2\n      0x00\n      add\n      sstore\n      0x20\n      dup3\n      add\n      mload\n      dup2\n      0x01\n      add\n      exp(0x0100, 0x00)\n      dup2\n      sload\n      dup2\n      0xffffffffffffffffffffffffffffffffffffffff\n      mul\n      not\n      and\n      swap1\n      dup4\n      0xffffffffffffffffffffffffffffffffffffffff\n      and\n      mul\n      or\n      swap1\n      sstore\n      pop\n      pop\n      pop\n        /* \"Auction.sol\":837:968  function Bidding(uint AssetId, uint bidPrice) public {... */\n      pop\n      pop\n      jump\t// out\n        /* \"Auction.sol\":278:317  mapping(address => string) public Users */\n    tag_46:\n      mstore(0x20, 0x00)\n      dup1\n      0x00\n      mstore\n      keccak256(0x00, 0x40)\n      0x00\n      swap2\n      pop\n      swap1\n      pop\n      dup1\n      sload\n      tag_71\n      swap1\n      tag_64\n      jump\t// in\n    tag_71:\n      dup1\n      0x1f\n      add\n      0x20\n      dup1\n      swap2\n      div\n      mul\n      0x20\n      add\n      mload(0x40)\n      swap1\n      dup2\n      add\n      0x40\n      mstore\n      dup1\n      swap3\n      swap2\n      swap1\n      dup2\n      dup2\n      mstore\n      0x20\n      add\n      dup3\n      dup1\n      sload\n      tag_72\n      swap1\n      tag_64\n      jump\t// in\n    tag_72:\n      dup1\n      iszero\n      tag_73\n      jumpi\n      dup1\n      0x1f\n      lt\n      tag_74\n      jumpi\n      0x0100\n      dup1\n      dup4\n      sload\n      div\n      mul\n      dup4\n      mstore\n      swap2\n      0x20\n      add\n      swap2\n      jump(tag_73)\n    tag_74:\n      dup3\n      add\n      swap2\n      swap1\n      0x00\n      mstore\n      keccak256(0x00, 0x20)\n      swap1\n    tag_75:\n      dup2\n      sload\n      dup2\n      mstore\n      swap1\n      0x01\n      add\n      swap1\n      0x20\n      add\n      dup1\n      dup4\n      gt\n      tag_75\n      jumpi\n      dup3\n      swap1\n      sub\n      0x1f\n      and\n      dup3\n      add\n      swap2\n    tag_73:\n      pop\n      pop\n      pop\n      pop\n      pop\n      dup2\n      jump\t// out\n        /* \"Auction.sol\":976:1465  function Result(uint ID) public payable returns (address, uint, uint) {... */\n    tag_51:\n        /* \"Auction.sol\":1025:1032  address */\n      0x00\n        /* \"Auction.sol\":1034:1038  uint */\n      dup1\n        /* \"Auction.sol\":1040:1044  uint */\n      0x00\n        /* \"Auction.sol\":1057:1067  uint Price */\n      dup1\n        /* \"Auction.sol\":1070:1071  0 */\n      0x00\n        /* \"Auction.sol\":1057:1071  uint Price = 0 */\n      swap1\n      pop\n        /* \"Auction.sol\":1082:1097  address OwnerId */\n      0x00\n        /* \"Auction.sol\":1108:1116  uint len */\n      dup1\n        /* \"Auction.sol\":1119:1130  AuctDetails */\n      0x02\n        /* \"Auction.sol\":1119:1134  AuctDetails[ID] */\n      0x00\n        /* \"Auction.sol\":1131:1133  ID */\n      dup9\n        /* \"Auction.sol\":1119:1134  AuctDetails[ID] */\n      dup2\n      mstore\n      0x20\n      add\n      swap1\n      dup2\n      mstore\n      0x20\n      add\n      0x00\n      keccak256\n        /* \"Auction.sol\":1119:1141  AuctDetails[ID].length */\n      dup1\n      sload\n      swap1\n      pop\n        /* \"Auction.sol\":1108:1141  uint len = AuctDetails[ID].length */\n      swap1\n      pop\n        /* \"Auction.sol\":1156:1162  uint j */\n      0x00\n        /* \"Auction.sol\":1152:1419  for(uint j = 0; j <= AuctDetails[ID].length ; j++) {... */\n    tag_77:\n        /* \"Auction.sol\":1173:1184  AuctDetails */\n      0x02\n        /* \"Auction.sol\":1173:1188  AuctDetails[ID] */\n      0x00\n        /* \"Auction.sol\":1185:1187  ID */\n      dup10\n        /* \"Auction.sol\":1173:1188  AuctDetails[ID] */\n      dup2\n      mstore\n      0x20\n      add\n      swap1\n      dup2\n      mstore\n      0x20\n      add\n      0x00\n      keccak256\n        /* \"Auction.sol\":1173:1195  AuctDetails[ID].length */\n      dup1\n      sload\n      swap1\n      pop\n        /* \"Auction.sol\":1168:1169  j */\n      dup2\n        /* \"Auction.sol\":1168:1195  j <= AuctDetails[ID].length */\n      gt\n        /* \"Auction.sol\":1152:1419  for(uint j = 0; j <= AuctDetails[ID].length ; j++) {... */\n      tag_78\n      jumpi\n        /* \"Auction.sol\":1252:1257  Price */\n      dup4\n        /* \"Auction.sol\":1222:1233  AuctDetails */\n      0x02\n        /* \"Auction.sol\":1222:1237  AuctDetails[ID] */\n      0x00\n        /* \"Auction.sol\":1234:1236  ID */\n      dup11\n        /* \"Auction.sol\":1222:1237  AuctDetails[ID] */\n      dup2\n      mstore\n      0x20\n      add\n      swap1\n      dup2\n      mstore\n      0x20\n      add\n      0x00\n      keccak256\n        /* \"Auction.sol\":1238:1239  j */\n      dup3\n        /* \"Auction.sol\":1222:1240  AuctDetails[ID][j] */\n      dup2\n      sload\n      dup2\n      lt\n      tag_80\n      jumpi\n      tag_81\n      tag_82\n      jump\t// in\n    tag_81:\n    tag_80:\n      swap1\n      0x00\n      mstore\n      keccak256(0x00, 0x20)\n      swap1\n      0x02\n      mul\n      add\n        /* \"Auction.sol\":1222:1249  AuctDetails[ID][j].bidPrice */\n      0x00\n      add\n      sload\n        /* \"Auction.sol\":1222:1257  AuctDetails[ID][j].bidPrice > Price */\n      gt\n        /* \"Auction.sol\":1218:1385  if (AuctDetails[ID][j].bidPrice > Price) {... */\n      iszero\n      tag_84\n      jumpi\n        /* \"Auction.sol\":1286:1297  AuctDetails */\n      0x02\n        /* \"Auction.sol\":1286:1301  AuctDetails[ID] */\n      0x00\n        /* \"Auction.sol\":1298:1300  ID */\n      dup10\n        /* \"Auction.sol\":1286:1301  AuctDetails[ID] */\n      dup2\n      mstore\n      0x20\n      add\n      swap1\n      dup2\n      mstore\n      0x20\n      add\n      0x00\n      keccak256\n        /* \"Auction.sol\":1302:1303  j */\n      dup2\n        /* \"Auction.sol\":1286:1304  AuctDetails[ID][j] */\n      dup2\n      sload\n      dup2\n      lt\n      tag_85\n      jumpi\n      tag_86\n      tag_82\n      jump\t// in\n    tag_86:\n    tag_85:\n      swap1\n      0x00\n      mstore\n      keccak256(0x00, 0x20)\n      swap1\n      0x02\n      mul\n      add\n        /* \"Auction.sol\":1286:1313  AuctDetails[ID][j].bidPrice */\n      0x00\n      add\n      sload\n        /* \"Auction.sol\":1278:1313  Price = AuctDetails[ID][j].bidPrice */\n      swap4\n      pop\n        /* \"Auction.sol\":1342:1353  AuctDetails */\n      0x02\n        /* \"Auction.sol\":1342:1357  AuctDetails[ID] */\n      0x00\n        /* \"Auction.sol\":1354:1356  ID */\n      dup10\n        /* \"Auction.sol\":1342:1357  AuctDetails[ID] */\n      dup2\n      mstore\n      0x20\n      add\n      swap1\n      dup2\n      mstore\n      0x20\n      add\n      0x00\n      keccak256\n        /* \"Auction.sol\":1358:1359  j */\n      dup2\n        /* \"Auction.sol\":1342:1360  AuctDetails[ID][j] */\n      dup2\n      sload\n      dup2\n      lt\n      tag_88\n      jumpi\n      tag_89\n      tag_82\n      jump\t// in\n    tag_89:\n    tag_88:\n      swap1\n      0x00\n      mstore\n      keccak256(0x00, 0x20)\n      swap1\n      0x02\n      mul\n      add\n        /* \"Auction.sol\":1342:1369  AuctDetails[ID][j].bidderId */\n      0x01\n      add\n      0x00\n      swap1\n      sload\n      swap1\n      0x0100\n      exp\n      swap1\n      div\n      0xffffffffffffffffffffffffffffffffffffffff\n      and\n        /* \"Auction.sol\":1332:1369  OwnerId = AuctDetails[ID][j].bidderId */\n      swap3\n      pop\n        /* \"Auction.sol\":1218:1385  if (AuctDetails[ID][j].bidPrice > Price) {... */\n    tag_84:\n        /* \"Auction.sol\":1198:1201  j++ */\n      dup1\n      dup1\n      tag_91\n      swap1\n      tag_60\n      jump\t// in\n    tag_91:\n      swap2\n      pop\n      pop\n        /* \"Auction.sol\":1152:1419  for(uint j = 0; j <= AuctDetails[ID].length ; j++) {... */\n      jump(tag_77)\n    tag_78:\n      pop\n        /* \"Auction.sol\":1437:1444  OwnerId */\n      dup2\n        /* \"Auction.sol\":1446:1451  Price */\n      dup4\n        /* \"Auction.sol\":1453:1456  len */\n      dup3\n        /* \"Auction.sol\":1429:1457  return (OwnerId, Price, len) */\n      swap6\n      pop\n      swap6\n      pop\n      swap6\n      pop\n      pop\n      pop\n      pop\n        /* \"Auction.sol\":976:1465  function Result(uint ID) public payable returns (address, uint, uint) {... */\n      swap2\n      swap4\n      swap1\n      swap3\n      pop\n      jump\t// out\n        /* \"#utility.yul\":7:82   */\n    tag_92:\n        /* \"#utility.yul\":40:46   */\n      0x00\n        /* \"#utility.yul\":73:75   */\n      0x40\n        /* \"#utility.yul\":67:76   */\n      mload\n        /* \"#utility.yul\":57:76   */\n      swap1\n      pop\n        /* \"#utility.yul\":7:82   */\n      swap1\n      jump\t// out\n        /* \"#utility.yul\":88:205   */\n    tag_93:\n        /* \"#utility.yul\":197:198   */\n      0x00\n        /* \"#utility.yul\":194:195   */\n      dup1\n        /* \"#utility.yul\":187:199   */\n      revert\n        /* \"#utility.yul\":211:328   */\n    tag_94:\n        /* \"#utility.yul\":320:321   */\n      0x00\n        /* \"#utility.yul\":317:318   */\n      dup1\n        /* \"#utility.yul\":310:322   */\n      revert\n        /* \"#utility.yul\":334:451   */\n    tag_95:\n        /* \"#utility.yul\":443:444   */\n      0x00\n        /* \"#utility.yul\":440:441   */\n      dup1\n        /* \"#utility.yul\":433:445   */\n      revert\n        /* \"#utility.yul\":457:574   */\n    tag_96:\n        /* \"#utility.yul\":566:567   */\n      0x00\n        /* \"#utility.yul\":563:564   */\n      dup1\n        /* \"#utility.yul\":556:568   */\n      revert\n        /* \"#utility.yul\":580:682   */\n    tag_97:\n        /* \"#utility.yul\":621:627   */\n      0x00\n        /* \"#utility.yul\":672:674   */\n      0x1f\n        /* \"#utility.yul\":668:675   */\n      not\n        /* \"#utility.yul\":663:665   */\n      0x1f\n        /* \"#utility.yul\":656:661   */\n      dup4\n        /* \"#utility.yul\":652:666   */\n      add\n        /* \"#utility.yul\":648:676   */\n      and\n        /* \"#utility.yul\":638:676   */\n      swap1\n      pop\n        /* \"#utility.yul\":580:682   */\n      swap2\n      swap1\n      pop\n      jump\t// out\n        /* \"#utility.yul\":688:868   */\n    tag_98:\n        /* \"#utility.yul\":736:813   */\n      0x4e487b7100000000000000000000000000000000000000000000000000000000\n        /* \"#utility.yul\":733:734   */\n      0x00\n        /* \"#utility.yul\":726:814   */\n      mstore\n        /* \"#utility.yul\":833:837   */\n      0x41\n        /* \"#utility.yul\":830:831   */\n      0x04\n        /* \"#utility.yul\":823:838   */\n      mstore\n        /* \"#utility.yul\":857:861   */\n      0x24\n        /* \"#utility.yul\":854:855   */\n      0x00\n        /* \"#utility.yul\":847:862   */\n      revert\n        /* \"#utility.yul\":874:1155   */\n    tag_99:\n        /* \"#utility.yul\":957:984   */\n      tag_144\n        /* \"#utility.yul\":979:983   */\n      dup3\n        /* \"#utility.yul\":957:984   */\n      tag_97\n      jump\t// in\n    tag_144:\n        /* \"#utility.yul\":949:955   */\n      dup2\n        /* \"#utility.yul\":945:985   */\n      add\n        /* \"#utility.yul\":1087:1093   */\n      dup2\n        /* \"#utility.yul\":1075:1085   */\n      dup2\n        /* \"#utility.yul\":1072:1094   */\n      lt\n        /* \"#utility.yul\":1051:1069   */\n      0xffffffffffffffff\n        /* \"#utility.yul\":1039:1049   */\n      dup3\n        /* \"#utility.yul\":1036:1070   */\n      gt\n        /* \"#utility.yul\":1033:1095   */\n      or\n        /* \"#utility.yul\":1030:1118   */\n      iszero\n      tag_145\n      jumpi\n        /* \"#utility.yul\":1098:1116   */\n      tag_146\n      tag_98\n      jump\t// in\n    tag_146:\n        /* \"#utility.yul\":1030:1118   */\n    tag_145:\n        /* \"#utility.yul\":1138:1148   */\n      dup1\n        /* \"#utility.yul\":1134:1136   */\n      0x40\n        /* \"#utility.yul\":1127:1149   */\n      mstore\n        /* \"#utility.yul\":917:1155   */\n      pop\n        /* \"#utility.yul\":874:1155   */\n      pop\n      pop\n      jump\t// out\n        /* \"#utility.yul\":1161:1290   */\n    tag_100:\n        /* \"#utility.yul\":1195:1201   */\n      0x00\n        /* \"#utility.yul\":1222:1242   */\n      tag_148\n      tag_92\n      jump\t// in\n    tag_148:\n        /* \"#utility.yul\":1212:1242   */\n      swap1\n      pop\n        /* \"#utility.yul\":1251:1284   */\n      tag_149\n        /* \"#utility.yul\":1279:1283   */\n      dup3\n        /* \"#utility.yul\":1271:1277   */\n      dup3\n        /* \"#utility.yul\":1251:1284   */\n      tag_99\n      jump\t// in\n    tag_149:\n        /* \"#utility.yul\":1161:1290   */\n      swap2\n      swap1\n      pop\n      jump\t// out\n        /* \"#utility.yul\":1296:1604   */\n    tag_101:\n        /* \"#utility.yul\":1358:1362   */\n      0x00\n        /* \"#utility.yul\":1448:1466   */\n      0xffffffffffffffff\n        /* \"#utility.yul\":1440:1446   */\n      dup3\n        /* \"#utility.yul\":1437:1467   */\n      gt\n        /* \"#utility.yul\":1434:1490   */\n      iszero\n      tag_151\n      jumpi\n        /* \"#utility.yul\":1470:1488   */\n      tag_152\n      tag_98\n      jump\t// in\n    tag_152:\n        /* \"#utility.yul\":1434:1490   */\n    tag_151:\n        /* \"#utility.yul\":1508:1537   */\n      tag_153\n        /* \"#utility.yul\":1530:1536   */\n      dup3\n        /* \"#utility.yul\":1508:1537   */\n      tag_97\n      jump\t// in\n    tag_153:\n        /* \"#utility.yul\":1500:1537   */\n      swap1\n      pop\n        /* \"#utility.yul\":1592:1596   */\n      0x20\n        /* \"#utility.yul\":1586:1590   */\n      dup2\n        /* \"#utility.yul\":1582:1597   */\n      add\n        /* \"#utility.yul\":1574:1597   */\n      swap1\n      pop\n        /* \"#utility.yul\":1296:1604   */\n      swap2\n      swap1\n      pop\n      jump\t// out\n        /* \"#utility.yul\":1610:1764   */\n    tag_102:\n        /* \"#utility.yul\":1694:1700   */\n      dup3\n        /* \"#utility.yul\":1689:1692   */\n      dup2\n        /* \"#utility.yul\":1684:1687   */\n      dup4\n        /* \"#utility.yul\":1671:1701   */\n      calldatacopy\n        /* \"#utility.yul\":1756:1757   */\n      0x00\n        /* \"#utility.yul\":1747:1753   */\n      dup4\n        /* \"#utility.yul\":1742:1745   */\n      dup4\n        /* \"#utility.yul\":1738:1754   */\n      add\n        /* \"#utility.yul\":1731:1758   */\n      mstore\n        /* \"#utility.yul\":1610:1764   */\n      pop\n      pop\n      pop\n      jump\t// out\n        /* \"#utility.yul\":1770:2182   */\n    tag_103:\n        /* \"#utility.yul\":1848:1853   */\n      0x00\n        /* \"#utility.yul\":1873:1939   */\n      tag_156\n        /* \"#utility.yul\":1889:1938   */\n      tag_157\n        /* \"#utility.yul\":1931:1937   */\n      dup5\n        /* \"#utility.yul\":1889:1938   */\n      tag_101\n      jump\t// in\n    tag_157:\n        /* \"#utility.yul\":1873:1939   */\n      tag_100\n      jump\t// in\n    tag_156:\n        /* \"#utility.yul\":1864:1939   */\n      swap1\n      pop\n        /* \"#utility.yul\":1962:1968   */\n      dup3\n        /* \"#utility.yul\":1955:1960   */\n      dup2\n        /* \"#utility.yul\":1948:1969   */\n      mstore\n        /* \"#utility.yul\":2000:2004   */\n      0x20\n        /* \"#utility.yul\":1993:1998   */\n      dup2\n        /* \"#utility.yul\":1989:2005   */\n      add\n        /* \"#utility.yul\":2038:2041   */\n      dup5\n        /* \"#utility.yul\":2029:2035   */\n      dup5\n        /* \"#utility.yul\":2024:2027   */\n      dup5\n        /* \"#utility.yul\":2020:2036   */\n      add\n        /* \"#utility.yul\":2017:2042   */\n      gt\n        /* \"#utility.yul\":2014:2126   */\n      iszero\n      tag_158\n      jumpi\n        /* \"#utility.yul\":2045:2124   */\n      tag_159\n      tag_96\n      jump\t// in\n    tag_159:\n        /* \"#utility.yul\":2014:2126   */\n    tag_158:\n        /* \"#utility.yul\":2135:2176   */\n      tag_160\n        /* \"#utility.yul\":2169:2175   */\n      dup5\n        /* \"#utility.yul\":2164:2167   */\n      dup3\n        /* \"#utility.yul\":2159:2162   */\n      dup6\n        /* \"#utility.yul\":2135:2176   */\n      tag_102\n      jump\t// in\n    tag_160:\n        /* \"#utility.yul\":1854:2182   */\n      pop\n        /* \"#utility.yul\":1770:2182   */\n      swap4\n      swap3\n      pop\n      pop\n      pop\n      jump\t// out\n        /* \"#utility.yul\":2202:2542   */\n    tag_104:\n        /* \"#utility.yul\":2258:2263   */\n      0x00\n        /* \"#utility.yul\":2307:2310   */\n      dup3\n        /* \"#utility.yul\":2300:2304   */\n      0x1f\n        /* \"#utility.yul\":2292:2298   */\n      dup4\n        /* \"#utility.yul\":2288:2305   */\n      add\n        /* \"#utility.yul\":2284:2311   */\n      slt\n        /* \"#utility.yul\":2274:2396   */\n      tag_162\n      jumpi\n        /* \"#utility.yul\":2315:2394   */\n      tag_163\n      tag_95\n      jump\t// in\n    tag_163:\n        /* \"#utility.yul\":2274:2396   */\n    tag_162:\n        /* \"#utility.yul\":2432:2438   */\n      dup2\n        /* \"#utility.yul\":2419:2439   */\n      calldataload\n        /* \"#utility.yul\":2457:2536   */\n      tag_164\n        /* \"#utility.yul\":2532:2535   */\n      dup5\n        /* \"#utility.yul\":2524:2530   */\n      dup3\n        /* \"#utility.yul\":2517:2521   */\n      0x20\n        /* \"#utility.yul\":2509:2515   */\n      dup7\n        /* \"#utility.yul\":2505:2522   */\n      add\n        /* \"#utility.yul\":2457:2536   */\n      tag_103\n      jump\t// in\n    tag_164:\n        /* \"#utility.yul\":2448:2536   */\n      swap2\n      pop\n        /* \"#utility.yul\":2264:2542   */\n      pop\n        /* \"#utility.yul\":2202:2542   */\n      swap3\n      swap2\n      pop\n      pop\n      jump\t// out\n        /* \"#utility.yul\":2548:3057   */\n    tag_13:\n        /* \"#utility.yul\":2617:2623   */\n      0x00\n        /* \"#utility.yul\":2666:2668   */\n      0x20\n        /* \"#utility.yul\":2654:2663   */\n      dup3\n        /* \"#utility.yul\":2645:2652   */\n      dup5\n        /* \"#utility.yul\":2641:2664   */\n      sub\n        /* \"#utility.yul\":2637:2669   */\n      slt\n        /* \"#utility.yul\":2634:2753   */\n      iszero\n      tag_166\n      jumpi\n        /* \"#utility.yul\":2672:2751   */\n      tag_167\n      tag_93\n      jump\t// in\n    tag_167:\n        /* \"#utility.yul\":2634:2753   */\n    tag_166:\n        /* \"#utility.yul\":2820:2821   */\n      0x00\n        /* \"#utility.yul\":2809:2818   */\n      dup3\n        /* \"#utility.yul\":2805:2822   */\n      add\n        /* \"#utility.yul\":2792:2823   */\n      calldataload\n        /* \"#utility.yul\":2850:2868   */\n      0xffffffffffffffff\n        /* \"#utility.yul\":2842:2848   */\n      dup2\n        /* \"#utility.yul\":2839:2869   */\n      gt\n        /* \"#utility.yul\":2836:2953   */\n      iszero\n      tag_168\n      jumpi\n        /* \"#utility.yul\":2872:2951   */\n      tag_169\n      tag_94\n      jump\t// in\n    tag_169:\n        /* \"#utility.yul\":2836:2953   */\n    tag_168:\n        /* \"#utility.yul\":2977:3040   */\n      tag_170\n        /* \"#utility.yul\":3032:3039   */\n      dup5\n        /* \"#utility.yul\":3023:3029   */\n      dup3\n        /* \"#utility.yul\":3012:3021   */\n      dup6\n        /* \"#utility.yul\":3008:3030   */\n      add\n        /* \"#utility.yul\":2977:3040   */\n      tag_104\n      jump\t// in\n    tag_170:\n        /* \"#utility.yul\":2967:3040   */\n      swap2\n      pop\n        /* \"#utility.yul\":2763:3050   */\n      pop\n        /* \"#utility.yul\":2548:3057   */\n      swap3\n      swap2\n      pop\n      pop\n      jump\t// out\n        /* \"#utility.yul\":3063:3162   */\n    tag_105:\n        /* \"#utility.yul\":3115:3121   */\n      0x00\n        /* \"#utility.yul\":3149:3154   */\n      dup2\n        /* \"#utility.yul\":3143:3155   */\n      mload\n        /* \"#utility.yul\":3133:3155   */\n      swap1\n      pop\n        /* \"#utility.yul\":3063:3162   */\n      swap2\n      swap1\n      pop\n      jump\t// out\n        /* \"#utility.yul\":3168:3337   */\n    tag_106:\n        /* \"#utility.yul\":3252:3263   */\n      0x00\n        /* \"#utility.yul\":3286:3292   */\n      dup3\n        /* \"#utility.yul\":3281:3284   */\n      dup3\n        /* \"#utility.yul\":3274:3293   */\n      mstore\n        /* \"#utility.yul\":3326:3330   */\n      0x20\n        /* \"#utility.yul\":3321:3324   */\n      dup3\n        /* \"#utility.yul\":3317:3331   */\n      add\n        /* \"#utility.yul\":3302:3331   */\n      swap1\n      pop\n        /* \"#utility.yul\":3168:3337   */\n      swap3\n      swap2\n      pop\n      pop\n      jump\t// out\n        /* \"#utility.yul\":3343:3650   */\n    tag_107:\n        /* \"#utility.yul\":3411:3412   */\n      0x00\n        /* \"#utility.yul\":3421:3534   */\n    tag_174:\n        /* \"#utility.yul\":3435:3441   */\n      dup4\n        /* \"#utility.yul\":3432:3433   */\n      dup2\n        /* \"#utility.yul\":3429:3442   */\n      lt\n        /* \"#utility.yul\":3421:3534   */\n      iszero\n      tag_176\n      jumpi\n        /* \"#utility.yul\":3520:3521   */\n      dup1\n        /* \"#utility.yul\":3515:3518   */\n      dup3\n        /* \"#utility.yul\":3511:3522   */\n      add\n        /* \"#utility.yul\":3505:3523   */\n      mload\n        /* \"#utility.yul\":3501:3502   */\n      dup2\n        /* \"#utility.yul\":3496:3499   */\n      dup5\n        /* \"#utility.yul\":3492:3503   */\n      add\n        /* \"#utility.yul\":3485:3524   */\n      mstore\n        /* \"#utility.yul\":3457:3459   */\n      0x20\n        /* \"#utility.yul\":3454:3455   */\n      dup2\n        /* \"#utility.yul\":3450:3460   */\n      add\n        /* \"#utility.yul\":3445:3460   */\n      swap1\n      pop\n        /* \"#utility.yul\":3421:3534   */\n      jump(tag_174)\n    tag_176:\n        /* \"#utility.yul\":3552:3558   */\n      dup4\n        /* \"#utility.yul\":3549:3550   */\n      dup2\n        /* \"#utility.yul\":3546:3559   */\n      gt\n        /* \"#utility.yul\":3543:3644   */\n      iszero\n      tag_177\n      jumpi\n        /* \"#utility.yul\":3632:3633   */\n      0x00\n        /* \"#utility.yul\":3623:3629   */\n      dup5\n        /* \"#utility.yul\":3618:3621   */\n      dup5\n        /* \"#utility.yul\":3614:3630   */\n      add\n        /* \"#utility.yul\":3607:3634   */\n      mstore\n        /* \"#utility.yul\":3543:3644   */\n    tag_177:\n        /* \"#utility.yul\":3392:3650   */\n      pop\n        /* \"#utility.yul\":3343:3650   */\n      pop\n      pop\n      pop\n      jump\t// out\n        /* \"#utility.yul\":3656:4020   */\n    tag_108:\n        /* \"#utility.yul\":3744:3747   */\n      0x00\n        /* \"#utility.yul\":3772:3811   */\n      tag_179\n        /* \"#utility.yul\":3805:3810   */\n      dup3\n        /* \"#utility.yul\":3772:3811   */\n      tag_105\n      jump\t// in\n    tag_179:\n        /* \"#utility.yul\":3827:3898   */\n      tag_180\n        /* \"#utility.yul\":3891:3897   */\n      dup2\n        /* \"#utility.yul\":3886:3889   */\n      dup6\n        /* \"#utility.yul\":3827:3898   */\n      tag_106\n      jump\t// in\n    tag_180:\n        /* \"#utility.yul\":3820:3898   */\n      swap4\n      pop\n        /* \"#utility.yul\":3907:3959   */\n      tag_181\n        /* \"#utility.yul\":3952:3958   */\n      dup2\n        /* \"#utility.yul\":3947:3950   */\n      dup6\n        /* \"#utility.yul\":3940:3944   */\n      0x20\n        /* \"#utility.yul\":3933:3938   */\n      dup7\n        /* \"#utility.yul\":3929:3945   */\n      add\n        /* \"#utility.yul\":3907:3959   */\n      tag_107\n      jump\t// in\n    tag_181:\n        /* \"#utility.yul\":3984:4013   */\n      tag_182\n        /* \"#utility.yul\":4006:4012   */\n      dup2\n        /* \"#utility.yul\":3984:4013   */\n      tag_97\n      jump\t// in\n    tag_182:\n        /* \"#utility.yul\":3979:3982   */\n      dup5\n        /* \"#utility.yul\":3975:4014   */\n      add\n        /* \"#utility.yul\":3968:4014   */\n      swap2\n      pop\n        /* \"#utility.yul\":3748:4020   */\n      pop\n        /* \"#utility.yul\":3656:4020   */\n      swap3\n      swap2\n      pop\n      pop\n      jump\t// out\n        /* \"#utility.yul\":4026:4152   */\n    tag_109:\n        /* \"#utility.yul\":4063:4070   */\n      0x00\n        /* \"#utility.yul\":4103:4145   */\n      0xffffffffffffffffffffffffffffffffffffffff\n        /* \"#utility.yul\":4096:4101   */\n      dup3\n        /* \"#utility.yul\":4092:4146   */\n      and\n        /* \"#utility.yul\":4081:4146   */\n      swap1\n      pop\n        /* \"#utility.yul\":4026:4152   */\n      swap2\n      swap1\n      pop\n      jump\t// out\n        /* \"#utility.yul\":4158:4254   */\n    tag_110:\n        /* \"#utility.yul\":4195:4202   */\n      0x00\n        /* \"#utility.yul\":4224:4248   */\n      tag_185\n        /* \"#utility.yul\":4242:4247   */\n      dup3\n        /* \"#utility.yul\":4224:4248   */\n      tag_109\n      jump\t// in\n    tag_185:\n        /* \"#utility.yul\":4213:4248   */\n      swap1\n      pop\n        /* \"#utility.yul\":4158:4254   */\n      swap2\n      swap1\n      pop\n      jump\t// out\n        /* \"#utility.yul\":4260:4378   */\n    tag_111:\n        /* \"#utility.yul\":4347:4371   */\n      tag_187\n        /* \"#utility.yul\":4365:4370   */\n      dup2\n        /* \"#utility.yul\":4347:4371   */\n      tag_110\n      jump\t// in\n    tag_187:\n        /* \"#utility.yul\":4342:4345   */\n      dup3\n        /* \"#utility.yul\":4335:4372   */\n      mstore\n        /* \"#utility.yul\":4260:4378   */\n      pop\n      pop\n      jump\t// out\n        /* \"#utility.yul\":4384:4807   */\n    tag_16:\n        /* \"#utility.yul\":4525:4529   */\n      0x00\n        /* \"#utility.yul\":4563:4565   */\n      0x40\n        /* \"#utility.yul\":4552:4561   */\n      dup3\n        /* \"#utility.yul\":4548:4566   */\n      add\n        /* \"#utility.yul\":4540:4566   */\n      swap1\n      pop\n        /* \"#utility.yul\":4612:4621   */\n      dup2\n        /* \"#utility.yul\":4606:4610   */\n      dup2\n        /* \"#utility.yul\":4602:4622   */\n      sub\n        /* \"#utility.yul\":4598:4599   */\n      0x00\n        /* \"#utility.yul\":4587:4596   */\n      dup4\n        /* \"#utility.yul\":4583:4600   */\n      add\n        /* \"#utility.yul\":4576:4623   */\n      mstore\n        /* \"#utility.yul\":4640:4718   */\n      tag_189\n        /* \"#utility.yul\":4713:4717   */\n      dup2\n        /* \"#utility.yul\":4704:4710   */\n      dup6\n        /* \"#utility.yul\":4640:4718   */\n      tag_108\n      jump\t// in\n    tag_189:\n        /* \"#utility.yul\":4632:4718   */\n      swap1\n      pop\n        /* \"#utility.yul\":4728:4800   */\n      tag_190\n        /* \"#utility.yul\":4796:4798   */\n      0x20\n        /* \"#utility.yul\":4785:4794   */\n      dup4\n        /* \"#utility.yul\":4781:4799   */\n      add\n        /* \"#utility.yul\":4772:4778   */\n      dup5\n        /* \"#utility.yul\":4728:4800   */\n      tag_111\n      jump\t// in\n    tag_190:\n        /* \"#utility.yul\":4384:4807   */\n      swap4\n      swap3\n      pop\n      pop\n      pop\n      jump\t// out\n        /* \"#utility.yul\":4813:4890   */\n    tag_112:\n        /* \"#utility.yul\":4850:4857   */\n      0x00\n        /* \"#utility.yul\":4879:4884   */\n      dup2\n        /* \"#utility.yul\":4868:4884   */\n      swap1\n      pop\n        /* \"#utility.yul\":4813:4890   */\n      swap2\n      swap1\n      pop\n      jump\t// out\n        /* \"#utility.yul\":4896:5018   */\n    tag_113:\n        /* \"#utility.yul\":4969:4993   */\n      tag_193\n        /* \"#utility.yul\":4987:4992   */\n      dup2\n        /* \"#utility.yul\":4969:4993   */\n      tag_112\n      jump\t// in\n    tag_193:\n        /* \"#utility.yul\":4962:4967   */\n      dup2\n        /* \"#utility.yul\":4959:4994   */\n      eq\n        /* \"#utility.yul\":4949:5012   */\n      tag_194\n      jumpi\n        /* \"#utility.yul\":5008:5009   */\n      0x00\n        /* \"#utility.yul\":5005:5006   */\n      dup1\n        /* \"#utility.yul\":4998:5010   */\n      revert\n        /* \"#utility.yul\":4949:5012   */\n    tag_194:\n        /* \"#utility.yul\":4896:5018   */\n      pop\n      jump\t// out\n        /* \"#utility.yul\":5024:5163   */\n    tag_114:\n        /* \"#utility.yul\":5070:5075   */\n      0x00\n        /* \"#utility.yul\":5108:5114   */\n      dup2\n        /* \"#utility.yul\":5095:5115   */\n      calldataload\n        /* \"#utility.yul\":5086:5115   */\n      swap1\n      pop\n        /* \"#utility.yul\":5124:5157   */\n      tag_196\n        /* \"#utility.yul\":5151:5156   */\n      dup2\n        /* \"#utility.yul\":5124:5157   */\n      tag_113\n      jump\t// in\n    tag_196:\n        /* \"#utility.yul\":5024:5163   */\n      swap3\n      swap2\n      pop\n      pop\n      jump\t// out\n        /* \"#utility.yul\":5169:5823   */\n    tag_20:\n        /* \"#utility.yul\":5247:5253   */\n      0x00\n        /* \"#utility.yul\":5255:5261   */\n      dup1\n        /* \"#utility.yul\":5304:5306   */\n      0x40\n        /* \"#utility.yul\":5292:5301   */\n      dup4\n        /* \"#utility.yul\":5283:5290   */\n      dup6\n        /* \"#utility.yul\":5279:5302   */\n      sub\n        /* \"#utility.yul\":5275:5307   */\n      slt\n        /* \"#utility.yul\":5272:5391   */\n      iszero\n      tag_198\n      jumpi\n        /* \"#utility.yul\":5310:5389   */\n      tag_199\n      tag_93\n      jump\t// in\n    tag_199:\n        /* \"#utility.yul\":5272:5391   */\n    tag_198:\n        /* \"#utility.yul\":5458:5459   */\n      0x00\n        /* \"#utility.yul\":5447:5456   */\n      dup4\n        /* \"#utility.yul\":5443:5460   */\n      add\n        /* \"#utility.yul\":5430:5461   */\n      calldataload\n        /* \"#utility.yul\":5488:5506   */\n      0xffffffffffffffff\n        /* \"#utility.yul\":5480:5486   */\n      dup2\n        /* \"#utility.yul\":5477:5507   */\n      gt\n        /* \"#utility.yul\":5474:5591   */\n      iszero\n      tag_200\n      jumpi\n        /* \"#utility.yul\":5510:5589   */\n      tag_201\n      tag_94\n      jump\t// in\n    tag_201:\n        /* \"#utility.yul\":5474:5591   */\n    tag_200:\n        /* \"#utility.yul\":5615:5678   */\n      tag_202\n        /* \"#utility.yul\":5670:5677   */\n      dup6\n        /* \"#utility.yul\":5661:5667   */\n      dup3\n        /* \"#utility.yul\":5650:5659   */\n      dup7\n        /* \"#utility.yul\":5646:5668   */\n      add\n        /* \"#utility.yul\":5615:5678   */\n      tag_104\n      jump\t// in\n    tag_202:\n        /* \"#utility.yul\":5605:5678   */\n      swap3\n      pop\n        /* \"#utility.yul\":5401:5688   */\n      pop\n        /* \"#utility.yul\":5727:5729   */\n      0x20\n        /* \"#utility.yul\":5753:5806   */\n      tag_203\n        /* \"#utility.yul\":5798:5805   */\n      dup6\n        /* \"#utility.yul\":5789:5795   */\n      dup3\n        /* \"#utility.yul\":5778:5787   */\n      dup7\n        /* \"#utility.yul\":5774:5796   */\n      add\n        /* \"#utility.yul\":5753:5806   */\n      tag_114\n      jump\t// in\n    tag_203:\n        /* \"#utility.yul\":5743:5806   */\n      swap2\n      pop\n        /* \"#utility.yul\":5698:5816   */\n      pop\n        /* \"#utility.yul\":5169:5823   */\n      swap3\n      pop\n      swap3\n      swap1\n      pop\n      jump\t// out\n        /* \"#utility.yul\":5829:5947   */\n    tag_115:\n        /* \"#utility.yul\":5916:5940   */\n      tag_205\n        /* \"#utility.yul\":5934:5939   */\n      dup2\n        /* \"#utility.yul\":5916:5940   */\n      tag_112\n      jump\t// in\n    tag_205:\n        /* \"#utility.yul\":5911:5914   */\n      dup3\n        /* \"#utility.yul\":5904:5941   */\n      mstore\n        /* \"#utility.yul\":5829:5947   */\n      pop\n      pop\n      jump\t// out\n        /* \"#utility.yul\":5953:6486   */\n    tag_23:\n        /* \"#utility.yul\":6122:6126   */\n      0x00\n        /* \"#utility.yul\":6160:6162   */\n      0x60\n        /* \"#utility.yul\":6149:6158   */\n      dup3\n        /* \"#utility.yul\":6145:6163   */\n      add\n        /* \"#utility.yul\":6137:6163   */\n      swap1\n      pop\n        /* \"#utility.yul\":6173:6244   */\n      tag_207\n        /* \"#utility.yul\":6241:6242   */\n      0x00\n        /* \"#utility.yul\":6230:6239   */\n      dup4\n        /* \"#utility.yul\":6226:6243   */\n      add\n        /* \"#utility.yul\":6217:6223   */\n      dup7\n        /* \"#utility.yul\":6173:6244   */\n      tag_115\n      jump\t// in\n    tag_207:\n        /* \"#utility.yul\":6291:6300   */\n      dup2\n        /* \"#utility.yul\":6285:6289   */\n      dup2\n        /* \"#utility.yul\":6281:6301   */\n      sub\n        /* \"#utility.yul\":6276:6278   */\n      0x20\n        /* \"#utility.yul\":6265:6274   */\n      dup4\n        /* \"#utility.yul\":6261:6279   */\n      add\n        /* \"#utility.yul\":6254:6302   */\n      mstore\n        /* \"#utility.yul\":6319:6397   */\n      tag_208\n        /* \"#utility.yul\":6392:6396   */\n      dup2\n        /* \"#utility.yul\":6383:6389   */\n      dup6\n        /* \"#utility.yul\":6319:6397   */\n      tag_108\n      jump\t// in\n    tag_208:\n        /* \"#utility.yul\":6311:6397   */\n      swap1\n      pop\n        /* \"#utility.yul\":6407:6479   */\n      tag_209\n        /* \"#utility.yul\":6475:6477   */\n      0x40\n        /* \"#utility.yul\":6464:6473   */\n      dup4\n        /* \"#utility.yul\":6460:6478   */\n      add\n        /* \"#utility.yul\":6451:6457   */\n      dup5\n        /* \"#utility.yul\":6407:6479   */\n      tag_115\n      jump\t// in\n    tag_209:\n        /* \"#utility.yul\":5953:6486   */\n      swap5\n      swap4\n      pop\n      pop\n      pop\n      pop\n      jump\t// out\n        /* \"#utility.yul\":6492:6966   */\n    tag_27:\n        /* \"#utility.yul\":6560:6566   */\n      0x00\n        /* \"#utility.yul\":6568:6574   */\n      dup1\n        /* \"#utility.yul\":6617:6619   */\n      0x40\n        /* \"#utility.yul\":6605:6614   */\n      dup4\n        /* \"#utility.yul\":6596:6603   */\n      dup6\n        /* \"#utility.yul\":6592:6615   */\n      sub\n        /* \"#utility.yul\":6588:6620   */\n      slt\n        /* \"#utility.yul\":6585:6704   */\n      iszero\n      tag_211\n      jumpi\n        /* \"#utility.yul\":6623:6702   */\n      tag_212\n      tag_93\n      jump\t// in\n    tag_212:\n        /* \"#utility.yul\":6585:6704   */\n    tag_211:\n        /* \"#utility.yul\":6743:6744   */\n      0x00\n        /* \"#utility.yul\":6768:6821   */\n      tag_213\n        /* \"#utility.yul\":6813:6820   */\n      dup6\n        /* \"#utility.yul\":6804:6810   */\n      dup3\n        /* \"#utility.yul\":6793:6802   */\n      dup7\n        /* \"#utility.yul\":6789:6811   */\n      add\n        /* \"#utility.yul\":6768:6821   */\n      tag_114\n      jump\t// in\n    tag_213:\n        /* \"#utility.yul\":6758:6821   */\n      swap3\n      pop\n        /* \"#utility.yul\":6714:6831   */\n      pop\n        /* \"#utility.yul\":6870:6872   */\n      0x20\n        /* \"#utility.yul\":6896:6949   */\n      tag_214\n        /* \"#utility.yul\":6941:6948   */\n      dup6\n        /* \"#utility.yul\":6932:6938   */\n      dup3\n        /* \"#utility.yul\":6921:6930   */\n      dup7\n        /* \"#utility.yul\":6917:6939   */\n      add\n        /* \"#utility.yul\":6896:6949   */\n      tag_114\n      jump\t// in\n    tag_214:\n        /* \"#utility.yul\":6886:6949   */\n      swap2\n      pop\n        /* \"#utility.yul\":6841:6959   */\n      pop\n        /* \"#utility.yul\":6492:6966   */\n      swap3\n      pop\n      swap3\n      swap1\n      pop\n      jump\t// out\n        /* \"#utility.yul\":6972:7304   */\n    tag_30:\n        /* \"#utility.yul\":7093:7097   */\n      0x00\n        /* \"#utility.yul\":7131:7133   */\n      0x40\n        /* \"#utility.yul\":7120:7129   */\n      dup3\n        /* \"#utility.yul\":7116:7134   */\n      add\n        /* \"#utility.yul\":7108:7134   */\n      swap1\n      pop\n        /* \"#utility.yul\":7144:7215   */\n      tag_216\n        /* \"#utility.yul\":7212:7213   */\n      0x00\n        /* \"#utility.yul\":7201:7210   */\n      dup4\n        /* \"#utility.yul\":7197:7214   */\n      add\n        /* \"#utility.yul\":7188:7194   */\n      dup6\n        /* \"#utility.yul\":7144:7215   */\n      tag_115\n      jump\t// in\n    tag_216:\n        /* \"#utility.yul\":7225:7297   */\n      tag_217\n        /* \"#utility.yul\":7293:7295   */\n      0x20\n        /* \"#utility.yul\":7282:7291   */\n      dup4\n        /* \"#utility.yul\":7278:7296   */\n      add\n        /* \"#utility.yul\":7269:7275   */\n      dup5\n        /* \"#utility.yul\":7225:7297   */\n      tag_111\n      jump\t// in\n    tag_217:\n        /* \"#utility.yul\":6972:7304   */\n      swap4\n      swap3\n      pop\n      pop\n      pop\n      jump\t// out\n        /* \"#utility.yul\":7310:7639   */\n    tag_34:\n        /* \"#utility.yul\":7369:7375   */\n      0x00\n        /* \"#utility.yul\":7418:7420   */\n      0x20\n        /* \"#utility.yul\":7406:7415   */\n      dup3\n        /* \"#utility.yul\":7397:7404   */\n      dup5\n        /* \"#utility.yul\":7393:7416   */\n      sub\n        /* \"#utility.yul\":7389:7421   */\n      slt\n        /* \"#utility.yul\":7386:7505   */\n      iszero\n      tag_219\n      jumpi\n        /* \"#utility.yul\":7424:7503   */\n      tag_220\n      tag_93\n      jump\t// in\n    tag_220:\n        /* \"#utility.yul\":7386:7505   */\n    tag_219:\n        /* \"#utility.yul\":7544:7545   */\n      0x00\n        /* \"#utility.yul\":7569:7622   */\n      tag_221\n        /* \"#utility.yul\":7614:7621   */\n      dup5\n        /* \"#utility.yul\":7605:7611   */\n      dup3\n        /* \"#utility.yul\":7594:7603   */\n      dup6\n        /* \"#utility.yul\":7590:7612   */\n      add\n        /* \"#utility.yul\":7569:7622   */\n      tag_114\n      jump\t// in\n    tag_221:\n        /* \"#utility.yul\":7559:7622   */\n      swap2\n      pop\n        /* \"#utility.yul\":7515:7632   */\n      pop\n        /* \"#utility.yul\":7310:7639   */\n      swap3\n      swap2\n      pop\n      pop\n      jump\t// out\n        /* \"#utility.yul\":7645:8178   */\n    tag_37:\n        /* \"#utility.yul\":7814:7818   */\n      0x00\n        /* \"#utility.yul\":7852:7854   */\n      0x60\n        /* \"#utility.yul\":7841:7850   */\n      dup3\n        /* \"#utility.yul\":7837:7855   */\n      add\n        /* \"#utility.yul\":7829:7855   */\n      swap1\n      pop\n        /* \"#utility.yul\":7901:7910   */\n      dup2\n        /* \"#utility.yul\":7895:7899   */\n      dup2\n        /* \"#utility.yul\":7891:7911   */\n      sub\n        /* \"#utility.yul\":7887:7888   */\n      0x00\n        /* \"#utility.yul\":7876:7885   */\n      dup4\n        /* \"#utility.yul\":7872:7889   */\n      add\n        /* \"#utility.yul\":7865:7912   */\n      mstore\n        /* \"#utility.yul\":7929:8007   */\n      tag_223\n        /* \"#utility.yul\":8002:8006   */\n      dup2\n        /* \"#utility.yul\":7993:7999   */\n      dup7\n        /* \"#utility.yul\":7929:8007   */\n      tag_108\n      jump\t// in\n    tag_223:\n        /* \"#utility.yul\":7921:8007   */\n      swap1\n      pop\n        /* \"#utility.yul\":8017:8089   */\n      tag_224\n        /* \"#utility.yul\":8085:8087   */\n      0x20\n        /* \"#utility.yul\":8074:8083   */\n      dup4\n        /* \"#utility.yul\":8070:8088   */\n      add\n        /* \"#utility.yul\":8061:8067   */\n      dup6\n        /* \"#utility.yul\":8017:8089   */\n      tag_115\n      jump\t// in\n    tag_224:\n        /* \"#utility.yul\":8099:8171   */\n      tag_225\n        /* \"#utility.yul\":8167:8169   */\n      0x40\n        /* \"#utility.yul\":8156:8165   */\n      dup4\n        /* \"#utility.yul\":8152:8170   */\n      add\n        /* \"#utility.yul\":8143:8149   */\n      dup5\n        /* \"#utility.yul\":8099:8171   */\n      tag_111\n      jump\t// in\n    tag_225:\n        /* \"#utility.yul\":7645:8178   */\n      swap5\n      swap4\n      pop\n      pop\n      pop\n      pop\n      jump\t// out\n        /* \"#utility.yul\":8184:8306   */\n    tag_116:\n        /* \"#utility.yul\":8257:8281   */\n      tag_227\n        /* \"#utility.yul\":8275:8280   */\n      dup2\n        /* \"#utility.yul\":8257:8281   */\n      tag_110\n      jump\t// in\n    tag_227:\n        /* \"#utility.yul\":8250:8255   */\n      dup2\n        /* \"#utility.yul\":8247:8282   */\n      eq\n        /* \"#utility.yul\":8237:8300   */\n      tag_228\n      jumpi\n        /* \"#utility.yul\":8296:8297   */\n      0x00\n        /* \"#utility.yul\":8293:8294   */\n      dup1\n        /* \"#utility.yul\":8286:8298   */\n      revert\n        /* \"#utility.yul\":8237:8300   */\n    tag_228:\n        /* \"#utility.yul\":8184:8306   */\n      pop\n      jump\t// out\n        /* \"#utility.yul\":8312:8451   */\n    tag_117:\n        /* \"#utility.yul\":8358:8363   */\n      0x00\n        /* \"#utility.yul\":8396:8402   */\n      dup2\n        /* \"#utility.yul\":8383:8403   */\n      calldataload\n        /* \"#utility.yul\":8374:8403   */\n      swap1\n      pop\n        /* \"#utility.yul\":8412:8445   */\n      tag_230\n        /* \"#utility.yul\":8439:8444   */\n      dup2\n        /* \"#utility.yul\":8412:8445   */\n      tag_116\n      jump\t// in\n    tag_230:\n        /* \"#utility.yul\":8312:8451   */\n      swap3\n      swap2\n      pop\n      pop\n      jump\t// out\n        /* \"#utility.yul\":8457:8786   */\n    tag_45:\n        /* \"#utility.yul\":8516:8522   */\n      0x00\n        /* \"#utility.yul\":8565:8567   */\n      0x20\n        /* \"#utility.yul\":8553:8562   */\n      dup3\n        /* \"#utility.yul\":8544:8551   */\n      dup5\n        /* \"#utility.yul\":8540:8563   */\n      sub\n        /* \"#utility.yul\":8536:8568   */\n      slt\n        /* \"#utility.yul\":8533:8652   */\n      iszero\n      tag_232\n      jumpi\n        /* \"#utility.yul\":8571:8650   */\n      tag_233\n      tag_93\n      jump\t// in\n    tag_233:\n        /* \"#utility.yul\":8533:8652   */\n    tag_232:\n        /* \"#utility.yul\":8691:8692   */\n      0x00\n        /* \"#utility.yul\":8716:8769   */\n      tag_234\n        /* \"#utility.yul\":8761:8768   */\n      dup5\n        /* \"#utility.yul\":8752:8758   */\n      dup3\n        /* \"#utility.yul\":8741:8750   */\n      dup6\n        /* \"#utility.yul\":8737:8759   */\n      add\n        /* \"#utility.yul\":8716:8769   */\n      tag_117\n      jump\t// in\n    tag_234:\n        /* \"#utility.yul\":8706:8769   */\n      swap2\n      pop\n        /* \"#utility.yul\":8662:8779   */\n      pop\n        /* \"#utility.yul\":8457:8786   */\n      swap3\n      swap2\n      pop\n      pop\n      jump\t// out\n        /* \"#utility.yul\":8792:9105   */\n    tag_48:\n        /* \"#utility.yul\":8905:8909   */\n      0x00\n        /* \"#utility.yul\":8943:8945   */\n      0x20\n        /* \"#utility.yul\":8932:8941   */\n      dup3\n        /* \"#utility.yul\":8928:8946   */\n      add\n        /* \"#utility.yul\":8920:8946   */\n      swap1\n      pop\n        /* \"#utility.yul\":8992:9001   */\n      dup2\n        /* \"#utility.yul\":8986:8990   */\n      dup2\n        /* \"#utility.yul\":8982:9002   */\n      sub\n        /* \"#utility.yul\":8978:8979   */\n      0x00\n        /* \"#utility.yul\":8967:8976   */\n      dup4\n        /* \"#utility.yul\":8963:8980   */\n      add\n        /* \"#utility.yul\":8956:9003   */\n      mstore\n        /* \"#utility.yul\":9020:9098   */\n      tag_236\n        /* \"#utility.yul\":9093:9097   */\n      dup2\n        /* \"#utility.yul\":9084:9090   */\n      dup5\n        /* \"#utility.yul\":9020:9098   */\n      tag_108\n      jump\t// in\n    tag_236:\n        /* \"#utility.yul\":9012:9098   */\n      swap1\n      pop\n        /* \"#utility.yul\":8792:9105   */\n      swap3\n      swap2\n      pop\n      pop\n      jump\t// out\n        /* \"#utility.yul\":9111:9553   */\n    tag_53:\n        /* \"#utility.yul\":9260:9264   */\n      0x00\n        /* \"#utility.yul\":9298:9300   */\n      0x60\n        /* \"#utility.yul\":9287:9296   */\n      dup3\n        /* \"#utility.yul\":9283:9301   */\n      add\n        /* \"#utility.yul\":9275:9301   */\n      swap1\n      pop\n        /* \"#utility.yul\":9311:9382   */\n      tag_238\n        /* \"#utility.yul\":9379:9380   */\n      0x00\n        /* \"#utility.yul\":9368:9377   */\n      dup4\n        /* \"#utility.yul\":9364:9381   */\n      add\n        /* \"#utility.yul\":9355:9361   */\n      dup7\n        /* \"#utility.yul\":9311:9382   */\n      tag_111\n      jump\t// in\n    tag_238:\n        /* \"#utility.yul\":9392:9464   */\n      tag_239\n        /* \"#utility.yul\":9460:9462   */\n      0x20\n        /* \"#utility.yul\":9449:9458   */\n      dup4\n        /* \"#utility.yul\":9445:9463   */\n      add\n        /* \"#utility.yul\":9436:9442   */\n      dup6\n        /* \"#utility.yul\":9392:9464   */\n      tag_115\n      jump\t// in\n    tag_239:\n        /* \"#utility.yul\":9474:9546   */\n      tag_240\n        /* \"#utility.yul\":9542:9544   */\n      0x40\n        /* \"#utility.yul\":9531:9540   */\n      dup4\n        /* \"#utility.yul\":9527:9545   */\n      add\n        /* \"#utility.yul\":9518:9524   */\n      dup5\n        /* \"#utility.yul\":9474:9546   */\n      tag_115\n      jump\t// in\n    tag_240:\n        /* \"#utility.yul\":9111:9553   */\n      swap5\n      swap4\n      pop\n      pop\n      pop\n      pop\n      jump\t// out\n        /* \"#utility.yul\":9559:9739   */\n    tag_118:\n        /* \"#utility.yul\":9607:9684   */\n      0x4e487b7100000000000000000000000000000000000000000000000000000000\n        /* \"#utility.yul\":9604:9605   */\n      0x00\n        /* \"#utility.yul\":9597:9685   */\n      mstore\n        /* \"#utility.yul\":9704:9708   */\n      0x22\n        /* \"#utility.yul\":9701:9702   */\n      0x04\n        /* \"#utility.yul\":9694:9709   */\n      mstore\n        /* \"#utility.yul\":9728:9732   */\n      0x24\n        /* \"#utility.yul\":9725:9726   */\n      0x00\n        /* \"#utility.yul\":9718:9733   */\n      revert\n        /* \"#utility.yul\":9745:10065   */\n    tag_64:\n        /* \"#utility.yul\":9789:9795   */\n      0x00\n        /* \"#utility.yul\":9826:9827   */\n      0x02\n        /* \"#utility.yul\":9820:9824   */\n      dup3\n        /* \"#utility.yul\":9816:9828   */\n      div\n        /* \"#utility.yul\":9806:9828   */\n      swap1\n      pop\n        /* \"#utility.yul\":9873:9874   */\n      0x01\n        /* \"#utility.yul\":9867:9871   */\n      dup3\n        /* \"#utility.yul\":9863:9875   */\n      and\n        /* \"#utility.yul\":9894:9912   */\n      dup1\n        /* \"#utility.yul\":9884:9965   */\n      tag_243\n      jumpi\n        /* \"#utility.yul\":9950:9954   */\n      0x7f\n        /* \"#utility.yul\":9942:9948   */\n      dup3\n        /* \"#utility.yul\":9938:9955   */\n      and\n        /* \"#utility.yul\":9928:9955   */\n      swap2\n      pop\n        /* \"#utility.yul\":9884:9965   */\n    tag_243:\n        /* \"#utility.yul\":10012:10014   */\n      0x20\n        /* \"#utility.yul\":10004:10010   */\n      dup3\n        /* \"#utility.yul\":10001:10015   */\n      lt\n        /* \"#utility.yul\":9981:9999   */\n      dup2\n        /* \"#utility.yul\":9978:10016   */\n      sub\n        /* \"#utility.yul\":9975:10059   */\n      tag_244\n      jumpi\n        /* \"#utility.yul\":10031:10049   */\n      tag_245\n      tag_118\n      jump\t// in\n    tag_245:\n        /* \"#utility.yul\":9975:10059   */\n    tag_244:\n        /* \"#utility.yul\":9796:10065   */\n      pop\n        /* \"#utility.yul\":9745:10065   */\n      swap2\n      swap1\n      pop\n      jump\t// out\n        /* \"#utility.yul\":10071:10212   */\n    tag_119:\n        /* \"#utility.yul\":10120:10124   */\n      0x00\n        /* \"#utility.yul\":10143:10146   */\n      dup2\n        /* \"#utility.yul\":10135:10146   */\n      swap1\n      pop\n        /* \"#utility.yul\":10166:10169   */\n      dup2\n        /* \"#utility.yul\":10163:10164   */\n      0x00\n        /* \"#utility.yul\":10156:10170   */\n      mstore\n        /* \"#utility.yul\":10200:10204   */\n      0x20\n        /* \"#utility.yul\":10197:10198   */\n      0x00\n        /* \"#utility.yul\":10187:10205   */\n      keccak256\n        /* \"#utility.yul\":10179:10205   */\n      swap1\n      pop\n        /* \"#utility.yul\":10071:10212   */\n      swap2\n      swap1\n      pop\n      jump\t// out\n        /* \"#utility.yul\":10218:10311   */\n    tag_120:\n        /* \"#utility.yul\":10255:10261   */\n      0x00\n        /* \"#utility.yul\":10302:10304   */\n      0x20\n        /* \"#utility.yul\":10297:10299   */\n      0x1f\n        /* \"#utility.yul\":10290:10295   */\n      dup4\n        /* \"#utility.yul\":10286:10300   */\n      add\n        /* \"#utility.yul\":10282:10305   */\n      div\n        /* \"#utility.yul\":10272:10305   */\n      swap1\n      pop\n        /* \"#utility.yul\":10218:10311   */\n      swap2\n      swap1\n      pop\n      jump\t// out\n        /* \"#utility.yul\":10317:10424   */\n    tag_121:\n        /* \"#utility.yul\":10361:10369   */\n      0x00\n        /* \"#utility.yul\":10411:10416   */\n      dup3\n        /* \"#utility.yul\":10405:10409   */\n      dup3\n        /* \"#utility.yul\":10401:10417   */\n      shl\n        /* \"#utility.yul\":10380:10417   */\n      swap1\n      pop\n        /* \"#utility.yul\":10317:10424   */\n      swap3\n      swap2\n      pop\n      pop\n      jump\t// out\n        /* \"#utility.yul\":10430:10823   */\n    tag_122:\n        /* \"#utility.yul\":10499:10505   */\n      0x00\n        /* \"#utility.yul\":10549:10550   */\n      0x08\n        /* \"#utility.yul\":10537:10547   */\n      dup4\n        /* \"#utility.yul\":10533:10551   */\n      mul\n        /* \"#utility.yul\":10572:10669   */\n      tag_250\n        /* \"#utility.yul\":10602:10668   */\n      0xffffffffffffffffffffffffffffffffffffffffffffffffffffffffffffffff\n        /* \"#utility.yul\":10591:10600   */\n      dup3\n        /* \"#utility.yul\":10572:10669   */\n      tag_121\n      jump\t// in\n    tag_250:\n        /* \"#utility.yul\":10690:10729   */\n      tag_251\n        /* \"#utility.yul\":10720:10728   */\n      dup7\n        /* \"#utility.yul\":10709:10718   */\n      dup4\n        /* \"#utility.yul\":10690:10729   */\n      tag_121\n      jump\t// in\n    tag_251:\n        /* \"#utility.yul\":10678:10729   */\n      swap6\n      pop\n        /* \"#utility.yul\":10762:10766   */\n      dup1\n        /* \"#utility.yul\":10758:10767   */\n      not\n        /* \"#utility.yul\":10751:10756   */\n      dup5\n        /* \"#utility.yul\":10747:10768   */\n      and\n        /* \"#utility.yul\":10738:10768   */\n      swap4\n      pop\n        /* \"#utility.yul\":10811:10815   */\n      dup1\n        /* \"#utility.yul\":10801:10809   */\n      dup7\n        /* \"#utility.yul\":10797:10816   */\n      and\n        /* \"#utility.yul\":10790:10795   */\n      dup5\n        /* \"#utility.yul\":10787:10817   */\n      or\n        /* \"#utility.yul\":10777:10817   */\n      swap3\n      pop\n        /* \"#utility.yul\":10506:10823   */\n      pop\n      pop\n        /* \"#utility.yul\":10430:10823   */\n      swap4\n      swap3\n      pop\n      pop\n      pop\n      jump\t// out\n        /* \"#utility.yul\":10829:10889   */\n    tag_123:\n        /* \"#utility.yul\":10857:10860   */\n      0x00\n        /* \"#utility.yul\":10878:10883   */\n      dup2\n        /* \"#utility.yul\":10871:10883   */\n      swap1\n      pop\n        /* \"#utility.yul\":10829:10889   */\n      swap2\n      swap1\n      pop\n      jump\t// out\n        /* \"#utility.yul\":10895:11037   */\n    tag_124:\n        /* \"#utility.yul\":10945:10954   */\n      0x00\n        /* \"#utility.yul\":10978:11031   */\n      tag_254\n        /* \"#utility.yul\":10996:11030   */\n      tag_255\n        /* \"#utility.yul\":11005:11029   */\n      tag_256\n        /* \"#utility.yul\":11023:11028   */\n      dup5\n        /* \"#utility.yul\":11005:11029   */\n      tag_112\n      jump\t// in\n    tag_256:\n        /* \"#utility.yul\":10996:11030   */\n      tag_123\n      jump\t// in\n    tag_255:\n        /* \"#utility.yul\":10978:11031   */\n      tag_112\n      jump\t// in\n    tag_254:\n        /* \"#utility.yul\":10965:11031   */\n      swap1\n      pop\n        /* \"#utility.yul\":10895:11037   */\n      swap2\n      swap1\n      pop\n      jump\t// out\n        /* \"#utility.yul\":11043:11118   */\n    tag_125:\n        /* \"#utility.yul\":11086:11089   */\n      0x00\n        /* \"#utility.yul\":11107:11112   */\n      dup2\n        /* \"#utility.yul\":11100:11112   */\n      swap1\n      pop\n        /* \"#utility.yul\":11043:11118   */\n      swap2\n      swap1\n      pop\n      jump\t// out\n        /* \"#utility.yul\":11124:11393   */\n    tag_126:\n        /* \"#utility.yul\":11234:11273   */\n      tag_259\n        /* \"#utility.yul\":11265:11272   */\n      dup4\n        /* \"#utility.yul\":11234:11273   */\n      tag_124\n      jump\t// in\n    tag_259:\n        /* \"#utility.yul\":11295:11386   */\n      tag_260\n        /* \"#utility.yul\":11344:11385   */\n      tag_261\n        /* \"#utility.yul\":11368:11384   */\n      dup3\n        /* \"#utility.yul\":11344:11385   */\n      tag_125\n      jump\t// in\n    tag_261:\n        /* \"#utility.yul\":11336:11342   */\n      dup5\n        /* \"#utility.yul\":11329:11333   */\n      dup5\n        /* \"#utility.yul\":11323:11334   */\n      sload\n        /* \"#utility.yul\":11295:11386   */\n      tag_122\n      jump\t// in\n    tag_260:\n        /* \"#utility.yul\":11289:11293   */\n      dup3\n        /* \"#utility.yul\":11282:11387   */\n      sstore\n        /* \"#utility.yul\":11200:11393   */\n      pop\n        /* \"#utility.yul\":11124:11393   */\n      pop\n      pop\n      pop\n      jump\t// out\n        /* \"#utility.yul\":11399:11472   */\n    tag_127:\n        /* \"#utility.yul\":11444:11447   */\n      0x00\n        /* \"#utility.yul\":11399:11472   */\n      swap1\n      jump\t// out\n        /* \"#utility.yul\":11478:11667   */\n    tag_128:\n        /* \"#utility.yul\":11555:11587   */\n      tag_264\n      tag_127\n      jump\t// in\n    tag_264:\n        /* \"#utility.yul\":11596:11661   */\n      tag_265\n        /* \"#utility.yul\":11654:11660   */\n      dup2\n        /* \"#utility.yul\":11646:11652   */\n      dup5\n        /* \"#utility.yul\":11640:11644   */\n      dup5\n        /* \"#utility.yul\":11596:11661   */\n      tag_126\n      jump\t// in\n    tag_265:\n        /* \"#utility.yul\":11531:11667   */\n      pop\n        /* \"#utility.yul\":11478:11667   */\n      pop\n      pop\n      jump\t// out\n        /* \"#utility.yul\":11673:11859   */\n    tag_129:\n        /* \"#utility.yul\":11733:11853   */\n    tag_267:\n        /* \"#utility.yul\":11750:11753   */\n      dup2\n        /* \"#utility.yul\":11743:11748   */\n      dup2\n        /* \"#utility.yul\":11740:11754   */\n      lt\n        /* \"#utility.yul\":11733:11853   */\n      iszero\n      tag_269\n      jumpi\n        /* \"#utility.yul\":11804:11843   */\n      tag_270\n        /* \"#utility.yul\":11841:11842   */\n      0x00\n        /* \"#utility.yul\":11834:11839   */\n      dup3\n        /* \"#utility.yul\":11804:11843   */\n      tag_128\n      jump\t// in\n    tag_270:\n        /* \"#utility.yul\":11777:11778   */\n      0x01\n        /* \"#utility.yul\":11770:11775   */\n      dup2\n        /* \"#utility.yul\":11766:11779   */\n      add\n        /* \"#utility.yul\":11757:11779   */\n      swap1\n      pop\n        /* \"#utility.yul\":11733:11853   */\n      jump(tag_267)\n    tag_269:\n        /* \"#utility.yul\":11673:11859   */\n      pop\n      pop\n      jump\t// out\n        /* \"#utility.yul\":11865:12408   */\n    tag_130:\n        /* \"#utility.yul\":11966:11968   */\n      0x1f\n        /* \"#utility.yul\":11961:11964   */\n      dup3\n        /* \"#utility.yul\":11958:11969   */\n      gt\n        /* \"#utility.yul\":11955:12401   */\n      iszero\n      tag_272\n      jumpi\n        /* \"#utility.yul\":12000:12038   */\n      tag_273\n        /* \"#utility.yul\":12032:12037   */\n      dup2\n        /* \"#utility.yul\":12000:12038   */\n      tag_119\n      jump\t// in\n    tag_273:\n        /* \"#utility.yul\":12084:12113   */\n      tag_274\n        /* \"#utility.yul\":12102:12112   */\n      dup5\n        /* \"#utility.yul\":12084:12113   */\n      tag_120\n      jump\t// in\n    tag_274:\n        /* \"#utility.yul\":12074:12082   */\n      dup2\n        /* \"#utility.yul\":12070:12114   */\n      add\n        /* \"#utility.yul\":12267:12269   */\n      0x20\n        /* \"#utility.yul\":12255:12265   */\n      dup6\n        /* \"#utility.yul\":12252:12270   */\n      lt\n        /* \"#utility.yul\":12249:12298   */\n      iszero\n      tag_275\n      jumpi\n        /* \"#utility.yul\":12288:12296   */\n      dup2\n        /* \"#utility.yul\":12273:12296   */\n      swap1\n      pop\n        /* \"#utility.yul\":12249:12298   */\n    tag_275:\n        /* \"#utility.yul\":12311:12391   */\n      tag_276\n        /* \"#utility.yul\":12367:12389   */\n      tag_277\n        /* \"#utility.yul\":12385:12388   */\n      dup6\n        /* \"#utility.yul\":12367:12389   */\n      tag_120\n      jump\t// in\n    tag_277:\n        /* \"#utility.yul\":12357:12365   */\n      dup4\n        /* \"#utility.yul\":12353:12390   */\n      add\n        /* \"#utility.yul\":12340:12351   */\n      dup3\n        /* \"#utility.yul\":12311:12391   */\n      tag_129\n      jump\t// in\n    tag_276:\n        /* \"#utility.yul\":11970:12401   */\n      pop\n      pop\n        /* \"#utility.yul\":11955:12401   */\n    tag_272:\n        /* \"#utility.yul\":11865:12408   */\n      pop\n      pop\n      pop\n      jump\t// out\n        /* \"#utility.yul\":12414:12531   */\n    tag_131:\n        /* \"#utility.yul\":12468:12476   */\n      0x00\n        /* \"#utility.yul\":12518:12523   */\n      dup3\n        /* \"#utility.yul\":12512:12516   */\n      dup3\n        /* \"#utility.yul\":12508:12524   */\n      shr\n        /* \"#utility.yul\":12487:12524   */\n      swap1\n      pop\n        /* \"#utility.yul\":12414:12531   */\n      swap3\n      swap2\n      pop\n      pop\n      jump\t// out\n        /* \"#utility.yul\":12537:12706   */\n    tag_132:\n        /* \"#utility.yul\":12581:12587   */\n      0x00\n        /* \"#utility.yul\":12614:12665   */\n      tag_280\n        /* \"#utility.yul\":12662:12663   */\n      0x00\n        /* \"#utility.yul\":12658:12664   */\n      not\n        /* \"#utility.yul\":12650:12655   */\n      dup5\n        /* \"#utility.yul\":12647:12648   */\n      0x08\n        /* \"#utility.yul\":12643:12656   */\n      mul\n        /* \"#utility.yul\":12614:12665   */\n      tag_131\n      jump\t// in\n    tag_280:\n        /* \"#utility.yul\":12610:12666   */\n      not\n        /* \"#utility.yul\":12695:12699   */\n      dup1\n        /* \"#utility.yul\":12689:12693   */\n      dup4\n        /* \"#utility.yul\":12685:12700   */\n      and\n        /* \"#utility.yul\":12675:12700   */\n      swap2\n      pop\n        /* \"#utility.yul\":12588:12706   */\n      pop\n        /* \"#utility.yul\":12537:12706   */\n      swap3\n      swap2\n      pop\n      pop\n      jump\t// out\n        /* \"#utility.yul\":12711:13006   */\n    tag_133:\n        /* \"#utility.yul\":12787:12791   */\n      0x00\n        /* \"#utility.yul\":12933:12962   */\n      tag_282\n        /* \"#utility.yul\":12958:12961   */\n      dup4\n        /* \"#utility.yul\":12952:12956   */\n      dup4\n        /* \"#utility.yul\":12933:12962   */\n      tag_132\n      jump\t// in\n    tag_282:\n        /* \"#utility.yul\":12925:12962   */\n      swap2\n      pop\n        /* \"#utility.yul\":12995:12998   */\n      dup3\n        /* \"#utility.yul\":12992:12993   */\n      0x02\n        /* \"#utility.yul\":12988:12999   */\n      mul\n        /* \"#utility.yul\":12982:12986   */\n      dup3\n        /* \"#utility.yul\":12979:13000   */\n      or\n        /* \"#utility.yul\":12971:13000   */\n      swap1\n      pop\n        /* \"#utility.yul\":12711:13006   */\n      swap3\n      swap2\n      pop\n      pop\n      jump\t// out\n        /* \"#utility.yul\":13011:14406   */\n    tag_56:\n        /* \"#utility.yul\":13128:13165   */\n      tag_284\n        /* \"#utility.yul\":13161:13164   */\n      dup3\n        /* \"#utility.yul\":13128:13165   */\n      tag_105\n      jump\t// in\n    tag_284:\n        /* \"#utility.yul\":13230:13248   */\n      0xffffffffffffffff\n        /* \"#utility.yul\":13222:13228   */\n      dup2\n        /* \"#utility.yul\":13219:13249   */\n      gt\n        /* \"#utility.yul\":13216:13272   */\n      iszero\n      tag_285\n      jumpi\n        /* \"#utility.yul\":13252:13270   */\n      tag_286\n      tag_98\n      jump\t// in\n    tag_286:\n        /* \"#utility.yul\":13216:13272   */\n    tag_285:\n        /* \"#utility.yul\":13296:13334   */\n      tag_287\n        /* \"#utility.yul\":13328:13332   */\n      dup3\n        /* \"#utility.yul\":13322:13333   */\n      sload\n        /* \"#utility.yul\":13296:13334   */\n      tag_64\n      jump\t// in\n    tag_287:\n        /* \"#utility.yul\":13381:13448   */\n      tag_288\n        /* \"#utility.yul\":13441:13447   */\n      dup3\n        /* \"#utility.yul\":13433:13439   */\n      dup3\n        /* \"#utility.yul\":13427:13431   */\n      dup6\n        /* \"#utility.yul\":13381:13448   */\n      tag_130\n      jump\t// in\n    tag_288:\n        /* \"#utility.yul\":13475:13476   */\n      0x00\n        /* \"#utility.yul\":13499:13503   */\n      0x20\n        /* \"#utility.yul\":13486:13503   */\n      swap1\n      pop\n        /* \"#utility.yul\":13531:13533   */\n      0x1f\n        /* \"#utility.yul\":13523:13529   */\n      dup4\n        /* \"#utility.yul\":13520:13534   */\n      gt\n        /* \"#utility.yul\":13548:13549   */\n      0x01\n        /* \"#utility.yul\":13543:14161   */\n      dup2\n      eq\n      tag_290\n      jumpi\n        /* \"#utility.yul\":14205:14206   */\n      0x00\n        /* \"#utility.yul\":14222:14228   */\n      dup5\n        /* \"#utility.yul\":14219:14296   */\n      iszero\n      tag_291\n      jumpi\n        /* \"#utility.yul\":14271:14280   */\n      dup3\n        /* \"#utility.yul\":14266:14269   */\n      dup8\n        /* \"#utility.yul\":14262:14281   */\n      add\n        /* \"#utility.yul\":14256:14282   */\n      mload\n        /* \"#utility.yul\":14247:14282   */\n      swap1\n      pop\n        /* \"#utility.yul\":14219:14296   */\n    tag_291:\n        /* \"#utility.yul\":14322:14389   */\n      tag_292\n        /* \"#utility.yul\":14382:14388   */\n      dup6\n        /* \"#utility.yul\":14375:14380   */\n      dup3\n        /* \"#utility.yul\":14322:14389   */\n      tag_133\n      jump\t// in\n    tag_292:\n        /* \"#utility.yul\":14316:14320   */\n      dup7\n        /* \"#utility.yul\":14309:14390   */\n      sstore\n        /* \"#utility.yul\":14178:14400   */\n      pop\n        /* \"#utility.yul\":13513:14400   */\n      jump(tag_289)\n        /* \"#utility.yul\":13543:14161   */\n    tag_290:\n        /* \"#utility.yul\":13595:13599   */\n      0x1f\n        /* \"#utility.yul\":13591:13600   */\n      not\n        /* \"#utility.yul\":13583:13589   */\n      dup5\n        /* \"#utility.yul\":13579:13601   */\n      and\n        /* \"#utility.yul\":13629:13666   */\n      tag_293\n        /* \"#utility.yul\":13661:13665   */\n      dup7\n        /* \"#utility.yul\":13629:13666   */\n      tag_119\n      jump\t// in\n    tag_293:\n        /* \"#utility.yul\":13688:13689   */\n      0x00\n        /* \"#utility.yul\":13702:13910   */\n    tag_294:\n        /* \"#utility.yul\":13716:13723   */\n      dup3\n        /* \"#utility.yul\":13713:13714   */\n      dup2\n        /* \"#utility.yul\":13710:13724   */\n      lt\n        /* \"#utility.yul\":13702:13910   */\n      iszero\n      tag_296\n      jumpi\n        /* \"#utility.yul\":13795:13804   */\n      dup5\n        /* \"#utility.yul\":13790:13793   */\n      dup10\n        /* \"#utility.yul\":13786:13805   */\n      add\n        /* \"#utility.yul\":13780:13806   */\n      mload\n        /* \"#utility.yul\":13772:13778   */\n      dup3\n        /* \"#utility.yul\":13765:13807   */\n      sstore\n        /* \"#utility.yul\":13846:13847   */\n      0x01\n        /* \"#utility.yul\":13838:13844   */\n      dup3\n        /* \"#utility.yul\":13834:13848   */\n      add\n        /* \"#utility.yul\":13824:13848   */\n      swap2\n      pop\n        /* \"#utility.yul\":13893:13895   */\n      0x20\n        /* \"#utility.yul\":13882:13891   */\n      dup6\n        /* \"#utility.yul\":13878:13896   */\n      add\n        /* \"#utility.yul\":13865:13896   */\n      swap5\n      pop\n        /* \"#utility.yul\":13739:13743   */\n      0x20\n        /* \"#utility.yul\":13736:13737   */\n      dup2\n        /* \"#utility.yul\":13732:13744   */\n      add\n        /* \"#utility.yul\":13727:13744   */\n      swap1\n      pop\n        /* \"#utility.yul\":13702:13910   */\n      jump(tag_294)\n    tag_296:\n        /* \"#utility.yul\":13938:13944   */\n      dup7\n        /* \"#utility.yul\":13929:13936   */\n      dup4\n        /* \"#utility.yul\":13926:13945   */\n      lt\n        /* \"#utility.yul\":13923:14102   */\n      iszero\n      tag_297\n      jumpi\n        /* \"#utility.yul\":13996:14005   */\n      dup5\n        /* \"#utility.yul\":13991:13994   */\n      dup10\n        /* \"#utility.yul\":13987:14006   */\n      add\n        /* \"#utility.yul\":13981:14007   */\n      mload\n        /* \"#utility.yul\":14039:14087   */\n      tag_298\n        /* \"#utility.yul\":14081:14085   */\n      0x1f\n        /* \"#utility.yul\":14073:14079   */\n      dup10\n        /* \"#utility.yul\":14069:14086   */\n      and\n        /* \"#utility.yul\":14058:14067   */\n      dup3\n        /* \"#utility.yul\":14039:14087   */\n      tag_132\n      jump\t// in\n    tag_298:\n        /* \"#utility.yul\":14031:14037   */\n      dup4\n        /* \"#utility.yul\":14024:14088   */\n      sstore\n        /* \"#utility.yul\":13946:14102   */\n      pop\n        /* \"#utility.yul\":13923:14102   */\n    tag_297:\n        /* \"#utility.yul\":14148:14149   */\n      0x01\n        /* \"#utility.yul\":14144:14145   */\n      0x02\n        /* \"#utility.yul\":14136:14142   */\n      dup9\n        /* \"#utility.yul\":14132:14146   */\n      mul\n        /* \"#utility.yul\":14128:14150   */\n      add\n        /* \"#utility.yul\":14122:14126   */\n      dup9\n        /* \"#utility.yul\":14115:14151   */\n      sstore\n        /* \"#utility.yul\":13550:14161   */\n      pop\n      pop\n      pop\n        /* \"#utility.yul\":13513:14400   */\n    tag_289:\n      pop\n        /* \"#utility.yul\":13103:14406   */\n      pop\n      pop\n      pop\n        /* \"#utility.yul\":13011:14406   */\n      pop\n      pop\n      jump\t// out\n        /* \"#utility.yul\":14412:14592   */\n    tag_134:\n        /* \"#utility.yul\":14460:14537   */\n      0x4e487b7100000000000000000000000000000000000000000000000000000000\n        /* \"#utility.yul\":14457:14458   */\n      0x00\n        /* \"#utility.yul\":14450:14538   */\n      mstore\n        /* \"#utility.yul\":14557:14561   */\n      0x11\n        /* \"#utility.yul\":14554:14555   */\n      0x04\n        /* \"#utility.yul\":14547:14562   */\n      mstore\n        /* \"#utility.yul\":14581:14585   */\n      0x24\n        /* \"#utility.yul\":14578:14579   */\n      0x00\n        /* \"#utility.yul\":14571:14586   */\n      revert\n        /* \"#utility.yul\":14598:14831   */\n    tag_60:\n        /* \"#utility.yul\":14637:14640   */\n      0x00\n        /* \"#utility.yul\":14660:14684   */\n      tag_301\n        /* \"#utility.yul\":14678:14683   */\n      dup3\n        /* \"#utility.yul\":14660:14684   */\n      tag_112\n      jump\t// in\n    tag_301:\n        /* \"#utility.yul\":14651:14684   */\n      swap2\n      pop\n        /* \"#utility.yul\":14706:14772   */\n      0xffffffffffffffffffffffffffffffffffffffffffffffffffffffffffffffff\n        /* \"#utility.yul\":14699:14704   */\n      dup3\n        /* \"#utility.yul\":14696:14773   */\n      sub\n        /* \"#utility.yul\":14693:14796   */\n      tag_302\n      jumpi\n        /* \"#utility.yul\":14776:14794   */\n      tag_303\n      tag_134\n      jump\t// in\n    tag_303:\n        /* \"#utility.yul\":14693:14796   */\n    tag_302:\n        /* \"#utility.yul\":14823:14824   */\n      0x01\n        /* \"#utility.yul\":14816:14821   */\n      dup3\n        /* \"#utility.yul\":14812:14825   */\n      add\n        /* \"#utility.yul\":14805:14825   */\n      swap1\n      pop\n        /* \"#utility.yul\":14598:14831   */\n      swap2\n      swap1\n      pop\n      jump\t// out\n        /* \"#utility.yul\":14837:15017   */\n    tag_82:\n        /* \"#utility.yul\":14885:14962   */\n      0x4e487b7100000000000000000000000000000000000000000000000000000000\n        /* \"#utility.yul\":14882:14883   */\n      0x00\n        /* \"#utility.yul\":14875:14963   */\n      mstore\n        /* \"#utility.yul\":14982:14986   */\n      0x32\n        /* \"#utility.yul\":14979:14980   */\n      0x04\n        /* \"#utility.yul\":14972:14987   */\n      mstore\n        /* \"#utility.yul\":15006:15010   */\n      0x24\n        /* \"#utility.yul\":15003:15004   */\n      0x00\n        /* \"#utility.yul\":14996:15011   */\n      revert\n\n    auxdata: 0xa264697066735822122008ad0ddfbf073766b9bb2dc5b70075eb5dcbc4959d0c7af877846d6b94586b6164736f6c634300080f0033\n}\n",
				"bytecode": {
					"linkReferences": {},
					"object": "6080604052600060035534801561001557600080fd5b50610fcc806100256000396000f3fe6080604052600436106100705760003560e01c80634b4a80ba1161004e5780634b4a80ba146101305780636fe605fc1461016f57806399b956a014610198578063a9bb0fa1146101d557610070565b806318b8275a146100755780631bc7ffe9146100b35780632b9af503146100f2575b600080fd5b34801561008157600080fd5b5061009c6004803603810190610097919061086b565b610207565b6040516100aa92919061097d565b60405180910390f35b3480156100bf57600080fd5b506100da60048036038101906100d591906109e3565b610262565b6040516100e993929190610a4e565b60405180910390f35b3480156100fe57600080fd5b5061011960048036038101906101149190610a8c565b610342565b604051610127929190610acc565b60405180910390f35b34801561013c57600080fd5b5061015760048036038101906101529190610af5565b6103a3565b60405161016693929190610b22565b60405180910390f35b34801561017b57600080fd5b5061019660048036038101906101919190610a8c565b610475565b005b3480156101a457600080fd5b506101bf60048036038101906101ba9190610b8c565b610533565b6040516101cc9190610bb9565b60405180910390f35b6101ef60048036038101906101ea9190610af5565b6105d3565b6040516101fe93929190610bdb565b60405180910390f35b60606000826000803373ffffffffffffffffffffffffffffffffffffffff1673ffffffffffffffffffffffffffffffffffffffff16815260200190815260200160002090816102569190610e1e565b50823391509150915091565b60006060600060405180606001604052808681526020018581526020013373ffffffffffffffffffffffffffffffffffffffff1681525060016000600354815260200190815260200160002060008201518160000190816102c39190610e1e565b506020820151816001015560408201518160020160006101000a81548173ffffffffffffffffffffffffffffffffffffffff021916908373ffffffffffffffffffffffffffffffffffffffff1602179055509050506003600081548092919061032b90610f1f565b919050555060035485859250925092509250925092565b6002602052816000526040600020818154811061035e57600080fd5b9060005260206000209060020201600091509150508060000154908060010160009054906101000a900473ffffffffffffffffffffffffffffffffffffffff16905082565b60016020528060005260406000206000915090508060000180546103c690610c41565b80601f01602080910402602001604051908101604052809291908181526020018280546103f290610c41565b801561043f5780601f106104145761010080835404028352916020019161043f565b820191906000526020600020905b81548152906001019060200180831161042257829003601f168201915b5050505050908060010154908060020160009054906101000a900473ffffffffffffffffffffffffffffffffffffffff16905083565b6002600083815260200190815260200160002060405180604001604052808381526020013373ffffffffffffffffffffffffffffffffffffffff1681525090806001815401808255809150506001900390600052602060002090600202016000909190919091506000820151816000015560208201518160010160006101000a81548173ffffffffffffffffffffffffffffffffffffffff021916908373ffffffffffffffffffffffffffffffffffffffff16021790555050505050565b6000602052806000526040600020600091509050805461055290610c41565b80601f016020809104026020016040519081016040528092919081815260200182805461057e90610c41565b80156105cb5780601f106105a0576101008083540402835291602001916105cb565b820191906000526020600020905b8154815290600101906020018083116105ae57829003601f168201915b505050505081565b600080600080600090506000806002600088815260200190815260200160002080549050905060005b600260008981526020019081526020016000208054905081116106fd5783600260008a8152602001908152602001600020828154811061063f5761063e610f67565b5b90600052602060002090600202016000015411156106ea5760026000898152602001908152602001600020818154811061067c5761067b610f67565b5b90600052602060002090600202016000015493506002600089815260200190815260200160002081815481106106b5576106b4610f67565b5b906000526020600020906002020160010160009054906101000a900473ffffffffffffffffffffffffffffffffffffffff1692505b80806106f590610f1f565b9150506105fc565b508183829550955095505050509193909250565b6000604051905090565b600080fd5b600080fd5b600080fd5b600080fd5b6000601f19601f8301169050919050565b7f4e487b7100000000000000000000000000000000000000000000000000000000600052604160045260246000fd5b6107788261072f565b810181811067ffffffffffffffff8211171561079757610796610740565b5b80604052505050565b60006107aa610711565b90506107b6828261076f565b919050565b600067ffffffffffffffff8211156107d6576107d5610740565b5b6107df8261072f565b9050602081019050919050565b82818337600083830152505050565b600061080e610809846107bb565b6107a0565b90508281526020810184848401111561082a5761082961072a565b5b6108358482856107ec565b509392505050565b600082601f83011261085257610851610725565b5b81356108628482602086016107fb565b91505092915050565b6000602082840312156108815761088061071b565b5b600082013567ffffffffffffffff81111561089f5761089e610720565b5b6108ab8482850161083d565b91505092915050565b600081519050919050565b600082825260208201905092915050565b60005b838110156108ee5780820151818401526020810190506108d3565b838111156108fd576000848401525b50505050565b600061090e826108b4565b61091881856108bf565b93506109288185602086016108d0565b6109318161072f565b840191505092915050565b600073ffffffffffffffffffffffffffffffffffffffff82169050919050565b60006109678261093c565b9050919050565b6109778161095c565b82525050565b600060408201905081810360008301526109978185610903565b90506109a6602083018461096e565b9392505050565b6000819050919050565b6109c0816109ad565b81146109cb57600080fd5b50565b6000813590506109dd816109b7565b92915050565b600080604083850312156109fa576109f961071b565b5b600083013567ffffffffffffffff811115610a1857610a17610720565b5b610a248582860161083d565b9250506020610a35858286016109ce565b9150509250929050565b610a48816109ad565b82525050565b6000606082019050610a636000830186610a3f565b8181036020830152610a758185610903565b9050610a846040830184610a3f565b949350505050565b60008060408385031215610aa357610aa261071b565b5b6000610ab1858286016109ce565b9250506020610ac2858286016109ce565b9150509250929050565b6000604082019050610ae16000830185610a3f565b610aee602083018461096e565b9392505050565b600060208284031215610b0b57610b0a61071b565b5b6000610b19848285016109ce565b91505092915050565b60006060820190508181036000830152610b3c8186610903565b9050610b4b6020830185610a3f565b610b58604083018461096e565b949350505050565b610b698161095c565b8114610b7457600080fd5b50565b600081359050610b8681610b60565b92915050565b600060208284031215610ba257610ba161071b565b5b6000610bb084828501610b77565b91505092915050565b60006020820190508181036000830152610bd38184610903565b905092915050565b6000606082019050610bf0600083018661096e565b610bfd6020830185610a3f565b610c0a6040830184610a3f565b949350505050565b7f4e487b7100000000000000000000000000000000000000000000000000000000600052602260045260246000fd5b60006002820490506001821680610c5957607f821691505b602082108103610c6c57610c6b610c12565b5b50919050565b60008190508160005260206000209050919050565b60006020601f8301049050919050565b600082821b905092915050565b600060088302610cd47fffffffffffffffffffffffffffffffffffffffffffffffffffffffffffffffff82610c97565b610cde8683610c97565b95508019841693508086168417925050509392505050565b6000819050919050565b6000610d1b610d16610d11846109ad565b610cf6565b6109ad565b9050919050565b6000819050919050565b610d3583610d00565b610d49610d4182610d22565b848454610ca4565b825550505050565b600090565b610d5e610d51565b610d69818484610d2c565b505050565b5b81811015610d8d57610d82600082610d56565b600181019050610d6f565b5050565b601f821115610dd257610da381610c72565b610dac84610c87565b81016020851015610dbb578190505b610dcf610dc785610c87565b830182610d6e565b50505b505050565b600082821c905092915050565b6000610df560001984600802610dd7565b1980831691505092915050565b6000610e0e8383610de4565b9150826002028217905092915050565b610e27826108b4565b67ffffffffffffffff811115610e4057610e3f610740565b5b610e4a8254610c41565b610e55828285610d91565b600060209050601f831160018114610e885760008415610e76578287015190505b610e808582610e02565b865550610ee8565b601f198416610e9686610c72565b60005b82811015610ebe57848901518255600182019150602085019450602081019050610e99565b86831015610edb5784890151610ed7601f891682610de4565b8355505b6001600288020188555050505b505050505050565b7f4e487b7100000000000000000000000000000000000000000000000000000000600052601160045260246000fd5b6000610f2a826109ad565b91507fffffffffffffffffffffffffffffffffffffffffffffffffffffffffffffffff8203610f5c57610f5b610ef0565b5b600182019050919050565b7f4e487b7100000000000000000000000000000000000000000000000000000000600052603260045260246000fdfea264697066735822122008ad0ddfbf073766b9bb2dc5b70075eb5dcbc4959d0c7af877846d6b94586b6164736f6c634300080f0033",
					"opcodes": "PUSH1 0x80 PUSH1 0x40 MSTORE PUSH1 0x0 PUSH1 0x3 SSTORE CALLVALUE DUP1 ISZERO PUSH2 0x15 JUMPI PUSH1 0x0 DUP1 REVERT JUMPDEST POP PUSH2 0xFCC DUP1 PUSH2 0x25 PUSH1 0x0 CODECOPY PUSH1 0x0 RETURN INVALID PUSH1 0x80 PUSH1 0x40 MSTORE PUSH1 0x4 CALLDATASIZE LT PUSH2 0x70 JUMPI PUSH1 0x0 CALLDATALOAD PUSH1 0xE0 SHR DUP1 PUSH4 0x4B4A80BA GT PUSH2 0x4E JUMPI DUP1 PUSH4 0x4B4A80BA EQ PUSH2 0x130 JUMPI DUP1 PUSH4 0x6FE605FC EQ PUSH2 0x16F JUMPI DUP1 PUSH4 0x99B956A0 EQ PUSH2 0x198 JUMPI DUP1 PUSH4 0xA9BB0FA1 EQ PUSH2 0x1D5 JUMPI PUSH2 0x70 JUMP JUMPDEST DUP1 PUSH4 0x18B8275A EQ PUSH2 0x75 JUMPI DUP1 PUSH4 0x1BC7FFE9 EQ PUSH2 0xB3 JUMPI DUP1 PUSH4 0x2B9AF503 EQ PUSH2 0xF2 JUMPI JUMPDEST PUSH1 0x0 DUP1 REVERT JUMPDEST CALLVALUE DUP1 ISZERO PUSH2 0x81 JUMPI PUSH1 0x0 DUP1 REVERT JUMPDEST POP PUSH2 0x9C PUSH1 0x4 DUP1 CALLDATASIZE SUB DUP2 ADD SWAP1 PUSH2 0x97 SWAP2 SWAP1 PUSH2 0x86B JUMP JUMPDEST PUSH2 0x207 JUMP JUMPDEST PUSH1 0x40 MLOAD PUSH2 0xAA SWAP3 SWAP2 SWAP1 PUSH2 0x97D JUMP JUMPDEST PUSH1 0x40 MLOAD DUP1 SWAP2 SUB SWAP1 RETURN JUMPDEST CALLVALUE DUP1 ISZERO PUSH2 0xBF JUMPI PUSH1 0x0 DUP1 REVERT JUMPDEST POP PUSH2 0xDA PUSH1 0x4 DUP1 CALLDATASIZE SUB DUP2 ADD SWAP1 PUSH2 0xD5 SWAP2 SWAP1 PUSH2 0x9E3 JUMP JUMPDEST PUSH2 0x262 JUMP JUMPDEST PUSH1 0x40 MLOAD PUSH2 0xE9 SWAP4 SWAP3 SWAP2 SWAP1 PUSH2 0xA4E JUMP JUMPDEST PUSH1 0x40 MLOAD DUP1 SWAP2 SUB SWAP1 RETURN JUMPDEST CALLVALUE DUP1 ISZERO PUSH2 0xFE JUMPI PUSH1 0x0 DUP1 REVERT JUMPDEST POP PUSH2 0x119 PUSH1 0x4 DUP1 CALLDATASIZE SUB DUP2 ADD SWAP1 PUSH2 0x114 SWAP2 SWAP1 PUSH2 0xA8C JUMP JUMPDEST PUSH2 0x342 JUMP JUMPDEST PUSH1 0x40 MLOAD PUSH2 0x127 SWAP3 SWAP2 SWAP1 PUSH2 0xACC JUMP JUMPDEST PUSH1 0x40 MLOAD DUP1 SWAP2 SUB SWAP1 RETURN JUMPDEST CALLVALUE DUP1 ISZERO PUSH2 0x13C JUMPI PUSH1 0x0 DUP1 REVERT JUMPDEST POP PUSH2 0x157 PUSH1 0x4 DUP1 CALLDATASIZE SUB DUP2 ADD SWAP1 PUSH2 0x152 SWAP2 SWAP1 PUSH2 0xAF5 JUMP JUMPDEST PUSH2 0x3A3 JUMP JUMPDEST PUSH1 0x40 MLOAD PUSH2 0x166 SWAP4 SWAP3 SWAP2 SWAP1 PUSH2 0xB22 JUMP JUMPDEST PUSH1 0x40 MLOAD DUP1 SWAP2 SUB SWAP1 RETURN JUMPDEST CALLVALUE DUP1 ISZERO PUSH2 0x17B JUMPI PUSH1 0x0 DUP1 REVERT JUMPDEST POP PUSH2 0x196 PUSH1 0x4 DUP1 CALLDATASIZE SUB DUP2 ADD SWAP1 PUSH2 0x191 SWAP2 SWAP1 PUSH2 0xA8C JUMP JUMPDEST PUSH2 0x475 JUMP JUMPDEST STOP JUMPDEST CALLVALUE DUP1 ISZERO PUSH2 0x1A4 JUMPI PUSH1 0x0 DUP1 REVERT JUMPDEST POP PUSH2 0x1BF PUSH1 0x4 DUP1 CALLDATASIZE SUB DUP2 ADD SWAP1 PUSH2 0x1BA SWAP2 SWAP1 PUSH2 0xB8C JUMP JUMPDEST PUSH2 0x533 JUMP JUMPDEST PUSH1 0x40 MLOAD PUSH2 0x1CC SWAP2 SWAP1 PUSH2 0xBB9 JUMP JUMPDEST PUSH1 0x40 MLOAD DUP1 SWAP2 SUB SWAP1 RETURN JUMPDEST PUSH2 0x1EF PUSH1 0x4 DUP1 CALLDATASIZE SUB DUP2 ADD SWAP1 PUSH2 0x1EA SWAP2 SWAP1 PUSH2 0xAF5 JUMP JUMPDEST PUSH2 0x5D3 JUMP JUMPDEST PUSH1 0x40 MLOAD PUSH2 0x1FE SWAP4 SWAP3 SWAP2 SWAP1 PUSH2 0xBDB JUMP JUMPDEST PUSH1 0x40 MLOAD DUP1 SWAP2 SUB SWAP1 RETURN JUMPDEST PUSH1 0x60 PUSH1 0x0 DUP3 PUSH1 0x0 DUP1 CALLER PUSH20 0xFFFFFFFFFFFFFFFFFFFFFFFFFFFFFFFFFFFFFFFF AND PUSH20 0xFFFFFFFFFFFFFFFFFFFFFFFFFFFFFFFFFFFFFFFF AND DUP2 MSTORE PUSH1 0x20 ADD SWAP1 DUP2 MSTORE PUSH1 0x20 ADD PUSH1 0x0 KECCAK256 SWAP1 DUP2 PUSH2 0x256 SWAP2 SWAP1 PUSH2 0xE1E JUMP JUMPDEST POP DUP3 CALLER SWAP2 POP SWAP2 POP SWAP2 POP SWAP2 JUMP JUMPDEST PUSH1 0x0 PUSH1 0x60 PUSH1 0x0 PUSH1 0x40 MLOAD DUP1 PUSH1 0x60 ADD PUSH1 0x40 MSTORE DUP1 DUP7 DUP2 MSTORE PUSH1 0x20 ADD DUP6 DUP2 MSTORE PUSH1 0x20 ADD CALLER PUSH20 0xFFFFFFFFFFFFFFFFFFFFFFFFFFFFFFFFFFFFFFFF AND DUP2 MSTORE POP PUSH1 0x1 PUSH1 0x0 PUSH1 0x3 SLOAD DUP2 MSTORE PUSH1 0x20 ADD SWAP1 DUP2 MSTORE PUSH1 0x20 ADD PUSH1 0x0 KECCAK256 PUSH1 0x0 DUP3 ADD MLOAD DUP2 PUSH1 0x0 ADD SWAP1 DUP2 PUSH2 0x2C3 SWAP2 SWAP1 PUSH2 0xE1E JUMP JUMPDEST POP PUSH1 0x20 DUP3 ADD MLOAD DUP2 PUSH1 0x1 ADD SSTORE PUSH1 0x40 DUP3 ADD MLOAD DUP2 PUSH1 0x2 ADD PUSH1 0x0 PUSH2 0x100 EXP DUP2 SLOAD DUP2 PUSH20 0xFFFFFFFFFFFFFFFFFFFFFFFFFFFFFFFFFFFFFFFF MUL NOT AND SWAP1 DUP4 PUSH20 0xFFFFFFFFFFFFFFFFFFFFFFFFFFFFFFFFFFFFFFFF AND MUL OR SWAP1 SSTORE POP SWAP1 POP POP PUSH1 0x3 PUSH1 0x0 DUP2 SLOAD DUP1 SWAP3 SWAP2 SWAP1 PUSH2 0x32B SWAP1 PUSH2 0xF1F JUMP JUMPDEST SWAP2 SWAP1 POP SSTORE POP PUSH1 0x3 SLOAD DUP6 DUP6 SWAP3 POP SWAP3 POP SWAP3 POP SWAP3 POP SWAP3 POP SWAP3 JUMP JUMPDEST PUSH1 0x2 PUSH1 0x20 MSTORE DUP2 PUSH1 0x0 MSTORE PUSH1 0x40 PUSH1 0x0 KECCAK256 DUP2 DUP2 SLOAD DUP2 LT PUSH2 0x35E JUMPI PUSH1 0x0 DUP1 REVERT JUMPDEST SWAP1 PUSH1 0x0 MSTORE PUSH1 0x20 PUSH1 0x0 KECCAK256 SWAP1 PUSH1 0x2 MUL ADD PUSH1 0x0 SWAP2 POP SWAP2 POP POP DUP1 PUSH1 0x0 ADD SLOAD SWAP1 DUP1 PUSH1 0x1 ADD PUSH1 0x0 SWAP1 SLOAD SWAP1 PUSH2 0x100 EXP SWAP1 DIV PUSH20 0xFFFFFFFFFFFFFFFFFFFFFFFFFFFFFFFFFFFFFFFF AND SWAP1 POP DUP3 JUMP JUMPDEST PUSH1 0x1 PUSH1 0x20 MSTORE DUP1 PUSH1 0x0 MSTORE PUSH1 0x40 PUSH1 0x0 KECCAK256 PUSH1 0x0 SWAP2 POP SWAP1 POP DUP1 PUSH1 0x0 ADD DUP1 SLOAD PUSH2 0x3C6 SWAP1 PUSH2 0xC41 JUMP JUMPDEST DUP1 PUSH1 0x1F ADD PUSH1 0x20 DUP1 SWAP2 DIV MUL PUSH1 0x20 ADD PUSH1 0x40 MLOAD SWAP1 DUP2 ADD PUSH1 0x40 MSTORE DUP1 SWAP3 SWAP2 SWAP1 DUP2 DUP2 MSTORE PUSH1 0x20 ADD DUP3 DUP1 SLOAD PUSH2 0x3F2 SWAP1 PUSH2 0xC41 JUMP JUMPDEST DUP1 ISZERO PUSH2 0x43F JUMPI DUP1 PUSH1 0x1F LT PUSH2 0x414 JUMPI PUSH2 0x100 DUP1 DUP4 SLOAD DIV MUL DUP4 MSTORE SWAP2 PUSH1 0x20 ADD SWAP2 PUSH2 0x43F JUMP JUMPDEST DUP3 ADD SWAP2 SWAP1 PUSH1 0x0 MSTORE PUSH1 0x20 PUSH1 0x0 KECCAK256 SWAP1 JUMPDEST DUP2 SLOAD DUP2 MSTORE SWAP1 PUSH1 0x1 ADD SWAP1 PUSH1 0x20 ADD DUP1 DUP4 GT PUSH2 0x422 JUMPI DUP3 SWAP1 SUB PUSH1 0x1F AND DUP3 ADD SWAP2 JUMPDEST POP POP POP POP POP SWAP1 DUP1 PUSH1 0x1 ADD SLOAD SWAP1 DUP1 PUSH1 0x2 ADD PUSH1 0x0 SWAP1 SLOAD SWAP1 PUSH2 0x100 EXP SWAP1 DIV PUSH20 0xFFFFFFFFFFFFFFFFFFFFFFFFFFFFFFFFFFFFFFFF AND SWAP1 POP DUP4 JUMP JUMPDEST PUSH1 0x2 PUSH1 0x0 DUP4 DUP2 MSTORE PUSH1 0x20 ADD SWAP1 DUP2 MSTORE PUSH1 0x20 ADD PUSH1 0x0 KECCAK256 PUSH1 0x40 MLOAD DUP1 PUSH1 0x40 ADD PUSH1 0x40 MSTORE DUP1 DUP4 DUP2 MSTORE PUSH1 0x20 ADD CALLER PUSH20 0xFFFFFFFFFFFFFFFFFFFFFFFFFFFFFFFFFFFFFFFF AND DUP2 MSTORE POP SWAP1 DUP1 PUSH1 0x1 DUP2 SLOAD ADD DUP1 DUP3 SSTORE DUP1 SWAP2 POP POP PUSH1 0x1 SWAP1 SUB SWAP1 PUSH1 0x0 MSTORE PUSH1 0x20 PUSH1 0x0 KECCAK256 SWAP1 PUSH1 0x2 MUL ADD PUSH1 0x0 SWAP1 SWAP2 SWAP1 SWAP2 SWAP1 SWAP2 POP PUSH1 0x0 DUP3 ADD MLOAD DUP2 PUSH1 0x0 ADD SSTORE PUSH1 0x20 DUP3 ADD MLOAD DUP2 PUSH1 0x1 ADD PUSH1 0x0 PUSH2 0x100 EXP DUP2 SLOAD DUP2 PUSH20 0xFFFFFFFFFFFFFFFFFFFFFFFFFFFFFFFFFFFFFFFF MUL NOT AND SWAP1 DUP4 PUSH20 0xFFFFFFFFFFFFFFFFFFFFFFFFFFFFFFFFFFFFFFFF AND MUL OR SWAP1 SSTORE POP POP POP POP POP JUMP JUMPDEST PUSH1 0x0 PUSH1 0x20 MSTORE DUP1 PUSH1 0x0 MSTORE PUSH1 0x40 PUSH1 0x0 KECCAK256 PUSH1 0x0 SWAP2 POP SWAP1 POP DUP1 SLOAD PUSH2 0x552 SWAP1 PUSH2 0xC41 JUMP JUMPDEST DUP1 PUSH1 0x1F ADD PUSH1 0x20 DUP1 SWAP2 DIV MUL PUSH1 0x20 ADD PUSH1 0x40 MLOAD SWAP1 DUP2 ADD PUSH1 0x40 MSTORE DUP1 SWAP3 SWAP2 SWAP1 DUP2 DUP2 MSTORE PUSH1 0x20 ADD DUP3 DUP1 SLOAD PUSH2 0x57E SWAP1 PUSH2 0xC41 JUMP JUMPDEST DUP1 ISZERO PUSH2 0x5CB JUMPI DUP1 PUSH1 0x1F LT PUSH2 0x5A0 JUMPI PUSH2 0x100 DUP1 DUP4 SLOAD DIV MUL DUP4 MSTORE SWAP2 PUSH1 0x20 ADD SWAP2 PUSH2 0x5CB JUMP JUMPDEST DUP3 ADD SWAP2 SWAP1 PUSH1 0x0 MSTORE PUSH1 0x20 PUSH1 0x0 KECCAK256 SWAP1 JUMPDEST DUP2 SLOAD DUP2 MSTORE SWAP1 PUSH1 0x1 ADD SWAP1 PUSH1 0x20 ADD DUP1 DUP4 GT PUSH2 0x5AE JUMPI DUP3 SWAP1 SUB PUSH1 0x1F AND DUP3 ADD SWAP2 JUMPDEST POP POP POP POP POP DUP2 JUMP JUMPDEST PUSH1 0x0 DUP1 PUSH1 0x0 DUP1 PUSH1 0x0 SWAP1 POP PUSH1 0x0 DUP1 PUSH1 0x2 PUSH1 0x0 DUP9 DUP2 MSTORE PUSH1 0x20 ADD SWAP1 DUP2 MSTORE PUSH1 0x20 ADD PUSH1 0x0 KECCAK256 DUP1 SLOAD SWAP1 POP SWAP1 POP PUSH1 0x0 JUMPDEST PUSH1 0x2 PUSH1 0x0 DUP10 DUP2 MSTORE PUSH1 0x20 ADD SWAP1 DUP2 MSTORE PUSH1 0x20 ADD PUSH1 0x0 KECCAK256 DUP1 SLOAD SWAP1 POP DUP2 GT PUSH2 0x6FD JUMPI DUP4 PUSH1 0x2 PUSH1 0x0 DUP11 DUP2 MSTORE PUSH1 0x20 ADD SWAP1 DUP2 MSTORE PUSH1 0x20 ADD PUSH1 0x0 KECCAK256 DUP3 DUP2 SLOAD DUP2 LT PUSH2 0x63F JUMPI PUSH2 0x63E PUSH2 0xF67 JUMP JUMPDEST JUMPDEST SWAP1 PUSH1 0x0 MSTORE PUSH1 0x20 PUSH1 0x0 KECCAK256 SWAP1 PUSH1 0x2 MUL ADD PUSH1 0x0 ADD SLOAD GT ISZERO PUSH2 0x6EA JUMPI PUSH1 0x2 PUSH1 0x0 DUP10 DUP2 MSTORE PUSH1 0x20 ADD SWAP1 DUP2 MSTORE PUSH1 0x20 ADD PUSH1 0x0 KECCAK256 DUP2 DUP2 SLOAD DUP2 LT PUSH2 0x67C JUMPI PUSH2 0x67B PUSH2 0xF67 JUMP JUMPDEST JUMPDEST SWAP1 PUSH1 0x0 MSTORE PUSH1 0x20 PUSH1 0x0 KECCAK256 SWAP1 PUSH1 0x2 MUL ADD PUSH1 0x0 ADD SLOAD SWAP4 POP PUSH1 0x2 PUSH1 0x0 DUP10 DUP2 MSTORE PUSH1 0x20 ADD SWAP1 DUP2 MSTORE PUSH1 0x20 ADD PUSH1 0x0 KECCAK256 DUP2 DUP2 SLOAD DUP2 LT PUSH2 0x6B5 JUMPI PUSH2 0x6B4 PUSH2 0xF67 JUMP JUMPDEST JUMPDEST SWAP1 PUSH1 0x0 MSTORE PUSH1 0x20 PUSH1 0x0 KECCAK256 SWAP1 PUSH1 0x2 MUL ADD PUSH1 0x1 ADD PUSH1 0x0 SWAP1 SLOAD SWAP1 PUSH2 0x100 EXP SWAP1 DIV PUSH20 0xFFFFFFFFFFFFFFFFFFFFFFFFFFFFFFFFFFFFFFFF AND SWAP3 POP JUMPDEST DUP1 DUP1 PUSH2 0x6F5 SWAP1 PUSH2 0xF1F JUMP JUMPDEST SWAP2 POP POP PUSH2 0x5FC JUMP JUMPDEST POP DUP2 DUP4 DUP3 SWAP6 POP SWAP6 POP SWAP6 POP POP POP POP SWAP2 SWAP4 SWAP1 SWAP3 POP JUMP JUMPDEST PUSH1 0x0 PUSH1 0x40 MLOAD SWAP1 POP SWAP1 JUMP JUMPDEST PUSH1 0x0 DUP1 REVERT JUMPDEST PUSH1 0x0 DUP1 REVERT JUMPDEST PUSH1 0x0 DUP1 REVERT JUMPDEST PUSH1 0x0 DUP1 REVERT JUMPDEST PUSH1 0x0 PUSH1 0x1F NOT PUSH1 0x1F DUP4 ADD AND SWAP1 POP SWAP2 SWAP1 POP JUMP JUMPDEST PUSH32 0x4E487B7100000000000000000000000000000000000000000000000000000000 PUSH1 0x0 MSTORE PUSH1 0x41 PUSH1 0x4 MSTORE PUSH1 0x24 PUSH1 0x0 REVERT JUMPDEST PUSH2 0x778 DUP3 PUSH2 0x72F JUMP JUMPDEST DUP2 ADD DUP2 DUP2 LT PUSH8 0xFFFFFFFFFFFFFFFF DUP3 GT OR ISZERO PUSH2 0x797 JUMPI PUSH2 0x796 PUSH2 0x740 JUMP JUMPDEST JUMPDEST DUP1 PUSH1 0x40 MSTORE POP POP POP JUMP JUMPDEST PUSH1 0x0 PUSH2 0x7AA PUSH2 0x711 JUMP JUMPDEST SWAP1 POP PUSH2 0x7B6 DUP3 DUP3 PUSH2 0x76F JUMP JUMPDEST SWAP2 SWAP1 POP JUMP JUMPDEST PUSH1 0x0 PUSH8 0xFFFFFFFFFFFFFFFF DUP3 GT ISZERO PUSH2 0x7D6 JUMPI PUSH2 0x7D5 PUSH2 0x740 JUMP JUMPDEST JUMPDEST PUSH2 0x7DF DUP3 PUSH2 0x72F JUMP JUMPDEST SWAP1 POP PUSH1 0x20 DUP2 ADD SWAP1 POP SWAP2 SWAP1 POP JUMP JUMPDEST DUP3 DUP2 DUP4 CALLDATACOPY PUSH1 0x0 DUP4 DUP4 ADD MSTORE POP POP POP JUMP JUMPDEST PUSH1 0x0 PUSH2 0x80E PUSH2 0x809 DUP5 PUSH2 0x7BB JUMP JUMPDEST PUSH2 0x7A0 JUMP JUMPDEST SWAP1 POP DUP3 DUP2 MSTORE PUSH1 0x20 DUP2 ADD DUP5 DUP5 DUP5 ADD GT ISZERO PUSH2 0x82A JUMPI PUSH2 0x829 PUSH2 0x72A JUMP JUMPDEST JUMPDEST PUSH2 0x835 DUP5 DUP3 DUP6 PUSH2 0x7EC JUMP JUMPDEST POP SWAP4 SWAP3 POP POP POP JUMP JUMPDEST PUSH1 0x0 DUP3 PUSH1 0x1F DUP4 ADD SLT PUSH2 0x852 JUMPI PUSH2 0x851 PUSH2 0x725 JUMP JUMPDEST JUMPDEST DUP2 CALLDATALOAD PUSH2 0x862 DUP5 DUP3 PUSH1 0x20 DUP7 ADD PUSH2 0x7FB JUMP JUMPDEST SWAP2 POP POP SWAP3 SWAP2 POP POP JUMP JUMPDEST PUSH1 0x0 PUSH1 0x20 DUP3 DUP5 SUB SLT ISZERO PUSH2 0x881 JUMPI PUSH2 0x880 PUSH2 0x71B JUMP JUMPDEST JUMPDEST PUSH1 0x0 DUP3 ADD CALLDATALOAD PUSH8 0xFFFFFFFFFFFFFFFF DUP2 GT ISZERO PUSH2 0x89F JUMPI PUSH2 0x89E PUSH2 0x720 JUMP JUMPDEST JUMPDEST PUSH2 0x8AB DUP5 DUP3 DUP6 ADD PUSH2 0x83D JUMP JUMPDEST SWAP2 POP POP SWAP3 SWAP2 POP POP JUMP JUMPDEST PUSH1 0x0 DUP2 MLOAD SWAP1 POP SWAP2 SWAP1 POP JUMP JUMPDEST PUSH1 0x0 DUP3 DUP3 MSTORE PUSH1 0x20 DUP3 ADD SWAP1 POP SWAP3 SWAP2 POP POP JUMP JUMPDEST PUSH1 0x0 JUMPDEST DUP4 DUP2 LT ISZERO PUSH2 0x8EE JUMPI DUP1 DUP3 ADD MLOAD DUP2 DUP5 ADD MSTORE PUSH1 0x20 DUP2 ADD SWAP1 POP PUSH2 0x8D3 JUMP JUMPDEST DUP4 DUP2 GT ISZERO PUSH2 0x8FD JUMPI PUSH1 0x0 DUP5 DUP5 ADD MSTORE JUMPDEST POP POP POP POP JUMP JUMPDEST PUSH1 0x0 PUSH2 0x90E DUP3 PUSH2 0x8B4 JUMP JUMPDEST PUSH2 0x918 DUP2 DUP6 PUSH2 0x8BF JUMP JUMPDEST SWAP4 POP PUSH2 0x928 DUP2 DUP6 PUSH1 0x20 DUP7 ADD PUSH2 0x8D0 JUMP JUMPDEST PUSH2 0x931 DUP2 PUSH2 0x72F JUMP JUMPDEST DUP5 ADD SWAP2 POP POP SWAP3 SWAP2 POP POP JUMP JUMPDEST PUSH1 0x0 PUSH20 0xFFFFFFFFFFFFFFFFFFFFFFFFFFFFFFFFFFFFFFFF DUP3 AND SWAP1 POP SWAP2 SWAP1 POP JUMP JUMPDEST PUSH1 0x0 PUSH2 0x967 DUP3 PUSH2 0x93C JUMP JUMPDEST SWAP1 POP SWAP2 SWAP1 POP JUMP JUMPDEST PUSH2 0x977 DUP2 PUSH2 0x95C JUMP JUMPDEST DUP3 MSTORE POP POP JUMP JUMPDEST PUSH1 0x0 PUSH1 0x40 DUP3 ADD SWAP1 POP DUP2 DUP2 SUB PUSH1 0x0 DUP4 ADD MSTORE PUSH2 0x997 DUP2 DUP6 PUSH2 0x903 JUMP JUMPDEST SWAP1 POP PUSH2 0x9A6 PUSH1 0x20 DUP4 ADD DUP5 PUSH2 0x96E JUMP JUMPDEST SWAP4 SWAP3 POP POP POP JUMP JUMPDEST PUSH1 0x0 DUP2 SWAP1 POP SWAP2 SWAP1 POP JUMP JUMPDEST PUSH2 0x9C0 DUP2 PUSH2 0x9AD JUMP JUMPDEST DUP2 EQ PUSH2 0x9CB JUMPI PUSH1 0x0 DUP1 REVERT JUMPDEST POP JUMP JUMPDEST PUSH1 0x0 DUP2 CALLDATALOAD SWAP1 POP PUSH2 0x9DD DUP2 PUSH2 0x9B7 JUMP JUMPDEST SWAP3 SWAP2 POP POP JUMP JUMPDEST PUSH1 0x0 DUP1 PUSH1 0x40 DUP4 DUP6 SUB SLT ISZERO PUSH2 0x9FA JUMPI PUSH2 0x9F9 PUSH2 0x71B JUMP JUMPDEST JUMPDEST PUSH1 0x0 DUP4 ADD CALLDATALOAD PUSH8 0xFFFFFFFFFFFFFFFF DUP2 GT ISZERO PUSH2 0xA18 JUMPI PUSH2 0xA17 PUSH2 0x720 JUMP JUMPDEST JUMPDEST PUSH2 0xA24 DUP6 DUP3 DUP7 ADD PUSH2 0x83D JUMP JUMPDEST SWAP3 POP POP PUSH1 0x20 PUSH2 0xA35 DUP6 DUP3 DUP7 ADD PUSH2 0x9CE JUMP JUMPDEST SWAP2 POP POP SWAP3 POP SWAP3 SWAP1 POP JUMP JUMPDEST PUSH2 0xA48 DUP2 PUSH2 0x9AD JUMP JUMPDEST DUP3 MSTORE POP POP JUMP JUMPDEST PUSH1 0x0 PUSH1 0x60 DUP3 ADD SWAP1 POP PUSH2 0xA63 PUSH1 0x0 DUP4 ADD DUP7 PUSH2 0xA3F JUMP JUMPDEST DUP2 DUP2 SUB PUSH1 0x20 DUP4 ADD MSTORE PUSH2 0xA75 DUP2 DUP6 PUSH2 0x903 JUMP JUMPDEST SWAP1 POP PUSH2 0xA84 PUSH1 0x40 DUP4 ADD DUP5 PUSH2 0xA3F JUMP JUMPDEST SWAP5 SWAP4 POP POP POP POP JUMP JUMPDEST PUSH1 0x0 DUP1 PUSH1 0x40 DUP4 DUP6 SUB SLT ISZERO PUSH2 0xAA3 JUMPI PUSH2 0xAA2 PUSH2 0x71B JUMP JUMPDEST JUMPDEST PUSH1 0x0 PUSH2 0xAB1 DUP6 DUP3 DUP7 ADD PUSH2 0x9CE JUMP JUMPDEST SWAP3 POP POP PUSH1 0x20 PUSH2 0xAC2 DUP6 DUP3 DUP7 ADD PUSH2 0x9CE JUMP JUMPDEST SWAP2 POP POP SWAP3 POP SWAP3 SWAP1 POP JUMP JUMPDEST PUSH1 0x0 PUSH1 0x40 DUP3 ADD SWAP1 POP PUSH2 0xAE1 PUSH1 0x0 DUP4 ADD DUP6 PUSH2 0xA3F JUMP JUMPDEST PUSH2 0xAEE PUSH1 0x20 DUP4 ADD DUP5 PUSH2 0x96E JUMP JUMPDEST SWAP4 SWAP3 POP POP POP JUMP JUMPDEST PUSH1 0x0 PUSH1 0x20 DUP3 DUP5 SUB SLT ISZERO PUSH2 0xB0B JUMPI PUSH2 0xB0A PUSH2 0x71B JUMP JUMPDEST JUMPDEST PUSH1 0x0 PUSH2 0xB19 DUP5 DUP3 DUP6 ADD PUSH2 0x9CE JUMP JUMPDEST SWAP2 POP POP SWAP3 SWAP2 POP POP JUMP JUMPDEST PUSH1 0x0 PUSH1 0x60 DUP3 ADD SWAP1 POP DUP2 DUP2 SUB PUSH1 0x0 DUP4 ADD MSTORE PUSH2 0xB3C DUP2 DUP7 PUSH2 0x903 JUMP JUMPDEST SWAP1 POP PUSH2 0xB4B PUSH1 0x20 DUP4 ADD DUP6 PUSH2 0xA3F JUMP JUMPDEST PUSH2 0xB58 PUSH1 0x40 DUP4 ADD DUP5 PUSH2 0x96E JUMP JUMPDEST SWAP5 SWAP4 POP POP POP POP JUMP JUMPDEST PUSH2 0xB69 DUP2 PUSH2 0x95C JUMP JUMPDEST DUP2 EQ PUSH2 0xB74 JUMPI PUSH1 0x0 DUP1 REVERT JUMPDEST POP JUMP JUMPDEST PUSH1 0x0 DUP2 CALLDATALOAD SWAP1 POP PUSH2 0xB86 DUP2 PUSH2 0xB60 JUMP JUMPDEST SWAP3 SWAP2 POP POP JUMP JUMPDEST PUSH1 0x0 PUSH1 0x20 DUP3 DUP5 SUB SLT ISZERO PUSH2 0xBA2 JUMPI PUSH2 0xBA1 PUSH2 0x71B JUMP JUMPDEST JUMPDEST PUSH1 0x0 PUSH2 0xBB0 DUP5 DUP3 DUP6 ADD PUSH2 0xB77 JUMP JUMPDEST SWAP2 POP POP SWAP3 SWAP2 POP POP JUMP JUMPDEST PUSH1 0x0 PUSH1 0x20 DUP3 ADD SWAP1 POP DUP2 DUP2 SUB PUSH1 0x0 DUP4 ADD MSTORE PUSH2 0xBD3 DUP2 DUP5 PUSH2 0x903 JUMP JUMPDEST SWAP1 POP SWAP3 SWAP2 POP POP JUMP JUMPDEST PUSH1 0x0 PUSH1 0x60 DUP3 ADD SWAP1 POP PUSH2 0xBF0 PUSH1 0x0 DUP4 ADD DUP7 PUSH2 0x96E JUMP JUMPDEST PUSH2 0xBFD PUSH1 0x20 DUP4 ADD DUP6 PUSH2 0xA3F JUMP JUMPDEST PUSH2 0xC0A PUSH1 0x40 DUP4 ADD DUP5 PUSH2 0xA3F JUMP JUMPDEST SWAP5 SWAP4 POP POP POP POP JUMP JUMPDEST PUSH32 0x4E487B7100000000000000000000000000000000000000000000000000000000 PUSH1 0x0 MSTORE PUSH1 0x22 PUSH1 0x4 MSTORE PUSH1 0x24 PUSH1 0x0 REVERT JUMPDEST PUSH1 0x0 PUSH1 0x2 DUP3 DIV SWAP1 POP PUSH1 0x1 DUP3 AND DUP1 PUSH2 0xC59 JUMPI PUSH1 0x7F DUP3 AND SWAP2 POP JUMPDEST PUSH1 0x20 DUP3 LT DUP2 SUB PUSH2 0xC6C JUMPI PUSH2 0xC6B PUSH2 0xC12 JUMP JUMPDEST JUMPDEST POP SWAP2 SWAP1 POP JUMP JUMPDEST PUSH1 0x0 DUP2 SWAP1 POP DUP2 PUSH1 0x0 MSTORE PUSH1 0x20 PUSH1 0x0 KECCAK256 SWAP1 POP SWAP2 SWAP1 POP JUMP JUMPDEST PUSH1 0x0 PUSH1 0x20 PUSH1 0x1F DUP4 ADD DIV SWAP1 POP SWAP2 SWAP1 POP JUMP JUMPDEST PUSH1 0x0 DUP3 DUP3 SHL SWAP1 POP SWAP3 SWAP2 POP POP JUMP JUMPDEST PUSH1 0x0 PUSH1 0x8 DUP4 MUL PUSH2 0xCD4 PUSH32 0xFFFFFFFFFFFFFFFFFFFFFFFFFFFFFFFFFFFFFFFFFFFFFFFFFFFFFFFFFFFFFFFF DUP3 PUSH2 0xC97 JUMP JUMPDEST PUSH2 0xCDE DUP7 DUP4 PUSH2 0xC97 JUMP JUMPDEST SWAP6 POP DUP1 NOT DUP5 AND SWAP4 POP DUP1 DUP7 AND DUP5 OR SWAP3 POP POP POP SWAP4 SWAP3 POP POP POP JUMP JUMPDEST PUSH1 0x0 DUP2 SWAP1 POP SWAP2 SWAP1 POP JUMP JUMPDEST PUSH1 0x0 PUSH2 0xD1B PUSH2 0xD16 PUSH2 0xD11 DUP5 PUSH2 0x9AD JUMP JUMPDEST PUSH2 0xCF6 JUMP JUMPDEST PUSH2 0x9AD JUMP JUMPDEST SWAP1 POP SWAP2 SWAP1 POP JUMP JUMPDEST PUSH1 0x0 DUP2 SWAP1 POP SWAP2 SWAP1 POP JUMP JUMPDEST PUSH2 0xD35 DUP4 PUSH2 0xD00 JUMP JUMPDEST PUSH2 0xD49 PUSH2 0xD41 DUP3 PUSH2 0xD22 JUMP JUMPDEST DUP5 DUP5 SLOAD PUSH2 0xCA4 JUMP JUMPDEST DUP3 SSTORE POP POP POP POP JUMP JUMPDEST PUSH1 0x0 SWAP1 JUMP JUMPDEST PUSH2 0xD5E PUSH2 0xD51 JUMP JUMPDEST PUSH2 0xD69 DUP2 DUP5 DUP5 PUSH2 0xD2C JUMP JUMPDEST POP POP POP JUMP JUMPDEST JUMPDEST DUP2 DUP2 LT ISZERO PUSH2 0xD8D JUMPI PUSH2 0xD82 PUSH1 0x0 DUP3 PUSH2 0xD56 JUMP JUMPDEST PUSH1 0x1 DUP2 ADD SWAP1 POP PUSH2 0xD6F JUMP JUMPDEST POP POP JUMP JUMPDEST PUSH1 0x1F DUP3 GT ISZERO PUSH2 0xDD2 JUMPI PUSH2 0xDA3 DUP2 PUSH2 0xC72 JUMP JUMPDEST PUSH2 0xDAC DUP5 PUSH2 0xC87 JUMP JUMPDEST DUP2 ADD PUSH1 0x20 DUP6 LT ISZERO PUSH2 0xDBB JUMPI DUP2 SWAP1 POP JUMPDEST PUSH2 0xDCF PUSH2 0xDC7 DUP6 PUSH2 0xC87 JUMP JUMPDEST DUP4 ADD DUP3 PUSH2 0xD6E JUMP JUMPDEST POP POP JUMPDEST POP POP POP JUMP JUMPDEST PUSH1 0x0 DUP3 DUP3 SHR SWAP1 POP SWAP3 SWAP2 POP POP JUMP JUMPDEST PUSH1 0x0 PUSH2 0xDF5 PUSH1 0x0 NOT DUP5 PUSH1 0x8 MUL PUSH2 0xDD7 JUMP JUMPDEST NOT DUP1 DUP4 AND SWAP2 POP POP SWAP3 SWAP2 POP POP JUMP JUMPDEST PUSH1 0x0 PUSH2 0xE0E DUP4 DUP4 PUSH2 0xDE4 JUMP JUMPDEST SWAP2 POP DUP3 PUSH1 0x2 MUL DUP3 OR SWAP1 POP SWAP3 SWAP2 POP POP JUMP JUMPDEST PUSH2 0xE27 DUP3 PUSH2 0x8B4 JUMP JUMPDEST PUSH8 0xFFFFFFFFFFFFFFFF DUP2 GT ISZERO PUSH2 0xE40 JUMPI PUSH2 0xE3F PUSH2 0x740 JUMP JUMPDEST JUMPDEST PUSH2 0xE4A DUP3 SLOAD PUSH2 0xC41 JUMP JUMPDEST PUSH2 0xE55 DUP3 DUP3 DUP6 PUSH2 0xD91 JUMP JUMPDEST PUSH1 0x0 PUSH1 0x20 SWAP1 POP PUSH1 0x1F DUP4 GT PUSH1 0x1 DUP2 EQ PUSH2 0xE88 JUMPI PUSH1 0x0 DUP5 ISZERO PUSH2 0xE76 JUMPI DUP3 DUP8 ADD MLOAD SWAP1 POP JUMPDEST PUSH2 0xE80 DUP6 DUP3 PUSH2 0xE02 JUMP JUMPDEST DUP7 SSTORE POP PUSH2 0xEE8 JUMP JUMPDEST PUSH1 0x1F NOT DUP5 AND PUSH2 0xE96 DUP7 PUSH2 0xC72 JUMP JUMPDEST PUSH1 0x0 JUMPDEST DUP3 DUP2 LT ISZERO PUSH2 0xEBE JUMPI DUP5 DUP10 ADD MLOAD DUP3 SSTORE PUSH1 0x1 DUP3 ADD SWAP2 POP PUSH1 0x20 DUP6 ADD SWAP5 POP PUSH1 0x20 DUP2 ADD SWAP1 POP PUSH2 0xE99 JUMP JUMPDEST DUP7 DUP4 LT ISZERO PUSH2 0xEDB JUMPI DUP5 DUP10 ADD MLOAD PUSH2 0xED7 PUSH1 0x1F DUP10 AND DUP3 PUSH2 0xDE4 JUMP JUMPDEST DUP4 SSTORE POP JUMPDEST PUSH1 0x1 PUSH1 0x2 DUP9 MUL ADD DUP9 SSTORE POP POP POP JUMPDEST POP POP POP POP POP POP JUMP JUMPDEST PUSH32 0x4E487B7100000000000000000000000000000000000000000000000000000000 PUSH1 0x0 MSTORE PUSH1 0x11 PUSH1 0x4 MSTORE PUSH1 0x24 PUSH1 0x0 REVERT JUMPDEST PUSH1 0x0 PUSH2 0xF2A DUP3 PUSH2 0x9AD JUMP JUMPDEST SWAP2 POP PUSH32 0xFFFFFFFFFFFFFFFFFFFFFFFFFFFFFFFFFFFFFFFFFFFFFFFFFFFFFFFFFFFFFFFF DUP3 SUB PUSH2 0xF5C JUMPI PUSH2 0xF5B PUSH2 0xEF0 JUMP JUMPDEST JUMPDEST PUSH1 0x1 DUP3 ADD SWAP1 POP SWAP2 SWAP1 POP JUMP JUMPDEST PUSH32 0x4E487B7100000000000000000000000000000000000000000000000000000000 PUSH1 0x0 MSTORE PUSH1 0x32 PUSH1 0x4 MSTORE PUSH1 0x24 PUSH1 0x0 REVERT INVALID LOG2 PUSH5 0x6970667358 0x22 SLT KECCAK256 ADDMOD 0xAD 0xD 0xDF 0xBF SMOD CALLDATACOPY PUSH7 0xB9BB2DC5B70075 0xEB 0x5D 0xCB 0xC4 SWAP6 SWAP14 0xC PUSH27 0xF877846D6B94586B6164736F6C634300080F003300000000000000 "
				},
				"gasEstimates": {
					"creation": {
						"codeDepositCost": "808800",
						"executionCost": "5850",
						"totalCost": "814650"
					},
					"external": {
						"Assets(uint256)": "infinite",
						"AuctDetails(uint256,uint256)": "infinite",
						"Bidding(uint256,uint256)": "infinite",
						"Result(uint256)": "infinite",
						"Users(address)": "infinite",
						"addAsset(string,uint256)": "infinite",
						"addUser(string)": "infinite"
					}
				},
				"methodIdentifiers": {
					"Assets(uint256)": "4b4a80ba",
					"AuctDetails(uint256,uint256)": "2b9af503",
					"Bidding(uint256,uint256)": "6fe605fc",
					"Result(uint256)": "a9bb0fa1",
					"Users(address)": "99b956a0",
					"addAsset(string,uint256)": "1bc7ffe9",
					"addUser(string)": "18b8275a"
				}
			},
			"storageLayout": {
				"storage": [
					{
						"astId": 17,
						"contract": "Auction.sol:Auction",
						"label": "Users",
						"offset": 0,
						"slot": "0",
						"type": "t_mapping(t_address,t_string_storage)"
					},
					{
						"astId": 22,
						"contract": "Auction.sol:Auction",
						"label": "Assets",
						"offset": 0,
						"slot": "1",
						"type": "t_mapping(t_uint256,t_struct(Asset)8_storage)"
					},
					{
						"astId": 28,
						"contract": "Auction.sol:Auction",
						"label": "AuctDetails",
						"offset": 0,
						"slot": "2",
						"type": "t_mapping(t_uint256,t_array(t_struct(AuctDetail)13_storage)dyn_storage)"
					},
					{
						"astId": 53,
						"contract": "Auction.sol:Auction",
						"label": "Id",
						"offset": 0,
						"slot": "3",
						"type": "t_uint256"
					}
				],
				"types": {
					"t_address": {
						"encoding": "inplace",
						"label": "address",
						"numberOfBytes": "20"
					},
					"t_array(t_struct(AuctDetail)13_storage)dyn_storage": {
						"base": "t_struct(AuctDetail)13_storage",
						"encoding": "dynamic_array",
						"label": "struct Auction.AuctDetail[]",
						"numberOfBytes": "32"
					},
					"t_mapping(t_address,t_string_storage)": {
						"encoding": "mapping",
						"key": "t_address",
						"label": "mapping(address => string)",
						"numberOfBytes": "32",
						"value": "t_string_storage"
					},
					"t_mapping(t_uint256,t_array(t_struct(AuctDetail)13_storage)dyn_storage)": {
						"encoding": "mapping",
						"key": "t_uint256",
						"label": "mapping(uint256 => struct Auction.AuctDetail[])",
						"numberOfBytes": "32",
						"value": "t_array(t_struct(AuctDetail)13_storage)dyn_storage"
					},
					"t_mapping(t_uint256,t_struct(Asset)8_storage)": {
						"encoding": "mapping",
						"key": "t_uint256",
						"label": "mapping(uint256 => struct Auction.Asset)",
						"numberOfBytes": "32",
						"value": "t_struct(Asset)8_storage"
					},
					"t_string_storage": {
						"encoding": "bytes",
						"label": "string",
						"numberOfBytes": "32"
					},
					"t_struct(Asset)8_storage": {
						"encoding": "inplace",
						"label": "struct Auction.Asset",
						"members": [
							{
								"astId": 3,
								"contract": "Auction.sol:Auction",
								"label": "AssetName",
								"offset": 0,
								"slot": "0",
								"type": "t_string_storage"
							},
							{
								"astId": 5,
								"contract": "Auction.sol:Auction",
								"label": "AssetSP",
								"offset": 0,
								"slot": "1",
								"type": "t_uint256"
							},
							{
								"astId": 7,
								"contract": "Auction.sol:Auction",
								"label": "Owner",
								"offset": 0,
								"slot": "2",
								"type": "t_address"
							}
						],
						"numberOfBytes": "96"
					},
					"t_struct(AuctDetail)13_storage": {
						"encoding": "inplace",
						"label": "struct Auction.AuctDetail",
						"members": [
							{
								"astId": 10,
								"contract": "Auction.sol:Auction",
								"label": "bidPrice",
								"offset": 0,
								"slot": "0",
								"type": "t_uint256"
							},
							{
								"astId": 12,
								"contract": "Auction.sol:Auction",
								"label": "bidderId",
								"offset": 0,
								"slot": "1",
								"type": "t_address"
							}
						],
						"numberOfBytes": "64"
					},
					"t_uint256": {
						"encoding": "inplace",
						"label": "uint256",
						"numberOfBytes": "32"
					}
				}
			},
			"userdoc": {
				"kind": "user",
				"methods": {},
				"version": 1
			}
		}
	}
}