{
	"Auction.sol": {
		"Auction": {
			"abi": [
				{
					"inputs": [
						{
							"internalType": "uint256",
							"name": "",
							"type": "uint256"
						}
					],
					"name": "Assets",
					"outputs": [
						{
							"internalType": "string",
							"name": "AssetName",
							"type": "string"
						},
						{
							"internalType": "uint256",
							"name": "AssetSP",
							"type": "uint256"
						},
						{
							"internalType": "address",
							"name": "Owner",
							"type": "address"
						}
					],
					"stateMutability": "view",
					"type": "function"
				},
				{
					"inputs": [
						{
							"internalType": "uint256",
							"name": "",
							"type": "uint256"
						},
						{
							"internalType": "uint256",
							"name": "",
							"type": "uint256"
						}
					],
					"name": "AuctDetails",
					"outputs": [
						{
							"internalType": "uint256",
							"name": "bidPrice",
							"type": "uint256"
						},
						{
							"internalType": "address",
							"name": "bidderId",
							"type": "address"
						}
					],
					"stateMutability": "view",
					"type": "function"
				},
				{
					"inputs": [
						{
							"internalType": "uint256",
							"name": "AssetId",
							"type": "uint256"
						},
						{
							"internalType": "uint256",
							"name": "bidPrice",
							"type": "uint256"
						}
					],
					"name": "Bidding",
					"outputs": [],
					"stateMutability": "nonpayable",
					"type": "function"
				},
				{
					"inputs": [
						{
							"internalType": "uint256",
							"name": "ID",
							"type": "uint256"
						}
					],
					"name": "Result",
					"outputs": [],
					"stateMutability": "view",
					"type": "function"
				},
				{
					"inputs": [
						{
							"internalType": "address",
							"name": "",
							"type": "address"
						}
					],
					"name": "Users",
					"outputs": [
						{
							"internalType": "string",
							"name": "",
							"type": "string"
						}
					],
					"stateMutability": "view",
					"type": "function"
				},
				{
					"inputs": [
						{
							"internalType": "string",
							"name": "Name",
							"type": "string"
						},
						{
							"internalType": "uint256",
							"name": "Price",
							"type": "uint256"
						}
					],
					"name": "addAsset",
					"outputs": [
						{
							"internalType": "uint256",
							"name": "",
							"type": "uint256"
						},
						{
							"internalType": "string",
							"name": "",
							"type": "string"
						},
						{
							"internalType": "uint256",
							"name": "",
							"type": "uint256"
						}
					],
					"stateMutability": "nonpayable",
					"type": "function"
				},
				{
					"inputs": [
						{
							"internalType": "string",
							"name": "Name",
							"type": "string"
						}
					],
					"name": "addUser",
					"outputs": [],
					"stateMutability": "nonpayable",
					"type": "function"
				}
			],
			"devdoc": {
				"kind": "dev",
				"methods": {},
				"version": 1
			},
			"evm": {
				"assembly": "    /* \"Auction.sol\":66:1250  contract Auction {... */\n  mstore(0x40, 0x80)\n    /* \"Auction.sol\":535:536  0 */\n  0x00\n    /* \"Auction.sol\":525:536  uint Id = 0 */\n  0x03\n  sstore\n    /* \"Auction.sol\":66:1250  contract Auction {... */\n  callvalue\n  dup1\n  iszero\n  tag_1\n  jumpi\n  0x00\n  dup1\n  revert\ntag_1:\n  pop\n  dataSize(sub_0)\n  dup1\n  dataOffset(sub_0)\n  0x00\n  codecopy\n  0x00\n  return\nstop\n\nsub_0: assembly {\n        /* \"Auction.sol\":66:1250  contract Auction {... */\n      mstore(0x40, 0x80)\n      callvalue\n      dup1\n      iszero\n      tag_1\n      jumpi\n      0x00\n      dup1\n      revert\n    tag_1:\n      pop\n      jumpi(tag_2, lt(calldatasize, 0x04))\n      shr(0xe0, calldataload(0x00))\n      dup1\n      0x4b4a80ba\n      gt\n      tag_10\n      jumpi\n      dup1\n      0x4b4a80ba\n      eq\n      tag_6\n      jumpi\n      dup1\n      0x6fe605fc\n      eq\n      tag_7\n      jumpi\n      dup1\n      0x99b956a0\n      eq\n      tag_8\n      jumpi\n      dup1\n      0xa9bb0fa1\n      eq\n      tag_9\n      jumpi\n      jump(tag_2)\n    tag_10:\n      dup1\n      0x18b8275a\n      eq\n      tag_3\n      jumpi\n      dup1\n      0x1bc7ffe9\n      eq\n      tag_4\n      jumpi\n      dup1\n      0x2b9af503\n      eq\n      tag_5\n      jumpi\n    tag_2:\n      0x00\n      dup1\n      revert\n        /* \"Auction.sol\":430:517  function addUser(string memory Name) public {... */\n    tag_3:\n      tag_11\n      0x04\n      dup1\n      calldatasize\n      sub\n      dup2\n      add\n      swap1\n      tag_12\n      swap2\n      swap1\n      tag_13\n      jump\t// in\n    tag_12:\n      tag_14\n      jump\t// in\n    tag_11:\n      stop\n        /* \"Auction.sol\":543:743  function addAsset(string memory Name, uint Price) public returns (uint, string memory, uint) {... */\n    tag_4:\n      tag_15\n      0x04\n      dup1\n      calldatasize\n      sub\n      dup2\n      add\n      swap1\n      tag_16\n      swap2\n      swap1\n      tag_17\n      jump\t// in\n    tag_16:\n      tag_18\n      jump\t// in\n    tag_15:\n      mload(0x40)\n      tag_19\n      swap4\n      swap3\n      swap2\n      swap1\n      tag_20\n      jump\t// in\n    tag_19:\n      mload(0x40)\n      dup1\n      swap2\n      sub\n      swap1\n      return\n        /* \"Auction.sol\":367:415  mapping(uint => AuctDetail[]) public AuctDetails */\n    tag_5:\n      tag_21\n      0x04\n      dup1\n      calldatasize\n      sub\n      dup2\n      add\n      swap1\n      tag_22\n      swap2\n      swap1\n      tag_23\n      jump\t// in\n    tag_22:\n      tag_24\n      jump\t// in\n    tag_21:\n      mload(0x40)\n      tag_25\n      swap3\n      swap2\n      swap1\n      tag_26\n      jump\t// in\n    tag_25:\n      mload(0x40)\n      dup1\n      swap2\n      sub\n      swap1\n      return\n        /* \"Auction.sol\":324:360  mapping(uint => Asset) public Assets */\n    tag_6:\n      tag_27\n      0x04\n      dup1\n      calldatasize\n      sub\n      dup2\n      add\n      swap1\n      tag_28\n      swap2\n      swap1\n      tag_29\n      jump\t// in\n    tag_28:\n      tag_30\n      jump\t// in\n    tag_27:\n      mload(0x40)\n      tag_31\n      swap4\n      swap3\n      swap2\n      swap1\n      tag_32\n      jump\t// in\n    tag_31:\n      mload(0x40)\n      dup1\n      swap2\n      sub\n      swap1\n      return\n        /* \"Auction.sol\":763:894  function Bidding(uint AssetId, uint bidPrice) public {... */\n    tag_7:\n      tag_33\n      0x04\n      dup1\n      calldatasize\n      sub\n      dup2\n      add\n      swap1\n      tag_34\n      swap2\n      swap1\n      tag_23\n      jump\t// in\n    tag_34:\n      tag_35\n      jump\t// in\n    tag_33:\n      stop\n        /* \"Auction.sol\":278:317  mapping(address => string) public Users */\n    tag_8:\n      tag_36\n      0x04\n      dup1\n      calldatasize\n      sub\n      dup2\n      add\n      swap1\n      tag_37\n      swap2\n      swap1\n      tag_38\n      jump\t// in\n    tag_37:\n      tag_39\n      jump\t// in\n    tag_36:\n      mload(0x40)\n      tag_40\n      swap2\n      swap1\n      tag_41\n      jump\t// in\n    tag_40:\n      mload(0x40)\n      dup1\n      swap2\n      sub\n      swap1\n      return\n        /* \"Auction.sol\":902:1247  function Result(uint ID) public view {... */\n    tag_9:\n      tag_42\n      0x04\n      dup1\n      calldatasize\n      sub\n      dup2\n      add\n      swap1\n      tag_43\n      swap2\n      swap1\n      tag_29\n      jump\t// in\n    tag_43:\n      tag_44\n      jump\t// in\n    tag_42:\n      stop\n        /* \"Auction.sol\":430:517  function addUser(string memory Name) public {... */\n    tag_14:\n        /* \"Auction.sol\":505:509  Name */\n      dup1\n        /* \"Auction.sol\":485:490  Users */\n      0x00\n        /* \"Auction.sol\":485:502  Users[msg.sender] */\n      dup1\n        /* \"Auction.sol\":491:501  msg.sender */\n      caller\n        /* \"Auction.sol\":485:502  Users[msg.sender] */\n      0xffffffffffffffffffffffffffffffffffffffff\n      and\n      0xffffffffffffffffffffffffffffffffffffffff\n      and\n      dup2\n      mstore\n      0x20\n      add\n      swap1\n      dup2\n      mstore\n      0x20\n      add\n      0x00\n      keccak256\n        /* \"Auction.sol\":485:509  Users[msg.sender] = Name */\n      swap1\n      dup2\n      tag_46\n      swap2\n      swap1\n      tag_47\n      jump\t// in\n    tag_46:\n      pop\n        /* \"Auction.sol\":430:517  function addUser(string memory Name) public {... */\n      pop\n      jump\t// out\n        /* \"Auction.sol\":543:743  function addAsset(string memory Name, uint Price) public returns (uint, string memory, uint) {... */\n    tag_18:\n        /* \"Auction.sol\":609:613  uint */\n      0x00\n        /* \"Auction.sol\":615:628  string memory */\n      0x60\n        /* \"Auction.sol\":630:634  uint */\n      0x00\n        /* \"Auction.sol\":660:690  Asset(Name, Price, msg.sender) */\n      mload(0x40)\n      dup1\n      0x60\n      add\n      0x40\n      mstore\n      dup1\n        /* \"Auction.sol\":666:670  Name */\n      dup7\n        /* \"Auction.sol\":660:690  Asset(Name, Price, msg.sender) */\n      dup2\n      mstore\n      0x20\n      add\n        /* \"Auction.sol\":672:677  Price */\n      dup6\n        /* \"Auction.sol\":660:690  Asset(Name, Price, msg.sender) */\n      dup2\n      mstore\n      0x20\n      add\n        /* \"Auction.sol\":679:689  msg.sender */\n      caller\n        /* \"Auction.sol\":660:690  Asset(Name, Price, msg.sender) */\n      0xffffffffffffffffffffffffffffffffffffffff\n      and\n      dup2\n      mstore\n      pop\n        /* \"Auction.sol\":647:653  Assets */\n      0x01\n        /* \"Auction.sol\":647:657  Assets[Id] */\n      0x00\n        /* \"Auction.sol\":654:656  Id */\n      sload(0x03)\n        /* \"Auction.sol\":647:657  Assets[Id] */\n      dup2\n      mstore\n      0x20\n      add\n      swap1\n      dup2\n      mstore\n      0x20\n      add\n      0x00\n      keccak256\n        /* \"Auction.sol\":647:690  Assets[Id] = Asset(Name, Price, msg.sender) */\n      0x00\n      dup3\n      add\n      mload\n      dup2\n      0x00\n      add\n      swap1\n      dup2\n      tag_49\n      swap2\n      swap1\n      tag_47\n      jump\t// in\n    tag_49:\n      pop\n      0x20\n      dup3\n      add\n      mload\n      dup2\n      0x01\n      add\n      sstore\n      0x40\n      dup3\n      add\n      mload\n      dup2\n      0x02\n      add\n      exp(0x0100, 0x00)\n      dup2\n      sload\n      dup2\n      0xffffffffffffffffffffffffffffffffffffffff\n      mul\n      not\n      and\n      swap1\n      dup4\n      0xffffffffffffffffffffffffffffffffffffffff\n      and\n      mul\n      or\n      swap1\n      sstore\n      pop\n      swap1\n      pop\n      pop\n        /* \"Auction.sol\":719:721  Id */\n      sload(0x03)\n        /* \"Auction.sol\":723:727  Name */\n      dup6\n        /* \"Auction.sol\":729:734  Price */\n      dup6\n        /* \"Auction.sol\":711:735  return (Id, Name, Price) */\n      swap3\n      pop\n      swap3\n      pop\n      swap3\n      pop\n        /* \"Auction.sol\":543:743  function addAsset(string memory Name, uint Price) public returns (uint, string memory, uint) {... */\n      swap3\n      pop\n      swap3\n      pop\n      swap3\n      jump\t// out\n        /* \"Auction.sol\":367:415  mapping(uint => AuctDetail[]) public AuctDetails */\n    tag_24:\n      mstore(0x20, 0x02)\n      dup2\n      0x00\n      mstore\n      keccak256(0x00, 0x40)\n      dup2\n      dup2\n      sload\n      dup2\n      lt\n      tag_50\n      jumpi\n      0x00\n      dup1\n      revert\n    tag_50:\n      swap1\n      0x00\n      mstore\n      keccak256(0x00, 0x20)\n      swap1\n      0x02\n      mul\n      add\n      0x00\n      swap2\n      pop\n      swap2\n      pop\n      pop\n      dup1\n      0x00\n      add\n      sload\n      swap1\n      dup1\n      0x01\n      add\n      0x00\n      swap1\n      sload\n      swap1\n      0x0100\n      exp\n      swap1\n      div\n      0xffffffffffffffffffffffffffffffffffffffff\n      and\n      swap1\n      pop\n      dup3\n      jump\t// out\n        /* \"Auction.sol\":324:360  mapping(uint => Asset) public Assets */\n    tag_30:\n      mstore(0x20, 0x01)\n      dup1\n      0x00\n      mstore\n      keccak256(0x00, 0x40)\n      0x00\n      swap2\n      pop\n      swap1\n      pop\n      dup1\n      0x00\n      add\n      dup1\n      sload\n      tag_52\n      swap1\n      tag_53\n      jump\t// in\n    tag_52:\n      dup1\n      0x1f\n      add\n      0x20\n      dup1\n      swap2\n      div\n      mul\n      0x20\n      add\n      mload(0x40)\n      swap1\n      dup2\n      add\n      0x40\n      mstore\n      dup1\n      swap3\n      swap2\n      swap1\n      dup2\n      dup2\n      mstore\n      0x20\n      add\n      dup3\n      dup1\n      sload\n      tag_54\n      swap1\n      tag_53\n      jump\t// in\n    tag_54:\n      dup1\n      iszero\n      tag_55\n      jumpi\n      dup1\n      0x1f\n      lt\n      tag_56\n      jumpi\n      0x0100\n      dup1\n      dup4\n      sload\n      div\n      mul\n      dup4\n      mstore\n      swap2\n      0x20\n      add\n      swap2\n      jump(tag_55)\n    tag_56:\n      dup3\n      add\n      swap2\n      swap1\n      0x00\n      mstore\n      keccak256(0x00, 0x20)\n      swap1\n    tag_57:\n      dup2\n      sload\n      dup2\n      mstore\n      swap1\n      0x01\n      add\n      swap1\n      0x20\n      add\n      dup1\n      dup4\n      gt\n      tag_57\n      jumpi\n      dup3\n      swap1\n      sub\n      0x1f\n      and\n      dup3\n      add\n      swap2\n    tag_55:\n      pop\n      pop\n      pop\n      pop\n      pop\n      swap1\n      dup1\n      0x01\n      add\n      sload\n      swap1\n      dup1\n      0x02\n      add\n      0x00\n      swap1\n      sload\n      swap1\n      0x0100\n      exp\n      swap1\n      div\n      0xffffffffffffffffffffffffffffffffffffffff\n      and\n      swap1\n      pop\n      dup4\n      jump\t// out\n        /* \"Auction.sol\":763:894  function Bidding(uint AssetId, uint bidPrice) public {... */\n    tag_35:\n        /* \"Auction.sol\":827:838  AuctDetails */\n      0x02\n        /* \"Auction.sol\":827:847  AuctDetails[AssetId] */\n      0x00\n        /* \"Auction.sol\":839:846  AssetId */\n      dup4\n        /* \"Auction.sol\":827:847  AuctDetails[AssetId] */\n      dup2\n      mstore\n      0x20\n      add\n      swap1\n      dup2\n      mstore\n      0x20\n      add\n      0x00\n      keccak256\n        /* \"Auction.sol\":853:885  AuctDetail(bidPrice, msg.sender) */\n      mload(0x40)\n      dup1\n      0x40\n      add\n      0x40\n      mstore\n      dup1\n        /* \"Auction.sol\":864:872  bidPrice */\n      dup4\n        /* \"Auction.sol\":853:885  AuctDetail(bidPrice, msg.sender) */\n      dup2\n      mstore\n      0x20\n      add\n        /* \"Auction.sol\":874:884  msg.sender */\n      caller\n        /* \"Auction.sol\":853:885  AuctDetail(bidPrice, msg.sender) */\n      0xffffffffffffffffffffffffffffffffffffffff\n      and\n      dup2\n      mstore\n      pop\n        /* \"Auction.sol\":827:886  AuctDetails[AssetId].push(AuctDetail(bidPrice, msg.sender)) */\n      swap1\n      dup1\n      0x01\n      dup2\n      sload\n      add\n      dup1\n      dup3\n      sstore\n      dup1\n      swap2\n      pop\n      pop\n      0x01\n      swap1\n      sub\n      swap1\n      0x00\n      mstore\n      keccak256(0x00, 0x20)\n      swap1\n      0x02\n      mul\n      add\n      0x00\n      swap1\n      swap2\n      swap1\n      swap2\n      swap1\n      swap2\n      pop\n      0x00\n      dup3\n      add\n      mload\n      dup2\n      0x00\n      add\n      sstore\n      0x20\n      dup3\n      add\n      mload\n      dup2\n      0x01\n      add\n      exp(0x0100, 0x00)\n      dup2\n      sload\n      dup2\n      0xffffffffffffffffffffffffffffffffffffffff\n      mul\n      not\n      and\n      swap1\n      dup4\n      0xffffffffffffffffffffffffffffffffffffffff\n      and\n      mul\n      or\n      swap1\n      sstore\n      pop\n      pop\n      pop\n        /* \"Auction.sol\":763:894  function Bidding(uint AssetId, uint bidPrice) public {... */\n      pop\n      pop\n      jump\t// out\n        /* \"Auction.sol\":278:317  mapping(address => string) public Users */\n    tag_39:\n      mstore(0x20, 0x00)\n      dup1\n      0x00\n      mstore\n      keccak256(0x00, 0x40)\n      0x00\n      swap2\n      pop\n      swap1\n      pop\n      dup1\n      sload\n      tag_60\n      swap1\n      tag_53\n      jump\t// in\n    tag_60:\n      dup1\n      0x1f\n      add\n      0x20\n      dup1\n      swap2\n      div\n      mul\n      0x20\n      add\n      mload(0x40)\n      swap1\n      dup2\n      add\n      0x40\n      mstore\n      dup1\n      swap3\n      swap2\n      swap1\n      dup2\n      dup2\n      mstore\n      0x20\n      add\n      dup3\n      dup1\n      sload\n      tag_61\n      swap1\n      tag_53\n      jump\t// in\n    tag_61:\n      dup1\n      iszero\n      tag_62\n      jumpi\n      dup1\n      0x1f\n      lt\n      tag_63\n      jumpi\n      0x0100\n      dup1\n      dup4\n      sload\n      div\n      mul\n      dup4\n      mstore\n      swap2\n      0x20\n      add\n      swap2\n      jump(tag_62)\n    tag_63:\n      dup3\n      add\n      swap2\n      swap1\n      0x00\n      mstore\n      keccak256(0x00, 0x20)\n      swap1\n    tag_64:\n      dup2\n      sload\n      dup2\n      mstore\n      swap1\n      0x01\n      add\n      swap1\n      0x20\n      add\n      dup1\n      dup4\n      gt\n      tag_64\n      jumpi\n      dup3\n      swap1\n      sub\n      0x1f\n      and\n      dup3\n      add\n      swap2\n    tag_62:\n      pop\n      pop\n      pop\n      pop\n      pop\n      dup2\n      jump\t// out\n        /* \"Auction.sol\":902:1247  function Result(uint ID) public view {... */\n    tag_44:\n        /* \"Auction.sol\":950:960  uint Price */\n      0x00\n        /* \"Auction.sol\":975:990  address OwnerId */\n      dup1\n        /* \"Auction.sol\":1005:1011  uint j */\n      dup1\n        /* \"Auction.sol\":1014:1025  AuctDetails */\n      0x02\n        /* \"Auction.sol\":1014:1029  AuctDetails[ID] */\n      0x00\n        /* \"Auction.sol\":1026:1028  ID */\n      dup6\n        /* \"Auction.sol\":1014:1029  AuctDetails[ID] */\n      dup2\n      mstore\n      0x20\n      add\n      swap1\n      dup2\n      mstore\n      0x20\n      add\n      0x00\n      keccak256\n        /* \"Auction.sol\":1030:1031  0 */\n      0x00\n        /* \"Auction.sol\":1014:1032  AuctDetails[ID][0] */\n      dup2\n      sload\n      dup2\n      lt\n      tag_69\n      jumpi\n      tag_70\n      tag_71\n      jump\t// in\n    tag_70:\n    tag_69:\n      swap1\n      0x00\n      mstore\n      keccak256(0x00, 0x20)\n      swap1\n      0x02\n      mul\n      add\n        /* \"Auction.sol\":1014:1041  AuctDetails[ID][0].bidPrice */\n      0x00\n      add\n      sload\n        /* \"Auction.sol\":1005:1041  uint j = AuctDetails[ID][0].bidPrice */\n      swap1\n      pop\n        /* \"Auction.sol\":1001:1240  for(uint j = AuctDetails[ID][0].bidPrice; j <= AuctDetails[ID].length ; j++) {... */\n    tag_66:\n        /* \"Auction.sol\":1048:1059  AuctDetails */\n      0x02\n        /* \"Auction.sol\":1048:1063  AuctDetails[ID] */\n      0x00\n        /* \"Auction.sol\":1060:1062  ID */\n      dup6\n        /* \"Auction.sol\":1048:1063  AuctDetails[ID] */\n      dup2\n      mstore\n      0x20\n      add\n      swap1\n      dup2\n      mstore\n      0x20\n      add\n      0x00\n      keccak256\n        /* \"Auction.sol\":1048:1070  AuctDetails[ID].length */\n      dup1\n      sload\n      swap1\n      pop\n        /* \"Auction.sol\":1043:1044  j */\n      dup2\n        /* \"Auction.sol\":1043:1070  j <= AuctDetails[ID].length */\n      gt\n        /* \"Auction.sol\":1001:1240  for(uint j = AuctDetails[ID][0].bidPrice; j <= AuctDetails[ID].length ; j++) {... */\n      tag_67\n      jumpi\n        /* \"Auction.sol\":1099:1104  Price */\n      dup3\n        /* \"Auction.sol\":1097:1098  j */\n      dup2\n        /* \"Auction.sol\":1097:1104  j>Price */\n      gt\n        /* \"Auction.sol\":1093:1206  if (j>Price) {... */\n      iszero\n      tag_73\n      jumpi\n        /* \"Auction.sol\":1133:1134  j */\n      dup1\n        /* \"Auction.sol\":1125:1134  Price = j */\n      swap3\n      pop\n        /* \"Auction.sol\":1163:1174  AuctDetails */\n      0x02\n        /* \"Auction.sol\":1163:1178  AuctDetails[ID] */\n      0x00\n        /* \"Auction.sol\":1175:1177  ID */\n      dup6\n        /* \"Auction.sol\":1163:1178  AuctDetails[ID] */\n      dup2\n      mstore\n      0x20\n      add\n      swap1\n      dup2\n      mstore\n      0x20\n      add\n      0x00\n      keccak256\n        /* \"Auction.sol\":1179:1180  0 */\n      0x00\n        /* \"Auction.sol\":1163:1181  AuctDetails[ID][0] */\n      dup2\n      sload\n      dup2\n      lt\n      tag_74\n      jumpi\n      tag_75\n      tag_71\n      jump\t// in\n    tag_75:\n    tag_74:\n      swap1\n      0x00\n      mstore\n      keccak256(0x00, 0x20)\n      swap1\n      0x02\n      mul\n      add\n        /* \"Auction.sol\":1163:1190  AuctDetails[ID][0].bidderId */\n      0x01\n      add\n      0x00\n      swap1\n      sload\n      swap1\n      0x0100\n      exp\n      swap1\n      div\n      0xffffffffffffffffffffffffffffffffffffffff\n      and\n        /* \"Auction.sol\":1153:1190  OwnerId = AuctDetails[ID][0].bidderId */\n      swap2\n      pop\n        /* \"Auction.sol\":1093:1206  if (j>Price) {... */\n    tag_73:\n        /* \"Auction.sol\":1073:1076  j++ */\n      dup1\n      dup1\n      tag_77\n      swap1\n      tag_78\n      jump\t// in\n    tag_77:\n      swap2\n      pop\n      pop\n        /* \"Auction.sol\":1001:1240  for(uint j = AuctDetails[ID][0].bidPrice; j <= AuctDetails[ID].length ; j++) {... */\n      jump(tag_66)\n    tag_67:\n      pop\n        /* \"Auction.sol\":939:1247  {... */\n      pop\n      pop\n        /* \"Auction.sol\":902:1247  function Result(uint ID) public view {... */\n      pop\n      jump\t// out\n        /* \"#utility.yul\":7:82   */\n    tag_79:\n        /* \"#utility.yul\":40:46   */\n      0x00\n        /* \"#utility.yul\":73:75   */\n      0x40\n        /* \"#utility.yul\":67:76   */\n      mload\n        /* \"#utility.yul\":57:76   */\n      swap1\n      pop\n        /* \"#utility.yul\":7:82   */\n      swap1\n      jump\t// out\n        /* \"#utility.yul\":88:205   */\n    tag_80:\n        /* \"#utility.yul\":197:198   */\n      0x00\n        /* \"#utility.yul\":194:195   */\n      dup1\n        /* \"#utility.yul\":187:199   */\n      revert\n        /* \"#utility.yul\":211:328   */\n    tag_81:\n        /* \"#utility.yul\":320:321   */\n      0x00\n        /* \"#utility.yul\":317:318   */\n      dup1\n        /* \"#utility.yul\":310:322   */\n      revert\n        /* \"#utility.yul\":334:451   */\n    tag_82:\n        /* \"#utility.yul\":443:444   */\n      0x00\n        /* \"#utility.yul\":440:441   */\n      dup1\n        /* \"#utility.yul\":433:445   */\n      revert\n        /* \"#utility.yul\":457:574   */\n    tag_83:\n        /* \"#utility.yul\":566:567   */\n      0x00\n        /* \"#utility.yul\":563:564   */\n      dup1\n        /* \"#utility.yul\":556:568   */\n      revert\n        /* \"#utility.yul\":580:682   */\n    tag_84:\n        /* \"#utility.yul\":621:627   */\n      0x00\n        /* \"#utility.yul\":672:674   */\n      0x1f\n        /* \"#utility.yul\":668:675   */\n      not\n        /* \"#utility.yul\":663:665   */\n      0x1f\n        /* \"#utility.yul\":656:661   */\n      dup4\n        /* \"#utility.yul\":652:666   */\n      add\n        /* \"#utility.yul\":648:676   */\n      and\n        /* \"#utility.yul\":638:676   */\n      swap1\n      pop\n        /* \"#utility.yul\":580:682   */\n      swap2\n      swap1\n      pop\n      jump\t// out\n        /* \"#utility.yul\":688:868   */\n    tag_85:\n        /* \"#utility.yul\":736:813   */\n      0x4e487b7100000000000000000000000000000000000000000000000000000000\n        /* \"#utility.yul\":733:734   */\n      0x00\n        /* \"#utility.yul\":726:814   */\n      mstore\n        /* \"#utility.yul\":833:837   */\n      0x41\n        /* \"#utility.yul\":830:831   */\n      0x04\n        /* \"#utility.yul\":823:838   */\n      mstore\n        /* \"#utility.yul\":857:861   */\n      0x24\n        /* \"#utility.yul\":854:855   */\n      0x00\n        /* \"#utility.yul\":847:862   */\n      revert\n        /* \"#utility.yul\":874:1155   */\n    tag_86:\n        /* \"#utility.yul\":957:984   */\n      tag_131\n        /* \"#utility.yul\":979:983   */\n      dup3\n        /* \"#utility.yul\":957:984   */\n      tag_84\n      jump\t// in\n    tag_131:\n        /* \"#utility.yul\":949:955   */\n      dup2\n        /* \"#utility.yul\":945:985   */\n      add\n        /* \"#utility.yul\":1087:1093   */\n      dup2\n        /* \"#utility.yul\":1075:1085   */\n      dup2\n        /* \"#utility.yul\":1072:1094   */\n      lt\n        /* \"#utility.yul\":1051:1069   */\n      0xffffffffffffffff\n        /* \"#utility.yul\":1039:1049   */\n      dup3\n        /* \"#utility.yul\":1036:1070   */\n      gt\n        /* \"#utility.yul\":1033:1095   */\n      or\n        /* \"#utility.yul\":1030:1118   */\n      iszero\n      tag_132\n      jumpi\n        /* \"#utility.yul\":1098:1116   */\n      tag_133\n      tag_85\n      jump\t// in\n    tag_133:\n        /* \"#utility.yul\":1030:1118   */\n    tag_132:\n        /* \"#utility.yul\":1138:1148   */\n      dup1\n        /* \"#utility.yul\":1134:1136   */\n      0x40\n        /* \"#utility.yul\":1127:1149   */\n      mstore\n        /* \"#utility.yul\":917:1155   */\n      pop\n        /* \"#utility.yul\":874:1155   */\n      pop\n      pop\n      jump\t// out\n        /* \"#utility.yul\":1161:1290   */\n    tag_87:\n        /* \"#utility.yul\":1195:1201   */\n      0x00\n        /* \"#utility.yul\":1222:1242   */\n      tag_135\n      tag_79\n      jump\t// in\n    tag_135:\n        /* \"#utility.yul\":1212:1242   */\n      swap1\n      pop\n        /* \"#utility.yul\":1251:1284   */\n      tag_136\n        /* \"#utility.yul\":1279:1283   */\n      dup3\n        /* \"#utility.yul\":1271:1277   */\n      dup3\n        /* \"#utility.yul\":1251:1284   */\n      tag_86\n      jump\t// in\n    tag_136:\n        /* \"#utility.yul\":1161:1290   */\n      swap2\n      swap1\n      pop\n      jump\t// out\n        /* \"#utility.yul\":1296:1604   */\n    tag_88:\n        /* \"#utility.yul\":1358:1362   */\n      0x00\n        /* \"#utility.yul\":1448:1466   */\n      0xffffffffffffffff\n        /* \"#utility.yul\":1440:1446   */\n      dup3\n        /* \"#utility.yul\":1437:1467   */\n      gt\n        /* \"#utility.yul\":1434:1490   */\n      iszero\n      tag_138\n      jumpi\n        /* \"#utility.yul\":1470:1488   */\n      tag_139\n      tag_85\n      jump\t// in\n    tag_139:\n        /* \"#utility.yul\":1434:1490   */\n    tag_138:\n        /* \"#utility.yul\":1508:1537   */\n      tag_140\n        /* \"#utility.yul\":1530:1536   */\n      dup3\n        /* \"#utility.yul\":1508:1537   */\n      tag_84\n      jump\t// in\n    tag_140:\n        /* \"#utility.yul\":1500:1537   */\n      swap1\n      pop\n        /* \"#utility.yul\":1592:1596   */\n      0x20\n        /* \"#utility.yul\":1586:1590   */\n      dup2\n        /* \"#utility.yul\":1582:1597   */\n      add\n        /* \"#utility.yul\":1574:1597   */\n      swap1\n      pop\n        /* \"#utility.yul\":1296:1604   */\n      swap2\n      swap1\n      pop\n      jump\t// out\n        /* \"#utility.yul\":1610:1764   */\n    tag_89:\n        /* \"#utility.yul\":1694:1700   */\n      dup3\n        /* \"#utility.yul\":1689:1692   */\n      dup2\n        /* \"#utility.yul\":1684:1687   */\n      dup4\n        /* \"#utility.yul\":1671:1701   */\n      calldatacopy\n        /* \"#utility.yul\":1756:1757   */\n      0x00\n        /* \"#utility.yul\":1747:1753   */\n      dup4\n        /* \"#utility.yul\":1742:1745   */\n      dup4\n        /* \"#utility.yul\":1738:1754   */\n      add\n        /* \"#utility.yul\":1731:1758   */\n      mstore\n        /* \"#utility.yul\":1610:1764   */\n      pop\n      pop\n      pop\n      jump\t// out\n        /* \"#utility.yul\":1770:2182   */\n    tag_90:\n        /* \"#utility.yul\":1848:1853   */\n      0x00\n        /* \"#utility.yul\":1873:1939   */\n      tag_143\n        /* \"#utility.yul\":1889:1938   */\n      tag_144\n        /* \"#utility.yul\":1931:1937   */\n      dup5\n        /* \"#utility.yul\":1889:1938   */\n      tag_88\n      jump\t// in\n    tag_144:\n        /* \"#utility.yul\":1873:1939   */\n      tag_87\n      jump\t// in\n    tag_143:\n        /* \"#utility.yul\":1864:1939   */\n      swap1\n      pop\n        /* \"#utility.yul\":1962:1968   */\n      dup3\n        /* \"#utility.yul\":1955:1960   */\n      dup2\n        /* \"#utility.yul\":1948:1969   */\n      mstore\n        /* \"#utility.yul\":2000:2004   */\n      0x20\n        /* \"#utility.yul\":1993:1998   */\n      dup2\n        /* \"#utility.yul\":1989:2005   */\n      add\n        /* \"#utility.yul\":2038:2041   */\n      dup5\n        /* \"#utility.yul\":2029:2035   */\n      dup5\n        /* \"#utility.yul\":2024:2027   */\n      dup5\n        /* \"#utility.yul\":2020:2036   */\n      add\n        /* \"#utility.yul\":2017:2042   */\n      gt\n        /* \"#utility.yul\":2014:2126   */\n      iszero\n      tag_145\n      jumpi\n        /* \"#utility.yul\":2045:2124   */\n      tag_146\n      tag_83\n      jump\t// in\n    tag_146:\n        /* \"#utility.yul\":2014:2126   */\n    tag_145:\n        /* \"#utility.yul\":2135:2176   */\n      tag_147\n        /* \"#utility.yul\":2169:2175   */\n      dup5\n        /* \"#utility.yul\":2164:2167   */\n      dup3\n        /* \"#utility.yul\":2159:2162   */\n      dup6\n        /* \"#utility.yul\":2135:2176   */\n      tag_89\n      jump\t// in\n    tag_147:\n        /* \"#utility.yul\":1854:2182   */\n      pop\n        /* \"#utility.yul\":1770:2182   */\n      swap4\n      swap3\n      pop\n      pop\n      pop\n      jump\t// out\n        /* \"#utility.yul\":2202:2542   */\n    tag_91:\n        /* \"#utility.yul\":2258:2263   */\n      0x00\n        /* \"#utility.yul\":2307:2310   */\n      dup3\n        /* \"#utility.yul\":2300:2304   */\n      0x1f\n        /* \"#utility.yul\":2292:2298   */\n      dup4\n        /* \"#utility.yul\":2288:2305   */\n      add\n        /* \"#utility.yul\":2284:2311   */\n      slt\n        /* \"#utility.yul\":2274:2396   */\n      tag_149\n      jumpi\n        /* \"#utility.yul\":2315:2394   */\n      tag_150\n      tag_82\n      jump\t// in\n    tag_150:\n        /* \"#utility.yul\":2274:2396   */\n    tag_149:\n        /* \"#utility.yul\":2432:2438   */\n      dup2\n        /* \"#utility.yul\":2419:2439   */\n      calldataload\n        /* \"#utility.yul\":2457:2536   */\n      tag_151\n        /* \"#utility.yul\":2532:2535   */\n      dup5\n        /* \"#utility.yul\":2524:2530   */\n      dup3\n        /* \"#utility.yul\":2517:2521   */\n      0x20\n        /* \"#utility.yul\":2509:2515   */\n      dup7\n        /* \"#utility.yul\":2505:2522   */\n      add\n        /* \"#utility.yul\":2457:2536   */\n      tag_90\n      jump\t// in\n    tag_151:\n        /* \"#utility.yul\":2448:2536   */\n      swap2\n      pop\n        /* \"#utility.yul\":2264:2542   */\n      pop\n        /* \"#utility.yul\":2202:2542   */\n      swap3\n      swap2\n      pop\n      pop\n      jump\t// out\n        /* \"#utility.yul\":2548:3057   */\n    tag_13:\n        /* \"#utility.yul\":2617:2623   */\n      0x00\n        /* \"#utility.yul\":2666:2668   */\n      0x20\n        /* \"#utility.yul\":2654:2663   */\n      dup3\n        /* \"#utility.yul\":2645:2652   */\n      dup5\n        /* \"#utility.yul\":2641:2664   */\n      sub\n        /* \"#utility.yul\":2637:2669   */\n      slt\n        /* \"#utility.yul\":2634:2753   */\n      iszero\n      tag_153\n      jumpi\n        /* \"#utility.yul\":2672:2751   */\n      tag_154\n      tag_80\n      jump\t// in\n    tag_154:\n        /* \"#utility.yul\":2634:2753   */\n    tag_153:\n        /* \"#utility.yul\":2820:2821   */\n      0x00\n        /* \"#utility.yul\":2809:2818   */\n      dup3\n        /* \"#utility.yul\":2805:2822   */\n      add\n        /* \"#utility.yul\":2792:2823   */\n      calldataload\n        /* \"#utility.yul\":2850:2868   */\n      0xffffffffffffffff\n        /* \"#utility.yul\":2842:2848   */\n      dup2\n        /* \"#utility.yul\":2839:2869   */\n      gt\n        /* \"#utility.yul\":2836:2953   */\n      iszero\n      tag_155\n      jumpi\n        /* \"#utility.yul\":2872:2951   */\n      tag_156\n      tag_81\n      jump\t// in\n    tag_156:\n        /* \"#utility.yul\":2836:2953   */\n    tag_155:\n        /* \"#utility.yul\":2977:3040   */\n      tag_157\n        /* \"#utility.yul\":3032:3039   */\n      dup5\n        /* \"#utility.yul\":3023:3029   */\n      dup3\n        /* \"#utility.yul\":3012:3021   */\n      dup6\n        /* \"#utility.yul\":3008:3030   */\n      add\n        /* \"#utility.yul\":2977:3040   */\n      tag_91\n      jump\t// in\n    tag_157:\n        /* \"#utility.yul\":2967:3040   */\n      swap2\n      pop\n        /* \"#utility.yul\":2763:3050   */\n      pop\n        /* \"#utility.yul\":2548:3057   */\n      swap3\n      swap2\n      pop\n      pop\n      jump\t// out\n        /* \"#utility.yul\":3063:3140   */\n    tag_92:\n        /* \"#utility.yul\":3100:3107   */\n      0x00\n        /* \"#utility.yul\":3129:3134   */\n      dup2\n        /* \"#utility.yul\":3118:3134   */\n      swap1\n      pop\n        /* \"#utility.yul\":3063:3140   */\n      swap2\n      swap1\n      pop\n      jump\t// out\n        /* \"#utility.yul\":3146:3268   */\n    tag_93:\n        /* \"#utility.yul\":3219:3243   */\n      tag_160\n        /* \"#utility.yul\":3237:3242   */\n      dup2\n        /* \"#utility.yul\":3219:3243   */\n      tag_92\n      jump\t// in\n    tag_160:\n        /* \"#utility.yul\":3212:3217   */\n      dup2\n        /* \"#utility.yul\":3209:3244   */\n      eq\n        /* \"#utility.yul\":3199:3262   */\n      tag_161\n      jumpi\n        /* \"#utility.yul\":3258:3259   */\n      0x00\n        /* \"#utility.yul\":3255:3256   */\n      dup1\n        /* \"#utility.yul\":3248:3260   */\n      revert\n        /* \"#utility.yul\":3199:3262   */\n    tag_161:\n        /* \"#utility.yul\":3146:3268   */\n      pop\n      jump\t// out\n        /* \"#utility.yul\":3274:3413   */\n    tag_94:\n        /* \"#utility.yul\":3320:3325   */\n      0x00\n        /* \"#utility.yul\":3358:3364   */\n      dup2\n        /* \"#utility.yul\":3345:3365   */\n      calldataload\n        /* \"#utility.yul\":3336:3365   */\n      swap1\n      pop\n        /* \"#utility.yul\":3374:3407   */\n      tag_163\n        /* \"#utility.yul\":3401:3406   */\n      dup2\n        /* \"#utility.yul\":3374:3407   */\n      tag_93\n      jump\t// in\n    tag_163:\n        /* \"#utility.yul\":3274:3413   */\n      swap3\n      swap2\n      pop\n      pop\n      jump\t// out\n        /* \"#utility.yul\":3419:4073   */\n    tag_17:\n        /* \"#utility.yul\":3497:3503   */\n      0x00\n        /* \"#utility.yul\":3505:3511   */\n      dup1\n        /* \"#utility.yul\":3554:3556   */\n      0x40\n        /* \"#utility.yul\":3542:3551   */\n      dup4\n        /* \"#utility.yul\":3533:3540   */\n      dup6\n        /* \"#utility.yul\":3529:3552   */\n      sub\n        /* \"#utility.yul\":3525:3557   */\n      slt\n        /* \"#utility.yul\":3522:3641   */\n      iszero\n      tag_165\n      jumpi\n        /* \"#utility.yul\":3560:3639   */\n      tag_166\n      tag_80\n      jump\t// in\n    tag_166:\n        /* \"#utility.yul\":3522:3641   */\n    tag_165:\n        /* \"#utility.yul\":3708:3709   */\n      0x00\n        /* \"#utility.yul\":3697:3706   */\n      dup4\n        /* \"#utility.yul\":3693:3710   */\n      add\n        /* \"#utility.yul\":3680:3711   */\n      calldataload\n        /* \"#utility.yul\":3738:3756   */\n      0xffffffffffffffff\n        /* \"#utility.yul\":3730:3736   */\n      dup2\n        /* \"#utility.yul\":3727:3757   */\n      gt\n        /* \"#utility.yul\":3724:3841   */\n      iszero\n      tag_167\n      jumpi\n        /* \"#utility.yul\":3760:3839   */\n      tag_168\n      tag_81\n      jump\t// in\n    tag_168:\n        /* \"#utility.yul\":3724:3841   */\n    tag_167:\n        /* \"#utility.yul\":3865:3928   */\n      tag_169\n        /* \"#utility.yul\":3920:3927   */\n      dup6\n        /* \"#utility.yul\":3911:3917   */\n      dup3\n        /* \"#utility.yul\":3900:3909   */\n      dup7\n        /* \"#utility.yul\":3896:3918   */\n      add\n        /* \"#utility.yul\":3865:3928   */\n      tag_91\n      jump\t// in\n    tag_169:\n        /* \"#utility.yul\":3855:3928   */\n      swap3\n      pop\n        /* \"#utility.yul\":3651:3938   */\n      pop\n        /* \"#utility.yul\":3977:3979   */\n      0x20\n        /* \"#utility.yul\":4003:4056   */\n      tag_170\n        /* \"#utility.yul\":4048:4055   */\n      dup6\n        /* \"#utility.yul\":4039:4045   */\n      dup3\n        /* \"#utility.yul\":4028:4037   */\n      dup7\n        /* \"#utility.yul\":4024:4046   */\n      add\n        /* \"#utility.yul\":4003:4056   */\n      tag_94\n      jump\t// in\n    tag_170:\n        /* \"#utility.yul\":3993:4056   */\n      swap2\n      pop\n        /* \"#utility.yul\":3948:4066   */\n      pop\n        /* \"#utility.yul\":3419:4073   */\n      swap3\n      pop\n      swap3\n      swap1\n      pop\n      jump\t// out\n        /* \"#utility.yul\":4079:4197   */\n    tag_95:\n        /* \"#utility.yul\":4166:4190   */\n      tag_172\n        /* \"#utility.yul\":4184:4189   */\n      dup2\n        /* \"#utility.yul\":4166:4190   */\n      tag_92\n      jump\t// in\n    tag_172:\n        /* \"#utility.yul\":4161:4164   */\n      dup3\n        /* \"#utility.yul\":4154:4191   */\n      mstore\n        /* \"#utility.yul\":4079:4197   */\n      pop\n      pop\n      jump\t// out\n        /* \"#utility.yul\":4203:4302   */\n    tag_96:\n        /* \"#utility.yul\":4255:4261   */\n      0x00\n        /* \"#utility.yul\":4289:4294   */\n      dup2\n        /* \"#utility.yul\":4283:4295   */\n      mload\n        /* \"#utility.yul\":4273:4295   */\n      swap1\n      pop\n        /* \"#utility.yul\":4203:4302   */\n      swap2\n      swap1\n      pop\n      jump\t// out\n        /* \"#utility.yul\":4308:4477   */\n    tag_97:\n        /* \"#utility.yul\":4392:4403   */\n      0x00\n        /* \"#utility.yul\":4426:4432   */\n      dup3\n        /* \"#utility.yul\":4421:4424   */\n      dup3\n        /* \"#utility.yul\":4414:4433   */\n      mstore\n        /* \"#utility.yul\":4466:4470   */\n      0x20\n        /* \"#utility.yul\":4461:4464   */\n      dup3\n        /* \"#utility.yul\":4457:4471   */\n      add\n        /* \"#utility.yul\":4442:4471   */\n      swap1\n      pop\n        /* \"#utility.yul\":4308:4477   */\n      swap3\n      swap2\n      pop\n      pop\n      jump\t// out\n        /* \"#utility.yul\":4483:4790   */\n    tag_98:\n        /* \"#utility.yul\":4551:4552   */\n      0x00\n        /* \"#utility.yul\":4561:4674   */\n    tag_176:\n        /* \"#utility.yul\":4575:4581   */\n      dup4\n        /* \"#utility.yul\":4572:4573   */\n      dup2\n        /* \"#utility.yul\":4569:4582   */\n      lt\n        /* \"#utility.yul\":4561:4674   */\n      iszero\n      tag_178\n      jumpi\n        /* \"#utility.yul\":4660:4661   */\n      dup1\n        /* \"#utility.yul\":4655:4658   */\n      dup3\n        /* \"#utility.yul\":4651:4662   */\n      add\n        /* \"#utility.yul\":4645:4663   */\n      mload\n        /* \"#utility.yul\":4641:4642   */\n      dup2\n        /* \"#utility.yul\":4636:4639   */\n      dup5\n        /* \"#utility.yul\":4632:4643   */\n      add\n        /* \"#utility.yul\":4625:4664   */\n      mstore\n        /* \"#utility.yul\":4597:4599   */\n      0x20\n        /* \"#utility.yul\":4594:4595   */\n      dup2\n        /* \"#utility.yul\":4590:4600   */\n      add\n        /* \"#utility.yul\":4585:4600   */\n      swap1\n      pop\n        /* \"#utility.yul\":4561:4674   */\n      jump(tag_176)\n    tag_178:\n        /* \"#utility.yul\":4692:4698   */\n      dup4\n        /* \"#utility.yul\":4689:4690   */\n      dup2\n        /* \"#utility.yul\":4686:4699   */\n      gt\n        /* \"#utility.yul\":4683:4784   */\n      iszero\n      tag_179\n      jumpi\n        /* \"#utility.yul\":4772:4773   */\n      0x00\n        /* \"#utility.yul\":4763:4769   */\n      dup5\n        /* \"#utility.yul\":4758:4761   */\n      dup5\n        /* \"#utility.yul\":4754:4770   */\n      add\n        /* \"#utility.yul\":4747:4774   */\n      mstore\n        /* \"#utility.yul\":4683:4784   */\n    tag_179:\n        /* \"#utility.yul\":4532:4790   */\n      pop\n        /* \"#utility.yul\":4483:4790   */\n      pop\n      pop\n      pop\n      jump\t// out\n        /* \"#utility.yul\":4796:5160   */\n    tag_99:\n        /* \"#utility.yul\":4884:4887   */\n      0x00\n        /* \"#utility.yul\":4912:4951   */\n      tag_181\n        /* \"#utility.yul\":4945:4950   */\n      dup3\n        /* \"#utility.yul\":4912:4951   */\n      tag_96\n      jump\t// in\n    tag_181:\n        /* \"#utility.yul\":4967:5038   */\n      tag_182\n        /* \"#utility.yul\":5031:5037   */\n      dup2\n        /* \"#utility.yul\":5026:5029   */\n      dup6\n        /* \"#utility.yul\":4967:5038   */\n      tag_97\n      jump\t// in\n    tag_182:\n        /* \"#utility.yul\":4960:5038   */\n      swap4\n      pop\n        /* \"#utility.yul\":5047:5099   */\n      tag_183\n        /* \"#utility.yul\":5092:5098   */\n      dup2\n        /* \"#utility.yul\":5087:5090   */\n      dup6\n        /* \"#utility.yul\":5080:5084   */\n      0x20\n        /* \"#utility.yul\":5073:5078   */\n      dup7\n        /* \"#utility.yul\":5069:5085   */\n      add\n        /* \"#utility.yul\":5047:5099   */\n      tag_98\n      jump\t// in\n    tag_183:\n        /* \"#utility.yul\":5124:5153   */\n      tag_184\n        /* \"#utility.yul\":5146:5152   */\n      dup2\n        /* \"#utility.yul\":5124:5153   */\n      tag_84\n      jump\t// in\n    tag_184:\n        /* \"#utility.yul\":5119:5122   */\n      dup5\n        /* \"#utility.yul\":5115:5154   */\n      add\n        /* \"#utility.yul\":5108:5154   */\n      swap2\n      pop\n        /* \"#utility.yul\":4888:5160   */\n      pop\n        /* \"#utility.yul\":4796:5160   */\n      swap3\n      swap2\n      pop\n      pop\n      jump\t// out\n        /* \"#utility.yul\":5166:5699   */\n    tag_20:\n        /* \"#utility.yul\":5335:5339   */\n      0x00\n        /* \"#utility.yul\":5373:5375   */\n      0x60\n        /* \"#utility.yul\":5362:5371   */\n      dup3\n        /* \"#utility.yul\":5358:5376   */\n      add\n        /* \"#utility.yul\":5350:5376   */\n      swap1\n      pop\n        /* \"#utility.yul\":5386:5457   */\n      tag_186\n        /* \"#utility.yul\":5454:5455   */\n      0x00\n        /* \"#utility.yul\":5443:5452   */\n      dup4\n        /* \"#utility.yul\":5439:5456   */\n      add\n        /* \"#utility.yul\":5430:5436   */\n      dup7\n        /* \"#utility.yul\":5386:5457   */\n      tag_95\n      jump\t// in\n    tag_186:\n        /* \"#utility.yul\":5504:5513   */\n      dup2\n        /* \"#utility.yul\":5498:5502   */\n      dup2\n        /* \"#utility.yul\":5494:5514   */\n      sub\n        /* \"#utility.yul\":5489:5491   */\n      0x20\n        /* \"#utility.yul\":5478:5487   */\n      dup4\n        /* \"#utility.yul\":5474:5492   */\n      add\n        /* \"#utility.yul\":5467:5515   */\n      mstore\n        /* \"#utility.yul\":5532:5610   */\n      tag_187\n        /* \"#utility.yul\":5605:5609   */\n      dup2\n        /* \"#utility.yul\":5596:5602   */\n      dup6\n        /* \"#utility.yul\":5532:5610   */\n      tag_99\n      jump\t// in\n    tag_187:\n        /* \"#utility.yul\":5524:5610   */\n      swap1\n      pop\n        /* \"#utility.yul\":5620:5692   */\n      tag_188\n        /* \"#utility.yul\":5688:5690   */\n      0x40\n        /* \"#utility.yul\":5677:5686   */\n      dup4\n        /* \"#utility.yul\":5673:5691   */\n      add\n        /* \"#utility.yul\":5664:5670   */\n      dup5\n        /* \"#utility.yul\":5620:5692   */\n      tag_95\n      jump\t// in\n    tag_188:\n        /* \"#utility.yul\":5166:5699   */\n      swap5\n      swap4\n      pop\n      pop\n      pop\n      pop\n      jump\t// out\n        /* \"#utility.yul\":5705:6179   */\n    tag_23:\n        /* \"#utility.yul\":5773:5779   */\n      0x00\n        /* \"#utility.yul\":5781:5787   */\n      dup1\n        /* \"#utility.yul\":5830:5832   */\n      0x40\n        /* \"#utility.yul\":5818:5827   */\n      dup4\n        /* \"#utility.yul\":5809:5816   */\n      dup6\n        /* \"#utility.yul\":5805:5828   */\n      sub\n        /* \"#utility.yul\":5801:5833   */\n      slt\n        /* \"#utility.yul\":5798:5917   */\n      iszero\n      tag_190\n      jumpi\n        /* \"#utility.yul\":5836:5915   */\n      tag_191\n      tag_80\n      jump\t// in\n    tag_191:\n        /* \"#utility.yul\":5798:5917   */\n    tag_190:\n        /* \"#utility.yul\":5956:5957   */\n      0x00\n        /* \"#utility.yul\":5981:6034   */\n      tag_192\n        /* \"#utility.yul\":6026:6033   */\n      dup6\n        /* \"#utility.yul\":6017:6023   */\n      dup3\n        /* \"#utility.yul\":6006:6015   */\n      dup7\n        /* \"#utility.yul\":6002:6024   */\n      add\n        /* \"#utility.yul\":5981:6034   */\n      tag_94\n      jump\t// in\n    tag_192:\n        /* \"#utility.yul\":5971:6034   */\n      swap3\n      pop\n        /* \"#utility.yul\":5927:6044   */\n      pop\n        /* \"#utility.yul\":6083:6085   */\n      0x20\n        /* \"#utility.yul\":6109:6162   */\n      tag_193\n        /* \"#utility.yul\":6154:6161   */\n      dup6\n        /* \"#utility.yul\":6145:6151   */\n      dup3\n        /* \"#utility.yul\":6134:6143   */\n      dup7\n        /* \"#utility.yul\":6130:6152   */\n      add\n        /* \"#utility.yul\":6109:6162   */\n      tag_94\n      jump\t// in\n    tag_193:\n        /* \"#utility.yul\":6099:6162   */\n      swap2\n      pop\n        /* \"#utility.yul\":6054:6172   */\n      pop\n        /* \"#utility.yul\":5705:6179   */\n      swap3\n      pop\n      swap3\n      swap1\n      pop\n      jump\t// out\n        /* \"#utility.yul\":6185:6311   */\n    tag_100:\n        /* \"#utility.yul\":6222:6229   */\n      0x00\n        /* \"#utility.yul\":6262:6304   */\n      0xffffffffffffffffffffffffffffffffffffffff\n        /* \"#utility.yul\":6255:6260   */\n      dup3\n        /* \"#utility.yul\":6251:6305   */\n      and\n        /* \"#utility.yul\":6240:6305   */\n      swap1\n      pop\n        /* \"#utility.yul\":6185:6311   */\n      swap2\n      swap1\n      pop\n      jump\t// out\n        /* \"#utility.yul\":6317:6413   */\n    tag_101:\n        /* \"#utility.yul\":6354:6361   */\n      0x00\n        /* \"#utility.yul\":6383:6407   */\n      tag_196\n        /* \"#utility.yul\":6401:6406   */\n      dup3\n        /* \"#utility.yul\":6383:6407   */\n      tag_100\n      jump\t// in\n    tag_196:\n        /* \"#utility.yul\":6372:6407   */\n      swap1\n      pop\n        /* \"#utility.yul\":6317:6413   */\n      swap2\n      swap1\n      pop\n      jump\t// out\n        /* \"#utility.yul\":6419:6537   */\n    tag_102:\n        /* \"#utility.yul\":6506:6530   */\n      tag_198\n        /* \"#utility.yul\":6524:6529   */\n      dup2\n        /* \"#utility.yul\":6506:6530   */\n      tag_101\n      jump\t// in\n    tag_198:\n        /* \"#utility.yul\":6501:6504   */\n      dup3\n        /* \"#utility.yul\":6494:6531   */\n      mstore\n        /* \"#utility.yul\":6419:6537   */\n      pop\n      pop\n      jump\t// out\n        /* \"#utility.yul\":6543:6875   */\n    tag_26:\n        /* \"#utility.yul\":6664:6668   */\n      0x00\n        /* \"#utility.yul\":6702:6704   */\n      0x40\n        /* \"#utility.yul\":6691:6700   */\n      dup3\n        /* \"#utility.yul\":6687:6705   */\n      add\n        /* \"#utility.yul\":6679:6705   */\n      swap1\n      pop\n        /* \"#utility.yul\":6715:6786   */\n      tag_200\n        /* \"#utility.yul\":6783:6784   */\n      0x00\n        /* \"#utility.yul\":6772:6781   */\n      dup4\n        /* \"#utility.yul\":6768:6785   */\n      add\n        /* \"#utility.yul\":6759:6765   */\n      dup6\n        /* \"#utility.yul\":6715:6786   */\n      tag_95\n      jump\t// in\n    tag_200:\n        /* \"#utility.yul\":6796:6868   */\n      tag_201\n        /* \"#utility.yul\":6864:6866   */\n      0x20\n        /* \"#utility.yul\":6853:6862   */\n      dup4\n        /* \"#utility.yul\":6849:6867   */\n      add\n        /* \"#utility.yul\":6840:6846   */\n      dup5\n        /* \"#utility.yul\":6796:6868   */\n      tag_102\n      jump\t// in\n    tag_201:\n        /* \"#utility.yul\":6543:6875   */\n      swap4\n      swap3\n      pop\n      pop\n      pop\n      jump\t// out\n        /* \"#utility.yul\":6881:7210   */\n    tag_29:\n        /* \"#utility.yul\":6940:6946   */\n      0x00\n        /* \"#utility.yul\":6989:6991   */\n      0x20\n        /* \"#utility.yul\":6977:6986   */\n      dup3\n        /* \"#utility.yul\":6968:6975   */\n      dup5\n        /* \"#utility.yul\":6964:6987   */\n      sub\n        /* \"#utility.yul\":6960:6992   */\n      slt\n        /* \"#utility.yul\":6957:7076   */\n      iszero\n      tag_203\n      jumpi\n        /* \"#utility.yul\":6995:7074   */\n      tag_204\n      tag_80\n      jump\t// in\n    tag_204:\n        /* \"#utility.yul\":6957:7076   */\n    tag_203:\n        /* \"#utility.yul\":7115:7116   */\n      0x00\n        /* \"#utility.yul\":7140:7193   */\n      tag_205\n        /* \"#utility.yul\":7185:7192   */\n      dup5\n        /* \"#utility.yul\":7176:7182   */\n      dup3\n        /* \"#utility.yul\":7165:7174   */\n      dup6\n        /* \"#utility.yul\":7161:7183   */\n      add\n        /* \"#utility.yul\":7140:7193   */\n      tag_94\n      jump\t// in\n    tag_205:\n        /* \"#utility.yul\":7130:7193   */\n      swap2\n      pop\n        /* \"#utility.yul\":7086:7203   */\n      pop\n        /* \"#utility.yul\":6881:7210   */\n      swap3\n      swap2\n      pop\n      pop\n      jump\t// out\n        /* \"#utility.yul\":7216:7749   */\n    tag_32:\n        /* \"#utility.yul\":7385:7389   */\n      0x00\n        /* \"#utility.yul\":7423:7425   */\n      0x60\n        /* \"#utility.yul\":7412:7421   */\n      dup3\n        /* \"#utility.yul\":7408:7426   */\n      add\n        /* \"#utility.yul\":7400:7426   */\n      swap1\n      pop\n        /* \"#utility.yul\":7472:7481   */\n      dup2\n        /* \"#utility.yul\":7466:7470   */\n      dup2\n        /* \"#utility.yul\":7462:7482   */\n      sub\n        /* \"#utility.yul\":7458:7459   */\n      0x00\n        /* \"#utility.yul\":7447:7456   */\n      dup4\n        /* \"#utility.yul\":7443:7460   */\n      add\n        /* \"#utility.yul\":7436:7483   */\n      mstore\n        /* \"#utility.yul\":7500:7578   */\n      tag_207\n        /* \"#utility.yul\":7573:7577   */\n      dup2\n        /* \"#utility.yul\":7564:7570   */\n      dup7\n        /* \"#utility.yul\":7500:7578   */\n      tag_99\n      jump\t// in\n    tag_207:\n        /* \"#utility.yul\":7492:7578   */\n      swap1\n      pop\n        /* \"#utility.yul\":7588:7660   */\n      tag_208\n        /* \"#utility.yul\":7656:7658   */\n      0x20\n        /* \"#utility.yul\":7645:7654   */\n      dup4\n        /* \"#utility.yul\":7641:7659   */\n      add\n        /* \"#utility.yul\":7632:7638   */\n      dup6\n        /* \"#utility.yul\":7588:7660   */\n      tag_95\n      jump\t// in\n    tag_208:\n        /* \"#utility.yul\":7670:7742   */\n      tag_209\n        /* \"#utility.yul\":7738:7740   */\n      0x40\n        /* \"#utility.yul\":7727:7736   */\n      dup4\n        /* \"#utility.yul\":7723:7741   */\n      add\n        /* \"#utility.yul\":7714:7720   */\n      dup5\n        /* \"#utility.yul\":7670:7742   */\n      tag_102\n      jump\t// in\n    tag_209:\n        /* \"#utility.yul\":7216:7749   */\n      swap5\n      swap4\n      pop\n      pop\n      pop\n      pop\n      jump\t// out\n        /* \"#utility.yul\":7755:7877   */\n    tag_103:\n        /* \"#utility.yul\":7828:7852   */\n      tag_211\n        /* \"#utility.yul\":7846:7851   */\n      dup2\n        /* \"#utility.yul\":7828:7852   */\n      tag_101\n      jump\t// in\n    tag_211:\n        /* \"#utility.yul\":7821:7826   */\n      dup2\n        /* \"#utility.yul\":7818:7853   */\n      eq\n        /* \"#utility.yul\":7808:7871   */\n      tag_212\n      jumpi\n        /* \"#utility.yul\":7867:7868   */\n      0x00\n        /* \"#utility.yul\":7864:7865   */\n      dup1\n        /* \"#utility.yul\":7857:7869   */\n      revert\n        /* \"#utility.yul\":7808:7871   */\n    tag_212:\n        /* \"#utility.yul\":7755:7877   */\n      pop\n      jump\t// out\n        /* \"#utility.yul\":7883:8022   */\n    tag_104:\n        /* \"#utility.yul\":7929:7934   */\n      0x00\n        /* \"#utility.yul\":7967:7973   */\n      dup2\n        /* \"#utility.yul\":7954:7974   */\n      calldataload\n        /* \"#utility.yul\":7945:7974   */\n      swap1\n      pop\n        /* \"#utility.yul\":7983:8016   */\n      tag_214\n        /* \"#utility.yul\":8010:8015   */\n      dup2\n        /* \"#utility.yul\":7983:8016   */\n      tag_103\n      jump\t// in\n    tag_214:\n        /* \"#utility.yul\":7883:8022   */\n      swap3\n      swap2\n      pop\n      pop\n      jump\t// out\n        /* \"#utility.yul\":8028:8357   */\n    tag_38:\n        /* \"#utility.yul\":8087:8093   */\n      0x00\n        /* \"#utility.yul\":8136:8138   */\n      0x20\n        /* \"#utility.yul\":8124:8133   */\n      dup3\n        /* \"#utility.yul\":8115:8122   */\n      dup5\n        /* \"#utility.yul\":8111:8134   */\n      sub\n        /* \"#utility.yul\":8107:8139   */\n      slt\n        /* \"#utility.yul\":8104:8223   */\n      iszero\n      tag_216\n      jumpi\n        /* \"#utility.yul\":8142:8221   */\n      tag_217\n      tag_80\n      jump\t// in\n    tag_217:\n        /* \"#utility.yul\":8104:8223   */\n    tag_216:\n        /* \"#utility.yul\":8262:8263   */\n      0x00\n        /* \"#utility.yul\":8287:8340   */\n      tag_218\n        /* \"#utility.yul\":8332:8339   */\n      dup5\n        /* \"#utility.yul\":8323:8329   */\n      dup3\n        /* \"#utility.yul\":8312:8321   */\n      dup6\n        /* \"#utility.yul\":8308:8330   */\n      add\n        /* \"#utility.yul\":8287:8340   */\n      tag_104\n      jump\t// in\n    tag_218:\n        /* \"#utility.yul\":8277:8340   */\n      swap2\n      pop\n        /* \"#utility.yul\":8233:8350   */\n      pop\n        /* \"#utility.yul\":8028:8357   */\n      swap3\n      swap2\n      pop\n      pop\n      jump\t// out\n        /* \"#utility.yul\":8363:8676   */\n    tag_41:\n        /* \"#utility.yul\":8476:8480   */\n      0x00\n        /* \"#utility.yul\":8514:8516   */\n      0x20\n        /* \"#utility.yul\":8503:8512   */\n      dup3\n        /* \"#utility.yul\":8499:8517   */\n      add\n        /* \"#utility.yul\":8491:8517   */\n      swap1\n      pop\n        /* \"#utility.yul\":8563:8572   */\n      dup2\n        /* \"#utility.yul\":8557:8561   */\n      dup2\n        /* \"#utility.yul\":8553:8573   */\n      sub\n        /* \"#utility.yul\":8549:8550   */\n      0x00\n        /* \"#utility.yul\":8538:8547   */\n      dup4\n        /* \"#utility.yul\":8534:8551   */\n      add\n        /* \"#utility.yul\":8527:8574   */\n      mstore\n        /* \"#utility.yul\":8591:8669   */\n      tag_220\n        /* \"#utility.yul\":8664:8668   */\n      dup2\n        /* \"#utility.yul\":8655:8661   */\n      dup5\n        /* \"#utility.yul\":8591:8669   */\n      tag_99\n      jump\t// in\n    tag_220:\n        /* \"#utility.yul\":8583:8669   */\n      swap1\n      pop\n        /* \"#utility.yul\":8363:8676   */\n      swap3\n      swap2\n      pop\n      pop\n      jump\t// out\n        /* \"#utility.yul\":8682:8862   */\n    tag_105:\n        /* \"#utility.yul\":8730:8807   */\n      0x4e487b7100000000000000000000000000000000000000000000000000000000\n        /* \"#utility.yul\":8727:8728   */\n      0x00\n        /* \"#utility.yul\":8720:8808   */\n      mstore\n        /* \"#utility.yul\":8827:8831   */\n      0x22\n        /* \"#utility.yul\":8824:8825   */\n      0x04\n        /* \"#utility.yul\":8817:8832   */\n      mstore\n        /* \"#utility.yul\":8851:8855   */\n      0x24\n        /* \"#utility.yul\":8848:8849   */\n      0x00\n        /* \"#utility.yul\":8841:8856   */\n      revert\n        /* \"#utility.yul\":8868:9188   */\n    tag_53:\n        /* \"#utility.yul\":8912:8918   */\n      0x00\n        /* \"#utility.yul\":8949:8950   */\n      0x02\n        /* \"#utility.yul\":8943:8947   */\n      dup3\n        /* \"#utility.yul\":8939:8951   */\n      div\n        /* \"#utility.yul\":8929:8951   */\n      swap1\n      pop\n        /* \"#utility.yul\":8996:8997   */\n      0x01\n        /* \"#utility.yul\":8990:8994   */\n      dup3\n        /* \"#utility.yul\":8986:8998   */\n      and\n        /* \"#utility.yul\":9017:9035   */\n      dup1\n        /* \"#utility.yul\":9007:9088   */\n      tag_223\n      jumpi\n        /* \"#utility.yul\":9073:9077   */\n      0x7f\n        /* \"#utility.yul\":9065:9071   */\n      dup3\n        /* \"#utility.yul\":9061:9078   */\n      and\n        /* \"#utility.yul\":9051:9078   */\n      swap2\n      pop\n        /* \"#utility.yul\":9007:9088   */\n    tag_223:\n        /* \"#utility.yul\":9135:9137   */\n      0x20\n        /* \"#utility.yul\":9127:9133   */\n      dup3\n        /* \"#utility.yul\":9124:9138   */\n      lt\n        /* \"#utility.yul\":9104:9122   */\n      dup2\n        /* \"#utility.yul\":9101:9139   */\n      sub\n        /* \"#utility.yul\":9098:9182   */\n      tag_224\n      jumpi\n        /* \"#utility.yul\":9154:9172   */\n      tag_225\n      tag_105\n      jump\t// in\n    tag_225:\n        /* \"#utility.yul\":9098:9182   */\n    tag_224:\n        /* \"#utility.yul\":8919:9188   */\n      pop\n        /* \"#utility.yul\":8868:9188   */\n      swap2\n      swap1\n      pop\n      jump\t// out\n        /* \"#utility.yul\":9194:9335   */\n    tag_106:\n        /* \"#utility.yul\":9243:9247   */\n      0x00\n        /* \"#utility.yul\":9266:9269   */\n      dup2\n        /* \"#utility.yul\":9258:9269   */\n      swap1\n      pop\n        /* \"#utility.yul\":9289:9292   */\n      dup2\n        /* \"#utility.yul\":9286:9287   */\n      0x00\n        /* \"#utility.yul\":9279:9293   */\n      mstore\n        /* \"#utility.yul\":9323:9327   */\n      0x20\n        /* \"#utility.yul\":9320:9321   */\n      0x00\n        /* \"#utility.yul\":9310:9328   */\n      keccak256\n        /* \"#utility.yul\":9302:9328   */\n      swap1\n      pop\n        /* \"#utility.yul\":9194:9335   */\n      swap2\n      swap1\n      pop\n      jump\t// out\n        /* \"#utility.yul\":9341:9434   */\n    tag_107:\n        /* \"#utility.yul\":9378:9384   */\n      0x00\n        /* \"#utility.yul\":9425:9427   */\n      0x20\n        /* \"#utility.yul\":9420:9422   */\n      0x1f\n        /* \"#utility.yul\":9413:9418   */\n      dup4\n        /* \"#utility.yul\":9409:9423   */\n      add\n        /* \"#utility.yul\":9405:9428   */\n      div\n        /* \"#utility.yul\":9395:9428   */\n      swap1\n      pop\n        /* \"#utility.yul\":9341:9434   */\n      swap2\n      swap1\n      pop\n      jump\t// out\n        /* \"#utility.yul\":9440:9547   */\n    tag_108:\n        /* \"#utility.yul\":9484:9492   */\n      0x00\n        /* \"#utility.yul\":9534:9539   */\n      dup3\n        /* \"#utility.yul\":9528:9532   */\n      dup3\n        /* \"#utility.yul\":9524:9540   */\n      shl\n        /* \"#utility.yul\":9503:9540   */\n      swap1\n      pop\n        /* \"#utility.yul\":9440:9547   */\n      swap3\n      swap2\n      pop\n      pop\n      jump\t// out\n        /* \"#utility.yul\":9553:9946   */\n    tag_109:\n        /* \"#utility.yul\":9622:9628   */\n      0x00\n        /* \"#utility.yul\":9672:9673   */\n      0x08\n        /* \"#utility.yul\":9660:9670   */\n      dup4\n        /* \"#utility.yul\":9656:9674   */\n      mul\n        /* \"#utility.yul\":9695:9792   */\n      tag_230\n        /* \"#utility.yul\":9725:9791   */\n      0xffffffffffffffffffffffffffffffffffffffffffffffffffffffffffffffff\n        /* \"#utility.yul\":9714:9723   */\n      dup3\n        /* \"#utility.yul\":9695:9792   */\n      tag_108\n      jump\t// in\n    tag_230:\n        /* \"#utility.yul\":9813:9852   */\n      tag_231\n        /* \"#utility.yul\":9843:9851   */\n      dup7\n        /* \"#utility.yul\":9832:9841   */\n      dup4\n        /* \"#utility.yul\":9813:9852   */\n      tag_108\n      jump\t// in\n    tag_231:\n        /* \"#utility.yul\":9801:9852   */\n      swap6\n      pop\n        /* \"#utility.yul\":9885:9889   */\n      dup1\n        /* \"#utility.yul\":9881:9890   */\n      not\n        /* \"#utility.yul\":9874:9879   */\n      dup5\n        /* \"#utility.yul\":9870:9891   */\n      and\n        /* \"#utility.yul\":9861:9891   */\n      swap4\n      pop\n        /* \"#utility.yul\":9934:9938   */\n      dup1\n        /* \"#utility.yul\":9924:9932   */\n      dup7\n        /* \"#utility.yul\":9920:9939   */\n      and\n        /* \"#utility.yul\":9913:9918   */\n      dup5\n        /* \"#utility.yul\":9910:9940   */\n      or\n        /* \"#utility.yul\":9900:9940   */\n      swap3\n      pop\n        /* \"#utility.yul\":9629:9946   */\n      pop\n      pop\n        /* \"#utility.yul\":9553:9946   */\n      swap4\n      swap3\n      pop\n      pop\n      pop\n      jump\t// out\n        /* \"#utility.yul\":9952:10012   */\n    tag_110:\n        /* \"#utility.yul\":9980:9983   */\n      0x00\n        /* \"#utility.yul\":10001:10006   */\n      dup2\n        /* \"#utility.yul\":9994:10006   */\n      swap1\n      pop\n        /* \"#utility.yul\":9952:10012   */\n      swap2\n      swap1\n      pop\n      jump\t// out\n        /* \"#utility.yul\":10018:10160   */\n    tag_111:\n        /* \"#utility.yul\":10068:10077   */\n      0x00\n        /* \"#utility.yul\":10101:10154   */\n      tag_234\n        /* \"#utility.yul\":10119:10153   */\n      tag_235\n        /* \"#utility.yul\":10128:10152   */\n      tag_236\n        /* \"#utility.yul\":10146:10151   */\n      dup5\n        /* \"#utility.yul\":10128:10152   */\n      tag_92\n      jump\t// in\n    tag_236:\n        /* \"#utility.yul\":10119:10153   */\n      tag_110\n      jump\t// in\n    tag_235:\n        /* \"#utility.yul\":10101:10154   */\n      tag_92\n      jump\t// in\n    tag_234:\n        /* \"#utility.yul\":10088:10154   */\n      swap1\n      pop\n        /* \"#utility.yul\":10018:10160   */\n      swap2\n      swap1\n      pop\n      jump\t// out\n        /* \"#utility.yul\":10166:10241   */\n    tag_112:\n        /* \"#utility.yul\":10209:10212   */\n      0x00\n        /* \"#utility.yul\":10230:10235   */\n      dup2\n        /* \"#utility.yul\":10223:10235   */\n      swap1\n      pop\n        /* \"#utility.yul\":10166:10241   */\n      swap2\n      swap1\n      pop\n      jump\t// out\n        /* \"#utility.yul\":10247:10516   */\n    tag_113:\n        /* \"#utility.yul\":10357:10396   */\n      tag_239\n        /* \"#utility.yul\":10388:10395   */\n      dup4\n        /* \"#utility.yul\":10357:10396   */\n      tag_111\n      jump\t// in\n    tag_239:\n        /* \"#utility.yul\":10418:10509   */\n      tag_240\n        /* \"#utility.yul\":10467:10508   */\n      tag_241\n        /* \"#utility.yul\":10491:10507   */\n      dup3\n        /* \"#utility.yul\":10467:10508   */\n      tag_112\n      jump\t// in\n    tag_241:\n        /* \"#utility.yul\":10459:10465   */\n      dup5\n        /* \"#utility.yul\":10452:10456   */\n      dup5\n        /* \"#utility.yul\":10446:10457   */\n      sload\n        /* \"#utility.yul\":10418:10509   */\n      tag_109\n      jump\t// in\n    tag_240:\n        /* \"#utility.yul\":10412:10416   */\n      dup3\n        /* \"#utility.yul\":10405:10510   */\n      sstore\n        /* \"#utility.yul\":10323:10516   */\n      pop\n        /* \"#utility.yul\":10247:10516   */\n      pop\n      pop\n      pop\n      jump\t// out\n        /* \"#utility.yul\":10522:10595   */\n    tag_114:\n        /* \"#utility.yul\":10567:10570   */\n      0x00\n        /* \"#utility.yul\":10522:10595   */\n      swap1\n      jump\t// out\n        /* \"#utility.yul\":10601:10790   */\n    tag_115:\n        /* \"#utility.yul\":10678:10710   */\n      tag_244\n      tag_114\n      jump\t// in\n    tag_244:\n        /* \"#utility.yul\":10719:10784   */\n      tag_245\n        /* \"#utility.yul\":10777:10783   */\n      dup2\n        /* \"#utility.yul\":10769:10775   */\n      dup5\n        /* \"#utility.yul\":10763:10767   */\n      dup5\n        /* \"#utility.yul\":10719:10784   */\n      tag_113\n      jump\t// in\n    tag_245:\n        /* \"#utility.yul\":10654:10790   */\n      pop\n        /* \"#utility.yul\":10601:10790   */\n      pop\n      pop\n      jump\t// out\n        /* \"#utility.yul\":10796:10982   */\n    tag_116:\n        /* \"#utility.yul\":10856:10976   */\n    tag_247:\n        /* \"#utility.yul\":10873:10876   */\n      dup2\n        /* \"#utility.yul\":10866:10871   */\n      dup2\n        /* \"#utility.yul\":10863:10877   */\n      lt\n        /* \"#utility.yul\":10856:10976   */\n      iszero\n      tag_249\n      jumpi\n        /* \"#utility.yul\":10927:10966   */\n      tag_250\n        /* \"#utility.yul\":10964:10965   */\n      0x00\n        /* \"#utility.yul\":10957:10962   */\n      dup3\n        /* \"#utility.yul\":10927:10966   */\n      tag_115\n      jump\t// in\n    tag_250:\n        /* \"#utility.yul\":10900:10901   */\n      0x01\n        /* \"#utility.yul\":10893:10898   */\n      dup2\n        /* \"#utility.yul\":10889:10902   */\n      add\n        /* \"#utility.yul\":10880:10902   */\n      swap1\n      pop\n        /* \"#utility.yul\":10856:10976   */\n      jump(tag_247)\n    tag_249:\n        /* \"#utility.yul\":10796:10982   */\n      pop\n      pop\n      jump\t// out\n        /* \"#utility.yul\":10988:11531   */\n    tag_117:\n        /* \"#utility.yul\":11089:11091   */\n      0x1f\n        /* \"#utility.yul\":11084:11087   */\n      dup3\n        /* \"#utility.yul\":11081:11092   */\n      gt\n        /* \"#utility.yul\":11078:11524   */\n      iszero\n      tag_252\n      jumpi\n        /* \"#utility.yul\":11123:11161   */\n      tag_253\n        /* \"#utility.yul\":11155:11160   */\n      dup2\n        /* \"#utility.yul\":11123:11161   */\n      tag_106\n      jump\t// in\n    tag_253:\n        /* \"#utility.yul\":11207:11236   */\n      tag_254\n        /* \"#utility.yul\":11225:11235   */\n      dup5\n        /* \"#utility.yul\":11207:11236   */\n      tag_107\n      jump\t// in\n    tag_254:\n        /* \"#utility.yul\":11197:11205   */\n      dup2\n        /* \"#utility.yul\":11193:11237   */\n      add\n        /* \"#utility.yul\":11390:11392   */\n      0x20\n        /* \"#utility.yul\":11378:11388   */\n      dup6\n        /* \"#utility.yul\":11375:11393   */\n      lt\n        /* \"#utility.yul\":11372:11421   */\n      iszero\n      tag_255\n      jumpi\n        /* \"#utility.yul\":11411:11419   */\n      dup2\n        /* \"#utility.yul\":11396:11419   */\n      swap1\n      pop\n        /* \"#utility.yul\":11372:11421   */\n    tag_255:\n        /* \"#utility.yul\":11434:11514   */\n      tag_256\n        /* \"#utility.yul\":11490:11512   */\n      tag_257\n        /* \"#utility.yul\":11508:11511   */\n      dup6\n        /* \"#utility.yul\":11490:11512   */\n      tag_107\n      jump\t// in\n    tag_257:\n        /* \"#utility.yul\":11480:11488   */\n      dup4\n        /* \"#utility.yul\":11476:11513   */\n      add\n        /* \"#utility.yul\":11463:11474   */\n      dup3\n        /* \"#utility.yul\":11434:11514   */\n      tag_116\n      jump\t// in\n    tag_256:\n        /* \"#utility.yul\":11093:11524   */\n      pop\n      pop\n        /* \"#utility.yul\":11078:11524   */\n    tag_252:\n        /* \"#utility.yul\":10988:11531   */\n      pop\n      pop\n      pop\n      jump\t// out\n        /* \"#utility.yul\":11537:11654   */\n    tag_118:\n        /* \"#utility.yul\":11591:11599   */\n      0x00\n        /* \"#utility.yul\":11641:11646   */\n      dup3\n        /* \"#utility.yul\":11635:11639   */\n      dup3\n        /* \"#utility.yul\":11631:11647   */\n      shr\n        /* \"#utility.yul\":11610:11647   */\n      swap1\n      pop\n        /* \"#utility.yul\":11537:11654   */\n      swap3\n      swap2\n      pop\n      pop\n      jump\t// out\n        /* \"#utility.yul\":11660:11829   */\n    tag_119:\n        /* \"#utility.yul\":11704:11710   */\n      0x00\n        /* \"#utility.yul\":11737:11788   */\n      tag_260\n        /* \"#utility.yul\":11785:11786   */\n      0x00\n        /* \"#utility.yul\":11781:11787   */\n      not\n        /* \"#utility.yul\":11773:11778   */\n      dup5\n        /* \"#utility.yul\":11770:11771   */\n      0x08\n        /* \"#utility.yul\":11766:11779   */\n      mul\n        /* \"#utility.yul\":11737:11788   */\n      tag_118\n      jump\t// in\n    tag_260:\n        /* \"#utility.yul\":11733:11789   */\n      not\n        /* \"#utility.yul\":11818:11822   */\n      dup1\n        /* \"#utility.yul\":11812:11816   */\n      dup4\n        /* \"#utility.yul\":11808:11823   */\n      and\n        /* \"#utility.yul\":11798:11823   */\n      swap2\n      pop\n        /* \"#utility.yul\":11711:11829   */\n      pop\n        /* \"#utility.yul\":11660:11829   */\n      swap3\n      swap2\n      pop\n      pop\n      jump\t// out\n        /* \"#utility.yul\":11834:12129   */\n    tag_120:\n        /* \"#utility.yul\":11910:11914   */\n      0x00\n        /* \"#utility.yul\":12056:12085   */\n      tag_262\n        /* \"#utility.yul\":12081:12084   */\n      dup4\n        /* \"#utility.yul\":12075:12079   */\n      dup4\n        /* \"#utility.yul\":12056:12085   */\n      tag_119\n      jump\t// in\n    tag_262:\n        /* \"#utility.yul\":12048:12085   */\n      swap2\n      pop\n        /* \"#utility.yul\":12118:12121   */\n      dup3\n        /* \"#utility.yul\":12115:12116   */\n      0x02\n        /* \"#utility.yul\":12111:12122   */\n      mul\n        /* \"#utility.yul\":12105:12109   */\n      dup3\n        /* \"#utility.yul\":12102:12123   */\n      or\n        /* \"#utility.yul\":12094:12123   */\n      swap1\n      pop\n        /* \"#utility.yul\":11834:12129   */\n      swap3\n      swap2\n      pop\n      pop\n      jump\t// out\n        /* \"#utility.yul\":12134:13529   */\n    tag_47:\n        /* \"#utility.yul\":12251:12288   */\n      tag_264\n        /* \"#utility.yul\":12284:12287   */\n      dup3\n        /* \"#utility.yul\":12251:12288   */\n      tag_96\n      jump\t// in\n    tag_264:\n        /* \"#utility.yul\":12353:12371   */\n      0xffffffffffffffff\n        /* \"#utility.yul\":12345:12351   */\n      dup2\n        /* \"#utility.yul\":12342:12372   */\n      gt\n        /* \"#utility.yul\":12339:12395   */\n      iszero\n      tag_265\n      jumpi\n        /* \"#utility.yul\":12375:12393   */\n      tag_266\n      tag_85\n      jump\t// in\n    tag_266:\n        /* \"#utility.yul\":12339:12395   */\n    tag_265:\n        /* \"#utility.yul\":12419:12457   */\n      tag_267\n        /* \"#utility.yul\":12451:12455   */\n      dup3\n        /* \"#utility.yul\":12445:12456   */\n      sload\n        /* \"#utility.yul\":12419:12457   */\n      tag_53\n      jump\t// in\n    tag_267:\n        /* \"#utility.yul\":12504:12571   */\n      tag_268\n        /* \"#utility.yul\":12564:12570   */\n      dup3\n        /* \"#utility.yul\":12556:12562   */\n      dup3\n        /* \"#utility.yul\":12550:12554   */\n      dup6\n        /* \"#utility.yul\":12504:12571   */\n      tag_117\n      jump\t// in\n    tag_268:\n        /* \"#utility.yul\":12598:12599   */\n      0x00\n        /* \"#utility.yul\":12622:12626   */\n      0x20\n        /* \"#utility.yul\":12609:12626   */\n      swap1\n      pop\n        /* \"#utility.yul\":12654:12656   */\n      0x1f\n        /* \"#utility.yul\":12646:12652   */\n      dup4\n        /* \"#utility.yul\":12643:12657   */\n      gt\n        /* \"#utility.yul\":12671:12672   */\n      0x01\n        /* \"#utility.yul\":12666:13284   */\n      dup2\n      eq\n      tag_270\n      jumpi\n        /* \"#utility.yul\":13328:13329   */\n      0x00\n        /* \"#utility.yul\":13345:13351   */\n      dup5\n        /* \"#utility.yul\":13342:13419   */\n      iszero\n      tag_271\n      jumpi\n        /* \"#utility.yul\":13394:13403   */\n      dup3\n        /* \"#utility.yul\":13389:13392   */\n      dup8\n        /* \"#utility.yul\":13385:13404   */\n      add\n        /* \"#utility.yul\":13379:13405   */\n      mload\n        /* \"#utility.yul\":13370:13405   */\n      swap1\n      pop\n        /* \"#utility.yul\":13342:13419   */\n    tag_271:\n        /* \"#utility.yul\":13445:13512   */\n      tag_272\n        /* \"#utility.yul\":13505:13511   */\n      dup6\n        /* \"#utility.yul\":13498:13503   */\n      dup3\n        /* \"#utility.yul\":13445:13512   */\n      tag_120\n      jump\t// in\n    tag_272:\n        /* \"#utility.yul\":13439:13443   */\n      dup7\n        /* \"#utility.yul\":13432:13513   */\n      sstore\n        /* \"#utility.yul\":13301:13523   */\n      pop\n        /* \"#utility.yul\":12636:13523   */\n      jump(tag_269)\n        /* \"#utility.yul\":12666:13284   */\n    tag_270:\n        /* \"#utility.yul\":12718:12722   */\n      0x1f\n        /* \"#utility.yul\":12714:12723   */\n      not\n        /* \"#utility.yul\":12706:12712   */\n      dup5\n        /* \"#utility.yul\":12702:12724   */\n      and\n        /* \"#utility.yul\":12752:12789   */\n      tag_273\n        /* \"#utility.yul\":12784:12788   */\n      dup7\n        /* \"#utility.yul\":12752:12789   */\n      tag_106\n      jump\t// in\n    tag_273:\n        /* \"#utility.yul\":12811:12812   */\n      0x00\n        /* \"#utility.yul\":12825:13033   */\n    tag_274:\n        /* \"#utility.yul\":12839:12846   */\n      dup3\n        /* \"#utility.yul\":12836:12837   */\n      dup2\n        /* \"#utility.yul\":12833:12847   */\n      lt\n        /* \"#utility.yul\":12825:13033   */\n      iszero\n      tag_276\n      jumpi\n        /* \"#utility.yul\":12918:12927   */\n      dup5\n        /* \"#utility.yul\":12913:12916   */\n      dup10\n        /* \"#utility.yul\":12909:12928   */\n      add\n        /* \"#utility.yul\":12903:12929   */\n      mload\n        /* \"#utility.yul\":12895:12901   */\n      dup3\n        /* \"#utility.yul\":12888:12930   */\n      sstore\n        /* \"#utility.yul\":12969:12970   */\n      0x01\n        /* \"#utility.yul\":12961:12967   */\n      dup3\n        /* \"#utility.yul\":12957:12971   */\n      add\n        /* \"#utility.yul\":12947:12971   */\n      swap2\n      pop\n        /* \"#utility.yul\":13016:13018   */\n      0x20\n        /* \"#utility.yul\":13005:13014   */\n      dup6\n        /* \"#utility.yul\":13001:13019   */\n      add\n        /* \"#utility.yul\":12988:13019   */\n      swap5\n      pop\n        /* \"#utility.yul\":12862:12866   */\n      0x20\n        /* \"#utility.yul\":12859:12860   */\n      dup2\n        /* \"#utility.yul\":12855:12867   */\n      add\n        /* \"#utility.yul\":12850:12867   */\n      swap1\n      pop\n        /* \"#utility.yul\":12825:13033   */\n      jump(tag_274)\n    tag_276:\n        /* \"#utility.yul\":13061:13067   */\n      dup7\n        /* \"#utility.yul\":13052:13059   */\n      dup4\n        /* \"#utility.yul\":13049:13068   */\n      lt\n        /* \"#utility.yul\":13046:13225   */\n      iszero\n      tag_277\n      jumpi\n        /* \"#utility.yul\":13119:13128   */\n      dup5\n        /* \"#utility.yul\":13114:13117   */\n      dup10\n        /* \"#utility.yul\":13110:13129   */\n      add\n        /* \"#utility.yul\":13104:13130   */\n      mload\n        /* \"#utility.yul\":13162:13210   */\n      tag_278\n        /* \"#utility.yul\":13204:13208   */\n      0x1f\n        /* \"#utility.yul\":13196:13202   */\n      dup10\n        /* \"#utility.yul\":13192:13209   */\n      and\n        /* \"#utility.yul\":13181:13190   */\n      dup3\n        /* \"#utility.yul\":13162:13210   */\n      tag_119\n      jump\t// in\n    tag_278:\n        /* \"#utility.yul\":13154:13160   */\n      dup4\n        /* \"#utility.yul\":13147:13211   */\n      sstore\n        /* \"#utility.yul\":13069:13225   */\n      pop\n        /* \"#utility.yul\":13046:13225   */\n    tag_277:\n        /* \"#utility.yul\":13271:13272   */\n      0x01\n        /* \"#utility.yul\":13267:13268   */\n      0x02\n        /* \"#utility.yul\":13259:13265   */\n      dup9\n        /* \"#utility.yul\":13255:13269   */\n      mul\n        /* \"#utility.yul\":13251:13273   */\n      add\n        /* \"#utility.yul\":13245:13249   */\n      dup9\n        /* \"#utility.yul\":13238:13274   */\n      sstore\n        /* \"#utility.yul\":12673:13284   */\n      pop\n      pop\n      pop\n        /* \"#utility.yul\":12636:13523   */\n    tag_269:\n      pop\n        /* \"#utility.yul\":12226:13529   */\n      pop\n      pop\n      pop\n        /* \"#utility.yul\":12134:13529   */\n      pop\n      pop\n      jump\t// out\n        /* \"#utility.yul\":13535:13715   */\n    tag_71:\n        /* \"#utility.yul\":13583:13660   */\n      0x4e487b7100000000000000000000000000000000000000000000000000000000\n        /* \"#utility.yul\":13580:13581   */\n      0x00\n        /* \"#utility.yul\":13573:13661   */\n      mstore\n        /* \"#utility.yul\":13680:13684   */\n      0x32\n        /* \"#utility.yul\":13677:13678   */\n      0x04\n        /* \"#utility.yul\":13670:13685   */\n      mstore\n        /* \"#utility.yul\":13704:13708   */\n      0x24\n        /* \"#utility.yul\":13701:13702   */\n      0x00\n        /* \"#utility.yul\":13694:13709   */\n      revert\n        /* \"#utility.yul\":13721:13901   */\n    tag_121:\n        /* \"#utility.yul\":13769:13846   */\n      0x4e487b7100000000000000000000000000000000000000000000000000000000\n        /* \"#utility.yul\":13766:13767   */\n      0x00\n        /* \"#utility.yul\":13759:13847   */\n      mstore\n        /* \"#utility.yul\":13866:13870   */\n      0x11\n        /* \"#utility.yul\":13863:13864   */\n      0x04\n        /* \"#utility.yul\":13856:13871   */\n      mstore\n        /* \"#utility.yul\":13890:13894   */\n      0x24\n        /* \"#utility.yul\":13887:13888   */\n      0x00\n        /* \"#utility.yul\":13880:13895   */\n      revert\n        /* \"#utility.yul\":13907:14140   */\n    tag_78:\n        /* \"#utility.yul\":13946:13949   */\n      0x00\n        /* \"#utility.yul\":13969:13993   */\n      tag_282\n        /* \"#utility.yul\":13987:13992   */\n      dup3\n        /* \"#utility.yul\":13969:13993   */\n      tag_92\n      jump\t// in\n    tag_282:\n        /* \"#utility.yul\":13960:13993   */\n      swap2\n      pop\n        /* \"#utility.yul\":14015:14081   */\n      0xffffffffffffffffffffffffffffffffffffffffffffffffffffffffffffffff\n        /* \"#utility.yul\":14008:14013   */\n      dup3\n        /* \"#utility.yul\":14005:14082   */\n      sub\n        /* \"#utility.yul\":14002:14105   */\n      tag_283\n      jumpi\n        /* \"#utility.yul\":14085:14103   */\n      tag_284\n      tag_121\n      jump\t// in\n    tag_284:\n        /* \"#utility.yul\":14002:14105   */\n    tag_283:\n        /* \"#utility.yul\":14132:14133   */\n      0x01\n        /* \"#utility.yul\":14125:14130   */\n      dup3\n        /* \"#utility.yul\":14121:14134   */\n      add\n        /* \"#utility.yul\":14114:14134   */\n      swap1\n      pop\n        /* \"#utility.yul\":13907:14140   */\n      swap2\n      swap1\n      pop\n      jump\t// out\n\n    auxdata: 0xa2646970667358221220bc04a51ca3ceb69bac314c25a7a667250e00e5a33f8f579ee530ecd64d79d68964736f6c634300080f0033\n}\n",
				"bytecode": {
					"linkReferences": {},
					"object": "6080604052600060035534801561001557600080fd5b50610e72806100256000396000f3fe608060405234801561001057600080fd5b506004361061007d5760003560e01c80634b4a80ba1161005b5780634b4a80ba146101015780636fe605fc1461013357806399b956a01461014f578063a9bb0fa11461017f5761007d565b806318b8275a146100825780631bc7ffe91461009e5780632b9af503146100d0575b600080fd5b61009c60048036038101906100979190610778565b61019b565b005b6100b860048036038101906100b391906107f7565b6101ea565b6040516100c7939291906108ea565b60405180910390f35b6100ea60048036038101906100e59190610928565b6102b2565b6040516100f89291906109a9565b60405180910390f35b61011b600480360381019061011691906109d2565b610313565b60405161012a939291906109ff565b60405180910390f35b61014d60048036038101906101489190610928565b6103e5565b005b61016960048036038101906101649190610a69565b6104a3565b6040516101769190610a96565b60405180910390f35b610199600480360381019061019491906109d2565b610543565b005b806000803373ffffffffffffffffffffffffffffffffffffffff1673ffffffffffffffffffffffffffffffffffffffff16815260200190815260200160002090816101e69190610cc4565b5050565b60006060600060405180606001604052808681526020018581526020013373ffffffffffffffffffffffffffffffffffffffff16815250600160006003548152602001908152602001600020600082015181600001908161024b9190610cc4565b506020820151816001015560408201518160020160006101000a81548173ffffffffffffffffffffffffffffffffffffffff021916908373ffffffffffffffffffffffffffffffffffffffff16021790555090505060035485859250925092509250925092565b600260205281600052604060002081815481106102ce57600080fd5b9060005260206000209060020201600091509150508060000154908060010160009054906101000a900473ffffffffffffffffffffffffffffffffffffffff16905082565b600160205280600052604060002060009150905080600001805461033690610ae7565b80601f016020809104026020016040519081016040528092919081815260200182805461036290610ae7565b80156103af5780601f10610384576101008083540402835291602001916103af565b820191906000526020600020905b81548152906001019060200180831161039257829003601f168201915b5050505050908060010154908060020160009054906101000a900473ffffffffffffffffffffffffffffffffffffffff16905083565b6002600083815260200190815260200160002060405180604001604052808381526020013373ffffffffffffffffffffffffffffffffffffffff1681525090806001815401808255809150506001900390600052602060002090600202016000909190919091506000820151816000015560208201518160010160006101000a81548173ffffffffffffffffffffffffffffffffffffffff021916908373ffffffffffffffffffffffffffffffffffffffff16021790555050505050565b600060205280600052604060002060009150905080546104c290610ae7565b80601f01602080910402602001604051908101604052809291908181526020018280546104ee90610ae7565b801561053b5780601f106105105761010080835404028352916020019161053b565b820191906000526020600020905b81548152906001019060200180831161051e57829003601f168201915b505050505081565b600080806002600085815260200190815260200160002060008154811061056d5761056c610d96565b5b90600052602060002090600202016000015490505b60026000858152602001908152602001600020805490508111610618578281111561060557809250600260008581526020019081526020016000206000815481106105d0576105cf610d96565b5b906000526020600020906002020160010160009054906101000a900473ffffffffffffffffffffffffffffffffffffffff1691505b808061061090610df4565b915050610582565b50505050565b6000604051905090565b600080fd5b600080fd5b600080fd5b600080fd5b6000601f19601f8301169050919050565b7f4e487b7100000000000000000000000000000000000000000000000000000000600052604160045260246000fd5b6106858261063c565b810181811067ffffffffffffffff821117156106a4576106a361064d565b5b80604052505050565b60006106b761061e565b90506106c3828261067c565b919050565b600067ffffffffffffffff8211156106e3576106e261064d565b5b6106ec8261063c565b9050602081019050919050565b82818337600083830152505050565b600061071b610716846106c8565b6106ad565b90508281526020810184848401111561073757610736610637565b5b6107428482856106f9565b509392505050565b600082601f83011261075f5761075e610632565b5b813561076f848260208601610708565b91505092915050565b60006020828403121561078e5761078d610628565b5b600082013567ffffffffffffffff8111156107ac576107ab61062d565b5b6107b88482850161074a565b91505092915050565b6000819050919050565b6107d4816107c1565b81146107df57600080fd5b50565b6000813590506107f1816107cb565b92915050565b6000806040838503121561080e5761080d610628565b5b600083013567ffffffffffffffff81111561082c5761082b61062d565b5b6108388582860161074a565b9250506020610849858286016107e2565b9150509250929050565b61085c816107c1565b82525050565b600081519050919050565b600082825260208201905092915050565b60005b8381101561089c578082015181840152602081019050610881565b838111156108ab576000848401525b50505050565b60006108bc82610862565b6108c6818561086d565b93506108d681856020860161087e565b6108df8161063c565b840191505092915050565b60006060820190506108ff6000830186610853565b818103602083015261091181856108b1565b90506109206040830184610853565b949350505050565b6000806040838503121561093f5761093e610628565b5b600061094d858286016107e2565b925050602061095e858286016107e2565b9150509250929050565b600073ffffffffffffffffffffffffffffffffffffffff82169050919050565b600061099382610968565b9050919050565b6109a381610988565b82525050565b60006040820190506109be6000830185610853565b6109cb602083018461099a565b9392505050565b6000602082840312156109e8576109e7610628565b5b60006109f6848285016107e2565b91505092915050565b60006060820190508181036000830152610a1981866108b1565b9050610a286020830185610853565b610a35604083018461099a565b949350505050565b610a4681610988565b8114610a5157600080fd5b50565b600081359050610a6381610a3d565b92915050565b600060208284031215610a7f57610a7e610628565b5b6000610a8d84828501610a54565b91505092915050565b60006020820190508181036000830152610ab081846108b1565b905092915050565b7f4e487b7100000000000000000000000000000000000000000000000000000000600052602260045260246000fd5b60006002820490506001821680610aff57607f821691505b602082108103610b1257610b11610ab8565b5b50919050565b60008190508160005260206000209050919050565b60006020601f8301049050919050565b600082821b905092915050565b600060088302610b7a7fffffffffffffffffffffffffffffffffffffffffffffffffffffffffffffffff82610b3d565b610b848683610b3d565b95508019841693508086168417925050509392505050565b6000819050919050565b6000610bc1610bbc610bb7846107c1565b610b9c565b6107c1565b9050919050565b6000819050919050565b610bdb83610ba6565b610bef610be782610bc8565b848454610b4a565b825550505050565b600090565b610c04610bf7565b610c0f818484610bd2565b505050565b5b81811015610c3357610c28600082610bfc565b600181019050610c15565b5050565b601f821115610c7857610c4981610b18565b610c5284610b2d565b81016020851015610c61578190505b610c75610c6d85610b2d565b830182610c14565b50505b505050565b600082821c905092915050565b6000610c9b60001984600802610c7d565b1980831691505092915050565b6000610cb48383610c8a565b9150826002028217905092915050565b610ccd82610862565b67ffffffffffffffff811115610ce657610ce561064d565b5b610cf08254610ae7565b610cfb828285610c37565b600060209050601f831160018114610d2e5760008415610d1c578287015190505b610d268582610ca8565b865550610d8e565b601f198416610d3c86610b18565b60005b82811015610d6457848901518255600182019150602085019450602081019050610d3f565b86831015610d815784890151610d7d601f891682610c8a565b8355505b6001600288020188555050505b505050505050565b7f4e487b7100000000000000000000000000000000000000000000000000000000600052603260045260246000fd5b7f4e487b7100000000000000000000000000000000000000000000000000000000600052601160045260246000fd5b6000610dff826107c1565b91507fffffffffffffffffffffffffffffffffffffffffffffffffffffffffffffffff8203610e3157610e30610dc5565b5b60018201905091905056fea2646970667358221220bc04a51ca3ceb69bac314c25a7a667250e00e5a33f8f579ee530ecd64d79d68964736f6c634300080f0033",
					"opcodes": "PUSH1 0x80 PUSH1 0x40 MSTORE PUSH1 0x0 PUSH1 0x3 SSTORE CALLVALUE DUP1 ISZERO PUSH2 0x15 JUMPI PUSH1 0x0 DUP1 REVERT JUMPDEST POP PUSH2 0xE72 DUP1 PUSH2 0x25 PUSH1 0x0 CODECOPY PUSH1 0x0 RETURN INVALID PUSH1 0x80 PUSH1 0x40 MSTORE CALLVALUE DUP1 ISZERO PUSH2 0x10 JUMPI PUSH1 0x0 DUP1 REVERT JUMPDEST POP PUSH1 0x4 CALLDATASIZE LT PUSH2 0x7D JUMPI PUSH1 0x0 CALLDATALOAD PUSH1 0xE0 SHR DUP1 PUSH4 0x4B4A80BA GT PUSH2 0x5B JUMPI DUP1 PUSH4 0x4B4A80BA EQ PUSH2 0x101 JUMPI DUP1 PUSH4 0x6FE605FC EQ PUSH2 0x133 JUMPI DUP1 PUSH4 0x99B956A0 EQ PUSH2 0x14F JUMPI DUP1 PUSH4 0xA9BB0FA1 EQ PUSH2 0x17F JUMPI PUSH2 0x7D JUMP JUMPDEST DUP1 PUSH4 0x18B8275A EQ PUSH2 0x82 JUMPI DUP1 PUSH4 0x1BC7FFE9 EQ PUSH2 0x9E JUMPI DUP1 PUSH4 0x2B9AF503 EQ PUSH2 0xD0 JUMPI JUMPDEST PUSH1 0x0 DUP1 REVERT JUMPDEST PUSH2 0x9C PUSH1 0x4 DUP1 CALLDATASIZE SUB DUP2 ADD SWAP1 PUSH2 0x97 SWAP2 SWAP1 PUSH2 0x778 JUMP JUMPDEST PUSH2 0x19B JUMP JUMPDEST STOP JUMPDEST PUSH2 0xB8 PUSH1 0x4 DUP1 CALLDATASIZE SUB DUP2 ADD SWAP1 PUSH2 0xB3 SWAP2 SWAP1 PUSH2 0x7F7 JUMP JUMPDEST PUSH2 0x1EA JUMP JUMPDEST PUSH1 0x40 MLOAD PUSH2 0xC7 SWAP4 SWAP3 SWAP2 SWAP1 PUSH2 0x8EA JUMP JUMPDEST PUSH1 0x40 MLOAD DUP1 SWAP2 SUB SWAP1 RETURN JUMPDEST PUSH2 0xEA PUSH1 0x4 DUP1 CALLDATASIZE SUB DUP2 ADD SWAP1 PUSH2 0xE5 SWAP2 SWAP1 PUSH2 0x928 JUMP JUMPDEST PUSH2 0x2B2 JUMP JUMPDEST PUSH1 0x40 MLOAD PUSH2 0xF8 SWAP3 SWAP2 SWAP1 PUSH2 0x9A9 JUMP JUMPDEST PUSH1 0x40 MLOAD DUP1 SWAP2 SUB SWAP1 RETURN JUMPDEST PUSH2 0x11B PUSH1 0x4 DUP1 CALLDATASIZE SUB DUP2 ADD SWAP1 PUSH2 0x116 SWAP2 SWAP1 PUSH2 0x9D2 JUMP JUMPDEST PUSH2 0x313 JUMP JUMPDEST PUSH1 0x40 MLOAD PUSH2 0x12A SWAP4 SWAP3 SWAP2 SWAP1 PUSH2 0x9FF JUMP JUMPDEST PUSH1 0x40 MLOAD DUP1 SWAP2 SUB SWAP1 RETURN JUMPDEST PUSH2 0x14D PUSH1 0x4 DUP1 CALLDATASIZE SUB DUP2 ADD SWAP1 PUSH2 0x148 SWAP2 SWAP1 PUSH2 0x928 JUMP JUMPDEST PUSH2 0x3E5 JUMP JUMPDEST STOP JUMPDEST PUSH2 0x169 PUSH1 0x4 DUP1 CALLDATASIZE SUB DUP2 ADD SWAP1 PUSH2 0x164 SWAP2 SWAP1 PUSH2 0xA69 JUMP JUMPDEST PUSH2 0x4A3 JUMP JUMPDEST PUSH1 0x40 MLOAD PUSH2 0x176 SWAP2 SWAP1 PUSH2 0xA96 JUMP JUMPDEST PUSH1 0x40 MLOAD DUP1 SWAP2 SUB SWAP1 RETURN JUMPDEST PUSH2 0x199 PUSH1 0x4 DUP1 CALLDATASIZE SUB DUP2 ADD SWAP1 PUSH2 0x194 SWAP2 SWAP1 PUSH2 0x9D2 JUMP JUMPDEST PUSH2 0x543 JUMP JUMPDEST STOP JUMPDEST DUP1 PUSH1 0x0 DUP1 CALLER PUSH20 0xFFFFFFFFFFFFFFFFFFFFFFFFFFFFFFFFFFFFFFFF AND PUSH20 0xFFFFFFFFFFFFFFFFFFFFFFFFFFFFFFFFFFFFFFFF AND DUP2 MSTORE PUSH1 0x20 ADD SWAP1 DUP2 MSTORE PUSH1 0x20 ADD PUSH1 0x0 KECCAK256 SWAP1 DUP2 PUSH2 0x1E6 SWAP2 SWAP1 PUSH2 0xCC4 JUMP JUMPDEST POP POP JUMP JUMPDEST PUSH1 0x0 PUSH1 0x60 PUSH1 0x0 PUSH1 0x40 MLOAD DUP1 PUSH1 0x60 ADD PUSH1 0x40 MSTORE DUP1 DUP7 DUP2 MSTORE PUSH1 0x20 ADD DUP6 DUP2 MSTORE PUSH1 0x20 ADD CALLER PUSH20 0xFFFFFFFFFFFFFFFFFFFFFFFFFFFFFFFFFFFFFFFF AND DUP2 MSTORE POP PUSH1 0x1 PUSH1 0x0 PUSH1 0x3 SLOAD DUP2 MSTORE PUSH1 0x20 ADD SWAP1 DUP2 MSTORE PUSH1 0x20 ADD PUSH1 0x0 KECCAK256 PUSH1 0x0 DUP3 ADD MLOAD DUP2 PUSH1 0x0 ADD SWAP1 DUP2 PUSH2 0x24B SWAP2 SWAP1 PUSH2 0xCC4 JUMP JUMPDEST POP PUSH1 0x20 DUP3 ADD MLOAD DUP2 PUSH1 0x1 ADD SSTORE PUSH1 0x40 DUP3 ADD MLOAD DUP2 PUSH1 0x2 ADD PUSH1 0x0 PUSH2 0x100 EXP DUP2 SLOAD DUP2 PUSH20 0xFFFFFFFFFFFFFFFFFFFFFFFFFFFFFFFFFFFFFFFF MUL NOT AND SWAP1 DUP4 PUSH20 0xFFFFFFFFFFFFFFFFFFFFFFFFFFFFFFFFFFFFFFFF AND MUL OR SWAP1 SSTORE POP SWAP1 POP POP PUSH1 0x3 SLOAD DUP6 DUP6 SWAP3 POP SWAP3 POP SWAP3 POP SWAP3 POP SWAP3 POP SWAP3 JUMP JUMPDEST PUSH1 0x2 PUSH1 0x20 MSTORE DUP2 PUSH1 0x0 MSTORE PUSH1 0x40 PUSH1 0x0 KECCAK256 DUP2 DUP2 SLOAD DUP2 LT PUSH2 0x2CE JUMPI PUSH1 0x0 DUP1 REVERT JUMPDEST SWAP1 PUSH1 0x0 MSTORE PUSH1 0x20 PUSH1 0x0 KECCAK256 SWAP1 PUSH1 0x2 MUL ADD PUSH1 0x0 SWAP2 POP SWAP2 POP POP DUP1 PUSH1 0x0 ADD SLOAD SWAP1 DUP1 PUSH1 0x1 ADD PUSH1 0x0 SWAP1 SLOAD SWAP1 PUSH2 0x100 EXP SWAP1 DIV PUSH20 0xFFFFFFFFFFFFFFFFFFFFFFFFFFFFFFFFFFFFFFFF AND SWAP1 POP DUP3 JUMP JUMPDEST PUSH1 0x1 PUSH1 0x20 MSTORE DUP1 PUSH1 0x0 MSTORE PUSH1 0x40 PUSH1 0x0 KECCAK256 PUSH1 0x0 SWAP2 POP SWAP1 POP DUP1 PUSH1 0x0 ADD DUP1 SLOAD PUSH2 0x336 SWAP1 PUSH2 0xAE7 JUMP JUMPDEST DUP1 PUSH1 0x1F ADD PUSH1 0x20 DUP1 SWAP2 DIV MUL PUSH1 0x20 ADD PUSH1 0x40 MLOAD SWAP1 DUP2 ADD PUSH1 0x40 MSTORE DUP1 SWAP3 SWAP2 SWAP1 DUP2 DUP2 MSTORE PUSH1 0x20 ADD DUP3 DUP1 SLOAD PUSH2 0x362 SWAP1 PUSH2 0xAE7 JUMP JUMPDEST DUP1 ISZERO PUSH2 0x3AF JUMPI DUP1 PUSH1 0x1F LT PUSH2 0x384 JUMPI PUSH2 0x100 DUP1 DUP4 SLOAD DIV MUL DUP4 MSTORE SWAP2 PUSH1 0x20 ADD SWAP2 PUSH2 0x3AF JUMP JUMPDEST DUP3 ADD SWAP2 SWAP1 PUSH1 0x0 MSTORE PUSH1 0x20 PUSH1 0x0 KECCAK256 SWAP1 JUMPDEST DUP2 SLOAD DUP2 MSTORE SWAP1 PUSH1 0x1 ADD SWAP1 PUSH1 0x20 ADD DUP1 DUP4 GT PUSH2 0x392 JUMPI DUP3 SWAP1 SUB PUSH1 0x1F AND DUP3 ADD SWAP2 JUMPDEST POP POP POP POP POP SWAP1 DUP1 PUSH1 0x1 ADD SLOAD SWAP1 DUP1 PUSH1 0x2 ADD PUSH1 0x0 SWAP1 SLOAD SWAP1 PUSH2 0x100 EXP SWAP1 DIV PUSH20 0xFFFFFFFFFFFFFFFFFFFFFFFFFFFFFFFFFFFFFFFF AND SWAP1 POP DUP4 JUMP JUMPDEST PUSH1 0x2 PUSH1 0x0 DUP4 DUP2 MSTORE PUSH1 0x20 ADD SWAP1 DUP2 MSTORE PUSH1 0x20 ADD PUSH1 0x0 KECCAK256 PUSH1 0x40 MLOAD DUP1 PUSH1 0x40 ADD PUSH1 0x40 MSTORE DUP1 DUP4 DUP2 MSTORE PUSH1 0x20 ADD CALLER PUSH20 0xFFFFFFFFFFFFFFFFFFFFFFFFFFFFFFFFFFFFFFFF AND DUP2 MSTORE POP SWAP1 DUP1 PUSH1 0x1 DUP2 SLOAD ADD DUP1 DUP3 SSTORE DUP1 SWAP2 POP POP PUSH1 0x1 SWAP1 SUB SWAP1 PUSH1 0x0 MSTORE PUSH1 0x20 PUSH1 0x0 KECCAK256 SWAP1 PUSH1 0x2 MUL ADD PUSH1 0x0 SWAP1 SWAP2 SWAP1 SWAP2 SWAP1 SWAP2 POP PUSH1 0x0 DUP3 ADD MLOAD DUP2 PUSH1 0x0 ADD SSTORE PUSH1 0x20 DUP3 ADD MLOAD DUP2 PUSH1 0x1 ADD PUSH1 0x0 PUSH2 0x100 EXP DUP2 SLOAD DUP2 PUSH20 0xFFFFFFFFFFFFFFFFFFFFFFFFFFFFFFFFFFFFFFFF MUL NOT AND SWAP1 DUP4 PUSH20 0xFFFFFFFFFFFFFFFFFFFFFFFFFFFFFFFFFFFFFFFF AND MUL OR SWAP1 SSTORE POP POP POP POP POP JUMP JUMPDEST PUSH1 0x0 PUSH1 0x20 MSTORE DUP1 PUSH1 0x0 MSTORE PUSH1 0x40 PUSH1 0x0 KECCAK256 PUSH1 0x0 SWAP2 POP SWAP1 POP DUP1 SLOAD PUSH2 0x4C2 SWAP1 PUSH2 0xAE7 JUMP JUMPDEST DUP1 PUSH1 0x1F ADD PUSH1 0x20 DUP1 SWAP2 DIV MUL PUSH1 0x20 ADD PUSH1 0x40 MLOAD SWAP1 DUP2 ADD PUSH1 0x40 MSTORE DUP1 SWAP3 SWAP2 SWAP1 DUP2 DUP2 MSTORE PUSH1 0x20 ADD DUP3 DUP1 SLOAD PUSH2 0x4EE SWAP1 PUSH2 0xAE7 JUMP JUMPDEST DUP1 ISZERO PUSH2 0x53B JUMPI DUP1 PUSH1 0x1F LT PUSH2 0x510 JUMPI PUSH2 0x100 DUP1 DUP4 SLOAD DIV MUL DUP4 MSTORE SWAP2 PUSH1 0x20 ADD SWAP2 PUSH2 0x53B JUMP JUMPDEST DUP3 ADD SWAP2 SWAP1 PUSH1 0x0 MSTORE PUSH1 0x20 PUSH1 0x0 KECCAK256 SWAP1 JUMPDEST DUP2 SLOAD DUP2 MSTORE SWAP1 PUSH1 0x1 ADD SWAP1 PUSH1 0x20 ADD DUP1 DUP4 GT PUSH2 0x51E JUMPI DUP3 SWAP1 SUB PUSH1 0x1F AND DUP3 ADD SWAP2 JUMPDEST POP POP POP POP POP DUP2 JUMP JUMPDEST PUSH1 0x0 DUP1 DUP1 PUSH1 0x2 PUSH1 0x0 DUP6 DUP2 MSTORE PUSH1 0x20 ADD SWAP1 DUP2 MSTORE PUSH1 0x20 ADD PUSH1 0x0 KECCAK256 PUSH1 0x0 DUP2 SLOAD DUP2 LT PUSH2 0x56D JUMPI PUSH2 0x56C PUSH2 0xD96 JUMP JUMPDEST JUMPDEST SWAP1 PUSH1 0x0 MSTORE PUSH1 0x20 PUSH1 0x0 KECCAK256 SWAP1 PUSH1 0x2 MUL ADD PUSH1 0x0 ADD SLOAD SWAP1 POP JUMPDEST PUSH1 0x2 PUSH1 0x0 DUP6 DUP2 MSTORE PUSH1 0x20 ADD SWAP1 DUP2 MSTORE PUSH1 0x20 ADD PUSH1 0x0 KECCAK256 DUP1 SLOAD SWAP1 POP DUP2 GT PUSH2 0x618 JUMPI DUP3 DUP2 GT ISZERO PUSH2 0x605 JUMPI DUP1 SWAP3 POP PUSH1 0x2 PUSH1 0x0 DUP6 DUP2 MSTORE PUSH1 0x20 ADD SWAP1 DUP2 MSTORE PUSH1 0x20 ADD PUSH1 0x0 KECCAK256 PUSH1 0x0 DUP2 SLOAD DUP2 LT PUSH2 0x5D0 JUMPI PUSH2 0x5CF PUSH2 0xD96 JUMP JUMPDEST JUMPDEST SWAP1 PUSH1 0x0 MSTORE PUSH1 0x20 PUSH1 0x0 KECCAK256 SWAP1 PUSH1 0x2 MUL ADD PUSH1 0x1 ADD PUSH1 0x0 SWAP1 SLOAD SWAP1 PUSH2 0x100 EXP SWAP1 DIV PUSH20 0xFFFFFFFFFFFFFFFFFFFFFFFFFFFFFFFFFFFFFFFF AND SWAP2 POP JUMPDEST DUP1 DUP1 PUSH2 0x610 SWAP1 PUSH2 0xDF4 JUMP JUMPDEST SWAP2 POP POP PUSH2 0x582 JUMP JUMPDEST POP POP POP POP JUMP JUMPDEST PUSH1 0x0 PUSH1 0x40 MLOAD SWAP1 POP SWAP1 JUMP JUMPDEST PUSH1 0x0 DUP1 REVERT JUMPDEST PUSH1 0x0 DUP1 REVERT JUMPDEST PUSH1 0x0 DUP1 REVERT JUMPDEST PUSH1 0x0 DUP1 REVERT JUMPDEST PUSH1 0x0 PUSH1 0x1F NOT PUSH1 0x1F DUP4 ADD AND SWAP1 POP SWAP2 SWAP1 POP JUMP JUMPDEST PUSH32 0x4E487B7100000000000000000000000000000000000000000000000000000000 PUSH1 0x0 MSTORE PUSH1 0x41 PUSH1 0x4 MSTORE PUSH1 0x24 PUSH1 0x0 REVERT JUMPDEST PUSH2 0x685 DUP3 PUSH2 0x63C JUMP JUMPDEST DUP2 ADD DUP2 DUP2 LT PUSH8 0xFFFFFFFFFFFFFFFF DUP3 GT OR ISZERO PUSH2 0x6A4 JUMPI PUSH2 0x6A3 PUSH2 0x64D JUMP JUMPDEST JUMPDEST DUP1 PUSH1 0x40 MSTORE POP POP POP JUMP JUMPDEST PUSH1 0x0 PUSH2 0x6B7 PUSH2 0x61E JUMP JUMPDEST SWAP1 POP PUSH2 0x6C3 DUP3 DUP3 PUSH2 0x67C JUMP JUMPDEST SWAP2 SWAP1 POP JUMP JUMPDEST PUSH1 0x0 PUSH8 0xFFFFFFFFFFFFFFFF DUP3 GT ISZERO PUSH2 0x6E3 JUMPI PUSH2 0x6E2 PUSH2 0x64D JUMP JUMPDEST JUMPDEST PUSH2 0x6EC DUP3 PUSH2 0x63C JUMP JUMPDEST SWAP1 POP PUSH1 0x20 DUP2 ADD SWAP1 POP SWAP2 SWAP1 POP JUMP JUMPDEST DUP3 DUP2 DUP4 CALLDATACOPY PUSH1 0x0 DUP4 DUP4 ADD MSTORE POP POP POP JUMP JUMPDEST PUSH1 0x0 PUSH2 0x71B PUSH2 0x716 DUP5 PUSH2 0x6C8 JUMP JUMPDEST PUSH2 0x6AD JUMP JUMPDEST SWAP1 POP DUP3 DUP2 MSTORE PUSH1 0x20 DUP2 ADD DUP5 DUP5 DUP5 ADD GT ISZERO PUSH2 0x737 JUMPI PUSH2 0x736 PUSH2 0x637 JUMP JUMPDEST JUMPDEST PUSH2 0x742 DUP5 DUP3 DUP6 PUSH2 0x6F9 JUMP JUMPDEST POP SWAP4 SWAP3 POP POP POP JUMP JUMPDEST PUSH1 0x0 DUP3 PUSH1 0x1F DUP4 ADD SLT PUSH2 0x75F JUMPI PUSH2 0x75E PUSH2 0x632 JUMP JUMPDEST JUMPDEST DUP2 CALLDATALOAD PUSH2 0x76F DUP5 DUP3 PUSH1 0x20 DUP7 ADD PUSH2 0x708 JUMP JUMPDEST SWAP2 POP POP SWAP3 SWAP2 POP POP JUMP JUMPDEST PUSH1 0x0 PUSH1 0x20 DUP3 DUP5 SUB SLT ISZERO PUSH2 0x78E JUMPI PUSH2 0x78D PUSH2 0x628 JUMP JUMPDEST JUMPDEST PUSH1 0x0 DUP3 ADD CALLDATALOAD PUSH8 0xFFFFFFFFFFFFFFFF DUP2 GT ISZERO PUSH2 0x7AC JUMPI PUSH2 0x7AB PUSH2 0x62D JUMP JUMPDEST JUMPDEST PUSH2 0x7B8 DUP5 DUP3 DUP6 ADD PUSH2 0x74A JUMP JUMPDEST SWAP2 POP POP SWAP3 SWAP2 POP POP JUMP JUMPDEST PUSH1 0x0 DUP2 SWAP1 POP SWAP2 SWAP1 POP JUMP JUMPDEST PUSH2 0x7D4 DUP2 PUSH2 0x7C1 JUMP JUMPDEST DUP2 EQ PUSH2 0x7DF JUMPI PUSH1 0x0 DUP1 REVERT JUMPDEST POP JUMP JUMPDEST PUSH1 0x0 DUP2 CALLDATALOAD SWAP1 POP PUSH2 0x7F1 DUP2 PUSH2 0x7CB JUMP JUMPDEST SWAP3 SWAP2 POP POP JUMP JUMPDEST PUSH1 0x0 DUP1 PUSH1 0x40 DUP4 DUP6 SUB SLT ISZERO PUSH2 0x80E JUMPI PUSH2 0x80D PUSH2 0x628 JUMP JUMPDEST JUMPDEST PUSH1 0x0 DUP4 ADD CALLDATALOAD PUSH8 0xFFFFFFFFFFFFFFFF DUP2 GT ISZERO PUSH2 0x82C JUMPI PUSH2 0x82B PUSH2 0x62D JUMP JUMPDEST JUMPDEST PUSH2 0x838 DUP6 DUP3 DUP7 ADD PUSH2 0x74A JUMP JUMPDEST SWAP3 POP POP PUSH1 0x20 PUSH2 0x849 DUP6 DUP3 DUP7 ADD PUSH2 0x7E2 JUMP JUMPDEST SWAP2 POP POP SWAP3 POP SWAP3 SWAP1 POP JUMP JUMPDEST PUSH2 0x85C DUP2 PUSH2 0x7C1 JUMP JUMPDEST DUP3 MSTORE POP POP JUMP JUMPDEST PUSH1 0x0 DUP2 MLOAD SWAP1 POP SWAP2 SWAP1 POP JUMP JUMPDEST PUSH1 0x0 DUP3 DUP3 MSTORE PUSH1 0x20 DUP3 ADD SWAP1 POP SWAP3 SWAP2 POP POP JUMP JUMPDEST PUSH1 0x0 JUMPDEST DUP4 DUP2 LT ISZERO PUSH2 0x89C JUMPI DUP1 DUP3 ADD MLOAD DUP2 DUP5 ADD MSTORE PUSH1 0x20 DUP2 ADD SWAP1 POP PUSH2 0x881 JUMP JUMPDEST DUP4 DUP2 GT ISZERO PUSH2 0x8AB JUMPI PUSH1 0x0 DUP5 DUP5 ADD MSTORE JUMPDEST POP POP POP POP JUMP JUMPDEST PUSH1 0x0 PUSH2 0x8BC DUP3 PUSH2 0x862 JUMP JUMPDEST PUSH2 0x8C6 DUP2 DUP6 PUSH2 0x86D JUMP JUMPDEST SWAP4 POP PUSH2 0x8D6 DUP2 DUP6 PUSH1 0x20 DUP7 ADD PUSH2 0x87E JUMP JUMPDEST PUSH2 0x8DF DUP2 PUSH2 0x63C JUMP JUMPDEST DUP5 ADD SWAP2 POP POP SWAP3 SWAP2 POP POP JUMP JUMPDEST PUSH1 0x0 PUSH1 0x60 DUP3 ADD SWAP1 POP PUSH2 0x8FF PUSH1 0x0 DUP4 ADD DUP7 PUSH2 0x853 JUMP JUMPDEST DUP2 DUP2 SUB PUSH1 0x20 DUP4 ADD MSTORE PUSH2 0x911 DUP2 DUP6 PUSH2 0x8B1 JUMP JUMPDEST SWAP1 POP PUSH2 0x920 PUSH1 0x40 DUP4 ADD DUP5 PUSH2 0x853 JUMP JUMPDEST SWAP5 SWAP4 POP POP POP POP JUMP JUMPDEST PUSH1 0x0 DUP1 PUSH1 0x40 DUP4 DUP6 SUB SLT ISZERO PUSH2 0x93F JUMPI PUSH2 0x93E PUSH2 0x628 JUMP JUMPDEST JUMPDEST PUSH1 0x0 PUSH2 0x94D DUP6 DUP3 DUP7 ADD PUSH2 0x7E2 JUMP JUMPDEST SWAP3 POP POP PUSH1 0x20 PUSH2 0x95E DUP6 DUP3 DUP7 ADD PUSH2 0x7E2 JUMP JUMPDEST SWAP2 POP POP SWAP3 POP SWAP3 SWAP1 POP JUMP JUMPDEST PUSH1 0x0 PUSH20 0xFFFFFFFFFFFFFFFFFFFFFFFFFFFFFFFFFFFFFFFF DUP3 AND SWAP1 POP SWAP2 SWAP1 POP JUMP JUMPDEST PUSH1 0x0 PUSH2 0x993 DUP3 PUSH2 0x968 JUMP JUMPDEST SWAP1 POP SWAP2 SWAP1 POP JUMP JUMPDEST PUSH2 0x9A3 DUP2 PUSH2 0x988 JUMP JUMPDEST DUP3 MSTORE POP POP JUMP JUMPDEST PUSH1 0x0 PUSH1 0x40 DUP3 ADD SWAP1 POP PUSH2 0x9BE PUSH1 0x0 DUP4 ADD DUP6 PUSH2 0x853 JUMP JUMPDEST PUSH2 0x9CB PUSH1 0x20 DUP4 ADD DUP5 PUSH2 0x99A JUMP JUMPDEST SWAP4 SWAP3 POP POP POP JUMP JUMPDEST PUSH1 0x0 PUSH1 0x20 DUP3 DUP5 SUB SLT ISZERO PUSH2 0x9E8 JUMPI PUSH2 0x9E7 PUSH2 0x628 JUMP JUMPDEST JUMPDEST PUSH1 0x0 PUSH2 0x9F6 DUP5 DUP3 DUP6 ADD PUSH2 0x7E2 JUMP JUMPDEST SWAP2 POP POP SWAP3 SWAP2 POP POP JUMP JUMPDEST PUSH1 0x0 PUSH1 0x60 DUP3 ADD SWAP1 POP DUP2 DUP2 SUB PUSH1 0x0 DUP4 ADD MSTORE PUSH2 0xA19 DUP2 DUP7 PUSH2 0x8B1 JUMP JUMPDEST SWAP1 POP PUSH2 0xA28 PUSH1 0x20 DUP4 ADD DUP6 PUSH2 0x853 JUMP JUMPDEST PUSH2 0xA35 PUSH1 0x40 DUP4 ADD DUP5 PUSH2 0x99A JUMP JUMPDEST SWAP5 SWAP4 POP POP POP POP JUMP JUMPDEST PUSH2 0xA46 DUP2 PUSH2 0x988 JUMP JUMPDEST DUP2 EQ PUSH2 0xA51 JUMPI PUSH1 0x0 DUP1 REVERT JUMPDEST POP JUMP JUMPDEST PUSH1 0x0 DUP2 CALLDATALOAD SWAP1 POP PUSH2 0xA63 DUP2 PUSH2 0xA3D JUMP JUMPDEST SWAP3 SWAP2 POP POP JUMP JUMPDEST PUSH1 0x0 PUSH1 0x20 DUP3 DUP5 SUB SLT ISZERO PUSH2 0xA7F JUMPI PUSH2 0xA7E PUSH2 0x628 JUMP JUMPDEST JUMPDEST PUSH1 0x0 PUSH2 0xA8D DUP5 DUP3 DUP6 ADD PUSH2 0xA54 JUMP JUMPDEST SWAP2 POP POP SWAP3 SWAP2 POP POP JUMP JUMPDEST PUSH1 0x0 PUSH1 0x20 DUP3 ADD SWAP1 POP DUP2 DUP2 SUB PUSH1 0x0 DUP4 ADD MSTORE PUSH2 0xAB0 DUP2 DUP5 PUSH2 0x8B1 JUMP JUMPDEST SWAP1 POP SWAP3 SWAP2 POP POP JUMP JUMPDEST PUSH32 0x4E487B7100000000000000000000000000000000000000000000000000000000 PUSH1 0x0 MSTORE PUSH1 0x22 PUSH1 0x4 MSTORE PUSH1 0x24 PUSH1 0x0 REVERT JUMPDEST PUSH1 0x0 PUSH1 0x2 DUP3 DIV SWAP1 POP PUSH1 0x1 DUP3 AND DUP1 PUSH2 0xAFF JUMPI PUSH1 0x7F DUP3 AND SWAP2 POP JUMPDEST PUSH1 0x20 DUP3 LT DUP2 SUB PUSH2 0xB12 JUMPI PUSH2 0xB11 PUSH2 0xAB8 JUMP JUMPDEST JUMPDEST POP SWAP2 SWAP1 POP JUMP JUMPDEST PUSH1 0x0 DUP2 SWAP1 POP DUP2 PUSH1 0x0 MSTORE PUSH1 0x20 PUSH1 0x0 KECCAK256 SWAP1 POP SWAP2 SWAP1 POP JUMP JUMPDEST PUSH1 0x0 PUSH1 0x20 PUSH1 0x1F DUP4 ADD DIV SWAP1 POP SWAP2 SWAP1 POP JUMP JUMPDEST PUSH1 0x0 DUP3 DUP3 SHL SWAP1 POP SWAP3 SWAP2 POP POP JUMP JUMPDEST PUSH1 0x0 PUSH1 0x8 DUP4 MUL PUSH2 0xB7A PUSH32 0xFFFFFFFFFFFFFFFFFFFFFFFFFFFFFFFFFFFFFFFFFFFFFFFFFFFFFFFFFFFFFFFF DUP3 PUSH2 0xB3D JUMP JUMPDEST PUSH2 0xB84 DUP7 DUP4 PUSH2 0xB3D JUMP JUMPDEST SWAP6 POP DUP1 NOT DUP5 AND SWAP4 POP DUP1 DUP7 AND DUP5 OR SWAP3 POP POP POP SWAP4 SWAP3 POP POP POP JUMP JUMPDEST PUSH1 0x0 DUP2 SWAP1 POP SWAP2 SWAP1 POP JUMP JUMPDEST PUSH1 0x0 PUSH2 0xBC1 PUSH2 0xBBC PUSH2 0xBB7 DUP5 PUSH2 0x7C1 JUMP JUMPDEST PUSH2 0xB9C JUMP JUMPDEST PUSH2 0x7C1 JUMP JUMPDEST SWAP1 POP SWAP2 SWAP1 POP JUMP JUMPDEST PUSH1 0x0 DUP2 SWAP1 POP SWAP2 SWAP1 POP JUMP JUMPDEST PUSH2 0xBDB DUP4 PUSH2 0xBA6 JUMP JUMPDEST PUSH2 0xBEF PUSH2 0xBE7 DUP3 PUSH2 0xBC8 JUMP JUMPDEST DUP5 DUP5 SLOAD PUSH2 0xB4A JUMP JUMPDEST DUP3 SSTORE POP POP POP POP JUMP JUMPDEST PUSH1 0x0 SWAP1 JUMP JUMPDEST PUSH2 0xC04 PUSH2 0xBF7 JUMP JUMPDEST PUSH2 0xC0F DUP2 DUP5 DUP5 PUSH2 0xBD2 JUMP JUMPDEST POP POP POP JUMP JUMPDEST JUMPDEST DUP2 DUP2 LT ISZERO PUSH2 0xC33 JUMPI PUSH2 0xC28 PUSH1 0x0 DUP3 PUSH2 0xBFC JUMP JUMPDEST PUSH1 0x1 DUP2 ADD SWAP1 POP PUSH2 0xC15 JUMP JUMPDEST POP POP JUMP JUMPDEST PUSH1 0x1F DUP3 GT ISZERO PUSH2 0xC78 JUMPI PUSH2 0xC49 DUP2 PUSH2 0xB18 JUMP JUMPDEST PUSH2 0xC52 DUP5 PUSH2 0xB2D JUMP JUMPDEST DUP2 ADD PUSH1 0x20 DUP6 LT ISZERO PUSH2 0xC61 JUMPI DUP2 SWAP1 POP JUMPDEST PUSH2 0xC75 PUSH2 0xC6D DUP6 PUSH2 0xB2D JUMP JUMPDEST DUP4 ADD DUP3 PUSH2 0xC14 JUMP JUMPDEST POP POP JUMPDEST POP POP POP JUMP JUMPDEST PUSH1 0x0 DUP3 DUP3 SHR SWAP1 POP SWAP3 SWAP2 POP POP JUMP JUMPDEST PUSH1 0x0 PUSH2 0xC9B PUSH1 0x0 NOT DUP5 PUSH1 0x8 MUL PUSH2 0xC7D JUMP JUMPDEST NOT DUP1 DUP4 AND SWAP2 POP POP SWAP3 SWAP2 POP POP JUMP JUMPDEST PUSH1 0x0 PUSH2 0xCB4 DUP4 DUP4 PUSH2 0xC8A JUMP JUMPDEST SWAP2 POP DUP3 PUSH1 0x2 MUL DUP3 OR SWAP1 POP SWAP3 SWAP2 POP POP JUMP JUMPDEST PUSH2 0xCCD DUP3 PUSH2 0x862 JUMP JUMPDEST PUSH8 0xFFFFFFFFFFFFFFFF DUP2 GT ISZERO PUSH2 0xCE6 JUMPI PUSH2 0xCE5 PUSH2 0x64D JUMP JUMPDEST JUMPDEST PUSH2 0xCF0 DUP3 SLOAD PUSH2 0xAE7 JUMP JUMPDEST PUSH2 0xCFB DUP3 DUP3 DUP6 PUSH2 0xC37 JUMP JUMPDEST PUSH1 0x0 PUSH1 0x20 SWAP1 POP PUSH1 0x1F DUP4 GT PUSH1 0x1 DUP2 EQ PUSH2 0xD2E JUMPI PUSH1 0x0 DUP5 ISZERO PUSH2 0xD1C JUMPI DUP3 DUP8 ADD MLOAD SWAP1 POP JUMPDEST PUSH2 0xD26 DUP6 DUP3 PUSH2 0xCA8 JUMP JUMPDEST DUP7 SSTORE POP PUSH2 0xD8E JUMP JUMPDEST PUSH1 0x1F NOT DUP5 AND PUSH2 0xD3C DUP7 PUSH2 0xB18 JUMP JUMPDEST PUSH1 0x0 JUMPDEST DUP3 DUP2 LT ISZERO PUSH2 0xD64 JUMPI DUP5 DUP10 ADD MLOAD DUP3 SSTORE PUSH1 0x1 DUP3 ADD SWAP2 POP PUSH1 0x20 DUP6 ADD SWAP5 POP PUSH1 0x20 DUP2 ADD SWAP1 POP PUSH2 0xD3F JUMP JUMPDEST DUP7 DUP4 LT ISZERO PUSH2 0xD81 JUMPI DUP5 DUP10 ADD MLOAD PUSH2 0xD7D PUSH1 0x1F DUP10 AND DUP3 PUSH2 0xC8A JUMP JUMPDEST DUP4 SSTORE POP JUMPDEST PUSH1 0x1 PUSH1 0x2 DUP9 MUL ADD DUP9 SSTORE POP POP POP JUMPDEST POP POP POP POP POP POP JUMP JUMPDEST PUSH32 0x4E487B7100000000000000000000000000000000000000000000000000000000 PUSH1 0x0 MSTORE PUSH1 0x32 PUSH1 0x4 MSTORE PUSH1 0x24 PUSH1 0x0 REVERT JUMPDEST PUSH32 0x4E487B7100000000000000000000000000000000000000000000000000000000 PUSH1 0x0 MSTORE PUSH1 0x11 PUSH1 0x4 MSTORE PUSH1 0x24 PUSH1 0x0 REVERT JUMPDEST PUSH1 0x0 PUSH2 0xDFF DUP3 PUSH2 0x7C1 JUMP JUMPDEST SWAP2 POP PUSH32 0xFFFFFFFFFFFFFFFFFFFFFFFFFFFFFFFFFFFFFFFFFFFFFFFFFFFFFFFFFFFFFFFF DUP3 SUB PUSH2 0xE31 JUMPI PUSH2 0xE30 PUSH2 0xDC5 JUMP JUMPDEST JUMPDEST PUSH1 0x1 DUP3 ADD SWAP1 POP SWAP2 SWAP1 POP JUMP INVALID LOG2 PUSH5 0x6970667358 0x22 SLT KECCAK256 0xBC DIV 0xA5 SHR LOG3 0xCE 0xB6 SWAP12 0xAC BALANCE 0x4C 0x25 0xA7 0xA6 PUSH8 0x250E00E5A33F8F57 SWAP15 0xE5 ADDRESS 0xEC 0xD6 0x4D PUSH26 0xD68964736F6C634300080F003300000000000000000000000000 "
				},
				"gasEstimates": {
					"creation": {
						"codeDepositCost": "739600",
						"executionCost": "5779",
						"totalCost": "745379"
					},
					"external": {
						"Assets(uint256)": "infinite",
						"AuctDetails(uint256,uint256)": "infinite",
						"Bidding(uint256,uint256)": "infinite",
						"Result(uint256)": "infinite",
						"Users(address)": "infinite",
						"addAsset(string,uint256)": "infinite",
						"addUser(string)": "infinite"
					}
				},
				"methodIdentifiers": {
					"Assets(uint256)": "4b4a80ba",
					"AuctDetails(uint256,uint256)": "2b9af503",
					"Bidding(uint256,uint256)": "6fe605fc",
					"Result(uint256)": "a9bb0fa1",
					"Users(address)": "99b956a0",
					"addAsset(string,uint256)": "1bc7ffe9",
					"addUser(string)": "18b8275a"
				}
			},
			"storageLayout": {
				"storage": [
					{
						"astId": 17,
						"contract": "Auction.sol:Auction",
						"label": "Users",
						"offset": 0,
						"slot": "0",
						"type": "t_mapping(t_address,t_string_storage)"
					},
					{
						"astId": 22,
						"contract": "Auction.sol:Auction",
						"label": "Assets",
						"offset": 0,
						"slot": "1",
						"type": "t_mapping(t_uint256,t_struct(Asset)8_storage)"
					},
					{
						"astId": 28,
						"contract": "Auction.sol:Auction",
						"label": "AuctDetails",
						"offset": 0,
						"slot": "2",
						"type": "t_mapping(t_uint256,t_array(t_struct(AuctDetail)13_storage)dyn_storage)"
					},
					{
						"astId": 44,
						"contract": "Auction.sol:Auction",
						"label": "Id",
						"offset": 0,
						"slot": "3",
						"type": "t_uint256"
					}
				],
				"types": {
					"t_address": {
						"encoding": "inplace",
						"label": "address",
						"numberOfBytes": "20"
					},
					"t_array(t_struct(AuctDetail)13_storage)dyn_storage": {
						"base": "t_struct(AuctDetail)13_storage",
						"encoding": "dynamic_array",
						"label": "struct Auction.AuctDetail[]",
						"numberOfBytes": "32"
					},
					"t_mapping(t_address,t_string_storage)": {
						"encoding": "mapping",
						"key": "t_address",
						"label": "mapping(address => string)",
						"numberOfBytes": "32",
						"value": "t_string_storage"
					},
					"t_mapping(t_uint256,t_array(t_struct(AuctDetail)13_storage)dyn_storage)": {
						"encoding": "mapping",
						"key": "t_uint256",
						"label": "mapping(uint256 => struct Auction.AuctDetail[])",
						"numberOfBytes": "32",
						"value": "t_array(t_struct(AuctDetail)13_storage)dyn_storage"
					},
					"t_mapping(t_uint256,t_struct(Asset)8_storage)": {
						"encoding": "mapping",
						"key": "t_uint256",
						"label": "mapping(uint256 => struct Auction.Asset)",
						"numberOfBytes": "32",
						"value": "t_struct(Asset)8_storage"
					},
					"t_string_storage": {
						"encoding": "bytes",
						"label": "string",
						"numberOfBytes": "32"
					},
					"t_struct(Asset)8_storage": {
						"encoding": "inplace",
						"label": "struct Auction.Asset",
						"members": [
							{
								"astId": 3,
								"contract": "Auction.sol:Auction",
								"label": "AssetName",
								"offset": 0,
								"slot": "0",
								"type": "t_string_storage"
							},
							{
								"astId": 5,
								"contract": "Auction.sol:Auction",
								"label": "AssetSP",
								"offset": 0,
								"slot": "1",
								"type": "t_uint256"
							},
							{
								"astId": 7,
								"contract": "Auction.sol:Auction",
								"label": "Owner",
								"offset": 0,
								"slot": "2",
								"type": "t_address"
							}
						],
						"numberOfBytes": "96"
					},
					"t_struct(AuctDetail)13_storage": {
						"encoding": "inplace",
						"label": "struct Auction.AuctDetail",
						"members": [
							{
								"astId": 10,
								"contract": "Auction.sol:Auction",
								"label": "bidPrice",
								"offset": 0,
								"slot": "0",
								"type": "t_uint256"
							},
							{
								"astId": 12,
								"contract": "Auction.sol:Auction",
								"label": "bidderId",
								"offset": 0,
								"slot": "1",
								"type": "t_address"
							}
						],
						"numberOfBytes": "64"
					},
					"t_uint256": {
						"encoding": "inplace",
						"label": "uint256",
						"numberOfBytes": "32"
					}
				}
			},
			"userdoc": {
				"kind": "user",
				"methods": {},
				"version": 1
			}
		}
	}
}