{
	"Auction.sol": {
		"Auction": {
			"abi": [
				{
					"inputs": [
						{
							"internalType": "uint256",
							"name": "",
							"type": "uint256"
						}
					],
					"name": "Assets",
					"outputs": [
						{
							"internalType": "string",
							"name": "AssetName",
							"type": "string"
						},
						{
							"internalType": "uint256",
							"name": "AssetSP",
							"type": "uint256"
						},
						{
							"internalType": "string",
							"name": "Owner",
							"type": "string"
						}
					],
					"stateMutability": "view",
					"type": "function"
				},
				{
					"inputs": [],
					"name": "Bidding",
					"outputs": [],
					"stateMutability": "nonpayable",
					"type": "function"
				},
				{
					"inputs": [],
					"name": "Result",
					"outputs": [],
					"stateMutability": "nonpayable",
					"type": "function"
				},
				{
					"inputs": [
						{
							"internalType": "address",
							"name": "",
							"type": "address"
						}
					],
					"name": "Users",
					"outputs": [
						{
							"internalType": "string",
							"name": "",
							"type": "string"
						}
					],
					"stateMutability": "view",
					"type": "function"
				},
				{
					"inputs": [
						{
							"internalType": "uint256",
							"name": "aId",
							"type": "uint256"
						},
						{
							"internalType": "string",
							"name": "aName",
							"type": "string"
						},
						{
							"internalType": "uint256",
							"name": "aSP",
							"type": "uint256"
						},
						{
							"internalType": "string",
							"name": "aOwner",
							"type": "string"
						}
					],
					"name": "addAsset",
					"outputs": [],
					"stateMutability": "nonpayable",
					"type": "function"
				},
				{
					"inputs": [
						{
							"internalType": "string",
							"name": "Name",
							"type": "string"
						}
					],
					"name": "addUser",
					"outputs": [],
					"stateMutability": "nonpayable",
					"type": "function"
				}
			],
			"devdoc": {
				"kind": "dev",
				"methods": {},
				"version": 1
			},
			"evm": {
				"assembly": "    /* \"Auction.sol\":65:623  contract Auction {\r... */\n  mstore(0x40, 0x80)\n  callvalue\n  dup1\n  iszero\n  tag_1\n  jumpi\n  0x00\n  dup1\n  revert\ntag_1:\n  pop\n  dataSize(sub_0)\n  dup1\n  dataOffset(sub_0)\n  0x00\n  codecopy\n  0x00\n  return\nstop\n\nsub_0: assembly {\n        /* \"Auction.sol\":65:623  contract Auction {\r... */\n      mstore(0x40, 0x80)\n      callvalue\n      dup1\n      iszero\n      tag_1\n      jumpi\n      0x00\n      dup1\n      revert\n    tag_1:\n      pop\n      jumpi(tag_2, lt(calldatasize, 0x04))\n      shr(0xe0, calldataload(0x00))\n      dup1\n      0x18b8275a\n      eq\n      tag_3\n      jumpi\n      dup1\n      0x3e8a0585\n      eq\n      tag_4\n      jumpi\n      dup1\n      0x4b4a80ba\n      eq\n      tag_5\n      jumpi\n      dup1\n      0x8f3b1b91\n      eq\n      tag_6\n      jumpi\n      dup1\n      0x99b956a0\n      eq\n      tag_7\n      jumpi\n      dup1\n      0xf4e5d599\n      eq\n      tag_8\n      jumpi\n    tag_2:\n      0x00\n      dup1\n      revert\n        /* \"Auction.sol\":286:373  function addUser(string memory Name) public {\r... */\n    tag_3:\n      tag_9\n      0x04\n      dup1\n      calldatasize\n      sub\n      dup2\n      add\n      swap1\n      tag_10\n      swap2\n      swap1\n      tag_11\n      jump\t// in\n    tag_10:\n      tag_12\n      jump\t// in\n    tag_9:\n      stop\n        /* \"Auction.sol\":535:573  function Bidding() public {\r... */\n    tag_4:\n      tag_13\n      tag_14\n      jump\t// in\n    tag_13:\n      stop\n        /* \"Auction.sol\":241:277  mapping(uint => Asset) public Assets */\n    tag_5:\n      tag_15\n      0x04\n      dup1\n      calldatasize\n      sub\n      dup2\n      add\n      swap1\n      tag_16\n      swap2\n      swap1\n      tag_17\n      jump\t// in\n    tag_16:\n      tag_18\n      jump\t// in\n    tag_15:\n      mload(0x40)\n      tag_19\n      swap4\n      swap3\n      swap2\n      swap1\n      tag_20\n      jump\t// in\n    tag_19:\n      mload(0x40)\n      dup1\n      swap2\n      sub\n      swap1\n      return\n        /* \"Auction.sol\":381:527  function addAsset(uint aId, string memory aName, uint aSP, string memory aOwner) public {\r... */\n    tag_6:\n      tag_21\n      0x04\n      dup1\n      calldatasize\n      sub\n      dup2\n      add\n      swap1\n      tag_22\n      swap2\n      swap1\n      tag_23\n      jump\t// in\n    tag_22:\n      tag_24\n      jump\t// in\n    tag_21:\n      stop\n        /* \"Auction.sol\":195:234  mapping(address => string) public Users */\n    tag_7:\n      tag_25\n      0x04\n      dup1\n      calldatasize\n      sub\n      dup2\n      add\n      swap1\n      tag_26\n      swap2\n      swap1\n      tag_27\n      jump\t// in\n    tag_26:\n      tag_28\n      jump\t// in\n    tag_25:\n      mload(0x40)\n      tag_29\n      swap2\n      swap1\n      tag_30\n      jump\t// in\n    tag_29:\n      mload(0x40)\n      dup1\n      swap2\n      sub\n      swap1\n      return\n        /* \"Auction.sol\":581:616  function Result() public {\r... */\n    tag_8:\n      tag_31\n      tag_32\n      jump\t// in\n    tag_31:\n      stop\n        /* \"Auction.sol\":286:373  function addUser(string memory Name) public {\r... */\n    tag_12:\n        /* \"Auction.sol\":361:365  Name */\n      dup1\n        /* \"Auction.sol\":341:346  Users */\n      0x00\n        /* \"Auction.sol\":341:358  Users[msg.sender] */\n      dup1\n        /* \"Auction.sol\":347:357  msg.sender */\n      caller\n        /* \"Auction.sol\":341:358  Users[msg.sender] */\n      0xffffffffffffffffffffffffffffffffffffffff\n      and\n      0xffffffffffffffffffffffffffffffffffffffff\n      and\n      dup2\n      mstore\n      0x20\n      add\n      swap1\n      dup2\n      mstore\n      0x20\n      add\n      0x00\n      keccak256\n        /* \"Auction.sol\":341:365  Users[msg.sender] = Name */\n      swap1\n      dup1\n      mload\n      swap1\n      0x20\n      add\n      swap1\n      tag_34\n      swap3\n      swap2\n      swap1\n      tag_35\n      jump\t// in\n    tag_34:\n      pop\n        /* \"Auction.sol\":286:373  function addUser(string memory Name) public {\r... */\n      pop\n      jump\t// out\n        /* \"Auction.sol\":535:573  function Bidding() public {\r... */\n    tag_14:\n      jump\t// out\n        /* \"Auction.sol\":241:277  mapping(uint => Asset) public Assets */\n    tag_18:\n      mstore(0x20, 0x01)\n      dup1\n      0x00\n      mstore\n      keccak256(0x00, 0x40)\n      0x00\n      swap2\n      pop\n      swap1\n      pop\n      dup1\n      0x00\n      add\n      dup1\n      sload\n      tag_37\n      swap1\n      tag_38\n      jump\t// in\n    tag_37:\n      dup1\n      0x1f\n      add\n      0x20\n      dup1\n      swap2\n      div\n      mul\n      0x20\n      add\n      mload(0x40)\n      swap1\n      dup2\n      add\n      0x40\n      mstore\n      dup1\n      swap3\n      swap2\n      swap1\n      dup2\n      dup2\n      mstore\n      0x20\n      add\n      dup3\n      dup1\n      sload\n      tag_39\n      swap1\n      tag_38\n      jump\t// in\n    tag_39:\n      dup1\n      iszero\n      tag_40\n      jumpi\n      dup1\n      0x1f\n      lt\n      tag_41\n      jumpi\n      0x0100\n      dup1\n      dup4\n      sload\n      div\n      mul\n      dup4\n      mstore\n      swap2\n      0x20\n      add\n      swap2\n      jump(tag_40)\n    tag_41:\n      dup3\n      add\n      swap2\n      swap1\n      0x00\n      mstore\n      keccak256(0x00, 0x20)\n      swap1\n    tag_42:\n      dup2\n      sload\n      dup2\n      mstore\n      swap1\n      0x01\n      add\n      swap1\n      0x20\n      add\n      dup1\n      dup4\n      gt\n      tag_42\n      jumpi\n      dup3\n      swap1\n      sub\n      0x1f\n      and\n      dup3\n      add\n      swap2\n    tag_40:\n      pop\n      pop\n      pop\n      pop\n      pop\n      swap1\n      dup1\n      0x01\n      add\n      sload\n      swap1\n      dup1\n      0x02\n      add\n      dup1\n      sload\n      tag_43\n      swap1\n      tag_38\n      jump\t// in\n    tag_43:\n      dup1\n      0x1f\n      add\n      0x20\n      dup1\n      swap2\n      div\n      mul\n      0x20\n      add\n      mload(0x40)\n      swap1\n      dup2\n      add\n      0x40\n      mstore\n      dup1\n      swap3\n      swap2\n      swap1\n      dup2\n      dup2\n      mstore\n      0x20\n      add\n      dup3\n      dup1\n      sload\n      tag_44\n      swap1\n      tag_38\n      jump\t// in\n    tag_44:\n      dup1\n      iszero\n      tag_45\n      jumpi\n      dup1\n      0x1f\n      lt\n      tag_46\n      jumpi\n      0x0100\n      dup1\n      dup4\n      sload\n      div\n      mul\n      dup4\n      mstore\n      swap2\n      0x20\n      add\n      swap2\n      jump(tag_45)\n    tag_46:\n      dup3\n      add\n      swap2\n      swap1\n      0x00\n      mstore\n      keccak256(0x00, 0x20)\n      swap1\n    tag_47:\n      dup2\n      sload\n      dup2\n      mstore\n      swap1\n      0x01\n      add\n      swap1\n      0x20\n      add\n      dup1\n      dup4\n      gt\n      tag_47\n      jumpi\n      dup3\n      swap1\n      sub\n      0x1f\n      and\n      dup3\n      add\n      swap2\n    tag_45:\n      pop\n      pop\n      pop\n      pop\n      pop\n      swap1\n      pop\n      dup4\n      jump\t// out\n        /* \"Auction.sol\":381:527  function addAsset(uint aId, string memory aName, uint aSP, string memory aOwner) public {\r... */\n    tag_24:\n        /* \"Auction.sol\":494:519  Asset(aName, aSP, aOwner) */\n      mload(0x40)\n      dup1\n      0x60\n      add\n      0x40\n      mstore\n      dup1\n        /* \"Auction.sol\":500:505  aName */\n      dup5\n        /* \"Auction.sol\":494:519  Asset(aName, aSP, aOwner) */\n      dup2\n      mstore\n      0x20\n      add\n        /* \"Auction.sol\":507:510  aSP */\n      dup4\n        /* \"Auction.sol\":494:519  Asset(aName, aSP, aOwner) */\n      dup2\n      mstore\n      0x20\n      add\n        /* \"Auction.sol\":512:518  aOwner */\n      dup3\n        /* \"Auction.sol\":494:519  Asset(aName, aSP, aOwner) */\n      dup2\n      mstore\n      pop\n        /* \"Auction.sol\":480:486  Assets */\n      0x01\n        /* \"Auction.sol\":480:491  Assets[aId] */\n      0x00\n        /* \"Auction.sol\":487:490  aId */\n      dup7\n        /* \"Auction.sol\":480:491  Assets[aId] */\n      dup2\n      mstore\n      0x20\n      add\n      swap1\n      dup2\n      mstore\n      0x20\n      add\n      0x00\n      keccak256\n        /* \"Auction.sol\":480:519  Assets[aId] = Asset(aName, aSP, aOwner) */\n      0x00\n      dup3\n      add\n      mload\n      dup2\n      0x00\n      add\n      swap1\n      dup1\n      mload\n      swap1\n      0x20\n      add\n      swap1\n      tag_49\n      swap3\n      swap2\n      swap1\n      tag_35\n      jump\t// in\n    tag_49:\n      pop\n      0x20\n      dup3\n      add\n      mload\n      dup2\n      0x01\n      add\n      sstore\n      0x40\n      dup3\n      add\n      mload\n      dup2\n      0x02\n      add\n      swap1\n      dup1\n      mload\n      swap1\n      0x20\n      add\n      swap1\n      tag_50\n      swap3\n      swap2\n      swap1\n      tag_35\n      jump\t// in\n    tag_50:\n      pop\n      swap1\n      pop\n      pop\n        /* \"Auction.sol\":381:527  function addAsset(uint aId, string memory aName, uint aSP, string memory aOwner) public {\r... */\n      pop\n      pop\n      pop\n      pop\n      jump\t// out\n        /* \"Auction.sol\":195:234  mapping(address => string) public Users */\n    tag_28:\n      mstore(0x20, 0x00)\n      dup1\n      0x00\n      mstore\n      keccak256(0x00, 0x40)\n      0x00\n      swap2\n      pop\n      swap1\n      pop\n      dup1\n      sload\n      tag_51\n      swap1\n      tag_38\n      jump\t// in\n    tag_51:\n      dup1\n      0x1f\n      add\n      0x20\n      dup1\n      swap2\n      div\n      mul\n      0x20\n      add\n      mload(0x40)\n      swap1\n      dup2\n      add\n      0x40\n      mstore\n      dup1\n      swap3\n      swap2\n      swap1\n      dup2\n      dup2\n      mstore\n      0x20\n      add\n      dup3\n      dup1\n      sload\n      tag_52\n      swap1\n      tag_38\n      jump\t// in\n    tag_52:\n      dup1\n      iszero\n      tag_53\n      jumpi\n      dup1\n      0x1f\n      lt\n      tag_54\n      jumpi\n      0x0100\n      dup1\n      dup4\n      sload\n      div\n      mul\n      dup4\n      mstore\n      swap2\n      0x20\n      add\n      swap2\n      jump(tag_53)\n    tag_54:\n      dup3\n      add\n      swap2\n      swap1\n      0x00\n      mstore\n      keccak256(0x00, 0x20)\n      swap1\n    tag_55:\n      dup2\n      sload\n      dup2\n      mstore\n      swap1\n      0x01\n      add\n      swap1\n      0x20\n      add\n      dup1\n      dup4\n      gt\n      tag_55\n      jumpi\n      dup3\n      swap1\n      sub\n      0x1f\n      and\n      dup3\n      add\n      swap2\n    tag_53:\n      pop\n      pop\n      pop\n      pop\n      pop\n      dup2\n      jump\t// out\n        /* \"Auction.sol\":581:616  function Result() public {\r... */\n    tag_32:\n      jump\t// out\n    tag_35:\n      dup3\n      dup1\n      sload\n      tag_57\n      swap1\n      tag_38\n      jump\t// in\n    tag_57:\n      swap1\n      0x00\n      mstore\n      keccak256(0x00, 0x20)\n      swap1\n      0x1f\n      add\n      0x20\n      swap1\n      div\n      dup2\n      add\n      swap3\n      dup3\n      tag_59\n      jumpi\n      0x00\n      dup6\n      sstore\n      jump(tag_58)\n    tag_59:\n      dup3\n      0x1f\n      lt\n      tag_60\n      jumpi\n      dup1\n      mload\n      not(0xff)\n      and\n      dup4\n      dup1\n      add\n      or\n      dup6\n      sstore\n      jump(tag_58)\n    tag_60:\n      dup3\n      dup1\n      add\n      0x01\n      add\n      dup6\n      sstore\n      dup3\n      iszero\n      tag_58\n      jumpi\n      swap2\n      dup3\n      add\n    tag_61:\n      dup3\n      dup2\n      gt\n      iszero\n      tag_62\n      jumpi\n      dup3\n      mload\n      dup3\n      sstore\n      swap2\n      0x20\n      add\n      swap2\n      swap1\n      0x01\n      add\n      swap1\n      jump(tag_61)\n    tag_62:\n    tag_58:\n      pop\n      swap1\n      pop\n      tag_63\n      swap2\n      swap1\n      tag_64\n      jump\t// in\n    tag_63:\n      pop\n      swap1\n      jump\t// out\n    tag_64:\n    tag_65:\n      dup1\n      dup3\n      gt\n      iszero\n      tag_66\n      jumpi\n      0x00\n      dup2\n      0x00\n      swap1\n      sstore\n      pop\n      0x01\n      add\n      jump(tag_65)\n    tag_66:\n      pop\n      swap1\n      jump\t// out\n        /* \"#utility.yul\":7:352   */\n    tag_68:\n      0x00\n        /* \"#utility.yul\":110:176   */\n      tag_70\n        /* \"#utility.yul\":126:175   */\n      tag_71\n        /* \"#utility.yul\":168:174   */\n      dup5\n        /* \"#utility.yul\":126:175   */\n      tag_72\n      jump\t// in\n    tag_71:\n        /* \"#utility.yul\":110:176   */\n      tag_73\n      jump\t// in\n    tag_70:\n        /* \"#utility.yul\":101:176   */\n      swap1\n      pop\n        /* \"#utility.yul\":199:205   */\n      dup3\n        /* \"#utility.yul\":192:197   */\n      dup2\n        /* \"#utility.yul\":185:206   */\n      mstore\n        /* \"#utility.yul\":237:241   */\n      0x20\n        /* \"#utility.yul\":230:235   */\n      dup2\n        /* \"#utility.yul\":226:242   */\n      add\n        /* \"#utility.yul\":275:278   */\n      dup5\n        /* \"#utility.yul\":266:272   */\n      dup5\n        /* \"#utility.yul\":261:264   */\n      dup5\n        /* \"#utility.yul\":257:273   */\n      add\n        /* \"#utility.yul\":254:279   */\n      gt\n        /* \"#utility.yul\":251:253   */\n      iszero\n      tag_74\n      jumpi\n        /* \"#utility.yul\":292:293   */\n      0x00\n        /* \"#utility.yul\":289:290   */\n      dup1\n        /* \"#utility.yul\":282:294   */\n      revert\n        /* \"#utility.yul\":251:253   */\n    tag_74:\n        /* \"#utility.yul\":305:346   */\n      tag_75\n        /* \"#utility.yul\":339:345   */\n      dup5\n        /* \"#utility.yul\":334:337   */\n      dup3\n        /* \"#utility.yul\":329:332   */\n      dup6\n        /* \"#utility.yul\":305:346   */\n      tag_76\n      jump\t// in\n    tag_75:\n        /* \"#utility.yul\":91:352   */\n      pop\n      swap4\n      swap3\n      pop\n      pop\n      pop\n      jump\t// out\n        /* \"#utility.yul\":358:497   */\n    tag_77:\n      0x00\n        /* \"#utility.yul\":442:448   */\n      dup2\n        /* \"#utility.yul\":429:449   */\n      calldataload\n        /* \"#utility.yul\":420:449   */\n      swap1\n      pop\n        /* \"#utility.yul\":458:491   */\n      tag_79\n        /* \"#utility.yul\":485:490   */\n      dup2\n        /* \"#utility.yul\":458:491   */\n      tag_80\n      jump\t// in\n    tag_79:\n        /* \"#utility.yul\":410:497   */\n      swap3\n      swap2\n      pop\n      pop\n      jump\t// out\n        /* \"#utility.yul\":517:790   */\n    tag_81:\n      0x00\n        /* \"#utility.yul\":622:625   */\n      dup3\n        /* \"#utility.yul\":615:619   */\n      0x1f\n        /* \"#utility.yul\":607:613   */\n      dup4\n        /* \"#utility.yul\":603:620   */\n      add\n        /* \"#utility.yul\":599:626   */\n      slt\n        /* \"#utility.yul\":589:591   */\n      tag_83\n      jumpi\n        /* \"#utility.yul\":640:641   */\n      0x00\n        /* \"#utility.yul\":637:638   */\n      dup1\n        /* \"#utility.yul\":630:642   */\n      revert\n        /* \"#utility.yul\":589:591   */\n    tag_83:\n        /* \"#utility.yul\":680:686   */\n      dup2\n        /* \"#utility.yul\":667:687   */\n      calldataload\n        /* \"#utility.yul\":705:784   */\n      tag_84\n        /* \"#utility.yul\":780:783   */\n      dup5\n        /* \"#utility.yul\":772:778   */\n      dup3\n        /* \"#utility.yul\":765:769   */\n      0x20\n        /* \"#utility.yul\":757:763   */\n      dup7\n        /* \"#utility.yul\":753:770   */\n      add\n        /* \"#utility.yul\":705:784   */\n      tag_68\n      jump\t// in\n    tag_84:\n        /* \"#utility.yul\":696:784   */\n      swap2\n      pop\n        /* \"#utility.yul\":579:790   */\n      pop\n      swap3\n      swap2\n      pop\n      pop\n      jump\t// out\n        /* \"#utility.yul\":796:935   */\n    tag_85:\n      0x00\n        /* \"#utility.yul\":880:886   */\n      dup2\n        /* \"#utility.yul\":867:887   */\n      calldataload\n        /* \"#utility.yul\":858:887   */\n      swap1\n      pop\n        /* \"#utility.yul\":896:929   */\n      tag_87\n        /* \"#utility.yul\":923:928   */\n      dup2\n        /* \"#utility.yul\":896:929   */\n      tag_88\n      jump\t// in\n    tag_87:\n        /* \"#utility.yul\":848:935   */\n      swap3\n      swap2\n      pop\n      pop\n      jump\t// out\n        /* \"#utility.yul\":941:1203   */\n    tag_27:\n      0x00\n        /* \"#utility.yul\":1049:1051   */\n      0x20\n        /* \"#utility.yul\":1037:1046   */\n      dup3\n        /* \"#utility.yul\":1028:1035   */\n      dup5\n        /* \"#utility.yul\":1024:1047   */\n      sub\n        /* \"#utility.yul\":1020:1052   */\n      slt\n        /* \"#utility.yul\":1017:1019   */\n      iszero\n      tag_90\n      jumpi\n        /* \"#utility.yul\":1065:1066   */\n      0x00\n        /* \"#utility.yul\":1062:1063   */\n      dup1\n        /* \"#utility.yul\":1055:1067   */\n      revert\n        /* \"#utility.yul\":1017:1019   */\n    tag_90:\n        /* \"#utility.yul\":1108:1109   */\n      0x00\n        /* \"#utility.yul\":1133:1186   */\n      tag_91\n        /* \"#utility.yul\":1178:1185   */\n      dup5\n        /* \"#utility.yul\":1169:1175   */\n      dup3\n        /* \"#utility.yul\":1158:1167   */\n      dup6\n        /* \"#utility.yul\":1154:1176   */\n      add\n        /* \"#utility.yul\":1133:1186   */\n      tag_77\n      jump\t// in\n    tag_91:\n        /* \"#utility.yul\":1123:1186   */\n      swap2\n      pop\n        /* \"#utility.yul\":1079:1196   */\n      pop\n        /* \"#utility.yul\":1007:1203   */\n      swap3\n      swap2\n      pop\n      pop\n      jump\t// out\n        /* \"#utility.yul\":1209:1584   */\n    tag_11:\n      0x00\n        /* \"#utility.yul\":1327:1329   */\n      0x20\n        /* \"#utility.yul\":1315:1324   */\n      dup3\n        /* \"#utility.yul\":1306:1313   */\n      dup5\n        /* \"#utility.yul\":1302:1325   */\n      sub\n        /* \"#utility.yul\":1298:1330   */\n      slt\n        /* \"#utility.yul\":1295:1297   */\n      iszero\n      tag_93\n      jumpi\n        /* \"#utility.yul\":1343:1344   */\n      0x00\n        /* \"#utility.yul\":1340:1341   */\n      dup1\n        /* \"#utility.yul\":1333:1345   */\n      revert\n        /* \"#utility.yul\":1295:1297   */\n    tag_93:\n        /* \"#utility.yul\":1414:1415   */\n      0x00\n        /* \"#utility.yul\":1403:1412   */\n      dup3\n        /* \"#utility.yul\":1399:1416   */\n      add\n        /* \"#utility.yul\":1386:1417   */\n      calldataload\n        /* \"#utility.yul\":1444:1462   */\n      0xffffffffffffffff\n        /* \"#utility.yul\":1436:1442   */\n      dup2\n        /* \"#utility.yul\":1433:1463   */\n      gt\n        /* \"#utility.yul\":1430:1432   */\n      iszero\n      tag_94\n      jumpi\n        /* \"#utility.yul\":1476:1477   */\n      0x00\n        /* \"#utility.yul\":1473:1474   */\n      dup1\n        /* \"#utility.yul\":1466:1478   */\n      revert\n        /* \"#utility.yul\":1430:1432   */\n    tag_94:\n        /* \"#utility.yul\":1504:1567   */\n      tag_95\n        /* \"#utility.yul\":1559:1566   */\n      dup5\n        /* \"#utility.yul\":1550:1556   */\n      dup3\n        /* \"#utility.yul\":1539:1548   */\n      dup6\n        /* \"#utility.yul\":1535:1557   */\n      add\n        /* \"#utility.yul\":1504:1567   */\n      tag_81\n      jump\t// in\n    tag_95:\n        /* \"#utility.yul\":1494:1567   */\n      swap2\n      pop\n        /* \"#utility.yul\":1357:1577   */\n      pop\n        /* \"#utility.yul\":1285:1584   */\n      swap3\n      swap2\n      pop\n      pop\n      jump\t// out\n        /* \"#utility.yul\":1590:1852   */\n    tag_17:\n      0x00\n        /* \"#utility.yul\":1698:1700   */\n      0x20\n        /* \"#utility.yul\":1686:1695   */\n      dup3\n        /* \"#utility.yul\":1677:1684   */\n      dup5\n        /* \"#utility.yul\":1673:1696   */\n      sub\n        /* \"#utility.yul\":1669:1701   */\n      slt\n        /* \"#utility.yul\":1666:1668   */\n      iszero\n      tag_97\n      jumpi\n        /* \"#utility.yul\":1714:1715   */\n      0x00\n        /* \"#utility.yul\":1711:1712   */\n      dup1\n        /* \"#utility.yul\":1704:1716   */\n      revert\n        /* \"#utility.yul\":1666:1668   */\n    tag_97:\n        /* \"#utility.yul\":1757:1758   */\n      0x00\n        /* \"#utility.yul\":1782:1835   */\n      tag_98\n        /* \"#utility.yul\":1827:1834   */\n      dup5\n        /* \"#utility.yul\":1818:1824   */\n      dup3\n        /* \"#utility.yul\":1807:1816   */\n      dup6\n        /* \"#utility.yul\":1803:1825   */\n      add\n        /* \"#utility.yul\":1782:1835   */\n      tag_85\n      jump\t// in\n    tag_98:\n        /* \"#utility.yul\":1772:1835   */\n      swap2\n      pop\n        /* \"#utility.yul\":1728:1845   */\n      pop\n        /* \"#utility.yul\":1656:1852   */\n      swap3\n      swap2\n      pop\n      pop\n      jump\t// out\n        /* \"#utility.yul\":1858:2782   */\n    tag_23:\n      0x00\n      dup1\n      0x00\n      dup1\n        /* \"#utility.yul\":2037:2040   */\n      0x80\n        /* \"#utility.yul\":2025:2034   */\n      dup6\n        /* \"#utility.yul\":2016:2023   */\n      dup8\n        /* \"#utility.yul\":2012:2035   */\n      sub\n        /* \"#utility.yul\":2008:2041   */\n      slt\n        /* \"#utility.yul\":2005:2007   */\n      iszero\n      tag_100\n      jumpi\n        /* \"#utility.yul\":2054:2055   */\n      0x00\n        /* \"#utility.yul\":2051:2052   */\n      dup1\n        /* \"#utility.yul\":2044:2056   */\n      revert\n        /* \"#utility.yul\":2005:2007   */\n    tag_100:\n        /* \"#utility.yul\":2097:2098   */\n      0x00\n        /* \"#utility.yul\":2122:2175   */\n      tag_101\n        /* \"#utility.yul\":2167:2174   */\n      dup8\n        /* \"#utility.yul\":2158:2164   */\n      dup3\n        /* \"#utility.yul\":2147:2156   */\n      dup9\n        /* \"#utility.yul\":2143:2165   */\n      add\n        /* \"#utility.yul\":2122:2175   */\n      tag_85\n      jump\t// in\n    tag_101:\n        /* \"#utility.yul\":2112:2175   */\n      swap5\n      pop\n        /* \"#utility.yul\":2068:2185   */\n      pop\n        /* \"#utility.yul\":2252:2254   */\n      0x20\n        /* \"#utility.yul\":2241:2250   */\n      dup6\n        /* \"#utility.yul\":2237:2255   */\n      add\n        /* \"#utility.yul\":2224:2256   */\n      calldataload\n        /* \"#utility.yul\":2283:2301   */\n      0xffffffffffffffff\n        /* \"#utility.yul\":2275:2281   */\n      dup2\n        /* \"#utility.yul\":2272:2302   */\n      gt\n        /* \"#utility.yul\":2269:2271   */\n      iszero\n      tag_102\n      jumpi\n        /* \"#utility.yul\":2315:2316   */\n      0x00\n        /* \"#utility.yul\":2312:2313   */\n      dup1\n        /* \"#utility.yul\":2305:2317   */\n      revert\n        /* \"#utility.yul\":2269:2271   */\n    tag_102:\n        /* \"#utility.yul\":2343:2406   */\n      tag_103\n        /* \"#utility.yul\":2398:2405   */\n      dup8\n        /* \"#utility.yul\":2389:2395   */\n      dup3\n        /* \"#utility.yul\":2378:2387   */\n      dup9\n        /* \"#utility.yul\":2374:2396   */\n      add\n        /* \"#utility.yul\":2343:2406   */\n      tag_81\n      jump\t// in\n    tag_103:\n        /* \"#utility.yul\":2333:2406   */\n      swap4\n      pop\n        /* \"#utility.yul\":2195:2416   */\n      pop\n        /* \"#utility.yul\":2455:2457   */\n      0x40\n        /* \"#utility.yul\":2481:2534   */\n      tag_104\n        /* \"#utility.yul\":2526:2533   */\n      dup8\n        /* \"#utility.yul\":2517:2523   */\n      dup3\n        /* \"#utility.yul\":2506:2515   */\n      dup9\n        /* \"#utility.yul\":2502:2524   */\n      add\n        /* \"#utility.yul\":2481:2534   */\n      tag_85\n      jump\t// in\n    tag_104:\n        /* \"#utility.yul\":2471:2534   */\n      swap3\n      pop\n        /* \"#utility.yul\":2426:2544   */\n      pop\n        /* \"#utility.yul\":2611:2613   */\n      0x60\n        /* \"#utility.yul\":2600:2609   */\n      dup6\n        /* \"#utility.yul\":2596:2614   */\n      add\n        /* \"#utility.yul\":2583:2615   */\n      calldataload\n        /* \"#utility.yul\":2642:2660   */\n      0xffffffffffffffff\n        /* \"#utility.yul\":2634:2640   */\n      dup2\n        /* \"#utility.yul\":2631:2661   */\n      gt\n        /* \"#utility.yul\":2628:2630   */\n      iszero\n      tag_105\n      jumpi\n        /* \"#utility.yul\":2674:2675   */\n      0x00\n        /* \"#utility.yul\":2671:2672   */\n      dup1\n        /* \"#utility.yul\":2664:2676   */\n      revert\n        /* \"#utility.yul\":2628:2630   */\n    tag_105:\n        /* \"#utility.yul\":2702:2765   */\n      tag_106\n        /* \"#utility.yul\":2757:2764   */\n      dup8\n        /* \"#utility.yul\":2748:2754   */\n      dup3\n        /* \"#utility.yul\":2737:2746   */\n      dup9\n        /* \"#utility.yul\":2733:2755   */\n      add\n        /* \"#utility.yul\":2702:2765   */\n      tag_81\n      jump\t// in\n    tag_106:\n        /* \"#utility.yul\":2692:2765   */\n      swap2\n      pop\n        /* \"#utility.yul\":2554:2775   */\n      pop\n        /* \"#utility.yul\":1995:2782   */\n      swap3\n      swap6\n      swap2\n      swap5\n      pop\n      swap3\n      pop\n      jump\t// out\n        /* \"#utility.yul\":2788:3152   */\n    tag_107:\n      0x00\n        /* \"#utility.yul\":2904:2943   */\n      tag_109\n        /* \"#utility.yul\":2937:2942   */\n      dup3\n        /* \"#utility.yul\":2904:2943   */\n      tag_110\n      jump\t// in\n    tag_109:\n        /* \"#utility.yul\":2959:3030   */\n      tag_111\n        /* \"#utility.yul\":3023:3029   */\n      dup2\n        /* \"#utility.yul\":3018:3021   */\n      dup6\n        /* \"#utility.yul\":2959:3030   */\n      tag_112\n      jump\t// in\n    tag_111:\n        /* \"#utility.yul\":2952:3030   */\n      swap4\n      pop\n        /* \"#utility.yul\":3039:3091   */\n      tag_113\n        /* \"#utility.yul\":3084:3090   */\n      dup2\n        /* \"#utility.yul\":3079:3082   */\n      dup6\n        /* \"#utility.yul\":3072:3076   */\n      0x20\n        /* \"#utility.yul\":3065:3070   */\n      dup7\n        /* \"#utility.yul\":3061:3077   */\n      add\n        /* \"#utility.yul\":3039:3091   */\n      tag_114\n      jump\t// in\n    tag_113:\n        /* \"#utility.yul\":3116:3145   */\n      tag_115\n        /* \"#utility.yul\":3138:3144   */\n      dup2\n        /* \"#utility.yul\":3116:3145   */\n      tag_116\n      jump\t// in\n    tag_115:\n        /* \"#utility.yul\":3111:3114   */\n      dup5\n        /* \"#utility.yul\":3107:3146   */\n      add\n        /* \"#utility.yul\":3100:3146   */\n      swap2\n      pop\n        /* \"#utility.yul\":2880:3152   */\n      pop\n      swap3\n      swap2\n      pop\n      pop\n      jump\t// out\n        /* \"#utility.yul\":3158:3276   */\n    tag_117:\n        /* \"#utility.yul\":3245:3269   */\n      tag_119\n        /* \"#utility.yul\":3263:3268   */\n      dup2\n        /* \"#utility.yul\":3245:3269   */\n      tag_120\n      jump\t// in\n    tag_119:\n        /* \"#utility.yul\":3240:3243   */\n      dup3\n        /* \"#utility.yul\":3233:3270   */\n      mstore\n        /* \"#utility.yul\":3223:3276   */\n      pop\n      pop\n      jump\t// out\n        /* \"#utility.yul\":3282:3595   */\n    tag_30:\n      0x00\n        /* \"#utility.yul\":3433:3435   */\n      0x20\n        /* \"#utility.yul\":3422:3431   */\n      dup3\n        /* \"#utility.yul\":3418:3436   */\n      add\n        /* \"#utility.yul\":3410:3436   */\n      swap1\n      pop\n        /* \"#utility.yul\":3482:3491   */\n      dup2\n        /* \"#utility.yul\":3476:3480   */\n      dup2\n        /* \"#utility.yul\":3472:3492   */\n      sub\n        /* \"#utility.yul\":3468:3469   */\n      0x00\n        /* \"#utility.yul\":3457:3466   */\n      dup4\n        /* \"#utility.yul\":3453:3470   */\n      add\n        /* \"#utility.yul\":3446:3493   */\n      mstore\n        /* \"#utility.yul\":3510:3588   */\n      tag_122\n        /* \"#utility.yul\":3583:3587   */\n      dup2\n        /* \"#utility.yul\":3574:3580   */\n      dup5\n        /* \"#utility.yul\":3510:3588   */\n      tag_107\n      jump\t// in\n    tag_122:\n        /* \"#utility.yul\":3502:3588   */\n      swap1\n      pop\n        /* \"#utility.yul\":3400:3595   */\n      swap3\n      swap2\n      pop\n      pop\n      jump\t// out\n        /* \"#utility.yul\":3601:4225   */\n    tag_20:\n      0x00\n        /* \"#utility.yul\":3828:3830   */\n      0x60\n        /* \"#utility.yul\":3817:3826   */\n      dup3\n        /* \"#utility.yul\":3813:3831   */\n      add\n        /* \"#utility.yul\":3805:3831   */\n      swap1\n      pop\n        /* \"#utility.yul\":3877:3886   */\n      dup2\n        /* \"#utility.yul\":3871:3875   */\n      dup2\n        /* \"#utility.yul\":3867:3887   */\n      sub\n        /* \"#utility.yul\":3863:3864   */\n      0x00\n        /* \"#utility.yul\":3852:3861   */\n      dup4\n        /* \"#utility.yul\":3848:3865   */\n      add\n        /* \"#utility.yul\":3841:3888   */\n      mstore\n        /* \"#utility.yul\":3905:3983   */\n      tag_124\n        /* \"#utility.yul\":3978:3982   */\n      dup2\n        /* \"#utility.yul\":3969:3975   */\n      dup7\n        /* \"#utility.yul\":3905:3983   */\n      tag_107\n      jump\t// in\n    tag_124:\n        /* \"#utility.yul\":3897:3983   */\n      swap1\n      pop\n        /* \"#utility.yul\":3993:4065   */\n      tag_125\n        /* \"#utility.yul\":4061:4063   */\n      0x20\n        /* \"#utility.yul\":4050:4059   */\n      dup4\n        /* \"#utility.yul\":4046:4064   */\n      add\n        /* \"#utility.yul\":4037:4043   */\n      dup6\n        /* \"#utility.yul\":3993:4065   */\n      tag_117\n      jump\t// in\n    tag_125:\n        /* \"#utility.yul\":4112:4121   */\n      dup2\n        /* \"#utility.yul\":4106:4110   */\n      dup2\n        /* \"#utility.yul\":4102:4122   */\n      sub\n        /* \"#utility.yul\":4097:4099   */\n      0x40\n        /* \"#utility.yul\":4086:4095   */\n      dup4\n        /* \"#utility.yul\":4082:4100   */\n      add\n        /* \"#utility.yul\":4075:4123   */\n      mstore\n        /* \"#utility.yul\":4140:4218   */\n      tag_126\n        /* \"#utility.yul\":4213:4217   */\n      dup2\n        /* \"#utility.yul\":4204:4210   */\n      dup5\n        /* \"#utility.yul\":4140:4218   */\n      tag_107\n      jump\t// in\n    tag_126:\n        /* \"#utility.yul\":4132:4218   */\n      swap1\n      pop\n        /* \"#utility.yul\":3795:4225   */\n      swap5\n      swap4\n      pop\n      pop\n      pop\n      pop\n      jump\t// out\n        /* \"#utility.yul\":4231:4360   */\n    tag_73:\n      0x00\n        /* \"#utility.yul\":4292:4312   */\n      tag_128\n      tag_129\n      jump\t// in\n    tag_128:\n        /* \"#utility.yul\":4282:4312   */\n      swap1\n      pop\n        /* \"#utility.yul\":4321:4354   */\n      tag_130\n        /* \"#utility.yul\":4349:4353   */\n      dup3\n        /* \"#utility.yul\":4341:4347   */\n      dup3\n        /* \"#utility.yul\":4321:4354   */\n      tag_131\n      jump\t// in\n    tag_130:\n        /* \"#utility.yul\":4272:4360   */\n      swap2\n      swap1\n      pop\n      jump\t// out\n        /* \"#utility.yul\":4366:4441   */\n    tag_129:\n      0x00\n        /* \"#utility.yul\":4432:4434   */\n      0x40\n        /* \"#utility.yul\":4426:4435   */\n      mload\n        /* \"#utility.yul\":4416:4435   */\n      swap1\n      pop\n        /* \"#utility.yul\":4406:4441   */\n      swap1\n      jump\t// out\n        /* \"#utility.yul\":4447:4755   */\n    tag_72:\n      0x00\n        /* \"#utility.yul\":4599:4617   */\n      0xffffffffffffffff\n        /* \"#utility.yul\":4591:4597   */\n      dup3\n        /* \"#utility.yul\":4588:4618   */\n      gt\n        /* \"#utility.yul\":4585:4587   */\n      iszero\n      tag_134\n      jumpi\n        /* \"#utility.yul\":4621:4639   */\n      tag_135\n      tag_136\n      jump\t// in\n    tag_135:\n        /* \"#utility.yul\":4585:4587   */\n    tag_134:\n        /* \"#utility.yul\":4659:4688   */\n      tag_137\n        /* \"#utility.yul\":4681:4687   */\n      dup3\n        /* \"#utility.yul\":4659:4688   */\n      tag_116\n      jump\t// in\n    tag_137:\n        /* \"#utility.yul\":4651:4688   */\n      swap1\n      pop\n        /* \"#utility.yul\":4743:4747   */\n      0x20\n        /* \"#utility.yul\":4737:4741   */\n      dup2\n        /* \"#utility.yul\":4733:4748   */\n      add\n        /* \"#utility.yul\":4725:4748   */\n      swap1\n      pop\n        /* \"#utility.yul\":4514:4755   */\n      swap2\n      swap1\n      pop\n      jump\t// out\n        /* \"#utility.yul\":4761:4860   */\n    tag_110:\n      0x00\n        /* \"#utility.yul\":4847:4852   */\n      dup2\n        /* \"#utility.yul\":4841:4853   */\n      mload\n        /* \"#utility.yul\":4831:4853   */\n      swap1\n      pop\n        /* \"#utility.yul\":4820:4860   */\n      swap2\n      swap1\n      pop\n      jump\t// out\n        /* \"#utility.yul\":4866:5035   */\n    tag_112:\n      0x00\n        /* \"#utility.yul\":4984:4990   */\n      dup3\n        /* \"#utility.yul\":4979:4982   */\n      dup3\n        /* \"#utility.yul\":4972:4991   */\n      mstore\n        /* \"#utility.yul\":5024:5028   */\n      0x20\n        /* \"#utility.yul\":5019:5022   */\n      dup3\n        /* \"#utility.yul\":5015:5029   */\n      add\n        /* \"#utility.yul\":5000:5029   */\n      swap1\n      pop\n        /* \"#utility.yul\":4962:5035   */\n      swap3\n      swap2\n      pop\n      pop\n      jump\t// out\n        /* \"#utility.yul\":5041:5137   */\n    tag_140:\n      0x00\n        /* \"#utility.yul\":5107:5131   */\n      tag_142\n        /* \"#utility.yul\":5125:5130   */\n      dup3\n        /* \"#utility.yul\":5107:5131   */\n      tag_143\n      jump\t// in\n    tag_142:\n        /* \"#utility.yul\":5096:5131   */\n      swap1\n      pop\n        /* \"#utility.yul\":5086:5137   */\n      swap2\n      swap1\n      pop\n      jump\t// out\n        /* \"#utility.yul\":5143:5269   */\n    tag_143:\n      0x00\n        /* \"#utility.yul\":5220:5262   */\n      0xffffffffffffffffffffffffffffffffffffffff\n        /* \"#utility.yul\":5213:5218   */\n      dup3\n        /* \"#utility.yul\":5209:5263   */\n      and\n        /* \"#utility.yul\":5198:5263   */\n      swap1\n      pop\n        /* \"#utility.yul\":5188:5269   */\n      swap2\n      swap1\n      pop\n      jump\t// out\n        /* \"#utility.yul\":5275:5352   */\n    tag_120:\n      0x00\n        /* \"#utility.yul\":5341:5346   */\n      dup2\n        /* \"#utility.yul\":5330:5346   */\n      swap1\n      pop\n        /* \"#utility.yul\":5320:5352   */\n      swap2\n      swap1\n      pop\n      jump\t// out\n        /* \"#utility.yul\":5358:5512   */\n    tag_76:\n        /* \"#utility.yul\":5442:5448   */\n      dup3\n        /* \"#utility.yul\":5437:5440   */\n      dup2\n        /* \"#utility.yul\":5432:5435   */\n      dup4\n        /* \"#utility.yul\":5419:5449   */\n      calldatacopy\n        /* \"#utility.yul\":5504:5505   */\n      0x00\n        /* \"#utility.yul\":5495:5501   */\n      dup4\n        /* \"#utility.yul\":5490:5493   */\n      dup4\n        /* \"#utility.yul\":5486:5502   */\n      add\n        /* \"#utility.yul\":5479:5506   */\n      mstore\n        /* \"#utility.yul\":5409:5512   */\n      pop\n      pop\n      pop\n      jump\t// out\n        /* \"#utility.yul\":5518:5825   */\n    tag_114:\n        /* \"#utility.yul\":5586:5587   */\n      0x00\n        /* \"#utility.yul\":5596:5709   */\n    tag_148:\n        /* \"#utility.yul\":5610:5616   */\n      dup4\n        /* \"#utility.yul\":5607:5608   */\n      dup2\n        /* \"#utility.yul\":5604:5617   */\n      lt\n        /* \"#utility.yul\":5596:5709   */\n      iszero\n      tag_150\n      jumpi\n        /* \"#utility.yul\":5695:5696   */\n      dup1\n        /* \"#utility.yul\":5690:5693   */\n      dup3\n        /* \"#utility.yul\":5686:5697   */\n      add\n        /* \"#utility.yul\":5680:5698   */\n      mload\n        /* \"#utility.yul\":5676:5677   */\n      dup2\n        /* \"#utility.yul\":5671:5674   */\n      dup5\n        /* \"#utility.yul\":5667:5678   */\n      add\n        /* \"#utility.yul\":5660:5699   */\n      mstore\n        /* \"#utility.yul\":5632:5634   */\n      0x20\n        /* \"#utility.yul\":5629:5630   */\n      dup2\n        /* \"#utility.yul\":5625:5635   */\n      add\n        /* \"#utility.yul\":5620:5635   */\n      swap1\n      pop\n        /* \"#utility.yul\":5596:5709   */\n      jump(tag_148)\n    tag_150:\n        /* \"#utility.yul\":5727:5733   */\n      dup4\n        /* \"#utility.yul\":5724:5725   */\n      dup2\n        /* \"#utility.yul\":5721:5734   */\n      gt\n        /* \"#utility.yul\":5718:5720   */\n      iszero\n      tag_151\n      jumpi\n        /* \"#utility.yul\":5807:5808   */\n      0x00\n        /* \"#utility.yul\":5798:5804   */\n      dup5\n        /* \"#utility.yul\":5793:5796   */\n      dup5\n        /* \"#utility.yul\":5789:5805   */\n      add\n        /* \"#utility.yul\":5782:5809   */\n      mstore\n        /* \"#utility.yul\":5718:5720   */\n    tag_151:\n        /* \"#utility.yul\":5567:5825   */\n      pop\n      pop\n      pop\n      pop\n      jump\t// out\n        /* \"#utility.yul\":5831:6151   */\n    tag_38:\n      0x00\n        /* \"#utility.yul\":5912:5913   */\n      0x02\n        /* \"#utility.yul\":5906:5910   */\n      dup3\n        /* \"#utility.yul\":5902:5914   */\n      div\n        /* \"#utility.yul\":5892:5914   */\n      swap1\n      pop\n        /* \"#utility.yul\":5959:5960   */\n      0x01\n        /* \"#utility.yul\":5953:5957   */\n      dup3\n        /* \"#utility.yul\":5949:5961   */\n      and\n        /* \"#utility.yul\":5980:5998   */\n      dup1\n        /* \"#utility.yul\":5970:5972   */\n      tag_153\n      jumpi\n        /* \"#utility.yul\":6036:6040   */\n      0x7f\n        /* \"#utility.yul\":6028:6034   */\n      dup3\n        /* \"#utility.yul\":6024:6041   */\n      and\n        /* \"#utility.yul\":6014:6041   */\n      swap2\n      pop\n        /* \"#utility.yul\":5970:5972   */\n    tag_153:\n        /* \"#utility.yul\":6098:6100   */\n      0x20\n        /* \"#utility.yul\":6090:6096   */\n      dup3\n        /* \"#utility.yul\":6087:6101   */\n      lt\n        /* \"#utility.yul\":6067:6085   */\n      dup2\n        /* \"#utility.yul\":6064:6102   */\n      eq\n        /* \"#utility.yul\":6061:6063   */\n      iszero\n      tag_154\n      jumpi\n        /* \"#utility.yul\":6117:6135   */\n      tag_155\n      tag_156\n      jump\t// in\n    tag_155:\n        /* \"#utility.yul\":6061:6063   */\n    tag_154:\n        /* \"#utility.yul\":5882:6151   */\n      pop\n      swap2\n      swap1\n      pop\n      jump\t// out\n        /* \"#utility.yul\":6157:6438   */\n    tag_131:\n        /* \"#utility.yul\":6240:6267   */\n      tag_158\n        /* \"#utility.yul\":6262:6266   */\n      dup3\n        /* \"#utility.yul\":6240:6267   */\n      tag_116\n      jump\t// in\n    tag_158:\n        /* \"#utility.yul\":6232:6238   */\n      dup2\n        /* \"#utility.yul\":6228:6268   */\n      add\n        /* \"#utility.yul\":6370:6376   */\n      dup2\n        /* \"#utility.yul\":6358:6368   */\n      dup2\n        /* \"#utility.yul\":6355:6377   */\n      lt\n        /* \"#utility.yul\":6334:6352   */\n      0xffffffffffffffff\n        /* \"#utility.yul\":6322:6332   */\n      dup3\n        /* \"#utility.yul\":6319:6353   */\n      gt\n        /* \"#utility.yul\":6316:6378   */\n      or\n        /* \"#utility.yul\":6313:6315   */\n      iszero\n      tag_159\n      jumpi\n        /* \"#utility.yul\":6381:6399   */\n      tag_160\n      tag_136\n      jump\t// in\n    tag_160:\n        /* \"#utility.yul\":6313:6315   */\n    tag_159:\n        /* \"#utility.yul\":6421:6431   */\n      dup1\n        /* \"#utility.yul\":6417:6419   */\n      0x40\n        /* \"#utility.yul\":6410:6432   */\n      mstore\n        /* \"#utility.yul\":6200:6438   */\n      pop\n      pop\n      pop\n      jump\t// out\n        /* \"#utility.yul\":6444:6624   */\n    tag_156:\n        /* \"#utility.yul\":6492:6569   */\n      0x4e487b7100000000000000000000000000000000000000000000000000000000\n        /* \"#utility.yul\":6489:6490   */\n      0x00\n        /* \"#utility.yul\":6482:6570   */\n      mstore\n        /* \"#utility.yul\":6589:6593   */\n      0x22\n        /* \"#utility.yul\":6586:6587   */\n      0x04\n        /* \"#utility.yul\":6579:6594   */\n      mstore\n        /* \"#utility.yul\":6613:6617   */\n      0x24\n        /* \"#utility.yul\":6610:6611   */\n      0x00\n        /* \"#utility.yul\":6603:6618   */\n      revert\n        /* \"#utility.yul\":6630:6810   */\n    tag_136:\n        /* \"#utility.yul\":6678:6755   */\n      0x4e487b7100000000000000000000000000000000000000000000000000000000\n        /* \"#utility.yul\":6675:6676   */\n      0x00\n        /* \"#utility.yul\":6668:6756   */\n      mstore\n        /* \"#utility.yul\":6775:6779   */\n      0x41\n        /* \"#utility.yul\":6772:6773   */\n      0x04\n        /* \"#utility.yul\":6765:6780   */\n      mstore\n        /* \"#utility.yul\":6799:6803   */\n      0x24\n        /* \"#utility.yul\":6796:6797   */\n      0x00\n        /* \"#utility.yul\":6789:6804   */\n      revert\n        /* \"#utility.yul\":6816:6918   */\n    tag_116:\n      0x00\n        /* \"#utility.yul\":6908:6910   */\n      0x1f\n        /* \"#utility.yul\":6904:6911   */\n      not\n        /* \"#utility.yul\":6899:6901   */\n      0x1f\n        /* \"#utility.yul\":6892:6897   */\n      dup4\n        /* \"#utility.yul\":6888:6902   */\n      add\n        /* \"#utility.yul\":6884:6912   */\n      and\n        /* \"#utility.yul\":6874:6912   */\n      swap1\n      pop\n        /* \"#utility.yul\":6864:6918   */\n      swap2\n      swap1\n      pop\n      jump\t// out\n        /* \"#utility.yul\":6924:7046   */\n    tag_80:\n        /* \"#utility.yul\":6997:7021   */\n      tag_165\n        /* \"#utility.yul\":7015:7020   */\n      dup2\n        /* \"#utility.yul\":6997:7021   */\n      tag_140\n      jump\t// in\n    tag_165:\n        /* \"#utility.yul\":6990:6995   */\n      dup2\n        /* \"#utility.yul\":6987:7022   */\n      eq\n        /* \"#utility.yul\":6977:6979   */\n      tag_166\n      jumpi\n        /* \"#utility.yul\":7036:7037   */\n      0x00\n        /* \"#utility.yul\":7033:7034   */\n      dup1\n        /* \"#utility.yul\":7026:7038   */\n      revert\n        /* \"#utility.yul\":6977:6979   */\n    tag_166:\n        /* \"#utility.yul\":6967:7046   */\n      pop\n      jump\t// out\n        /* \"#utility.yul\":7052:7174   */\n    tag_88:\n        /* \"#utility.yul\":7125:7149   */\n      tag_168\n        /* \"#utility.yul\":7143:7148   */\n      dup2\n        /* \"#utility.yul\":7125:7149   */\n      tag_120\n      jump\t// in\n    tag_168:\n        /* \"#utility.yul\":7118:7123   */\n      dup2\n        /* \"#utility.yul\":7115:7150   */\n      eq\n        /* \"#utility.yul\":7105:7107   */\n      tag_169\n      jumpi\n        /* \"#utility.yul\":7164:7165   */\n      0x00\n        /* \"#utility.yul\":7161:7162   */\n      dup1\n        /* \"#utility.yul\":7154:7166   */\n      revert\n        /* \"#utility.yul\":7105:7107   */\n    tag_169:\n        /* \"#utility.yul\":7095:7174   */\n      pop\n      jump\t// out\n\n    auxdata: 0xa26469706673582212205eb67c29fd68b41933d93143270ab5bf8d9f807971dcd4f051fbd946aa94177b64736f6c63430008010033\n}\n",
				"bytecode": {
					"linkReferences": {},
					"object": "608060405234801561001057600080fd5b506108f4806100206000396000f3fe608060405234801561001057600080fd5b50600436106100625760003560e01c806318b8275a146100675780633e8a0585146100835780634b4a80ba1461008d5780638f3b1b91146100bf57806399b956a0146100db578063f4e5d5991461010b575b600080fd5b610081600480360381019061007c9190610522565b610115565b005b61008b61016b565b005b6100a760048036038101906100a29190610563565b61016d565b6040516100b693929190610689565b60405180910390f35b6100d960048036038101906100d4919061058c565b6102a7565b005b6100f560048036038101906100f091906104f9565b610322565b6040516101029190610667565b60405180910390f35b6101136103c2565b005b806000803373ffffffffffffffffffffffffffffffffffffffff1673ffffffffffffffffffffffffffffffffffffffff16815260200190815260200160002090805190602001906101679291906103c4565b5050565b565b6001602052806000526040600020600091509050806000018054610190906107be565b80601f01602080910402602001604051908101604052809291908181526020018280546101bc906107be565b80156102095780601f106101de57610100808354040283529160200191610209565b820191906000526020600020905b8154815290600101906020018083116101ec57829003601f168201915b505050505090806001015490806002018054610224906107be565b80601f0160208091040260200160405190810160405280929190818152602001828054610250906107be565b801561029d5780601f106102725761010080835404028352916020019161029d565b820191906000526020600020905b81548152906001019060200180831161028057829003601f168201915b5050505050905083565b6040518060600160405280848152602001838152602001828152506001600086815260200190815260200160002060008201518160000190805190602001906102f19291906103c4565b506020820151816001015560408201518160020190805190602001906103189291906103c4565b5090505050505050565b60006020528060005260406000206000915090508054610341906107be565b80601f016020809104026020016040519081016040528092919081815260200182805461036d906107be565b80156103ba5780601f1061038f576101008083540402835291602001916103ba565b820191906000526020600020905b81548152906001019060200180831161039d57829003601f168201915b505050505081565b565b8280546103d0906107be565b90600052602060002090601f0160209004810192826103f25760008555610439565b82601f1061040b57805160ff1916838001178555610439565b82800160010185558215610439579182015b8281111561043857825182559160200191906001019061041d565b5b509050610446919061044a565b5090565b5b8082111561046357600081600090555060010161044b565b5090565b600061047a610475846106f3565b6106ce565b90508281526020810184848401111561049257600080fd5b61049d84828561077c565b509392505050565b6000813590506104b481610890565b92915050565b600082601f8301126104cb57600080fd5b81356104db848260208601610467565b91505092915050565b6000813590506104f3816108a7565b92915050565b60006020828403121561050b57600080fd5b6000610519848285016104a5565b91505092915050565b60006020828403121561053457600080fd5b600082013567ffffffffffffffff81111561054e57600080fd5b61055a848285016104ba565b91505092915050565b60006020828403121561057557600080fd5b6000610583848285016104e4565b91505092915050565b600080600080608085870312156105a257600080fd5b60006105b0878288016104e4565b945050602085013567ffffffffffffffff8111156105cd57600080fd5b6105d9878288016104ba565b93505060406105ea878288016104e4565b925050606085013567ffffffffffffffff81111561060757600080fd5b610613878288016104ba565b91505092959194509250565b600061062a82610724565b610634818561072f565b935061064481856020860161078b565b61064d8161087f565b840191505092915050565b61066181610772565b82525050565b60006020820190508181036000830152610681818461061f565b905092915050565b600060608201905081810360008301526106a3818661061f565b90506106b26020830185610658565b81810360408301526106c4818461061f565b9050949350505050565b60006106d86106e9565b90506106e482826107f0565b919050565b6000604051905090565b600067ffffffffffffffff82111561070e5761070d610850565b5b6107178261087f565b9050602081019050919050565b600081519050919050565b600082825260208201905092915050565b600061074b82610752565b9050919050565b600073ffffffffffffffffffffffffffffffffffffffff82169050919050565b6000819050919050565b82818337600083830152505050565b60005b838110156107a957808201518184015260208101905061078e565b838111156107b8576000848401525b50505050565b600060028204905060018216806107d657607f821691505b602082108114156107ea576107e9610821565b5b50919050565b6107f98261087f565b810181811067ffffffffffffffff8211171561081857610817610850565b5b80604052505050565b7f4e487b7100000000000000000000000000000000000000000000000000000000600052602260045260246000fd5b7f4e487b7100000000000000000000000000000000000000000000000000000000600052604160045260246000fd5b6000601f19601f8301169050919050565b61089981610740565b81146108a457600080fd5b50565b6108b081610772565b81146108bb57600080fd5b5056fea26469706673582212205eb67c29fd68b41933d93143270ab5bf8d9f807971dcd4f051fbd946aa94177b64736f6c63430008010033",
					"opcodes": "PUSH1 0x80 PUSH1 0x40 MSTORE CALLVALUE DUP1 ISZERO PUSH2 0x10 JUMPI PUSH1 0x0 DUP1 REVERT JUMPDEST POP PUSH2 0x8F4 DUP1 PUSH2 0x20 PUSH1 0x0 CODECOPY PUSH1 0x0 RETURN INVALID PUSH1 0x80 PUSH1 0x40 MSTORE CALLVALUE DUP1 ISZERO PUSH2 0x10 JUMPI PUSH1 0x0 DUP1 REVERT JUMPDEST POP PUSH1 0x4 CALLDATASIZE LT PUSH2 0x62 JUMPI PUSH1 0x0 CALLDATALOAD PUSH1 0xE0 SHR DUP1 PUSH4 0x18B8275A EQ PUSH2 0x67 JUMPI DUP1 PUSH4 0x3E8A0585 EQ PUSH2 0x83 JUMPI DUP1 PUSH4 0x4B4A80BA EQ PUSH2 0x8D JUMPI DUP1 PUSH4 0x8F3B1B91 EQ PUSH2 0xBF JUMPI DUP1 PUSH4 0x99B956A0 EQ PUSH2 0xDB JUMPI DUP1 PUSH4 0xF4E5D599 EQ PUSH2 0x10B JUMPI JUMPDEST PUSH1 0x0 DUP1 REVERT JUMPDEST PUSH2 0x81 PUSH1 0x4 DUP1 CALLDATASIZE SUB DUP2 ADD SWAP1 PUSH2 0x7C SWAP2 SWAP1 PUSH2 0x522 JUMP JUMPDEST PUSH2 0x115 JUMP JUMPDEST STOP JUMPDEST PUSH2 0x8B PUSH2 0x16B JUMP JUMPDEST STOP JUMPDEST PUSH2 0xA7 PUSH1 0x4 DUP1 CALLDATASIZE SUB DUP2 ADD SWAP1 PUSH2 0xA2 SWAP2 SWAP1 PUSH2 0x563 JUMP JUMPDEST PUSH2 0x16D JUMP JUMPDEST PUSH1 0x40 MLOAD PUSH2 0xB6 SWAP4 SWAP3 SWAP2 SWAP1 PUSH2 0x689 JUMP JUMPDEST PUSH1 0x40 MLOAD DUP1 SWAP2 SUB SWAP1 RETURN JUMPDEST PUSH2 0xD9 PUSH1 0x4 DUP1 CALLDATASIZE SUB DUP2 ADD SWAP1 PUSH2 0xD4 SWAP2 SWAP1 PUSH2 0x58C JUMP JUMPDEST PUSH2 0x2A7 JUMP JUMPDEST STOP JUMPDEST PUSH2 0xF5 PUSH1 0x4 DUP1 CALLDATASIZE SUB DUP2 ADD SWAP1 PUSH2 0xF0 SWAP2 SWAP1 PUSH2 0x4F9 JUMP JUMPDEST PUSH2 0x322 JUMP JUMPDEST PUSH1 0x40 MLOAD PUSH2 0x102 SWAP2 SWAP1 PUSH2 0x667 JUMP JUMPDEST PUSH1 0x40 MLOAD DUP1 SWAP2 SUB SWAP1 RETURN JUMPDEST PUSH2 0x113 PUSH2 0x3C2 JUMP JUMPDEST STOP JUMPDEST DUP1 PUSH1 0x0 DUP1 CALLER PUSH20 0xFFFFFFFFFFFFFFFFFFFFFFFFFFFFFFFFFFFFFFFF AND PUSH20 0xFFFFFFFFFFFFFFFFFFFFFFFFFFFFFFFFFFFFFFFF AND DUP2 MSTORE PUSH1 0x20 ADD SWAP1 DUP2 MSTORE PUSH1 0x20 ADD PUSH1 0x0 KECCAK256 SWAP1 DUP1 MLOAD SWAP1 PUSH1 0x20 ADD SWAP1 PUSH2 0x167 SWAP3 SWAP2 SWAP1 PUSH2 0x3C4 JUMP JUMPDEST POP POP JUMP JUMPDEST JUMP JUMPDEST PUSH1 0x1 PUSH1 0x20 MSTORE DUP1 PUSH1 0x0 MSTORE PUSH1 0x40 PUSH1 0x0 KECCAK256 PUSH1 0x0 SWAP2 POP SWAP1 POP DUP1 PUSH1 0x0 ADD DUP1 SLOAD PUSH2 0x190 SWAP1 PUSH2 0x7BE JUMP JUMPDEST DUP1 PUSH1 0x1F ADD PUSH1 0x20 DUP1 SWAP2 DIV MUL PUSH1 0x20 ADD PUSH1 0x40 MLOAD SWAP1 DUP2 ADD PUSH1 0x40 MSTORE DUP1 SWAP3 SWAP2 SWAP1 DUP2 DUP2 MSTORE PUSH1 0x20 ADD DUP3 DUP1 SLOAD PUSH2 0x1BC SWAP1 PUSH2 0x7BE JUMP JUMPDEST DUP1 ISZERO PUSH2 0x209 JUMPI DUP1 PUSH1 0x1F LT PUSH2 0x1DE JUMPI PUSH2 0x100 DUP1 DUP4 SLOAD DIV MUL DUP4 MSTORE SWAP2 PUSH1 0x20 ADD SWAP2 PUSH2 0x209 JUMP JUMPDEST DUP3 ADD SWAP2 SWAP1 PUSH1 0x0 MSTORE PUSH1 0x20 PUSH1 0x0 KECCAK256 SWAP1 JUMPDEST DUP2 SLOAD DUP2 MSTORE SWAP1 PUSH1 0x1 ADD SWAP1 PUSH1 0x20 ADD DUP1 DUP4 GT PUSH2 0x1EC JUMPI DUP3 SWAP1 SUB PUSH1 0x1F AND DUP3 ADD SWAP2 JUMPDEST POP POP POP POP POP SWAP1 DUP1 PUSH1 0x1 ADD SLOAD SWAP1 DUP1 PUSH1 0x2 ADD DUP1 SLOAD PUSH2 0x224 SWAP1 PUSH2 0x7BE JUMP JUMPDEST DUP1 PUSH1 0x1F ADD PUSH1 0x20 DUP1 SWAP2 DIV MUL PUSH1 0x20 ADD PUSH1 0x40 MLOAD SWAP1 DUP2 ADD PUSH1 0x40 MSTORE DUP1 SWAP3 SWAP2 SWAP1 DUP2 DUP2 MSTORE PUSH1 0x20 ADD DUP3 DUP1 SLOAD PUSH2 0x250 SWAP1 PUSH2 0x7BE JUMP JUMPDEST DUP1 ISZERO PUSH2 0x29D JUMPI DUP1 PUSH1 0x1F LT PUSH2 0x272 JUMPI PUSH2 0x100 DUP1 DUP4 SLOAD DIV MUL DUP4 MSTORE SWAP2 PUSH1 0x20 ADD SWAP2 PUSH2 0x29D JUMP JUMPDEST DUP3 ADD SWAP2 SWAP1 PUSH1 0x0 MSTORE PUSH1 0x20 PUSH1 0x0 KECCAK256 SWAP1 JUMPDEST DUP2 SLOAD DUP2 MSTORE SWAP1 PUSH1 0x1 ADD SWAP1 PUSH1 0x20 ADD DUP1 DUP4 GT PUSH2 0x280 JUMPI DUP3 SWAP1 SUB PUSH1 0x1F AND DUP3 ADD SWAP2 JUMPDEST POP POP POP POP POP SWAP1 POP DUP4 JUMP JUMPDEST PUSH1 0x40 MLOAD DUP1 PUSH1 0x60 ADD PUSH1 0x40 MSTORE DUP1 DUP5 DUP2 MSTORE PUSH1 0x20 ADD DUP4 DUP2 MSTORE PUSH1 0x20 ADD DUP3 DUP2 MSTORE POP PUSH1 0x1 PUSH1 0x0 DUP7 DUP2 MSTORE PUSH1 0x20 ADD SWAP1 DUP2 MSTORE PUSH1 0x20 ADD PUSH1 0x0 KECCAK256 PUSH1 0x0 DUP3 ADD MLOAD DUP2 PUSH1 0x0 ADD SWAP1 DUP1 MLOAD SWAP1 PUSH1 0x20 ADD SWAP1 PUSH2 0x2F1 SWAP3 SWAP2 SWAP1 PUSH2 0x3C4 JUMP JUMPDEST POP PUSH1 0x20 DUP3 ADD MLOAD DUP2 PUSH1 0x1 ADD SSTORE PUSH1 0x40 DUP3 ADD MLOAD DUP2 PUSH1 0x2 ADD SWAP1 DUP1 MLOAD SWAP1 PUSH1 0x20 ADD SWAP1 PUSH2 0x318 SWAP3 SWAP2 SWAP1 PUSH2 0x3C4 JUMP JUMPDEST POP SWAP1 POP POP POP POP POP POP JUMP JUMPDEST PUSH1 0x0 PUSH1 0x20 MSTORE DUP1 PUSH1 0x0 MSTORE PUSH1 0x40 PUSH1 0x0 KECCAK256 PUSH1 0x0 SWAP2 POP SWAP1 POP DUP1 SLOAD PUSH2 0x341 SWAP1 PUSH2 0x7BE JUMP JUMPDEST DUP1 PUSH1 0x1F ADD PUSH1 0x20 DUP1 SWAP2 DIV MUL PUSH1 0x20 ADD PUSH1 0x40 MLOAD SWAP1 DUP2 ADD PUSH1 0x40 MSTORE DUP1 SWAP3 SWAP2 SWAP1 DUP2 DUP2 MSTORE PUSH1 0x20 ADD DUP3 DUP1 SLOAD PUSH2 0x36D SWAP1 PUSH2 0x7BE JUMP JUMPDEST DUP1 ISZERO PUSH2 0x3BA JUMPI DUP1 PUSH1 0x1F LT PUSH2 0x38F JUMPI PUSH2 0x100 DUP1 DUP4 SLOAD DIV MUL DUP4 MSTORE SWAP2 PUSH1 0x20 ADD SWAP2 PUSH2 0x3BA JUMP JUMPDEST DUP3 ADD SWAP2 SWAP1 PUSH1 0x0 MSTORE PUSH1 0x20 PUSH1 0x0 KECCAK256 SWAP1 JUMPDEST DUP2 SLOAD DUP2 MSTORE SWAP1 PUSH1 0x1 ADD SWAP1 PUSH1 0x20 ADD DUP1 DUP4 GT PUSH2 0x39D JUMPI DUP3 SWAP1 SUB PUSH1 0x1F AND DUP3 ADD SWAP2 JUMPDEST POP POP POP POP POP DUP2 JUMP JUMPDEST JUMP JUMPDEST DUP3 DUP1 SLOAD PUSH2 0x3D0 SWAP1 PUSH2 0x7BE JUMP JUMPDEST SWAP1 PUSH1 0x0 MSTORE PUSH1 0x20 PUSH1 0x0 KECCAK256 SWAP1 PUSH1 0x1F ADD PUSH1 0x20 SWAP1 DIV DUP2 ADD SWAP3 DUP3 PUSH2 0x3F2 JUMPI PUSH1 0x0 DUP6 SSTORE PUSH2 0x439 JUMP JUMPDEST DUP3 PUSH1 0x1F LT PUSH2 0x40B JUMPI DUP1 MLOAD PUSH1 0xFF NOT AND DUP4 DUP1 ADD OR DUP6 SSTORE PUSH2 0x439 JUMP JUMPDEST DUP3 DUP1 ADD PUSH1 0x1 ADD DUP6 SSTORE DUP3 ISZERO PUSH2 0x439 JUMPI SWAP2 DUP3 ADD JUMPDEST DUP3 DUP2 GT ISZERO PUSH2 0x438 JUMPI DUP3 MLOAD DUP3 SSTORE SWAP2 PUSH1 0x20 ADD SWAP2 SWAP1 PUSH1 0x1 ADD SWAP1 PUSH2 0x41D JUMP JUMPDEST JUMPDEST POP SWAP1 POP PUSH2 0x446 SWAP2 SWAP1 PUSH2 0x44A JUMP JUMPDEST POP SWAP1 JUMP JUMPDEST JUMPDEST DUP1 DUP3 GT ISZERO PUSH2 0x463 JUMPI PUSH1 0x0 DUP2 PUSH1 0x0 SWAP1 SSTORE POP PUSH1 0x1 ADD PUSH2 0x44B JUMP JUMPDEST POP SWAP1 JUMP JUMPDEST PUSH1 0x0 PUSH2 0x47A PUSH2 0x475 DUP5 PUSH2 0x6F3 JUMP JUMPDEST PUSH2 0x6CE JUMP JUMPDEST SWAP1 POP DUP3 DUP2 MSTORE PUSH1 0x20 DUP2 ADD DUP5 DUP5 DUP5 ADD GT ISZERO PUSH2 0x492 JUMPI PUSH1 0x0 DUP1 REVERT JUMPDEST PUSH2 0x49D DUP5 DUP3 DUP6 PUSH2 0x77C JUMP JUMPDEST POP SWAP4 SWAP3 POP POP POP JUMP JUMPDEST PUSH1 0x0 DUP2 CALLDATALOAD SWAP1 POP PUSH2 0x4B4 DUP2 PUSH2 0x890 JUMP JUMPDEST SWAP3 SWAP2 POP POP JUMP JUMPDEST PUSH1 0x0 DUP3 PUSH1 0x1F DUP4 ADD SLT PUSH2 0x4CB JUMPI PUSH1 0x0 DUP1 REVERT JUMPDEST DUP2 CALLDATALOAD PUSH2 0x4DB DUP5 DUP3 PUSH1 0x20 DUP7 ADD PUSH2 0x467 JUMP JUMPDEST SWAP2 POP POP SWAP3 SWAP2 POP POP JUMP JUMPDEST PUSH1 0x0 DUP2 CALLDATALOAD SWAP1 POP PUSH2 0x4F3 DUP2 PUSH2 0x8A7 JUMP JUMPDEST SWAP3 SWAP2 POP POP JUMP JUMPDEST PUSH1 0x0 PUSH1 0x20 DUP3 DUP5 SUB SLT ISZERO PUSH2 0x50B JUMPI PUSH1 0x0 DUP1 REVERT JUMPDEST PUSH1 0x0 PUSH2 0x519 DUP5 DUP3 DUP6 ADD PUSH2 0x4A5 JUMP JUMPDEST SWAP2 POP POP SWAP3 SWAP2 POP POP JUMP JUMPDEST PUSH1 0x0 PUSH1 0x20 DUP3 DUP5 SUB SLT ISZERO PUSH2 0x534 JUMPI PUSH1 0x0 DUP1 REVERT JUMPDEST PUSH1 0x0 DUP3 ADD CALLDATALOAD PUSH8 0xFFFFFFFFFFFFFFFF DUP2 GT ISZERO PUSH2 0x54E JUMPI PUSH1 0x0 DUP1 REVERT JUMPDEST PUSH2 0x55A DUP5 DUP3 DUP6 ADD PUSH2 0x4BA JUMP JUMPDEST SWAP2 POP POP SWAP3 SWAP2 POP POP JUMP JUMPDEST PUSH1 0x0 PUSH1 0x20 DUP3 DUP5 SUB SLT ISZERO PUSH2 0x575 JUMPI PUSH1 0x0 DUP1 REVERT JUMPDEST PUSH1 0x0 PUSH2 0x583 DUP5 DUP3 DUP6 ADD PUSH2 0x4E4 JUMP JUMPDEST SWAP2 POP POP SWAP3 SWAP2 POP POP JUMP JUMPDEST PUSH1 0x0 DUP1 PUSH1 0x0 DUP1 PUSH1 0x80 DUP6 DUP8 SUB SLT ISZERO PUSH2 0x5A2 JUMPI PUSH1 0x0 DUP1 REVERT JUMPDEST PUSH1 0x0 PUSH2 0x5B0 DUP8 DUP3 DUP9 ADD PUSH2 0x4E4 JUMP JUMPDEST SWAP5 POP POP PUSH1 0x20 DUP6 ADD CALLDATALOAD PUSH8 0xFFFFFFFFFFFFFFFF DUP2 GT ISZERO PUSH2 0x5CD JUMPI PUSH1 0x0 DUP1 REVERT JUMPDEST PUSH2 0x5D9 DUP8 DUP3 DUP9 ADD PUSH2 0x4BA JUMP JUMPDEST SWAP4 POP POP PUSH1 0x40 PUSH2 0x5EA DUP8 DUP3 DUP9 ADD PUSH2 0x4E4 JUMP JUMPDEST SWAP3 POP POP PUSH1 0x60 DUP6 ADD CALLDATALOAD PUSH8 0xFFFFFFFFFFFFFFFF DUP2 GT ISZERO PUSH2 0x607 JUMPI PUSH1 0x0 DUP1 REVERT JUMPDEST PUSH2 0x613 DUP8 DUP3 DUP9 ADD PUSH2 0x4BA JUMP JUMPDEST SWAP2 POP POP SWAP3 SWAP6 SWAP2 SWAP5 POP SWAP3 POP JUMP JUMPDEST PUSH1 0x0 PUSH2 0x62A DUP3 PUSH2 0x724 JUMP JUMPDEST PUSH2 0x634 DUP2 DUP6 PUSH2 0x72F JUMP JUMPDEST SWAP4 POP PUSH2 0x644 DUP2 DUP6 PUSH1 0x20 DUP7 ADD PUSH2 0x78B JUMP JUMPDEST PUSH2 0x64D DUP2 PUSH2 0x87F JUMP JUMPDEST DUP5 ADD SWAP2 POP POP SWAP3 SWAP2 POP POP JUMP JUMPDEST PUSH2 0x661 DUP2 PUSH2 0x772 JUMP JUMPDEST DUP3 MSTORE POP POP JUMP JUMPDEST PUSH1 0x0 PUSH1 0x20 DUP3 ADD SWAP1 POP DUP2 DUP2 SUB PUSH1 0x0 DUP4 ADD MSTORE PUSH2 0x681 DUP2 DUP5 PUSH2 0x61F JUMP JUMPDEST SWAP1 POP SWAP3 SWAP2 POP POP JUMP JUMPDEST PUSH1 0x0 PUSH1 0x60 DUP3 ADD SWAP1 POP DUP2 DUP2 SUB PUSH1 0x0 DUP4 ADD MSTORE PUSH2 0x6A3 DUP2 DUP7 PUSH2 0x61F JUMP JUMPDEST SWAP1 POP PUSH2 0x6B2 PUSH1 0x20 DUP4 ADD DUP6 PUSH2 0x658 JUMP JUMPDEST DUP2 DUP2 SUB PUSH1 0x40 DUP4 ADD MSTORE PUSH2 0x6C4 DUP2 DUP5 PUSH2 0x61F JUMP JUMPDEST SWAP1 POP SWAP5 SWAP4 POP POP POP POP JUMP JUMPDEST PUSH1 0x0 PUSH2 0x6D8 PUSH2 0x6E9 JUMP JUMPDEST SWAP1 POP PUSH2 0x6E4 DUP3 DUP3 PUSH2 0x7F0 JUMP JUMPDEST SWAP2 SWAP1 POP JUMP JUMPDEST PUSH1 0x0 PUSH1 0x40 MLOAD SWAP1 POP SWAP1 JUMP JUMPDEST PUSH1 0x0 PUSH8 0xFFFFFFFFFFFFFFFF DUP3 GT ISZERO PUSH2 0x70E JUMPI PUSH2 0x70D PUSH2 0x850 JUMP JUMPDEST JUMPDEST PUSH2 0x717 DUP3 PUSH2 0x87F JUMP JUMPDEST SWAP1 POP PUSH1 0x20 DUP2 ADD SWAP1 POP SWAP2 SWAP1 POP JUMP JUMPDEST PUSH1 0x0 DUP2 MLOAD SWAP1 POP SWAP2 SWAP1 POP JUMP JUMPDEST PUSH1 0x0 DUP3 DUP3 MSTORE PUSH1 0x20 DUP3 ADD SWAP1 POP SWAP3 SWAP2 POP POP JUMP JUMPDEST PUSH1 0x0 PUSH2 0x74B DUP3 PUSH2 0x752 JUMP JUMPDEST SWAP1 POP SWAP2 SWAP1 POP JUMP JUMPDEST PUSH1 0x0 PUSH20 0xFFFFFFFFFFFFFFFFFFFFFFFFFFFFFFFFFFFFFFFF DUP3 AND SWAP1 POP SWAP2 SWAP1 POP JUMP JUMPDEST PUSH1 0x0 DUP2 SWAP1 POP SWAP2 SWAP1 POP JUMP JUMPDEST DUP3 DUP2 DUP4 CALLDATACOPY PUSH1 0x0 DUP4 DUP4 ADD MSTORE POP POP POP JUMP JUMPDEST PUSH1 0x0 JUMPDEST DUP4 DUP2 LT ISZERO PUSH2 0x7A9 JUMPI DUP1 DUP3 ADD MLOAD DUP2 DUP5 ADD MSTORE PUSH1 0x20 DUP2 ADD SWAP1 POP PUSH2 0x78E JUMP JUMPDEST DUP4 DUP2 GT ISZERO PUSH2 0x7B8 JUMPI PUSH1 0x0 DUP5 DUP5 ADD MSTORE JUMPDEST POP POP POP POP JUMP JUMPDEST PUSH1 0x0 PUSH1 0x2 DUP3 DIV SWAP1 POP PUSH1 0x1 DUP3 AND DUP1 PUSH2 0x7D6 JUMPI PUSH1 0x7F DUP3 AND SWAP2 POP JUMPDEST PUSH1 0x20 DUP3 LT DUP2 EQ ISZERO PUSH2 0x7EA JUMPI PUSH2 0x7E9 PUSH2 0x821 JUMP JUMPDEST JUMPDEST POP SWAP2 SWAP1 POP JUMP JUMPDEST PUSH2 0x7F9 DUP3 PUSH2 0x87F JUMP JUMPDEST DUP2 ADD DUP2 DUP2 LT PUSH8 0xFFFFFFFFFFFFFFFF DUP3 GT OR ISZERO PUSH2 0x818 JUMPI PUSH2 0x817 PUSH2 0x850 JUMP JUMPDEST JUMPDEST DUP1 PUSH1 0x40 MSTORE POP POP POP JUMP JUMPDEST PUSH32 0x4E487B7100000000000000000000000000000000000000000000000000000000 PUSH1 0x0 MSTORE PUSH1 0x22 PUSH1 0x4 MSTORE PUSH1 0x24 PUSH1 0x0 REVERT JUMPDEST PUSH32 0x4E487B7100000000000000000000000000000000000000000000000000000000 PUSH1 0x0 MSTORE PUSH1 0x41 PUSH1 0x4 MSTORE PUSH1 0x24 PUSH1 0x0 REVERT JUMPDEST PUSH1 0x0 PUSH1 0x1F NOT PUSH1 0x1F DUP4 ADD AND SWAP1 POP SWAP2 SWAP1 POP JUMP JUMPDEST PUSH2 0x899 DUP2 PUSH2 0x740 JUMP JUMPDEST DUP2 EQ PUSH2 0x8A4 JUMPI PUSH1 0x0 DUP1 REVERT JUMPDEST POP JUMP JUMPDEST PUSH2 0x8B0 DUP2 PUSH2 0x772 JUMP JUMPDEST DUP2 EQ PUSH2 0x8BB JUMPI PUSH1 0x0 DUP1 REVERT JUMPDEST POP JUMP INVALID LOG2 PUSH5 0x6970667358 0x22 SLT KECCAK256 0x5E 0xB6 PUSH29 0x29FD68B41933D93143270AB5BF8D9F807971DCD4F051FBD946AA94177B PUSH5 0x736F6C6343 STOP ADDMOD ADD STOP CALLER "
				},
				"gasEstimates": {
					"creation": {
						"codeDepositCost": "458400",
						"executionCost": "493",
						"totalCost": "458893"
					},
					"external": {
						"Assets(uint256)": "infinite",
						"Bidding()": "144",
						"Result()": "232",
						"Users(address)": "infinite",
						"addAsset(uint256,string,uint256,string)": "infinite",
						"addUser(string)": "infinite"
					}
				},
				"methodIdentifiers": {
					"Assets(uint256)": "4b4a80ba",
					"Bidding()": "3e8a0585",
					"Result()": "f4e5d599",
					"Users(address)": "99b956a0",
					"addAsset(uint256,string,uint256,string)": "8f3b1b91",
					"addUser(string)": "18b8275a"
				}
			},
			"storageLayout": {
				"storage": [
					{
						"astId": 12,
						"contract": "Auction.sol:Auction",
						"label": "Users",
						"offset": 0,
						"slot": "0",
						"type": "t_mapping(t_address,t_string_storage)"
					},
					{
						"astId": 17,
						"contract": "Auction.sol:Auction",
						"label": "Assets",
						"offset": 0,
						"slot": "1",
						"type": "t_mapping(t_uint256,t_struct(Asset)8_storage)"
					}
				],
				"types": {
					"t_address": {
						"encoding": "inplace",
						"label": "address",
						"numberOfBytes": "20"
					},
					"t_mapping(t_address,t_string_storage)": {
						"encoding": "mapping",
						"key": "t_address",
						"label": "mapping(address => string)",
						"numberOfBytes": "32",
						"value": "t_string_storage"
					},
					"t_mapping(t_uint256,t_struct(Asset)8_storage)": {
						"encoding": "mapping",
						"key": "t_uint256",
						"label": "mapping(uint256 => struct Auction.Asset)",
						"numberOfBytes": "32",
						"value": "t_struct(Asset)8_storage"
					},
					"t_string_storage": {
						"encoding": "bytes",
						"label": "string",
						"numberOfBytes": "32"
					},
					"t_struct(Asset)8_storage": {
						"encoding": "inplace",
						"label": "struct Auction.Asset",
						"members": [
							{
								"astId": 3,
								"contract": "Auction.sol:Auction",
								"label": "AssetName",
								"offset": 0,
								"slot": "0",
								"type": "t_string_storage"
							},
							{
								"astId": 5,
								"contract": "Auction.sol:Auction",
								"label": "AssetSP",
								"offset": 0,
								"slot": "1",
								"type": "t_uint256"
							},
							{
								"astId": 7,
								"contract": "Auction.sol:Auction",
								"label": "Owner",
								"offset": 0,
								"slot": "2",
								"type": "t_string_storage"
							}
						],
						"numberOfBytes": "96"
					},
					"t_uint256": {
						"encoding": "inplace",
						"label": "uint256",
						"numberOfBytes": "32"
					}
				}
			},
			"userdoc": {
				"kind": "user",
				"methods": {},
				"version": 1
			}
		}
	}
}