{
	"Auction.sol": {
		"Auction": {
			"abi": [
				{
					"inputs": [
						{
							"internalType": "uint256",
							"name": "",
							"type": "uint256"
						}
					],
					"name": "Assets",
					"outputs": [
						{
							"internalType": "string",
							"name": "AssetName",
							"type": "string"
						},
						{
							"internalType": "uint256",
							"name": "AssetSP",
							"type": "uint256"
						},
						{
							"internalType": "string",
							"name": "Owner",
							"type": "string"
						}
					],
					"stateMutability": "view",
					"type": "function"
				},
				{
					"inputs": [
						{
							"internalType": "uint256",
							"name": "",
							"type": "uint256"
						}
					],
					"name": "Users",
					"outputs": [
						{
							"internalType": "string",
							"name": "",
							"type": "string"
						}
					],
					"stateMutability": "view",
					"type": "function"
				},
				{
					"inputs": [
						{
							"internalType": "uint256",
							"name": "aId",
							"type": "uint256"
						},
						{
							"internalType": "string",
							"name": "aName",
							"type": "string"
						},
						{
							"internalType": "uint256",
							"name": "aSP",
							"type": "uint256"
						},
						{
							"internalType": "string",
							"name": "aOwner",
							"type": "string"
						}
					],
					"name": "addAsset",
					"outputs": [],
					"stateMutability": "nonpayable",
					"type": "function"
				},
				{
					"inputs": [
						{
							"internalType": "uint256",
							"name": "UserId",
							"type": "uint256"
						},
						{
							"internalType": "string",
							"name": "Name",
							"type": "string"
						}
					],
					"name": "addUser",
					"outputs": [],
					"stateMutability": "nonpayable",
					"type": "function"
				}
			],
			"devdoc": {
				"kind": "dev",
				"methods": {},
				"version": 1
			},
			"evm": {
				"assembly": "    /* \"Auction.sol\":65:641  contract Auction {\r... */\n  mstore(0x40, 0x80)\n  callvalue\n  dup1\n  iszero\n  tag_1\n  jumpi\n  0x00\n  dup1\n  revert\ntag_1:\n  pop\n  dataSize(sub_0)\n  dup1\n  dataOffset(sub_0)\n  0x00\n  codecopy\n  0x00\n  return\nstop\n\nsub_0: assembly {\n        /* \"Auction.sol\":65:641  contract Auction {\r... */\n      mstore(0x40, 0x80)\n      callvalue\n      dup1\n      iszero\n      tag_1\n      jumpi\n      0x00\n      dup1\n      revert\n    tag_1:\n      pop\n      jumpi(tag_2, lt(calldatasize, 0x04))\n      shr(0xe0, calldataload(0x00))\n      dup1\n      0x1e98fd1c\n      eq\n      tag_3\n      jumpi\n      dup1\n      0x4b4a80ba\n      eq\n      tag_4\n      jumpi\n      dup1\n      0x8f3b1b91\n      eq\n      tag_5\n      jumpi\n      dup1\n      0xd51af2bf\n      eq\n      tag_6\n      jumpi\n    tag_2:\n      0x00\n      dup1\n      revert\n        /* \"Auction.sol\":195:231  mapping(uint => string) public Users */\n    tag_3:\n      tag_7\n      0x04\n      dup1\n      calldatasize\n      sub\n      dup2\n      add\n      swap1\n      tag_8\n      swap2\n      swap1\n      tag_9\n      jump\t// in\n    tag_8:\n      tag_10\n      jump\t// in\n    tag_7:\n      mload(0x40)\n      tag_11\n      swap2\n      swap1\n      tag_12\n      jump\t// in\n    tag_11:\n      mload(0x40)\n      dup1\n      swap2\n      sub\n      swap1\n      return\n        /* \"Auction.sol\":238:274  mapping(uint => Asset) public Assets */\n    tag_4:\n      tag_13\n      0x04\n      dup1\n      calldatasize\n      sub\n      dup2\n      add\n      swap1\n      tag_14\n      swap2\n      swap1\n      tag_9\n      jump\t// in\n    tag_14:\n      tag_15\n      jump\t// in\n    tag_13:\n      mload(0x40)\n      tag_16\n      swap4\n      swap3\n      swap2\n      swap1\n      tag_17\n      jump\t// in\n    tag_16:\n      mload(0x40)\n      dup1\n      swap2\n      sub\n      swap1\n      return\n        /* \"Auction.sol\":387:533  function addAsset(uint aId, string memory aName, uint aSP, string memory aOwner) public {\r... */\n    tag_5:\n      tag_18\n      0x04\n      dup1\n      calldatasize\n      sub\n      dup2\n      add\n      swap1\n      tag_19\n      swap2\n      swap1\n      tag_20\n      jump\t// in\n    tag_19:\n      tag_21\n      jump\t// in\n    tag_18:\n      stop\n        /* \"Auction.sol\":283:379  function addUser(uint UserId, string memory Name) public {\r... */\n    tag_6:\n      tag_22\n      0x04\n      dup1\n      calldatasize\n      sub\n      dup2\n      add\n      swap1\n      tag_23\n      swap2\n      swap1\n      tag_24\n      jump\t// in\n    tag_23:\n      tag_25\n      jump\t// in\n    tag_22:\n      stop\n        /* \"Auction.sol\":195:231  mapping(uint => string) public Users */\n    tag_10:\n      mstore(0x20, 0x00)\n      dup1\n      0x00\n      mstore\n      keccak256(0x00, 0x40)\n      0x00\n      swap2\n      pop\n      swap1\n      pop\n      dup1\n      sload\n      tag_26\n      swap1\n      tag_27\n      jump\t// in\n    tag_26:\n      dup1\n      0x1f\n      add\n      0x20\n      dup1\n      swap2\n      div\n      mul\n      0x20\n      add\n      mload(0x40)\n      swap1\n      dup2\n      add\n      0x40\n      mstore\n      dup1\n      swap3\n      swap2\n      swap1\n      dup2\n      dup2\n      mstore\n      0x20\n      add\n      dup3\n      dup1\n      sload\n      tag_28\n      swap1\n      tag_27\n      jump\t// in\n    tag_28:\n      dup1\n      iszero\n      tag_29\n      jumpi\n      dup1\n      0x1f\n      lt\n      tag_30\n      jumpi\n      0x0100\n      dup1\n      dup4\n      sload\n      div\n      mul\n      dup4\n      mstore\n      swap2\n      0x20\n      add\n      swap2\n      jump(tag_29)\n    tag_30:\n      dup3\n      add\n      swap2\n      swap1\n      0x00\n      mstore\n      keccak256(0x00, 0x20)\n      swap1\n    tag_31:\n      dup2\n      sload\n      dup2\n      mstore\n      swap1\n      0x01\n      add\n      swap1\n      0x20\n      add\n      dup1\n      dup4\n      gt\n      tag_31\n      jumpi\n      dup3\n      swap1\n      sub\n      0x1f\n      and\n      dup3\n      add\n      swap2\n    tag_29:\n      pop\n      pop\n      pop\n      pop\n      pop\n      dup2\n      jump\t// out\n        /* \"Auction.sol\":238:274  mapping(uint => Asset) public Assets */\n    tag_15:\n      mstore(0x20, 0x01)\n      dup1\n      0x00\n      mstore\n      keccak256(0x00, 0x40)\n      0x00\n      swap2\n      pop\n      swap1\n      pop\n      dup1\n      0x00\n      add\n      dup1\n      sload\n      tag_32\n      swap1\n      tag_27\n      jump\t// in\n    tag_32:\n      dup1\n      0x1f\n      add\n      0x20\n      dup1\n      swap2\n      div\n      mul\n      0x20\n      add\n      mload(0x40)\n      swap1\n      dup2\n      add\n      0x40\n      mstore\n      dup1\n      swap3\n      swap2\n      swap1\n      dup2\n      dup2\n      mstore\n      0x20\n      add\n      dup3\n      dup1\n      sload\n      tag_33\n      swap1\n      tag_27\n      jump\t// in\n    tag_33:\n      dup1\n      iszero\n      tag_34\n      jumpi\n      dup1\n      0x1f\n      lt\n      tag_35\n      jumpi\n      0x0100\n      dup1\n      dup4\n      sload\n      div\n      mul\n      dup4\n      mstore\n      swap2\n      0x20\n      add\n      swap2\n      jump(tag_34)\n    tag_35:\n      dup3\n      add\n      swap2\n      swap1\n      0x00\n      mstore\n      keccak256(0x00, 0x20)\n      swap1\n    tag_36:\n      dup2\n      sload\n      dup2\n      mstore\n      swap1\n      0x01\n      add\n      swap1\n      0x20\n      add\n      dup1\n      dup4\n      gt\n      tag_36\n      jumpi\n      dup3\n      swap1\n      sub\n      0x1f\n      and\n      dup3\n      add\n      swap2\n    tag_34:\n      pop\n      pop\n      pop\n      pop\n      pop\n      swap1\n      dup1\n      0x01\n      add\n      sload\n      swap1\n      dup1\n      0x02\n      add\n      dup1\n      sload\n      tag_37\n      swap1\n      tag_27\n      jump\t// in\n    tag_37:\n      dup1\n      0x1f\n      add\n      0x20\n      dup1\n      swap2\n      div\n      mul\n      0x20\n      add\n      mload(0x40)\n      swap1\n      dup2\n      add\n      0x40\n      mstore\n      dup1\n      swap3\n      swap2\n      swap1\n      dup2\n      dup2\n      mstore\n      0x20\n      add\n      dup3\n      dup1\n      sload\n      tag_38\n      swap1\n      tag_27\n      jump\t// in\n    tag_38:\n      dup1\n      iszero\n      tag_39\n      jumpi\n      dup1\n      0x1f\n      lt\n      tag_40\n      jumpi\n      0x0100\n      dup1\n      dup4\n      sload\n      div\n      mul\n      dup4\n      mstore\n      swap2\n      0x20\n      add\n      swap2\n      jump(tag_39)\n    tag_40:\n      dup3\n      add\n      swap2\n      swap1\n      0x00\n      mstore\n      keccak256(0x00, 0x20)\n      swap1\n    tag_41:\n      dup2\n      sload\n      dup2\n      mstore\n      swap1\n      0x01\n      add\n      swap1\n      0x20\n      add\n      dup1\n      dup4\n      gt\n      tag_41\n      jumpi\n      dup3\n      swap1\n      sub\n      0x1f\n      and\n      dup3\n      add\n      swap2\n    tag_39:\n      pop\n      pop\n      pop\n      pop\n      pop\n      swap1\n      pop\n      dup4\n      jump\t// out\n        /* \"Auction.sol\":387:533  function addAsset(uint aId, string memory aName, uint aSP, string memory aOwner) public {\r... */\n    tag_21:\n        /* \"Auction.sol\":500:525  Asset(aName, aSP, aOwner) */\n      mload(0x40)\n      dup1\n      0x60\n      add\n      0x40\n      mstore\n      dup1\n        /* \"Auction.sol\":506:511  aName */\n      dup5\n        /* \"Auction.sol\":500:525  Asset(aName, aSP, aOwner) */\n      dup2\n      mstore\n      0x20\n      add\n        /* \"Auction.sol\":513:516  aSP */\n      dup4\n        /* \"Auction.sol\":500:525  Asset(aName, aSP, aOwner) */\n      dup2\n      mstore\n      0x20\n      add\n        /* \"Auction.sol\":518:524  aOwner */\n      dup3\n        /* \"Auction.sol\":500:525  Asset(aName, aSP, aOwner) */\n      dup2\n      mstore\n      pop\n        /* \"Auction.sol\":486:492  Assets */\n      0x01\n        /* \"Auction.sol\":486:497  Assets[aId] */\n      0x00\n        /* \"Auction.sol\":493:496  aId */\n      dup7\n        /* \"Auction.sol\":486:497  Assets[aId] */\n      dup2\n      mstore\n      0x20\n      add\n      swap1\n      dup2\n      mstore\n      0x20\n      add\n      0x00\n      keccak256\n        /* \"Auction.sol\":486:525  Assets[aId] = Asset(aName, aSP, aOwner) */\n      0x00\n      dup3\n      add\n      mload\n      dup2\n      0x00\n      add\n      swap1\n      dup1\n      mload\n      swap1\n      0x20\n      add\n      swap1\n      tag_43\n      swap3\n      swap2\n      swap1\n      tag_44\n      jump\t// in\n    tag_43:\n      pop\n      0x20\n      dup3\n      add\n      mload\n      dup2\n      0x01\n      add\n      sstore\n      0x40\n      dup3\n      add\n      mload\n      dup2\n      0x02\n      add\n      swap1\n      dup1\n      mload\n      swap1\n      0x20\n      add\n      swap1\n      tag_45\n      swap3\n      swap2\n      swap1\n      tag_44\n      jump\t// in\n    tag_45:\n      pop\n      swap1\n      pop\n      pop\n        /* \"Auction.sol\":387:533  function addAsset(uint aId, string memory aName, uint aSP, string memory aOwner) public {\r... */\n      pop\n      pop\n      pop\n      pop\n      jump\t// out\n        /* \"Auction.sol\":283:379  function addUser(uint UserId, string memory Name) public {\r... */\n    tag_25:\n        /* \"Auction.sol\":367:371  Name */\n      dup1\n        /* \"Auction.sol\":351:356  Users */\n      0x00\n        /* \"Auction.sol\":351:364  Users[UserId] */\n      dup1\n        /* \"Auction.sol\":357:363  UserId */\n      dup5\n        /* \"Auction.sol\":351:364  Users[UserId] */\n      dup2\n      mstore\n      0x20\n      add\n      swap1\n      dup2\n      mstore\n      0x20\n      add\n      0x00\n      keccak256\n        /* \"Auction.sol\":351:371  Users[UserId] = Name */\n      swap1\n      dup1\n      mload\n      swap1\n      0x20\n      add\n      swap1\n      tag_47\n      swap3\n      swap2\n      swap1\n      tag_44\n      jump\t// in\n    tag_47:\n      pop\n        /* \"Auction.sol\":283:379  function addUser(uint UserId, string memory Name) public {\r... */\n      pop\n      pop\n      jump\t// out\n    tag_44:\n      dup3\n      dup1\n      sload\n      tag_48\n      swap1\n      tag_27\n      jump\t// in\n    tag_48:\n      swap1\n      0x00\n      mstore\n      keccak256(0x00, 0x20)\n      swap1\n      0x1f\n      add\n      0x20\n      swap1\n      div\n      dup2\n      add\n      swap3\n      dup3\n      tag_50\n      jumpi\n      0x00\n      dup6\n      sstore\n      jump(tag_49)\n    tag_50:\n      dup3\n      0x1f\n      lt\n      tag_51\n      jumpi\n      dup1\n      mload\n      not(0xff)\n      and\n      dup4\n      dup1\n      add\n      or\n      dup6\n      sstore\n      jump(tag_49)\n    tag_51:\n      dup3\n      dup1\n      add\n      0x01\n      add\n      dup6\n      sstore\n      dup3\n      iszero\n      tag_49\n      jumpi\n      swap2\n      dup3\n      add\n    tag_52:\n      dup3\n      dup2\n      gt\n      iszero\n      tag_53\n      jumpi\n      dup3\n      mload\n      dup3\n      sstore\n      swap2\n      0x20\n      add\n      swap2\n      swap1\n      0x01\n      add\n      swap1\n      jump(tag_52)\n    tag_53:\n    tag_49:\n      pop\n      swap1\n      pop\n      tag_54\n      swap2\n      swap1\n      tag_55\n      jump\t// in\n    tag_54:\n      pop\n      swap1\n      jump\t// out\n    tag_55:\n    tag_56:\n      dup1\n      dup3\n      gt\n      iszero\n      tag_57\n      jumpi\n      0x00\n      dup2\n      0x00\n      swap1\n      sstore\n      pop\n      0x01\n      add\n      jump(tag_56)\n    tag_57:\n      pop\n      swap1\n      jump\t// out\n        /* \"#utility.yul\":7:352   */\n    tag_59:\n      0x00\n        /* \"#utility.yul\":110:176   */\n      tag_61\n        /* \"#utility.yul\":126:175   */\n      tag_62\n        /* \"#utility.yul\":168:174   */\n      dup5\n        /* \"#utility.yul\":126:175   */\n      tag_63\n      jump\t// in\n    tag_62:\n        /* \"#utility.yul\":110:176   */\n      tag_64\n      jump\t// in\n    tag_61:\n        /* \"#utility.yul\":101:176   */\n      swap1\n      pop\n        /* \"#utility.yul\":199:205   */\n      dup3\n        /* \"#utility.yul\":192:197   */\n      dup2\n        /* \"#utility.yul\":185:206   */\n      mstore\n        /* \"#utility.yul\":237:241   */\n      0x20\n        /* \"#utility.yul\":230:235   */\n      dup2\n        /* \"#utility.yul\":226:242   */\n      add\n        /* \"#utility.yul\":275:278   */\n      dup5\n        /* \"#utility.yul\":266:272   */\n      dup5\n        /* \"#utility.yul\":261:264   */\n      dup5\n        /* \"#utility.yul\":257:273   */\n      add\n        /* \"#utility.yul\":254:279   */\n      gt\n        /* \"#utility.yul\":251:253   */\n      iszero\n      tag_65\n      jumpi\n        /* \"#utility.yul\":292:293   */\n      0x00\n        /* \"#utility.yul\":289:290   */\n      dup1\n        /* \"#utility.yul\":282:294   */\n      revert\n        /* \"#utility.yul\":251:253   */\n    tag_65:\n        /* \"#utility.yul\":305:346   */\n      tag_66\n        /* \"#utility.yul\":339:345   */\n      dup5\n        /* \"#utility.yul\":334:337   */\n      dup3\n        /* \"#utility.yul\":329:332   */\n      dup6\n        /* \"#utility.yul\":305:346   */\n      tag_67\n      jump\t// in\n    tag_66:\n        /* \"#utility.yul\":91:352   */\n      pop\n      swap4\n      swap3\n      pop\n      pop\n      pop\n      jump\t// out\n        /* \"#utility.yul\":372:645   */\n    tag_68:\n      0x00\n        /* \"#utility.yul\":477:480   */\n      dup3\n        /* \"#utility.yul\":470:474   */\n      0x1f\n        /* \"#utility.yul\":462:468   */\n      dup4\n        /* \"#utility.yul\":458:475   */\n      add\n        /* \"#utility.yul\":454:481   */\n      slt\n        /* \"#utility.yul\":444:446   */\n      tag_70\n      jumpi\n        /* \"#utility.yul\":495:496   */\n      0x00\n        /* \"#utility.yul\":492:493   */\n      dup1\n        /* \"#utility.yul\":485:497   */\n      revert\n        /* \"#utility.yul\":444:446   */\n    tag_70:\n        /* \"#utility.yul\":535:541   */\n      dup2\n        /* \"#utility.yul\":522:542   */\n      calldataload\n        /* \"#utility.yul\":560:639   */\n      tag_71\n        /* \"#utility.yul\":635:638   */\n      dup5\n        /* \"#utility.yul\":627:633   */\n      dup3\n        /* \"#utility.yul\":620:624   */\n      0x20\n        /* \"#utility.yul\":612:618   */\n      dup7\n        /* \"#utility.yul\":608:625   */\n      add\n        /* \"#utility.yul\":560:639   */\n      tag_59\n      jump\t// in\n    tag_71:\n        /* \"#utility.yul\":551:639   */\n      swap2\n      pop\n        /* \"#utility.yul\":434:645   */\n      pop\n      swap3\n      swap2\n      pop\n      pop\n      jump\t// out\n        /* \"#utility.yul\":651:790   */\n    tag_72:\n      0x00\n        /* \"#utility.yul\":735:741   */\n      dup2\n        /* \"#utility.yul\":722:742   */\n      calldataload\n        /* \"#utility.yul\":713:742   */\n      swap1\n      pop\n        /* \"#utility.yul\":751:784   */\n      tag_74\n        /* \"#utility.yul\":778:783   */\n      dup2\n        /* \"#utility.yul\":751:784   */\n      tag_75\n      jump\t// in\n    tag_74:\n        /* \"#utility.yul\":703:790   */\n      swap3\n      swap2\n      pop\n      pop\n      jump\t// out\n        /* \"#utility.yul\":796:1058   */\n    tag_9:\n      0x00\n        /* \"#utility.yul\":904:906   */\n      0x20\n        /* \"#utility.yul\":892:901   */\n      dup3\n        /* \"#utility.yul\":883:890   */\n      dup5\n        /* \"#utility.yul\":879:902   */\n      sub\n        /* \"#utility.yul\":875:907   */\n      slt\n        /* \"#utility.yul\":872:874   */\n      iszero\n      tag_77\n      jumpi\n        /* \"#utility.yul\":920:921   */\n      0x00\n        /* \"#utility.yul\":917:918   */\n      dup1\n        /* \"#utility.yul\":910:922   */\n      revert\n        /* \"#utility.yul\":872:874   */\n    tag_77:\n        /* \"#utility.yul\":963:964   */\n      0x00\n        /* \"#utility.yul\":988:1041   */\n      tag_78\n        /* \"#utility.yul\":1033:1040   */\n      dup5\n        /* \"#utility.yul\":1024:1030   */\n      dup3\n        /* \"#utility.yul\":1013:1022   */\n      dup6\n        /* \"#utility.yul\":1009:1031   */\n      add\n        /* \"#utility.yul\":988:1041   */\n      tag_72\n      jump\t// in\n    tag_78:\n        /* \"#utility.yul\":978:1041   */\n      swap2\n      pop\n        /* \"#utility.yul\":934:1051   */\n      pop\n        /* \"#utility.yul\":862:1058   */\n      swap3\n      swap2\n      pop\n      pop\n      jump\t// out\n        /* \"#utility.yul\":1064:1584   */\n    tag_24:\n      0x00\n      dup1\n        /* \"#utility.yul\":1199:1201   */\n      0x40\n        /* \"#utility.yul\":1187:1196   */\n      dup4\n        /* \"#utility.yul\":1178:1185   */\n      dup6\n        /* \"#utility.yul\":1174:1197   */\n      sub\n        /* \"#utility.yul\":1170:1202   */\n      slt\n        /* \"#utility.yul\":1167:1169   */\n      iszero\n      tag_80\n      jumpi\n        /* \"#utility.yul\":1215:1216   */\n      0x00\n        /* \"#utility.yul\":1212:1213   */\n      dup1\n        /* \"#utility.yul\":1205:1217   */\n      revert\n        /* \"#utility.yul\":1167:1169   */\n    tag_80:\n        /* \"#utility.yul\":1258:1259   */\n      0x00\n        /* \"#utility.yul\":1283:1336   */\n      tag_81\n        /* \"#utility.yul\":1328:1335   */\n      dup6\n        /* \"#utility.yul\":1319:1325   */\n      dup3\n        /* \"#utility.yul\":1308:1317   */\n      dup7\n        /* \"#utility.yul\":1304:1326   */\n      add\n        /* \"#utility.yul\":1283:1336   */\n      tag_72\n      jump\t// in\n    tag_81:\n        /* \"#utility.yul\":1273:1336   */\n      swap3\n      pop\n        /* \"#utility.yul\":1229:1346   */\n      pop\n        /* \"#utility.yul\":1413:1415   */\n      0x20\n        /* \"#utility.yul\":1402:1411   */\n      dup4\n        /* \"#utility.yul\":1398:1416   */\n      add\n        /* \"#utility.yul\":1385:1417   */\n      calldataload\n        /* \"#utility.yul\":1444:1462   */\n      0xffffffffffffffff\n        /* \"#utility.yul\":1436:1442   */\n      dup2\n        /* \"#utility.yul\":1433:1463   */\n      gt\n        /* \"#utility.yul\":1430:1432   */\n      iszero\n      tag_82\n      jumpi\n        /* \"#utility.yul\":1476:1477   */\n      0x00\n        /* \"#utility.yul\":1473:1474   */\n      dup1\n        /* \"#utility.yul\":1466:1478   */\n      revert\n        /* \"#utility.yul\":1430:1432   */\n    tag_82:\n        /* \"#utility.yul\":1504:1567   */\n      tag_83\n        /* \"#utility.yul\":1559:1566   */\n      dup6\n        /* \"#utility.yul\":1550:1556   */\n      dup3\n        /* \"#utility.yul\":1539:1548   */\n      dup7\n        /* \"#utility.yul\":1535:1557   */\n      add\n        /* \"#utility.yul\":1504:1567   */\n      tag_68\n      jump\t// in\n    tag_83:\n        /* \"#utility.yul\":1494:1567   */\n      swap2\n      pop\n        /* \"#utility.yul\":1356:1577   */\n      pop\n        /* \"#utility.yul\":1157:1584   */\n      swap3\n      pop\n      swap3\n      swap1\n      pop\n      jump\t// out\n        /* \"#utility.yul\":1590:2514   */\n    tag_20:\n      0x00\n      dup1\n      0x00\n      dup1\n        /* \"#utility.yul\":1769:1772   */\n      0x80\n        /* \"#utility.yul\":1757:1766   */\n      dup6\n        /* \"#utility.yul\":1748:1755   */\n      dup8\n        /* \"#utility.yul\":1744:1767   */\n      sub\n        /* \"#utility.yul\":1740:1773   */\n      slt\n        /* \"#utility.yul\":1737:1739   */\n      iszero\n      tag_85\n      jumpi\n        /* \"#utility.yul\":1786:1787   */\n      0x00\n        /* \"#utility.yul\":1783:1784   */\n      dup1\n        /* \"#utility.yul\":1776:1788   */\n      revert\n        /* \"#utility.yul\":1737:1739   */\n    tag_85:\n        /* \"#utility.yul\":1829:1830   */\n      0x00\n        /* \"#utility.yul\":1854:1907   */\n      tag_86\n        /* \"#utility.yul\":1899:1906   */\n      dup8\n        /* \"#utility.yul\":1890:1896   */\n      dup3\n        /* \"#utility.yul\":1879:1888   */\n      dup9\n        /* \"#utility.yul\":1875:1897   */\n      add\n        /* \"#utility.yul\":1854:1907   */\n      tag_72\n      jump\t// in\n    tag_86:\n        /* \"#utility.yul\":1844:1907   */\n      swap5\n      pop\n        /* \"#utility.yul\":1800:1917   */\n      pop\n        /* \"#utility.yul\":1984:1986   */\n      0x20\n        /* \"#utility.yul\":1973:1982   */\n      dup6\n        /* \"#utility.yul\":1969:1987   */\n      add\n        /* \"#utility.yul\":1956:1988   */\n      calldataload\n        /* \"#utility.yul\":2015:2033   */\n      0xffffffffffffffff\n        /* \"#utility.yul\":2007:2013   */\n      dup2\n        /* \"#utility.yul\":2004:2034   */\n      gt\n        /* \"#utility.yul\":2001:2003   */\n      iszero\n      tag_87\n      jumpi\n        /* \"#utility.yul\":2047:2048   */\n      0x00\n        /* \"#utility.yul\":2044:2045   */\n      dup1\n        /* \"#utility.yul\":2037:2049   */\n      revert\n        /* \"#utility.yul\":2001:2003   */\n    tag_87:\n        /* \"#utility.yul\":2075:2138   */\n      tag_88\n        /* \"#utility.yul\":2130:2137   */\n      dup8\n        /* \"#utility.yul\":2121:2127   */\n      dup3\n        /* \"#utility.yul\":2110:2119   */\n      dup9\n        /* \"#utility.yul\":2106:2128   */\n      add\n        /* \"#utility.yul\":2075:2138   */\n      tag_68\n      jump\t// in\n    tag_88:\n        /* \"#utility.yul\":2065:2138   */\n      swap4\n      pop\n        /* \"#utility.yul\":1927:2148   */\n      pop\n        /* \"#utility.yul\":2187:2189   */\n      0x40\n        /* \"#utility.yul\":2213:2266   */\n      tag_89\n        /* \"#utility.yul\":2258:2265   */\n      dup8\n        /* \"#utility.yul\":2249:2255   */\n      dup3\n        /* \"#utility.yul\":2238:2247   */\n      dup9\n        /* \"#utility.yul\":2234:2256   */\n      add\n        /* \"#utility.yul\":2213:2266   */\n      tag_72\n      jump\t// in\n    tag_89:\n        /* \"#utility.yul\":2203:2266   */\n      swap3\n      pop\n        /* \"#utility.yul\":2158:2276   */\n      pop\n        /* \"#utility.yul\":2343:2345   */\n      0x60\n        /* \"#utility.yul\":2332:2341   */\n      dup6\n        /* \"#utility.yul\":2328:2346   */\n      add\n        /* \"#utility.yul\":2315:2347   */\n      calldataload\n        /* \"#utility.yul\":2374:2392   */\n      0xffffffffffffffff\n        /* \"#utility.yul\":2366:2372   */\n      dup2\n        /* \"#utility.yul\":2363:2393   */\n      gt\n        /* \"#utility.yul\":2360:2362   */\n      iszero\n      tag_90\n      jumpi\n        /* \"#utility.yul\":2406:2407   */\n      0x00\n        /* \"#utility.yul\":2403:2404   */\n      dup1\n        /* \"#utility.yul\":2396:2408   */\n      revert\n        /* \"#utility.yul\":2360:2362   */\n    tag_90:\n        /* \"#utility.yul\":2434:2497   */\n      tag_91\n        /* \"#utility.yul\":2489:2496   */\n      dup8\n        /* \"#utility.yul\":2480:2486   */\n      dup3\n        /* \"#utility.yul\":2469:2478   */\n      dup9\n        /* \"#utility.yul\":2465:2487   */\n      add\n        /* \"#utility.yul\":2434:2497   */\n      tag_68\n      jump\t// in\n    tag_91:\n        /* \"#utility.yul\":2424:2497   */\n      swap2\n      pop\n        /* \"#utility.yul\":2286:2507   */\n      pop\n        /* \"#utility.yul\":1727:2514   */\n      swap3\n      swap6\n      swap2\n      swap5\n      pop\n      swap3\n      pop\n      jump\t// out\n        /* \"#utility.yul\":2520:2884   */\n    tag_92:\n      0x00\n        /* \"#utility.yul\":2636:2675   */\n      tag_94\n        /* \"#utility.yul\":2669:2674   */\n      dup3\n        /* \"#utility.yul\":2636:2675   */\n      tag_95\n      jump\t// in\n    tag_94:\n        /* \"#utility.yul\":2691:2762   */\n      tag_96\n        /* \"#utility.yul\":2755:2761   */\n      dup2\n        /* \"#utility.yul\":2750:2753   */\n      dup6\n        /* \"#utility.yul\":2691:2762   */\n      tag_97\n      jump\t// in\n    tag_96:\n        /* \"#utility.yul\":2684:2762   */\n      swap4\n      pop\n        /* \"#utility.yul\":2771:2823   */\n      tag_98\n        /* \"#utility.yul\":2816:2822   */\n      dup2\n        /* \"#utility.yul\":2811:2814   */\n      dup6\n        /* \"#utility.yul\":2804:2808   */\n      0x20\n        /* \"#utility.yul\":2797:2802   */\n      dup7\n        /* \"#utility.yul\":2793:2809   */\n      add\n        /* \"#utility.yul\":2771:2823   */\n      tag_99\n      jump\t// in\n    tag_98:\n        /* \"#utility.yul\":2848:2877   */\n      tag_100\n        /* \"#utility.yul\":2870:2876   */\n      dup2\n        /* \"#utility.yul\":2848:2877   */\n      tag_101\n      jump\t// in\n    tag_100:\n        /* \"#utility.yul\":2843:2846   */\n      dup5\n        /* \"#utility.yul\":2839:2878   */\n      add\n        /* \"#utility.yul\":2832:2878   */\n      swap2\n      pop\n        /* \"#utility.yul\":2612:2884   */\n      pop\n      swap3\n      swap2\n      pop\n      pop\n      jump\t// out\n        /* \"#utility.yul\":2890:3008   */\n    tag_102:\n        /* \"#utility.yul\":2977:3001   */\n      tag_104\n        /* \"#utility.yul\":2995:3000   */\n      dup2\n        /* \"#utility.yul\":2977:3001   */\n      tag_105\n      jump\t// in\n    tag_104:\n        /* \"#utility.yul\":2972:2975   */\n      dup3\n        /* \"#utility.yul\":2965:3002   */\n      mstore\n        /* \"#utility.yul\":2955:3008   */\n      pop\n      pop\n      jump\t// out\n        /* \"#utility.yul\":3014:3327   */\n    tag_12:\n      0x00\n        /* \"#utility.yul\":3165:3167   */\n      0x20\n        /* \"#utility.yul\":3154:3163   */\n      dup3\n        /* \"#utility.yul\":3150:3168   */\n      add\n        /* \"#utility.yul\":3142:3168   */\n      swap1\n      pop\n        /* \"#utility.yul\":3214:3223   */\n      dup2\n        /* \"#utility.yul\":3208:3212   */\n      dup2\n        /* \"#utility.yul\":3204:3224   */\n      sub\n        /* \"#utility.yul\":3200:3201   */\n      0x00\n        /* \"#utility.yul\":3189:3198   */\n      dup4\n        /* \"#utility.yul\":3185:3202   */\n      add\n        /* \"#utility.yul\":3178:3225   */\n      mstore\n        /* \"#utility.yul\":3242:3320   */\n      tag_107\n        /* \"#utility.yul\":3315:3319   */\n      dup2\n        /* \"#utility.yul\":3306:3312   */\n      dup5\n        /* \"#utility.yul\":3242:3320   */\n      tag_92\n      jump\t// in\n    tag_107:\n        /* \"#utility.yul\":3234:3320   */\n      swap1\n      pop\n        /* \"#utility.yul\":3132:3327   */\n      swap3\n      swap2\n      pop\n      pop\n      jump\t// out\n        /* \"#utility.yul\":3333:3957   */\n    tag_17:\n      0x00\n        /* \"#utility.yul\":3560:3562   */\n      0x60\n        /* \"#utility.yul\":3549:3558   */\n      dup3\n        /* \"#utility.yul\":3545:3563   */\n      add\n        /* \"#utility.yul\":3537:3563   */\n      swap1\n      pop\n        /* \"#utility.yul\":3609:3618   */\n      dup2\n        /* \"#utility.yul\":3603:3607   */\n      dup2\n        /* \"#utility.yul\":3599:3619   */\n      sub\n        /* \"#utility.yul\":3595:3596   */\n      0x00\n        /* \"#utility.yul\":3584:3593   */\n      dup4\n        /* \"#utility.yul\":3580:3597   */\n      add\n        /* \"#utility.yul\":3573:3620   */\n      mstore\n        /* \"#utility.yul\":3637:3715   */\n      tag_109\n        /* \"#utility.yul\":3710:3714   */\n      dup2\n        /* \"#utility.yul\":3701:3707   */\n      dup7\n        /* \"#utility.yul\":3637:3715   */\n      tag_92\n      jump\t// in\n    tag_109:\n        /* \"#utility.yul\":3629:3715   */\n      swap1\n      pop\n        /* \"#utility.yul\":3725:3797   */\n      tag_110\n        /* \"#utility.yul\":3793:3795   */\n      0x20\n        /* \"#utility.yul\":3782:3791   */\n      dup4\n        /* \"#utility.yul\":3778:3796   */\n      add\n        /* \"#utility.yul\":3769:3775   */\n      dup6\n        /* \"#utility.yul\":3725:3797   */\n      tag_102\n      jump\t// in\n    tag_110:\n        /* \"#utility.yul\":3844:3853   */\n      dup2\n        /* \"#utility.yul\":3838:3842   */\n      dup2\n        /* \"#utility.yul\":3834:3854   */\n      sub\n        /* \"#utility.yul\":3829:3831   */\n      0x40\n        /* \"#utility.yul\":3818:3827   */\n      dup4\n        /* \"#utility.yul\":3814:3832   */\n      add\n        /* \"#utility.yul\":3807:3855   */\n      mstore\n        /* \"#utility.yul\":3872:3950   */\n      tag_111\n        /* \"#utility.yul\":3945:3949   */\n      dup2\n        /* \"#utility.yul\":3936:3942   */\n      dup5\n        /* \"#utility.yul\":3872:3950   */\n      tag_92\n      jump\t// in\n    tag_111:\n        /* \"#utility.yul\":3864:3950   */\n      swap1\n      pop\n        /* \"#utility.yul\":3527:3957   */\n      swap5\n      swap4\n      pop\n      pop\n      pop\n      pop\n      jump\t// out\n        /* \"#utility.yul\":3963:4092   */\n    tag_64:\n      0x00\n        /* \"#utility.yul\":4024:4044   */\n      tag_113\n      tag_114\n      jump\t// in\n    tag_113:\n        /* \"#utility.yul\":4014:4044   */\n      swap1\n      pop\n        /* \"#utility.yul\":4053:4086   */\n      tag_115\n        /* \"#utility.yul\":4081:4085   */\n      dup3\n        /* \"#utility.yul\":4073:4079   */\n      dup3\n        /* \"#utility.yul\":4053:4086   */\n      tag_116\n      jump\t// in\n    tag_115:\n        /* \"#utility.yul\":4004:4092   */\n      swap2\n      swap1\n      pop\n      jump\t// out\n        /* \"#utility.yul\":4098:4173   */\n    tag_114:\n      0x00\n        /* \"#utility.yul\":4164:4166   */\n      0x40\n        /* \"#utility.yul\":4158:4167   */\n      mload\n        /* \"#utility.yul\":4148:4167   */\n      swap1\n      pop\n        /* \"#utility.yul\":4138:4173   */\n      swap1\n      jump\t// out\n        /* \"#utility.yul\":4179:4487   */\n    tag_63:\n      0x00\n        /* \"#utility.yul\":4331:4349   */\n      0xffffffffffffffff\n        /* \"#utility.yul\":4323:4329   */\n      dup3\n        /* \"#utility.yul\":4320:4350   */\n      gt\n        /* \"#utility.yul\":4317:4319   */\n      iszero\n      tag_119\n      jumpi\n        /* \"#utility.yul\":4353:4371   */\n      tag_120\n      tag_121\n      jump\t// in\n    tag_120:\n        /* \"#utility.yul\":4317:4319   */\n    tag_119:\n        /* \"#utility.yul\":4391:4420   */\n      tag_122\n        /* \"#utility.yul\":4413:4419   */\n      dup3\n        /* \"#utility.yul\":4391:4420   */\n      tag_101\n      jump\t// in\n    tag_122:\n        /* \"#utility.yul\":4383:4420   */\n      swap1\n      pop\n        /* \"#utility.yul\":4475:4479   */\n      0x20\n        /* \"#utility.yul\":4469:4473   */\n      dup2\n        /* \"#utility.yul\":4465:4480   */\n      add\n        /* \"#utility.yul\":4457:4480   */\n      swap1\n      pop\n        /* \"#utility.yul\":4246:4487   */\n      swap2\n      swap1\n      pop\n      jump\t// out\n        /* \"#utility.yul\":4493:4592   */\n    tag_95:\n      0x00\n        /* \"#utility.yul\":4579:4584   */\n      dup2\n        /* \"#utility.yul\":4573:4585   */\n      mload\n        /* \"#utility.yul\":4563:4585   */\n      swap1\n      pop\n        /* \"#utility.yul\":4552:4592   */\n      swap2\n      swap1\n      pop\n      jump\t// out\n        /* \"#utility.yul\":4598:4767   */\n    tag_97:\n      0x00\n        /* \"#utility.yul\":4716:4722   */\n      dup3\n        /* \"#utility.yul\":4711:4714   */\n      dup3\n        /* \"#utility.yul\":4704:4723   */\n      mstore\n        /* \"#utility.yul\":4756:4760   */\n      0x20\n        /* \"#utility.yul\":4751:4754   */\n      dup3\n        /* \"#utility.yul\":4747:4761   */\n      add\n        /* \"#utility.yul\":4732:4761   */\n      swap1\n      pop\n        /* \"#utility.yul\":4694:4767   */\n      swap3\n      swap2\n      pop\n      pop\n      jump\t// out\n        /* \"#utility.yul\":4773:4850   */\n    tag_105:\n      0x00\n        /* \"#utility.yul\":4839:4844   */\n      dup2\n        /* \"#utility.yul\":4828:4844   */\n      swap1\n      pop\n        /* \"#utility.yul\":4818:4850   */\n      swap2\n      swap1\n      pop\n      jump\t// out\n        /* \"#utility.yul\":4856:5010   */\n    tag_67:\n        /* \"#utility.yul\":4940:4946   */\n      dup3\n        /* \"#utility.yul\":4935:4938   */\n      dup2\n        /* \"#utility.yul\":4930:4933   */\n      dup4\n        /* \"#utility.yul\":4917:4947   */\n      calldatacopy\n        /* \"#utility.yul\":5002:5003   */\n      0x00\n        /* \"#utility.yul\":4993:4999   */\n      dup4\n        /* \"#utility.yul\":4988:4991   */\n      dup4\n        /* \"#utility.yul\":4984:5000   */\n      add\n        /* \"#utility.yul\":4977:5004   */\n      mstore\n        /* \"#utility.yul\":4907:5010   */\n      pop\n      pop\n      pop\n      jump\t// out\n        /* \"#utility.yul\":5016:5323   */\n    tag_99:\n        /* \"#utility.yul\":5084:5085   */\n      0x00\n        /* \"#utility.yul\":5094:5207   */\n    tag_128:\n        /* \"#utility.yul\":5108:5114   */\n      dup4\n        /* \"#utility.yul\":5105:5106   */\n      dup2\n        /* \"#utility.yul\":5102:5115   */\n      lt\n        /* \"#utility.yul\":5094:5207   */\n      iszero\n      tag_130\n      jumpi\n        /* \"#utility.yul\":5193:5194   */\n      dup1\n        /* \"#utility.yul\":5188:5191   */\n      dup3\n        /* \"#utility.yul\":5184:5195   */\n      add\n        /* \"#utility.yul\":5178:5196   */\n      mload\n        /* \"#utility.yul\":5174:5175   */\n      dup2\n        /* \"#utility.yul\":5169:5172   */\n      dup5\n        /* \"#utility.yul\":5165:5176   */\n      add\n        /* \"#utility.yul\":5158:5197   */\n      mstore\n        /* \"#utility.yul\":5130:5132   */\n      0x20\n        /* \"#utility.yul\":5127:5128   */\n      dup2\n        /* \"#utility.yul\":5123:5133   */\n      add\n        /* \"#utility.yul\":5118:5133   */\n      swap1\n      pop\n        /* \"#utility.yul\":5094:5207   */\n      jump(tag_128)\n    tag_130:\n        /* \"#utility.yul\":5225:5231   */\n      dup4\n        /* \"#utility.yul\":5222:5223   */\n      dup2\n        /* \"#utility.yul\":5219:5232   */\n      gt\n        /* \"#utility.yul\":5216:5218   */\n      iszero\n      tag_131\n      jumpi\n        /* \"#utility.yul\":5305:5306   */\n      0x00\n        /* \"#utility.yul\":5296:5302   */\n      dup5\n        /* \"#utility.yul\":5291:5294   */\n      dup5\n        /* \"#utility.yul\":5287:5303   */\n      add\n        /* \"#utility.yul\":5280:5307   */\n      mstore\n        /* \"#utility.yul\":5216:5218   */\n    tag_131:\n        /* \"#utility.yul\":5065:5323   */\n      pop\n      pop\n      pop\n      pop\n      jump\t// out\n        /* \"#utility.yul\":5329:5649   */\n    tag_27:\n      0x00\n        /* \"#utility.yul\":5410:5411   */\n      0x02\n        /* \"#utility.yul\":5404:5408   */\n      dup3\n        /* \"#utility.yul\":5400:5412   */\n      div\n        /* \"#utility.yul\":5390:5412   */\n      swap1\n      pop\n        /* \"#utility.yul\":5457:5458   */\n      0x01\n        /* \"#utility.yul\":5451:5455   */\n      dup3\n        /* \"#utility.yul\":5447:5459   */\n      and\n        /* \"#utility.yul\":5478:5496   */\n      dup1\n        /* \"#utility.yul\":5468:5470   */\n      tag_133\n      jumpi\n        /* \"#utility.yul\":5534:5538   */\n      0x7f\n        /* \"#utility.yul\":5526:5532   */\n      dup3\n        /* \"#utility.yul\":5522:5539   */\n      and\n        /* \"#utility.yul\":5512:5539   */\n      swap2\n      pop\n        /* \"#utility.yul\":5468:5470   */\n    tag_133:\n        /* \"#utility.yul\":5596:5598   */\n      0x20\n        /* \"#utility.yul\":5588:5594   */\n      dup3\n        /* \"#utility.yul\":5585:5599   */\n      lt\n        /* \"#utility.yul\":5565:5583   */\n      dup2\n        /* \"#utility.yul\":5562:5600   */\n      eq\n        /* \"#utility.yul\":5559:5561   */\n      iszero\n      tag_134\n      jumpi\n        /* \"#utility.yul\":5615:5633   */\n      tag_135\n      tag_136\n      jump\t// in\n    tag_135:\n        /* \"#utility.yul\":5559:5561   */\n    tag_134:\n        /* \"#utility.yul\":5380:5649   */\n      pop\n      swap2\n      swap1\n      pop\n      jump\t// out\n        /* \"#utility.yul\":5655:5936   */\n    tag_116:\n        /* \"#utility.yul\":5738:5765   */\n      tag_138\n        /* \"#utility.yul\":5760:5764   */\n      dup3\n        /* \"#utility.yul\":5738:5765   */\n      tag_101\n      jump\t// in\n    tag_138:\n        /* \"#utility.yul\":5730:5736   */\n      dup2\n        /* \"#utility.yul\":5726:5766   */\n      add\n        /* \"#utility.yul\":5868:5874   */\n      dup2\n        /* \"#utility.yul\":5856:5866   */\n      dup2\n        /* \"#utility.yul\":5853:5875   */\n      lt\n        /* \"#utility.yul\":5832:5850   */\n      0xffffffffffffffff\n        /* \"#utility.yul\":5820:5830   */\n      dup3\n        /* \"#utility.yul\":5817:5851   */\n      gt\n        /* \"#utility.yul\":5814:5876   */\n      or\n        /* \"#utility.yul\":5811:5813   */\n      iszero\n      tag_139\n      jumpi\n        /* \"#utility.yul\":5879:5897   */\n      tag_140\n      tag_121\n      jump\t// in\n    tag_140:\n        /* \"#utility.yul\":5811:5813   */\n    tag_139:\n        /* \"#utility.yul\":5919:5929   */\n      dup1\n        /* \"#utility.yul\":5915:5917   */\n      0x40\n        /* \"#utility.yul\":5908:5930   */\n      mstore\n        /* \"#utility.yul\":5698:5936   */\n      pop\n      pop\n      pop\n      jump\t// out\n        /* \"#utility.yul\":5942:6122   */\n    tag_136:\n        /* \"#utility.yul\":5990:6067   */\n      0x4e487b7100000000000000000000000000000000000000000000000000000000\n        /* \"#utility.yul\":5987:5988   */\n      0x00\n        /* \"#utility.yul\":5980:6068   */\n      mstore\n        /* \"#utility.yul\":6087:6091   */\n      0x22\n        /* \"#utility.yul\":6084:6085   */\n      0x04\n        /* \"#utility.yul\":6077:6092   */\n      mstore\n        /* \"#utility.yul\":6111:6115   */\n      0x24\n        /* \"#utility.yul\":6108:6109   */\n      0x00\n        /* \"#utility.yul\":6101:6116   */\n      revert\n        /* \"#utility.yul\":6128:6308   */\n    tag_121:\n        /* \"#utility.yul\":6176:6253   */\n      0x4e487b7100000000000000000000000000000000000000000000000000000000\n        /* \"#utility.yul\":6173:6174   */\n      0x00\n        /* \"#utility.yul\":6166:6254   */\n      mstore\n        /* \"#utility.yul\":6273:6277   */\n      0x41\n        /* \"#utility.yul\":6270:6271   */\n      0x04\n        /* \"#utility.yul\":6263:6278   */\n      mstore\n        /* \"#utility.yul\":6297:6301   */\n      0x24\n        /* \"#utility.yul\":6294:6295   */\n      0x00\n        /* \"#utility.yul\":6287:6302   */\n      revert\n        /* \"#utility.yul\":6314:6416   */\n    tag_101:\n      0x00\n        /* \"#utility.yul\":6406:6408   */\n      0x1f\n        /* \"#utility.yul\":6402:6409   */\n      not\n        /* \"#utility.yul\":6397:6399   */\n      0x1f\n        /* \"#utility.yul\":6390:6395   */\n      dup4\n        /* \"#utility.yul\":6386:6400   */\n      add\n        /* \"#utility.yul\":6382:6410   */\n      and\n        /* \"#utility.yul\":6372:6410   */\n      swap1\n      pop\n        /* \"#utility.yul\":6362:6416   */\n      swap2\n      swap1\n      pop\n      jump\t// out\n        /* \"#utility.yul\":6422:6544   */\n    tag_75:\n        /* \"#utility.yul\":6495:6519   */\n      tag_145\n        /* \"#utility.yul\":6513:6518   */\n      dup2\n        /* \"#utility.yul\":6495:6519   */\n      tag_105\n      jump\t// in\n    tag_145:\n        /* \"#utility.yul\":6488:6493   */\n      dup2\n        /* \"#utility.yul\":6485:6520   */\n      eq\n        /* \"#utility.yul\":6475:6477   */\n      tag_146\n      jumpi\n        /* \"#utility.yul\":6534:6535   */\n      0x00\n        /* \"#utility.yul\":6531:6532   */\n      dup1\n        /* \"#utility.yul\":6524:6536   */\n      revert\n        /* \"#utility.yul\":6475:6477   */\n    tag_146:\n        /* \"#utility.yul\":6465:6544   */\n      pop\n      jump\t// out\n\n    auxdata: 0xa2646970667358221220abedaad20733ac813ef786b740d59d360eab738952a2a0c32629163ddb97460764736f6c63430008010033\n}\n",
				"bytecode": {
					"linkReferences": {},
					"object": "608060405234801561001057600080fd5b50610827806100206000396000f3fe608060405234801561001057600080fd5b506004361061004c5760003560e01c80631e98fd1c146100515780634b4a80ba146100815780638f3b1b91146100b3578063d51af2bf146100cf575b600080fd5b61006b6004803603810190610066919061048b565b6100eb565b60405161007891906105e3565b60405180910390f35b61009b6004803603810190610096919061048b565b61018b565b6040516100aa93929190610605565b60405180910390f35b6100cd60048036038101906100c89190610508565b6102c5565b005b6100e960048036038101906100e491906104b4565b610340565b005b6000602052806000526040600020600091509050805461010a90610708565b80601f016020809104026020016040519081016040528092919081815260200182805461013690610708565b80156101835780601f1061015857610100808354040283529160200191610183565b820191906000526020600020905b81548152906001019060200180831161016657829003601f168201915b505050505081565b60016020528060005260406000206000915090508060000180546101ae90610708565b80601f01602080910402602001604051908101604052809291908181526020018280546101da90610708565b80156102275780601f106101fc57610100808354040283529160200191610227565b820191906000526020600020905b81548152906001019060200180831161020a57829003601f168201915b50505050509080600101549080600201805461024290610708565b80601f016020809104026020016040519081016040528092919081815260200182805461026e90610708565b80156102bb5780601f10610290576101008083540402835291602001916102bb565b820191906000526020600020905b81548152906001019060200180831161029e57829003601f168201915b5050505050905083565b60405180606001604052808481526020018381526020018281525060016000868152602001908152602001600020600082015181600001908051906020019061030f92919061036b565b5060208201518160010155604082015181600201908051906020019061033692919061036b565b5090505050505050565b80600080848152602001908152602001600020908051906020019061036692919061036b565b505050565b82805461037790610708565b90600052602060002090601f01602090048101928261039957600085556103e0565b82601f106103b257805160ff19168380011785556103e0565b828001600101855582156103e0579182015b828111156103df5782518255916020019190600101906103c4565b5b5090506103ed91906103f1565b5090565b5b8082111561040a5760008160009055506001016103f2565b5090565b600061042161041c8461066f565b61064a565b90508281526020810184848401111561043957600080fd5b6104448482856106c6565b509392505050565b600082601f83011261045d57600080fd5b813561046d84826020860161040e565b91505092915050565b600081359050610485816107da565b92915050565b60006020828403121561049d57600080fd5b60006104ab84828501610476565b91505092915050565b600080604083850312156104c757600080fd5b60006104d585828601610476565b925050602083013567ffffffffffffffff8111156104f257600080fd5b6104fe8582860161044c565b9150509250929050565b6000806000806080858703121561051e57600080fd5b600061052c87828801610476565b945050602085013567ffffffffffffffff81111561054957600080fd5b6105558782880161044c565b935050604061056687828801610476565b925050606085013567ffffffffffffffff81111561058357600080fd5b61058f8782880161044c565b91505092959194509250565b60006105a6826106a0565b6105b081856106ab565b93506105c08185602086016106d5565b6105c9816107c9565b840191505092915050565b6105dd816106bc565b82525050565b600060208201905081810360008301526105fd818461059b565b905092915050565b6000606082019050818103600083015261061f818661059b565b905061062e60208301856105d4565b8181036040830152610640818461059b565b9050949350505050565b6000610654610665565b9050610660828261073a565b919050565b6000604051905090565b600067ffffffffffffffff82111561068a5761068961079a565b5b610693826107c9565b9050602081019050919050565b600081519050919050565b600082825260208201905092915050565b6000819050919050565b82818337600083830152505050565b60005b838110156106f35780820151818401526020810190506106d8565b83811115610702576000848401525b50505050565b6000600282049050600182168061072057607f821691505b602082108114156107345761073361076b565b5b50919050565b610743826107c9565b810181811067ffffffffffffffff821117156107625761076161079a565b5b80604052505050565b7f4e487b7100000000000000000000000000000000000000000000000000000000600052602260045260246000fd5b7f4e487b7100000000000000000000000000000000000000000000000000000000600052604160045260246000fd5b6000601f19601f8301169050919050565b6107e3816106bc565b81146107ee57600080fd5b5056fea2646970667358221220abedaad20733ac813ef786b740d59d360eab738952a2a0c32629163ddb97460764736f6c63430008010033",
					"opcodes": "PUSH1 0x80 PUSH1 0x40 MSTORE CALLVALUE DUP1 ISZERO PUSH2 0x10 JUMPI PUSH1 0x0 DUP1 REVERT JUMPDEST POP PUSH2 0x827 DUP1 PUSH2 0x20 PUSH1 0x0 CODECOPY PUSH1 0x0 RETURN INVALID PUSH1 0x80 PUSH1 0x40 MSTORE CALLVALUE DUP1 ISZERO PUSH2 0x10 JUMPI PUSH1 0x0 DUP1 REVERT JUMPDEST POP PUSH1 0x4 CALLDATASIZE LT PUSH2 0x4C JUMPI PUSH1 0x0 CALLDATALOAD PUSH1 0xE0 SHR DUP1 PUSH4 0x1E98FD1C EQ PUSH2 0x51 JUMPI DUP1 PUSH4 0x4B4A80BA EQ PUSH2 0x81 JUMPI DUP1 PUSH4 0x8F3B1B91 EQ PUSH2 0xB3 JUMPI DUP1 PUSH4 0xD51AF2BF EQ PUSH2 0xCF JUMPI JUMPDEST PUSH1 0x0 DUP1 REVERT JUMPDEST PUSH2 0x6B PUSH1 0x4 DUP1 CALLDATASIZE SUB DUP2 ADD SWAP1 PUSH2 0x66 SWAP2 SWAP1 PUSH2 0x48B JUMP JUMPDEST PUSH2 0xEB JUMP JUMPDEST PUSH1 0x40 MLOAD PUSH2 0x78 SWAP2 SWAP1 PUSH2 0x5E3 JUMP JUMPDEST PUSH1 0x40 MLOAD DUP1 SWAP2 SUB SWAP1 RETURN JUMPDEST PUSH2 0x9B PUSH1 0x4 DUP1 CALLDATASIZE SUB DUP2 ADD SWAP1 PUSH2 0x96 SWAP2 SWAP1 PUSH2 0x48B JUMP JUMPDEST PUSH2 0x18B JUMP JUMPDEST PUSH1 0x40 MLOAD PUSH2 0xAA SWAP4 SWAP3 SWAP2 SWAP1 PUSH2 0x605 JUMP JUMPDEST PUSH1 0x40 MLOAD DUP1 SWAP2 SUB SWAP1 RETURN JUMPDEST PUSH2 0xCD PUSH1 0x4 DUP1 CALLDATASIZE SUB DUP2 ADD SWAP1 PUSH2 0xC8 SWAP2 SWAP1 PUSH2 0x508 JUMP JUMPDEST PUSH2 0x2C5 JUMP JUMPDEST STOP JUMPDEST PUSH2 0xE9 PUSH1 0x4 DUP1 CALLDATASIZE SUB DUP2 ADD SWAP1 PUSH2 0xE4 SWAP2 SWAP1 PUSH2 0x4B4 JUMP JUMPDEST PUSH2 0x340 JUMP JUMPDEST STOP JUMPDEST PUSH1 0x0 PUSH1 0x20 MSTORE DUP1 PUSH1 0x0 MSTORE PUSH1 0x40 PUSH1 0x0 KECCAK256 PUSH1 0x0 SWAP2 POP SWAP1 POP DUP1 SLOAD PUSH2 0x10A SWAP1 PUSH2 0x708 JUMP JUMPDEST DUP1 PUSH1 0x1F ADD PUSH1 0x20 DUP1 SWAP2 DIV MUL PUSH1 0x20 ADD PUSH1 0x40 MLOAD SWAP1 DUP2 ADD PUSH1 0x40 MSTORE DUP1 SWAP3 SWAP2 SWAP1 DUP2 DUP2 MSTORE PUSH1 0x20 ADD DUP3 DUP1 SLOAD PUSH2 0x136 SWAP1 PUSH2 0x708 JUMP JUMPDEST DUP1 ISZERO PUSH2 0x183 JUMPI DUP1 PUSH1 0x1F LT PUSH2 0x158 JUMPI PUSH2 0x100 DUP1 DUP4 SLOAD DIV MUL DUP4 MSTORE SWAP2 PUSH1 0x20 ADD SWAP2 PUSH2 0x183 JUMP JUMPDEST DUP3 ADD SWAP2 SWAP1 PUSH1 0x0 MSTORE PUSH1 0x20 PUSH1 0x0 KECCAK256 SWAP1 JUMPDEST DUP2 SLOAD DUP2 MSTORE SWAP1 PUSH1 0x1 ADD SWAP1 PUSH1 0x20 ADD DUP1 DUP4 GT PUSH2 0x166 JUMPI DUP3 SWAP1 SUB PUSH1 0x1F AND DUP3 ADD SWAP2 JUMPDEST POP POP POP POP POP DUP2 JUMP JUMPDEST PUSH1 0x1 PUSH1 0x20 MSTORE DUP1 PUSH1 0x0 MSTORE PUSH1 0x40 PUSH1 0x0 KECCAK256 PUSH1 0x0 SWAP2 POP SWAP1 POP DUP1 PUSH1 0x0 ADD DUP1 SLOAD PUSH2 0x1AE SWAP1 PUSH2 0x708 JUMP JUMPDEST DUP1 PUSH1 0x1F ADD PUSH1 0x20 DUP1 SWAP2 DIV MUL PUSH1 0x20 ADD PUSH1 0x40 MLOAD SWAP1 DUP2 ADD PUSH1 0x40 MSTORE DUP1 SWAP3 SWAP2 SWAP1 DUP2 DUP2 MSTORE PUSH1 0x20 ADD DUP3 DUP1 SLOAD PUSH2 0x1DA SWAP1 PUSH2 0x708 JUMP JUMPDEST DUP1 ISZERO PUSH2 0x227 JUMPI DUP1 PUSH1 0x1F LT PUSH2 0x1FC JUMPI PUSH2 0x100 DUP1 DUP4 SLOAD DIV MUL DUP4 MSTORE SWAP2 PUSH1 0x20 ADD SWAP2 PUSH2 0x227 JUMP JUMPDEST DUP3 ADD SWAP2 SWAP1 PUSH1 0x0 MSTORE PUSH1 0x20 PUSH1 0x0 KECCAK256 SWAP1 JUMPDEST DUP2 SLOAD DUP2 MSTORE SWAP1 PUSH1 0x1 ADD SWAP1 PUSH1 0x20 ADD DUP1 DUP4 GT PUSH2 0x20A JUMPI DUP3 SWAP1 SUB PUSH1 0x1F AND DUP3 ADD SWAP2 JUMPDEST POP POP POP POP POP SWAP1 DUP1 PUSH1 0x1 ADD SLOAD SWAP1 DUP1 PUSH1 0x2 ADD DUP1 SLOAD PUSH2 0x242 SWAP1 PUSH2 0x708 JUMP JUMPDEST DUP1 PUSH1 0x1F ADD PUSH1 0x20 DUP1 SWAP2 DIV MUL PUSH1 0x20 ADD PUSH1 0x40 MLOAD SWAP1 DUP2 ADD PUSH1 0x40 MSTORE DUP1 SWAP3 SWAP2 SWAP1 DUP2 DUP2 MSTORE PUSH1 0x20 ADD DUP3 DUP1 SLOAD PUSH2 0x26E SWAP1 PUSH2 0x708 JUMP JUMPDEST DUP1 ISZERO PUSH2 0x2BB JUMPI DUP1 PUSH1 0x1F LT PUSH2 0x290 JUMPI PUSH2 0x100 DUP1 DUP4 SLOAD DIV MUL DUP4 MSTORE SWAP2 PUSH1 0x20 ADD SWAP2 PUSH2 0x2BB JUMP JUMPDEST DUP3 ADD SWAP2 SWAP1 PUSH1 0x0 MSTORE PUSH1 0x20 PUSH1 0x0 KECCAK256 SWAP1 JUMPDEST DUP2 SLOAD DUP2 MSTORE SWAP1 PUSH1 0x1 ADD SWAP1 PUSH1 0x20 ADD DUP1 DUP4 GT PUSH2 0x29E JUMPI DUP3 SWAP1 SUB PUSH1 0x1F AND DUP3 ADD SWAP2 JUMPDEST POP POP POP POP POP SWAP1 POP DUP4 JUMP JUMPDEST PUSH1 0x40 MLOAD DUP1 PUSH1 0x60 ADD PUSH1 0x40 MSTORE DUP1 DUP5 DUP2 MSTORE PUSH1 0x20 ADD DUP4 DUP2 MSTORE PUSH1 0x20 ADD DUP3 DUP2 MSTORE POP PUSH1 0x1 PUSH1 0x0 DUP7 DUP2 MSTORE PUSH1 0x20 ADD SWAP1 DUP2 MSTORE PUSH1 0x20 ADD PUSH1 0x0 KECCAK256 PUSH1 0x0 DUP3 ADD MLOAD DUP2 PUSH1 0x0 ADD SWAP1 DUP1 MLOAD SWAP1 PUSH1 0x20 ADD SWAP1 PUSH2 0x30F SWAP3 SWAP2 SWAP1 PUSH2 0x36B JUMP JUMPDEST POP PUSH1 0x20 DUP3 ADD MLOAD DUP2 PUSH1 0x1 ADD SSTORE PUSH1 0x40 DUP3 ADD MLOAD DUP2 PUSH1 0x2 ADD SWAP1 DUP1 MLOAD SWAP1 PUSH1 0x20 ADD SWAP1 PUSH2 0x336 SWAP3 SWAP2 SWAP1 PUSH2 0x36B JUMP JUMPDEST POP SWAP1 POP POP POP POP POP POP JUMP JUMPDEST DUP1 PUSH1 0x0 DUP1 DUP5 DUP2 MSTORE PUSH1 0x20 ADD SWAP1 DUP2 MSTORE PUSH1 0x20 ADD PUSH1 0x0 KECCAK256 SWAP1 DUP1 MLOAD SWAP1 PUSH1 0x20 ADD SWAP1 PUSH2 0x366 SWAP3 SWAP2 SWAP1 PUSH2 0x36B JUMP JUMPDEST POP POP POP JUMP JUMPDEST DUP3 DUP1 SLOAD PUSH2 0x377 SWAP1 PUSH2 0x708 JUMP JUMPDEST SWAP1 PUSH1 0x0 MSTORE PUSH1 0x20 PUSH1 0x0 KECCAK256 SWAP1 PUSH1 0x1F ADD PUSH1 0x20 SWAP1 DIV DUP2 ADD SWAP3 DUP3 PUSH2 0x399 JUMPI PUSH1 0x0 DUP6 SSTORE PUSH2 0x3E0 JUMP JUMPDEST DUP3 PUSH1 0x1F LT PUSH2 0x3B2 JUMPI DUP1 MLOAD PUSH1 0xFF NOT AND DUP4 DUP1 ADD OR DUP6 SSTORE PUSH2 0x3E0 JUMP JUMPDEST DUP3 DUP1 ADD PUSH1 0x1 ADD DUP6 SSTORE DUP3 ISZERO PUSH2 0x3E0 JUMPI SWAP2 DUP3 ADD JUMPDEST DUP3 DUP2 GT ISZERO PUSH2 0x3DF JUMPI DUP3 MLOAD DUP3 SSTORE SWAP2 PUSH1 0x20 ADD SWAP2 SWAP1 PUSH1 0x1 ADD SWAP1 PUSH2 0x3C4 JUMP JUMPDEST JUMPDEST POP SWAP1 POP PUSH2 0x3ED SWAP2 SWAP1 PUSH2 0x3F1 JUMP JUMPDEST POP SWAP1 JUMP JUMPDEST JUMPDEST DUP1 DUP3 GT ISZERO PUSH2 0x40A JUMPI PUSH1 0x0 DUP2 PUSH1 0x0 SWAP1 SSTORE POP PUSH1 0x1 ADD PUSH2 0x3F2 JUMP JUMPDEST POP SWAP1 JUMP JUMPDEST PUSH1 0x0 PUSH2 0x421 PUSH2 0x41C DUP5 PUSH2 0x66F JUMP JUMPDEST PUSH2 0x64A JUMP JUMPDEST SWAP1 POP DUP3 DUP2 MSTORE PUSH1 0x20 DUP2 ADD DUP5 DUP5 DUP5 ADD GT ISZERO PUSH2 0x439 JUMPI PUSH1 0x0 DUP1 REVERT JUMPDEST PUSH2 0x444 DUP5 DUP3 DUP6 PUSH2 0x6C6 JUMP JUMPDEST POP SWAP4 SWAP3 POP POP POP JUMP JUMPDEST PUSH1 0x0 DUP3 PUSH1 0x1F DUP4 ADD SLT PUSH2 0x45D JUMPI PUSH1 0x0 DUP1 REVERT JUMPDEST DUP2 CALLDATALOAD PUSH2 0x46D DUP5 DUP3 PUSH1 0x20 DUP7 ADD PUSH2 0x40E JUMP JUMPDEST SWAP2 POP POP SWAP3 SWAP2 POP POP JUMP JUMPDEST PUSH1 0x0 DUP2 CALLDATALOAD SWAP1 POP PUSH2 0x485 DUP2 PUSH2 0x7DA JUMP JUMPDEST SWAP3 SWAP2 POP POP JUMP JUMPDEST PUSH1 0x0 PUSH1 0x20 DUP3 DUP5 SUB SLT ISZERO PUSH2 0x49D JUMPI PUSH1 0x0 DUP1 REVERT JUMPDEST PUSH1 0x0 PUSH2 0x4AB DUP5 DUP3 DUP6 ADD PUSH2 0x476 JUMP JUMPDEST SWAP2 POP POP SWAP3 SWAP2 POP POP JUMP JUMPDEST PUSH1 0x0 DUP1 PUSH1 0x40 DUP4 DUP6 SUB SLT ISZERO PUSH2 0x4C7 JUMPI PUSH1 0x0 DUP1 REVERT JUMPDEST PUSH1 0x0 PUSH2 0x4D5 DUP6 DUP3 DUP7 ADD PUSH2 0x476 JUMP JUMPDEST SWAP3 POP POP PUSH1 0x20 DUP4 ADD CALLDATALOAD PUSH8 0xFFFFFFFFFFFFFFFF DUP2 GT ISZERO PUSH2 0x4F2 JUMPI PUSH1 0x0 DUP1 REVERT JUMPDEST PUSH2 0x4FE DUP6 DUP3 DUP7 ADD PUSH2 0x44C JUMP JUMPDEST SWAP2 POP POP SWAP3 POP SWAP3 SWAP1 POP JUMP JUMPDEST PUSH1 0x0 DUP1 PUSH1 0x0 DUP1 PUSH1 0x80 DUP6 DUP8 SUB SLT ISZERO PUSH2 0x51E JUMPI PUSH1 0x0 DUP1 REVERT JUMPDEST PUSH1 0x0 PUSH2 0x52C DUP8 DUP3 DUP9 ADD PUSH2 0x476 JUMP JUMPDEST SWAP5 POP POP PUSH1 0x20 DUP6 ADD CALLDATALOAD PUSH8 0xFFFFFFFFFFFFFFFF DUP2 GT ISZERO PUSH2 0x549 JUMPI PUSH1 0x0 DUP1 REVERT JUMPDEST PUSH2 0x555 DUP8 DUP3 DUP9 ADD PUSH2 0x44C JUMP JUMPDEST SWAP4 POP POP PUSH1 0x40 PUSH2 0x566 DUP8 DUP3 DUP9 ADD PUSH2 0x476 JUMP JUMPDEST SWAP3 POP POP PUSH1 0x60 DUP6 ADD CALLDATALOAD PUSH8 0xFFFFFFFFFFFFFFFF DUP2 GT ISZERO PUSH2 0x583 JUMPI PUSH1 0x0 DUP1 REVERT JUMPDEST PUSH2 0x58F DUP8 DUP3 DUP9 ADD PUSH2 0x44C JUMP JUMPDEST SWAP2 POP POP SWAP3 SWAP6 SWAP2 SWAP5 POP SWAP3 POP JUMP JUMPDEST PUSH1 0x0 PUSH2 0x5A6 DUP3 PUSH2 0x6A0 JUMP JUMPDEST PUSH2 0x5B0 DUP2 DUP6 PUSH2 0x6AB JUMP JUMPDEST SWAP4 POP PUSH2 0x5C0 DUP2 DUP6 PUSH1 0x20 DUP7 ADD PUSH2 0x6D5 JUMP JUMPDEST PUSH2 0x5C9 DUP2 PUSH2 0x7C9 JUMP JUMPDEST DUP5 ADD SWAP2 POP POP SWAP3 SWAP2 POP POP JUMP JUMPDEST PUSH2 0x5DD DUP2 PUSH2 0x6BC JUMP JUMPDEST DUP3 MSTORE POP POP JUMP JUMPDEST PUSH1 0x0 PUSH1 0x20 DUP3 ADD SWAP1 POP DUP2 DUP2 SUB PUSH1 0x0 DUP4 ADD MSTORE PUSH2 0x5FD DUP2 DUP5 PUSH2 0x59B JUMP JUMPDEST SWAP1 POP SWAP3 SWAP2 POP POP JUMP JUMPDEST PUSH1 0x0 PUSH1 0x60 DUP3 ADD SWAP1 POP DUP2 DUP2 SUB PUSH1 0x0 DUP4 ADD MSTORE PUSH2 0x61F DUP2 DUP7 PUSH2 0x59B JUMP JUMPDEST SWAP1 POP PUSH2 0x62E PUSH1 0x20 DUP4 ADD DUP6 PUSH2 0x5D4 JUMP JUMPDEST DUP2 DUP2 SUB PUSH1 0x40 DUP4 ADD MSTORE PUSH2 0x640 DUP2 DUP5 PUSH2 0x59B JUMP JUMPDEST SWAP1 POP SWAP5 SWAP4 POP POP POP POP JUMP JUMPDEST PUSH1 0x0 PUSH2 0x654 PUSH2 0x665 JUMP JUMPDEST SWAP1 POP PUSH2 0x660 DUP3 DUP3 PUSH2 0x73A JUMP JUMPDEST SWAP2 SWAP1 POP JUMP JUMPDEST PUSH1 0x0 PUSH1 0x40 MLOAD SWAP1 POP SWAP1 JUMP JUMPDEST PUSH1 0x0 PUSH8 0xFFFFFFFFFFFFFFFF DUP3 GT ISZERO PUSH2 0x68A JUMPI PUSH2 0x689 PUSH2 0x79A JUMP JUMPDEST JUMPDEST PUSH2 0x693 DUP3 PUSH2 0x7C9 JUMP JUMPDEST SWAP1 POP PUSH1 0x20 DUP2 ADD SWAP1 POP SWAP2 SWAP1 POP JUMP JUMPDEST PUSH1 0x0 DUP2 MLOAD SWAP1 POP SWAP2 SWAP1 POP JUMP JUMPDEST PUSH1 0x0 DUP3 DUP3 MSTORE PUSH1 0x20 DUP3 ADD SWAP1 POP SWAP3 SWAP2 POP POP JUMP JUMPDEST PUSH1 0x0 DUP2 SWAP1 POP SWAP2 SWAP1 POP JUMP JUMPDEST DUP3 DUP2 DUP4 CALLDATACOPY PUSH1 0x0 DUP4 DUP4 ADD MSTORE POP POP POP JUMP JUMPDEST PUSH1 0x0 JUMPDEST DUP4 DUP2 LT ISZERO PUSH2 0x6F3 JUMPI DUP1 DUP3 ADD MLOAD DUP2 DUP5 ADD MSTORE PUSH1 0x20 DUP2 ADD SWAP1 POP PUSH2 0x6D8 JUMP JUMPDEST DUP4 DUP2 GT ISZERO PUSH2 0x702 JUMPI PUSH1 0x0 DUP5 DUP5 ADD MSTORE JUMPDEST POP POP POP POP JUMP JUMPDEST PUSH1 0x0 PUSH1 0x2 DUP3 DIV SWAP1 POP PUSH1 0x1 DUP3 AND DUP1 PUSH2 0x720 JUMPI PUSH1 0x7F DUP3 AND SWAP2 POP JUMPDEST PUSH1 0x20 DUP3 LT DUP2 EQ ISZERO PUSH2 0x734 JUMPI PUSH2 0x733 PUSH2 0x76B JUMP JUMPDEST JUMPDEST POP SWAP2 SWAP1 POP JUMP JUMPDEST PUSH2 0x743 DUP3 PUSH2 0x7C9 JUMP JUMPDEST DUP2 ADD DUP2 DUP2 LT PUSH8 0xFFFFFFFFFFFFFFFF DUP3 GT OR ISZERO PUSH2 0x762 JUMPI PUSH2 0x761 PUSH2 0x79A JUMP JUMPDEST JUMPDEST DUP1 PUSH1 0x40 MSTORE POP POP POP JUMP JUMPDEST PUSH32 0x4E487B7100000000000000000000000000000000000000000000000000000000 PUSH1 0x0 MSTORE PUSH1 0x22 PUSH1 0x4 MSTORE PUSH1 0x24 PUSH1 0x0 REVERT JUMPDEST PUSH32 0x4E487B7100000000000000000000000000000000000000000000000000000000 PUSH1 0x0 MSTORE PUSH1 0x41 PUSH1 0x4 MSTORE PUSH1 0x24 PUSH1 0x0 REVERT JUMPDEST PUSH1 0x0 PUSH1 0x1F NOT PUSH1 0x1F DUP4 ADD AND SWAP1 POP SWAP2 SWAP1 POP JUMP JUMPDEST PUSH2 0x7E3 DUP2 PUSH2 0x6BC JUMP JUMPDEST DUP2 EQ PUSH2 0x7EE JUMPI PUSH1 0x0 DUP1 REVERT JUMPDEST POP JUMP INVALID LOG2 PUSH5 0x6970667358 0x22 SLT KECCAK256 0xAB 0xED 0xAA 0xD2 SMOD CALLER 0xAC DUP2 RETURNDATACOPY 0xF7 DUP7 0xB7 BLOCKHASH 0xD5 SWAP14 CALLDATASIZE 0xE 0xAB PUSH20 0x8952A2A0C32629163DDB97460764736F6C634300 ADDMOD ADD STOP CALLER "
				},
				"gasEstimates": {
					"creation": {
						"codeDepositCost": "417400",
						"executionCost": "455",
						"totalCost": "417855"
					},
					"external": {
						"Assets(uint256)": "infinite",
						"Users(uint256)": "infinite",
						"addAsset(uint256,string,uint256,string)": "infinite",
						"addUser(uint256,string)": "infinite"
					}
				},
				"methodIdentifiers": {
					"Assets(uint256)": "4b4a80ba",
					"Users(uint256)": "1e98fd1c",
					"addAsset(uint256,string,uint256,string)": "8f3b1b91",
					"addUser(uint256,string)": "d51af2bf"
				}
			},
			"storageLayout": {
				"storage": [
					{
						"astId": 12,
						"contract": "Auction.sol:Auction",
						"label": "Users",
						"offset": 0,
						"slot": "0",
						"type": "t_mapping(t_uint256,t_string_storage)"
					},
					{
						"astId": 17,
						"contract": "Auction.sol:Auction",
						"label": "Assets",
						"offset": 0,
						"slot": "1",
						"type": "t_mapping(t_uint256,t_struct(Asset)8_storage)"
					}
				],
				"types": {
					"t_mapping(t_uint256,t_string_storage)": {
						"encoding": "mapping",
						"key": "t_uint256",
						"label": "mapping(uint256 => string)",
						"numberOfBytes": "32",
						"value": "t_string_storage"
					},
					"t_mapping(t_uint256,t_struct(Asset)8_storage)": {
						"encoding": "mapping",
						"key": "t_uint256",
						"label": "mapping(uint256 => struct Auction.Asset)",
						"numberOfBytes": "32",
						"value": "t_struct(Asset)8_storage"
					},
					"t_string_storage": {
						"encoding": "bytes",
						"label": "string",
						"numberOfBytes": "32"
					},
					"t_struct(Asset)8_storage": {
						"encoding": "inplace",
						"label": "struct Auction.Asset",
						"members": [
							{
								"astId": 3,
								"contract": "Auction.sol:Auction",
								"label": "AssetName",
								"offset": 0,
								"slot": "0",
								"type": "t_string_storage"
							},
							{
								"astId": 5,
								"contract": "Auction.sol:Auction",
								"label": "AssetSP",
								"offset": 0,
								"slot": "1",
								"type": "t_uint256"
							},
							{
								"astId": 7,
								"contract": "Auction.sol:Auction",
								"label": "Owner",
								"offset": 0,
								"slot": "2",
								"type": "t_string_storage"
							}
						],
						"numberOfBytes": "96"
					},
					"t_uint256": {
						"encoding": "inplace",
						"label": "uint256",
						"numberOfBytes": "32"
					}
				}
			},
			"userdoc": {
				"kind": "user",
				"methods": {},
				"version": 1
			}
		}
	}
}