{
	"Auction.sol": {
		"Auction": {
			"abi": [
				{
					"inputs": [
						{
							"internalType": "uint256",
							"name": "",
							"type": "uint256"
						}
					],
					"name": "Assets",
					"outputs": [
						{
							"internalType": "string",
							"name": "AssetName",
							"type": "string"
						},
						{
							"internalType": "uint256",
							"name": "AssetSP",
							"type": "uint256"
						},
						{
							"internalType": "address",
							"name": "Owner",
							"type": "address"
						}
					],
					"stateMutability": "view",
					"type": "function"
				},
				{
					"inputs": [
						{
							"internalType": "address",
							"name": "",
							"type": "address"
						}
					],
					"name": "Users",
					"outputs": [
						{
							"internalType": "string",
							"name": "",
							"type": "string"
						}
					],
					"stateMutability": "view",
					"type": "function"
				},
				{
					"inputs": [
						{
							"internalType": "string",
							"name": "Name",
							"type": "string"
						},
						{
							"internalType": "uint256",
							"name": "Price",
							"type": "uint256"
						}
					],
					"name": "addAsset",
					"outputs": [
						{
							"internalType": "uint256",
							"name": "",
							"type": "uint256"
						},
						{
							"internalType": "string",
							"name": "",
							"type": "string"
						},
						{
							"internalType": "uint256",
							"name": "",
							"type": "uint256"
						}
					],
					"stateMutability": "nonpayable",
					"type": "function"
				},
				{
					"inputs": [
						{
							"internalType": "string",
							"name": "Name",
							"type": "string"
						}
					],
					"name": "addUser",
					"outputs": [],
					"stateMutability": "nonpayable",
					"type": "function"
				}
			],
			"devdoc": {
				"kind": "dev",
				"methods": {},
				"version": 1
			},
			"evm": {
				"assembly": "    /* \"Auction.sol\":65:813  contract Auction {\r... */\n  mstore(0x40, 0x80)\n    /* \"Auction.sol\":410:411  0 */\n  0x00\n    /* \"Auction.sol\":400:411  uint Id = 0 */\n  0x02\n  sstore\n    /* \"Auction.sol\":65:813  contract Auction {\r... */\n  callvalue\n  dup1\n  iszero\n  tag_1\n  jumpi\n  0x00\n  dup1\n  revert\ntag_1:\n  pop\n  dataSize(sub_0)\n  dup1\n  dataOffset(sub_0)\n  0x00\n  codecopy\n  0x00\n  return\nstop\n\nsub_0: assembly {\n        /* \"Auction.sol\":65:813  contract Auction {\r... */\n      mstore(0x40, 0x80)\n      callvalue\n      dup1\n      iszero\n      tag_1\n      jumpi\n      0x00\n      dup1\n      revert\n    tag_1:\n      pop\n      jumpi(tag_2, lt(calldatasize, 0x04))\n      shr(0xe0, calldataload(0x00))\n      dup1\n      0x18b8275a\n      eq\n      tag_3\n      jumpi\n      dup1\n      0x1bc7ffe9\n      eq\n      tag_4\n      jumpi\n      dup1\n      0x4b4a80ba\n      eq\n      tag_5\n      jumpi\n      dup1\n      0x99b956a0\n      eq\n      tag_6\n      jumpi\n    tag_2:\n      0x00\n      dup1\n      revert\n        /* \"Auction.sol\":287:392  function addUser(string memory Name) public {\r... */\n    tag_3:\n      tag_7\n      0x04\n      dup1\n      calldatasize\n      sub\n      dup2\n      add\n      swap1\n      tag_8\n      swap2\n      swap1\n      tag_9\n      jump\t// in\n    tag_8:\n      tag_10\n      jump\t// in\n    tag_7:\n      stop\n        /* \"Auction.sol\":418:661  function addAsset(string memory Name, uint Price) public returns (uint, string memory, uint) {\r... */\n    tag_4:\n      tag_11\n      0x04\n      dup1\n      calldatasize\n      sub\n      dup2\n      add\n      swap1\n      tag_12\n      swap2\n      swap1\n      tag_13\n      jump\t// in\n    tag_12:\n      tag_14\n      jump\t// in\n    tag_11:\n      mload(0x40)\n      tag_15\n      swap4\n      swap3\n      swap2\n      swap1\n      tag_16\n      jump\t// in\n    tag_15:\n      mload(0x40)\n      dup1\n      swap2\n      sub\n      swap1\n      return\n        /* \"Auction.sol\":242:278  mapping(uint => Asset) public Assets */\n    tag_5:\n      tag_17\n      0x04\n      dup1\n      calldatasize\n      sub\n      dup2\n      add\n      swap1\n      tag_18\n      swap2\n      swap1\n      tag_19\n      jump\t// in\n    tag_18:\n      tag_20\n      jump\t// in\n    tag_17:\n      mload(0x40)\n      tag_21\n      swap4\n      swap3\n      swap2\n      swap1\n      tag_22\n      jump\t// in\n    tag_21:\n      mload(0x40)\n      dup1\n      swap2\n      sub\n      swap1\n      return\n        /* \"Auction.sol\":196:235  mapping(address => string) public Users */\n    tag_6:\n      tag_23\n      0x04\n      dup1\n      calldatasize\n      sub\n      dup2\n      add\n      swap1\n      tag_24\n      swap2\n      swap1\n      tag_25\n      jump\t// in\n    tag_24:\n      tag_26\n      jump\t// in\n    tag_23:\n      mload(0x40)\n      tag_27\n      swap2\n      swap1\n      tag_28\n      jump\t// in\n    tag_27:\n      mload(0x40)\n      dup1\n      swap2\n      sub\n      swap1\n      return\n        /* \"Auction.sol\":287:392  function addUser(string memory Name) public {\r... */\n    tag_10:\n        /* \"Auction.sol\":372:376  Name */\n      dup1\n        /* \"Auction.sol\":352:357  Users */\n      0x00\n        /* \"Auction.sol\":352:369  Users[msg.sender] */\n      dup1\n        /* \"Auction.sol\":358:368  msg.sender */\n      caller\n        /* \"Auction.sol\":352:369  Users[msg.sender] */\n      0xffffffffffffffffffffffffffffffffffffffff\n      and\n      0xffffffffffffffffffffffffffffffffffffffff\n      and\n      dup2\n      mstore\n      0x20\n      add\n      swap1\n      dup2\n      mstore\n      0x20\n      add\n      0x00\n      keccak256\n        /* \"Auction.sol\":352:376  Users[msg.sender] = Name */\n      swap1\n      dup1\n      mload\n      swap1\n      0x20\n      add\n      swap1\n      tag_30\n      swap3\n      swap2\n      swap1\n      tag_31\n      jump\t// in\n    tag_30:\n      pop\n        /* \"Auction.sol\":287:392  function addUser(string memory Name) public {\r... */\n      pop\n      jump\t// out\n        /* \"Auction.sol\":418:661  function addAsset(string memory Name, uint Price) public returns (uint, string memory, uint) {\r... */\n    tag_14:\n        /* \"Auction.sol\":484:488  uint */\n      0x00\n        /* \"Auction.sol\":490:503  string memory */\n      0x60\n        /* \"Auction.sol\":505:509  uint */\n      0x00\n        /* \"Auction.sol\":532:533  2 */\n      0x02\n        /* \"Auction.sol\":530:531  1 */\n      0x01\n        /* \"Auction.sol\":530:533  1>2 */\n      gt\n        /* \"Auction.sol\":522:548  require(1>2, 'hi heloow ') */\n      tag_33\n      jumpi\n      mload(0x40)\n      0x08c379a000000000000000000000000000000000000000000000000000000000\n      dup2\n      mstore\n      0x04\n      add\n      tag_34\n      swap1\n      tag_35\n      jump\t// in\n    tag_34:\n      mload(0x40)\n      dup1\n      swap2\n      sub\n      swap1\n      revert\n    tag_33:\n        /* \"Auction.sol\":559:561  Id */\n      0x02\n      0x00\n        /* \"Auction.sol\":559:563  Id++ */\n      dup2\n      sload\n      dup1\n      swap3\n      swap2\n      swap1\n      tag_36\n      swap1\n      tag_37\n      jump\t// in\n    tag_36:\n      swap2\n      swap1\n      pop\n      sstore\n      pop\n        /* \"Auction.sol\":587:617  Asset(Name, Price, msg.sender) */\n      mload(0x40)\n      dup1\n      0x60\n      add\n      0x40\n      mstore\n      dup1\n        /* \"Auction.sol\":593:597  Name */\n      dup7\n        /* \"Auction.sol\":587:617  Asset(Name, Price, msg.sender) */\n      dup2\n      mstore\n      0x20\n      add\n        /* \"Auction.sol\":599:604  Price */\n      dup6\n        /* \"Auction.sol\":587:617  Asset(Name, Price, msg.sender) */\n      dup2\n      mstore\n      0x20\n      add\n        /* \"Auction.sol\":606:616  msg.sender */\n      caller\n        /* \"Auction.sol\":587:617  Asset(Name, Price, msg.sender) */\n      0xffffffffffffffffffffffffffffffffffffffff\n      and\n      dup2\n      mstore\n      pop\n        /* \"Auction.sol\":574:580  Assets */\n      0x01\n        /* \"Auction.sol\":574:584  Assets[Id] */\n      0x00\n        /* \"Auction.sol\":581:583  Id */\n      sload(0x02)\n        /* \"Auction.sol\":574:584  Assets[Id] */\n      dup2\n      mstore\n      0x20\n      add\n      swap1\n      dup2\n      mstore\n      0x20\n      add\n      0x00\n      keccak256\n        /* \"Auction.sol\":574:617  Assets[Id] = Asset(Name, Price, msg.sender) */\n      0x00\n      dup3\n      add\n      mload\n      dup2\n      0x00\n      add\n      swap1\n      dup1\n      mload\n      swap1\n      0x20\n      add\n      swap1\n      tag_38\n      swap3\n      swap2\n      swap1\n      tag_31\n      jump\t// in\n    tag_38:\n      pop\n      0x20\n      dup3\n      add\n      mload\n      dup2\n      0x01\n      add\n      sstore\n      0x40\n      dup3\n      add\n      mload\n      dup2\n      0x02\n      add\n      exp(0x0100, 0x00)\n      dup2\n      sload\n      dup2\n      0xffffffffffffffffffffffffffffffffffffffff\n      mul\n      not\n      and\n      swap1\n      dup4\n      0xffffffffffffffffffffffffffffffffffffffff\n      and\n      mul\n      or\n      swap1\n      sstore\n      pop\n      swap1\n      pop\n      pop\n        /* \"Auction.sol\":636:638  Id */\n      sload(0x02)\n        /* \"Auction.sol\":640:644  Name */\n      dup6\n        /* \"Auction.sol\":646:651  Price */\n      dup6\n        /* \"Auction.sol\":628:652  return (Id, Name, Price) */\n      swap3\n      pop\n      swap3\n      pop\n      swap3\n      pop\n        /* \"Auction.sol\":418:661  function addAsset(string memory Name, uint Price) public returns (uint, string memory, uint) {\r... */\n      swap3\n      pop\n      swap3\n      pop\n      swap3\n      jump\t// out\n        /* \"Auction.sol\":242:278  mapping(uint => Asset) public Assets */\n    tag_20:\n      mstore(0x20, 0x01)\n      dup1\n      0x00\n      mstore\n      keccak256(0x00, 0x40)\n      0x00\n      swap2\n      pop\n      swap1\n      pop\n      dup1\n      0x00\n      add\n      dup1\n      sload\n      tag_39\n      swap1\n      tag_40\n      jump\t// in\n    tag_39:\n      dup1\n      0x1f\n      add\n      0x20\n      dup1\n      swap2\n      div\n      mul\n      0x20\n      add\n      mload(0x40)\n      swap1\n      dup2\n      add\n      0x40\n      mstore\n      dup1\n      swap3\n      swap2\n      swap1\n      dup2\n      dup2\n      mstore\n      0x20\n      add\n      dup3\n      dup1\n      sload\n      tag_41\n      swap1\n      tag_40\n      jump\t// in\n    tag_41:\n      dup1\n      iszero\n      tag_42\n      jumpi\n      dup1\n      0x1f\n      lt\n      tag_43\n      jumpi\n      0x0100\n      dup1\n      dup4\n      sload\n      div\n      mul\n      dup4\n      mstore\n      swap2\n      0x20\n      add\n      swap2\n      jump(tag_42)\n    tag_43:\n      dup3\n      add\n      swap2\n      swap1\n      0x00\n      mstore\n      keccak256(0x00, 0x20)\n      swap1\n    tag_44:\n      dup2\n      sload\n      dup2\n      mstore\n      swap1\n      0x01\n      add\n      swap1\n      0x20\n      add\n      dup1\n      dup4\n      gt\n      tag_44\n      jumpi\n      dup3\n      swap1\n      sub\n      0x1f\n      and\n      dup3\n      add\n      swap2\n    tag_42:\n      pop\n      pop\n      pop\n      pop\n      pop\n      swap1\n      dup1\n      0x01\n      add\n      sload\n      swap1\n      dup1\n      0x02\n      add\n      0x00\n      swap1\n      sload\n      swap1\n      0x0100\n      exp\n      swap1\n      div\n      0xffffffffffffffffffffffffffffffffffffffff\n      and\n      swap1\n      pop\n      dup4\n      jump\t// out\n        /* \"Auction.sol\":196:235  mapping(address => string) public Users */\n    tag_26:\n      mstore(0x20, 0x00)\n      dup1\n      0x00\n      mstore\n      keccak256(0x00, 0x40)\n      0x00\n      swap2\n      pop\n      swap1\n      pop\n      dup1\n      sload\n      tag_45\n      swap1\n      tag_40\n      jump\t// in\n    tag_45:\n      dup1\n      0x1f\n      add\n      0x20\n      dup1\n      swap2\n      div\n      mul\n      0x20\n      add\n      mload(0x40)\n      swap1\n      dup2\n      add\n      0x40\n      mstore\n      dup1\n      swap3\n      swap2\n      swap1\n      dup2\n      dup2\n      mstore\n      0x20\n      add\n      dup3\n      dup1\n      sload\n      tag_46\n      swap1\n      tag_40\n      jump\t// in\n    tag_46:\n      dup1\n      iszero\n      tag_47\n      jumpi\n      dup1\n      0x1f\n      lt\n      tag_48\n      jumpi\n      0x0100\n      dup1\n      dup4\n      sload\n      div\n      mul\n      dup4\n      mstore\n      swap2\n      0x20\n      add\n      swap2\n      jump(tag_47)\n    tag_48:\n      dup3\n      add\n      swap2\n      swap1\n      0x00\n      mstore\n      keccak256(0x00, 0x20)\n      swap1\n    tag_49:\n      dup2\n      sload\n      dup2\n      mstore\n      swap1\n      0x01\n      add\n      swap1\n      0x20\n      add\n      dup1\n      dup4\n      gt\n      tag_49\n      jumpi\n      dup3\n      swap1\n      sub\n      0x1f\n      and\n      dup3\n      add\n      swap2\n    tag_47:\n      pop\n      pop\n      pop\n      pop\n      pop\n      dup2\n      jump\t// out\n    tag_31:\n      dup3\n      dup1\n      sload\n      tag_50\n      swap1\n      tag_40\n      jump\t// in\n    tag_50:\n      swap1\n      0x00\n      mstore\n      keccak256(0x00, 0x20)\n      swap1\n      0x1f\n      add\n      0x20\n      swap1\n      div\n      dup2\n      add\n      swap3\n      dup3\n      tag_52\n      jumpi\n      0x00\n      dup6\n      sstore\n      jump(tag_51)\n    tag_52:\n      dup3\n      0x1f\n      lt\n      tag_53\n      jumpi\n      dup1\n      mload\n      not(0xff)\n      and\n      dup4\n      dup1\n      add\n      or\n      dup6\n      sstore\n      jump(tag_51)\n    tag_53:\n      dup3\n      dup1\n      add\n      0x01\n      add\n      dup6\n      sstore\n      dup3\n      iszero\n      tag_51\n      jumpi\n      swap2\n      dup3\n      add\n    tag_54:\n      dup3\n      dup2\n      gt\n      iszero\n      tag_55\n      jumpi\n      dup3\n      mload\n      dup3\n      sstore\n      swap2\n      0x20\n      add\n      swap2\n      swap1\n      0x01\n      add\n      swap1\n      jump(tag_54)\n    tag_55:\n    tag_51:\n      pop\n      swap1\n      pop\n      tag_56\n      swap2\n      swap1\n      tag_57\n      jump\t// in\n    tag_56:\n      pop\n      swap1\n      jump\t// out\n    tag_57:\n    tag_58:\n      dup1\n      dup3\n      gt\n      iszero\n      tag_59\n      jumpi\n      0x00\n      dup2\n      0x00\n      swap1\n      sstore\n      pop\n      0x01\n      add\n      jump(tag_58)\n    tag_59:\n      pop\n      swap1\n      jump\t// out\n        /* \"#utility.yul\":7:352   */\n    tag_61:\n      0x00\n        /* \"#utility.yul\":110:176   */\n      tag_63\n        /* \"#utility.yul\":126:175   */\n      tag_64\n        /* \"#utility.yul\":168:174   */\n      dup5\n        /* \"#utility.yul\":126:175   */\n      tag_65\n      jump\t// in\n    tag_64:\n        /* \"#utility.yul\":110:176   */\n      tag_66\n      jump\t// in\n    tag_63:\n        /* \"#utility.yul\":101:176   */\n      swap1\n      pop\n        /* \"#utility.yul\":199:205   */\n      dup3\n        /* \"#utility.yul\":192:197   */\n      dup2\n        /* \"#utility.yul\":185:206   */\n      mstore\n        /* \"#utility.yul\":237:241   */\n      0x20\n        /* \"#utility.yul\":230:235   */\n      dup2\n        /* \"#utility.yul\":226:242   */\n      add\n        /* \"#utility.yul\":275:278   */\n      dup5\n        /* \"#utility.yul\":266:272   */\n      dup5\n        /* \"#utility.yul\":261:264   */\n      dup5\n        /* \"#utility.yul\":257:273   */\n      add\n        /* \"#utility.yul\":254:279   */\n      gt\n        /* \"#utility.yul\":251:253   */\n      iszero\n      tag_67\n      jumpi\n        /* \"#utility.yul\":292:293   */\n      0x00\n        /* \"#utility.yul\":289:290   */\n      dup1\n        /* \"#utility.yul\":282:294   */\n      revert\n        /* \"#utility.yul\":251:253   */\n    tag_67:\n        /* \"#utility.yul\":305:346   */\n      tag_68\n        /* \"#utility.yul\":339:345   */\n      dup5\n        /* \"#utility.yul\":334:337   */\n      dup3\n        /* \"#utility.yul\":329:332   */\n      dup6\n        /* \"#utility.yul\":305:346   */\n      tag_69\n      jump\t// in\n    tag_68:\n        /* \"#utility.yul\":91:352   */\n      pop\n      swap4\n      swap3\n      pop\n      pop\n      pop\n      jump\t// out\n        /* \"#utility.yul\":358:497   */\n    tag_70:\n      0x00\n        /* \"#utility.yul\":442:448   */\n      dup2\n        /* \"#utility.yul\":429:449   */\n      calldataload\n        /* \"#utility.yul\":420:449   */\n      swap1\n      pop\n        /* \"#utility.yul\":458:491   */\n      tag_72\n        /* \"#utility.yul\":485:490   */\n      dup2\n        /* \"#utility.yul\":458:491   */\n      tag_73\n      jump\t// in\n    tag_72:\n        /* \"#utility.yul\":410:497   */\n      swap3\n      swap2\n      pop\n      pop\n      jump\t// out\n        /* \"#utility.yul\":517:790   */\n    tag_74:\n      0x00\n        /* \"#utility.yul\":622:625   */\n      dup3\n        /* \"#utility.yul\":615:619   */\n      0x1f\n        /* \"#utility.yul\":607:613   */\n      dup4\n        /* \"#utility.yul\":603:620   */\n      add\n        /* \"#utility.yul\":599:626   */\n      slt\n        /* \"#utility.yul\":589:591   */\n      tag_76\n      jumpi\n        /* \"#utility.yul\":640:641   */\n      0x00\n        /* \"#utility.yul\":637:638   */\n      dup1\n        /* \"#utility.yul\":630:642   */\n      revert\n        /* \"#utility.yul\":589:591   */\n    tag_76:\n        /* \"#utility.yul\":680:686   */\n      dup2\n        /* \"#utility.yul\":667:687   */\n      calldataload\n        /* \"#utility.yul\":705:784   */\n      tag_77\n        /* \"#utility.yul\":780:783   */\n      dup5\n        /* \"#utility.yul\":772:778   */\n      dup3\n        /* \"#utility.yul\":765:769   */\n      0x20\n        /* \"#utility.yul\":757:763   */\n      dup7\n        /* \"#utility.yul\":753:770   */\n      add\n        /* \"#utility.yul\":705:784   */\n      tag_61\n      jump\t// in\n    tag_77:\n        /* \"#utility.yul\":696:784   */\n      swap2\n      pop\n        /* \"#utility.yul\":579:790   */\n      pop\n      swap3\n      swap2\n      pop\n      pop\n      jump\t// out\n        /* \"#utility.yul\":796:935   */\n    tag_78:\n      0x00\n        /* \"#utility.yul\":880:886   */\n      dup2\n        /* \"#utility.yul\":867:887   */\n      calldataload\n        /* \"#utility.yul\":858:887   */\n      swap1\n      pop\n        /* \"#utility.yul\":896:929   */\n      tag_80\n        /* \"#utility.yul\":923:928   */\n      dup2\n        /* \"#utility.yul\":896:929   */\n      tag_81\n      jump\t// in\n    tag_80:\n        /* \"#utility.yul\":848:935   */\n      swap3\n      swap2\n      pop\n      pop\n      jump\t// out\n        /* \"#utility.yul\":941:1203   */\n    tag_25:\n      0x00\n        /* \"#utility.yul\":1049:1051   */\n      0x20\n        /* \"#utility.yul\":1037:1046   */\n      dup3\n        /* \"#utility.yul\":1028:1035   */\n      dup5\n        /* \"#utility.yul\":1024:1047   */\n      sub\n        /* \"#utility.yul\":1020:1052   */\n      slt\n        /* \"#utility.yul\":1017:1019   */\n      iszero\n      tag_83\n      jumpi\n        /* \"#utility.yul\":1065:1066   */\n      0x00\n        /* \"#utility.yul\":1062:1063   */\n      dup1\n        /* \"#utility.yul\":1055:1067   */\n      revert\n        /* \"#utility.yul\":1017:1019   */\n    tag_83:\n        /* \"#utility.yul\":1108:1109   */\n      0x00\n        /* \"#utility.yul\":1133:1186   */\n      tag_84\n        /* \"#utility.yul\":1178:1185   */\n      dup5\n        /* \"#utility.yul\":1169:1175   */\n      dup3\n        /* \"#utility.yul\":1158:1167   */\n      dup6\n        /* \"#utility.yul\":1154:1176   */\n      add\n        /* \"#utility.yul\":1133:1186   */\n      tag_70\n      jump\t// in\n    tag_84:\n        /* \"#utility.yul\":1123:1186   */\n      swap2\n      pop\n        /* \"#utility.yul\":1079:1196   */\n      pop\n        /* \"#utility.yul\":1007:1203   */\n      swap3\n      swap2\n      pop\n      pop\n      jump\t// out\n        /* \"#utility.yul\":1209:1584   */\n    tag_9:\n      0x00\n        /* \"#utility.yul\":1327:1329   */\n      0x20\n        /* \"#utility.yul\":1315:1324   */\n      dup3\n        /* \"#utility.yul\":1306:1313   */\n      dup5\n        /* \"#utility.yul\":1302:1325   */\n      sub\n        /* \"#utility.yul\":1298:1330   */\n      slt\n        /* \"#utility.yul\":1295:1297   */\n      iszero\n      tag_86\n      jumpi\n        /* \"#utility.yul\":1343:1344   */\n      0x00\n        /* \"#utility.yul\":1340:1341   */\n      dup1\n        /* \"#utility.yul\":1333:1345   */\n      revert\n        /* \"#utility.yul\":1295:1297   */\n    tag_86:\n        /* \"#utility.yul\":1414:1415   */\n      0x00\n        /* \"#utility.yul\":1403:1412   */\n      dup3\n        /* \"#utility.yul\":1399:1416   */\n      add\n        /* \"#utility.yul\":1386:1417   */\n      calldataload\n        /* \"#utility.yul\":1444:1462   */\n      0xffffffffffffffff\n        /* \"#utility.yul\":1436:1442   */\n      dup2\n        /* \"#utility.yul\":1433:1463   */\n      gt\n        /* \"#utility.yul\":1430:1432   */\n      iszero\n      tag_87\n      jumpi\n        /* \"#utility.yul\":1476:1477   */\n      0x00\n        /* \"#utility.yul\":1473:1474   */\n      dup1\n        /* \"#utility.yul\":1466:1478   */\n      revert\n        /* \"#utility.yul\":1430:1432   */\n    tag_87:\n        /* \"#utility.yul\":1504:1567   */\n      tag_88\n        /* \"#utility.yul\":1559:1566   */\n      dup5\n        /* \"#utility.yul\":1550:1556   */\n      dup3\n        /* \"#utility.yul\":1539:1548   */\n      dup6\n        /* \"#utility.yul\":1535:1557   */\n      add\n        /* \"#utility.yul\":1504:1567   */\n      tag_74\n      jump\t// in\n    tag_88:\n        /* \"#utility.yul\":1494:1567   */\n      swap2\n      pop\n        /* \"#utility.yul\":1357:1577   */\n      pop\n        /* \"#utility.yul\":1285:1584   */\n      swap3\n      swap2\n      pop\n      pop\n      jump\t// out\n        /* \"#utility.yul\":1590:2110   */\n    tag_13:\n      0x00\n      dup1\n        /* \"#utility.yul\":1725:1727   */\n      0x40\n        /* \"#utility.yul\":1713:1722   */\n      dup4\n        /* \"#utility.yul\":1704:1711   */\n      dup6\n        /* \"#utility.yul\":1700:1723   */\n      sub\n        /* \"#utility.yul\":1696:1728   */\n      slt\n        /* \"#utility.yul\":1693:1695   */\n      iszero\n      tag_90\n      jumpi\n        /* \"#utility.yul\":1741:1742   */\n      0x00\n        /* \"#utility.yul\":1738:1739   */\n      dup1\n        /* \"#utility.yul\":1731:1743   */\n      revert\n        /* \"#utility.yul\":1693:1695   */\n    tag_90:\n        /* \"#utility.yul\":1812:1813   */\n      0x00\n        /* \"#utility.yul\":1801:1810   */\n      dup4\n        /* \"#utility.yul\":1797:1814   */\n      add\n        /* \"#utility.yul\":1784:1815   */\n      calldataload\n        /* \"#utility.yul\":1842:1860   */\n      0xffffffffffffffff\n        /* \"#utility.yul\":1834:1840   */\n      dup2\n        /* \"#utility.yul\":1831:1861   */\n      gt\n        /* \"#utility.yul\":1828:1830   */\n      iszero\n      tag_91\n      jumpi\n        /* \"#utility.yul\":1874:1875   */\n      0x00\n        /* \"#utility.yul\":1871:1872   */\n      dup1\n        /* \"#utility.yul\":1864:1876   */\n      revert\n        /* \"#utility.yul\":1828:1830   */\n    tag_91:\n        /* \"#utility.yul\":1902:1965   */\n      tag_92\n        /* \"#utility.yul\":1957:1964   */\n      dup6\n        /* \"#utility.yul\":1948:1954   */\n      dup3\n        /* \"#utility.yul\":1937:1946   */\n      dup7\n        /* \"#utility.yul\":1933:1955   */\n      add\n        /* \"#utility.yul\":1902:1965   */\n      tag_74\n      jump\t// in\n    tag_92:\n        /* \"#utility.yul\":1892:1965   */\n      swap3\n      pop\n        /* \"#utility.yul\":1755:1975   */\n      pop\n        /* \"#utility.yul\":2014:2016   */\n      0x20\n        /* \"#utility.yul\":2040:2093   */\n      tag_93\n        /* \"#utility.yul\":2085:2092   */\n      dup6\n        /* \"#utility.yul\":2076:2082   */\n      dup3\n        /* \"#utility.yul\":2065:2074   */\n      dup7\n        /* \"#utility.yul\":2061:2083   */\n      add\n        /* \"#utility.yul\":2040:2093   */\n      tag_78\n      jump\t// in\n    tag_93:\n        /* \"#utility.yul\":2030:2093   */\n      swap2\n      pop\n        /* \"#utility.yul\":1985:2103   */\n      pop\n        /* \"#utility.yul\":1683:2110   */\n      swap3\n      pop\n      swap3\n      swap1\n      pop\n      jump\t// out\n        /* \"#utility.yul\":2116:2378   */\n    tag_19:\n      0x00\n        /* \"#utility.yul\":2224:2226   */\n      0x20\n        /* \"#utility.yul\":2212:2221   */\n      dup3\n        /* \"#utility.yul\":2203:2210   */\n      dup5\n        /* \"#utility.yul\":2199:2222   */\n      sub\n        /* \"#utility.yul\":2195:2227   */\n      slt\n        /* \"#utility.yul\":2192:2194   */\n      iszero\n      tag_95\n      jumpi\n        /* \"#utility.yul\":2240:2241   */\n      0x00\n        /* \"#utility.yul\":2237:2238   */\n      dup1\n        /* \"#utility.yul\":2230:2242   */\n      revert\n        /* \"#utility.yul\":2192:2194   */\n    tag_95:\n        /* \"#utility.yul\":2283:2284   */\n      0x00\n        /* \"#utility.yul\":2308:2361   */\n      tag_96\n        /* \"#utility.yul\":2353:2360   */\n      dup5\n        /* \"#utility.yul\":2344:2350   */\n      dup3\n        /* \"#utility.yul\":2333:2342   */\n      dup6\n        /* \"#utility.yul\":2329:2351   */\n      add\n        /* \"#utility.yul\":2308:2361   */\n      tag_78\n      jump\t// in\n    tag_96:\n        /* \"#utility.yul\":2298:2361   */\n      swap2\n      pop\n        /* \"#utility.yul\":2254:2371   */\n      pop\n        /* \"#utility.yul\":2182:2378   */\n      swap3\n      swap2\n      pop\n      pop\n      jump\t// out\n        /* \"#utility.yul\":2384:2502   */\n    tag_97:\n        /* \"#utility.yul\":2471:2495   */\n      tag_99\n        /* \"#utility.yul\":2489:2494   */\n      dup2\n        /* \"#utility.yul\":2471:2495   */\n      tag_100\n      jump\t// in\n    tag_99:\n        /* \"#utility.yul\":2466:2469   */\n      dup3\n        /* \"#utility.yul\":2459:2496   */\n      mstore\n        /* \"#utility.yul\":2449:2502   */\n      pop\n      pop\n      jump\t// out\n        /* \"#utility.yul\":2508:2872   */\n    tag_101:\n      0x00\n        /* \"#utility.yul\":2624:2663   */\n      tag_103\n        /* \"#utility.yul\":2657:2662   */\n      dup3\n        /* \"#utility.yul\":2624:2663   */\n      tag_104\n      jump\t// in\n    tag_103:\n        /* \"#utility.yul\":2679:2750   */\n      tag_105\n        /* \"#utility.yul\":2743:2749   */\n      dup2\n        /* \"#utility.yul\":2738:2741   */\n      dup6\n        /* \"#utility.yul\":2679:2750   */\n      tag_106\n      jump\t// in\n    tag_105:\n        /* \"#utility.yul\":2672:2750   */\n      swap4\n      pop\n        /* \"#utility.yul\":2759:2811   */\n      tag_107\n        /* \"#utility.yul\":2804:2810   */\n      dup2\n        /* \"#utility.yul\":2799:2802   */\n      dup6\n        /* \"#utility.yul\":2792:2796   */\n      0x20\n        /* \"#utility.yul\":2785:2790   */\n      dup7\n        /* \"#utility.yul\":2781:2797   */\n      add\n        /* \"#utility.yul\":2759:2811   */\n      tag_108\n      jump\t// in\n    tag_107:\n        /* \"#utility.yul\":2836:2865   */\n      tag_109\n        /* \"#utility.yul\":2858:2864   */\n      dup2\n        /* \"#utility.yul\":2836:2865   */\n      tag_110\n      jump\t// in\n    tag_109:\n        /* \"#utility.yul\":2831:2834   */\n      dup5\n        /* \"#utility.yul\":2827:2866   */\n      add\n        /* \"#utility.yul\":2820:2866   */\n      swap2\n      pop\n        /* \"#utility.yul\":2600:2872   */\n      pop\n      swap3\n      swap2\n      pop\n      pop\n      jump\t// out\n        /* \"#utility.yul\":2878:3244   */\n    tag_111:\n      0x00\n        /* \"#utility.yul\":3041:3108   */\n      tag_113\n        /* \"#utility.yul\":3105:3107   */\n      0x0a\n        /* \"#utility.yul\":3100:3103   */\n      dup4\n        /* \"#utility.yul\":3041:3108   */\n      tag_106\n      jump\t// in\n    tag_113:\n        /* \"#utility.yul\":3034:3108   */\n      swap2\n      pop\n        /* \"#utility.yul\":3117:3210   */\n      tag_114\n        /* \"#utility.yul\":3206:3209   */\n      dup3\n        /* \"#utility.yul\":3117:3210   */\n      tag_115\n      jump\t// in\n    tag_114:\n        /* \"#utility.yul\":3235:3237   */\n      0x20\n        /* \"#utility.yul\":3230:3233   */\n      dup3\n        /* \"#utility.yul\":3226:3238   */\n      add\n        /* \"#utility.yul\":3219:3238   */\n      swap1\n      pop\n        /* \"#utility.yul\":3024:3244   */\n      swap2\n      swap1\n      pop\n      jump\t// out\n        /* \"#utility.yul\":3250:3368   */\n    tag_116:\n        /* \"#utility.yul\":3337:3361   */\n      tag_118\n        /* \"#utility.yul\":3355:3360   */\n      dup2\n        /* \"#utility.yul\":3337:3361   */\n      tag_119\n      jump\t// in\n    tag_118:\n        /* \"#utility.yul\":3332:3335   */\n      dup3\n        /* \"#utility.yul\":3325:3362   */\n      mstore\n        /* \"#utility.yul\":3315:3368   */\n      pop\n      pop\n      jump\t// out\n        /* \"#utility.yul\":3374:3687   */\n    tag_28:\n      0x00\n        /* \"#utility.yul\":3525:3527   */\n      0x20\n        /* \"#utility.yul\":3514:3523   */\n      dup3\n        /* \"#utility.yul\":3510:3528   */\n      add\n        /* \"#utility.yul\":3502:3528   */\n      swap1\n      pop\n        /* \"#utility.yul\":3574:3583   */\n      dup2\n        /* \"#utility.yul\":3568:3572   */\n      dup2\n        /* \"#utility.yul\":3564:3584   */\n      sub\n        /* \"#utility.yul\":3560:3561   */\n      0x00\n        /* \"#utility.yul\":3549:3558   */\n      dup4\n        /* \"#utility.yul\":3545:3562   */\n      add\n        /* \"#utility.yul\":3538:3585   */\n      mstore\n        /* \"#utility.yul\":3602:3680   */\n      tag_121\n        /* \"#utility.yul\":3675:3679   */\n      dup2\n        /* \"#utility.yul\":3666:3672   */\n      dup5\n        /* \"#utility.yul\":3602:3680   */\n      tag_101\n      jump\t// in\n    tag_121:\n        /* \"#utility.yul\":3594:3680   */\n      swap1\n      pop\n        /* \"#utility.yul\":3492:3687   */\n      swap3\n      swap2\n      pop\n      pop\n      jump\t// out\n        /* \"#utility.yul\":3693:4226   */\n    tag_22:\n      0x00\n        /* \"#utility.yul\":3900:3902   */\n      0x60\n        /* \"#utility.yul\":3889:3898   */\n      dup3\n        /* \"#utility.yul\":3885:3903   */\n      add\n        /* \"#utility.yul\":3877:3903   */\n      swap1\n      pop\n        /* \"#utility.yul\":3949:3958   */\n      dup2\n        /* \"#utility.yul\":3943:3947   */\n      dup2\n        /* \"#utility.yul\":3939:3959   */\n      sub\n        /* \"#utility.yul\":3935:3936   */\n      0x00\n        /* \"#utility.yul\":3924:3933   */\n      dup4\n        /* \"#utility.yul\":3920:3937   */\n      add\n        /* \"#utility.yul\":3913:3960   */\n      mstore\n        /* \"#utility.yul\":3977:4055   */\n      tag_123\n        /* \"#utility.yul\":4050:4054   */\n      dup2\n        /* \"#utility.yul\":4041:4047   */\n      dup7\n        /* \"#utility.yul\":3977:4055   */\n      tag_101\n      jump\t// in\n    tag_123:\n        /* \"#utility.yul\":3969:4055   */\n      swap1\n      pop\n        /* \"#utility.yul\":4065:4137   */\n      tag_124\n        /* \"#utility.yul\":4133:4135   */\n      0x20\n        /* \"#utility.yul\":4122:4131   */\n      dup4\n        /* \"#utility.yul\":4118:4136   */\n      add\n        /* \"#utility.yul\":4109:4115   */\n      dup6\n        /* \"#utility.yul\":4065:4137   */\n      tag_116\n      jump\t// in\n    tag_124:\n        /* \"#utility.yul\":4147:4219   */\n      tag_125\n        /* \"#utility.yul\":4215:4217   */\n      0x40\n        /* \"#utility.yul\":4204:4213   */\n      dup4\n        /* \"#utility.yul\":4200:4218   */\n      add\n        /* \"#utility.yul\":4191:4197   */\n      dup5\n        /* \"#utility.yul\":4147:4219   */\n      tag_97\n      jump\t// in\n    tag_125:\n        /* \"#utility.yul\":3867:4226   */\n      swap5\n      swap4\n      pop\n      pop\n      pop\n      pop\n      jump\t// out\n        /* \"#utility.yul\":4232:4651   */\n    tag_35:\n      0x00\n        /* \"#utility.yul\":4436:4438   */\n      0x20\n        /* \"#utility.yul\":4425:4434   */\n      dup3\n        /* \"#utility.yul\":4421:4439   */\n      add\n        /* \"#utility.yul\":4413:4439   */\n      swap1\n      pop\n        /* \"#utility.yul\":4485:4494   */\n      dup2\n        /* \"#utility.yul\":4479:4483   */\n      dup2\n        /* \"#utility.yul\":4475:4495   */\n      sub\n        /* \"#utility.yul\":4471:4472   */\n      0x00\n        /* \"#utility.yul\":4460:4469   */\n      dup4\n        /* \"#utility.yul\":4456:4473   */\n      add\n        /* \"#utility.yul\":4449:4496   */\n      mstore\n        /* \"#utility.yul\":4513:4644   */\n      tag_127\n        /* \"#utility.yul\":4639:4643   */\n      dup2\n        /* \"#utility.yul\":4513:4644   */\n      tag_111\n      jump\t// in\n    tag_127:\n        /* \"#utility.yul\":4505:4644   */\n      swap1\n      pop\n        /* \"#utility.yul\":4403:4651   */\n      swap2\n      swap1\n      pop\n      jump\t// out\n        /* \"#utility.yul\":4657:5190   */\n    tag_16:\n      0x00\n        /* \"#utility.yul\":4864:4866   */\n      0x60\n        /* \"#utility.yul\":4853:4862   */\n      dup3\n        /* \"#utility.yul\":4849:4867   */\n      add\n        /* \"#utility.yul\":4841:4867   */\n      swap1\n      pop\n        /* \"#utility.yul\":4877:4948   */\n      tag_129\n        /* \"#utility.yul\":4945:4946   */\n      0x00\n        /* \"#utility.yul\":4934:4943   */\n      dup4\n        /* \"#utility.yul\":4930:4947   */\n      add\n        /* \"#utility.yul\":4921:4927   */\n      dup7\n        /* \"#utility.yul\":4877:4948   */\n      tag_116\n      jump\t// in\n    tag_129:\n        /* \"#utility.yul\":4995:5004   */\n      dup2\n        /* \"#utility.yul\":4989:4993   */\n      dup2\n        /* \"#utility.yul\":4985:5005   */\n      sub\n        /* \"#utility.yul\":4980:4982   */\n      0x20\n        /* \"#utility.yul\":4969:4978   */\n      dup4\n        /* \"#utility.yul\":4965:4983   */\n      add\n        /* \"#utility.yul\":4958:5006   */\n      mstore\n        /* \"#utility.yul\":5023:5101   */\n      tag_130\n        /* \"#utility.yul\":5096:5100   */\n      dup2\n        /* \"#utility.yul\":5087:5093   */\n      dup6\n        /* \"#utility.yul\":5023:5101   */\n      tag_101\n      jump\t// in\n    tag_130:\n        /* \"#utility.yul\":5015:5101   */\n      swap1\n      pop\n        /* \"#utility.yul\":5111:5183   */\n      tag_131\n        /* \"#utility.yul\":5179:5181   */\n      0x40\n        /* \"#utility.yul\":5168:5177   */\n      dup4\n        /* \"#utility.yul\":5164:5182   */\n      add\n        /* \"#utility.yul\":5155:5161   */\n      dup5\n        /* \"#utility.yul\":5111:5183   */\n      tag_116\n      jump\t// in\n    tag_131:\n        /* \"#utility.yul\":4831:5190   */\n      swap5\n      swap4\n      pop\n      pop\n      pop\n      pop\n      jump\t// out\n        /* \"#utility.yul\":5196:5325   */\n    tag_66:\n      0x00\n        /* \"#utility.yul\":5257:5277   */\n      tag_133\n      tag_134\n      jump\t// in\n    tag_133:\n        /* \"#utility.yul\":5247:5277   */\n      swap1\n      pop\n        /* \"#utility.yul\":5286:5319   */\n      tag_135\n        /* \"#utility.yul\":5314:5318   */\n      dup3\n        /* \"#utility.yul\":5306:5312   */\n      dup3\n        /* \"#utility.yul\":5286:5319   */\n      tag_136\n      jump\t// in\n    tag_135:\n        /* \"#utility.yul\":5237:5325   */\n      swap2\n      swap1\n      pop\n      jump\t// out\n        /* \"#utility.yul\":5331:5406   */\n    tag_134:\n      0x00\n        /* \"#utility.yul\":5397:5399   */\n      0x40\n        /* \"#utility.yul\":5391:5400   */\n      mload\n        /* \"#utility.yul\":5381:5400   */\n      swap1\n      pop\n        /* \"#utility.yul\":5371:5406   */\n      swap1\n      jump\t// out\n        /* \"#utility.yul\":5412:5720   */\n    tag_65:\n      0x00\n        /* \"#utility.yul\":5564:5582   */\n      0xffffffffffffffff\n        /* \"#utility.yul\":5556:5562   */\n      dup3\n        /* \"#utility.yul\":5553:5583   */\n      gt\n        /* \"#utility.yul\":5550:5552   */\n      iszero\n      tag_139\n      jumpi\n        /* \"#utility.yul\":5586:5604   */\n      tag_140\n      tag_141\n      jump\t// in\n    tag_140:\n        /* \"#utility.yul\":5550:5552   */\n    tag_139:\n        /* \"#utility.yul\":5624:5653   */\n      tag_142\n        /* \"#utility.yul\":5646:5652   */\n      dup3\n        /* \"#utility.yul\":5624:5653   */\n      tag_110\n      jump\t// in\n    tag_142:\n        /* \"#utility.yul\":5616:5653   */\n      swap1\n      pop\n        /* \"#utility.yul\":5708:5712   */\n      0x20\n        /* \"#utility.yul\":5702:5706   */\n      dup2\n        /* \"#utility.yul\":5698:5713   */\n      add\n        /* \"#utility.yul\":5690:5713   */\n      swap1\n      pop\n        /* \"#utility.yul\":5479:5720   */\n      swap2\n      swap1\n      pop\n      jump\t// out\n        /* \"#utility.yul\":5726:5825   */\n    tag_104:\n      0x00\n        /* \"#utility.yul\":5812:5817   */\n      dup2\n        /* \"#utility.yul\":5806:5818   */\n      mload\n        /* \"#utility.yul\":5796:5818   */\n      swap1\n      pop\n        /* \"#utility.yul\":5785:5825   */\n      swap2\n      swap1\n      pop\n      jump\t// out\n        /* \"#utility.yul\":5831:6000   */\n    tag_106:\n      0x00\n        /* \"#utility.yul\":5949:5955   */\n      dup3\n        /* \"#utility.yul\":5944:5947   */\n      dup3\n        /* \"#utility.yul\":5937:5956   */\n      mstore\n        /* \"#utility.yul\":5989:5993   */\n      0x20\n        /* \"#utility.yul\":5984:5987   */\n      dup3\n        /* \"#utility.yul\":5980:5994   */\n      add\n        /* \"#utility.yul\":5965:5994   */\n      swap1\n      pop\n        /* \"#utility.yul\":5927:6000   */\n      swap3\n      swap2\n      pop\n      pop\n      jump\t// out\n        /* \"#utility.yul\":6006:6102   */\n    tag_100:\n      0x00\n        /* \"#utility.yul\":6072:6096   */\n      tag_146\n        /* \"#utility.yul\":6090:6095   */\n      dup3\n        /* \"#utility.yul\":6072:6096   */\n      tag_147\n      jump\t// in\n    tag_146:\n        /* \"#utility.yul\":6061:6096   */\n      swap1\n      pop\n        /* \"#utility.yul\":6051:6102   */\n      swap2\n      swap1\n      pop\n      jump\t// out\n        /* \"#utility.yul\":6108:6234   */\n    tag_147:\n      0x00\n        /* \"#utility.yul\":6185:6227   */\n      0xffffffffffffffffffffffffffffffffffffffff\n        /* \"#utility.yul\":6178:6183   */\n      dup3\n        /* \"#utility.yul\":6174:6228   */\n      and\n        /* \"#utility.yul\":6163:6228   */\n      swap1\n      pop\n        /* \"#utility.yul\":6153:6234   */\n      swap2\n      swap1\n      pop\n      jump\t// out\n        /* \"#utility.yul\":6240:6317   */\n    tag_119:\n      0x00\n        /* \"#utility.yul\":6306:6311   */\n      dup2\n        /* \"#utility.yul\":6295:6311   */\n      swap1\n      pop\n        /* \"#utility.yul\":6285:6317   */\n      swap2\n      swap1\n      pop\n      jump\t// out\n        /* \"#utility.yul\":6323:6477   */\n    tag_69:\n        /* \"#utility.yul\":6407:6413   */\n      dup3\n        /* \"#utility.yul\":6402:6405   */\n      dup2\n        /* \"#utility.yul\":6397:6400   */\n      dup4\n        /* \"#utility.yul\":6384:6414   */\n      calldatacopy\n        /* \"#utility.yul\":6469:6470   */\n      0x00\n        /* \"#utility.yul\":6460:6466   */\n      dup4\n        /* \"#utility.yul\":6455:6458   */\n      dup4\n        /* \"#utility.yul\":6451:6467   */\n      add\n        /* \"#utility.yul\":6444:6471   */\n      mstore\n        /* \"#utility.yul\":6374:6477   */\n      pop\n      pop\n      pop\n      jump\t// out\n        /* \"#utility.yul\":6483:6790   */\n    tag_108:\n        /* \"#utility.yul\":6551:6552   */\n      0x00\n        /* \"#utility.yul\":6561:6674   */\n    tag_152:\n        /* \"#utility.yul\":6575:6581   */\n      dup4\n        /* \"#utility.yul\":6572:6573   */\n      dup2\n        /* \"#utility.yul\":6569:6582   */\n      lt\n        /* \"#utility.yul\":6561:6674   */\n      iszero\n      tag_154\n      jumpi\n        /* \"#utility.yul\":6660:6661   */\n      dup1\n        /* \"#utility.yul\":6655:6658   */\n      dup3\n        /* \"#utility.yul\":6651:6662   */\n      add\n        /* \"#utility.yul\":6645:6663   */\n      mload\n        /* \"#utility.yul\":6641:6642   */\n      dup2\n        /* \"#utility.yul\":6636:6639   */\n      dup5\n        /* \"#utility.yul\":6632:6643   */\n      add\n        /* \"#utility.yul\":6625:6664   */\n      mstore\n        /* \"#utility.yul\":6597:6599   */\n      0x20\n        /* \"#utility.yul\":6594:6595   */\n      dup2\n        /* \"#utility.yul\":6590:6600   */\n      add\n        /* \"#utility.yul\":6585:6600   */\n      swap1\n      pop\n        /* \"#utility.yul\":6561:6674   */\n      jump(tag_152)\n    tag_154:\n        /* \"#utility.yul\":6692:6698   */\n      dup4\n        /* \"#utility.yul\":6689:6690   */\n      dup2\n        /* \"#utility.yul\":6686:6699   */\n      gt\n        /* \"#utility.yul\":6683:6685   */\n      iszero\n      tag_155\n      jumpi\n        /* \"#utility.yul\":6772:6773   */\n      0x00\n        /* \"#utility.yul\":6763:6769   */\n      dup5\n        /* \"#utility.yul\":6758:6761   */\n      dup5\n        /* \"#utility.yul\":6754:6770   */\n      add\n        /* \"#utility.yul\":6747:6774   */\n      mstore\n        /* \"#utility.yul\":6683:6685   */\n    tag_155:\n        /* \"#utility.yul\":6532:6790   */\n      pop\n      pop\n      pop\n      pop\n      jump\t// out\n        /* \"#utility.yul\":6796:7116   */\n    tag_40:\n      0x00\n        /* \"#utility.yul\":6877:6878   */\n      0x02\n        /* \"#utility.yul\":6871:6875   */\n      dup3\n        /* \"#utility.yul\":6867:6879   */\n      div\n        /* \"#utility.yul\":6857:6879   */\n      swap1\n      pop\n        /* \"#utility.yul\":6924:6925   */\n      0x01\n        /* \"#utility.yul\":6918:6922   */\n      dup3\n        /* \"#utility.yul\":6914:6926   */\n      and\n        /* \"#utility.yul\":6945:6963   */\n      dup1\n        /* \"#utility.yul\":6935:6937   */\n      tag_157\n      jumpi\n        /* \"#utility.yul\":7001:7005   */\n      0x7f\n        /* \"#utility.yul\":6993:6999   */\n      dup3\n        /* \"#utility.yul\":6989:7006   */\n      and\n        /* \"#utility.yul\":6979:7006   */\n      swap2\n      pop\n        /* \"#utility.yul\":6935:6937   */\n    tag_157:\n        /* \"#utility.yul\":7063:7065   */\n      0x20\n        /* \"#utility.yul\":7055:7061   */\n      dup3\n        /* \"#utility.yul\":7052:7066   */\n      lt\n        /* \"#utility.yul\":7032:7050   */\n      dup2\n        /* \"#utility.yul\":7029:7067   */\n      eq\n        /* \"#utility.yul\":7026:7028   */\n      iszero\n      tag_158\n      jumpi\n        /* \"#utility.yul\":7082:7100   */\n      tag_159\n      tag_160\n      jump\t// in\n    tag_159:\n        /* \"#utility.yul\":7026:7028   */\n    tag_158:\n        /* \"#utility.yul\":6847:7116   */\n      pop\n      swap2\n      swap1\n      pop\n      jump\t// out\n        /* \"#utility.yul\":7122:7403   */\n    tag_136:\n        /* \"#utility.yul\":7205:7232   */\n      tag_162\n        /* \"#utility.yul\":7227:7231   */\n      dup3\n        /* \"#utility.yul\":7205:7232   */\n      tag_110\n      jump\t// in\n    tag_162:\n        /* \"#utility.yul\":7197:7203   */\n      dup2\n        /* \"#utility.yul\":7193:7233   */\n      add\n        /* \"#utility.yul\":7335:7341   */\n      dup2\n        /* \"#utility.yul\":7323:7333   */\n      dup2\n        /* \"#utility.yul\":7320:7342   */\n      lt\n        /* \"#utility.yul\":7299:7317   */\n      0xffffffffffffffff\n        /* \"#utility.yul\":7287:7297   */\n      dup3\n        /* \"#utility.yul\":7284:7318   */\n      gt\n        /* \"#utility.yul\":7281:7343   */\n      or\n        /* \"#utility.yul\":7278:7280   */\n      iszero\n      tag_163\n      jumpi\n        /* \"#utility.yul\":7346:7364   */\n      tag_164\n      tag_141\n      jump\t// in\n    tag_164:\n        /* \"#utility.yul\":7278:7280   */\n    tag_163:\n        /* \"#utility.yul\":7386:7396   */\n      dup1\n        /* \"#utility.yul\":7382:7384   */\n      0x40\n        /* \"#utility.yul\":7375:7397   */\n      mstore\n        /* \"#utility.yul\":7165:7403   */\n      pop\n      pop\n      pop\n      jump\t// out\n        /* \"#utility.yul\":7409:7642   */\n    tag_37:\n      0x00\n        /* \"#utility.yul\":7471:7495   */\n      tag_166\n        /* \"#utility.yul\":7489:7494   */\n      dup3\n        /* \"#utility.yul\":7471:7495   */\n      tag_119\n      jump\t// in\n    tag_166:\n        /* \"#utility.yul\":7462:7495   */\n      swap2\n      pop\n        /* \"#utility.yul\":7517:7583   */\n      0xffffffffffffffffffffffffffffffffffffffffffffffffffffffffffffffff\n        /* \"#utility.yul\":7510:7515   */\n      dup3\n        /* \"#utility.yul\":7507:7584   */\n      eq\n        /* \"#utility.yul\":7504:7506   */\n      iszero\n      tag_167\n      jumpi\n        /* \"#utility.yul\":7587:7605   */\n      tag_168\n      tag_169\n      jump\t// in\n    tag_168:\n        /* \"#utility.yul\":7504:7506   */\n    tag_167:\n        /* \"#utility.yul\":7634:7635   */\n      0x01\n        /* \"#utility.yul\":7627:7632   */\n      dup3\n        /* \"#utility.yul\":7623:7636   */\n      add\n        /* \"#utility.yul\":7616:7636   */\n      swap1\n      pop\n        /* \"#utility.yul\":7452:7642   */\n      swap2\n      swap1\n      pop\n      jump\t// out\n        /* \"#utility.yul\":7648:7828   */\n    tag_169:\n        /* \"#utility.yul\":7696:7773   */\n      0x4e487b7100000000000000000000000000000000000000000000000000000000\n        /* \"#utility.yul\":7693:7694   */\n      0x00\n        /* \"#utility.yul\":7686:7774   */\n      mstore\n        /* \"#utility.yul\":7793:7797   */\n      0x11\n        /* \"#utility.yul\":7790:7791   */\n      0x04\n        /* \"#utility.yul\":7783:7798   */\n      mstore\n        /* \"#utility.yul\":7817:7821   */\n      0x24\n        /* \"#utility.yul\":7814:7815   */\n      0x00\n        /* \"#utility.yul\":7807:7822   */\n      revert\n        /* \"#utility.yul\":7834:8014   */\n    tag_160:\n        /* \"#utility.yul\":7882:7959   */\n      0x4e487b7100000000000000000000000000000000000000000000000000000000\n        /* \"#utility.yul\":7879:7880   */\n      0x00\n        /* \"#utility.yul\":7872:7960   */\n      mstore\n        /* \"#utility.yul\":7979:7983   */\n      0x22\n        /* \"#utility.yul\":7976:7977   */\n      0x04\n        /* \"#utility.yul\":7969:7984   */\n      mstore\n        /* \"#utility.yul\":8003:8007   */\n      0x24\n        /* \"#utility.yul\":8000:8001   */\n      0x00\n        /* \"#utility.yul\":7993:8008   */\n      revert\n        /* \"#utility.yul\":8020:8200   */\n    tag_141:\n        /* \"#utility.yul\":8068:8145   */\n      0x4e487b7100000000000000000000000000000000000000000000000000000000\n        /* \"#utility.yul\":8065:8066   */\n      0x00\n        /* \"#utility.yul\":8058:8146   */\n      mstore\n        /* \"#utility.yul\":8165:8169   */\n      0x41\n        /* \"#utility.yul\":8162:8163   */\n      0x04\n        /* \"#utility.yul\":8155:8170   */\n      mstore\n        /* \"#utility.yul\":8189:8193   */\n      0x24\n        /* \"#utility.yul\":8186:8187   */\n      0x00\n        /* \"#utility.yul\":8179:8194   */\n      revert\n        /* \"#utility.yul\":8206:8308   */\n    tag_110:\n      0x00\n        /* \"#utility.yul\":8298:8300   */\n      0x1f\n        /* \"#utility.yul\":8294:8301   */\n      not\n        /* \"#utility.yul\":8289:8291   */\n      0x1f\n        /* \"#utility.yul\":8282:8287   */\n      dup4\n        /* \"#utility.yul\":8278:8292   */\n      add\n        /* \"#utility.yul\":8274:8302   */\n      and\n        /* \"#utility.yul\":8264:8302   */\n      swap1\n      pop\n        /* \"#utility.yul\":8254:8308   */\n      swap2\n      swap1\n      pop\n      jump\t// out\n        /* \"#utility.yul\":8314:8474   */\n    tag_115:\n        /* \"#utility.yul\":8454:8466   */\n      0x68692068656c6f6f772000000000000000000000000000000000000000000000\n        /* \"#utility.yul\":8450:8451   */\n      0x00\n        /* \"#utility.yul\":8442:8448   */\n      dup3\n        /* \"#utility.yul\":8438:8452   */\n      add\n        /* \"#utility.yul\":8431:8467   */\n      mstore\n        /* \"#utility.yul\":8420:8474   */\n      pop\n      jump\t// out\n        /* \"#utility.yul\":8480:8602   */\n    tag_73:\n        /* \"#utility.yul\":8553:8577   */\n      tag_176\n        /* \"#utility.yul\":8571:8576   */\n      dup2\n        /* \"#utility.yul\":8553:8577   */\n      tag_100\n      jump\t// in\n    tag_176:\n        /* \"#utility.yul\":8546:8551   */\n      dup2\n        /* \"#utility.yul\":8543:8578   */\n      eq\n        /* \"#utility.yul\":8533:8535   */\n      tag_177\n      jumpi\n        /* \"#utility.yul\":8592:8593   */\n      0x00\n        /* \"#utility.yul\":8589:8590   */\n      dup1\n        /* \"#utility.yul\":8582:8594   */\n      revert\n        /* \"#utility.yul\":8533:8535   */\n    tag_177:\n        /* \"#utility.yul\":8523:8602   */\n      pop\n      jump\t// out\n        /* \"#utility.yul\":8608:8730   */\n    tag_81:\n        /* \"#utility.yul\":8681:8705   */\n      tag_179\n        /* \"#utility.yul\":8699:8704   */\n      dup2\n        /* \"#utility.yul\":8681:8705   */\n      tag_119\n      jump\t// in\n    tag_179:\n        /* \"#utility.yul\":8674:8679   */\n      dup2\n        /* \"#utility.yul\":8671:8706   */\n      eq\n        /* \"#utility.yul\":8661:8663   */\n      tag_180\n      jumpi\n        /* \"#utility.yul\":8720:8721   */\n      0x00\n        /* \"#utility.yul\":8717:8718   */\n      dup1\n        /* \"#utility.yul\":8710:8722   */\n      revert\n        /* \"#utility.yul\":8661:8663   */\n    tag_180:\n        /* \"#utility.yul\":8651:8730   */\n      pop\n      jump\t// out\n\n    auxdata: 0xa2646970667358221220786d770f652c5b5a8d916950c3f0af96489caa659314806d553685a38522a87564736f6c63430008010033\n}\n",
				"bytecode": {
					"linkReferences": {},
					"object": "6080604052600060025534801561001557600080fd5b50610a0f806100256000396000f3fe608060405234801561001057600080fd5b506004361061004c5760003560e01c806318b8275a146100515780631bc7ffe91461006d5780634b4a80ba1461009f57806399b956a0146100d1575b600080fd5b61006b60048036038101906100669190610552565b610101565b005b61008760048036038101906100829190610593565b610157565b6040516100969392919061070a565b60405180910390f35b6100b960048036038101906100b491906105e7565b610282565b6040516100c8939291906106ac565b60405180910390f35b6100eb60048036038101906100e69190610529565b610354565b6040516100f8919061068a565b60405180910390f35b806000803373ffffffffffffffffffffffffffffffffffffffff1673ffffffffffffffffffffffffffffffffffffffff16815260200190815260200160002090805190602001906101539291906103f4565b5050565b60006060600060026001116101a1576040517f08c379a0000000000000000000000000000000000000000000000000000000008152600401610198906106ea565b60405180910390fd5b600260008154809291906101b49061089b565b919050555060405180606001604052808681526020018581526020013373ffffffffffffffffffffffffffffffffffffffff16815250600160006002548152602001908152602001600020600082015181600001908051906020019061021b9291906103f4565b506020820151816001015560408201518160020160006101000a81548173ffffffffffffffffffffffffffffffffffffffff021916908373ffffffffffffffffffffffffffffffffffffffff16021790555090505060025485859250925092509250925092565b60016020528060005260406000206000915090508060000180546102a590610838565b80601f01602080910402602001604051908101604052809291908181526020018280546102d190610838565b801561031e5780601f106102f35761010080835404028352916020019161031e565b820191906000526020600020905b81548152906001019060200180831161030157829003601f168201915b5050505050908060010154908060020160009054906101000a900473ffffffffffffffffffffffffffffffffffffffff16905083565b6000602052806000526040600020600091509050805461037390610838565b80601f016020809104026020016040519081016040528092919081815260200182805461039f90610838565b80156103ec5780601f106103c1576101008083540402835291602001916103ec565b820191906000526020600020905b8154815290600101906020018083116103cf57829003601f168201915b505050505081565b82805461040090610838565b90600052602060002090601f0160209004810192826104225760008555610469565b82601f1061043b57805160ff1916838001178555610469565b82800160010185558215610469579182015b8281111561046857825182559160200191906001019061044d565b5b509050610476919061047a565b5090565b5b8082111561049357600081600090555060010161047b565b5090565b60006104aa6104a58461076d565b610748565b9050828152602081018484840111156104c257600080fd5b6104cd8482856107f6565b509392505050565b6000813590506104e4816109ab565b92915050565b600082601f8301126104fb57600080fd5b813561050b848260208601610497565b91505092915050565b600081359050610523816109c2565b92915050565b60006020828403121561053b57600080fd5b6000610549848285016104d5565b91505092915050565b60006020828403121561056457600080fd5b600082013567ffffffffffffffff81111561057e57600080fd5b61058a848285016104ea565b91505092915050565b600080604083850312156105a657600080fd5b600083013567ffffffffffffffff8111156105c057600080fd5b6105cc858286016104ea565b92505060206105dd85828601610514565b9150509250929050565b6000602082840312156105f957600080fd5b600061060784828501610514565b91505092915050565b610619816107ba565b82525050565b600061062a8261079e565b61063481856107a9565b9350610644818560208601610805565b61064d81610971565b840191505092915050565b6000610665600a836107a9565b915061067082610982565b602082019050919050565b610684816107ec565b82525050565b600060208201905081810360008301526106a4818461061f565b905092915050565b600060608201905081810360008301526106c6818661061f565b90506106d5602083018561067b565b6106e26040830184610610565b949350505050565b6000602082019050818103600083015261070381610658565b9050919050565b600060608201905061071f600083018661067b565b8181036020830152610731818561061f565b9050610740604083018461067b565b949350505050565b6000610752610763565b905061075e828261086a565b919050565b6000604051905090565b600067ffffffffffffffff82111561078857610787610942565b5b61079182610971565b9050602081019050919050565b600081519050919050565b600082825260208201905092915050565b60006107c5826107cc565b9050919050565b600073ffffffffffffffffffffffffffffffffffffffff82169050919050565b6000819050919050565b82818337600083830152505050565b60005b83811015610823578082015181840152602081019050610808565b83811115610832576000848401525b50505050565b6000600282049050600182168061085057607f821691505b6020821081141561086457610863610913565b5b50919050565b61087382610971565b810181811067ffffffffffffffff8211171561089257610891610942565b5b80604052505050565b60006108a6826107ec565b91507fffffffffffffffffffffffffffffffffffffffffffffffffffffffffffffffff8214156108d9576108d86108e4565b5b600182019050919050565b7f4e487b7100000000000000000000000000000000000000000000000000000000600052601160045260246000fd5b7f4e487b7100000000000000000000000000000000000000000000000000000000600052602260045260246000fd5b7f4e487b7100000000000000000000000000000000000000000000000000000000600052604160045260246000fd5b6000601f19601f8301169050919050565b7f68692068656c6f6f772000000000000000000000000000000000000000000000600082015250565b6109b4816107ba565b81146109bf57600080fd5b50565b6109cb816107ec565b81146109d657600080fd5b5056fea2646970667358221220786d770f652c5b5a8d916950c3f0af96489caa659314806d553685a38522a87564736f6c63430008010033",
					"opcodes": "PUSH1 0x80 PUSH1 0x40 MSTORE PUSH1 0x0 PUSH1 0x2 SSTORE CALLVALUE DUP1 ISZERO PUSH2 0x15 JUMPI PUSH1 0x0 DUP1 REVERT JUMPDEST POP PUSH2 0xA0F DUP1 PUSH2 0x25 PUSH1 0x0 CODECOPY PUSH1 0x0 RETURN INVALID PUSH1 0x80 PUSH1 0x40 MSTORE CALLVALUE DUP1 ISZERO PUSH2 0x10 JUMPI PUSH1 0x0 DUP1 REVERT JUMPDEST POP PUSH1 0x4 CALLDATASIZE LT PUSH2 0x4C JUMPI PUSH1 0x0 CALLDATALOAD PUSH1 0xE0 SHR DUP1 PUSH4 0x18B8275A EQ PUSH2 0x51 JUMPI DUP1 PUSH4 0x1BC7FFE9 EQ PUSH2 0x6D JUMPI DUP1 PUSH4 0x4B4A80BA EQ PUSH2 0x9F JUMPI DUP1 PUSH4 0x99B956A0 EQ PUSH2 0xD1 JUMPI JUMPDEST PUSH1 0x0 DUP1 REVERT JUMPDEST PUSH2 0x6B PUSH1 0x4 DUP1 CALLDATASIZE SUB DUP2 ADD SWAP1 PUSH2 0x66 SWAP2 SWAP1 PUSH2 0x552 JUMP JUMPDEST PUSH2 0x101 JUMP JUMPDEST STOP JUMPDEST PUSH2 0x87 PUSH1 0x4 DUP1 CALLDATASIZE SUB DUP2 ADD SWAP1 PUSH2 0x82 SWAP2 SWAP1 PUSH2 0x593 JUMP JUMPDEST PUSH2 0x157 JUMP JUMPDEST PUSH1 0x40 MLOAD PUSH2 0x96 SWAP4 SWAP3 SWAP2 SWAP1 PUSH2 0x70A JUMP JUMPDEST PUSH1 0x40 MLOAD DUP1 SWAP2 SUB SWAP1 RETURN JUMPDEST PUSH2 0xB9 PUSH1 0x4 DUP1 CALLDATASIZE SUB DUP2 ADD SWAP1 PUSH2 0xB4 SWAP2 SWAP1 PUSH2 0x5E7 JUMP JUMPDEST PUSH2 0x282 JUMP JUMPDEST PUSH1 0x40 MLOAD PUSH2 0xC8 SWAP4 SWAP3 SWAP2 SWAP1 PUSH2 0x6AC JUMP JUMPDEST PUSH1 0x40 MLOAD DUP1 SWAP2 SUB SWAP1 RETURN JUMPDEST PUSH2 0xEB PUSH1 0x4 DUP1 CALLDATASIZE SUB DUP2 ADD SWAP1 PUSH2 0xE6 SWAP2 SWAP1 PUSH2 0x529 JUMP JUMPDEST PUSH2 0x354 JUMP JUMPDEST PUSH1 0x40 MLOAD PUSH2 0xF8 SWAP2 SWAP1 PUSH2 0x68A JUMP JUMPDEST PUSH1 0x40 MLOAD DUP1 SWAP2 SUB SWAP1 RETURN JUMPDEST DUP1 PUSH1 0x0 DUP1 CALLER PUSH20 0xFFFFFFFFFFFFFFFFFFFFFFFFFFFFFFFFFFFFFFFF AND PUSH20 0xFFFFFFFFFFFFFFFFFFFFFFFFFFFFFFFFFFFFFFFF AND DUP2 MSTORE PUSH1 0x20 ADD SWAP1 DUP2 MSTORE PUSH1 0x20 ADD PUSH1 0x0 KECCAK256 SWAP1 DUP1 MLOAD SWAP1 PUSH1 0x20 ADD SWAP1 PUSH2 0x153 SWAP3 SWAP2 SWAP1 PUSH2 0x3F4 JUMP JUMPDEST POP POP JUMP JUMPDEST PUSH1 0x0 PUSH1 0x60 PUSH1 0x0 PUSH1 0x2 PUSH1 0x1 GT PUSH2 0x1A1 JUMPI PUSH1 0x40 MLOAD PUSH32 0x8C379A000000000000000000000000000000000000000000000000000000000 DUP2 MSTORE PUSH1 0x4 ADD PUSH2 0x198 SWAP1 PUSH2 0x6EA JUMP JUMPDEST PUSH1 0x40 MLOAD DUP1 SWAP2 SUB SWAP1 REVERT JUMPDEST PUSH1 0x2 PUSH1 0x0 DUP2 SLOAD DUP1 SWAP3 SWAP2 SWAP1 PUSH2 0x1B4 SWAP1 PUSH2 0x89B JUMP JUMPDEST SWAP2 SWAP1 POP SSTORE POP PUSH1 0x40 MLOAD DUP1 PUSH1 0x60 ADD PUSH1 0x40 MSTORE DUP1 DUP7 DUP2 MSTORE PUSH1 0x20 ADD DUP6 DUP2 MSTORE PUSH1 0x20 ADD CALLER PUSH20 0xFFFFFFFFFFFFFFFFFFFFFFFFFFFFFFFFFFFFFFFF AND DUP2 MSTORE POP PUSH1 0x1 PUSH1 0x0 PUSH1 0x2 SLOAD DUP2 MSTORE PUSH1 0x20 ADD SWAP1 DUP2 MSTORE PUSH1 0x20 ADD PUSH1 0x0 KECCAK256 PUSH1 0x0 DUP3 ADD MLOAD DUP2 PUSH1 0x0 ADD SWAP1 DUP1 MLOAD SWAP1 PUSH1 0x20 ADD SWAP1 PUSH2 0x21B SWAP3 SWAP2 SWAP1 PUSH2 0x3F4 JUMP JUMPDEST POP PUSH1 0x20 DUP3 ADD MLOAD DUP2 PUSH1 0x1 ADD SSTORE PUSH1 0x40 DUP3 ADD MLOAD DUP2 PUSH1 0x2 ADD PUSH1 0x0 PUSH2 0x100 EXP DUP2 SLOAD DUP2 PUSH20 0xFFFFFFFFFFFFFFFFFFFFFFFFFFFFFFFFFFFFFFFF MUL NOT AND SWAP1 DUP4 PUSH20 0xFFFFFFFFFFFFFFFFFFFFFFFFFFFFFFFFFFFFFFFF AND MUL OR SWAP1 SSTORE POP SWAP1 POP POP PUSH1 0x2 SLOAD DUP6 DUP6 SWAP3 POP SWAP3 POP SWAP3 POP SWAP3 POP SWAP3 POP SWAP3 JUMP JUMPDEST PUSH1 0x1 PUSH1 0x20 MSTORE DUP1 PUSH1 0x0 MSTORE PUSH1 0x40 PUSH1 0x0 KECCAK256 PUSH1 0x0 SWAP2 POP SWAP1 POP DUP1 PUSH1 0x0 ADD DUP1 SLOAD PUSH2 0x2A5 SWAP1 PUSH2 0x838 JUMP JUMPDEST DUP1 PUSH1 0x1F ADD PUSH1 0x20 DUP1 SWAP2 DIV MUL PUSH1 0x20 ADD PUSH1 0x40 MLOAD SWAP1 DUP2 ADD PUSH1 0x40 MSTORE DUP1 SWAP3 SWAP2 SWAP1 DUP2 DUP2 MSTORE PUSH1 0x20 ADD DUP3 DUP1 SLOAD PUSH2 0x2D1 SWAP1 PUSH2 0x838 JUMP JUMPDEST DUP1 ISZERO PUSH2 0x31E JUMPI DUP1 PUSH1 0x1F LT PUSH2 0x2F3 JUMPI PUSH2 0x100 DUP1 DUP4 SLOAD DIV MUL DUP4 MSTORE SWAP2 PUSH1 0x20 ADD SWAP2 PUSH2 0x31E JUMP JUMPDEST DUP3 ADD SWAP2 SWAP1 PUSH1 0x0 MSTORE PUSH1 0x20 PUSH1 0x0 KECCAK256 SWAP1 JUMPDEST DUP2 SLOAD DUP2 MSTORE SWAP1 PUSH1 0x1 ADD SWAP1 PUSH1 0x20 ADD DUP1 DUP4 GT PUSH2 0x301 JUMPI DUP3 SWAP1 SUB PUSH1 0x1F AND DUP3 ADD SWAP2 JUMPDEST POP POP POP POP POP SWAP1 DUP1 PUSH1 0x1 ADD SLOAD SWAP1 DUP1 PUSH1 0x2 ADD PUSH1 0x0 SWAP1 SLOAD SWAP1 PUSH2 0x100 EXP SWAP1 DIV PUSH20 0xFFFFFFFFFFFFFFFFFFFFFFFFFFFFFFFFFFFFFFFF AND SWAP1 POP DUP4 JUMP JUMPDEST PUSH1 0x0 PUSH1 0x20 MSTORE DUP1 PUSH1 0x0 MSTORE PUSH1 0x40 PUSH1 0x0 KECCAK256 PUSH1 0x0 SWAP2 POP SWAP1 POP DUP1 SLOAD PUSH2 0x373 SWAP1 PUSH2 0x838 JUMP JUMPDEST DUP1 PUSH1 0x1F ADD PUSH1 0x20 DUP1 SWAP2 DIV MUL PUSH1 0x20 ADD PUSH1 0x40 MLOAD SWAP1 DUP2 ADD PUSH1 0x40 MSTORE DUP1 SWAP3 SWAP2 SWAP1 DUP2 DUP2 MSTORE PUSH1 0x20 ADD DUP3 DUP1 SLOAD PUSH2 0x39F SWAP1 PUSH2 0x838 JUMP JUMPDEST DUP1 ISZERO PUSH2 0x3EC JUMPI DUP1 PUSH1 0x1F LT PUSH2 0x3C1 JUMPI PUSH2 0x100 DUP1 DUP4 SLOAD DIV MUL DUP4 MSTORE SWAP2 PUSH1 0x20 ADD SWAP2 PUSH2 0x3EC JUMP JUMPDEST DUP3 ADD SWAP2 SWAP1 PUSH1 0x0 MSTORE PUSH1 0x20 PUSH1 0x0 KECCAK256 SWAP1 JUMPDEST DUP2 SLOAD DUP2 MSTORE SWAP1 PUSH1 0x1 ADD SWAP1 PUSH1 0x20 ADD DUP1 DUP4 GT PUSH2 0x3CF JUMPI DUP3 SWAP1 SUB PUSH1 0x1F AND DUP3 ADD SWAP2 JUMPDEST POP POP POP POP POP DUP2 JUMP JUMPDEST DUP3 DUP1 SLOAD PUSH2 0x400 SWAP1 PUSH2 0x838 JUMP JUMPDEST SWAP1 PUSH1 0x0 MSTORE PUSH1 0x20 PUSH1 0x0 KECCAK256 SWAP1 PUSH1 0x1F ADD PUSH1 0x20 SWAP1 DIV DUP2 ADD SWAP3 DUP3 PUSH2 0x422 JUMPI PUSH1 0x0 DUP6 SSTORE PUSH2 0x469 JUMP JUMPDEST DUP3 PUSH1 0x1F LT PUSH2 0x43B JUMPI DUP1 MLOAD PUSH1 0xFF NOT AND DUP4 DUP1 ADD OR DUP6 SSTORE PUSH2 0x469 JUMP JUMPDEST DUP3 DUP1 ADD PUSH1 0x1 ADD DUP6 SSTORE DUP3 ISZERO PUSH2 0x469 JUMPI SWAP2 DUP3 ADD JUMPDEST DUP3 DUP2 GT ISZERO PUSH2 0x468 JUMPI DUP3 MLOAD DUP3 SSTORE SWAP2 PUSH1 0x20 ADD SWAP2 SWAP1 PUSH1 0x1 ADD SWAP1 PUSH2 0x44D JUMP JUMPDEST JUMPDEST POP SWAP1 POP PUSH2 0x476 SWAP2 SWAP1 PUSH2 0x47A JUMP JUMPDEST POP SWAP1 JUMP JUMPDEST JUMPDEST DUP1 DUP3 GT ISZERO PUSH2 0x493 JUMPI PUSH1 0x0 DUP2 PUSH1 0x0 SWAP1 SSTORE POP PUSH1 0x1 ADD PUSH2 0x47B JUMP JUMPDEST POP SWAP1 JUMP JUMPDEST PUSH1 0x0 PUSH2 0x4AA PUSH2 0x4A5 DUP5 PUSH2 0x76D JUMP JUMPDEST PUSH2 0x748 JUMP JUMPDEST SWAP1 POP DUP3 DUP2 MSTORE PUSH1 0x20 DUP2 ADD DUP5 DUP5 DUP5 ADD GT ISZERO PUSH2 0x4C2 JUMPI PUSH1 0x0 DUP1 REVERT JUMPDEST PUSH2 0x4CD DUP5 DUP3 DUP6 PUSH2 0x7F6 JUMP JUMPDEST POP SWAP4 SWAP3 POP POP POP JUMP JUMPDEST PUSH1 0x0 DUP2 CALLDATALOAD SWAP1 POP PUSH2 0x4E4 DUP2 PUSH2 0x9AB JUMP JUMPDEST SWAP3 SWAP2 POP POP JUMP JUMPDEST PUSH1 0x0 DUP3 PUSH1 0x1F DUP4 ADD SLT PUSH2 0x4FB JUMPI PUSH1 0x0 DUP1 REVERT JUMPDEST DUP2 CALLDATALOAD PUSH2 0x50B DUP5 DUP3 PUSH1 0x20 DUP7 ADD PUSH2 0x497 JUMP JUMPDEST SWAP2 POP POP SWAP3 SWAP2 POP POP JUMP JUMPDEST PUSH1 0x0 DUP2 CALLDATALOAD SWAP1 POP PUSH2 0x523 DUP2 PUSH2 0x9C2 JUMP JUMPDEST SWAP3 SWAP2 POP POP JUMP JUMPDEST PUSH1 0x0 PUSH1 0x20 DUP3 DUP5 SUB SLT ISZERO PUSH2 0x53B JUMPI PUSH1 0x0 DUP1 REVERT JUMPDEST PUSH1 0x0 PUSH2 0x549 DUP5 DUP3 DUP6 ADD PUSH2 0x4D5 JUMP JUMPDEST SWAP2 POP POP SWAP3 SWAP2 POP POP JUMP JUMPDEST PUSH1 0x0 PUSH1 0x20 DUP3 DUP5 SUB SLT ISZERO PUSH2 0x564 JUMPI PUSH1 0x0 DUP1 REVERT JUMPDEST PUSH1 0x0 DUP3 ADD CALLDATALOAD PUSH8 0xFFFFFFFFFFFFFFFF DUP2 GT ISZERO PUSH2 0x57E JUMPI PUSH1 0x0 DUP1 REVERT JUMPDEST PUSH2 0x58A DUP5 DUP3 DUP6 ADD PUSH2 0x4EA JUMP JUMPDEST SWAP2 POP POP SWAP3 SWAP2 POP POP JUMP JUMPDEST PUSH1 0x0 DUP1 PUSH1 0x40 DUP4 DUP6 SUB SLT ISZERO PUSH2 0x5A6 JUMPI PUSH1 0x0 DUP1 REVERT JUMPDEST PUSH1 0x0 DUP4 ADD CALLDATALOAD PUSH8 0xFFFFFFFFFFFFFFFF DUP2 GT ISZERO PUSH2 0x5C0 JUMPI PUSH1 0x0 DUP1 REVERT JUMPDEST PUSH2 0x5CC DUP6 DUP3 DUP7 ADD PUSH2 0x4EA JUMP JUMPDEST SWAP3 POP POP PUSH1 0x20 PUSH2 0x5DD DUP6 DUP3 DUP7 ADD PUSH2 0x514 JUMP JUMPDEST SWAP2 POP POP SWAP3 POP SWAP3 SWAP1 POP JUMP JUMPDEST PUSH1 0x0 PUSH1 0x20 DUP3 DUP5 SUB SLT ISZERO PUSH2 0x5F9 JUMPI PUSH1 0x0 DUP1 REVERT JUMPDEST PUSH1 0x0 PUSH2 0x607 DUP5 DUP3 DUP6 ADD PUSH2 0x514 JUMP JUMPDEST SWAP2 POP POP SWAP3 SWAP2 POP POP JUMP JUMPDEST PUSH2 0x619 DUP2 PUSH2 0x7BA JUMP JUMPDEST DUP3 MSTORE POP POP JUMP JUMPDEST PUSH1 0x0 PUSH2 0x62A DUP3 PUSH2 0x79E JUMP JUMPDEST PUSH2 0x634 DUP2 DUP6 PUSH2 0x7A9 JUMP JUMPDEST SWAP4 POP PUSH2 0x644 DUP2 DUP6 PUSH1 0x20 DUP7 ADD PUSH2 0x805 JUMP JUMPDEST PUSH2 0x64D DUP2 PUSH2 0x971 JUMP JUMPDEST DUP5 ADD SWAP2 POP POP SWAP3 SWAP2 POP POP JUMP JUMPDEST PUSH1 0x0 PUSH2 0x665 PUSH1 0xA DUP4 PUSH2 0x7A9 JUMP JUMPDEST SWAP2 POP PUSH2 0x670 DUP3 PUSH2 0x982 JUMP JUMPDEST PUSH1 0x20 DUP3 ADD SWAP1 POP SWAP2 SWAP1 POP JUMP JUMPDEST PUSH2 0x684 DUP2 PUSH2 0x7EC JUMP JUMPDEST DUP3 MSTORE POP POP JUMP JUMPDEST PUSH1 0x0 PUSH1 0x20 DUP3 ADD SWAP1 POP DUP2 DUP2 SUB PUSH1 0x0 DUP4 ADD MSTORE PUSH2 0x6A4 DUP2 DUP5 PUSH2 0x61F JUMP JUMPDEST SWAP1 POP SWAP3 SWAP2 POP POP JUMP JUMPDEST PUSH1 0x0 PUSH1 0x60 DUP3 ADD SWAP1 POP DUP2 DUP2 SUB PUSH1 0x0 DUP4 ADD MSTORE PUSH2 0x6C6 DUP2 DUP7 PUSH2 0x61F JUMP JUMPDEST SWAP1 POP PUSH2 0x6D5 PUSH1 0x20 DUP4 ADD DUP6 PUSH2 0x67B JUMP JUMPDEST PUSH2 0x6E2 PUSH1 0x40 DUP4 ADD DUP5 PUSH2 0x610 JUMP JUMPDEST SWAP5 SWAP4 POP POP POP POP JUMP JUMPDEST PUSH1 0x0 PUSH1 0x20 DUP3 ADD SWAP1 POP DUP2 DUP2 SUB PUSH1 0x0 DUP4 ADD MSTORE PUSH2 0x703 DUP2 PUSH2 0x658 JUMP JUMPDEST SWAP1 POP SWAP2 SWAP1 POP JUMP JUMPDEST PUSH1 0x0 PUSH1 0x60 DUP3 ADD SWAP1 POP PUSH2 0x71F PUSH1 0x0 DUP4 ADD DUP7 PUSH2 0x67B JUMP JUMPDEST DUP2 DUP2 SUB PUSH1 0x20 DUP4 ADD MSTORE PUSH2 0x731 DUP2 DUP6 PUSH2 0x61F JUMP JUMPDEST SWAP1 POP PUSH2 0x740 PUSH1 0x40 DUP4 ADD DUP5 PUSH2 0x67B JUMP JUMPDEST SWAP5 SWAP4 POP POP POP POP JUMP JUMPDEST PUSH1 0x0 PUSH2 0x752 PUSH2 0x763 JUMP JUMPDEST SWAP1 POP PUSH2 0x75E DUP3 DUP3 PUSH2 0x86A JUMP JUMPDEST SWAP2 SWAP1 POP JUMP JUMPDEST PUSH1 0x0 PUSH1 0x40 MLOAD SWAP1 POP SWAP1 JUMP JUMPDEST PUSH1 0x0 PUSH8 0xFFFFFFFFFFFFFFFF DUP3 GT ISZERO PUSH2 0x788 JUMPI PUSH2 0x787 PUSH2 0x942 JUMP JUMPDEST JUMPDEST PUSH2 0x791 DUP3 PUSH2 0x971 JUMP JUMPDEST SWAP1 POP PUSH1 0x20 DUP2 ADD SWAP1 POP SWAP2 SWAP1 POP JUMP JUMPDEST PUSH1 0x0 DUP2 MLOAD SWAP1 POP SWAP2 SWAP1 POP JUMP JUMPDEST PUSH1 0x0 DUP3 DUP3 MSTORE PUSH1 0x20 DUP3 ADD SWAP1 POP SWAP3 SWAP2 POP POP JUMP JUMPDEST PUSH1 0x0 PUSH2 0x7C5 DUP3 PUSH2 0x7CC JUMP JUMPDEST SWAP1 POP SWAP2 SWAP1 POP JUMP JUMPDEST PUSH1 0x0 PUSH20 0xFFFFFFFFFFFFFFFFFFFFFFFFFFFFFFFFFFFFFFFF DUP3 AND SWAP1 POP SWAP2 SWAP1 POP JUMP JUMPDEST PUSH1 0x0 DUP2 SWAP1 POP SWAP2 SWAP1 POP JUMP JUMPDEST DUP3 DUP2 DUP4 CALLDATACOPY PUSH1 0x0 DUP4 DUP4 ADD MSTORE POP POP POP JUMP JUMPDEST PUSH1 0x0 JUMPDEST DUP4 DUP2 LT ISZERO PUSH2 0x823 JUMPI DUP1 DUP3 ADD MLOAD DUP2 DUP5 ADD MSTORE PUSH1 0x20 DUP2 ADD SWAP1 POP PUSH2 0x808 JUMP JUMPDEST DUP4 DUP2 GT ISZERO PUSH2 0x832 JUMPI PUSH1 0x0 DUP5 DUP5 ADD MSTORE JUMPDEST POP POP POP POP JUMP JUMPDEST PUSH1 0x0 PUSH1 0x2 DUP3 DIV SWAP1 POP PUSH1 0x1 DUP3 AND DUP1 PUSH2 0x850 JUMPI PUSH1 0x7F DUP3 AND SWAP2 POP JUMPDEST PUSH1 0x20 DUP3 LT DUP2 EQ ISZERO PUSH2 0x864 JUMPI PUSH2 0x863 PUSH2 0x913 JUMP JUMPDEST JUMPDEST POP SWAP2 SWAP1 POP JUMP JUMPDEST PUSH2 0x873 DUP3 PUSH2 0x971 JUMP JUMPDEST DUP2 ADD DUP2 DUP2 LT PUSH8 0xFFFFFFFFFFFFFFFF DUP3 GT OR ISZERO PUSH2 0x892 JUMPI PUSH2 0x891 PUSH2 0x942 JUMP JUMPDEST JUMPDEST DUP1 PUSH1 0x40 MSTORE POP POP POP JUMP JUMPDEST PUSH1 0x0 PUSH2 0x8A6 DUP3 PUSH2 0x7EC JUMP JUMPDEST SWAP2 POP PUSH32 0xFFFFFFFFFFFFFFFFFFFFFFFFFFFFFFFFFFFFFFFFFFFFFFFFFFFFFFFFFFFFFFFF DUP3 EQ ISZERO PUSH2 0x8D9 JUMPI PUSH2 0x8D8 PUSH2 0x8E4 JUMP JUMPDEST JUMPDEST PUSH1 0x1 DUP3 ADD SWAP1 POP SWAP2 SWAP1 POP JUMP JUMPDEST PUSH32 0x4E487B7100000000000000000000000000000000000000000000000000000000 PUSH1 0x0 MSTORE PUSH1 0x11 PUSH1 0x4 MSTORE PUSH1 0x24 PUSH1 0x0 REVERT JUMPDEST PUSH32 0x4E487B7100000000000000000000000000000000000000000000000000000000 PUSH1 0x0 MSTORE PUSH1 0x22 PUSH1 0x4 MSTORE PUSH1 0x24 PUSH1 0x0 REVERT JUMPDEST PUSH32 0x4E487B7100000000000000000000000000000000000000000000000000000000 PUSH1 0x0 MSTORE PUSH1 0x41 PUSH1 0x4 MSTORE PUSH1 0x24 PUSH1 0x0 REVERT JUMPDEST PUSH1 0x0 PUSH1 0x1F NOT PUSH1 0x1F DUP4 ADD AND SWAP1 POP SWAP2 SWAP1 POP JUMP JUMPDEST PUSH32 0x68692068656C6F6F772000000000000000000000000000000000000000000000 PUSH1 0x0 DUP3 ADD MSTORE POP JUMP JUMPDEST PUSH2 0x9B4 DUP2 PUSH2 0x7BA JUMP JUMPDEST DUP2 EQ PUSH2 0x9BF JUMPI PUSH1 0x0 DUP1 REVERT JUMPDEST POP JUMP JUMPDEST PUSH2 0x9CB DUP2 PUSH2 0x7EC JUMP JUMPDEST DUP2 EQ PUSH2 0x9D6 JUMPI PUSH1 0x0 DUP1 REVERT JUMPDEST POP JUMP INVALID LOG2 PUSH5 0x6970667358 0x22 SLT KECCAK256 PUSH25 0x6D770F652C5B5A8D916950C3F0AF96489CAA659314806D5536 DUP6 LOG3 DUP6 0x22 0xA8 PUSH22 0x64736F6C634300080100330000000000000000000000 "
				},
				"gasEstimates": {
					"creation": {
						"codeDepositCost": "515000",
						"executionCost": "5555",
						"totalCost": "520555"
					},
					"external": {
						"Assets(uint256)": "infinite",
						"Users(address)": "infinite",
						"addAsset(string,uint256)": "infinite",
						"addUser(string)": "infinite"
					}
				},
				"methodIdentifiers": {
					"Assets(uint256)": "4b4a80ba",
					"Users(address)": "99b956a0",
					"addAsset(string,uint256)": "1bc7ffe9",
					"addUser(string)": "18b8275a"
				}
			},
			"storageLayout": {
				"storage": [
					{
						"astId": 12,
						"contract": "Auction.sol:Auction",
						"label": "Users",
						"offset": 0,
						"slot": "0",
						"type": "t_mapping(t_address,t_string_storage)"
					},
					{
						"astId": 17,
						"contract": "Auction.sol:Auction",
						"label": "Assets",
						"offset": 0,
						"slot": "1",
						"type": "t_mapping(t_uint256,t_struct(Asset)8_storage)"
					},
					{
						"astId": 33,
						"contract": "Auction.sol:Auction",
						"label": "Id",
						"offset": 0,
						"slot": "2",
						"type": "t_uint256"
					}
				],
				"types": {
					"t_address": {
						"encoding": "inplace",
						"label": "address",
						"numberOfBytes": "20"
					},
					"t_mapping(t_address,t_string_storage)": {
						"encoding": "mapping",
						"key": "t_address",
						"label": "mapping(address => string)",
						"numberOfBytes": "32",
						"value": "t_string_storage"
					},
					"t_mapping(t_uint256,t_struct(Asset)8_storage)": {
						"encoding": "mapping",
						"key": "t_uint256",
						"label": "mapping(uint256 => struct Auction.Asset)",
						"numberOfBytes": "32",
						"value": "t_struct(Asset)8_storage"
					},
					"t_string_storage": {
						"encoding": "bytes",
						"label": "string",
						"numberOfBytes": "32"
					},
					"t_struct(Asset)8_storage": {
						"encoding": "inplace",
						"label": "struct Auction.Asset",
						"members": [
							{
								"astId": 3,
								"contract": "Auction.sol:Auction",
								"label": "AssetName",
								"offset": 0,
								"slot": "0",
								"type": "t_string_storage"
							},
							{
								"astId": 5,
								"contract": "Auction.sol:Auction",
								"label": "AssetSP",
								"offset": 0,
								"slot": "1",
								"type": "t_uint256"
							},
							{
								"astId": 7,
								"contract": "Auction.sol:Auction",
								"label": "Owner",
								"offset": 0,
								"slot": "2",
								"type": "t_address"
							}
						],
						"numberOfBytes": "96"
					},
					"t_uint256": {
						"encoding": "inplace",
						"label": "uint256",
						"numberOfBytes": "32"
					}
				}
			},
			"userdoc": {
				"kind": "user",
				"methods": {},
				"version": 1
			}
		}
	}
}