{
	"Auction.sol": {
		"Auction": {
			"abi": [
				{
					"inputs": [
						{
							"internalType": "uint256",
							"name": "",
							"type": "uint256"
						}
					],
					"name": "Assets",
					"outputs": [
						{
							"internalType": "string",
							"name": "AssetName",
							"type": "string"
						},
						{
							"internalType": "uint256",
							"name": "AssetSP",
							"type": "uint256"
						},
						{
							"internalType": "address",
							"name": "Owner",
							"type": "address"
						}
					],
					"stateMutability": "view",
					"type": "function"
				},
				{
					"inputs": [],
					"name": "Bidding",
					"outputs": [],
					"stateMutability": "nonpayable",
					"type": "function"
				},
				{
					"inputs": [],
					"name": "Result",
					"outputs": [],
					"stateMutability": "nonpayable",
					"type": "function"
				},
				{
					"inputs": [
						{
							"internalType": "address",
							"name": "",
							"type": "address"
						}
					],
					"name": "Users",
					"outputs": [
						{
							"internalType": "string",
							"name": "",
							"type": "string"
						}
					],
					"stateMutability": "view",
					"type": "function"
				},
				{
					"inputs": [
						{
							"internalType": "uint256",
							"name": "Id",
							"type": "uint256"
						},
						{
							"internalType": "string",
							"name": "Name",
							"type": "string"
						},
						{
							"internalType": "uint256",
							"name": "Price",
							"type": "uint256"
						}
					],
					"name": "addAsset",
					"outputs": [],
					"stateMutability": "nonpayable",
					"type": "function"
				},
				{
					"inputs": [
						{
							"internalType": "string",
							"name": "Name",
							"type": "string"
						}
					],
					"name": "addUser",
					"outputs": [],
					"stateMutability": "nonpayable",
					"type": "function"
				}
			],
			"devdoc": {
				"kind": "dev",
				"methods": {},
				"version": 1
			},
			"evm": {
				"assembly": "    /* \"Auction.sol\":65:606  contract Auction {\r... */\n  mstore(0x40, 0x80)\n  callvalue\n  dup1\n  iszero\n  tag_1\n  jumpi\n  0x00\n  dup1\n  revert\ntag_1:\n  pop\n  dataSize(sub_0)\n  dup1\n  dataOffset(sub_0)\n  0x00\n  codecopy\n  0x00\n  return\nstop\n\nsub_0: assembly {\n        /* \"Auction.sol\":65:606  contract Auction {\r... */\n      mstore(0x40, 0x80)\n      callvalue\n      dup1\n      iszero\n      tag_1\n      jumpi\n      0x00\n      dup1\n      revert\n    tag_1:\n      pop\n      jumpi(tag_2, lt(calldatasize, 0x04))\n      shr(0xe0, calldataload(0x00))\n      dup1\n      0x18b8275a\n      eq\n      tag_3\n      jumpi\n      dup1\n      0x3e8a0585\n      eq\n      tag_4\n      jumpi\n      dup1\n      0x4b4a80ba\n      eq\n      tag_5\n      jumpi\n      dup1\n      0x99b956a0\n      eq\n      tag_6\n      jumpi\n      dup1\n      0xe783080c\n      eq\n      tag_7\n      jumpi\n      dup1\n      0xf4e5d599\n      eq\n      tag_8\n      jumpi\n    tag_2:\n      0x00\n      dup1\n      revert\n        /* \"Auction.sol\":287:374  function addUser(string memory Name) public {\r... */\n    tag_3:\n      tag_9\n      0x04\n      dup1\n      calldatasize\n      sub\n      dup2\n      add\n      swap1\n      tag_10\n      swap2\n      swap1\n      tag_11\n      jump\t// in\n    tag_10:\n      tag_12\n      jump\t// in\n    tag_9:\n      stop\n        /* \"Auction.sol\":518:556  function Bidding() public {\r... */\n    tag_4:\n      tag_13\n      tag_14\n      jump\t// in\n    tag_13:\n      stop\n        /* \"Auction.sol\":242:278  mapping(uint => Asset) public Assets */\n    tag_5:\n      tag_15\n      0x04\n      dup1\n      calldatasize\n      sub\n      dup2\n      add\n      swap1\n      tag_16\n      swap2\n      swap1\n      tag_17\n      jump\t// in\n    tag_16:\n      tag_18\n      jump\t// in\n    tag_15:\n      mload(0x40)\n      tag_19\n      swap4\n      swap3\n      swap2\n      swap1\n      tag_20\n      jump\t// in\n    tag_19:\n      mload(0x40)\n      dup1\n      swap2\n      sub\n      swap1\n      return\n        /* \"Auction.sol\":196:235  mapping(address => string) public Users */\n    tag_6:\n      tag_21\n      0x04\n      dup1\n      calldatasize\n      sub\n      dup2\n      add\n      swap1\n      tag_22\n      swap2\n      swap1\n      tag_23\n      jump\t// in\n    tag_22:\n      tag_24\n      jump\t// in\n    tag_21:\n      mload(0x40)\n      tag_25\n      swap2\n      swap1\n      tag_26\n      jump\t// in\n    tag_25:\n      mload(0x40)\n      dup1\n      swap2\n      sub\n      swap1\n      return\n        /* \"Auction.sol\":382:510  function addAsset(uint Id, string memory Name, uint Price) public {\r... */\n    tag_7:\n      tag_27\n      0x04\n      dup1\n      calldatasize\n      sub\n      dup2\n      add\n      swap1\n      tag_28\n      swap2\n      swap1\n      tag_29\n      jump\t// in\n    tag_28:\n      tag_30\n      jump\t// in\n    tag_27:\n      stop\n        /* \"Auction.sol\":564:599  function Result() public {\r... */\n    tag_8:\n      tag_31\n      tag_32\n      jump\t// in\n    tag_31:\n      stop\n        /* \"Auction.sol\":287:374  function addUser(string memory Name) public {\r... */\n    tag_12:\n        /* \"Auction.sol\":362:366  Name */\n      dup1\n        /* \"Auction.sol\":342:347  Users */\n      0x00\n        /* \"Auction.sol\":342:359  Users[msg.sender] */\n      dup1\n        /* \"Auction.sol\":348:358  msg.sender */\n      caller\n        /* \"Auction.sol\":342:359  Users[msg.sender] */\n      0xffffffffffffffffffffffffffffffffffffffff\n      and\n      0xffffffffffffffffffffffffffffffffffffffff\n      and\n      dup2\n      mstore\n      0x20\n      add\n      swap1\n      dup2\n      mstore\n      0x20\n      add\n      0x00\n      keccak256\n        /* \"Auction.sol\":342:366  Users[msg.sender] = Name */\n      swap1\n      dup1\n      mload\n      swap1\n      0x20\n      add\n      swap1\n      tag_34\n      swap3\n      swap2\n      swap1\n      tag_35\n      jump\t// in\n    tag_34:\n      pop\n        /* \"Auction.sol\":287:374  function addUser(string memory Name) public {\r... */\n      pop\n      jump\t// out\n        /* \"Auction.sol\":518:556  function Bidding() public {\r... */\n    tag_14:\n      jump\t// out\n        /* \"Auction.sol\":242:278  mapping(uint => Asset) public Assets */\n    tag_18:\n      mstore(0x20, 0x01)\n      dup1\n      0x00\n      mstore\n      keccak256(0x00, 0x40)\n      0x00\n      swap2\n      pop\n      swap1\n      pop\n      dup1\n      0x00\n      add\n      dup1\n      sload\n      tag_37\n      swap1\n      tag_38\n      jump\t// in\n    tag_37:\n      dup1\n      0x1f\n      add\n      0x20\n      dup1\n      swap2\n      div\n      mul\n      0x20\n      add\n      mload(0x40)\n      swap1\n      dup2\n      add\n      0x40\n      mstore\n      dup1\n      swap3\n      swap2\n      swap1\n      dup2\n      dup2\n      mstore\n      0x20\n      add\n      dup3\n      dup1\n      sload\n      tag_39\n      swap1\n      tag_38\n      jump\t// in\n    tag_39:\n      dup1\n      iszero\n      tag_40\n      jumpi\n      dup1\n      0x1f\n      lt\n      tag_41\n      jumpi\n      0x0100\n      dup1\n      dup4\n      sload\n      div\n      mul\n      dup4\n      mstore\n      swap2\n      0x20\n      add\n      swap2\n      jump(tag_40)\n    tag_41:\n      dup3\n      add\n      swap2\n      swap1\n      0x00\n      mstore\n      keccak256(0x00, 0x20)\n      swap1\n    tag_42:\n      dup2\n      sload\n      dup2\n      mstore\n      swap1\n      0x01\n      add\n      swap1\n      0x20\n      add\n      dup1\n      dup4\n      gt\n      tag_42\n      jumpi\n      dup3\n      swap1\n      sub\n      0x1f\n      and\n      dup3\n      add\n      swap2\n    tag_40:\n      pop\n      pop\n      pop\n      pop\n      pop\n      swap1\n      dup1\n      0x01\n      add\n      sload\n      swap1\n      dup1\n      0x02\n      add\n      0x00\n      swap1\n      sload\n      swap1\n      0x0100\n      exp\n      swap1\n      div\n      0xffffffffffffffffffffffffffffffffffffffff\n      and\n      swap1\n      pop\n      dup4\n      jump\t// out\n        /* \"Auction.sol\":196:235  mapping(address => string) public Users */\n    tag_24:\n      mstore(0x20, 0x00)\n      dup1\n      0x00\n      mstore\n      keccak256(0x00, 0x40)\n      0x00\n      swap2\n      pop\n      swap1\n      pop\n      dup1\n      sload\n      tag_43\n      swap1\n      tag_38\n      jump\t// in\n    tag_43:\n      dup1\n      0x1f\n      add\n      0x20\n      dup1\n      swap2\n      div\n      mul\n      0x20\n      add\n      mload(0x40)\n      swap1\n      dup2\n      add\n      0x40\n      mstore\n      dup1\n      swap3\n      swap2\n      swap1\n      dup2\n      dup2\n      mstore\n      0x20\n      add\n      dup3\n      dup1\n      sload\n      tag_44\n      swap1\n      tag_38\n      jump\t// in\n    tag_44:\n      dup1\n      iszero\n      tag_45\n      jumpi\n      dup1\n      0x1f\n      lt\n      tag_46\n      jumpi\n      0x0100\n      dup1\n      dup4\n      sload\n      div\n      mul\n      dup4\n      mstore\n      swap2\n      0x20\n      add\n      swap2\n      jump(tag_45)\n    tag_46:\n      dup3\n      add\n      swap2\n      swap1\n      0x00\n      mstore\n      keccak256(0x00, 0x20)\n      swap1\n    tag_47:\n      dup2\n      sload\n      dup2\n      mstore\n      swap1\n      0x01\n      add\n      swap1\n      0x20\n      add\n      dup1\n      dup4\n      gt\n      tag_47\n      jumpi\n      dup3\n      swap1\n      sub\n      0x1f\n      and\n      dup3\n      add\n      swap2\n    tag_45:\n      pop\n      pop\n      pop\n      pop\n      pop\n      dup2\n      jump\t// out\n        /* \"Auction.sol\":382:510  function addAsset(uint Id, string memory Name, uint Price) public {\r... */\n    tag_30:\n        /* \"Auction.sol\":472:502  Asset(Name, Price, msg.sender) */\n      mload(0x40)\n      dup1\n      0x60\n      add\n      0x40\n      mstore\n      dup1\n        /* \"Auction.sol\":478:482  Name */\n      dup4\n        /* \"Auction.sol\":472:502  Asset(Name, Price, msg.sender) */\n      dup2\n      mstore\n      0x20\n      add\n        /* \"Auction.sol\":484:489  Price */\n      dup3\n        /* \"Auction.sol\":472:502  Asset(Name, Price, msg.sender) */\n      dup2\n      mstore\n      0x20\n      add\n        /* \"Auction.sol\":491:501  msg.sender */\n      caller\n        /* \"Auction.sol\":472:502  Asset(Name, Price, msg.sender) */\n      0xffffffffffffffffffffffffffffffffffffffff\n      and\n      dup2\n      mstore\n      pop\n        /* \"Auction.sol\":459:465  Assets */\n      0x01\n        /* \"Auction.sol\":459:469  Assets[Id] */\n      0x00\n        /* \"Auction.sol\":466:468  Id */\n      dup6\n        /* \"Auction.sol\":459:469  Assets[Id] */\n      dup2\n      mstore\n      0x20\n      add\n      swap1\n      dup2\n      mstore\n      0x20\n      add\n      0x00\n      keccak256\n        /* \"Auction.sol\":459:502  Assets[Id] = Asset(Name, Price, msg.sender) */\n      0x00\n      dup3\n      add\n      mload\n      dup2\n      0x00\n      add\n      swap1\n      dup1\n      mload\n      swap1\n      0x20\n      add\n      swap1\n      tag_49\n      swap3\n      swap2\n      swap1\n      tag_35\n      jump\t// in\n    tag_49:\n      pop\n      0x20\n      dup3\n      add\n      mload\n      dup2\n      0x01\n      add\n      sstore\n      0x40\n      dup3\n      add\n      mload\n      dup2\n      0x02\n      add\n      exp(0x0100, 0x00)\n      dup2\n      sload\n      dup2\n      0xffffffffffffffffffffffffffffffffffffffff\n      mul\n      not\n      and\n      swap1\n      dup4\n      0xffffffffffffffffffffffffffffffffffffffff\n      and\n      mul\n      or\n      swap1\n      sstore\n      pop\n      swap1\n      pop\n      pop\n        /* \"Auction.sol\":382:510  function addAsset(uint Id, string memory Name, uint Price) public {\r... */\n      pop\n      pop\n      pop\n      jump\t// out\n        /* \"Auction.sol\":564:599  function Result() public {\r... */\n    tag_32:\n      jump\t// out\n    tag_35:\n      dup3\n      dup1\n      sload\n      tag_51\n      swap1\n      tag_38\n      jump\t// in\n    tag_51:\n      swap1\n      0x00\n      mstore\n      keccak256(0x00, 0x20)\n      swap1\n      0x1f\n      add\n      0x20\n      swap1\n      div\n      dup2\n      add\n      swap3\n      dup3\n      tag_53\n      jumpi\n      0x00\n      dup6\n      sstore\n      jump(tag_52)\n    tag_53:\n      dup3\n      0x1f\n      lt\n      tag_54\n      jumpi\n      dup1\n      mload\n      not(0xff)\n      and\n      dup4\n      dup1\n      add\n      or\n      dup6\n      sstore\n      jump(tag_52)\n    tag_54:\n      dup3\n      dup1\n      add\n      0x01\n      add\n      dup6\n      sstore\n      dup3\n      iszero\n      tag_52\n      jumpi\n      swap2\n      dup3\n      add\n    tag_55:\n      dup3\n      dup2\n      gt\n      iszero\n      tag_56\n      jumpi\n      dup3\n      mload\n      dup3\n      sstore\n      swap2\n      0x20\n      add\n      swap2\n      swap1\n      0x01\n      add\n      swap1\n      jump(tag_55)\n    tag_56:\n    tag_52:\n      pop\n      swap1\n      pop\n      tag_57\n      swap2\n      swap1\n      tag_58\n      jump\t// in\n    tag_57:\n      pop\n      swap1\n      jump\t// out\n    tag_58:\n    tag_59:\n      dup1\n      dup3\n      gt\n      iszero\n      tag_60\n      jumpi\n      0x00\n      dup2\n      0x00\n      swap1\n      sstore\n      pop\n      0x01\n      add\n      jump(tag_59)\n    tag_60:\n      pop\n      swap1\n      jump\t// out\n        /* \"#utility.yul\":7:352   */\n    tag_62:\n      0x00\n        /* \"#utility.yul\":110:176   */\n      tag_64\n        /* \"#utility.yul\":126:175   */\n      tag_65\n        /* \"#utility.yul\":168:174   */\n      dup5\n        /* \"#utility.yul\":126:175   */\n      tag_66\n      jump\t// in\n    tag_65:\n        /* \"#utility.yul\":110:176   */\n      tag_67\n      jump\t// in\n    tag_64:\n        /* \"#utility.yul\":101:176   */\n      swap1\n      pop\n        /* \"#utility.yul\":199:205   */\n      dup3\n        /* \"#utility.yul\":192:197   */\n      dup2\n        /* \"#utility.yul\":185:206   */\n      mstore\n        /* \"#utility.yul\":237:241   */\n      0x20\n        /* \"#utility.yul\":230:235   */\n      dup2\n        /* \"#utility.yul\":226:242   */\n      add\n        /* \"#utility.yul\":275:278   */\n      dup5\n        /* \"#utility.yul\":266:272   */\n      dup5\n        /* \"#utility.yul\":261:264   */\n      dup5\n        /* \"#utility.yul\":257:273   */\n      add\n        /* \"#utility.yul\":254:279   */\n      gt\n        /* \"#utility.yul\":251:253   */\n      iszero\n      tag_68\n      jumpi\n        /* \"#utility.yul\":292:293   */\n      0x00\n        /* \"#utility.yul\":289:290   */\n      dup1\n        /* \"#utility.yul\":282:294   */\n      revert\n        /* \"#utility.yul\":251:253   */\n    tag_68:\n        /* \"#utility.yul\":305:346   */\n      tag_69\n        /* \"#utility.yul\":339:345   */\n      dup5\n        /* \"#utility.yul\":334:337   */\n      dup3\n        /* \"#utility.yul\":329:332   */\n      dup6\n        /* \"#utility.yul\":305:346   */\n      tag_70\n      jump\t// in\n    tag_69:\n        /* \"#utility.yul\":91:352   */\n      pop\n      swap4\n      swap3\n      pop\n      pop\n      pop\n      jump\t// out\n        /* \"#utility.yul\":358:497   */\n    tag_71:\n      0x00\n        /* \"#utility.yul\":442:448   */\n      dup2\n        /* \"#utility.yul\":429:449   */\n      calldataload\n        /* \"#utility.yul\":420:449   */\n      swap1\n      pop\n        /* \"#utility.yul\":458:491   */\n      tag_73\n        /* \"#utility.yul\":485:490   */\n      dup2\n        /* \"#utility.yul\":458:491   */\n      tag_74\n      jump\t// in\n    tag_73:\n        /* \"#utility.yul\":410:497   */\n      swap3\n      swap2\n      pop\n      pop\n      jump\t// out\n        /* \"#utility.yul\":517:790   */\n    tag_75:\n      0x00\n        /* \"#utility.yul\":622:625   */\n      dup3\n        /* \"#utility.yul\":615:619   */\n      0x1f\n        /* \"#utility.yul\":607:613   */\n      dup4\n        /* \"#utility.yul\":603:620   */\n      add\n        /* \"#utility.yul\":599:626   */\n      slt\n        /* \"#utility.yul\":589:591   */\n      tag_77\n      jumpi\n        /* \"#utility.yul\":640:641   */\n      0x00\n        /* \"#utility.yul\":637:638   */\n      dup1\n        /* \"#utility.yul\":630:642   */\n      revert\n        /* \"#utility.yul\":589:591   */\n    tag_77:\n        /* \"#utility.yul\":680:686   */\n      dup2\n        /* \"#utility.yul\":667:687   */\n      calldataload\n        /* \"#utility.yul\":705:784   */\n      tag_78\n        /* \"#utility.yul\":780:783   */\n      dup5\n        /* \"#utility.yul\":772:778   */\n      dup3\n        /* \"#utility.yul\":765:769   */\n      0x20\n        /* \"#utility.yul\":757:763   */\n      dup7\n        /* \"#utility.yul\":753:770   */\n      add\n        /* \"#utility.yul\":705:784   */\n      tag_62\n      jump\t// in\n    tag_78:\n        /* \"#utility.yul\":696:784   */\n      swap2\n      pop\n        /* \"#utility.yul\":579:790   */\n      pop\n      swap3\n      swap2\n      pop\n      pop\n      jump\t// out\n        /* \"#utility.yul\":796:935   */\n    tag_79:\n      0x00\n        /* \"#utility.yul\":880:886   */\n      dup2\n        /* \"#utility.yul\":867:887   */\n      calldataload\n        /* \"#utility.yul\":858:887   */\n      swap1\n      pop\n        /* \"#utility.yul\":896:929   */\n      tag_81\n        /* \"#utility.yul\":923:928   */\n      dup2\n        /* \"#utility.yul\":896:929   */\n      tag_82\n      jump\t// in\n    tag_81:\n        /* \"#utility.yul\":848:935   */\n      swap3\n      swap2\n      pop\n      pop\n      jump\t// out\n        /* \"#utility.yul\":941:1203   */\n    tag_23:\n      0x00\n        /* \"#utility.yul\":1049:1051   */\n      0x20\n        /* \"#utility.yul\":1037:1046   */\n      dup3\n        /* \"#utility.yul\":1028:1035   */\n      dup5\n        /* \"#utility.yul\":1024:1047   */\n      sub\n        /* \"#utility.yul\":1020:1052   */\n      slt\n        /* \"#utility.yul\":1017:1019   */\n      iszero\n      tag_84\n      jumpi\n        /* \"#utility.yul\":1065:1066   */\n      0x00\n        /* \"#utility.yul\":1062:1063   */\n      dup1\n        /* \"#utility.yul\":1055:1067   */\n      revert\n        /* \"#utility.yul\":1017:1019   */\n    tag_84:\n        /* \"#utility.yul\":1108:1109   */\n      0x00\n        /* \"#utility.yul\":1133:1186   */\n      tag_85\n        /* \"#utility.yul\":1178:1185   */\n      dup5\n        /* \"#utility.yul\":1169:1175   */\n      dup3\n        /* \"#utility.yul\":1158:1167   */\n      dup6\n        /* \"#utility.yul\":1154:1176   */\n      add\n        /* \"#utility.yul\":1133:1186   */\n      tag_71\n      jump\t// in\n    tag_85:\n        /* \"#utility.yul\":1123:1186   */\n      swap2\n      pop\n        /* \"#utility.yul\":1079:1196   */\n      pop\n        /* \"#utility.yul\":1007:1203   */\n      swap3\n      swap2\n      pop\n      pop\n      jump\t// out\n        /* \"#utility.yul\":1209:1584   */\n    tag_11:\n      0x00\n        /* \"#utility.yul\":1327:1329   */\n      0x20\n        /* \"#utility.yul\":1315:1324   */\n      dup3\n        /* \"#utility.yul\":1306:1313   */\n      dup5\n        /* \"#utility.yul\":1302:1325   */\n      sub\n        /* \"#utility.yul\":1298:1330   */\n      slt\n        /* \"#utility.yul\":1295:1297   */\n      iszero\n      tag_87\n      jumpi\n        /* \"#utility.yul\":1343:1344   */\n      0x00\n        /* \"#utility.yul\":1340:1341   */\n      dup1\n        /* \"#utility.yul\":1333:1345   */\n      revert\n        /* \"#utility.yul\":1295:1297   */\n    tag_87:\n        /* \"#utility.yul\":1414:1415   */\n      0x00\n        /* \"#utility.yul\":1403:1412   */\n      dup3\n        /* \"#utility.yul\":1399:1416   */\n      add\n        /* \"#utility.yul\":1386:1417   */\n      calldataload\n        /* \"#utility.yul\":1444:1462   */\n      0xffffffffffffffff\n        /* \"#utility.yul\":1436:1442   */\n      dup2\n        /* \"#utility.yul\":1433:1463   */\n      gt\n        /* \"#utility.yul\":1430:1432   */\n      iszero\n      tag_88\n      jumpi\n        /* \"#utility.yul\":1476:1477   */\n      0x00\n        /* \"#utility.yul\":1473:1474   */\n      dup1\n        /* \"#utility.yul\":1466:1478   */\n      revert\n        /* \"#utility.yul\":1430:1432   */\n    tag_88:\n        /* \"#utility.yul\":1504:1567   */\n      tag_89\n        /* \"#utility.yul\":1559:1566   */\n      dup5\n        /* \"#utility.yul\":1550:1556   */\n      dup3\n        /* \"#utility.yul\":1539:1548   */\n      dup6\n        /* \"#utility.yul\":1535:1557   */\n      add\n        /* \"#utility.yul\":1504:1567   */\n      tag_75\n      jump\t// in\n    tag_89:\n        /* \"#utility.yul\":1494:1567   */\n      swap2\n      pop\n        /* \"#utility.yul\":1357:1577   */\n      pop\n        /* \"#utility.yul\":1285:1584   */\n      swap3\n      swap2\n      pop\n      pop\n      jump\t// out\n        /* \"#utility.yul\":1590:1852   */\n    tag_17:\n      0x00\n        /* \"#utility.yul\":1698:1700   */\n      0x20\n        /* \"#utility.yul\":1686:1695   */\n      dup3\n        /* \"#utility.yul\":1677:1684   */\n      dup5\n        /* \"#utility.yul\":1673:1696   */\n      sub\n        /* \"#utility.yul\":1669:1701   */\n      slt\n        /* \"#utility.yul\":1666:1668   */\n      iszero\n      tag_91\n      jumpi\n        /* \"#utility.yul\":1714:1715   */\n      0x00\n        /* \"#utility.yul\":1711:1712   */\n      dup1\n        /* \"#utility.yul\":1704:1716   */\n      revert\n        /* \"#utility.yul\":1666:1668   */\n    tag_91:\n        /* \"#utility.yul\":1757:1758   */\n      0x00\n        /* \"#utility.yul\":1782:1835   */\n      tag_92\n        /* \"#utility.yul\":1827:1834   */\n      dup5\n        /* \"#utility.yul\":1818:1824   */\n      dup3\n        /* \"#utility.yul\":1807:1816   */\n      dup6\n        /* \"#utility.yul\":1803:1825   */\n      add\n        /* \"#utility.yul\":1782:1835   */\n      tag_79\n      jump\t// in\n    tag_92:\n        /* \"#utility.yul\":1772:1835   */\n      swap2\n      pop\n        /* \"#utility.yul\":1728:1845   */\n      pop\n        /* \"#utility.yul\":1656:1852   */\n      swap3\n      swap2\n      pop\n      pop\n      jump\t// out\n        /* \"#utility.yul\":1858:2523   */\n    tag_29:\n      0x00\n      dup1\n      0x00\n        /* \"#utility.yul\":2010:2012   */\n      0x60\n        /* \"#utility.yul\":1998:2007   */\n      dup5\n        /* \"#utility.yul\":1989:1996   */\n      dup7\n        /* \"#utility.yul\":1985:2008   */\n      sub\n        /* \"#utility.yul\":1981:2013   */\n      slt\n        /* \"#utility.yul\":1978:1980   */\n      iszero\n      tag_94\n      jumpi\n        /* \"#utility.yul\":2026:2027   */\n      0x00\n        /* \"#utility.yul\":2023:2024   */\n      dup1\n        /* \"#utility.yul\":2016:2028   */\n      revert\n        /* \"#utility.yul\":1978:1980   */\n    tag_94:\n        /* \"#utility.yul\":2069:2070   */\n      0x00\n        /* \"#utility.yul\":2094:2147   */\n      tag_95\n        /* \"#utility.yul\":2139:2146   */\n      dup7\n        /* \"#utility.yul\":2130:2136   */\n      dup3\n        /* \"#utility.yul\":2119:2128   */\n      dup8\n        /* \"#utility.yul\":2115:2137   */\n      add\n        /* \"#utility.yul\":2094:2147   */\n      tag_79\n      jump\t// in\n    tag_95:\n        /* \"#utility.yul\":2084:2147   */\n      swap4\n      pop\n        /* \"#utility.yul\":2040:2157   */\n      pop\n        /* \"#utility.yul\":2224:2226   */\n      0x20\n        /* \"#utility.yul\":2213:2222   */\n      dup5\n        /* \"#utility.yul\":2209:2227   */\n      add\n        /* \"#utility.yul\":2196:2228   */\n      calldataload\n        /* \"#utility.yul\":2255:2273   */\n      0xffffffffffffffff\n        /* \"#utility.yul\":2247:2253   */\n      dup2\n        /* \"#utility.yul\":2244:2274   */\n      gt\n        /* \"#utility.yul\":2241:2243   */\n      iszero\n      tag_96\n      jumpi\n        /* \"#utility.yul\":2287:2288   */\n      0x00\n        /* \"#utility.yul\":2284:2285   */\n      dup1\n        /* \"#utility.yul\":2277:2289   */\n      revert\n        /* \"#utility.yul\":2241:2243   */\n    tag_96:\n        /* \"#utility.yul\":2315:2378   */\n      tag_97\n        /* \"#utility.yul\":2370:2377   */\n      dup7\n        /* \"#utility.yul\":2361:2367   */\n      dup3\n        /* \"#utility.yul\":2350:2359   */\n      dup8\n        /* \"#utility.yul\":2346:2368   */\n      add\n        /* \"#utility.yul\":2315:2378   */\n      tag_75\n      jump\t// in\n    tag_97:\n        /* \"#utility.yul\":2305:2378   */\n      swap3\n      pop\n        /* \"#utility.yul\":2167:2388   */\n      pop\n        /* \"#utility.yul\":2427:2429   */\n      0x40\n        /* \"#utility.yul\":2453:2506   */\n      tag_98\n        /* \"#utility.yul\":2498:2505   */\n      dup7\n        /* \"#utility.yul\":2489:2495   */\n      dup3\n        /* \"#utility.yul\":2478:2487   */\n      dup8\n        /* \"#utility.yul\":2474:2496   */\n      add\n        /* \"#utility.yul\":2453:2506   */\n      tag_79\n      jump\t// in\n    tag_98:\n        /* \"#utility.yul\":2443:2506   */\n      swap2\n      pop\n        /* \"#utility.yul\":2398:2516   */\n      pop\n        /* \"#utility.yul\":1968:2523   */\n      swap3\n      pop\n      swap3\n      pop\n      swap3\n      jump\t// out\n        /* \"#utility.yul\":2529:2647   */\n    tag_99:\n        /* \"#utility.yul\":2616:2640   */\n      tag_101\n        /* \"#utility.yul\":2634:2639   */\n      dup2\n        /* \"#utility.yul\":2616:2640   */\n      tag_102\n      jump\t// in\n    tag_101:\n        /* \"#utility.yul\":2611:2614   */\n      dup3\n        /* \"#utility.yul\":2604:2641   */\n      mstore\n        /* \"#utility.yul\":2594:2647   */\n      pop\n      pop\n      jump\t// out\n        /* \"#utility.yul\":2653:3017   */\n    tag_103:\n      0x00\n        /* \"#utility.yul\":2769:2808   */\n      tag_105\n        /* \"#utility.yul\":2802:2807   */\n      dup3\n        /* \"#utility.yul\":2769:2808   */\n      tag_106\n      jump\t// in\n    tag_105:\n        /* \"#utility.yul\":2824:2895   */\n      tag_107\n        /* \"#utility.yul\":2888:2894   */\n      dup2\n        /* \"#utility.yul\":2883:2886   */\n      dup6\n        /* \"#utility.yul\":2824:2895   */\n      tag_108\n      jump\t// in\n    tag_107:\n        /* \"#utility.yul\":2817:2895   */\n      swap4\n      pop\n        /* \"#utility.yul\":2904:2956   */\n      tag_109\n        /* \"#utility.yul\":2949:2955   */\n      dup2\n        /* \"#utility.yul\":2944:2947   */\n      dup6\n        /* \"#utility.yul\":2937:2941   */\n      0x20\n        /* \"#utility.yul\":2930:2935   */\n      dup7\n        /* \"#utility.yul\":2926:2942   */\n      add\n        /* \"#utility.yul\":2904:2956   */\n      tag_110\n      jump\t// in\n    tag_109:\n        /* \"#utility.yul\":2981:3010   */\n      tag_111\n        /* \"#utility.yul\":3003:3009   */\n      dup2\n        /* \"#utility.yul\":2981:3010   */\n      tag_112\n      jump\t// in\n    tag_111:\n        /* \"#utility.yul\":2976:2979   */\n      dup5\n        /* \"#utility.yul\":2972:3011   */\n      add\n        /* \"#utility.yul\":2965:3011   */\n      swap2\n      pop\n        /* \"#utility.yul\":2745:3017   */\n      pop\n      swap3\n      swap2\n      pop\n      pop\n      jump\t// out\n        /* \"#utility.yul\":3023:3141   */\n    tag_113:\n        /* \"#utility.yul\":3110:3134   */\n      tag_115\n        /* \"#utility.yul\":3128:3133   */\n      dup2\n        /* \"#utility.yul\":3110:3134   */\n      tag_116\n      jump\t// in\n    tag_115:\n        /* \"#utility.yul\":3105:3108   */\n      dup3\n        /* \"#utility.yul\":3098:3135   */\n      mstore\n        /* \"#utility.yul\":3088:3141   */\n      pop\n      pop\n      jump\t// out\n        /* \"#utility.yul\":3147:3460   */\n    tag_26:\n      0x00\n        /* \"#utility.yul\":3298:3300   */\n      0x20\n        /* \"#utility.yul\":3287:3296   */\n      dup3\n        /* \"#utility.yul\":3283:3301   */\n      add\n        /* \"#utility.yul\":3275:3301   */\n      swap1\n      pop\n        /* \"#utility.yul\":3347:3356   */\n      dup2\n        /* \"#utility.yul\":3341:3345   */\n      dup2\n        /* \"#utility.yul\":3337:3357   */\n      sub\n        /* \"#utility.yul\":3333:3334   */\n      0x00\n        /* \"#utility.yul\":3322:3331   */\n      dup4\n        /* \"#utility.yul\":3318:3335   */\n      add\n        /* \"#utility.yul\":3311:3358   */\n      mstore\n        /* \"#utility.yul\":3375:3453   */\n      tag_118\n        /* \"#utility.yul\":3448:3452   */\n      dup2\n        /* \"#utility.yul\":3439:3445   */\n      dup5\n        /* \"#utility.yul\":3375:3453   */\n      tag_103\n      jump\t// in\n    tag_118:\n        /* \"#utility.yul\":3367:3453   */\n      swap1\n      pop\n        /* \"#utility.yul\":3265:3460   */\n      swap3\n      swap2\n      pop\n      pop\n      jump\t// out\n        /* \"#utility.yul\":3466:3999   */\n    tag_20:\n      0x00\n        /* \"#utility.yul\":3673:3675   */\n      0x60\n        /* \"#utility.yul\":3662:3671   */\n      dup3\n        /* \"#utility.yul\":3658:3676   */\n      add\n        /* \"#utility.yul\":3650:3676   */\n      swap1\n      pop\n        /* \"#utility.yul\":3722:3731   */\n      dup2\n        /* \"#utility.yul\":3716:3720   */\n      dup2\n        /* \"#utility.yul\":3712:3732   */\n      sub\n        /* \"#utility.yul\":3708:3709   */\n      0x00\n        /* \"#utility.yul\":3697:3706   */\n      dup4\n        /* \"#utility.yul\":3693:3710   */\n      add\n        /* \"#utility.yul\":3686:3733   */\n      mstore\n        /* \"#utility.yul\":3750:3828   */\n      tag_120\n        /* \"#utility.yul\":3823:3827   */\n      dup2\n        /* \"#utility.yul\":3814:3820   */\n      dup7\n        /* \"#utility.yul\":3750:3828   */\n      tag_103\n      jump\t// in\n    tag_120:\n        /* \"#utility.yul\":3742:3828   */\n      swap1\n      pop\n        /* \"#utility.yul\":3838:3910   */\n      tag_121\n        /* \"#utility.yul\":3906:3908   */\n      0x20\n        /* \"#utility.yul\":3895:3904   */\n      dup4\n        /* \"#utility.yul\":3891:3909   */\n      add\n        /* \"#utility.yul\":3882:3888   */\n      dup6\n        /* \"#utility.yul\":3838:3910   */\n      tag_113\n      jump\t// in\n    tag_121:\n        /* \"#utility.yul\":3920:3992   */\n      tag_122\n        /* \"#utility.yul\":3988:3990   */\n      0x40\n        /* \"#utility.yul\":3977:3986   */\n      dup4\n        /* \"#utility.yul\":3973:3991   */\n      add\n        /* \"#utility.yul\":3964:3970   */\n      dup5\n        /* \"#utility.yul\":3920:3992   */\n      tag_99\n      jump\t// in\n    tag_122:\n        /* \"#utility.yul\":3640:3999   */\n      swap5\n      swap4\n      pop\n      pop\n      pop\n      pop\n      jump\t// out\n        /* \"#utility.yul\":4005:4134   */\n    tag_67:\n      0x00\n        /* \"#utility.yul\":4066:4086   */\n      tag_124\n      tag_125\n      jump\t// in\n    tag_124:\n        /* \"#utility.yul\":4056:4086   */\n      swap1\n      pop\n        /* \"#utility.yul\":4095:4128   */\n      tag_126\n        /* \"#utility.yul\":4123:4127   */\n      dup3\n        /* \"#utility.yul\":4115:4121   */\n      dup3\n        /* \"#utility.yul\":4095:4128   */\n      tag_127\n      jump\t// in\n    tag_126:\n        /* \"#utility.yul\":4046:4134   */\n      swap2\n      swap1\n      pop\n      jump\t// out\n        /* \"#utility.yul\":4140:4215   */\n    tag_125:\n      0x00\n        /* \"#utility.yul\":4206:4208   */\n      0x40\n        /* \"#utility.yul\":4200:4209   */\n      mload\n        /* \"#utility.yul\":4190:4209   */\n      swap1\n      pop\n        /* \"#utility.yul\":4180:4215   */\n      swap1\n      jump\t// out\n        /* \"#utility.yul\":4221:4529   */\n    tag_66:\n      0x00\n        /* \"#utility.yul\":4373:4391   */\n      0xffffffffffffffff\n        /* \"#utility.yul\":4365:4371   */\n      dup3\n        /* \"#utility.yul\":4362:4392   */\n      gt\n        /* \"#utility.yul\":4359:4361   */\n      iszero\n      tag_130\n      jumpi\n        /* \"#utility.yul\":4395:4413   */\n      tag_131\n      tag_132\n      jump\t// in\n    tag_131:\n        /* \"#utility.yul\":4359:4361   */\n    tag_130:\n        /* \"#utility.yul\":4433:4462   */\n      tag_133\n        /* \"#utility.yul\":4455:4461   */\n      dup3\n        /* \"#utility.yul\":4433:4462   */\n      tag_112\n      jump\t// in\n    tag_133:\n        /* \"#utility.yul\":4425:4462   */\n      swap1\n      pop\n        /* \"#utility.yul\":4517:4521   */\n      0x20\n        /* \"#utility.yul\":4511:4515   */\n      dup2\n        /* \"#utility.yul\":4507:4522   */\n      add\n        /* \"#utility.yul\":4499:4522   */\n      swap1\n      pop\n        /* \"#utility.yul\":4288:4529   */\n      swap2\n      swap1\n      pop\n      jump\t// out\n        /* \"#utility.yul\":4535:4634   */\n    tag_106:\n      0x00\n        /* \"#utility.yul\":4621:4626   */\n      dup2\n        /* \"#utility.yul\":4615:4627   */\n      mload\n        /* \"#utility.yul\":4605:4627   */\n      swap1\n      pop\n        /* \"#utility.yul\":4594:4634   */\n      swap2\n      swap1\n      pop\n      jump\t// out\n        /* \"#utility.yul\":4640:4809   */\n    tag_108:\n      0x00\n        /* \"#utility.yul\":4758:4764   */\n      dup3\n        /* \"#utility.yul\":4753:4756   */\n      dup3\n        /* \"#utility.yul\":4746:4765   */\n      mstore\n        /* \"#utility.yul\":4798:4802   */\n      0x20\n        /* \"#utility.yul\":4793:4796   */\n      dup3\n        /* \"#utility.yul\":4789:4803   */\n      add\n        /* \"#utility.yul\":4774:4803   */\n      swap1\n      pop\n        /* \"#utility.yul\":4736:4809   */\n      swap3\n      swap2\n      pop\n      pop\n      jump\t// out\n        /* \"#utility.yul\":4815:4911   */\n    tag_102:\n      0x00\n        /* \"#utility.yul\":4881:4905   */\n      tag_137\n        /* \"#utility.yul\":4899:4904   */\n      dup3\n        /* \"#utility.yul\":4881:4905   */\n      tag_138\n      jump\t// in\n    tag_137:\n        /* \"#utility.yul\":4870:4905   */\n      swap1\n      pop\n        /* \"#utility.yul\":4860:4911   */\n      swap2\n      swap1\n      pop\n      jump\t// out\n        /* \"#utility.yul\":4917:5043   */\n    tag_138:\n      0x00\n        /* \"#utility.yul\":4994:5036   */\n      0xffffffffffffffffffffffffffffffffffffffff\n        /* \"#utility.yul\":4987:4992   */\n      dup3\n        /* \"#utility.yul\":4983:5037   */\n      and\n        /* \"#utility.yul\":4972:5037   */\n      swap1\n      pop\n        /* \"#utility.yul\":4962:5043   */\n      swap2\n      swap1\n      pop\n      jump\t// out\n        /* \"#utility.yul\":5049:5126   */\n    tag_116:\n      0x00\n        /* \"#utility.yul\":5115:5120   */\n      dup2\n        /* \"#utility.yul\":5104:5120   */\n      swap1\n      pop\n        /* \"#utility.yul\":5094:5126   */\n      swap2\n      swap1\n      pop\n      jump\t// out\n        /* \"#utility.yul\":5132:5286   */\n    tag_70:\n        /* \"#utility.yul\":5216:5222   */\n      dup3\n        /* \"#utility.yul\":5211:5214   */\n      dup2\n        /* \"#utility.yul\":5206:5209   */\n      dup4\n        /* \"#utility.yul\":5193:5223   */\n      calldatacopy\n        /* \"#utility.yul\":5278:5279   */\n      0x00\n        /* \"#utility.yul\":5269:5275   */\n      dup4\n        /* \"#utility.yul\":5264:5267   */\n      dup4\n        /* \"#utility.yul\":5260:5276   */\n      add\n        /* \"#utility.yul\":5253:5280   */\n      mstore\n        /* \"#utility.yul\":5183:5286   */\n      pop\n      pop\n      pop\n      jump\t// out\n        /* \"#utility.yul\":5292:5599   */\n    tag_110:\n        /* \"#utility.yul\":5360:5361   */\n      0x00\n        /* \"#utility.yul\":5370:5483   */\n    tag_143:\n        /* \"#utility.yul\":5384:5390   */\n      dup4\n        /* \"#utility.yul\":5381:5382   */\n      dup2\n        /* \"#utility.yul\":5378:5391   */\n      lt\n        /* \"#utility.yul\":5370:5483   */\n      iszero\n      tag_145\n      jumpi\n        /* \"#utility.yul\":5469:5470   */\n      dup1\n        /* \"#utility.yul\":5464:5467   */\n      dup3\n        /* \"#utility.yul\":5460:5471   */\n      add\n        /* \"#utility.yul\":5454:5472   */\n      mload\n        /* \"#utility.yul\":5450:5451   */\n      dup2\n        /* \"#utility.yul\":5445:5448   */\n      dup5\n        /* \"#utility.yul\":5441:5452   */\n      add\n        /* \"#utility.yul\":5434:5473   */\n      mstore\n        /* \"#utility.yul\":5406:5408   */\n      0x20\n        /* \"#utility.yul\":5403:5404   */\n      dup2\n        /* \"#utility.yul\":5399:5409   */\n      add\n        /* \"#utility.yul\":5394:5409   */\n      swap1\n      pop\n        /* \"#utility.yul\":5370:5483   */\n      jump(tag_143)\n    tag_145:\n        /* \"#utility.yul\":5501:5507   */\n      dup4\n        /* \"#utility.yul\":5498:5499   */\n      dup2\n        /* \"#utility.yul\":5495:5508   */\n      gt\n        /* \"#utility.yul\":5492:5494   */\n      iszero\n      tag_146\n      jumpi\n        /* \"#utility.yul\":5581:5582   */\n      0x00\n        /* \"#utility.yul\":5572:5578   */\n      dup5\n        /* \"#utility.yul\":5567:5570   */\n      dup5\n        /* \"#utility.yul\":5563:5579   */\n      add\n        /* \"#utility.yul\":5556:5583   */\n      mstore\n        /* \"#utility.yul\":5492:5494   */\n    tag_146:\n        /* \"#utility.yul\":5341:5599   */\n      pop\n      pop\n      pop\n      pop\n      jump\t// out\n        /* \"#utility.yul\":5605:5925   */\n    tag_38:\n      0x00\n        /* \"#utility.yul\":5686:5687   */\n      0x02\n        /* \"#utility.yul\":5680:5684   */\n      dup3\n        /* \"#utility.yul\":5676:5688   */\n      div\n        /* \"#utility.yul\":5666:5688   */\n      swap1\n      pop\n        /* \"#utility.yul\":5733:5734   */\n      0x01\n        /* \"#utility.yul\":5727:5731   */\n      dup3\n        /* \"#utility.yul\":5723:5735   */\n      and\n        /* \"#utility.yul\":5754:5772   */\n      dup1\n        /* \"#utility.yul\":5744:5746   */\n      tag_148\n      jumpi\n        /* \"#utility.yul\":5810:5814   */\n      0x7f\n        /* \"#utility.yul\":5802:5808   */\n      dup3\n        /* \"#utility.yul\":5798:5815   */\n      and\n        /* \"#utility.yul\":5788:5815   */\n      swap2\n      pop\n        /* \"#utility.yul\":5744:5746   */\n    tag_148:\n        /* \"#utility.yul\":5872:5874   */\n      0x20\n        /* \"#utility.yul\":5864:5870   */\n      dup3\n        /* \"#utility.yul\":5861:5875   */\n      lt\n        /* \"#utility.yul\":5841:5859   */\n      dup2\n        /* \"#utility.yul\":5838:5876   */\n      eq\n        /* \"#utility.yul\":5835:5837   */\n      iszero\n      tag_149\n      jumpi\n        /* \"#utility.yul\":5891:5909   */\n      tag_150\n      tag_151\n      jump\t// in\n    tag_150:\n        /* \"#utility.yul\":5835:5837   */\n    tag_149:\n        /* \"#utility.yul\":5656:5925   */\n      pop\n      swap2\n      swap1\n      pop\n      jump\t// out\n        /* \"#utility.yul\":5931:6212   */\n    tag_127:\n        /* \"#utility.yul\":6014:6041   */\n      tag_153\n        /* \"#utility.yul\":6036:6040   */\n      dup3\n        /* \"#utility.yul\":6014:6041   */\n      tag_112\n      jump\t// in\n    tag_153:\n        /* \"#utility.yul\":6006:6012   */\n      dup2\n        /* \"#utility.yul\":6002:6042   */\n      add\n        /* \"#utility.yul\":6144:6150   */\n      dup2\n        /* \"#utility.yul\":6132:6142   */\n      dup2\n        /* \"#utility.yul\":6129:6151   */\n      lt\n        /* \"#utility.yul\":6108:6126   */\n      0xffffffffffffffff\n        /* \"#utility.yul\":6096:6106   */\n      dup3\n        /* \"#utility.yul\":6093:6127   */\n      gt\n        /* \"#utility.yul\":6090:6152   */\n      or\n        /* \"#utility.yul\":6087:6089   */\n      iszero\n      tag_154\n      jumpi\n        /* \"#utility.yul\":6155:6173   */\n      tag_155\n      tag_132\n      jump\t// in\n    tag_155:\n        /* \"#utility.yul\":6087:6089   */\n    tag_154:\n        /* \"#utility.yul\":6195:6205   */\n      dup1\n        /* \"#utility.yul\":6191:6193   */\n      0x40\n        /* \"#utility.yul\":6184:6206   */\n      mstore\n        /* \"#utility.yul\":5974:6212   */\n      pop\n      pop\n      pop\n      jump\t// out\n        /* \"#utility.yul\":6218:6398   */\n    tag_151:\n        /* \"#utility.yul\":6266:6343   */\n      0x4e487b7100000000000000000000000000000000000000000000000000000000\n        /* \"#utility.yul\":6263:6264   */\n      0x00\n        /* \"#utility.yul\":6256:6344   */\n      mstore\n        /* \"#utility.yul\":6363:6367   */\n      0x22\n        /* \"#utility.yul\":6360:6361   */\n      0x04\n        /* \"#utility.yul\":6353:6368   */\n      mstore\n        /* \"#utility.yul\":6387:6391   */\n      0x24\n        /* \"#utility.yul\":6384:6385   */\n      0x00\n        /* \"#utility.yul\":6377:6392   */\n      revert\n        /* \"#utility.yul\":6404:6584   */\n    tag_132:\n        /* \"#utility.yul\":6452:6529   */\n      0x4e487b7100000000000000000000000000000000000000000000000000000000\n        /* \"#utility.yul\":6449:6450   */\n      0x00\n        /* \"#utility.yul\":6442:6530   */\n      mstore\n        /* \"#utility.yul\":6549:6553   */\n      0x41\n        /* \"#utility.yul\":6546:6547   */\n      0x04\n        /* \"#utility.yul\":6539:6554   */\n      mstore\n        /* \"#utility.yul\":6573:6577   */\n      0x24\n        /* \"#utility.yul\":6570:6571   */\n      0x00\n        /* \"#utility.yul\":6563:6578   */\n      revert\n        /* \"#utility.yul\":6590:6692   */\n    tag_112:\n      0x00\n        /* \"#utility.yul\":6682:6684   */\n      0x1f\n        /* \"#utility.yul\":6678:6685   */\n      not\n        /* \"#utility.yul\":6673:6675   */\n      0x1f\n        /* \"#utility.yul\":6666:6671   */\n      dup4\n        /* \"#utility.yul\":6662:6676   */\n      add\n        /* \"#utility.yul\":6658:6686   */\n      and\n        /* \"#utility.yul\":6648:6686   */\n      swap1\n      pop\n        /* \"#utility.yul\":6638:6692   */\n      swap2\n      swap1\n      pop\n      jump\t// out\n        /* \"#utility.yul\":6698:6820   */\n    tag_74:\n        /* \"#utility.yul\":6771:6795   */\n      tag_160\n        /* \"#utility.yul\":6789:6794   */\n      dup2\n        /* \"#utility.yul\":6771:6795   */\n      tag_102\n      jump\t// in\n    tag_160:\n        /* \"#utility.yul\":6764:6769   */\n      dup2\n        /* \"#utility.yul\":6761:6796   */\n      eq\n        /* \"#utility.yul\":6751:6753   */\n      tag_161\n      jumpi\n        /* \"#utility.yul\":6810:6811   */\n      0x00\n        /* \"#utility.yul\":6807:6808   */\n      dup1\n        /* \"#utility.yul\":6800:6812   */\n      revert\n        /* \"#utility.yul\":6751:6753   */\n    tag_161:\n        /* \"#utility.yul\":6741:6820   */\n      pop\n      jump\t// out\n        /* \"#utility.yul\":6826:6948   */\n    tag_82:\n        /* \"#utility.yul\":6899:6923   */\n      tag_163\n        /* \"#utility.yul\":6917:6922   */\n      dup2\n        /* \"#utility.yul\":6899:6923   */\n      tag_116\n      jump\t// in\n    tag_163:\n        /* \"#utility.yul\":6892:6897   */\n      dup2\n        /* \"#utility.yul\":6889:6924   */\n      eq\n        /* \"#utility.yul\":6879:6881   */\n      tag_164\n      jumpi\n        /* \"#utility.yul\":6938:6939   */\n      0x00\n        /* \"#utility.yul\":6935:6936   */\n      dup1\n        /* \"#utility.yul\":6928:6940   */\n      revert\n        /* \"#utility.yul\":6879:6881   */\n    tag_164:\n        /* \"#utility.yul\":6869:6948   */\n      pop\n      jump\t// out\n\n    auxdata: 0xa26469706673582212204eb75d4b39a0377847bf6598e64c124569bd9916308724b2dcd48e437cbcfdc864736f6c63430008010033\n}\n",
				"bytecode": {
					"linkReferences": {},
					"object": "608060405234801561001057600080fd5b506108a7806100206000396000f3fe608060405234801561001057600080fd5b50600436106100625760003560e01c806318b8275a146100675780633e8a0585146100835780634b4a80ba1461008d57806399b956a0146100bf578063e783080c146100ef578063f4e5d5991461010b575b600080fd5b610081600480360381019061007c91906104f9565b610115565b005b61008b61016b565b005b6100a760048036038101906100a2919061053a565b61016d565b6040516100b693929190610643565b60405180910390f35b6100d960048036038101906100d491906104d0565b61023f565b6040516100e69190610621565b60405180910390f35b61010960048036038101906101049190610563565b6102df565b005b610113610399565b005b806000803373ffffffffffffffffffffffffffffffffffffffff1673ffffffffffffffffffffffffffffffffffffffff168152602001908152602001600020908051906020019061016792919061039b565b5050565b565b600160205280600052604060002060009150905080600001805461019090610771565b80601f01602080910402602001604051908101604052809291908181526020018280546101bc90610771565b80156102095780601f106101de57610100808354040283529160200191610209565b820191906000526020600020905b8154815290600101906020018083116101ec57829003601f168201915b5050505050908060010154908060020160009054906101000a900473ffffffffffffffffffffffffffffffffffffffff16905083565b6000602052806000526040600020600091509050805461025e90610771565b80601f016020809104026020016040519081016040528092919081815260200182805461028a90610771565b80156102d75780601f106102ac576101008083540402835291602001916102d7565b820191906000526020600020905b8154815290600101906020018083116102ba57829003601f168201915b505050505081565b60405180606001604052808381526020018281526020013373ffffffffffffffffffffffffffffffffffffffff1681525060016000858152602001908152602001600020600082015181600001908051906020019061033f92919061039b565b506020820151816001015560408201518160020160006101000a81548173ffffffffffffffffffffffffffffffffffffffff021916908373ffffffffffffffffffffffffffffffffffffffff160217905550905050505050565b565b8280546103a790610771565b90600052602060002090601f0160209004810192826103c95760008555610410565b82601f106103e257805160ff1916838001178555610410565b82800160010185558215610410579182015b8281111561040f5782518255916020019190600101906103f4565b5b50905061041d9190610421565b5090565b5b8082111561043a576000816000905550600101610422565b5090565b600061045161044c846106a6565b610681565b90508281526020810184848401111561046957600080fd5b61047484828561072f565b509392505050565b60008135905061048b81610843565b92915050565b600082601f8301126104a257600080fd5b81356104b284826020860161043e565b91505092915050565b6000813590506104ca8161085a565b92915050565b6000602082840312156104e257600080fd5b60006104f08482850161047c565b91505092915050565b60006020828403121561050b57600080fd5b600082013567ffffffffffffffff81111561052557600080fd5b61053184828501610491565b91505092915050565b60006020828403121561054c57600080fd5b600061055a848285016104bb565b91505092915050565b60008060006060848603121561057857600080fd5b6000610586868287016104bb565b935050602084013567ffffffffffffffff8111156105a357600080fd5b6105af86828701610491565b92505060406105c0868287016104bb565b9150509250925092565b6105d3816106f3565b82525050565b60006105e4826106d7565b6105ee81856106e2565b93506105fe81856020860161073e565b61060781610832565b840191505092915050565b61061b81610725565b82525050565b6000602082019050818103600083015261063b81846105d9565b905092915050565b6000606082019050818103600083015261065d81866105d9565b905061066c6020830185610612565b61067960408301846105ca565b949350505050565b600061068b61069c565b905061069782826107a3565b919050565b6000604051905090565b600067ffffffffffffffff8211156106c1576106c0610803565b5b6106ca82610832565b9050602081019050919050565b600081519050919050565b600082825260208201905092915050565b60006106fe82610705565b9050919050565b600073ffffffffffffffffffffffffffffffffffffffff82169050919050565b6000819050919050565b82818337600083830152505050565b60005b8381101561075c578082015181840152602081019050610741565b8381111561076b576000848401525b50505050565b6000600282049050600182168061078957607f821691505b6020821081141561079d5761079c6107d4565b5b50919050565b6107ac82610832565b810181811067ffffffffffffffff821117156107cb576107ca610803565b5b80604052505050565b7f4e487b7100000000000000000000000000000000000000000000000000000000600052602260045260246000fd5b7f4e487b7100000000000000000000000000000000000000000000000000000000600052604160045260246000fd5b6000601f19601f8301169050919050565b61084c816106f3565b811461085757600080fd5b50565b61086381610725565b811461086e57600080fd5b5056fea26469706673582212204eb75d4b39a0377847bf6598e64c124569bd9916308724b2dcd48e437cbcfdc864736f6c63430008010033",
					"opcodes": "PUSH1 0x80 PUSH1 0x40 MSTORE CALLVALUE DUP1 ISZERO PUSH2 0x10 JUMPI PUSH1 0x0 DUP1 REVERT JUMPDEST POP PUSH2 0x8A7 DUP1 PUSH2 0x20 PUSH1 0x0 CODECOPY PUSH1 0x0 RETURN INVALID PUSH1 0x80 PUSH1 0x40 MSTORE CALLVALUE DUP1 ISZERO PUSH2 0x10 JUMPI PUSH1 0x0 DUP1 REVERT JUMPDEST POP PUSH1 0x4 CALLDATASIZE LT PUSH2 0x62 JUMPI PUSH1 0x0 CALLDATALOAD PUSH1 0xE0 SHR DUP1 PUSH4 0x18B8275A EQ PUSH2 0x67 JUMPI DUP1 PUSH4 0x3E8A0585 EQ PUSH2 0x83 JUMPI DUP1 PUSH4 0x4B4A80BA EQ PUSH2 0x8D JUMPI DUP1 PUSH4 0x99B956A0 EQ PUSH2 0xBF JUMPI DUP1 PUSH4 0xE783080C EQ PUSH2 0xEF JUMPI DUP1 PUSH4 0xF4E5D599 EQ PUSH2 0x10B JUMPI JUMPDEST PUSH1 0x0 DUP1 REVERT JUMPDEST PUSH2 0x81 PUSH1 0x4 DUP1 CALLDATASIZE SUB DUP2 ADD SWAP1 PUSH2 0x7C SWAP2 SWAP1 PUSH2 0x4F9 JUMP JUMPDEST PUSH2 0x115 JUMP JUMPDEST STOP JUMPDEST PUSH2 0x8B PUSH2 0x16B JUMP JUMPDEST STOP JUMPDEST PUSH2 0xA7 PUSH1 0x4 DUP1 CALLDATASIZE SUB DUP2 ADD SWAP1 PUSH2 0xA2 SWAP2 SWAP1 PUSH2 0x53A JUMP JUMPDEST PUSH2 0x16D JUMP JUMPDEST PUSH1 0x40 MLOAD PUSH2 0xB6 SWAP4 SWAP3 SWAP2 SWAP1 PUSH2 0x643 JUMP JUMPDEST PUSH1 0x40 MLOAD DUP1 SWAP2 SUB SWAP1 RETURN JUMPDEST PUSH2 0xD9 PUSH1 0x4 DUP1 CALLDATASIZE SUB DUP2 ADD SWAP1 PUSH2 0xD4 SWAP2 SWAP1 PUSH2 0x4D0 JUMP JUMPDEST PUSH2 0x23F JUMP JUMPDEST PUSH1 0x40 MLOAD PUSH2 0xE6 SWAP2 SWAP1 PUSH2 0x621 JUMP JUMPDEST PUSH1 0x40 MLOAD DUP1 SWAP2 SUB SWAP1 RETURN JUMPDEST PUSH2 0x109 PUSH1 0x4 DUP1 CALLDATASIZE SUB DUP2 ADD SWAP1 PUSH2 0x104 SWAP2 SWAP1 PUSH2 0x563 JUMP JUMPDEST PUSH2 0x2DF JUMP JUMPDEST STOP JUMPDEST PUSH2 0x113 PUSH2 0x399 JUMP JUMPDEST STOP JUMPDEST DUP1 PUSH1 0x0 DUP1 CALLER PUSH20 0xFFFFFFFFFFFFFFFFFFFFFFFFFFFFFFFFFFFFFFFF AND PUSH20 0xFFFFFFFFFFFFFFFFFFFFFFFFFFFFFFFFFFFFFFFF AND DUP2 MSTORE PUSH1 0x20 ADD SWAP1 DUP2 MSTORE PUSH1 0x20 ADD PUSH1 0x0 KECCAK256 SWAP1 DUP1 MLOAD SWAP1 PUSH1 0x20 ADD SWAP1 PUSH2 0x167 SWAP3 SWAP2 SWAP1 PUSH2 0x39B JUMP JUMPDEST POP POP JUMP JUMPDEST JUMP JUMPDEST PUSH1 0x1 PUSH1 0x20 MSTORE DUP1 PUSH1 0x0 MSTORE PUSH1 0x40 PUSH1 0x0 KECCAK256 PUSH1 0x0 SWAP2 POP SWAP1 POP DUP1 PUSH1 0x0 ADD DUP1 SLOAD PUSH2 0x190 SWAP1 PUSH2 0x771 JUMP JUMPDEST DUP1 PUSH1 0x1F ADD PUSH1 0x20 DUP1 SWAP2 DIV MUL PUSH1 0x20 ADD PUSH1 0x40 MLOAD SWAP1 DUP2 ADD PUSH1 0x40 MSTORE DUP1 SWAP3 SWAP2 SWAP1 DUP2 DUP2 MSTORE PUSH1 0x20 ADD DUP3 DUP1 SLOAD PUSH2 0x1BC SWAP1 PUSH2 0x771 JUMP JUMPDEST DUP1 ISZERO PUSH2 0x209 JUMPI DUP1 PUSH1 0x1F LT PUSH2 0x1DE JUMPI PUSH2 0x100 DUP1 DUP4 SLOAD DIV MUL DUP4 MSTORE SWAP2 PUSH1 0x20 ADD SWAP2 PUSH2 0x209 JUMP JUMPDEST DUP3 ADD SWAP2 SWAP1 PUSH1 0x0 MSTORE PUSH1 0x20 PUSH1 0x0 KECCAK256 SWAP1 JUMPDEST DUP2 SLOAD DUP2 MSTORE SWAP1 PUSH1 0x1 ADD SWAP1 PUSH1 0x20 ADD DUP1 DUP4 GT PUSH2 0x1EC JUMPI DUP3 SWAP1 SUB PUSH1 0x1F AND DUP3 ADD SWAP2 JUMPDEST POP POP POP POP POP SWAP1 DUP1 PUSH1 0x1 ADD SLOAD SWAP1 DUP1 PUSH1 0x2 ADD PUSH1 0x0 SWAP1 SLOAD SWAP1 PUSH2 0x100 EXP SWAP1 DIV PUSH20 0xFFFFFFFFFFFFFFFFFFFFFFFFFFFFFFFFFFFFFFFF AND SWAP1 POP DUP4 JUMP JUMPDEST PUSH1 0x0 PUSH1 0x20 MSTORE DUP1 PUSH1 0x0 MSTORE PUSH1 0x40 PUSH1 0x0 KECCAK256 PUSH1 0x0 SWAP2 POP SWAP1 POP DUP1 SLOAD PUSH2 0x25E SWAP1 PUSH2 0x771 JUMP JUMPDEST DUP1 PUSH1 0x1F ADD PUSH1 0x20 DUP1 SWAP2 DIV MUL PUSH1 0x20 ADD PUSH1 0x40 MLOAD SWAP1 DUP2 ADD PUSH1 0x40 MSTORE DUP1 SWAP3 SWAP2 SWAP1 DUP2 DUP2 MSTORE PUSH1 0x20 ADD DUP3 DUP1 SLOAD PUSH2 0x28A SWAP1 PUSH2 0x771 JUMP JUMPDEST DUP1 ISZERO PUSH2 0x2D7 JUMPI DUP1 PUSH1 0x1F LT PUSH2 0x2AC JUMPI PUSH2 0x100 DUP1 DUP4 SLOAD DIV MUL DUP4 MSTORE SWAP2 PUSH1 0x20 ADD SWAP2 PUSH2 0x2D7 JUMP JUMPDEST DUP3 ADD SWAP2 SWAP1 PUSH1 0x0 MSTORE PUSH1 0x20 PUSH1 0x0 KECCAK256 SWAP1 JUMPDEST DUP2 SLOAD DUP2 MSTORE SWAP1 PUSH1 0x1 ADD SWAP1 PUSH1 0x20 ADD DUP1 DUP4 GT PUSH2 0x2BA JUMPI DUP3 SWAP1 SUB PUSH1 0x1F AND DUP3 ADD SWAP2 JUMPDEST POP POP POP POP POP DUP2 JUMP JUMPDEST PUSH1 0x40 MLOAD DUP1 PUSH1 0x60 ADD PUSH1 0x40 MSTORE DUP1 DUP4 DUP2 MSTORE PUSH1 0x20 ADD DUP3 DUP2 MSTORE PUSH1 0x20 ADD CALLER PUSH20 0xFFFFFFFFFFFFFFFFFFFFFFFFFFFFFFFFFFFFFFFF AND DUP2 MSTORE POP PUSH1 0x1 PUSH1 0x0 DUP6 DUP2 MSTORE PUSH1 0x20 ADD SWAP1 DUP2 MSTORE PUSH1 0x20 ADD PUSH1 0x0 KECCAK256 PUSH1 0x0 DUP3 ADD MLOAD DUP2 PUSH1 0x0 ADD SWAP1 DUP1 MLOAD SWAP1 PUSH1 0x20 ADD SWAP1 PUSH2 0x33F SWAP3 SWAP2 SWAP1 PUSH2 0x39B JUMP JUMPDEST POP PUSH1 0x20 DUP3 ADD MLOAD DUP2 PUSH1 0x1 ADD SSTORE PUSH1 0x40 DUP3 ADD MLOAD DUP2 PUSH1 0x2 ADD PUSH1 0x0 PUSH2 0x100 EXP DUP2 SLOAD DUP2 PUSH20 0xFFFFFFFFFFFFFFFFFFFFFFFFFFFFFFFFFFFFFFFF MUL NOT AND SWAP1 DUP4 PUSH20 0xFFFFFFFFFFFFFFFFFFFFFFFFFFFFFFFFFFFFFFFF AND MUL OR SWAP1 SSTORE POP SWAP1 POP POP POP POP POP JUMP JUMPDEST JUMP JUMPDEST DUP3 DUP1 SLOAD PUSH2 0x3A7 SWAP1 PUSH2 0x771 JUMP JUMPDEST SWAP1 PUSH1 0x0 MSTORE PUSH1 0x20 PUSH1 0x0 KECCAK256 SWAP1 PUSH1 0x1F ADD PUSH1 0x20 SWAP1 DIV DUP2 ADD SWAP3 DUP3 PUSH2 0x3C9 JUMPI PUSH1 0x0 DUP6 SSTORE PUSH2 0x410 JUMP JUMPDEST DUP3 PUSH1 0x1F LT PUSH2 0x3E2 JUMPI DUP1 MLOAD PUSH1 0xFF NOT AND DUP4 DUP1 ADD OR DUP6 SSTORE PUSH2 0x410 JUMP JUMPDEST DUP3 DUP1 ADD PUSH1 0x1 ADD DUP6 SSTORE DUP3 ISZERO PUSH2 0x410 JUMPI SWAP2 DUP3 ADD JUMPDEST DUP3 DUP2 GT ISZERO PUSH2 0x40F JUMPI DUP3 MLOAD DUP3 SSTORE SWAP2 PUSH1 0x20 ADD SWAP2 SWAP1 PUSH1 0x1 ADD SWAP1 PUSH2 0x3F4 JUMP JUMPDEST JUMPDEST POP SWAP1 POP PUSH2 0x41D SWAP2 SWAP1 PUSH2 0x421 JUMP JUMPDEST POP SWAP1 JUMP JUMPDEST JUMPDEST DUP1 DUP3 GT ISZERO PUSH2 0x43A JUMPI PUSH1 0x0 DUP2 PUSH1 0x0 SWAP1 SSTORE POP PUSH1 0x1 ADD PUSH2 0x422 JUMP JUMPDEST POP SWAP1 JUMP JUMPDEST PUSH1 0x0 PUSH2 0x451 PUSH2 0x44C DUP5 PUSH2 0x6A6 JUMP JUMPDEST PUSH2 0x681 JUMP JUMPDEST SWAP1 POP DUP3 DUP2 MSTORE PUSH1 0x20 DUP2 ADD DUP5 DUP5 DUP5 ADD GT ISZERO PUSH2 0x469 JUMPI PUSH1 0x0 DUP1 REVERT JUMPDEST PUSH2 0x474 DUP5 DUP3 DUP6 PUSH2 0x72F JUMP JUMPDEST POP SWAP4 SWAP3 POP POP POP JUMP JUMPDEST PUSH1 0x0 DUP2 CALLDATALOAD SWAP1 POP PUSH2 0x48B DUP2 PUSH2 0x843 JUMP JUMPDEST SWAP3 SWAP2 POP POP JUMP JUMPDEST PUSH1 0x0 DUP3 PUSH1 0x1F DUP4 ADD SLT PUSH2 0x4A2 JUMPI PUSH1 0x0 DUP1 REVERT JUMPDEST DUP2 CALLDATALOAD PUSH2 0x4B2 DUP5 DUP3 PUSH1 0x20 DUP7 ADD PUSH2 0x43E JUMP JUMPDEST SWAP2 POP POP SWAP3 SWAP2 POP POP JUMP JUMPDEST PUSH1 0x0 DUP2 CALLDATALOAD SWAP1 POP PUSH2 0x4CA DUP2 PUSH2 0x85A JUMP JUMPDEST SWAP3 SWAP2 POP POP JUMP JUMPDEST PUSH1 0x0 PUSH1 0x20 DUP3 DUP5 SUB SLT ISZERO PUSH2 0x4E2 JUMPI PUSH1 0x0 DUP1 REVERT JUMPDEST PUSH1 0x0 PUSH2 0x4F0 DUP5 DUP3 DUP6 ADD PUSH2 0x47C JUMP JUMPDEST SWAP2 POP POP SWAP3 SWAP2 POP POP JUMP JUMPDEST PUSH1 0x0 PUSH1 0x20 DUP3 DUP5 SUB SLT ISZERO PUSH2 0x50B JUMPI PUSH1 0x0 DUP1 REVERT JUMPDEST PUSH1 0x0 DUP3 ADD CALLDATALOAD PUSH8 0xFFFFFFFFFFFFFFFF DUP2 GT ISZERO PUSH2 0x525 JUMPI PUSH1 0x0 DUP1 REVERT JUMPDEST PUSH2 0x531 DUP5 DUP3 DUP6 ADD PUSH2 0x491 JUMP JUMPDEST SWAP2 POP POP SWAP3 SWAP2 POP POP JUMP JUMPDEST PUSH1 0x0 PUSH1 0x20 DUP3 DUP5 SUB SLT ISZERO PUSH2 0x54C JUMPI PUSH1 0x0 DUP1 REVERT JUMPDEST PUSH1 0x0 PUSH2 0x55A DUP5 DUP3 DUP6 ADD PUSH2 0x4BB JUMP JUMPDEST SWAP2 POP POP SWAP3 SWAP2 POP POP JUMP JUMPDEST PUSH1 0x0 DUP1 PUSH1 0x0 PUSH1 0x60 DUP5 DUP7 SUB SLT ISZERO PUSH2 0x578 JUMPI PUSH1 0x0 DUP1 REVERT JUMPDEST PUSH1 0x0 PUSH2 0x586 DUP7 DUP3 DUP8 ADD PUSH2 0x4BB JUMP JUMPDEST SWAP4 POP POP PUSH1 0x20 DUP5 ADD CALLDATALOAD PUSH8 0xFFFFFFFFFFFFFFFF DUP2 GT ISZERO PUSH2 0x5A3 JUMPI PUSH1 0x0 DUP1 REVERT JUMPDEST PUSH2 0x5AF DUP7 DUP3 DUP8 ADD PUSH2 0x491 JUMP JUMPDEST SWAP3 POP POP PUSH1 0x40 PUSH2 0x5C0 DUP7 DUP3 DUP8 ADD PUSH2 0x4BB JUMP JUMPDEST SWAP2 POP POP SWAP3 POP SWAP3 POP SWAP3 JUMP JUMPDEST PUSH2 0x5D3 DUP2 PUSH2 0x6F3 JUMP JUMPDEST DUP3 MSTORE POP POP JUMP JUMPDEST PUSH1 0x0 PUSH2 0x5E4 DUP3 PUSH2 0x6D7 JUMP JUMPDEST PUSH2 0x5EE DUP2 DUP6 PUSH2 0x6E2 JUMP JUMPDEST SWAP4 POP PUSH2 0x5FE DUP2 DUP6 PUSH1 0x20 DUP7 ADD PUSH2 0x73E JUMP JUMPDEST PUSH2 0x607 DUP2 PUSH2 0x832 JUMP JUMPDEST DUP5 ADD SWAP2 POP POP SWAP3 SWAP2 POP POP JUMP JUMPDEST PUSH2 0x61B DUP2 PUSH2 0x725 JUMP JUMPDEST DUP3 MSTORE POP POP JUMP JUMPDEST PUSH1 0x0 PUSH1 0x20 DUP3 ADD SWAP1 POP DUP2 DUP2 SUB PUSH1 0x0 DUP4 ADD MSTORE PUSH2 0x63B DUP2 DUP5 PUSH2 0x5D9 JUMP JUMPDEST SWAP1 POP SWAP3 SWAP2 POP POP JUMP JUMPDEST PUSH1 0x0 PUSH1 0x60 DUP3 ADD SWAP1 POP DUP2 DUP2 SUB PUSH1 0x0 DUP4 ADD MSTORE PUSH2 0x65D DUP2 DUP7 PUSH2 0x5D9 JUMP JUMPDEST SWAP1 POP PUSH2 0x66C PUSH1 0x20 DUP4 ADD DUP6 PUSH2 0x612 JUMP JUMPDEST PUSH2 0x679 PUSH1 0x40 DUP4 ADD DUP5 PUSH2 0x5CA JUMP JUMPDEST SWAP5 SWAP4 POP POP POP POP JUMP JUMPDEST PUSH1 0x0 PUSH2 0x68B PUSH2 0x69C JUMP JUMPDEST SWAP1 POP PUSH2 0x697 DUP3 DUP3 PUSH2 0x7A3 JUMP JUMPDEST SWAP2 SWAP1 POP JUMP JUMPDEST PUSH1 0x0 PUSH1 0x40 MLOAD SWAP1 POP SWAP1 JUMP JUMPDEST PUSH1 0x0 PUSH8 0xFFFFFFFFFFFFFFFF DUP3 GT ISZERO PUSH2 0x6C1 JUMPI PUSH2 0x6C0 PUSH2 0x803 JUMP JUMPDEST JUMPDEST PUSH2 0x6CA DUP3 PUSH2 0x832 JUMP JUMPDEST SWAP1 POP PUSH1 0x20 DUP2 ADD SWAP1 POP SWAP2 SWAP1 POP JUMP JUMPDEST PUSH1 0x0 DUP2 MLOAD SWAP1 POP SWAP2 SWAP1 POP JUMP JUMPDEST PUSH1 0x0 DUP3 DUP3 MSTORE PUSH1 0x20 DUP3 ADD SWAP1 POP SWAP3 SWAP2 POP POP JUMP JUMPDEST PUSH1 0x0 PUSH2 0x6FE DUP3 PUSH2 0x705 JUMP JUMPDEST SWAP1 POP SWAP2 SWAP1 POP JUMP JUMPDEST PUSH1 0x0 PUSH20 0xFFFFFFFFFFFFFFFFFFFFFFFFFFFFFFFFFFFFFFFF DUP3 AND SWAP1 POP SWAP2 SWAP1 POP JUMP JUMPDEST PUSH1 0x0 DUP2 SWAP1 POP SWAP2 SWAP1 POP JUMP JUMPDEST DUP3 DUP2 DUP4 CALLDATACOPY PUSH1 0x0 DUP4 DUP4 ADD MSTORE POP POP POP JUMP JUMPDEST PUSH1 0x0 JUMPDEST DUP4 DUP2 LT ISZERO PUSH2 0x75C JUMPI DUP1 DUP3 ADD MLOAD DUP2 DUP5 ADD MSTORE PUSH1 0x20 DUP2 ADD SWAP1 POP PUSH2 0x741 JUMP JUMPDEST DUP4 DUP2 GT ISZERO PUSH2 0x76B JUMPI PUSH1 0x0 DUP5 DUP5 ADD MSTORE JUMPDEST POP POP POP POP JUMP JUMPDEST PUSH1 0x0 PUSH1 0x2 DUP3 DIV SWAP1 POP PUSH1 0x1 DUP3 AND DUP1 PUSH2 0x789 JUMPI PUSH1 0x7F DUP3 AND SWAP2 POP JUMPDEST PUSH1 0x20 DUP3 LT DUP2 EQ ISZERO PUSH2 0x79D JUMPI PUSH2 0x79C PUSH2 0x7D4 JUMP JUMPDEST JUMPDEST POP SWAP2 SWAP1 POP JUMP JUMPDEST PUSH2 0x7AC DUP3 PUSH2 0x832 JUMP JUMPDEST DUP2 ADD DUP2 DUP2 LT PUSH8 0xFFFFFFFFFFFFFFFF DUP3 GT OR ISZERO PUSH2 0x7CB JUMPI PUSH2 0x7CA PUSH2 0x803 JUMP JUMPDEST JUMPDEST DUP1 PUSH1 0x40 MSTORE POP POP POP JUMP JUMPDEST PUSH32 0x4E487B7100000000000000000000000000000000000000000000000000000000 PUSH1 0x0 MSTORE PUSH1 0x22 PUSH1 0x4 MSTORE PUSH1 0x24 PUSH1 0x0 REVERT JUMPDEST PUSH32 0x4E487B7100000000000000000000000000000000000000000000000000000000 PUSH1 0x0 MSTORE PUSH1 0x41 PUSH1 0x4 MSTORE PUSH1 0x24 PUSH1 0x0 REVERT JUMPDEST PUSH1 0x0 PUSH1 0x1F NOT PUSH1 0x1F DUP4 ADD AND SWAP1 POP SWAP2 SWAP1 POP JUMP JUMPDEST PUSH2 0x84C DUP2 PUSH2 0x6F3 JUMP JUMPDEST DUP2 EQ PUSH2 0x857 JUMPI PUSH1 0x0 DUP1 REVERT JUMPDEST POP JUMP JUMPDEST PUSH2 0x863 DUP2 PUSH2 0x725 JUMP JUMPDEST DUP2 EQ PUSH2 0x86E JUMPI PUSH1 0x0 DUP1 REVERT JUMPDEST POP JUMP INVALID LOG2 PUSH5 0x6970667358 0x22 SLT KECCAK256 0x4E 0xB7 0x5D 0x4B CODECOPY LOG0 CALLDATACOPY PUSH25 0x47BF6598E64C124569BD9916308724B2DCD48E437CBCFDC864 PUSH20 0x6F6C634300080100330000000000000000000000 "
				},
				"gasEstimates": {
					"creation": {
						"codeDepositCost": "443000",
						"executionCost": "480",
						"totalCost": "443480"
					},
					"external": {
						"Assets(uint256)": "infinite",
						"Bidding()": "144",
						"Result()": "232",
						"Users(address)": "infinite",
						"addAsset(uint256,string,uint256)": "infinite",
						"addUser(string)": "infinite"
					}
				},
				"methodIdentifiers": {
					"Assets(uint256)": "4b4a80ba",
					"Bidding()": "3e8a0585",
					"Result()": "f4e5d599",
					"Users(address)": "99b956a0",
					"addAsset(uint256,string,uint256)": "e783080c",
					"addUser(string)": "18b8275a"
				}
			},
			"storageLayout": {
				"storage": [
					{
						"astId": 12,
						"contract": "Auction.sol:Auction",
						"label": "Users",
						"offset": 0,
						"slot": "0",
						"type": "t_mapping(t_address,t_string_storage)"
					},
					{
						"astId": 17,
						"contract": "Auction.sol:Auction",
						"label": "Assets",
						"offset": 0,
						"slot": "1",
						"type": "t_mapping(t_uint256,t_struct(Asset)8_storage)"
					}
				],
				"types": {
					"t_address": {
						"encoding": "inplace",
						"label": "address",
						"numberOfBytes": "20"
					},
					"t_mapping(t_address,t_string_storage)": {
						"encoding": "mapping",
						"key": "t_address",
						"label": "mapping(address => string)",
						"numberOfBytes": "32",
						"value": "t_string_storage"
					},
					"t_mapping(t_uint256,t_struct(Asset)8_storage)": {
						"encoding": "mapping",
						"key": "t_uint256",
						"label": "mapping(uint256 => struct Auction.Asset)",
						"numberOfBytes": "32",
						"value": "t_struct(Asset)8_storage"
					},
					"t_string_storage": {
						"encoding": "bytes",
						"label": "string",
						"numberOfBytes": "32"
					},
					"t_struct(Asset)8_storage": {
						"encoding": "inplace",
						"label": "struct Auction.Asset",
						"members": [
							{
								"astId": 3,
								"contract": "Auction.sol:Auction",
								"label": "AssetName",
								"offset": 0,
								"slot": "0",
								"type": "t_string_storage"
							},
							{
								"astId": 5,
								"contract": "Auction.sol:Auction",
								"label": "AssetSP",
								"offset": 0,
								"slot": "1",
								"type": "t_uint256"
							},
							{
								"astId": 7,
								"contract": "Auction.sol:Auction",
								"label": "Owner",
								"offset": 0,
								"slot": "2",
								"type": "t_address"
							}
						],
						"numberOfBytes": "96"
					},
					"t_uint256": {
						"encoding": "inplace",
						"label": "uint256",
						"numberOfBytes": "32"
					}
				}
			},
			"userdoc": {
				"kind": "user",
				"methods": {},
				"version": 1
			}
		}
	}
}