{
	"Auction.sol": {
		"Auction": {
			"abi": [
				{
					"inputs": [
						{
							"internalType": "uint256",
							"name": "",
							"type": "uint256"
						},
						{
							"internalType": "uint256",
							"name": "",
							"type": "uint256"
						}
					],
					"name": "Assets",
					"outputs": [
						{
							"internalType": "string",
							"name": "",
							"type": "string"
						}
					],
					"stateMutability": "view",
					"type": "function"
				},
				{
					"inputs": [
						{
							"internalType": "uint256",
							"name": "",
							"type": "uint256"
						}
					],
					"name": "Users",
					"outputs": [
						{
							"internalType": "string",
							"name": "",
							"type": "string"
						}
					],
					"stateMutability": "view",
					"type": "function"
				},
				{
					"inputs": [
						{
							"internalType": "uint256",
							"name": "UId",
							"type": "uint256"
						},
						{
							"internalType": "string",
							"name": "Nme",
							"type": "string"
						}
					],
					"name": "addUser",
					"outputs": [],
					"stateMutability": "nonpayable",
					"type": "function"
				}
			],
			"devdoc": {
				"kind": "dev",
				"methods": {},
				"version": 1
			},
			"evm": {
				"assembly": "    /* \"Auction.sol\":65:527  contract Auction {\r... */\n  mstore(0x40, 0x80)\n  callvalue\n  dup1\n  iszero\n  tag_1\n  jumpi\n  0x00\n  dup1\n  revert\ntag_1:\n  pop\n  dataSize(sub_0)\n  dup1\n  dataOffset(sub_0)\n  0x00\n  codecopy\n  0x00\n  return\nstop\n\nsub_0: assembly {\n        /* \"Auction.sol\":65:527  contract Auction {\r... */\n      mstore(0x40, 0x80)\n      callvalue\n      dup1\n      iszero\n      tag_1\n      jumpi\n      0x00\n      dup1\n      revert\n    tag_1:\n      pop\n      jumpi(tag_2, lt(calldatasize, 0x04))\n      shr(0xe0, calldataload(0x00))\n      dup1\n      0x1e98fd1c\n      eq\n      tag_3\n      jumpi\n      dup1\n      0x23c674af\n      eq\n      tag_4\n      jumpi\n      dup1\n      0xd51af2bf\n      eq\n      tag_5\n      jumpi\n    tag_2:\n      0x00\n      dup1\n      revert\n        /* \"Auction.sol\":95:131  mapping(uint => string) public Users */\n    tag_3:\n      tag_6\n      0x04\n      dup1\n      calldatasize\n      sub\n      dup2\n      add\n      swap1\n      tag_7\n      swap2\n      swap1\n      tag_8\n      jump\t// in\n    tag_7:\n      tag_9\n      jump\t// in\n    tag_6:\n      mload(0x40)\n      tag_10\n      swap2\n      swap1\n      tag_11\n      jump\t// in\n    tag_10:\n      mload(0x40)\n      dup1\n      swap2\n      sub\n      swap1\n      return\n        /* \"Auction.sol\":138:177  mapping(uint => string[]) public Assets */\n    tag_4:\n      tag_12\n      0x04\n      dup1\n      calldatasize\n      sub\n      dup2\n      add\n      swap1\n      tag_13\n      swap2\n      swap1\n      tag_14\n      jump\t// in\n    tag_13:\n      tag_15\n      jump\t// in\n    tag_12:\n      mload(0x40)\n      tag_16\n      swap2\n      swap1\n      tag_11\n      jump\t// in\n    tag_16:\n      mload(0x40)\n      dup1\n      swap2\n      sub\n      swap1\n      return\n        /* \"Auction.sol\":186:274  function addUser(uint UId, string memory Nme) public {\r... */\n    tag_5:\n      tag_17\n      0x04\n      dup1\n      calldatasize\n      sub\n      dup2\n      add\n      swap1\n      tag_18\n      swap2\n      swap1\n      tag_19\n      jump\t// in\n    tag_18:\n      tag_20\n      jump\t// in\n    tag_17:\n      stop\n        /* \"Auction.sol\":95:131  mapping(uint => string) public Users */\n    tag_9:\n      mstore(0x20, 0x00)\n      dup1\n      0x00\n      mstore\n      keccak256(0x00, 0x40)\n      0x00\n      swap2\n      pop\n      swap1\n      pop\n      dup1\n      sload\n      tag_21\n      swap1\n      tag_22\n      jump\t// in\n    tag_21:\n      dup1\n      0x1f\n      add\n      0x20\n      dup1\n      swap2\n      div\n      mul\n      0x20\n      add\n      mload(0x40)\n      swap1\n      dup2\n      add\n      0x40\n      mstore\n      dup1\n      swap3\n      swap2\n      swap1\n      dup2\n      dup2\n      mstore\n      0x20\n      add\n      dup3\n      dup1\n      sload\n      tag_23\n      swap1\n      tag_22\n      jump\t// in\n    tag_23:\n      dup1\n      iszero\n      tag_24\n      jumpi\n      dup1\n      0x1f\n      lt\n      tag_25\n      jumpi\n      0x0100\n      dup1\n      dup4\n      sload\n      div\n      mul\n      dup4\n      mstore\n      swap2\n      0x20\n      add\n      swap2\n      jump(tag_24)\n    tag_25:\n      dup3\n      add\n      swap2\n      swap1\n      0x00\n      mstore\n      keccak256(0x00, 0x20)\n      swap1\n    tag_26:\n      dup2\n      sload\n      dup2\n      mstore\n      swap1\n      0x01\n      add\n      swap1\n      0x20\n      add\n      dup1\n      dup4\n      gt\n      tag_26\n      jumpi\n      dup3\n      swap1\n      sub\n      0x1f\n      and\n      dup3\n      add\n      swap2\n    tag_24:\n      pop\n      pop\n      pop\n      pop\n      pop\n      dup2\n      jump\t// out\n        /* \"Auction.sol\":138:177  mapping(uint => string[]) public Assets */\n    tag_15:\n      mstore(0x20, 0x01)\n      dup2\n      0x00\n      mstore\n      keccak256(0x00, 0x40)\n      dup2\n      dup2\n      sload\n      dup2\n      lt\n      tag_27\n      jumpi\n      0x00\n      dup1\n      revert\n    tag_27:\n      swap1\n      0x00\n      mstore\n      keccak256(0x00, 0x20)\n      add\n      0x00\n      swap2\n      pop\n      swap2\n      pop\n      pop\n      dup1\n      sload\n      tag_29\n      swap1\n      tag_22\n      jump\t// in\n    tag_29:\n      dup1\n      0x1f\n      add\n      0x20\n      dup1\n      swap2\n      div\n      mul\n      0x20\n      add\n      mload(0x40)\n      swap1\n      dup2\n      add\n      0x40\n      mstore\n      dup1\n      swap3\n      swap2\n      swap1\n      dup2\n      dup2\n      mstore\n      0x20\n      add\n      dup3\n      dup1\n      sload\n      tag_30\n      swap1\n      tag_22\n      jump\t// in\n    tag_30:\n      dup1\n      iszero\n      tag_31\n      jumpi\n      dup1\n      0x1f\n      lt\n      tag_32\n      jumpi\n      0x0100\n      dup1\n      dup4\n      sload\n      div\n      mul\n      dup4\n      mstore\n      swap2\n      0x20\n      add\n      swap2\n      jump(tag_31)\n    tag_32:\n      dup3\n      add\n      swap2\n      swap1\n      0x00\n      mstore\n      keccak256(0x00, 0x20)\n      swap1\n    tag_33:\n      dup2\n      sload\n      dup2\n      mstore\n      swap1\n      0x01\n      add\n      swap1\n      0x20\n      add\n      dup1\n      dup4\n      gt\n      tag_33\n      jumpi\n      dup3\n      swap1\n      sub\n      0x1f\n      and\n      dup3\n      add\n      swap2\n    tag_31:\n      pop\n      pop\n      pop\n      pop\n      pop\n      dup2\n      jump\t// out\n        /* \"Auction.sol\":186:274  function addUser(uint UId, string memory Nme) public {\r... */\n    tag_20:\n        /* \"Auction.sol\":263:266  Nme */\n      dup1\n        /* \"Auction.sol\":250:255  Users */\n      0x00\n        /* \"Auction.sol\":250:260  Users[UId] */\n      dup1\n        /* \"Auction.sol\":256:259  UId */\n      dup5\n        /* \"Auction.sol\":250:260  Users[UId] */\n      dup2\n      mstore\n      0x20\n      add\n      swap1\n      dup2\n      mstore\n      0x20\n      add\n      0x00\n      keccak256\n        /* \"Auction.sol\":250:266  Users[UId] = Nme */\n      swap1\n      dup1\n      mload\n      swap1\n      0x20\n      add\n      swap1\n      tag_35\n      swap3\n      swap2\n      swap1\n      tag_36\n      jump\t// in\n    tag_35:\n      pop\n        /* \"Auction.sol\":186:274  function addUser(uint UId, string memory Nme) public {\r... */\n      pop\n      pop\n      jump\t// out\n    tag_36:\n      dup3\n      dup1\n      sload\n      tag_37\n      swap1\n      tag_22\n      jump\t// in\n    tag_37:\n      swap1\n      0x00\n      mstore\n      keccak256(0x00, 0x20)\n      swap1\n      0x1f\n      add\n      0x20\n      swap1\n      div\n      dup2\n      add\n      swap3\n      dup3\n      tag_39\n      jumpi\n      0x00\n      dup6\n      sstore\n      jump(tag_38)\n    tag_39:\n      dup3\n      0x1f\n      lt\n      tag_40\n      jumpi\n      dup1\n      mload\n      not(0xff)\n      and\n      dup4\n      dup1\n      add\n      or\n      dup6\n      sstore\n      jump(tag_38)\n    tag_40:\n      dup3\n      dup1\n      add\n      0x01\n      add\n      dup6\n      sstore\n      dup3\n      iszero\n      tag_38\n      jumpi\n      swap2\n      dup3\n      add\n    tag_41:\n      dup3\n      dup2\n      gt\n      iszero\n      tag_42\n      jumpi\n      dup3\n      mload\n      dup3\n      sstore\n      swap2\n      0x20\n      add\n      swap2\n      swap1\n      0x01\n      add\n      swap1\n      jump(tag_41)\n    tag_42:\n    tag_38:\n      pop\n      swap1\n      pop\n      tag_43\n      swap2\n      swap1\n      tag_44\n      jump\t// in\n    tag_43:\n      pop\n      swap1\n      jump\t// out\n    tag_44:\n    tag_45:\n      dup1\n      dup3\n      gt\n      iszero\n      tag_46\n      jumpi\n      0x00\n      dup2\n      0x00\n      swap1\n      sstore\n      pop\n      0x01\n      add\n      jump(tag_45)\n    tag_46:\n      pop\n      swap1\n      jump\t// out\n        /* \"#utility.yul\":7:352   */\n    tag_48:\n      0x00\n        /* \"#utility.yul\":110:176   */\n      tag_50\n        /* \"#utility.yul\":126:175   */\n      tag_51\n        /* \"#utility.yul\":168:174   */\n      dup5\n        /* \"#utility.yul\":126:175   */\n      tag_52\n      jump\t// in\n    tag_51:\n        /* \"#utility.yul\":110:176   */\n      tag_53\n      jump\t// in\n    tag_50:\n        /* \"#utility.yul\":101:176   */\n      swap1\n      pop\n        /* \"#utility.yul\":199:205   */\n      dup3\n        /* \"#utility.yul\":192:197   */\n      dup2\n        /* \"#utility.yul\":185:206   */\n      mstore\n        /* \"#utility.yul\":237:241   */\n      0x20\n        /* \"#utility.yul\":230:235   */\n      dup2\n        /* \"#utility.yul\":226:242   */\n      add\n        /* \"#utility.yul\":275:278   */\n      dup5\n        /* \"#utility.yul\":266:272   */\n      dup5\n        /* \"#utility.yul\":261:264   */\n      dup5\n        /* \"#utility.yul\":257:273   */\n      add\n        /* \"#utility.yul\":254:279   */\n      gt\n        /* \"#utility.yul\":251:253   */\n      iszero\n      tag_54\n      jumpi\n        /* \"#utility.yul\":292:293   */\n      0x00\n        /* \"#utility.yul\":289:290   */\n      dup1\n        /* \"#utility.yul\":282:294   */\n      revert\n        /* \"#utility.yul\":251:253   */\n    tag_54:\n        /* \"#utility.yul\":305:346   */\n      tag_55\n        /* \"#utility.yul\":339:345   */\n      dup5\n        /* \"#utility.yul\":334:337   */\n      dup3\n        /* \"#utility.yul\":329:332   */\n      dup6\n        /* \"#utility.yul\":305:346   */\n      tag_56\n      jump\t// in\n    tag_55:\n        /* \"#utility.yul\":91:352   */\n      pop\n      swap4\n      swap3\n      pop\n      pop\n      pop\n      jump\t// out\n        /* \"#utility.yul\":372:645   */\n    tag_57:\n      0x00\n        /* \"#utility.yul\":477:480   */\n      dup3\n        /* \"#utility.yul\":470:474   */\n      0x1f\n        /* \"#utility.yul\":462:468   */\n      dup4\n        /* \"#utility.yul\":458:475   */\n      add\n        /* \"#utility.yul\":454:481   */\n      slt\n        /* \"#utility.yul\":444:446   */\n      tag_59\n      jumpi\n        /* \"#utility.yul\":495:496   */\n      0x00\n        /* \"#utility.yul\":492:493   */\n      dup1\n        /* \"#utility.yul\":485:497   */\n      revert\n        /* \"#utility.yul\":444:446   */\n    tag_59:\n        /* \"#utility.yul\":535:541   */\n      dup2\n        /* \"#utility.yul\":522:542   */\n      calldataload\n        /* \"#utility.yul\":560:639   */\n      tag_60\n        /* \"#utility.yul\":635:638   */\n      dup5\n        /* \"#utility.yul\":627:633   */\n      dup3\n        /* \"#utility.yul\":620:624   */\n      0x20\n        /* \"#utility.yul\":612:618   */\n      dup7\n        /* \"#utility.yul\":608:625   */\n      add\n        /* \"#utility.yul\":560:639   */\n      tag_48\n      jump\t// in\n    tag_60:\n        /* \"#utility.yul\":551:639   */\n      swap2\n      pop\n        /* \"#utility.yul\":434:645   */\n      pop\n      swap3\n      swap2\n      pop\n      pop\n      jump\t// out\n        /* \"#utility.yul\":651:790   */\n    tag_61:\n      0x00\n        /* \"#utility.yul\":735:741   */\n      dup2\n        /* \"#utility.yul\":722:742   */\n      calldataload\n        /* \"#utility.yul\":713:742   */\n      swap1\n      pop\n        /* \"#utility.yul\":751:784   */\n      tag_63\n        /* \"#utility.yul\":778:783   */\n      dup2\n        /* \"#utility.yul\":751:784   */\n      tag_64\n      jump\t// in\n    tag_63:\n        /* \"#utility.yul\":703:790   */\n      swap3\n      swap2\n      pop\n      pop\n      jump\t// out\n        /* \"#utility.yul\":796:1058   */\n    tag_8:\n      0x00\n        /* \"#utility.yul\":904:906   */\n      0x20\n        /* \"#utility.yul\":892:901   */\n      dup3\n        /* \"#utility.yul\":883:890   */\n      dup5\n        /* \"#utility.yul\":879:902   */\n      sub\n        /* \"#utility.yul\":875:907   */\n      slt\n        /* \"#utility.yul\":872:874   */\n      iszero\n      tag_66\n      jumpi\n        /* \"#utility.yul\":920:921   */\n      0x00\n        /* \"#utility.yul\":917:918   */\n      dup1\n        /* \"#utility.yul\":910:922   */\n      revert\n        /* \"#utility.yul\":872:874   */\n    tag_66:\n        /* \"#utility.yul\":963:964   */\n      0x00\n        /* \"#utility.yul\":988:1041   */\n      tag_67\n        /* \"#utility.yul\":1033:1040   */\n      dup5\n        /* \"#utility.yul\":1024:1030   */\n      dup3\n        /* \"#utility.yul\":1013:1022   */\n      dup6\n        /* \"#utility.yul\":1009:1031   */\n      add\n        /* \"#utility.yul\":988:1041   */\n      tag_61\n      jump\t// in\n    tag_67:\n        /* \"#utility.yul\":978:1041   */\n      swap2\n      pop\n        /* \"#utility.yul\":934:1051   */\n      pop\n        /* \"#utility.yul\":862:1058   */\n      swap3\n      swap2\n      pop\n      pop\n      jump\t// out\n        /* \"#utility.yul\":1064:1584   */\n    tag_19:\n      0x00\n      dup1\n        /* \"#utility.yul\":1199:1201   */\n      0x40\n        /* \"#utility.yul\":1187:1196   */\n      dup4\n        /* \"#utility.yul\":1178:1185   */\n      dup6\n        /* \"#utility.yul\":1174:1197   */\n      sub\n        /* \"#utility.yul\":1170:1202   */\n      slt\n        /* \"#utility.yul\":1167:1169   */\n      iszero\n      tag_69\n      jumpi\n        /* \"#utility.yul\":1215:1216   */\n      0x00\n        /* \"#utility.yul\":1212:1213   */\n      dup1\n        /* \"#utility.yul\":1205:1217   */\n      revert\n        /* \"#utility.yul\":1167:1169   */\n    tag_69:\n        /* \"#utility.yul\":1258:1259   */\n      0x00\n        /* \"#utility.yul\":1283:1336   */\n      tag_70\n        /* \"#utility.yul\":1328:1335   */\n      dup6\n        /* \"#utility.yul\":1319:1325   */\n      dup3\n        /* \"#utility.yul\":1308:1317   */\n      dup7\n        /* \"#utility.yul\":1304:1326   */\n      add\n        /* \"#utility.yul\":1283:1336   */\n      tag_61\n      jump\t// in\n    tag_70:\n        /* \"#utility.yul\":1273:1336   */\n      swap3\n      pop\n        /* \"#utility.yul\":1229:1346   */\n      pop\n        /* \"#utility.yul\":1413:1415   */\n      0x20\n        /* \"#utility.yul\":1402:1411   */\n      dup4\n        /* \"#utility.yul\":1398:1416   */\n      add\n        /* \"#utility.yul\":1385:1417   */\n      calldataload\n        /* \"#utility.yul\":1444:1462   */\n      0xffffffffffffffff\n        /* \"#utility.yul\":1436:1442   */\n      dup2\n        /* \"#utility.yul\":1433:1463   */\n      gt\n        /* \"#utility.yul\":1430:1432   */\n      iszero\n      tag_71\n      jumpi\n        /* \"#utility.yul\":1476:1477   */\n      0x00\n        /* \"#utility.yul\":1473:1474   */\n      dup1\n        /* \"#utility.yul\":1466:1478   */\n      revert\n        /* \"#utility.yul\":1430:1432   */\n    tag_71:\n        /* \"#utility.yul\":1504:1567   */\n      tag_72\n        /* \"#utility.yul\":1559:1566   */\n      dup6\n        /* \"#utility.yul\":1550:1556   */\n      dup3\n        /* \"#utility.yul\":1539:1548   */\n      dup7\n        /* \"#utility.yul\":1535:1557   */\n      add\n        /* \"#utility.yul\":1504:1567   */\n      tag_57\n      jump\t// in\n    tag_72:\n        /* \"#utility.yul\":1494:1567   */\n      swap2\n      pop\n        /* \"#utility.yul\":1356:1577   */\n      pop\n        /* \"#utility.yul\":1157:1584   */\n      swap3\n      pop\n      swap3\n      swap1\n      pop\n      jump\t// out\n        /* \"#utility.yul\":1590:1997   */\n    tag_14:\n      0x00\n      dup1\n        /* \"#utility.yul\":1715:1717   */\n      0x40\n        /* \"#utility.yul\":1703:1712   */\n      dup4\n        /* \"#utility.yul\":1694:1701   */\n      dup6\n        /* \"#utility.yul\":1690:1713   */\n      sub\n        /* \"#utility.yul\":1686:1718   */\n      slt\n        /* \"#utility.yul\":1683:1685   */\n      iszero\n      tag_74\n      jumpi\n        /* \"#utility.yul\":1731:1732   */\n      0x00\n        /* \"#utility.yul\":1728:1729   */\n      dup1\n        /* \"#utility.yul\":1721:1733   */\n      revert\n        /* \"#utility.yul\":1683:1685   */\n    tag_74:\n        /* \"#utility.yul\":1774:1775   */\n      0x00\n        /* \"#utility.yul\":1799:1852   */\n      tag_75\n        /* \"#utility.yul\":1844:1851   */\n      dup6\n        /* \"#utility.yul\":1835:1841   */\n      dup3\n        /* \"#utility.yul\":1824:1833   */\n      dup7\n        /* \"#utility.yul\":1820:1842   */\n      add\n        /* \"#utility.yul\":1799:1852   */\n      tag_61\n      jump\t// in\n    tag_75:\n        /* \"#utility.yul\":1789:1852   */\n      swap3\n      pop\n        /* \"#utility.yul\":1745:1862   */\n      pop\n        /* \"#utility.yul\":1901:1903   */\n      0x20\n        /* \"#utility.yul\":1927:1980   */\n      tag_76\n        /* \"#utility.yul\":1972:1979   */\n      dup6\n        /* \"#utility.yul\":1963:1969   */\n      dup3\n        /* \"#utility.yul\":1952:1961   */\n      dup7\n        /* \"#utility.yul\":1948:1970   */\n      add\n        /* \"#utility.yul\":1927:1980   */\n      tag_61\n      jump\t// in\n    tag_76:\n        /* \"#utility.yul\":1917:1980   */\n      swap2\n      pop\n        /* \"#utility.yul\":1872:1990   */\n      pop\n        /* \"#utility.yul\":1673:1997   */\n      swap3\n      pop\n      swap3\n      swap1\n      pop\n      jump\t// out\n        /* \"#utility.yul\":2003:2367   */\n    tag_77:\n      0x00\n        /* \"#utility.yul\":2119:2158   */\n      tag_79\n        /* \"#utility.yul\":2152:2157   */\n      dup3\n        /* \"#utility.yul\":2119:2158   */\n      tag_80\n      jump\t// in\n    tag_79:\n        /* \"#utility.yul\":2174:2245   */\n      tag_81\n        /* \"#utility.yul\":2238:2244   */\n      dup2\n        /* \"#utility.yul\":2233:2236   */\n      dup6\n        /* \"#utility.yul\":2174:2245   */\n      tag_82\n      jump\t// in\n    tag_81:\n        /* \"#utility.yul\":2167:2245   */\n      swap4\n      pop\n        /* \"#utility.yul\":2254:2306   */\n      tag_83\n        /* \"#utility.yul\":2299:2305   */\n      dup2\n        /* \"#utility.yul\":2294:2297   */\n      dup6\n        /* \"#utility.yul\":2287:2291   */\n      0x20\n        /* \"#utility.yul\":2280:2285   */\n      dup7\n        /* \"#utility.yul\":2276:2292   */\n      add\n        /* \"#utility.yul\":2254:2306   */\n      tag_84\n      jump\t// in\n    tag_83:\n        /* \"#utility.yul\":2331:2360   */\n      tag_85\n        /* \"#utility.yul\":2353:2359   */\n      dup2\n        /* \"#utility.yul\":2331:2360   */\n      tag_86\n      jump\t// in\n    tag_85:\n        /* \"#utility.yul\":2326:2329   */\n      dup5\n        /* \"#utility.yul\":2322:2361   */\n      add\n        /* \"#utility.yul\":2315:2361   */\n      swap2\n      pop\n        /* \"#utility.yul\":2095:2367   */\n      pop\n      swap3\n      swap2\n      pop\n      pop\n      jump\t// out\n        /* \"#utility.yul\":2373:2686   */\n    tag_11:\n      0x00\n        /* \"#utility.yul\":2524:2526   */\n      0x20\n        /* \"#utility.yul\":2513:2522   */\n      dup3\n        /* \"#utility.yul\":2509:2527   */\n      add\n        /* \"#utility.yul\":2501:2527   */\n      swap1\n      pop\n        /* \"#utility.yul\":2573:2582   */\n      dup2\n        /* \"#utility.yul\":2567:2571   */\n      dup2\n        /* \"#utility.yul\":2563:2583   */\n      sub\n        /* \"#utility.yul\":2559:2560   */\n      0x00\n        /* \"#utility.yul\":2548:2557   */\n      dup4\n        /* \"#utility.yul\":2544:2561   */\n      add\n        /* \"#utility.yul\":2537:2584   */\n      mstore\n        /* \"#utility.yul\":2601:2679   */\n      tag_88\n        /* \"#utility.yul\":2674:2678   */\n      dup2\n        /* \"#utility.yul\":2665:2671   */\n      dup5\n        /* \"#utility.yul\":2601:2679   */\n      tag_77\n      jump\t// in\n    tag_88:\n        /* \"#utility.yul\":2593:2679   */\n      swap1\n      pop\n        /* \"#utility.yul\":2491:2686   */\n      swap3\n      swap2\n      pop\n      pop\n      jump\t// out\n        /* \"#utility.yul\":2692:2821   */\n    tag_53:\n      0x00\n        /* \"#utility.yul\":2753:2773   */\n      tag_90\n      tag_91\n      jump\t// in\n    tag_90:\n        /* \"#utility.yul\":2743:2773   */\n      swap1\n      pop\n        /* \"#utility.yul\":2782:2815   */\n      tag_92\n        /* \"#utility.yul\":2810:2814   */\n      dup3\n        /* \"#utility.yul\":2802:2808   */\n      dup3\n        /* \"#utility.yul\":2782:2815   */\n      tag_93\n      jump\t// in\n    tag_92:\n        /* \"#utility.yul\":2733:2821   */\n      swap2\n      swap1\n      pop\n      jump\t// out\n        /* \"#utility.yul\":2827:2902   */\n    tag_91:\n      0x00\n        /* \"#utility.yul\":2893:2895   */\n      0x40\n        /* \"#utility.yul\":2887:2896   */\n      mload\n        /* \"#utility.yul\":2877:2896   */\n      swap1\n      pop\n        /* \"#utility.yul\":2867:2902   */\n      swap1\n      jump\t// out\n        /* \"#utility.yul\":2908:3216   */\n    tag_52:\n      0x00\n        /* \"#utility.yul\":3060:3078   */\n      0xffffffffffffffff\n        /* \"#utility.yul\":3052:3058   */\n      dup3\n        /* \"#utility.yul\":3049:3079   */\n      gt\n        /* \"#utility.yul\":3046:3048   */\n      iszero\n      tag_96\n      jumpi\n        /* \"#utility.yul\":3082:3100   */\n      tag_97\n      tag_98\n      jump\t// in\n    tag_97:\n        /* \"#utility.yul\":3046:3048   */\n    tag_96:\n        /* \"#utility.yul\":3120:3149   */\n      tag_99\n        /* \"#utility.yul\":3142:3148   */\n      dup3\n        /* \"#utility.yul\":3120:3149   */\n      tag_86\n      jump\t// in\n    tag_99:\n        /* \"#utility.yul\":3112:3149   */\n      swap1\n      pop\n        /* \"#utility.yul\":3204:3208   */\n      0x20\n        /* \"#utility.yul\":3198:3202   */\n      dup2\n        /* \"#utility.yul\":3194:3209   */\n      add\n        /* \"#utility.yul\":3186:3209   */\n      swap1\n      pop\n        /* \"#utility.yul\":2975:3216   */\n      swap2\n      swap1\n      pop\n      jump\t// out\n        /* \"#utility.yul\":3222:3321   */\n    tag_80:\n      0x00\n        /* \"#utility.yul\":3308:3313   */\n      dup2\n        /* \"#utility.yul\":3302:3314   */\n      mload\n        /* \"#utility.yul\":3292:3314   */\n      swap1\n      pop\n        /* \"#utility.yul\":3281:3321   */\n      swap2\n      swap1\n      pop\n      jump\t// out\n        /* \"#utility.yul\":3327:3496   */\n    tag_82:\n      0x00\n        /* \"#utility.yul\":3445:3451   */\n      dup3\n        /* \"#utility.yul\":3440:3443   */\n      dup3\n        /* \"#utility.yul\":3433:3452   */\n      mstore\n        /* \"#utility.yul\":3485:3489   */\n      0x20\n        /* \"#utility.yul\":3480:3483   */\n      dup3\n        /* \"#utility.yul\":3476:3490   */\n      add\n        /* \"#utility.yul\":3461:3490   */\n      swap1\n      pop\n        /* \"#utility.yul\":3423:3496   */\n      swap3\n      swap2\n      pop\n      pop\n      jump\t// out\n        /* \"#utility.yul\":3502:3579   */\n    tag_102:\n      0x00\n        /* \"#utility.yul\":3568:3573   */\n      dup2\n        /* \"#utility.yul\":3557:3573   */\n      swap1\n      pop\n        /* \"#utility.yul\":3547:3579   */\n      swap2\n      swap1\n      pop\n      jump\t// out\n        /* \"#utility.yul\":3585:3739   */\n    tag_56:\n        /* \"#utility.yul\":3669:3675   */\n      dup3\n        /* \"#utility.yul\":3664:3667   */\n      dup2\n        /* \"#utility.yul\":3659:3662   */\n      dup4\n        /* \"#utility.yul\":3646:3676   */\n      calldatacopy\n        /* \"#utility.yul\":3731:3732   */\n      0x00\n        /* \"#utility.yul\":3722:3728   */\n      dup4\n        /* \"#utility.yul\":3717:3720   */\n      dup4\n        /* \"#utility.yul\":3713:3729   */\n      add\n        /* \"#utility.yul\":3706:3733   */\n      mstore\n        /* \"#utility.yul\":3636:3739   */\n      pop\n      pop\n      pop\n      jump\t// out\n        /* \"#utility.yul\":3745:4052   */\n    tag_84:\n        /* \"#utility.yul\":3813:3814   */\n      0x00\n        /* \"#utility.yul\":3823:3936   */\n    tag_106:\n        /* \"#utility.yul\":3837:3843   */\n      dup4\n        /* \"#utility.yul\":3834:3835   */\n      dup2\n        /* \"#utility.yul\":3831:3844   */\n      lt\n        /* \"#utility.yul\":3823:3936   */\n      iszero\n      tag_108\n      jumpi\n        /* \"#utility.yul\":3922:3923   */\n      dup1\n        /* \"#utility.yul\":3917:3920   */\n      dup3\n        /* \"#utility.yul\":3913:3924   */\n      add\n        /* \"#utility.yul\":3907:3925   */\n      mload\n        /* \"#utility.yul\":3903:3904   */\n      dup2\n        /* \"#utility.yul\":3898:3901   */\n      dup5\n        /* \"#utility.yul\":3894:3905   */\n      add\n        /* \"#utility.yul\":3887:3926   */\n      mstore\n        /* \"#utility.yul\":3859:3861   */\n      0x20\n        /* \"#utility.yul\":3856:3857   */\n      dup2\n        /* \"#utility.yul\":3852:3862   */\n      add\n        /* \"#utility.yul\":3847:3862   */\n      swap1\n      pop\n        /* \"#utility.yul\":3823:3936   */\n      jump(tag_106)\n    tag_108:\n        /* \"#utility.yul\":3954:3960   */\n      dup4\n        /* \"#utility.yul\":3951:3952   */\n      dup2\n        /* \"#utility.yul\":3948:3961   */\n      gt\n        /* \"#utility.yul\":3945:3947   */\n      iszero\n      tag_109\n      jumpi\n        /* \"#utility.yul\":4034:4035   */\n      0x00\n        /* \"#utility.yul\":4025:4031   */\n      dup5\n        /* \"#utility.yul\":4020:4023   */\n      dup5\n        /* \"#utility.yul\":4016:4032   */\n      add\n        /* \"#utility.yul\":4009:4036   */\n      mstore\n        /* \"#utility.yul\":3945:3947   */\n    tag_109:\n        /* \"#utility.yul\":3794:4052   */\n      pop\n      pop\n      pop\n      pop\n      jump\t// out\n        /* \"#utility.yul\":4058:4378   */\n    tag_22:\n      0x00\n        /* \"#utility.yul\":4139:4140   */\n      0x02\n        /* \"#utility.yul\":4133:4137   */\n      dup3\n        /* \"#utility.yul\":4129:4141   */\n      div\n        /* \"#utility.yul\":4119:4141   */\n      swap1\n      pop\n        /* \"#utility.yul\":4186:4187   */\n      0x01\n        /* \"#utility.yul\":4180:4184   */\n      dup3\n        /* \"#utility.yul\":4176:4188   */\n      and\n        /* \"#utility.yul\":4207:4225   */\n      dup1\n        /* \"#utility.yul\":4197:4199   */\n      tag_111\n      jumpi\n        /* \"#utility.yul\":4263:4267   */\n      0x7f\n        /* \"#utility.yul\":4255:4261   */\n      dup3\n        /* \"#utility.yul\":4251:4268   */\n      and\n        /* \"#utility.yul\":4241:4268   */\n      swap2\n      pop\n        /* \"#utility.yul\":4197:4199   */\n    tag_111:\n        /* \"#utility.yul\":4325:4327   */\n      0x20\n        /* \"#utility.yul\":4317:4323   */\n      dup3\n        /* \"#utility.yul\":4314:4328   */\n      lt\n        /* \"#utility.yul\":4294:4312   */\n      dup2\n        /* \"#utility.yul\":4291:4329   */\n      eq\n        /* \"#utility.yul\":4288:4290   */\n      iszero\n      tag_112\n      jumpi\n        /* \"#utility.yul\":4344:4362   */\n      tag_113\n      tag_114\n      jump\t// in\n    tag_113:\n        /* \"#utility.yul\":4288:4290   */\n    tag_112:\n        /* \"#utility.yul\":4109:4378   */\n      pop\n      swap2\n      swap1\n      pop\n      jump\t// out\n        /* \"#utility.yul\":4384:4665   */\n    tag_93:\n        /* \"#utility.yul\":4467:4494   */\n      tag_116\n        /* \"#utility.yul\":4489:4493   */\n      dup3\n        /* \"#utility.yul\":4467:4494   */\n      tag_86\n      jump\t// in\n    tag_116:\n        /* \"#utility.yul\":4459:4465   */\n      dup2\n        /* \"#utility.yul\":4455:4495   */\n      add\n        /* \"#utility.yul\":4597:4603   */\n      dup2\n        /* \"#utility.yul\":4585:4595   */\n      dup2\n        /* \"#utility.yul\":4582:4604   */\n      lt\n        /* \"#utility.yul\":4561:4579   */\n      0xffffffffffffffff\n        /* \"#utility.yul\":4549:4559   */\n      dup3\n        /* \"#utility.yul\":4546:4580   */\n      gt\n        /* \"#utility.yul\":4543:4605   */\n      or\n        /* \"#utility.yul\":4540:4542   */\n      iszero\n      tag_117\n      jumpi\n        /* \"#utility.yul\":4608:4626   */\n      tag_118\n      tag_98\n      jump\t// in\n    tag_118:\n        /* \"#utility.yul\":4540:4542   */\n    tag_117:\n        /* \"#utility.yul\":4648:4658   */\n      dup1\n        /* \"#utility.yul\":4644:4646   */\n      0x40\n        /* \"#utility.yul\":4637:4659   */\n      mstore\n        /* \"#utility.yul\":4427:4665   */\n      pop\n      pop\n      pop\n      jump\t// out\n        /* \"#utility.yul\":4671:4851   */\n    tag_114:\n        /* \"#utility.yul\":4719:4796   */\n      0x4e487b7100000000000000000000000000000000000000000000000000000000\n        /* \"#utility.yul\":4716:4717   */\n      0x00\n        /* \"#utility.yul\":4709:4797   */\n      mstore\n        /* \"#utility.yul\":4816:4820   */\n      0x22\n        /* \"#utility.yul\":4813:4814   */\n      0x04\n        /* \"#utility.yul\":4806:4821   */\n      mstore\n        /* \"#utility.yul\":4840:4844   */\n      0x24\n        /* \"#utility.yul\":4837:4838   */\n      0x00\n        /* \"#utility.yul\":4830:4845   */\n      revert\n        /* \"#utility.yul\":4857:5037   */\n    tag_98:\n        /* \"#utility.yul\":4905:4982   */\n      0x4e487b7100000000000000000000000000000000000000000000000000000000\n        /* \"#utility.yul\":4902:4903   */\n      0x00\n        /* \"#utility.yul\":4895:4983   */\n      mstore\n        /* \"#utility.yul\":5002:5006   */\n      0x41\n        /* \"#utility.yul\":4999:5000   */\n      0x04\n        /* \"#utility.yul\":4992:5007   */\n      mstore\n        /* \"#utility.yul\":5026:5030   */\n      0x24\n        /* \"#utility.yul\":5023:5024   */\n      0x00\n        /* \"#utility.yul\":5016:5031   */\n      revert\n        /* \"#utility.yul\":5043:5145   */\n    tag_86:\n      0x00\n        /* \"#utility.yul\":5135:5137   */\n      0x1f\n        /* \"#utility.yul\":5131:5138   */\n      not\n        /* \"#utility.yul\":5126:5128   */\n      0x1f\n        /* \"#utility.yul\":5119:5124   */\n      dup4\n        /* \"#utility.yul\":5115:5129   */\n      add\n        /* \"#utility.yul\":5111:5139   */\n      and\n        /* \"#utility.yul\":5101:5139   */\n      swap1\n      pop\n        /* \"#utility.yul\":5091:5145   */\n      swap2\n      swap1\n      pop\n      jump\t// out\n        /* \"#utility.yul\":5151:5273   */\n    tag_64:\n        /* \"#utility.yul\":5224:5248   */\n      tag_123\n        /* \"#utility.yul\":5242:5247   */\n      dup2\n        /* \"#utility.yul\":5224:5248   */\n      tag_102\n      jump\t// in\n    tag_123:\n        /* \"#utility.yul\":5217:5222   */\n      dup2\n        /* \"#utility.yul\":5214:5249   */\n      eq\n        /* \"#utility.yul\":5204:5206   */\n      tag_124\n      jumpi\n        /* \"#utility.yul\":5263:5264   */\n      0x00\n        /* \"#utility.yul\":5260:5261   */\n      dup1\n        /* \"#utility.yul\":5253:5265   */\n      revert\n        /* \"#utility.yul\":5204:5206   */\n    tag_124:\n        /* \"#utility.yul\":5194:5273   */\n      pop\n      jump\t// out\n\n    auxdata: 0xa26469706673582212200c9e889a34cad6aa083f015d1b2c0b486061f1d38e923abef22b4f29e355dc0964736f6c63430008010033\n}\n",
				"bytecode": {
					"linkReferences": {},
					"object": "608060405234801561001057600080fd5b50610657806100206000396000f3fe608060405234801561001057600080fd5b50600436106100415760003560e01c80631e98fd1c1461004657806323c674af14610076578063d51af2bf146100a6575b600080fd5b610060600480360381019061005b9190610366565b6100c2565b60405161006d9190610458565b60405180910390f35b610090600480360381019061008b91906103e3565b610162565b60405161009d9190610458565b60405180910390f35b6100c060048036038101906100bb919061038f565b61021b565b005b600060205280600052604060002060009150905080546100e190610538565b80601f016020809104026020016040519081016040528092919081815260200182805461010d90610538565b801561015a5780601f1061012f5761010080835404028352916020019161015a565b820191906000526020600020905b81548152906001019060200180831161013d57829003601f168201915b505050505081565b6001602052816000526040600020818154811061017e57600080fd5b9060005260206000200160009150915050805461019a90610538565b80601f01602080910402602001604051908101604052809291908181526020018280546101c690610538565b80156102135780601f106101e857610100808354040283529160200191610213565b820191906000526020600020905b8154815290600101906020018083116101f657829003601f168201915b505050505081565b806000808481526020019081526020016000209080519060200190610241929190610246565b505050565b82805461025290610538565b90600052602060002090601f01602090048101928261027457600085556102bb565b82601f1061028d57805160ff19168380011785556102bb565b828001600101855582156102bb579182015b828111156102ba57825182559160200191906001019061029f565b5b5090506102c891906102cc565b5090565b5b808211156102e55760008160009055506001016102cd565b5090565b60006102fc6102f78461049f565b61047a565b90508281526020810184848401111561031457600080fd5b61031f8482856104f6565b509392505050565b600082601f83011261033857600080fd5b81356103488482602086016102e9565b91505092915050565b6000813590506103608161060a565b92915050565b60006020828403121561037857600080fd5b600061038684828501610351565b91505092915050565b600080604083850312156103a257600080fd5b60006103b085828601610351565b925050602083013567ffffffffffffffff8111156103cd57600080fd5b6103d985828601610327565b9150509250929050565b600080604083850312156103f657600080fd5b600061040485828601610351565b925050602061041585828601610351565b9150509250929050565b600061042a826104d0565b61043481856104db565b9350610444818560208601610505565b61044d816105f9565b840191505092915050565b60006020820190508181036000830152610472818461041f565b905092915050565b6000610484610495565b9050610490828261056a565b919050565b6000604051905090565b600067ffffffffffffffff8211156104ba576104b96105ca565b5b6104c3826105f9565b9050602081019050919050565b600081519050919050565b600082825260208201905092915050565b6000819050919050565b82818337600083830152505050565b60005b83811015610523578082015181840152602081019050610508565b83811115610532576000848401525b50505050565b6000600282049050600182168061055057607f821691505b602082108114156105645761056361059b565b5b50919050565b610573826105f9565b810181811067ffffffffffffffff82111715610592576105916105ca565b5b80604052505050565b7f4e487b7100000000000000000000000000000000000000000000000000000000600052602260045260246000fd5b7f4e487b7100000000000000000000000000000000000000000000000000000000600052604160045260246000fd5b6000601f19601f8301169050919050565b610613816104ec565b811461061e57600080fd5b5056fea26469706673582212200c9e889a34cad6aa083f015d1b2c0b486061f1d38e923abef22b4f29e355dc0964736f6c63430008010033",
					"opcodes": "PUSH1 0x80 PUSH1 0x40 MSTORE CALLVALUE DUP1 ISZERO PUSH2 0x10 JUMPI PUSH1 0x0 DUP1 REVERT JUMPDEST POP PUSH2 0x657 DUP1 PUSH2 0x20 PUSH1 0x0 CODECOPY PUSH1 0x0 RETURN INVALID PUSH1 0x80 PUSH1 0x40 MSTORE CALLVALUE DUP1 ISZERO PUSH2 0x10 JUMPI PUSH1 0x0 DUP1 REVERT JUMPDEST POP PUSH1 0x4 CALLDATASIZE LT PUSH2 0x41 JUMPI PUSH1 0x0 CALLDATALOAD PUSH1 0xE0 SHR DUP1 PUSH4 0x1E98FD1C EQ PUSH2 0x46 JUMPI DUP1 PUSH4 0x23C674AF EQ PUSH2 0x76 JUMPI DUP1 PUSH4 0xD51AF2BF EQ PUSH2 0xA6 JUMPI JUMPDEST PUSH1 0x0 DUP1 REVERT JUMPDEST PUSH2 0x60 PUSH1 0x4 DUP1 CALLDATASIZE SUB DUP2 ADD SWAP1 PUSH2 0x5B SWAP2 SWAP1 PUSH2 0x366 JUMP JUMPDEST PUSH2 0xC2 JUMP JUMPDEST PUSH1 0x40 MLOAD PUSH2 0x6D SWAP2 SWAP1 PUSH2 0x458 JUMP JUMPDEST PUSH1 0x40 MLOAD DUP1 SWAP2 SUB SWAP1 RETURN JUMPDEST PUSH2 0x90 PUSH1 0x4 DUP1 CALLDATASIZE SUB DUP2 ADD SWAP1 PUSH2 0x8B SWAP2 SWAP1 PUSH2 0x3E3 JUMP JUMPDEST PUSH2 0x162 JUMP JUMPDEST PUSH1 0x40 MLOAD PUSH2 0x9D SWAP2 SWAP1 PUSH2 0x458 JUMP JUMPDEST PUSH1 0x40 MLOAD DUP1 SWAP2 SUB SWAP1 RETURN JUMPDEST PUSH2 0xC0 PUSH1 0x4 DUP1 CALLDATASIZE SUB DUP2 ADD SWAP1 PUSH2 0xBB SWAP2 SWAP1 PUSH2 0x38F JUMP JUMPDEST PUSH2 0x21B JUMP JUMPDEST STOP JUMPDEST PUSH1 0x0 PUSH1 0x20 MSTORE DUP1 PUSH1 0x0 MSTORE PUSH1 0x40 PUSH1 0x0 KECCAK256 PUSH1 0x0 SWAP2 POP SWAP1 POP DUP1 SLOAD PUSH2 0xE1 SWAP1 PUSH2 0x538 JUMP JUMPDEST DUP1 PUSH1 0x1F ADD PUSH1 0x20 DUP1 SWAP2 DIV MUL PUSH1 0x20 ADD PUSH1 0x40 MLOAD SWAP1 DUP2 ADD PUSH1 0x40 MSTORE DUP1 SWAP3 SWAP2 SWAP1 DUP2 DUP2 MSTORE PUSH1 0x20 ADD DUP3 DUP1 SLOAD PUSH2 0x10D SWAP1 PUSH2 0x538 JUMP JUMPDEST DUP1 ISZERO PUSH2 0x15A JUMPI DUP1 PUSH1 0x1F LT PUSH2 0x12F JUMPI PUSH2 0x100 DUP1 DUP4 SLOAD DIV MUL DUP4 MSTORE SWAP2 PUSH1 0x20 ADD SWAP2 PUSH2 0x15A JUMP JUMPDEST DUP3 ADD SWAP2 SWAP1 PUSH1 0x0 MSTORE PUSH1 0x20 PUSH1 0x0 KECCAK256 SWAP1 JUMPDEST DUP2 SLOAD DUP2 MSTORE SWAP1 PUSH1 0x1 ADD SWAP1 PUSH1 0x20 ADD DUP1 DUP4 GT PUSH2 0x13D JUMPI DUP3 SWAP1 SUB PUSH1 0x1F AND DUP3 ADD SWAP2 JUMPDEST POP POP POP POP POP DUP2 JUMP JUMPDEST PUSH1 0x1 PUSH1 0x20 MSTORE DUP2 PUSH1 0x0 MSTORE PUSH1 0x40 PUSH1 0x0 KECCAK256 DUP2 DUP2 SLOAD DUP2 LT PUSH2 0x17E JUMPI PUSH1 0x0 DUP1 REVERT JUMPDEST SWAP1 PUSH1 0x0 MSTORE PUSH1 0x20 PUSH1 0x0 KECCAK256 ADD PUSH1 0x0 SWAP2 POP SWAP2 POP POP DUP1 SLOAD PUSH2 0x19A SWAP1 PUSH2 0x538 JUMP JUMPDEST DUP1 PUSH1 0x1F ADD PUSH1 0x20 DUP1 SWAP2 DIV MUL PUSH1 0x20 ADD PUSH1 0x40 MLOAD SWAP1 DUP2 ADD PUSH1 0x40 MSTORE DUP1 SWAP3 SWAP2 SWAP1 DUP2 DUP2 MSTORE PUSH1 0x20 ADD DUP3 DUP1 SLOAD PUSH2 0x1C6 SWAP1 PUSH2 0x538 JUMP JUMPDEST DUP1 ISZERO PUSH2 0x213 JUMPI DUP1 PUSH1 0x1F LT PUSH2 0x1E8 JUMPI PUSH2 0x100 DUP1 DUP4 SLOAD DIV MUL DUP4 MSTORE SWAP2 PUSH1 0x20 ADD SWAP2 PUSH2 0x213 JUMP JUMPDEST DUP3 ADD SWAP2 SWAP1 PUSH1 0x0 MSTORE PUSH1 0x20 PUSH1 0x0 KECCAK256 SWAP1 JUMPDEST DUP2 SLOAD DUP2 MSTORE SWAP1 PUSH1 0x1 ADD SWAP1 PUSH1 0x20 ADD DUP1 DUP4 GT PUSH2 0x1F6 JUMPI DUP3 SWAP1 SUB PUSH1 0x1F AND DUP3 ADD SWAP2 JUMPDEST POP POP POP POP POP DUP2 JUMP JUMPDEST DUP1 PUSH1 0x0 DUP1 DUP5 DUP2 MSTORE PUSH1 0x20 ADD SWAP1 DUP2 MSTORE PUSH1 0x20 ADD PUSH1 0x0 KECCAK256 SWAP1 DUP1 MLOAD SWAP1 PUSH1 0x20 ADD SWAP1 PUSH2 0x241 SWAP3 SWAP2 SWAP1 PUSH2 0x246 JUMP JUMPDEST POP POP POP JUMP JUMPDEST DUP3 DUP1 SLOAD PUSH2 0x252 SWAP1 PUSH2 0x538 JUMP JUMPDEST SWAP1 PUSH1 0x0 MSTORE PUSH1 0x20 PUSH1 0x0 KECCAK256 SWAP1 PUSH1 0x1F ADD PUSH1 0x20 SWAP1 DIV DUP2 ADD SWAP3 DUP3 PUSH2 0x274 JUMPI PUSH1 0x0 DUP6 SSTORE PUSH2 0x2BB JUMP JUMPDEST DUP3 PUSH1 0x1F LT PUSH2 0x28D JUMPI DUP1 MLOAD PUSH1 0xFF NOT AND DUP4 DUP1 ADD OR DUP6 SSTORE PUSH2 0x2BB JUMP JUMPDEST DUP3 DUP1 ADD PUSH1 0x1 ADD DUP6 SSTORE DUP3 ISZERO PUSH2 0x2BB JUMPI SWAP2 DUP3 ADD JUMPDEST DUP3 DUP2 GT ISZERO PUSH2 0x2BA JUMPI DUP3 MLOAD DUP3 SSTORE SWAP2 PUSH1 0x20 ADD SWAP2 SWAP1 PUSH1 0x1 ADD SWAP1 PUSH2 0x29F JUMP JUMPDEST JUMPDEST POP SWAP1 POP PUSH2 0x2C8 SWAP2 SWAP1 PUSH2 0x2CC JUMP JUMPDEST POP SWAP1 JUMP JUMPDEST JUMPDEST DUP1 DUP3 GT ISZERO PUSH2 0x2E5 JUMPI PUSH1 0x0 DUP2 PUSH1 0x0 SWAP1 SSTORE POP PUSH1 0x1 ADD PUSH2 0x2CD JUMP JUMPDEST POP SWAP1 JUMP JUMPDEST PUSH1 0x0 PUSH2 0x2FC PUSH2 0x2F7 DUP5 PUSH2 0x49F JUMP JUMPDEST PUSH2 0x47A JUMP JUMPDEST SWAP1 POP DUP3 DUP2 MSTORE PUSH1 0x20 DUP2 ADD DUP5 DUP5 DUP5 ADD GT ISZERO PUSH2 0x314 JUMPI PUSH1 0x0 DUP1 REVERT JUMPDEST PUSH2 0x31F DUP5 DUP3 DUP6 PUSH2 0x4F6 JUMP JUMPDEST POP SWAP4 SWAP3 POP POP POP JUMP JUMPDEST PUSH1 0x0 DUP3 PUSH1 0x1F DUP4 ADD SLT PUSH2 0x338 JUMPI PUSH1 0x0 DUP1 REVERT JUMPDEST DUP2 CALLDATALOAD PUSH2 0x348 DUP5 DUP3 PUSH1 0x20 DUP7 ADD PUSH2 0x2E9 JUMP JUMPDEST SWAP2 POP POP SWAP3 SWAP2 POP POP JUMP JUMPDEST PUSH1 0x0 DUP2 CALLDATALOAD SWAP1 POP PUSH2 0x360 DUP2 PUSH2 0x60A JUMP JUMPDEST SWAP3 SWAP2 POP POP JUMP JUMPDEST PUSH1 0x0 PUSH1 0x20 DUP3 DUP5 SUB SLT ISZERO PUSH2 0x378 JUMPI PUSH1 0x0 DUP1 REVERT JUMPDEST PUSH1 0x0 PUSH2 0x386 DUP5 DUP3 DUP6 ADD PUSH2 0x351 JUMP JUMPDEST SWAP2 POP POP SWAP3 SWAP2 POP POP JUMP JUMPDEST PUSH1 0x0 DUP1 PUSH1 0x40 DUP4 DUP6 SUB SLT ISZERO PUSH2 0x3A2 JUMPI PUSH1 0x0 DUP1 REVERT JUMPDEST PUSH1 0x0 PUSH2 0x3B0 DUP6 DUP3 DUP7 ADD PUSH2 0x351 JUMP JUMPDEST SWAP3 POP POP PUSH1 0x20 DUP4 ADD CALLDATALOAD PUSH8 0xFFFFFFFFFFFFFFFF DUP2 GT ISZERO PUSH2 0x3CD JUMPI PUSH1 0x0 DUP1 REVERT JUMPDEST PUSH2 0x3D9 DUP6 DUP3 DUP7 ADD PUSH2 0x327 JUMP JUMPDEST SWAP2 POP POP SWAP3 POP SWAP3 SWAP1 POP JUMP JUMPDEST PUSH1 0x0 DUP1 PUSH1 0x40 DUP4 DUP6 SUB SLT ISZERO PUSH2 0x3F6 JUMPI PUSH1 0x0 DUP1 REVERT JUMPDEST PUSH1 0x0 PUSH2 0x404 DUP6 DUP3 DUP7 ADD PUSH2 0x351 JUMP JUMPDEST SWAP3 POP POP PUSH1 0x20 PUSH2 0x415 DUP6 DUP3 DUP7 ADD PUSH2 0x351 JUMP JUMPDEST SWAP2 POP POP SWAP3 POP SWAP3 SWAP1 POP JUMP JUMPDEST PUSH1 0x0 PUSH2 0x42A DUP3 PUSH2 0x4D0 JUMP JUMPDEST PUSH2 0x434 DUP2 DUP6 PUSH2 0x4DB JUMP JUMPDEST SWAP4 POP PUSH2 0x444 DUP2 DUP6 PUSH1 0x20 DUP7 ADD PUSH2 0x505 JUMP JUMPDEST PUSH2 0x44D DUP2 PUSH2 0x5F9 JUMP JUMPDEST DUP5 ADD SWAP2 POP POP SWAP3 SWAP2 POP POP JUMP JUMPDEST PUSH1 0x0 PUSH1 0x20 DUP3 ADD SWAP1 POP DUP2 DUP2 SUB PUSH1 0x0 DUP4 ADD MSTORE PUSH2 0x472 DUP2 DUP5 PUSH2 0x41F JUMP JUMPDEST SWAP1 POP SWAP3 SWAP2 POP POP JUMP JUMPDEST PUSH1 0x0 PUSH2 0x484 PUSH2 0x495 JUMP JUMPDEST SWAP1 POP PUSH2 0x490 DUP3 DUP3 PUSH2 0x56A JUMP JUMPDEST SWAP2 SWAP1 POP JUMP JUMPDEST PUSH1 0x0 PUSH1 0x40 MLOAD SWAP1 POP SWAP1 JUMP JUMPDEST PUSH1 0x0 PUSH8 0xFFFFFFFFFFFFFFFF DUP3 GT ISZERO PUSH2 0x4BA JUMPI PUSH2 0x4B9 PUSH2 0x5CA JUMP JUMPDEST JUMPDEST PUSH2 0x4C3 DUP3 PUSH2 0x5F9 JUMP JUMPDEST SWAP1 POP PUSH1 0x20 DUP2 ADD SWAP1 POP SWAP2 SWAP1 POP JUMP JUMPDEST PUSH1 0x0 DUP2 MLOAD SWAP1 POP SWAP2 SWAP1 POP JUMP JUMPDEST PUSH1 0x0 DUP3 DUP3 MSTORE PUSH1 0x20 DUP3 ADD SWAP1 POP SWAP3 SWAP2 POP POP JUMP JUMPDEST PUSH1 0x0 DUP2 SWAP1 POP SWAP2 SWAP1 POP JUMP JUMPDEST DUP3 DUP2 DUP4 CALLDATACOPY PUSH1 0x0 DUP4 DUP4 ADD MSTORE POP POP POP JUMP JUMPDEST PUSH1 0x0 JUMPDEST DUP4 DUP2 LT ISZERO PUSH2 0x523 JUMPI DUP1 DUP3 ADD MLOAD DUP2 DUP5 ADD MSTORE PUSH1 0x20 DUP2 ADD SWAP1 POP PUSH2 0x508 JUMP JUMPDEST DUP4 DUP2 GT ISZERO PUSH2 0x532 JUMPI PUSH1 0x0 DUP5 DUP5 ADD MSTORE JUMPDEST POP POP POP POP JUMP JUMPDEST PUSH1 0x0 PUSH1 0x2 DUP3 DIV SWAP1 POP PUSH1 0x1 DUP3 AND DUP1 PUSH2 0x550 JUMPI PUSH1 0x7F DUP3 AND SWAP2 POP JUMPDEST PUSH1 0x20 DUP3 LT DUP2 EQ ISZERO PUSH2 0x564 JUMPI PUSH2 0x563 PUSH2 0x59B JUMP JUMPDEST JUMPDEST POP SWAP2 SWAP1 POP JUMP JUMPDEST PUSH2 0x573 DUP3 PUSH2 0x5F9 JUMP JUMPDEST DUP2 ADD DUP2 DUP2 LT PUSH8 0xFFFFFFFFFFFFFFFF DUP3 GT OR ISZERO PUSH2 0x592 JUMPI PUSH2 0x591 PUSH2 0x5CA JUMP JUMPDEST JUMPDEST DUP1 PUSH1 0x40 MSTORE POP POP POP JUMP JUMPDEST PUSH32 0x4E487B7100000000000000000000000000000000000000000000000000000000 PUSH1 0x0 MSTORE PUSH1 0x22 PUSH1 0x4 MSTORE PUSH1 0x24 PUSH1 0x0 REVERT JUMPDEST PUSH32 0x4E487B7100000000000000000000000000000000000000000000000000000000 PUSH1 0x0 MSTORE PUSH1 0x41 PUSH1 0x4 MSTORE PUSH1 0x24 PUSH1 0x0 REVERT JUMPDEST PUSH1 0x0 PUSH1 0x1F NOT PUSH1 0x1F DUP4 ADD AND SWAP1 POP SWAP2 SWAP1 POP JUMP JUMPDEST PUSH2 0x613 DUP2 PUSH2 0x4EC JUMP JUMPDEST DUP2 EQ PUSH2 0x61E JUMPI PUSH1 0x0 DUP1 REVERT JUMPDEST POP JUMP INVALID LOG2 PUSH5 0x6970667358 0x22 SLT KECCAK256 0xC SWAP15 DUP9 SWAP11 CALLVALUE 0xCA 0xD6 0xAA ADDMOD EXTCODEHASH ADD 0x5D SHL 0x2C SIGNEXTEND 0x48 PUSH1 0x61 CALL 0xD3 DUP15 SWAP3 GASPRICE 0xBE CALLCODE 0x2B 0x4F 0x29 0xE3 SSTORE 0xDC MULMOD PUSH5 0x736F6C6343 STOP ADDMOD ADD STOP CALLER "
				},
				"gasEstimates": {
					"creation": {
						"codeDepositCost": "324600",
						"executionCost": "362",
						"totalCost": "324962"
					},
					"external": {
						"Assets(uint256,uint256)": "infinite",
						"Users(uint256)": "infinite",
						"addUser(uint256,string)": "infinite"
					}
				},
				"methodIdentifiers": {
					"Assets(uint256,uint256)": "23c674af",
					"Users(uint256)": "1e98fd1c",
					"addUser(uint256,string)": "d51af2bf"
				}
			},
			"storageLayout": {
				"storage": [
					{
						"astId": 5,
						"contract": "Auction.sol:Auction",
						"label": "Users",
						"offset": 0,
						"slot": "0",
						"type": "t_mapping(t_uint256,t_string_storage)"
					},
					{
						"astId": 10,
						"contract": "Auction.sol:Auction",
						"label": "Assets",
						"offset": 0,
						"slot": "1",
						"type": "t_mapping(t_uint256,t_array(t_string_storage)dyn_storage)"
					}
				],
				"types": {
					"t_array(t_string_storage)dyn_storage": {
						"base": "t_string_storage",
						"encoding": "dynamic_array",
						"label": "string[]",
						"numberOfBytes": "32"
					},
					"t_mapping(t_uint256,t_array(t_string_storage)dyn_storage)": {
						"encoding": "mapping",
						"key": "t_uint256",
						"label": "mapping(uint256 => string[])",
						"numberOfBytes": "32",
						"value": "t_array(t_string_storage)dyn_storage"
					},
					"t_mapping(t_uint256,t_string_storage)": {
						"encoding": "mapping",
						"key": "t_uint256",
						"label": "mapping(uint256 => string)",
						"numberOfBytes": "32",
						"value": "t_string_storage"
					},
					"t_string_storage": {
						"encoding": "bytes",
						"label": "string",
						"numberOfBytes": "32"
					},
					"t_uint256": {
						"encoding": "inplace",
						"label": "uint256",
						"numberOfBytes": "32"
					}
				}
			},
			"userdoc": {
				"kind": "user",
				"methods": {},
				"version": 1
			}
		}
	}
}